:040000006DEF02F0AE
:100008005F82FACF33F0FBCF34F0E9CF35F0EACF97
:1000180036F0E1CF37F0E2CF38F0D9CF39F0DACF88
:100028003AF0F3CF3BF0F4CF3CF0F6CF3DF0F7CF0A
:100038003EF0F8CF3FF0F5CF40F0F0B4F0AA1FD271
:10004800600E5518D8A416D2280E94EC27F02D6E01
:10005800D8902D3001018E6F8EC18DF18B94000EDA
:10006800FEEC28F04B6E8B84000E4C6E010E4C6437
:1000780001D00DD04C50390D000EF324D96E030E6B
:10008800F420DA6E0301DFA002D04C2AEFD7020E6B
:100098004B18D8A402D0010E01D0000E486E370EBE
:1000A8004B6009D04B50D8B406D0010E4C6413D025
:1000B8004850D8A410D01A0E94EC27F008D08B948E
:1000C800000EFEEC28F08B841A0E94EC27F0436E99
:1000D80043A2D3D1F4D7000E496E4BC041F0426A17
:1000E800C4D14106D8A042064850D8B40FD08B944A
:1000F8004950010D440EF324D96E000EF420DA6E37
:10010800000EFEEC28F01CD0492A1CD08B944950D4
:10011800010D010EF326000EF422000E2D6E030EC3
:100128002E6EF3502D26F4502E224C50390DF350DC
:100138002D24D96EF4502E20DA6E000EFEEC28F035
:10014800DF6EE2D78B844B50495CD8A08ED14850E3
:10015800D8B431D04450030B020AD8A40AD058505E
:100168004518D8A403D0010E0001F36F000E496EA4
:1001780084D1010E4C6403D0000E496E9CD74C50BC
:10018800390D010EF326000EF422000EF324D96E69
:10019800030EF420DA6E44C0DFFF4C50390D020E16
:1001A800F326000EF422000EF324D96E030EF42079
:1001B800DA6E45C0DFFF4C50390D380EF326000EBD
:1001C800F422000EF324D96E030EF420DA6E4BC02D
:1001D800DFFF4A684C50390D010EF326000EF42259
:1001E800000EF324D96E030EF420DA6E0301DFAC9F
:1001F80041D0000E4D6E35D04D50010DF3504F24B7
:10020800D96EF4505020DA6E4C50390D4D502E6E88
:100218002F6A030E2E26000E2F22000E306E030EBC
:10022800316E2E5030262F503122F3503024E16E9B
:10023800F4503120E26EDE50E618D8B411D0000E2A
:10024800496E4C50390D380EF326000EF422000E7C
:10025800F324D96E030EF420DA6E000EDF6E2BD76E
:100268004D2A4E30E832E8320F0B2D6E2D504D5C82
:10027800D8A0C2D74C50390D010EF326000EF42237
:10028800000EF324D96E030EF420DA6E0301DFAA00
:100298004CD0000E4D6E010E4D6401D014D04D505F
:1002A800010D000EF324D96E020EF420DA6E4D50C3
:1002B800010D440EF324E16E000EF420E26EDFCF50
:1002C800E7FF4D2AE8D7060E0201006F4C50390DA2
:1002D800020EF326000EF422000EF324D96E030E4C
:1002E800F420DA6EDF500201016FF094000E156EF3
:1002F800020E95EC18F0000E4D6E010E4D6401D003
:1003080014D04D50010D440EF324D96E000EF42084
:10031800DA6E4D50010D000EF324E16E020EF4204A
:10032800E26EDFCFE7FF4D2AE8D7000E4D6E040ED0
:100338004D6401D04FD04D50060D280EF324D96ED0
:10034800010EF420DA6EDF50D8B433D04C50390D9A
:10035800020EF326000EF422000EF324D96E030ECB
:10036800F420DA6E4D50060D010EF326000EF4222D
:10037800280EF324E16E010EF420E26EDE50E6183A
:10038800D8A417D04CEC25F04D50060D020EF326DC
:10039800000EF422280EF324D96E010EF420DA6E32
:1003A80001C0DEFF02C0DEFF03C0DEFF04C0DEFFC7
:1003B80011D04A28D8A40CD04D50060D280EF3248D
:1003C800D96E010EF420DA6EDF50D8B44DC04AF071
:1003D8004D2AADD7040E4D6450D0050E4A603AD070
:1003E8004A50060D280EF324D96E010EF420DA6E59
:1003F800010EDF6E4C50390D020EF326000EF4226A
:10040800000EF324D96E030EF420DA6E4A50060D5E
:10041800010EF326000EF422280EF324E16E010EDD
:10042800F420E26EDFCFE7FF4CEC25F04A50060DD2
:10043800020EF326000EF422280EF324D96E010EC4
:10044800F420DA6E01C0DEFF02C0DEFF03C0DEFF6B
:1004580004C0DEFF4C50390D000EF324D96E030E94
:10046800F420DA6E0301DF8008D041504210D8B47E
:1004780004D037D6010E0001EA6FF09400F09EB068
:100488009DA007D09E905A2A5A50D8A402D00001A5
:10049800F62BD7EC28F040C0F5FF3FC0F8FF3EC070
:1004A800F7FF3DC0F6FF3CC0F4FF3BC0F3FF3AC086
:1004B800DAFF39C0D9FF38C0E2FF37C0E1FF36C0E4
:1004C800EAFF35C0E9FF34C0FBFF33C0FAFF5F9293
:1004D80011000AEF24F09DEC23F060C0B9F061C070
:1004E800BAF062C0BBF063C0BCF09DEC23F060C002
:1004F800BEF061C0BFF062C0C0F063C0C1F00001CF
:10050800FC51D8B443D084C1ACF085C1ADF086C1EC
:10051800AEF087C1AFF00001AC1FAD1FAE1FAF1F1B
:10052800AC2B000EAD23AE23AF230001BE5100015A
:10053800AC250001B06F0001BF510001AD210001E1
:10054800B16F0001C0510001AE210001B26F00017E
:10055800C1510001AF210001B36F810E0001B05DF0
:10056800D10E0001B159F00E0001B259080E000178
:10057800B359D8A04DD060EC22F0BEC084F1BFC002
:1005880085F1C0C086F1C1C087F142D080C1ACF00E
:1005980081C1ADF082C1AEF083C1AFF00001AC1FE4
:1005A800AD1FAE1FAF1FAC2B000EAD23AE23AF2384
:1005B8000001BE510001AC250001B06F0001BF5120
:1005C8000001AD210001B16F0001C0510001AE2151
:1005D8000001B26F0001C1510001AF210001B36FEA
:1005E8000001B3510BE1710E0001B05D380E00013E
:1005F800B159390E0001B259D8A00AD0A2EC25F0A1
:10060800BEC080F1BFC081F1C0C082F1C1C083F11A
:1006180080C1ACF081C1ADF082C1AEF083C1AFF052
:100628000001AC1FAD1FAE1FAF1FAC2B000EAD23DA
:10063800AE23AF230001B9510001AC250001B06F12
:100648000001BA510001AD210001B16F0001BB5199
:100658000001AE210001B26F0001BC510001AF21C1
:100668000001B36F0001B3510BE1710E0001B05DE1
:10067800380E0001B159390E0001B259D8A00ED078
:100688000001FC51D8B40AD0A8EC10F0B9C080F130
:10069800BAC081F1BBC082F1BCC083F10001EDA3F7
:1006A80055D09DEC23F060C0B4F061C0B5F062C0D5
:1006B800B6F063C0B7F074C1ACF075C1ADF076C1E7
:1006C800AEF077C1AFF00001AC1FAD1FAE1FAF1F7A
:1006D800AC2B000EAD23AE23AF230001B4510001B3
:1006E800AC250001B06F0001B5510001AD2100013A
:1006F800B16F0001B6510001AE210001B26F0001D7
:10070800B7510001AF210001B36F0001B3510BE1F4
:10071800910E0001B05DD00E0001B159030E000129
:10072800B259D8A013D00001ED93370E0001616FC4
:10073800020E0001626FF7C063F0F8C064F0000EAB
:100748000001666F8C0E656FF8EC1DF00001EDB7C7
:1007580012007DEC13F00009D8B41200000E00015D
:10076800B86F000E01015A6F010164A504D00001A1
:10077800AC6BAC2B02D00001AC6B01015A510001EB
:10078800AC19FC0BAC1901015A6F010164A703D025
:1007980001015A8702D001015A9701016451030BE4
:1007A800E806D8A404D00001AC6BAC2B02D0000141
:1007B800AC6B0001AC3BAC4701015A510001AC19CC
:1007C800DF0BAC1901015A6F010164AF03D00101BD
:1007D8005A8D02D001015A9D010164AF04D065C150
:1007E8005DF166C15EF169C161F167C15FF168C120
:1007F80060F16BC163F16AC162F101015ABB84D334
:10080800A6D30001FC51D8B401D1000E0001C46F79
:10081800010120EE01F05F51D9266051DA22000172
:10082800FA51DE18D8B403D068EC28F092D3030E3E
:100838000001FF19D8A403D068EC28F08AD3AEECE5
:1008480014F00001C46F010120EE03F05F51D926B6
:100858006051DA22AA0EDE18D8A42ED0000E0001AC
:10086800C26F090E0001C26501D026D05DC160F0DB
:100878005EC161F00001C2510E0D040EF326000E98
:10088800F422370EF3240001626F020EF4200001F7
:10089800636F1FEC26F00009D8B40BD00001C251D9
:1008A800010D500EF324D96E010EF420DA6EFF0EFE
:1008B800DF6E0001C22BD5D70001FF05D8A40CD0EC
:1008C8000001C405D8B408D0020E0001C419D8B478
:1008D80003D0F30E0001C46F000E0001F06F000199
:1008E800F051010D940EF324D96E010EF420DA6E46
:1008F800910EDF6E0001F02B0001F051010D940EF6
:10090800F324D96E010EF420DA6EC4C0DFFF0001B3
:10091800F02B0001F051010D940EF324D96E010E55
:10092800F420DA6E8CC1DFFF0001F02B0001C45106
:100938000001D8B404D00001C405D8A42ED0000109
:10094800F051010D940EF324D96E010EF420DA6EE5
:10095800ECC0DFFF0001F02B000E0001C56F0001A5
:10096800C5510001D8A419D00001C551010DFD0ED3
:10097800F324D96E000EF420DA6E0001F051010D57
:10098800940EF324E16E010EF420E26EDFCFE7FF50
:100998000001F02B0001C52BE2D768EC28F05DC1FF
:1009A80095F05EC196F0010E0001976F0101000EEF
:1009B8005AB7010E0001986F000EC6EC1BF0A8ECA8
:1009C80010F00001C4510001D8A4C3D20001EB51BA
:1009D8000E0D370EF3240001616F020EF4200001A2
:1009E800626F0001EB510E0D0001F751F324000175
:1009F800636F0001F851F4200001646F000E0001DC
:100A0800666F0E0E656FF8EC1DF0A3D268EC28F047
:100A1800A0D2020E0001FF6503D068EC28F099D23D
:100A2800010120EE01F05F51D9266051DA22000160
:100A3800FA51DE18D8B403D068EC28F08AD2000E38
:100A48000001F06F0001F051010D940EF324D96EEE
:100A5800010EF420DA6E970EDF6E0001F02B000114
:100A6800F051010D940EF324D96E010EF420DA6EC4
:100A7800ECC0DFFF0001F02B000E0001C56F000184
:100A8800C5510001D8A419D00001C551010DFD0EB2
:100A9800F324D96E000EF420DA6E0001F051010D36
:100AA800940EF324E16E010EF420E26EDFCFE7FF2F
:100AB8000001F02B0001C52BE2D768EC28F05DC1DE
:100AC80095F05EC196F0010E0001976F0101000ECE
:100AD8005AB7010E0001986F000EC6EC1BF039D210
:100AE800000E0001F06F0001F051010D940EF32487
:100AF800D96E010EF420DA6E920EDF6E0001F02B33
:100B0800000E0001C56F090E0001C56501D067D050
:100B18000001C5510E0D0C0EF326000EF422370EFF
:100B2800F324D96E020EF420DA6E0201DFAE54D03F
:100B38005DC160F05EC161F00001C5510E0D040E8B
:100B4800F326000EF422370EF3240001626F020E22
:100B5800F4200001636F1FEC26F00009D8B43CD0E4
:100B68000001C5510E0D0C0EF326000EF422370EAF
:100B7800F324D96E020EF420DA6E000EDF6E000147
:100B8800C5510E0D370EF3240001616F020EF420DB
:100B98000001626F0001C5510E0D0001F751F324E9
:100BA8000001636F0001F851F4200001646F000E2A
:100BB8000001666F0E0E656FF8EC1DF00001F05134
:100BC800010D940EF324D96E010EF420DA6E000E96
:100BD800DF6E0001F02B03D00001C52B94D768EC21
:100BE80028F00A0E0001C519D8A40DD00001F05153
:100BF800010D940EF324D96E010EF420DA6EF00E76
:100C0800DF6E0001F02B5DC195F05EC196F0010E1C
:100C18000001976F0101000E5AB7010E0001986F8D
:100C2800000EC6EC1BF095D1AEEC14F0010120EEDD
:100C380002F05F51D9266051DA22DF500001FB6FC4
:100C4800FB0E0001616F000E0001626FE8C163F0E6
:100C5800E9C164F0000E0001666F010E656FF8ECE3
:100C68001DF00001ED839DEC23F060C074F161C0BC
:100C780075F162C076F163C077F10ED0010120EE04
:100C880001F05F51D9266051DA22DF50000AD8B44A
:100C9800CBD7010AD8B4C8D768EC28F05AD10001DC
:100CA800EDAB02D00001ED9B68EC28F052D10101B8
:100CB80020EE01F05F51D9266051DA22DF50D8A426
:100CC80062D0000E0001C56F090E0001C56501D094
:100CD8005AD00001C5510E0D0C0EF326000EF42259
:100CE800370EF324D96E020EF420DA6E0201DFAE5D
:100CF80047D05DC160F05EC161F00001C5510E0DC5
:100D0800040EF326000EF422370EF3240001626F5E
:100D1800020EF4200001636F1FEC26F00009D8B41E
:100D28002FD00001C5510E0D0C0EF326000EF42233
:100D3800370EF324D96E020EF420DA6E000EDF6E41
:100D48000001C5510E0D370EF3240001616F020E2C
:100D5800F4200001626F0001C5510E0D0001F7512A
:100D6800F3240001636F0001F851F4200001646F5F
:100D7800000E0001666F0E0E656FF8EC1DF003D0D3
:100D88000001C52BA1D768EC28F0E3D00001FC5185
:100D9800D8A406D0010E0001F56F68EC28F0D9D070
:100DA80068EC28F0D6D00001FC51D8A416D0010177
:100DB80020EE01F05F51D9266051DA22DF500001A0
:100DC800AC6F0001AC05596E5FC167F060C168F097
:100DD800FCEC19F068EC28F0BCD068EC28F0B9D02D
:100DE8000001FC51D8B428D05FC160F060C161F047
:100DF800AAEC1CF00001BD6F0001BD29D8B40ED0CB
:100E08005FC1A5F060C1A6F0BDC0A7F05DC1A8F0A4
:100E18005EC1A9F039EC1CF00001B86F0001B851AF
:100E28000001D8B406D05DC19FF05EC1A0F041ECCE
:100E380027F068EC28F08DD068EC28F08AD0000103
:100E4800FC51D8B45ED0000E0001C36F090E00013A
:100E5800C36501D053D05DC1D9FF5EC1DAFF00017F
:100E6800C3510E0D040EF326000EF422370EF324A0
:100E7800E16E020EF420E26EDE50E618D8A43BD0F4
:100E8800010120EE01F05D51D9265E51DA22000100
:100E9800C3510E0D050EF326000EF422370EF3246F
:100EA800E16E020EF420E26EDE50E618D8A423D0DC
:100EB800010120EE02F05D51D9265E51DA220001CF
:100EC800C3510E0D060EF326000EF422370EF3243E
:100ED800E16E020EF420E26EDE50E618D8A40BD0C4
:100EE8000001C351010D460EF324D96E010EF42002
:100EF800DA6EDF2A03D00001C32BA8D768EC28F0EC
:100F080028D068EC28F025D05FC1D9FF60C1DAFF8E
:100F1800DF50770AD8B447D70D0AD8B490D7FB0A60
:100F2800D8B46FD4030AD8B4DBD5050AD8B471D5C0
:100F3800160AD8B4A3D6030AD8B4B9D6050AD8B4C1
:100F4800AED65B0AD8B44CD7160AD8B41FD700015E
:100F5800ED8701016151D8B406D00001EDB903D085
:100F68000001EDAB12000001ED9768EC28F01200CB
:100F7800700E0001876F000E0001886FC5EF0CF03E
:100F8800250E00018E19D8B40BD06CC0D9FF6DC0E6
:100F9800DAFF8EC0DFFF00016C4B6D2BC5EF0CF044
:100FA800000E00018D6F000E8C6F000E0001906F17
:100FB800000E8F6F0ED000018F8708D000018F813F
:100FC80005D00001908702D000018F8500016E4B8B
:100FD8006F2B6EC0F6FF6FC0F7FF0800F550200AB0
:100FE800D8B4ECD7030AD8B4ECD70E0AD8B4E3D7F0
:100FF8001D0AD8B4E9D700018FA702D000018F9548
:101008006EC0F6FF6FC0F7FF0800F55005EC28F03A
:10101800D8A041D0000E00018D6F000E8C6F8CC0DF
:1010280066F08DC067F0000E0001696F0A0E686FE8
:101038005FEC27F066C08CF067C08DF0D00E000121
:10104800786FFF0E0001796F6EC0F6FF6FC0F7FF73
:101058000800F55000017A6F7B6B000178510001A0
:101068007A270001795100017B2300017A510001A0
:101078008C2700017B5100018D2300016E4B6F2BE3
:101088006EC0F6FF6FC0F7FF0800F55005EC28F0BA
:10109800D8A01AD0C4D76EC0F6FF6FC0F7FF0800FB
:1010A800F5502A0AD8A410D087C0D9FF88C0DAFF23
:1010B800DECF8CF0DDCF8DF0020E00018727000E09
:1010C800882300016E4B6F2B6EC0F6FF6FC0F7FFD1
:1010D8000800F5502E0AD8A440D00001908D0001D8
:1010E8006E4B6F2B6EC0F6FF6FC0F7FF0800F55010
:1010F8002A0AD8A410D087C0D9FF88C0DAFFDF50E9
:1011080000018B6F020E00018727000E8823000163
:101118006E4B6F2BCBD0000E00018B6F13D06EC0BF
:10112800F6FF6FC0F7FF0800F5CF78F000018B518C
:101138000A0DF35000017825D00F00018B6F0001D4
:101148006E4B6F2B6EC0F6FF6FC0F7FF0800F550AF
:1011580005EC28F0D8A0AAD0E2D7000E00018B6FCA
:10116800A5D000018F8DC7D000018F8B00018F8F14
:10117800C2D000018B510001D8B417D08BC078F0D1
:101188000001796B78BF7907000185510001785D0E
:101198000001865100017959D8B007D000018B5160
:1011A8000001856F866B85BF860700018C510001A1
:1011B800855D00018D5100018659D8B009D0000124
:1011C800855100018C5F0001865100018D5B05D0BF
:1011D800000E00018D6F000E8C6F00018FA70AD0E2
:1011E80025D06CC0D9FF6DC0DAFF200EDF6E00017C
:1011F8006C4B6D2B00018C07D8A08D0700018C2942
:10120800F0E100018D29D8B411D0EBD77CC0D9FF0B
:101218007DC0DAFF6CC0E1FF6DC0E2FFDFCFE7FF02
:1012280000017C4B7D2B00016C4B6D2B0001850769
:10123800D8A0860700018529E9E100018629D8A4FC
:10124800E5D700018FB70AD09CD36CC0D9FF6DC019
:10125800DAFF200EDF6E00016C4B6D2B00018C074E
:10126800D8A08D0700018C29F0E100018D29D8B4A0
:1012780088D3EBD787C0D9FF88C0DAFFDF500001D9
:101288008E6F020E00018727000E88238E0E000144
:101298007C6F000E00017D6F000E0001866F010E4D
:1012A800856F67D7C00E00018F1325D06EC0F6FF7B
:1012B8006FC0F7FF00016E4B6F2B0800F5CF8EF063
:1012C80000018E51000AD8B46BD3580AD8B44CD751
:1012D8003B0AD8B4CFD7070AD8B40DD00D0AD8B472
:1012E8000AD0060AD8B43DD71A0AD8B4DBD70D0AF3
:1012F800D8B43CD7CBD7C00E00018F150001786F4A
:10130800000E000190150001796F0001785100016D
:101318007911D8A419D087C0D9FF88C0DAFFDECFE9
:1013280089F0DDCF8AF0020E00018727000E88239E
:1013380000018AAF16D0030E00018F130001896DDA
:101348008A1FD8B08A2B0DD087C0D9FF88C0DAFF92
:10135800DECF89F0DDCF8AF0020E00018727000E6C
:10136800882300018B510001D8A463D00001895162
:1013780000018A11D8A45DD000018B2B5AD0010E30
:1013880000018E6F050E00018E19D8B461D00001DE
:101398008E51020D310EF324F66EFE0EF420F76E18
:1013A8000900F5500001895D0900F55000018A59CE
:1013B800D8A04ED000018E2BE5D7010E00018E6F0C
:1013C800040E00018E19D8B443D000018E51020DCD
:1013D8003B0EF324F66EFE0EF420F76E0900F5506E
:1013E8000001895D0900F55000018A59D8A030D064
:1013F80000018E2BE5D7010E00018E6F060E00014D
:101408008E19D8B425D000018E51020D250EF32473
:10141800F66EFE0EF420F76E0900F5500001895DA6
:101428000900F55000018A59D8A012D000018E2B6E
:10143800E5D700018F51C00B000AD8B4A0D7400AE5
:10144800D8B4D9D7C00AD8B4B8D7400AD8B497D72F
:1014580000018E51800A0001786F00018B51800ACB
:101468000001785DD8B003D08BC08EF00DD000019C
:101478008B51800A0001786F00018E51800A0001AB
:10148800785DD8A08EC08BF000018C5100018D11C1
:10149800D8B414D0030E00018F150001786F000E28
:1014A800000190150001796F000178510001791150
:1014B800D8B404D000018C07D8A08D07000190ADE6
:1014C80021D0800E00018BBF7F0E0001786F0001D4
:1014D8008C5100018B5D00018D51800A0001785903
:1014E800D8B00BD000018B5100018C5F000E0001B9
:1014F8008BBFFF0E00018D5B05D0000E00018D6FC4
:10150800000E8C6FC40E0001786F080E0001796F11
:101518008FC07AF090C07BF00001785100017A17F3
:101528000001795100017B17400E00017A1910E182
:10153800080E00017B19D8A40BD000018C510001C2
:101548008D11D8B436D000018C07D8A08D0731D0C2
:10155800C00E0001786F080E0001796F8FC07AF015
:1015680090C07BF00001785100017A170001795191
:1015780000017B17800E00017A191BE1080E00019B
:101588007B19D8A416D000018DBF0ED000018D5153
:1015980005E1030E00018C5DD8A006D00001FE0E07
:1015A8008C27FF0E8D2305D0000E00018D6F000ED5
:1015B8008C6F800E00018EBF7F0E0001786F0001D6
:1015C8008C5100018E5D00018D51800A000178590F
:1015D800D8B00BD000018E5100018C5F000E0001C5
:1015E8008EBFFF0E00018D5B05D0000E00018D6FD0
:1015F800000E8C6F00018FA570D0030E00018F15AF
:101608000001786F000E000190150001796F00014C
:10161800785100017911D8B40AD06CC0D9FF6DC0D7
:10162800DAFF2D0E0CD000016C4B6D2B42D000015F
:101638008FA107D06CC0D9FF6DC0DAFF200EDF6E16
:10164800F2D7C00E0001786F080E0001796F8FC0C5
:101658007AF090C07BF00001785100017A17000100
:10166800795100017B17800E00017A1922E1080EDA
:1016780000017B19D8A41DD06CC0D9FF6DC0DAFF5A
:10168800300EDF6E00016C4B6D2B00018FBB05D057
:10169800000E00017F6F780E04D0000E00017F6FEE
:1016A800580E7E6F6CC0D9FF6DC0DAFF7EC0DFFFB9
:1016B800BAD700018C5100018D11D8B43CD16CC04F
:1016C800D9FF6DC0DAFF300EDF6E00016C4B6D2B59
:1016D80000018C07D8A08D07ECD700018C510001C0
:1016E8008D11D8B416D000018FB713D06CC0D9FFB4
:1016F8006DC0DAFF200EDF6E00016C4B6D2B000110
:101708008C07D8A08D0700018C5100018D11D8A439
:10171800EDD7030E00018F150001786F000E000150
:1017280090150001796F0001785100017911D8B442
:101738000AD06CC0D9FF6DC0DAFF2D0E0CD00001A5
:101748006C4B6D2B0AD000018FA107D06CC0D9FF5C
:101758006DC0DAFF200EDF6EF2D7C00E0001786F81
:10176800080E0001796F8FC07AF090C07BF00001FD
:10177800785100017A170001795100017B17400E5A
:1017880000017A190CE1080E00017B19D8A407D0D2
:101798006CC0D9FF6DC0DAFF300EDF6EC9D0C00E45
:1017A8000001786F080E0001796F8FC07AF090C041
:1017B8007BF00001785100017A170001795100018E
:1017C8007B17800E00017A1904E1080E00017B19CD
:1017D800D8A4B1D06CC0D9FF6DC0DAFF300EDF6E6F
:1017E80000016C4B6D2B00018FBB05D0000E000172
:1017F800816F780E04D0000E0001816F580E806F43
:101808006CC0D9FF6DC0DAFF80C0DFFF91D0000146
:101818008B51020D310EF324F66EFE0EF420F76E96
:101828000900F5CF62F00A00F5CF63F089C060F0D7
:101838008AC061F026EC23F060C067F061C068F0F0
:10184800000E00016A6F0A0E696F3EEC24F0000179
:10185800675155D089C060F08AC061F000018B5192
:10186800020D3B0EF324F66EFE0EF420F76E09000F
:10187800F5CF62F00A00F5CF63F026EC23F0000103
:1018880060510F0B0001846F00018FBB05D0910ED2
:101898000001826FFF0E04D0800E0001826FFF0EE0
:1018A8000001836F00018451010D82C078F083C06C
:1018B80079F0F35000017827F4500001792378C0BB
:1018C800F6FF79C0F7FF0800F5CF8EF02BD089C05E
:1018D80060F08AC061F000018B51020D250EF324DF
:1018E800F66EFE0EF420F76E0900F5CF62F00A00DE
:1018F800F5CF63F026EC23F000016051070B300FA1
:1019080000018E6F0FD000018F51C00B000AD8B4B0
:101918007ED7400AD8B4DBD7C00AD8B49BD7400AD0
:10192800D8B475D76CC0D9FF6DC0DAFF8EC0DFFFA1
:1019380000016C4B6D2B00018B0700018B29D8A48B
:10194800E2D700018FA71DD000018DBF1AD000017A
:101958008D5104E100018C05D8A013D06CC0D9FFCB
:101968006DC0DAFF200EDF6E00016C4B6D2B00019D
:101978008C07D8A08D0700018C5100018D11D8A4C7
:10198800EDD76EC0F6FF6FC0F7FF00016E4B6F2BEF
:101998000800F5CF8EF000018E51D8A4C4EF07F0EF
:1019A8006CC0D9FF6DC0DAFF000EDF6E12009DEC2F
:1019B80023F060C078F161C079F162C07AF163C048
:1019C8007BF1010E0101916FB9D3D5EC23F0000929
:1019D800D8A43AD363EC1EF00001E66F0001E605D7
:1019E800D8B405D0020E0001E619D8A42DD3000101
:1019F800FC51D8B45BD0000E0001F06F000E00015E
:101A0800F46F140E0001F46501D042D0000E0001FD
:101A1800636F060E626FF2C060F00001616B36EC16
:101A280021F060C066F061C067F0000E0001696FC8
:101A3800150E686F5FEC27F0E50E0001DB6FFC0EFA
:101A48000001DC6F000166510001DB2700016751CE
:101A58000001DC230001F451010DF3500001DB27E4
:101A6800F4500001DC23DBC0F6FFDCC0F7FF000107
:101A7800F051010D940EF324D96E010EF420DA6EA4
:101A88000800F5CFDFFF0001F02B0001F42BB9D7D8
:101A98000001F22B000E8BEC28F0EFC093F0000150
:101AA800F12B0001F151E3EC28F0CED2000E000139
:101AB800E86F010E0101906F010E0001E56FC0D2C1
:101AC800DAEC27F00001E8510001FB19D8A45FD037
:101AD800B70E00016C6F010E00016D6F150E00014D
:101AE8006E6FFF0E00016F6F0001E851040D030EC9
:101AF800F326000EF422000EF324D96E010EF42012
:101B0800DA6EDF500001DB6F0001DB510001706FFE
:101B1800716B0001E851040D000EF324D96E010E1B
:101B2800F420DA6EDF500001DC6F0001DC510001A7
:101B3800726F736B0001E851040D010EF326000E5D
:101B4800F422000EF324D96E010EF420DA6EDF5071
:101B58000001DD6F0001DD510001746F756B00013C
:101B6800E851040D020EF326000EF422000EF324B1
:101B7800D96E010EF420DA6EDF500001DE6F00012D
:101B8800DE510001766F776BBCEC07F05ED0B70EC4
:101B980000016C6F010E00016D6F2E0E00016E6F5B
:101BA800FF0E00016F6F0001E851040D030EF326CC
:101BB800000EF422000EF324D96E010EF420DA6E22
:101BC800DF500001DB6F0001DB510001706F716BAA
:101BD8000001E851040D000EF324D96E010EF42023
:101BE800DA6EDF500001DC6F0001DC510001726F1A
:101BF800736B0001E851040D010EF326000EF42268
:101C0800000EF324D96E010EF420DA6EDF500001C5
:101C1800DD6F0001DD510001746F756B0001E85143
:101C2800040D020EF326000EF422000EF324D96EE2
:101C3800010EF420DA6EDF500001DE6F0001DE5184
:101C48000001766F776BBCEC07F0B70E00016C6F84
:101C5800010E00016D6F2E0E00016E6FFF0E000168
:101C68006F6F0001E851040D030EF326000EF422F5
:101C7800000EF324D96E010EF420DA6EDF50000155
:101C8800DB6F0001DB510001706F716B0001E851DF
:101C9800040D000EF324D96E010EF420DA6EDF5025
:101CA8000001DC6F0001DC510001726F736B0001F1
:101CB800E851040D010EF326000EF422000EF32461
:101CC800D96E010EF420DA6EDF500001DD6F0001DD
:101CD800DD510001746F756B0001E851040D020EAF
:101CE800F326000EF422000EF324D96E010EF42020
:101CF800DA6EDF500001DE6F0001DE510001766F01
:101D0800776BBCEC07F0C70E00016C6F010E000189
:101D18006D6FA20E00016E6FFF0E00016F6FBCECBD
:101D280007F042EC28F0010E84D163EC1EF00001AC
:101D3800E76FD5EC23F00001E705D8A447D1000EE2
:101D48000001E56F000E0101906F01018F2B00016A
:101D5800E8510001FB19D8A456D0000E0001F06F1D
:101D6800000E0001F46F140E0001F46501D042D09A
:101D7800000E0001636F060E626FF2C060F0000192
:101D8800616B36EC21F060C066F061C067F0000E50
:101D98000001696F150E686F5FEC27F0E50E000112
:101DA800DB6FFC0E0001DC6F000166510001DB27D0
:101DB800000167510001DC230001F451010DF350CB
:101DC8000001DB27F4500001DC23DBC0F6FFDCC098
:101DD800F7FF0001F051010D940EF324D96E010EA6
:101DE800F420DA6E0800F5CFDFFF0001F02B0001C8
:101DF800F42BB9D7000E0001A36F000EF6EC24F007
:101E08000001E36FC0D0000E0001F06F0001F05137
:101E1800010D940EF324D96E010EF420DA6ECC0E67
:101E2800DF6E0001F02B0001E851040D000EF324D1
:101E3800D96E010EF420DA6E0001F051010D940EF6
:101E4800F324E16E010EF420E26EDFCFE7FF00011C
:101E5800F02B0001E851040D010EF326000EF422C8
:101E6800000EF324D96E010EF420DA6E0001F05151
:101E7800010D940EF324E16E010EF420E26EDFCF23
:101E8800E7FF0001F02B0001E851040D020EF326D4
:101E9800000EF422000EF324D96E010EF420DA6E3F
:101EA8000001F051010D940EF324E16E010EF420AF
:101EB800E26EDFCFE7FF0001F02B040E0001F46FA4
:101EC800180E0001F46501D054D0000E0001636FB4
:101ED800060E626FF2C060F00001616B36EC21F013
:101EE80060C066F061C067F0000E0001696F150EF2
:101EF800686F5FEC27F0FC0E0001DB6FFF0E00013E
:101F0800DC6F0001F4510001DD6FDE6B0001DB5175
:101F18000001DD270001DC510001DE23E50E000190
:101F2800DF6FFC0E0001E06F0001DD510001DF27CB
:101F38000001DE510001E023000166510001DF27A6
:101F4800000167510001E023DFC0F6FFE0C0F7FFA2
:101F58000001F051010D940EF324D96E010EF42006
:101F6800DA6E0800F5CFDFFF0001F02B0001F42B3B
:101F7800A7D7000E8AEC1DF00001E46F0001E451C0
:101F88000001D8B403D00001F12B0ED05A0E000185
:101F9800916FFF0E0001926F000E0001936F000E0B
:101FA8000001946F21EC25F0EFC093F00001F1518E
:101FB800E3EC28F0050E00016D6FDC0E6C6F8FEC02
:101FC80020F00001FC5197EC26F035D0020E0001FC
:101FD800E719D8A430D00001E8510001DB6FDC6BB1
:101FE800FF0E0001DD6FFF0E0001DE6F595000018A
:101FF800DF6FE06B0001DD510001DF270001DE51DA
:102008000001E0230001DB510001DF5D0001E05128
:10201800800A0001E16F0001DC51800A0001E159EA
:10202800D8B002D0000E02D00001E8290001E86F04
:10203800000E0101906F010190510101D8A475D6DD
:102048000001E505D8B43CD501019351D8B40DD0B1
:102058000001FC51D8A409D0000E0001C66FFF0E84
:10206800C0EC16F0000E0101936F9DEC23F060C0E8
:102078007CF161C07DF162C07EF163C07FF178C1FF
:10208800DBF079C1DCF07AC1DDF07BC1DEF0000164
:10209800DB1FDC1FDD1FDE1FDB2B000EDC23DD2337
:1020A800DE2301017C510001DB250001DF6F010106
:1020B8007D510001DC210001E06F01017E5100012A
:1020C800DD210001E16F01017F510001DE210001E6
:1020D800E26F0001E2510BE1710E0001DF5D380E85
:1020E8000001E059390E0001E159D8A027D00001BC
:1020F800FC51D8B423D0DAEC27F0B70E00016C6F8E
:10210800010E00016D6F6E0E00016E6FFF0E000173
:102118006F6FF9C070F00001716BBCEC07F042EC16
:1021280028F0070E00016D6FD00E6C6F8FEC20F059
:10213800000E0101916F010E97EC26F001019151FB
:102148000101D8B4120041D4000E0001A46F0001AF
:10215800F951040D040EF326000EF422F4BE06D045
:10216800F45006E1230EF35CD8B002D0010E37D04C
:102178000001F951040D040EF3240001606F000EF4
:10218800F4200001616F000E0001636F230E626F7F
:102198002AEC1FF0000160510001A46F0001F95101
:1021A800040D040EF326000EF422F350F410D8B4F4
:1021B80018D00001F951040D040EF3240001606FDA
:1021C800000EF4200001616F000E0001636F230E02
:1021D800626F36EC21F0000160510001A425000176
:1021E800A46F000E0001A56F33D1000E0001F06F3F
:1021F8000001F051010D940EF324D96E010EF42064
:10220800DA6E770EDF6E0001F02B0001F051010D40
:10221800940EF324D96E010EF420DA6EF9C0DFFFB4
:102228000001F02B0001F051010D940EF324D96E3A
:10223800010EF420DA6E0001A551070DF3CFDFFF80
:102248000001F02B0001F051010D940EF324D96E1A
:10225800010EF420DA6E0001A529070DF3CFDFFF88
:102268000001F02B040E0001A36F0001A551070D1A
:10227800F3CFA6F0A0D00001F9510001A65DD8B0B7
:1022880098D00001A6510E0D0C0EF326000EF42274
:10229800370EF324D96E020EF420DA6E0201DFAE97
:1022A80059D00001A6510E0D040EF326000EF4229B
:1022B800370EF324D96E020EF420DA6E0001F051C5
:1022C800010D940EF324E16E010EF420E26EDFCFCF
:1022D800E7FF0001F02B0001A6510E0D050EF326B5
:1022E800000EF422370EF324D96E020EF420DA6EB3
:1022F8000001F051010D940EF324E16E010EF4205B
:10230800E26EDFCFE7FF0001F02B0001A6510E0DB2
:10231800060EF326000EF422370EF324D96E020EB1
:10232800F420DA6E0001F051010D940EF324E16EF1
:10233800010EF420E26EDFCFE7FF31D00001F0514B
:10234800010D940EF324D96E010EF420DA6EA6C0A6
:10235800DFFF28D00001F051010D940EF324D96E4F
:10236800010EF420DA6EFF0EDF6E0001F02B000183
:10237800F051010D940EF324D96E010EF420DA6E9B
:10238800FF0EDF6E0001F02B0001F051010D940EDD
:10239800F324D96E010EF420DA6EFF0EDF6E000111
:1023A800F02BCCD70001F02B0001A351040F000142
:1023B800A36F0001A62B010E0001A5250001666F81
:1023C8000001676B000E6723000E0001696F070E9E
:1023D800686F5FEC27F00001A65100019F6FA06BAA
:1023E8000001665100019F5D0001A051800A0001B3
:1023F800A16F00016751800A0001A159D8A03BD7FD
:10240800A3C0A2F0220E0001A26501D010D00001E5
:10241800F051010D940EF324D96E010EF420DA6EFA
:10242800110EDF6E0001F02B0001A22BEBD7000E7E
:102438000001956F000E0001966F010E0001976F65
:10244800000E0001986F010EC6EC1BF00001A52BD1
:102458000001A4510001A55DD8B01200C6D6000144
:10246800766F45EC1BF0000E0001ED6F0001765110
:102478000001D8A45DD0000E00017A6F090E00019A
:102488007A6501D055D000017A510E0D0C0EF32655
:10249800000EF422370EF324D96E020EF420DA6E01
:1024A800000EDF6E00017A510E0D040EF326000EA9
:1024B800F422370EF324D96E020EF420DA6E000EE1
:1024C800DF6E00017A510E0D050EF326000EF42280
:1024D800370EF324D96E020EF420DA6E000EDF6E8A
:1024E80000017A510E0D060EF326000EF422370E67
:1024F800F324D96E020EF420DA6E000EDF6E0001AE
:102508007A51010D460EF324D96E010EF420DA6ECD
:10251800000EDF6E00017A51010D500EF324D96EC2
:10252800010EF420DA6E000EDF6E00017A2BA6D7BA
:10253800000E0001F06F000E00017A6F090E000115
:102548007A6501D003D000017A2BF8D700017651C3
:102558000001D8B46CD0FA0E0001616F000E0001C2
:10256800626F5DC063F05EC064F0000E0001666FCC
:10257800010E656F6FEC24F01F0E0001FA6501D0A3
:102588001200FF0E0001616F000E0001626F5BC058
:1025980063F05CC064F0000E0001666F010E656FA9
:1025A8006FEC24F0370E0001616F020E0001626FBC
:1025B800F7C063F0F8C064F0000E0001666F8C0E7F
:1025C800656F6FEC24F0FC0E0001616F000E0001D6
:1025D800626FE6C163F0E7C164F0000E0001666F48
:1025E800010E656F6FEC24F0FB0E0001616F000EA9
:1025F8000001626FE8C163F0E9C164F0000E0001F8
:10260800666F010E656F6FEC24F0F90E0001616FC3
:10261800000E0001626FE0C163F0E1C164F0000EDA
:102628000001666F010E656F6FEC24F033D0FA0E6F
:102638000001616F000E0001626F5DC063F05EC053
:1026480064F0000E0001666F010E656FF8EC1DF076
:10265800FF0E0001616F000E0001626F5BC063F046
:102668005CC064F0000E0001666F010E656FF8EC47
:102678001DF0370E0001616F020E0001626FF7C096
:1026880063F0F8C064F0000E0001666F8C0E656F91
:10269800F8EC1DF0D80E0001786F010E0001796F7B
:1026A8000001778300017751870B4009776F00019C
:1026B80076B103D00001779502D00001778500013B
:1026C800779177C072F078C073F079C074F0CBEC72
:1026D8001EF00001FA51BCEC26F0000E0001EC6F70
:1026E8000001EC810001FF39F00B0001EC13F08AC6
:1026F8001200000E0001776F040E0001776501D00B
:1027080084D09DEC23F060C072F061C073F062C0A9
:1027180074F063C075F000017751060D280EF3249C
:10272800D96E010EF420DA6EDF50D8B46BD00001F8
:102738007751060D020EF326000EF422280EF3241C
:10274800D96E010EF420DA6E00017251DE5C0001D0
:102758007351DE5800017451DE5800017551DE587E
:10276800D8B050D000017751060D020EF326000EA6
:10277800F422280EF324D96E010EF420DA6EDECF8F
:102788006AF0DECF6BF0DECF6CF0DECF6DF00001CB
:102798006A1F6B1F6C1F6D1F6A2B000E6B236C2347
:1027A8006D230001725100016A2500016E6F00015E
:1027B800735100016B2100016F6F0001745100011A
:1027C8006C210001706F0001755100016D2100013D
:1027D800716F000171510BE1910E00016E5DD00E19
:1027E80000016F59030E00017059D8A00BD00001E9
:1027F8007751060D280EF324D96E010EF420DA6EF7
:10280800000EDF6E0001772B77D70001EE29D8B4D0
:1028180002D0000E1200000E0001776F010E0001B9
:10282800776501D095D000017751390D000EF3245A
:10283800D96E030EF420DA6E0301DFA086D0000102
:102848007751390D010EF326000EF422000EF32401
:10285800D96E030EF420DA6EDF500101646F0001B7
:102868007751390D380EF326000EF422000EF324AA
:10287800D96E030EF420DA6EDF500101696F020E83
:102888000001766F010164AD06D04E30E832E832BF
:102898000F0B00017627010164AF27D000017651A4
:1028A800010D010EF326000EF422000E00016A6FDE
:1028B800030E00016B6FF35000016A27F45000010A
:1028C8006B2300017751390DF35000016A2501018E
:1028D800656FF45000016B210101666F4E30E832DC
:1028E800E8320F0B0001762706D0000E0101656F54
:1028F800000E0101666F000176510101695F000158
:102908007651010D010EF326000EF422000E00018F
:102918006A6F030E00016B6FF35000016A27F450D1
:1029280000016B2300017751390DF35000016A252E
:102938000101676FF45000016B210101686F8DC1BF
:102948006AF177C0EEF0010E12000001772B66D70E
:10295800000E1200000E00016F6F00017069000E7A
:102968000001716F090E0001716501D036D00001B8
:1029780071510E0D0C0EF326000EF422370EF324BF
:10298800D96E020EF420DA6E0201DFAE1ED05DC1F0
:1029980060F05EC161F0000171510E0D040EF32666
:1029A800000EF422370EF3240001626F020EF420A9
:1029B8000001636F1FEC26F00009D8B40BD071C07A
:1029C80070F0010E00016F6F08D000017029D8B4B3
:1029D80071C070F00001712BC5D700017029D8A40F
:1029E80002D0F10E12000001FF51D8B403D000014B
:1029F8006F51120070C08CF1000E0001716F070E4C
:102A08000001716501D02ED000017151010DF35004
:102A180001015D25D96EF45001015E21DA6E0001D5
:102A28007151010D040EF326000EF422370E000139
:102A38006B6F020E00016C6FF35000016B27F450AE
:102A480000016C23000170510E0DF35000016B253D
:102A5800E16EF45000016C21E26EDFCFE7FF000168
:102A6800712BCDD7000170510E0D0C0EF326000E00
:102A7800F422370EF324D96E020EF420DA6E020126
:102A8800DF8E010120EE02F05F51D9266051DA2273
:102A9800DF5000016B6F010E00016B1700017051D0
:102AA8000E0D0C0EF326000EF422370EF324D96E09
:102AB800020EF420DA6E0201DF5000016B19FE0BE2
:102AC8006B190201DF6E000E0001716F0001715178
:102AD8000001D8A437D00001715100016B6F6C6BF5
:102AE800030E00016B27000E6C2300016B510101DE
:102AF8005F25D96E00016C5101016021DA6E000179
:102B08007151010D0D0EF326000EF422370E00014F
:102B18006D6F020E00016E6FF35000016D27F450C7
:102B280000016E23000170510E0DF35000016D2558
:102B3800E16EF45000016E21E26EDFCFE7FF000185
:102B4800712BC4D770C0EBF00001ED99A3EC22F013
:102B58000001F96FF90E0001616F000E0001626F4C
:102B6800E0C163F0E1C164F0000E0001666F010E80
:102B7800656FF8EC1DF000016F5112000001A36FA2
:102B88000001A329D8A481D0000E0001A46F090E6A
:102B98000001A46501D012000001A4510E0D0C0E15
:102BA800F326000EF422370EF324D96E020EF42019
:102BB800DA6E0201DFAE38D0000E0001F06F0001BE
:102BC800F051010D940EF324D96E010EF420DA6E43
:102BD800820EDF6E0001F02B0001A4510E0D040ED1
:102BE800F326000EF422370EF3240001956F020E2F
:102BF800F4200001966F010E0001976F000E00018E
:102C0800986F000EC6EC1BF0000E0001A06F000EBE
:102C18009F6F00019F290F0E0001A059D8B004D062
:102C280000019F4BA02BF5D70001A4510E0D0C0EEF
:102C3800F326000EF422370EF324D96E020EF42088
:102C4800DA6E000EDF6E0001A4510E0D370EF3246C
:102C58000001616F020EF4200001626F0001A451AF
:102C68000E0D0001F751F3240001636F0001F851C4
:102C7800F4200001646F000E0001666F0E0E656F90
:102C8800F8EC1DF00001A42B82D70001A3510E0D12
:102C98000C0EF326000EF422370EF324D96E020E22
:102CA800F420DA6E0201DFAE1200000E0001F06FB0
:102CB8000001F051010D940EF324D96E010EF42099
:102CC800DA6E820EDF6E0001F02B0001A3510E0DAB
:102CD800040EF326000EF422370EF3240001956F3C
:102CE800020EF4200001966F010E0001976F000E8E
:102CF8000001986F000EC6EC1BF0000E0001A26FD9
:102D0800000EA16F0001A1290F0E0001A259D8B031
:102D180004D00001A14BA22BF5D70001A3510E0D41
:102D28000C0EF326000EF422370EF324D96E020E91
:102D3800F420DA6E000EDF6E0001A3510E0D370E7F
:102D4800F3240001616F020EF4200001626F00019C
:102D5800A3510E0D0001F751F3240001636F000128
:102D6800F851F4200001646F000E0001666F0E0E2A
:102D7800656FF8EC1DF01200FFC0CFF0030E0001E4
:102D8800D06F000E0001D56F9DEC23F060C080F17C
:102D980061C081F162C082F163C083F10001C605A0
:102DA800D8A402D0FF0E12009DEC23F060C0D1F031
:102DB80061C0D2F062C0D3F063C0D4F0900E0001BD
:102DC800D15FD00ED25B030ED35B000ED45B000E36
:102DD8000001FF6F0001ED89BDD09DEC23F060C0BC
:102DE800D6F061C0D7F062C0D8F063C0D9F0D1C0C6
:102DF800C7F0D2C0C8F0D3C0C9F0D4C0CAF000012F
:102E0800C71FC81FC91FCA1FC72B000EC823C92345
:102E1800CA230001D6510001C7250001CB6F00016C
:102E2800D7510001C8210001CC6F0001D851000121
:102E3800C9210001CD6F0001D9510001CA2100014B
:102E4800CE6F0001CE510BE1910E0001CB5DD00E8B
:102E58000001CC59030E0001CD59D8A075D0D6C0B9
:102E6800D1F0D7C0D2F0D8C0D3F0D9C0D4F0000187
:102E7800D5070001D529D8A46DD0010E0001D56F62
:102E88000001D0070001D029D8A404D00001ED9991
:102E9800FF0E1200000E0001F06F0001F051010D4D
:102EA800940EF324D96E010EF420DA6E810EDF6ED3
:102EB8000001F02B0001F051010D940EF324D96E9E
:102EC800010EF420DA6EFAC0DFFF0001F02B0001DA
:102ED800F051010D940EF324D96E010EF420DA6E30
:102EE800ECC0DFFF0001F02B000E0001DA6F0001DB
:102EF800DA510001D8A419D00001DA51010DFD0EF4
:102F0800F324D96E000EF420DA6E0001F051010DA1
:102F1800940EF324E16E010EF420E26EDFCFE7FF9A
:102F28000001F02B0001DA2BE2D7000E0001956FAB
:102F3800000E0001966F010E0001976F000E000150
:102F4800986F010EC6EC1BF0ECEC28F00009D8A431
:102F580006EC29F00001EDB940D7CFC0FFF0000121
:102F6800EB5112000001896F030E0001866FCDD06E
:102F7800000E0001876F000E0001F36F000E0001C4
:102F8800856F000174510001D8B425D0280E01ECDA
:102F980027F000018B6F0001D8908B3100018B6FF7
:102FA800410E00018B6517D00001852B85050001B6
:102FB800756F040E0001756502D0000E1200010E37
:102FC80000016C6F000E6D6F000E6E6F000E6F6F5C
:102FD8007AEC27F0DBD7F09A200ED3EC21F01A0E0A
:102FE8000001626FC90E616FADEC27F000018951D5
:102FF800F0EC27F0000E00018A6F0ED000018A5114
:10300800010D000EF324D96E020EF420DA6EDF50A3
:10301800F0EC27F000018A2B0001895100018A5D3C
:10302800D8A0ECD7800ED3EC21F0F08A0001EA5149
:10303800D8B4F0B401D0FAD7000E0001EA6F200E20
:10304800D3EC21F0600ED3EC21F0020100AB5BD091
:1030580001C258F09DEC23F060C07DF061C07EF0A5
:1030680062C07FF063C080F00001F351D8A44BD058
:103078009DEC23F060C081F061C082F062C083F0F3
:1030880063C084F07DC075F07EC076F07FC077F0B5
:1030980080C078F00001751F761F771F781F752B89
:1030A800000E7623772378230001815100017525CE
:1030B8000001796F000182510001762100017A6FC9
:1030C800000183510001772100017B6F00018451C9
:1030D8000001782100017C6F00017C5100017B1107
:1030E80008E1D50E0001795D300E00017A59D8A0AB
:1030F800BBD70001872B87050001756F040E0001FF
:10310800756103D038D7010E07D00001860700018A
:103118008629D8A42DD7000E0001886F0001885198
:1031280012001E6E030E296EA9D0000E2A6E000E24
:103138000001F36F000E286E1550D8B41CD0280E6D
:1031480094EC27F02C6ED8902C302C6E410E2C6409
:1031580012D0282A2804166E040E166401D0120014
:10316800010E0D6E000E0E6E000E0F6E000E106E2C
:103178002EEC28F0E4D7F09A200EE6EC22F01A0E96
:10318800036EC90E026E55EC28F01E509CEC28F018
:10319800000E2B6E0CD02B50010D000EF324D96EAF
:1031A800020EF420DA6EDF509CEC28F02B2A1E5019
:1031B8002B5CD8A0F0D7800EE6EC22F0F08A000154
:1031C800EA51D8B4F0B401D0FAD7000E0001EA6F82
:1031D800200EE6EC22F0600EE6EC22F0020100ABD5
:1031E8004AD001C258F04CEC25F001C020F002C0D2
:1031F80021F003C022F004C023F00001F351D8B439
:1032080003D0010E1F6E12004CEC25F001C024F013
:1032180002C025F003C026F004C027F020C016F035
:1032280021C017F022C018F023C019F0161E171E6F
:10323800181E191E162A000E1722182219222450A9
:1032480016241A6E255017201B6E265018201C6E47
:10325800275019201D6E1D501C1006E1D50E1A5C52
:10326800300E1B58D8A0C9D72A2A2A04166E040E75
:10327800166004D05CD7010E1F6E1200290629289B
:10328800D8A453D7000E1F6E1200230E00019165BB
:1032980002D0000E120000018CB504D00001926B20
:1032A800922B02D00001926B0001923B9247924709
:1032B80000018C5100019219BF0B921900018C6F0B
:1032C80000018C8F00018C51030BE806D8A402D0B2
:1032D80000018C8F8CC000F253C001F2532A020EF9
:1032E8000001936F00018CAD2AD0000E0001946F8D
:1032F8001AD000019451010DF35000018D25D96EAB
:10330800F45000018E21DA6E00019351010D000E78
:10331800F324E16E020EF420E26EDFCFE7FF000136
:10332800932B0001942B4E30E832E8320F0B00014A
:10333800926F000192510001945DD8A0DAD7000184
:103348008CAF28D0000E0001946F18D00001945162
:10335800010DF3504F24D96EF4505020DA6E00015D
:103368009351010D000EF324E16E020EF420E26E7B
:10337800DFCFE7FF0001932B0001942B4E30E8329A
:10338800E8320F0B0001926F000192510001945D29
:10339800D8A0DCD7000E0001946F1AD00001945118
:1033A800010DF35000018F25D96EF45000019021D2
:1033B800DA6E00019351010D000EF324E16E020E46
:1033C800F420E26EDFCFE7FF0001932B0001942B7E
:1033D800000191510001945DD8A0E0D7000E4EB2D3
:1033E800010E0001746F00019351B6EC17F0120042
:1033F800000E00016B6F040E00016D6F220E0001BC
:103408006D6501D0A1D06DC069F0030E0001691788
:10341800D8A497D000016D510001696F6A6B030E43
:1034280000016927000E6A2300016ABF08D0000165
:103438006A5104E1230E0001695DD8B082D0000111
:103448006D510001696F6A6B030E00016927000E58
:103458006A230001695100016725D96E00016A518C
:1034680000016821DA6EDF5000016C6F00016C51B9
:10347800040D030EF326000EF422000EF324D96E79
:10348800010EF420DA6E6CC0DFFF00016D51010DF2
:10349800F35000016725D96EF45000016821DA6EF7
:1034A80000016C51040D000EF324E16E010EF420AE
:1034B800E26EDFCFE7FF00016D510001696F6A6BB3
:1034C800010E00016927000E6A23000169510001FD
:1034D8006725D96E00016A5100016821DA6E000182
:1034E8006C51040D010EF326000EF422000EF32495
:1034F800E16E010EF420E26EDFCFE7FF00016D51AF
:103508000001696F6A6B020E00016927000E6A23C9
:103518000001695100016725D96E00016A51000157
:103528006821DA6E00016C51040D020EF326000EBC
:10353800F422000EF324E16E010EF420E26EDFCFD8
:10354800E7FF00016D2B5AD738EC20F01200000E6F
:1035580000016A6F020E00016A6501D02DD00001DA
:103568006A510001686F696B010E00016827000E3F
:1035780069230001681F691F684B692B080E000149
:103588006827000E692300016851000166250001C3
:10359800616F00016951000167210001626F00013C
:1035A8006A51FA0F0001636F010E0001646FF6ECB7
:1035B80025F000016A2BCED7000120EE04F06651F9
:1035C800D9266751DA22FF0EDF6E000120EE03F0E4
:1035D8006651D9266751DA22FE0EDF6E000E000111
:1035E8006A6F020E00016A6501D0120000016A517B
:1035F8000001686F696B0001681F691F684B692BC0
:10360800020E00016827000E6923000168510001BD
:1036180066250001616F0001695100016721000101
:10362800626F00016A51FD0F0001636F010E000116
:10363800646FF6EC25F000016A2BD3D7070E000162
:103648006A6501D0120000016A51010DF3500001B2
:1036580066250001616FF450000167210001626F67
:1036680000016A5100080001686F00016805000147
:10367800636F010E0001646FF6EC25F000016A2B00
:10368800DDD7010E0001666F000E0101896F000E83
:10369800886F000E0001616F020E606FE20E00017C
:1036A800626F010E0001636F70EC26F0000166176F
:1036B800000E0001616F010E606F5D0E0001626F08
:1036C800000E0001636F70EC26F000016617000E13
:1036D8000001616F010E606F5B0E0001626F000EEA
:1036E8000001636F70EC26F000016617000E000100
:1036F800616F8C0E606FF70E0001626F000E0001A3
:10370800636F70EC26F000016617000E0001616F10
:10371800040E606FE40E0001626F010E0001636F1A
:1037280070EC26F000016617000E0001616F010EB3
:10373800606FE00E0001626F010E0001636F70ECB4
:1037480026F000016617000E0001616F010E606F20
:10375800E60E0001626F010E0001636F70EC26F047
:1037680000016617000E0001616F010E606FE80E20
:103778000001626F010E0001636F70EC26F000011A
:103788006617120000019B6F000E00019C6F00017C
:1037980097510001D8B404D00001996B992B02D03D
:1037A8000001996B00019C5100019919FC0B9919B2
:1037B80000019C6F00019B510001D8A404D00001B6
:1037C800996B992B02D00001996B0001993B99479D
:1037D80000019C5100019919DF0B991900019C6F98
:1037E80000019BB103D000019C9502D000019C858B
:1037F800000198B103D000019C9702D000019C877A
:1038080000019B510001D8A404D00001996B992BA9
:1038180002D00001996B0001993B99479947000133
:103828009C5100019919BF0B991900019C6F000167
:103838009C8F95C09DF096C09EF09CC08CF09DC05A
:103848008DF09EC08EF0940E00018F6F010E000166
:10385800906FF0C091F049EC19F000019A6F000EDA
:103868000001F06F00019A511200000E0001F06F84
:10387800A8C0D9FFA9C0DAFF0001F051010D940ECC
:10388800F324E16E010EF420E26EDFCFE7FF0001C2
:10389800F02B000120EE01F0A851D926A951DA2217
:1038A8000001F051010D940EF324E16E010EF42095
:1038B800E26EDFCFE7FF0001F02B000120EE02F0FF
:1038C800A851D926A951DA220001F051010D940E10
:1038D800F324E16E010EF420E26EDFCFE7FF000172
:1038E800F02B030E0001AB6F220E0001AB6501D077
:1038F8001BD00001AB51010DF3500001A525D96E75
:10390800F4500001A621DA6E0001F051010D940E69
:10391800F324E16E010EF420E26EDFCFE7FF000131
:10392800F02B0001AB2BE0D7000E0001A36F0001C4
:10393800A751F6EC24F00001AA6F0001AA5100017A
:10394800D8B4ADEC28F00001AA511200000E000115
:10395800646F5DD0000164510E0D0C0EF326000E4D
:10396800F422370EF324D96E020EF420DA6E020127
:10397800DFAE4BD0000164510E0D040EF326000E8D
:10398800F422370EF324D96E020EF420DA6E000109
:1039980010EE01F06051E1266151E222DE50E61896
:1039A800D8A433D0000164510E0D050EF326000E85
:1039B800F422370EF324D96E020EF420DA6E0001D9
:1039C80010EE02F06051E1266151E222DE50E61865
:1039D800D8A41BD0000164510E0D060EF326000E6C
:1039E800F422370EF324D96E020EF420DA6E0001A9
:1039F80010EE03F06051E1266151E222DE50E61834
:103A0800D8A403D00001645112000001642B000106
:103A1800F9510001645DD8A09DD70001F95100015A
:103A28006419D8A402D0FF0E1200000E1200000183
:103A3800DB6FD80E0001666F010E0001676FABECFB
:103A48001AF00001DB510001D8B408D0010E33ECA4
:103A580012F00001FC5197EC26F012008994899627
:103A6800000E33EC12F00001FE51BCEC26F0000908
:103A7800D8A404D00001FE5114EC29F0000E48EC43
:103A880026F0000E0001966F0001FE51CCEC25F0E7
:103A9800000E0001C66FFF0EC0EC16F00001F46FB7
:103AA8000001F429D8B409D0010E0001966F000175
:103AB800FE51CCEC25F0000E10D00A0E00016A6F02
:103AC800000E00016B6F000E6C6F000E6D6F000E24
:103AD8006E6F000EDFEC26F0010E0001FC6FFC0E8D
:103AE8000001616F000E0001626FE6C163F0E7C17B
:103AF80064F0000E0001666F010E656FF8EC1DF0B2
:103B080089840001FC5197EC26F012000001D76F60
:103B1800000E0001F56F3B0E0001956F020E0001CB
:103B2800966F010E0001976FD7C098F0000EC6EC93
:103B38001BF00001CE6F9DEC23F060C0CFF061C098
:103B4800D0F062C0D1F063C0D2F047D09DEC23F032
:103B580060C0D3F061C0D4F062C0D5F063C0D6F0C5
:103B6800ECEC28F0CFC0C6F0D0C0C7F0D1C0C8F088
:103B7800D2C0C9F00001C61FC71FC81FC91FC62B66
:103B8800000EC723C823C9230001D3510001C6254D
:103B98000001CA6F0001D4510001C7210001CB6F99
:103BA8000001D5510001C8210001CC6F0001D65198
:103BB8000001C9210001CD6F0001CD510001CC11D8
:103BC80008E1510E0001CA5DC30E0001CB59D8A00F
:103BD80004D00001F505D8A404D00001F551D8B4EB
:103BE800B5D70001F5511200000E00016A6F000EF2
:103BF800F0BA010E0001696FF09A8C9A050EF5EC87
:103C080028F0000EF5EC28F000016A6F8C8A10ECA1
:103C180029F000016AB1F1D78C9A060EF5EC28F06C
:103C28008C8A10EC29F08C9A020EF5EC28F0000131
:103C38006451F5EC28F000016351F5EC28F0000E12
:103C480000016A6F2ED061C0D9FF62C0DAFFDF5071
:103C5800F5EC28F00001614B622B00016507D8A044
:103C6800660700016A2B00016A5100016325000103
:103C7800676F000E000164210001686F3F0E0001AC
:103C88006717000E68170001675100016811D8A472
:103C980008D08C8A00016A5100016327000E642352
:103CA800ACD70001655100016611D8A4CCD78C8A25
:103CB800000169B102D0F09A01D0F08A120081B0F7
:103CC80011D05450D8A461D0010E546E9DEC23F04D
:103CD80060C070F161C071F162C072F163C073F1CC
:103CE800010E120081B411D05450D8A44ED0010E48
:103CF800546E9DEC23F060C070F161C071F162C038
:103D080072F163C073F1020E12009DEC23F060C0E3
:103D180072F061C073F062C074F063C075F070C176
:103D28006AF071C16BF072C16CF073C16DF0000183
:103D38006A1F6B1F6C1F6D1F6A2B000E6B236C2391
:103D48006D230001725100016A2500016E6F0001A8
:103D5800735100016B2100016F6F00017451000164
:103D68006C210001706F0001755100016D21000187
:103D7800716F000171510001701105E1400E0001E1
:103D88006F5DD8A002D0000E546E000E120072C0F3
:103D98004EF073C04FF074C050F0000E00016D6F0C
:103DA800140E6C6F8FEC20F08D828B84D6CF53F07D
:103DB8000001EE69000E0001756F010E00017565C6
:103DC80001D00ED000017551390D000EF324D96EC3
:103DD800030EF420DA6E000EDF6E0001752BEDD7AE
:103DE800000E0001756F1F0E0001756501D014D01B
:103DF80000017551020DA50EF324F66EFD0EF42098
:103E0800F76E0900F5CF61F00A00F5CF62F0ADEC6E
:103E180027F00001752BE7D7200ED3EC21F0000E18
:103E28000001626F560E616FADEC27F0400ED3ECC7
:103E380021F01C0E0001626F0F0E616FADEC27F0D0
:103E4800600ED3EC21F0F094F08A1200000E00010D
:103E5800656F000163AF08D00001626D631FD8B0C1
:103E6800632B010E0001656F000161AF08D00001EE
:103E7800606D611FD8B0612B010E0001651B000E3B
:103E88000001676F000E666F000162510001631147
:103E9800D8B42CD0010E0001646F06D00001D89070
:103EA800623763370001642B000163AFF7D7000165
:103EB800D89066376737000162510001605D0001E4
:103EC800635100016159D8A00AD000016251000174
:103ED800605F000163510001615B000166810001C0
:103EE800D890633362330001642FE1D70001655134
:103EF8000001D8B405D00001666D671FD8B0672BE4
:103F080066C060F067C061F012005150525CD8A0E2
:103F180004D05650575CD8B0120071B0FED751503B
:103F2800525CD8B01AD05250010D6C0EF324D96EE1
:103F3800010EF420DA6EDF50756E522A5150521875
:103F4800D8A412005650D8A412007184010E0E6E27
:103F58002C0E0D6E1AEC22F012005650575CD8B099
:103F680012005750010DB70EF324D96E010EF4203C
:103F7800DA6EDF50D8A40AD05750010DB70EF324DB
:103F8800D96E010EF420DA6E200EDF6E5750010D47
:103F9800B70EF324D96E010EF420DA6EDF50756E79
:103FA800572A56505718D8A412007184010E0E6E65
:103FB8002C0E0D6E1AEC22F012000001676F1F0E16
:103FC8000001676502D0000E12000C0E0001626F3E
:103FD800640E616FADEC27F000016751010DE50E2D
:103FE800F324F66EFD0EF420F76E0800F5CF66F0A8
:103FF800000E000166110001616F0E0E0001626F74
:10400800ADEC27F000016751010D050EF324F66EA3
:10401800FE0EF420F76E0800F5CF66F0000E0001E2
:1040280066110001616F100E0001626FADEC27F0A0
:10403800200ED3EC21F0000E0001626F560E616F66
:10404800ADEC27F0400ED3EC21F01C0E0001626F9E
:104058000F0E616FADEC27F0200ED3EC21F0600E4F
:10406800D3EC21F0010E1200000E0001656F000173
:10407800FC51D8A41200000E0001666F25D0000183
:104088006651040D000EF324D96E010EF420DA6E89
:104098000101D851DE18D8A415D000016651040DCD
:1040A800010EF326000EF422000EF324D96E010E41
:1040B800F420DA6EDE500101D919D8A403D0010E1C
:1040C8000001656F0001662B59500001606F616B3C
:1040D800010E00016027000E6123000166510001F6
:1040E800626F636B000160510001625D0001635102
:1040F800800A0001646F00016151800A000164595F
:10410800D8A0BDD7000165510001D8A41200010E46
:104118000101936F1200000E00016E6F000E6F6FA9
:10412800000E706F000E716F6CC060F06DC061F0B2
:104138000001626B636BD00E0001646F070E656F40
:10414800000E666F000E676F62EC23F060C06EF0C1
:1041580061C06FF062C070F063C071F0560E00016C
:104168006E27FF0E6F23FF0E7023FF0E71230001D1
:1041780071BF1200000171510001701100016F112F
:1041880010E1C40E00016E5DD8A012000AD000F044
:10419800D90E00016E27FF0E6F23FF0E7023FF0E4E
:1041A8007123000171BF12000001715100017011EB
:1041B80000016F11ECE100016E05D8A01200E7D7ED
:1041C800DAEC27F0B70E00016C6F010E00016D6F7D
:1041D800B30E00016E6FFF0E00016F6FBCEC07F0AD
:1041E800C70E00016C6F010E00016D6F440E0001D7
:1041F8006E6FFF0E00016F6F91C0D9FF92C0DAFF9A
:10420800DF500001936F000193510001706F716BD3
:10421800000120EE01F09151D9269251DA22DF50A7
:104228000001946F000194510001726F736B0001DB
:1042380020EE02F09151D9269251DA22DF50000186
:10424800956F000195510001746F756BBCEC07F018
:1042580042EC28F0040E00016D6FB00E6C6F8FEC0D
:1042680020F01200000E0001656F000161AF08D058
:104278000001606D611FD8B0612B010E0001656FF0
:10428800000163AF05D00001626D631FD8B0632BD6
:104298000001625100016311D8B426D0010E00015B
:1042A800646F06D00001D890623763370001642B31
:1042B800000163AFF7D7000162510001605D0001A2
:1042C800635100016159D8A008D000016251000172
:1042D800605F000163510001615B0001D8906333A6
:1042E80062330001642FE7D7000165510001D8B49B
:1042F80005D00001606D611FD8B0612B60C060F00F
:1043080061C061F012007B0ED36EC090000EF26E99
:10431800550EA76EAA0EA76E0E01FF91060E0E018E
:10432800E96F130E0E01F66F050E0E01D76F550ECD
:10433800A76EAA0EA76E0E01FF810F0148693F0EF6
:104348000F01496FF19E9268936894689568966822
:10435800000E896E000E8A6E000E8C6E000E8D6E39
:1043680095948C84949C8B9C93809384929492963D
:10437800958E93869586938A949E9398C00EC76E61
:10438800210EC66E949496928B848D82F1869690B7
:104398008D80959A8C8AF28E9FEC24F01200000191
:1043A800646F32D0000E0001626F960E616FADEC43
:1043B80027F0800E556E1200000E0001626F760E17
:1043C800616FADEC27F0600E556E1200000E000113
:1043D800626F560E616FADEC27F0400E556E1200FD
:1043E800000E0001626F360E616FADEC27F0200EF3
:1043F800556E1200000E0001626F160E616FADEC73
:1044080027F0000E556E120000016451000AD8B45E
:10441800F1D7200AD8B4E4D7600AD8B4D7D7200A8D
:10442800D8B4CAD7E00AD8A41200BCD7000E0F6EC1
:10443800000E106E000E116E000E126E0DC001F00F
:104448000EC002F0036A046AD00E056E070E066EEF
:10445800000E076E000E086E77EC25F001C00FF015
:1044680002C010F003C011F004C012F0560E0F265F
:10447800FF0E1022FF0E1122FF0E122212BE120092
:104488001250111010100EE1C40E0F5CD8A01200CB
:1044980009D000F0D90E0F26FF0E1022FF0E1122B0
:1044A800FF0E122212BE1200125011101010F1E16C
:1044B8000F04D8A01200EDD7000E0001A66F090E58
:1044C8000001A66501D012000001A6510E0D0C0EC8
:1044D800F326000EF422370EF324D96E020EF420D0
:1044E800DA6E0201DFAE28D00001A651010D460E9A
:1044F800F324D96E010EF420DA6EDF50D8A411D05F
:104508000001A651010D500EF324D96E010EF420BE
:10451800DA6EDE28D8B405D00001A651C2EC15F039
:104528000BD00001A651010D460EF324D96E010EE1
:10453800F420DA6E000EDF6E0001A62BC0D7000E45
:104548000001606F000E0001616F090E00016165D6
:1045580001D035D0000161510E0D040EF326000E76
:10456800F422370EF324D96E020EF420DA6EDF50EF
:10457800D8A420D0000161510E0D050EF326000EBF
:10458800F422370EF324D96E020EF420DA6EDF50CF
:10459800D8A410D0000161510E0D060EF326000EAE
:1045A800F422370EF324D96E020EF420DA6EDF50AF
:1045B800D8B402D00001602B0001612BC6D70001DE
:1045C80060511200056E2DD0000E036E960E026E1D
:1045D80055EC28F0800E556E1200000E036E760E14
:1045E800026E55EC28F0600E556E1200000E036E38
:1045F800560E026E55EC28F0400E556E1200000E55
:10460800036E360E026E55EC28F0200E556E120021
:10461800000E036E160E026E55EC28F0000E556E55
:1046280012000550000AD8B4F3D7200AD8B4E7D747
:10463800600AD8B4DBD7200AD8B4CFD7E00AD8A408
:104648001200C2D7000E0001656F000E646F0001F2
:10465800625100016311D8B42CD0010E0001666FBD
:1046680006D00001D890623763370001662B00013D
:1046780063AFF7D70001D8906437653700016251FE
:104688000001605D0001635100016159D8A00AD0A2
:10469800000162510001605F000163510001615B2C
:1046A800000164810001D890633362330001662FF2
:1046B800E1D764C060F065C061F01200000E00012F
:1046C800686F000E696F000E6A6F000E6B6F000155
:1046D80060A110D0000164510001682700016551F4
:1046E800000169230001665100016A230001675136
:1046F80000016B230001D890643765376637673748
:104708000001D89063336233613360330001605134
:10471800000161110001621100016311D8A4D7D70B
:1047280068C060F069C061F06AC062F06BC063F095
:1047380012009D90000E0001686F000E0001696F65
:10474800000E0001656FCECF66F0CFCF67F0000195
:1047580066290DE100016729D8A409D00001652B5D
:1047680065050001646F020E00016465ECD79EA028
:1047780007D00001682B5A28D8A402D00001692B61
:104788005A50000168270001F651000169279D80F1
:1047980066C060F067C061F068C062F069C063F02D
:1047A8001200000E0001C66FECEC28F00001C66F85
:1047B8000001C6510001D8B426D00001EF2BEFC08C
:1047C80093F00001F151E3EC28F0070E00016D6F42
:1047D800D00E6C6F8FEC20F089760001FC51D8A4C4
:1047E8000CD001015A51030B0009D8A406D05FC1AF
:1047F80091F060C192F0E4EC20F006EC29F00001A1
:10480800FC5197EC26F00001C651120003EE00F0AF
:10481800720EEE6AE806FDE102EE00F0C30EEE6AE3
:10482800E806FDE101EE00F0EA0EEE6AE806FDE1B9
:1048380000EEEAF0130EEE6AE806FDE100EE4EF037
:10484800110EEE6AE806FDE1240EF66E520EF76EC2
:10485800000EF86E0900F5CFFDF00900F5CFFEF067
:104868000900F5CFFFF05F905F92000EF86E00012F
:104878001AEF28F00001695100016A11D8B426D056
:10488800010E00016B6F06D00001D89069376A37B6
:1048980000016B2B00016AAFF7D7000169510001D5
:1048A800675D00016A5100016859D8A008D000016D
:1048B80069510001675F00016A510001685B0001EE
:1048C800D8906A33693300016B2FE7D767C067F068
:1048D80068C068F01200000EF0BA010E0001676FA0
:1048E800F09A8C9A030EF5EC28F000016451F5EC6F
:1048F80028F000016351F5EC28F00FD0000EF5EC1C
:1049080028F061C0D9FF62C0DAFFDF6E0001614B99
:10491800622B00016507D8A06607000165510001F8
:104928006611D8A4EBD78C8A000167B102D0F09A3F
:1049380001D0F08A1200530E9512A49E000E736ED9
:10494800F00E746E280E726E000E716EA38EF28ECB
:10495800F28C010E00016D6F2C0E6C6F8FEC20F045
:104968007C0E01016C6F810E01016D6F000E01015B
:104978006E6F000E0001606F030EBCEC28F0000E95
:1049880000016D6FC80E6C6F8FEC20F012000001F3
:10499800926FDAEC27F0B70E00016C6F010E000180
:1049A8006D6FD50E00016E6FFF0E00016F6F92C024
:1049B80070F00001716BBCEC07F0C70E00016C6F62
:1049C800010E00016D6FC40E00016E6FFF0E000135
:1049D8006F6F91C070F00001716BBCEC07F042EC96
:1049E80028F012000001A46F0001A4510E0D0C0E56
:1049F800F326000EF422370EF324D96E020EF420AB
:104A0800DA6E0201DFAE17D00001A4510E0D040EBC
:104A1800F326000EF422370EF32400019F6F020ED6
:104A2800F4200001A06F010E0001A16FA3C0A2F045
:104A3800CAEC28F01200000E1200DAEC27F0B70ECC
:104A480000016C6F010E00016D6F91C06EF092C095
:104A58006FF093C070F00001716BBCEC07F042EC92
:104A680028F0000194510001D8B41200000E000192
:104A7800956F070E0001956501D01200000E000128
:104A88006D6FFA0E6C6F8FEC20F00001952BF1D74B
:104A98009D90000E096E000E0A6E000E066ECECFB7
:104AA80007F0CFCF08F0072809E10828D8A406D0D6
:104AB800062A0604056E020E0564F1D79EA004D0EE
:104AC800092A5A28D8B40A2A5A5009260001F65148
:104AD8000A269D8007C001F008C002F009C003F053
:104AE8000AC004F01200000E096E000E0A6E000ED5
:104AF8000B6E000E0C6E01A008D00550092606505A
:104B08000A2207500B2208500C22D8900536063688
:104B180007360836D8900432033202320132015087
:104B2800021003100410D8A4E6D709C001F00AC087
:104B380002F00BC003F00CC004F01200000E0001DC
:104B4800F06F0001F051010D940EF324D96E010E9F
:104B5800F420DA6E7A0EDF6E0001F02B3B0E0001B6
:104B6800956F020E0001966F010E0001976F000EFF
:104B78000001986F000EC6EC1BF000019F6F00014A
:104B88009F510001D8A41200010E0101936F120079
:104B98000001976F000196510001D8A40ED0430E72
:104BA8000001916FFE0E0001926F97C093F0010E05
:104BB8000001946F21EC25F00DD0830E0001916F58
:104BC800FE0E0001926F97C093F0010E0001946FE2
:104BD80021EC25F0030E00016D6FE80E6C6F8FEC71
:104BE80020F01200000EF2BE010E0001656FF29E69
:104BF8008D90030EF5EC28F000016351F5EC28F0D8
:104C08000DD0000EF5EC28F061C0D9FF62C0DAFFC4
:104C1800DF6E0001614B622B0001640700016451E3
:104C28000001D8A4EED78D80000165B102D0F29EB4
:104C380001D0F28E1200000E0001666F070E00010F
:104C4800666501D01FD000016651010DF3500001C7
:104C58006225D96EF45000016321DA6E00016651B5
:104C6800010DF35000016025E16EF450000161214F
:104C7800E26EDE50E618D8B402D0000E1200000131
:104C8800662BDCD7010E120000016C6F030E0001C9
:104C98006C6501D012006CC0FFF0FFC06BF0000122
:104CA8006B3BF00E6B170001EC510F0B00016B1101
:104CB8000001EC6FFF0E0001616F000E0001626FD2
:104CC8005BC063F05CC064F0000E0001666F010E0B
:104CD800656FF8EC1DF01200000160510101882594
:104CE8000001646F00016151010189210001656FB4
:104CF80000016405800E00016559D8A002D0000E9D
:104D0800120062C0D9FF63C0DAFF88C1DEFF89C123
:104D1800DDFF000160510101882700016151010197
:104D28008923010E12000001966F000196510001BF
:104D3800D8B40FD0BF0E0001916FFE0E0001926F24
:104D4800000E0001936F000E0001946F21EC25F016
:104D58001200630E0001916FFE0E0001926F000EAB
:104D68000001936F000E0001946F21EC25F01200F2
:104D780000016B6F000E0001656F00016B51E1ECE3
:104D88001FF00009D8B415D06BC0FAF0FA0E000174
:104D9800616F000E0001626F5DC063F05EC064F079
:104DA800000E0001666F010E656FF8EC1DF0010E34
:104DB8001200000E120000016F6F15D09DEC23F059
:104DC80060C080F161C081F162C082F163C083F18B
:104DD8009DEC23F060C084F161C085F162C086F16A
:104DE80063C087F1120000016F51000AD8B4E6D7FA
:104DF800010AD8B41200030A12000001636F000E02
:104E0800F0BA010E0001626FF09A8D9200016351B1
:104E180040090001636F00016351F5EC28F0000EB2
:104E2800F5EC28F00001616F8D82000162B102D0BB
:104E3800F09A01D0F08A000161511200F90E0001C8
:104E4800916FFE0E0001926F000E0001936F000E2D
:104E58000001946F21EC25F063EC1EF00001966FC1
:104E680000019605D8A402D0000E1200020E00011F
:104E78009619D8A4F1D7010E1200000E0001F06FA8
:104E88000001F051010D940EF324D96E010EF420A7
:104E9800DA6EDA0EDF6E0001F02B9FC095F0A0C02D
:104EA80096F0010E0001976F000E0001986F000E3A
:104EB800C6EC1BF012000001665100016803F3CF35
:104EC8006AF0F4CF6BF00001665100016903F350FA
:104ED80000016B270001675100016803F3500001CE
:104EE8006B276AC066F06BC067F01200120000F012
:104EF800D60E00017027FF0E7123FF0E7223FF0EDE
:104F08007323000173BF1200000173510001721175
:104F180000017111ECE100017005D8A01200E7D77B
:104F2800026E000EF0BA010E046EF09A8D920250D5
:104F38004009026E0250FEEC28F0000EFEEC28F04C
:104F4800036E8D8204B002D0F09A01D0F08A03502B
:104F58001200000EF0BA010E0001636FF09A8D92F4
:104F680000016251F5EC28F000016151F5EC28F0E0
:104F78008D82000163B102D0F09A01D0F08A12004C
:104F8800A20E0001916FFE0E0001926F000E00014B
:104F9800936F010E0001946F21EC25F0070E0001BC
:104FA8006D6FD00E6C6F8FEC20F01200000E0001B8
:104FB800606F1F0E0001606501D012000001605192
:104FC800010DB70EF324D96E010EF420DA6E200E0F
:104FD800DF6E0001602BEDD70001616F000EF0BAA3
:104FE800010E0001626FF09A8B9400016151F5EC9B
:104FF80028F08B84000162B102D0F09A01D0F08AC7
:1050080012000001626F000E0001616F3A0E00018C
:10501800626107D02F0E0001626503D0010E000106
:10502800616F61C060F0000160311200000E000184
:10503800E96F87EC21F07AEC28F0C4EC27F022EC39
:1050480027F00001E96F0001E9511BEC1DF00BECA2
:1050580029F0FDD7120000F0D60E1126FF0E1222FD
:10506800FF0E1322FF0E142214BE12001450131048
:105078001210F1E11104D8A01200EDD77C0E010145
:105088006C6F320E01016D6F000E01016E6F200E04
:1050980001016F6F200E0001606F040EBCEC28F058
:1050A8001200000EF0BA010E046EF09A8D920350B1
:1050B800FEEC28F00250FEEC28F08D8204B002D0FD
:1050C800F09A01D0F08A1200020E0001EE6112007F
:1050D8000001EE51390D000EF324D96E030EF420B1
:1050E800DA6E000EDF6E0001EE691200380ECD6E2A
:1050F800000E9A6E000ECF6E000ECE6ECECF8AF1E5
:10510800CFCF8BF19E909D800EEC29F0120000010C
:105118009F6F000E0001956F000E0001966F000E44
:105128000001976F9FC098F0010EC6EC1BF01200AB
:10513800026E000EF0BA010E036EF09A8B940250C4
:10514800FEEC28F08B8403B002D0F09A01D0F08AEC
:105158001200E60E0001916FFF0E0001926F000E23
:105168000001936F010E0001946F21EC25F01200ED
:105178000001616F71B4FED7000E526E000E576EBB
:1051880061C051F060C056F0718012009FC095F068
:10519800A0C096F0000E0001976FA2C098F0000E14
:1051A800C6EC1BF01200A4AE1200A49E89EC1FF0FE
:1051B800000E0E6E050E0D6E1AEC22F012000001A4
:1051C800946F93C091F000019451CBEC24F012003D
:1051D8006FEC02F00001EDA702D0010E1200000EE4
:1051E80012000001606FC69E60C0C9FFC7A0FED74D
:1051F800C9501200016EC69E01C0C9FFC7A0FED7E4
:10520800C95012000001ED9768EC28F01200DBECA1
:0F5218000CF01200CD80120000F01200011903FB
:02522800120072
:10FCE4000020B2202020B22020B220B220202020E8
:10FCF40020B220B20D0AB220B220B220B2202020BD
:10FD0400B22020B22020B220200D0AB22020B2203E
:10FD140020B220B220B22020B22020B220B20D0A9C
:10FD2400B22020B22020B220B22020B220B220B2D1
:10FD34002020B20D0AB22020B22020B220B220200E
:10FD440020B220B2202020B20D0A20202020202022
:10FD5400202020202020202020202020200D0AB236
:10FD6400B2B22020B2B2B2B20D0AB22020B220B296
:10FD74002020200D0AB22020B220B2B2B2B20D0A65
:10FD8400B22020B220B22020200D0AB2B2B220202C
:10FD9400B2B2B2B20D0A2020202020202020200D53
:10FDA4000A36008402090409060C08C10A7D0C64A1
:10FDB4000E14100012001400163818C81A0D1C0076
:10FDC4001E72203822382407260028002A692C8134
:10FDD4002E7E309632F83488364038003AE83C00BB
:10FDE4003E4F4F4F4F4F4F4F4F4F4F4F4F4F4F4F30
:10FDF4004F4F4F4F4F4F4F50505050505050505006
:10FE040050222426282A2C2E30323437393B3D3FC9
:10FE1400414345474A4C4E0507090B0D0F11141673
:10FE24001801000800400000020010008001000AD0
:10FE3400006400E8031027010010000001001043D3
:10FE44006F6E6E656374696E6720506565722020FD
:10FE54006F6E204368616E6E656C202564200052CD
:10FE64004230203A20556E69636173742020205219
:10FE74004232203A204E657874204E6F646500202B
:10FE8400436F6E6E656374656420506565722020EF
:10FE94006F6E204368616E6E656C20256400536943
:10FEA4006D706C65205354415220202020204D5207
:10FEB4004638395841204E6F6465005043203A5209
:10FEC4004230206F72205242322020746F204272DE
:10FED4006F616463617374005242303A2042726FFE
:10FEE40061646361737420205242323A20556E6912
:10FEF40063617374005242303A4E6577204E6574E4
:10FF0400776F726B205242323A467265657A657237
:10FF1400005242303A253032642D25303278253073
:10FF24003278253032782D6D65005242303A2530D2
:10FF340032642D25303278253032782530327800FD
:10FF440020416464726573733A2530327825303207
:10FF5400782530327800446174615F53656E64695A
:10FF64006E675F4661696C212100454E445F4445DC
:10FF74005649434553203A253032640030313233F8
:10FF840034353637383941424344454600303132FE
:10FF940033343536373839616263646566005242FA
:10FFA400323A204368616E6765206E6F6465004471
:10FFB400617461205061636B65742066726F6D00BB
:10FFC4005258204D657373616765733A2025336415
:10FFD400005458204D657373616765733A20253367
:10FFE400640020556E6963617374204661696C65B1
:03FFF400640000A6
:08FFF800ACF6D8FFFFF9FFF1A0
:00000001FF
