:04000000C4EF00F059
:10000800D9CF14F0DACF15F0F3CF16F0F4CF17F0FC
:10001800F0B6F0A0A2D0F090620EC0EC19F0196E04
:1000280019A00FD0299029BC299C0001DA6BDB6B41
:1000380029A207D0480EC0EC19F0186E18B0298410
:10004800299219A683D01B681C6A1C50450D000E06
:10005800F324D96E020EF420DA6EDF5003E11CC0DF
:100068001BF004D01C2A010E1C64EFD7020E1B6083
:1000780068D0040E026E730EEAEC19F01B50450DA1
:10008800000EF324D96E020EF420DA6E030E036E0E
:10009800026A2BEC17F0020FDF6E1B50450D000EA5
:1000A800F324D96E020EF420DA6E440EDF603FD0DE
:1000B800298A010E1C6E1AD01B50450D000E0F6EBA
:1000C800020E106EF3500F26F45010221C500F240D
:1000D800D96E000E1020DA6E000E1C24026E036A20
:1000E800030E03222BEC17F0DF6E1C2A1C500F6E38
:1000F800106A1B50450D000EF324D96E020EF42031
:10010800DA6EDF50116E126A020E1126000E1222EC
:100118000F50115C1250800A136E1050800A135849
:10012800CBE2010E026E1B0EEAEC19F005D0010EAF
:10013800026E1B0EEAEC19F0026A730EEAEC19F073
:1001480005D0010E026E1B0EEAEC19F019A805D0B5
:10015800800E026E590EEAEC19F09EB09DA005D0F3
:100168009E902E2A2E50D8B42F2AC7EC1AF017C00A
:10017800F4FF16C0F3FF15C0DAFF14C0D9FF110051
:10018800F8EF15F0680E7E6F7DD3250E841909E00F
:1001980064C0D9FF65C0DAFF84C0DFFF644B652BFC
:1001A80071D3826B836B856B866B09D0858705D08D
:1001B800858103D0868701D08585664B672B66C00D
:1001C800F6FF67C0F7FF0800F550200AF1E0030AC0
:1001D800F1E00E0AEBE01D0AEFE085B7859566C0F1
:1001E800F6FF67C0F7FF0800F55072EC1AF02EE32F
:1001F800826B836B82C01DF083C01EF0206A0A0EDA
:100208001F6E11EC1AF01DC082F01EC083F0D00ED4
:10021800706F716966C0F6FF67C0F7FF0800F55098
:10022800726F736B705172277151732372518227E9
:1002380073518323664B672B66C0F6FF67C0F7FFD1
:100248000800F55072EC1AF014E3D4D766C0F6FF34
:1002580067C0F7FF0800F5502A0A0BE17E51D96EF6
:10026800DA6ADECF82F0DDCF83F0020E7E27664B9E
:10027800672B66C0F6FF67C0F7FF0800F5502E0A27
:1002880030E1868D664B672B66C0F6FF67C0F7FFC7
:100298000800F5502A0A0AE17E51D96EDA6ADF5061
:1002A800816F020E7E27664B672B8BD0816B0FD038
:1002B80066C0F6FF67C0F7FF0800F5CF70F0815100
:1002C8000A0DF3507025D00F816F664B672B66C0FF
:1002D800F6FF67C0F7FF0800F55072EC1AF071E3FB
:1002E800E7D7816B6ED0858D89D0858B858F86D039
:1002F80081510FE081C070F0716B70BF71077C5144
:10030800705D7D51715905E281517C6F7D6B7CBFB9
:100318007D0782517C5D83517D5905E27C51825F66
:100328007D51835B02D0826B836B85A709D01CD07B
:1003380064C0D9FF65C0DAFF200EDF6E644B652B01
:100348008207D8A083078229F3E183290DE0F0D73B
:100358007B51D96EDA6A64C0E1FF65C0E2FFDFCF86
:10036800E7FF7B2B644B652B7C07D8A07D077C2996
:10037800EFE17D29D8A4ECD785B709D083D264C032
:10038800D9FF65C0DAFF200EDF6E644B652B82074C
:10039800D8A083078229F3E1832901E173D2EFD73B
:1003A8007E51D96EDA6ADF50846F020E7E27840E82
:1003B8007B6F000E7D6F010E7C6F9AD7C00E851380
:1003C8001DD066C0F6FF67C0F7FF664B672B0800B5
:1003D800F5CF84F0845101E161D2580A86E03B0AE6
:1003E800DFE0070A0BE00D0A09E0060A01E17BD706
:1003F8001A0AE4E00D0A01E179D7D9D785C070F06F
:10040800C00E701712E17E51D96EDA6ADECF7FF026
:10041800DDCF80F0020E7E2780AF10D0030E85134B
:100428007F6D801FD8B0802B09D07E51D96EDA6AD3
:10043800DECF7FF0DDCF80F0020E7E27815147E1CD
:100448007F51801144E1812B42D0010E846F050E4B
:10045800841946E08451020D1B0EF324F66EFE0E3D
:10046800F420F76E0900F5507F5D0900F5508059BA
:1004780037E3842BECD7010E846F040E841930E027
:100488008451020D250EF324F66EFE0EF420F76E4D
:100498000900F5507F5D0900F550805921E3842B50
:1004A800ECD7010E846F060E84191AE08451020DF0
:1004B8000F0EF324F66EFE0EF420F76E0900F550C9
:1004C8007F5D0900F55080590BE3842BECD78551EB
:1004D800C00BBBE0400AE5E0C00ACDE0400AB5E049
:1004E8008451800A706F8151800A705D03E281C077
:1004F80084F009D08151800A706F8451800A705D40
:10050800D8A084C081F08251831108E085C070F0C2
:10051800030E701703E08207D8A0830786AD13D0B7
:10052800800E81BF7F0E706F8251815D8351800A7A
:10053800705907E28151825F000E81BFFF0E835B15
:1005480002D0826B836BC40E706F080E716F85C00A
:1005580072F086C073F07051721771517317400EA4
:1005680072190BE1080E7319D8A407D082518311B0
:1005780025E08207D8A0830721D0C00E706F080E2F
:10058800716F85C072F086C073F070517217715127
:100598007317800E721912E1080E7319D8A40ED0C1
:1005A80083BF0AD0835103E1030E825D05E3FE0E8B
:1005B8008227FF0E832302D0826B836B800E84BF59
:1005C8007F0E706F8251845D8351800A705907E2F3
:1005D8008451825F000E84BFFF0E835B02D0826B62
:1005E800836B85A550D085C070F0030E701709E0A5
:1005F80064C0D9FF65C0DAFF2D0EDF6E644B652B32
:1006080032D085A106D064C0D9FF65C0DAFF200EBC
:10061800F4D7C00E706F080E716F85C072F086C077
:1006280073F07051721771517317800E72191BE1B4
:10063800080E7319D8A417D064C0D9FF65C0DAFFB3
:10064800300EDF6E644B652B85BB03D0766B780E5E
:1006580002D0766B580E756F64C0D9FF65C0DAFF9B
:1006680075C0DFFFCBD78251831101E1F3D064C09D
:10067800D9FF65C0DAFF300EDF6E644B652B820749
:10068800D8A08307F0D782518311D8A485B70ED09C
:1006980064C0D9FF65C0DAFF200EDF6E644B652B9E
:1006A8008207D8A0830782518311F2E185C070F0D8
:1006B800030E701709E064C0D9FF65C0DAFF2D0E7C
:1006C800DF6E644B652B08D085A106D064C0D9FFC6
:1006D80065C0DAFF200EF4D7C00E706F080E716F78
:1006E80085C072F086C073F070517217715173171C
:1006F800400E72190DE1080E7319D8A409D064C010
:10070800D9FF65C0DAFF300EDF6E644B652BA2D0CF
:10071800C00E706F080E716F85C072F086C073F0DE
:100728007051721771517317800E72191BE1080E00
:100738007319D8A48FD064C0D9FF65C0DAFF300E12
:10074800DF6E644B652B85BB03D0786B780E02D0C7
:10075800786B580E776F64C0D9FF65C0DAFF77C031
:10076800DFFFD3D777D08151020D1B0EF324F66E2D
:10077800FE0EF420F76E0900F5CF1FF00A00F5CF42
:1007880020F07FC01DF080C01EF0F2EC17F01DC0F5
:1007980060F01EC061F0636B0A0E626FD9EC18F04E
:1007A800605145D07FC01DF080C01EF08151020D00
:1007B800250EF324F66EFE0EF420F76E0900F5CF31
:1007C8001FF00A00F5CF20F0F2EC17F01D500F0BC8
:1007D800746F85BB04D06F0E796FFF0E03D05E0E69
:1007E800796FFF0E7A6F74517925706F000E7A2138
:1007F800716F70C0F6FF71C0F7FF0800F5CF84F085
:1008080022D07FC01DF080C01EF08151020D0F0E56
:10081800F324F66EFE0EF420F76E0900F5CF1FF0F4
:100828000A00F5CF20F0F2EC17F01D50070B300F3F
:10083800846F09D08551C00B96E0400AE2E0C00AF7
:10084800B1E0400A90E064C0D9FF65C0DAFF84C017
:10085800DFFF5BD781078129EDE185B783BF12D020
:10086800835102E182050EE364C0D9FF65C0DAFF57
:10087800200EDF6E644B652B8207D8A08307825158
:100888008311F2E166C0F6FF67C0F7FF664B672B7E
:100898000800F5CF84F0845101E077D464C0D9FF13
:1008A80065C0DAFF000EDF6A120054EC17F01DC0B5
:1008B80004F11EC005F11FC006F120C007F1EB0EC0
:1008C800876FFF0E886F896B8A6B7BEC18F054EC8E
:1008D80017F01DC0CFF01EC0D0F01FC0D1F020C04F
:1008E800D2F0010104510001CF5D0101796F05517A
:1008F8000001D05901017A6F06510001D159010157
:100908007B6F07510001D25901017C6F7C5108E1CE
:10091800410E795D4B0E7A594C0E7B5901E264D237
:10092800010E0001E86F020EF1EC14F0E00E000178
:10093800876FFF0E886F896B8A6B7BEC18F0030E4C
:100948001E6EE80E1D6EC2EC11F0000E45EC1AF09A
:1009580054EC17F01DC008F11EC009F11FC00AF1C0
:1009680020C00BF141D254EC17F01DC00CF11EC091
:100978000DF11FC00EF120C00FF1010108510C5DEF
:10098800796F09510D597A6F0A510E597B6F0B51C6
:100998000F597C6F7C5107E1A10E795D250E7A59BC
:1009A800260E7B590CE372EC16F054EC17F01DC0C0
:1009B80008F11EC009F11FC00AF120C00BF1E8ECD4
:1009C8001AF0000910E0E52BE5C088F0E751E1ECEA
:1009D8001AF0070E1E6ED00E1D6EC2EC11F089764D
:1009E800EEEC1AF0AED1D7EC13F00101826F82055C
:1009F80004E0020E821901E0A4D1846B010E816F1C
:100A080099D180EC1AF0010184510001FC193FE1F1
:100A18008A0E646F020E656F050E666FFF0E676FB4
:100A280001018451040D130EF324D96E010EF42034
:100A3800DA6EDF500001686F696B01018451040DA3
:100A4800100EF324D96E010EF420DA6EDF50000187
:100A58006A6F6B6B01018451040D110EF324D96E7A
:100A6800010EF420DA6EDF5000016C6F6D6B01012E
:100A78008451040D120EF324D96E010EF420DA6E9F
:100A8800DF5000016E6F6F6BC6EC00F03ED08A0E2F
:100A9800646F020E656F1E0E666FFF0E676F0101B1
:100AA8008451040D130EF324D96E010EF420DA6E6E
:100AB800DF500001686F696B01018451040D100E4D
:100AC800F324D96E010EF420DA6EDF5000016A6F4C
:100AD8006B6B01018451040D110EF324D96E010EC4
:100AE800F420DA6EDF5000016C6F6D6B01018451E8
:100AF800040D120EF324D96E010EF420DA6EDF50C5
:100B080000016E6F6F6BC6EC00F08A0E646F020E08
:100B1800656F1E0E666FFF0E676F01018451040D2D
:100B2800130EF324D96E010EF420DA6EDF500001A3
:100B3800686F696B01018451040D100EF324D96E9E
:100B4800010EF420DA6EDF5000016A6F6B6B010151
:100B58008451040D110EF324D96E010EF420DA6EBF
:100B6800DF5000016C6F6D6B01018451040D120E92
:100B7800F324D96E010EF420DA6EDF5000016E6F97
:100B88006F6BC6EC00F09A0E646F020E656F800EF4
:100B9800666FFF0E676FC6EC00F09BEC1AF0010E53
:100BA800FE6FC4D0D7EC13F00101836F830501E019
:100BB800A0D0816B0001FE6B0101816B84510001A3
:100BC800FC191FE1E66B2D6A140E2D6401D012D0BA
:100BD800910E2D24F66EF76AFD0EF722380EE625E3
:100BE800D96EDA6A010EDA220800F5CFDFFFE62BAC
:100BF8002D2AEAD7000EA36B32EC19F00001E72B7F
:100C080095D0E66B380EE625D96EDA6A010EDA223F
:100C1800CC0EDF6EE62B01018451040D100EF32477
:100C2800D96E010EF420DA6E380E0001E625E16E69
:100C3800E26A010EE222DFCFE7FFE62B01018451D1
:100C4800040D110EF324D96E010EF420DA6E380E5D
:100C58000001E625E16EE26A010EE222DFCFE7FF3E
:100C6800E62B01018451040D120EF324D96E010EF6
:100C7800F420DA6E380E0001E625E16EE26A010E14
:100C8800E222DFCFE7FFE62B040E2D6E180E2D644F
:100C980001D01ED0FC0E0101796F7A692D507B6F4F
:100CA8007C6B79517B277A517C23910E7B25F66EDC
:100CB800FD0E7C21F76E380E0001E625D96EDA6A42
:100CC800010EDA220800F5CFDFFFE62B2D2ADED74A
:100CD800000E21EC14F00101806F80518FE14A0E63
:100CE8000001876FFF0E886F896B8A6B7BEC18F0A9
:100CF8001DD0020E83191AE18451796F7A6B7B69D2
:100D08007C692C507D6F7E6B7B517D277C517E23C7
:100D180079517D5D7E51800A7F6F7A51800A7F59B3
:100D280002E2846B01D0842B0001FE6B0001FE51AE
:100D380001E038D70101810501E163D6000E45ECD9
:100D48001AF00001E9050EE1190E7DEC19F0000E0C
:100D580015EC19F00101686B1FEC10F0FF0AFAE0BE
:100D68000001E96B54EC17F01DC0D3F01EC0D4F09D
:100D78001FC0D5F020C0D6F0CF51D35D0101796FE7
:100D88000001D051D45901017A6F0001D151D559D0
:100D980001017B6F0001D251D65901017C6F7C5152
:100DA80007E1810E795D960E7A59980E7B591CE3FE
:100DB8000001E86B000EF1EC14F0D40E0001876F0F
:100DC800FF0E886F896B8A6B7BEC18F0030E1E6E22
:100DD800E80E1D6EC2EC11F0D3C004F1D4C005F1C9
:100DE800D5C006F1D6C007F10001E85101E16FD581
:100DF800BAD581A2F08029A00BD0DB5103E1400EC7
:100E0800DA5D04E3DA6BDB6B299002D0DA4BDB2B7B
:100E18004268236A2350450D000EF324D96E020E52
:100E2800F420DA6EDF5003E023C042F004D0232A16
:100E3800010E2364EFD7020E4260000C010E246EEF
:100E48004250450D010EF324D96E020EF420DA6EDD
:100E58000201DFAC246A306A386A4250450D020E3E
:100E6800F324D96E020EF420DA6EDF50CC0B226E1A
:100E7800DBD14250450D060EF324D96E020EF42044
:100E8800DA6EDE280BE14250450D070EF324D96EC9
:100E9800020EF420DA6EDE28D8B43084308E245066
:100EA8002EE04250450D040EF324D96E020EF420B4
:100EB800DA6EDF50396E4250450D050EF324D96EB7
:100EC800020EF420DA6EDF503A6E4250450D080EDD
:100ED800F324316E020EF420326E4250450D000E9E
:100EE800F324D96E020EF420DA6EDF50ED0F356E62
:100EF8004250450D100EF324336E020E34D1425089
:100F0800450D080EF324D96E020EF420DA6EDF5078
:100F1800396E4250450D090EF324D96E020EF420A5
:100F2800DA6EDF503A6E4250450D0A0EF324316EE8
:100F3800020EF420326E4250450D000EF324D96E95
:100F4800020EF420DA6EDF50EB0F356E4250450D7D
:100F5800120EF324336E020E06D1308E24502EE08A
:100F68004250450D040EF324D96E020EF420DA6EB9
:100F7800DF50396E4250450D050EF324D96E020E2E
:100F8800F420DA6EDF503A6E4250450D0E0EF3240F
:100F9800316E020EF420326E4250450D000EF324DD
:100FA800D96E020EF420DA6EDF50E70F356E42502C
:100FB800450D160EF324336E020ED5D04250450D62
:100FC8000E0EF324D96E020EF420DA6EDF50396E5D
:100FD8004250450D0F0EF324D96E020EF420DA6E3E
:100FE800DF503A6E4250450D100EF324316E020E5A
:100FF800F420326E4250450D000EF324D96E020ED5
:10100800F420DA6EDF50E50F356E4250450D180EAC
:10101800F324336E020EA7D03084308E010E386E62
:101028004250450D040EF324D96E020EF420DA6EF8
:10103800DF50396E4250450D050EF324D96E020E6D
:10104800F420DA6EDF503A6E4250450D060EF32456
:10105800316E020EF420326E4250450D000EF3241C
:10106800D96E020EF420DA6EDF50F50F356E42505D
:10107800450D080EF324336E020E75D04250450D0F
:10108800060EF324D96E020EF420DA6EDE280BE188
:101098004250450D070EF324D96E020EF420DA6E85
:1010A800DE28D8B43084308E010E386E24502EE1FC
:1010B8004250450D080EF324D96E020EF420DA6E64
:1010C800DF50396E4250450D090EF324D96E020ED9
:1010D800F420DA6EDF503A6E4250450D0A0EF324C2
:1010E800316E020EF420326E4250450D000EF3248C
:1010F800D96E020EF420DA6EDF50F10F356E4250D1
:10110800450D0C0EF324336E020E2DD04250450DC2
:10111800040EF324D96E020EF420DA6EDF50396E15
:101128004250450D050EF324D96E020EF420DA6EF6
:10113800DF503A6E4250450D080EF324316E020E10
:10114800F420326E4250450D000EF324D96E020E83
:10115800F420DA6EDF50F30F356E4250450D0A0E5B
:10116800F324336E020EF420346E70D0308E010EEC
:10117800386E24501BE04250450D040EF324D96EFE
:10118800020EF420DA6EDF50396E4250450D050E1E
:10119800F324D96E020EF420DA6EDF503A6E425014
:1011A800450D0D0EF324316E020E95D64250450DB5
:1011B8000D0EF324D96E020EF420DA6EDF50396E6C
:1011C8004250450D0E0EF324D96E020EF420DA6E4D
:1011D800DF503A6E4250450D0F0EF324316E020E69
:1011E800A8D64250450D060EF324D96E020EF420FF
:1011F800DA6EDE280BE14250450D070EF324D96E56
:10120800020EF420DA6EDE28D8B430844250450D40
:10121800000EF324D96E020EF420DA6EDF50F60FBA
:1012280025D78EEC1AF0000C2250080ADAE0880A5A
:1012380001E1F2D6080A01E121D7040A97E0440A3D
:1012480001E117D6040A01E188D6EBD74250450DD3
:10125800010EF324D96E020EF420DA6EDFB6E1D760
:101268000BD0FC0E30161DD03050FC0B0109306E2F
:1012780018D0030E301215D04250450D010EF3243C
:10128800D96E020EF420DA6EDF50070B1D6E1E6A4F
:101298001E50C7E11D50EDE0010AE3E0020AE4E058
:1012A800C0D74250450D000EF324D96E020EF4202B
:1012B800DA6EDF501D6E4250450D1E681F68000E25
:1012C800206E020E216E1E5020261F502122F35040
:1012D8002026F45021221D502024D96E000E2120F2
:1012E800DA6EDF50376E4250450D000EF324D96E8A
:1012F800020EF420DA6EDF501D6E4250450D000ECE
:101308001E6E020E1F6EF3501E26F4501F221D5033
:101318001E24D96E000E1F20DA6EDF50366E010CC7
:1013280054EC17F054EC17F0E3A51DD054EC17F06B
:101338001DC0B4F01EC0B5F01FC0B6F020C0B7F095
:10134800C351B45DAC6FC451B559AD6FC551B659F1
:10135800AE6FC651B759AF6FAF51AE1103E1400E32
:10136800AD5DD8B0E395E3A32DD054EC17F01DC0C4
:10137800B4F01EC0B5F01FC0B6F020C0B7F0CB5116
:10138800B45DAC6FCC51B559AD6FCD51B659AE6F98
:10139800CE51B759AF6FAF5107E1910EAC5DD00E8A
:1013A800AD59030EAE590EE3E393000E1E6E030E05
:1013B8001F6E3FC020F040C021F0236A8C0E226EC1
:1013C8003FEC13F00001E3B71200FDEC06F0000952
:1013D800D8B412000001B06BB96B30A403D0AC6B69
:1013E800AC2B02D00001AC6BB951AC19FC0BAC1999
:1013F800B96F30A602D0B98702D00001B997305032
:10140800030BE80603E1AC6BAC2B02D00001AC6B1C
:10141800AC3BAC47B951AC19DF0BAC19B96F30AE66
:1014280002D0B98D02D00001B99D30AE04D031C0D0
:10143800BCF032C0BDF039C0BAF03AC0BBF035C01C
:10144800C0F033C0BEF034C0BFF037C0C2F036C001
:10145800C1F0B9BB94D1B0D18EEC1AF0AED1020E66
:10146800FF6501D0F9D720EE01F0BE51D926BF5152
:10147800DA22FB51DE18F0E1E66B380EE625D96E6C
:10148800DA6A010EDA22970EDF6EE62B380EE625B1
:10149800D96EDA6A010EDA22E2C0DFFFE62BB86BFA
:1014A800B851FD0FD96EDA6A380EE625E16EE26AA8
:1014B800010EE222DFCFE7FFE62BB82BB851F0E0B0
:1014C8008EEC1AF0BAC08FF0BBC090F0BCC091F09F
:1014D800BDC092F0010E0001936F000EB9B7010E66
:1014E800946F000E95EC12F068D1E66B380EE62585
:1014F800D96EDA6A010EDA22920EDF6EE62BB86B2D
:10150800B8510E0D0C0EF324D96E030EF420DA6ECA
:10151800DFAE39D0BCC01DF0BDC01EF00001B8510F
:101528000E0D040EF3241F6E030EF420206EAAEC99
:1015380019F0000928E0B8510E0D0C0EF324D96EED
:10154800030EF420DA6EDF6AB8510E0D000EF32494
:101558001E6E030EF4201F6EB8510E0D3F50F3247B
:10156800206E4050F420216E236A0E0E226E3FEC4E
:1015780013F0380E0001E625D96EDA6A010EDA2278
:10158800DF6AE62B05D00001B82B090EB865B8D77D
:101598008EEC1AF00A0E0001B81909E1380EE6259A
:1015A800D96EDA6A010EDA22F00EDF6EE62BBAC0C7
:1015B8008FF0BBC090F0BCC091F0BDC092F0010E9E
:1015C800936F000EB9B7010E946F000E95EC12F0F0
:1015D800F4D0EB291AE1EC29D8A417D0BAC0EBF063
:1015E800BBC0ECF0B169B269EB0E216EB10ED6EC5E
:1015F80016F0EB0E1E6E1F6AF3C020F0F4C021F047
:10160800236A020E226E3FEC13F074EC0FF0000117
:1016180020EE02F0BE51D926BF51DA22DF50FC6F0E
:10162800FC0E1E6E1F6AF9C020F0FAC021F0236A72
:10163800010E226E3FEC13F00001E38354EC17F027
:101648001DC0CBF01EC0CCF01FC0CDF020C0CEF026
:1016580003D720EE01F0BE51D926BF51DA22DF5060
:10166800B8E0010AB6E0F8D6E3BBE39BF5D620EE76
:1016780001F0BE51D926BF51DA22DF5001E0ECD685
:10168800B86BB8510E0D0C0EF324D96E030EF4206E
:10169800DA6EDFAE30D0BCC01DF0BDC01EF0000158
:1016A800B8510E0D040EF3241F6E030EF420206EA5
:1016B800AAEC19F000091FE0B8510E0D0C0EF32426
:1016C800D96E030EF420DA6EDF6AB8510E0D000EE3
:1016D800F3241E6E030EF4201F6EB8510E0D3F50FA
:1016E800F324206E4050F420216E236A0E0E226EE1
:1016F8003FEC13F0B1D60001B82B090EB865C1D77D
:10170800ABD6435001E0A8D6010EEA6FA5D64350E8
:1017180001E0A2D620EE01F0BE51D926BF51DA224F
:10172800DF50AC6FAC052C6EBEC024F0BFC025F0F6
:1017380052EC11F091D6435001E18ED6BEC01DF097
:10174800BFC01EF08CEC13F00001B36FB3290DE09D
:10175800BEC0A5F0BFC0A6F0B3C0A7F0BCC0A8F03B
:10176800BDC0A9F0F1EC12F0B06FB05101E174D630
:10177800BCC09FF0BDC0A0F04DEC19F06DD6BEC046
:10178800D9FFBFC0DAFFDF50770AC1E0F60A01E1EE
:1017980063D6030A01E1A9D6050A01E160D6160A53
:1017A80001E157D7030A01E162D7050A01E15CD7D5
:1017B8005B0AC1E0160AA5E0E3870001E3B5E3A7E9
:1017C80001D0E395C051D8A4E3B902D0E3AB12002D
:1017D800E3978EEF1AF08E6B74A502D0010E776F27
:1017E80074B7786B7451030BE80602E1030E04D05A
:1017F8007451030B02E1010E8B6F3B5079190EE116
:101808003C507A19D8A40AD03B2802E13C2806E0CB
:10181800050E8C6F8B8D010E8A6F03D0070E8C6FAF
:101828008A6B7751020ED8B4080E8C277851020EB5
:10183800D8B4080E8C2774BB74B501D08B8B745147
:10184800030B030A07E18B6B070E8C6F8A6B010E83
:10185800786F749B1F6A1E6A8CC020F07CEC17F0AE
:1018680000018E2B8EC01EF01F6A8C517D25206EC4
:101878007CEC17F000018E2B8EC01EF01F6A8BC007
:1018880020F07CEC17F000018E2B7451030B030A37
:1018980012E18EC01EF01F6A800E206E7CEC17F0DD
:1018A80000018E2B8EC01EF01F6A28C020F07CEC31
:1018B80017F0282A77D077510CE078510AE08EC0CB
:1018C8001EF01F6A880E206E7CEC17F000018E2B2C
:1018D80020D077510AE0785108E18EC01EF01F6AC7
:1018E800C80E206E7CEC17F0F1D777510AE1780525
:1018F80008E18EC01EF01F6A8C0E206E7CEC17F07B
:10190800E5D78EC01EF01F6ACC0E206E7CEC17F057
:10191800DDD78EC01EF01F6A28C020F07CEC17F0BF
:10192800282A00018E2B8EC01EF01F6A79C020F075
:101938007CEC17F000018E2B8EC01EF01F6A7AC057
:1019480020F07CEC17F000018E2B74A50FD08EC010
:101958001EF01F6A20687CEC17F000018E2B8EC0E9
:101968001EF01F6A20687CEC17F01CD077511DE030
:101978008EC01EF01F6A75C0D9FF76C0DAFFDF502F
:10198800206E7CEC17F000018E2B8EC01EF01F6AB3
:1019980020EE01F07551D9267651DA22DF50206EFB
:1019A8007CEC17F000018E2B14D08D6B8EC01EF0CE
:1019B8001F6A8D517525D96E000E7621DA6EDF50BB
:1019C800206E7CEC17F000018E2B8D2B070E8D6599
:1019D800EDD78A5112E18EC01EF01F6A3BC020F07D
:1019E8007CEC17F000018E2B8EC01EF01F6A3CC0E5
:1019F80020F07CEC17F000018E2B785113E08EC09C
:101A08001EF01F6A3DC020F07CEC17F000018E2B01
:101A18008EC01EF01F6A3EC020F07CEC17F000015B
:101A28008E2B14D08D6B8EC01EF01F6A8D51D82559
:101A3800D96E000ED921DA6EDF50206E7CEC17F0DB
:101A480000018E2B8D2B070E8D65EDD78D6B10D079
:101A58008EC01EF01F6A8D517B25D96E000E7C2129
:101A6800DA6EDF50206E7CEC17F000018E2B8D2B88
:101A78007D518D5DEDE3298074BB74B504D0050EEE
:101A88008D6F298203D0010E8D6F29928DC01EF0B3
:101A9800370ED6EC19F054EC17F01DC082F01EC0BA
:101AA80083F01FC084F020C085F081A2F08029B0A7
:101AB80004D029A4010C2994000C54EC17F01DC083
:101AC80086F01EC087F01FC088F020C089F08251C0
:101AD800865D7E6F835187597F6F84518859806FE7
:101AE80085518959816F8151801105E1110E7E5D03
:101AF800270E7F59DAE388EC0DF03B0E216E3D0E80
:101B0800D6EC16F02990000C8C9E030E696F6A6B58
:101B18006B6B6C6B19D04D0E616F010E626F636B4E
:101B2800646B6107000E625B635B645B6129F9E1CA
:101B38006229F7E16329F5E16429D8A4F2D7690796
:101B4800000E6A5B6B5B6C5B69516A116B116C11FF
:101B5800E2E18C8E0A0E6D6F6E6B6F6B706B19D035
:101B68004D0E656F010E666F676B686B6507000E3B
:101B7800665B675B685B6529F9E16629F7E16729B8
:101B8800F5E16829D8A4F2D76D07000E6E5B6F5B8C
:101B9800705B6D516E116F117011E2E1070E1E6ED0
:101BA800550ED6EC19F0540E94EC19F00001736F31
:101BB80073C060F0070E6017F6E1716B726B714BC2
:101BC800722BE80E715D030E7259F9E3010E1E6E59
:101BD8001B0ED6EC19F01E68070ED6EC19F01E681D
:101BE800090ED6EC19F01E68030ED6EC19F01E6823
:101BF800050ED6EC19F00001736B7351D825D96E18
:101C0800000ED921DA6EDF501E6E7351020DF350AB
:101C18000B0FD6EC19F00001732B070E7365EDD787
:101C2800020E1F6E1E6E800E206E7CEC17F0020EE8
:101C38001F6E030E1E6E206A7CEC17F0020E1F6EDC
:101C4800060E1E6E900E206E7CEC17F0020E1F6EB4
:101C5800070E1E6E800E206E7CEC17F0020E1F6EB3
:101C6800080E1E6E100E206E7CEC17F0020E1F6E12
:101C7800200E1E6E210E206E7CEC17F0800E1E6E5C
:101C8800750ED6EC19F0400E1E6E7D0ED6EC19F0CE
:101C9800600E1E6E7F0ED6EC19F0980E1E6E310E79
:101CA800D6EC19F0950E1E6E5D0ED6EC19F0020EEC
:101CB8001F6E0F0E1E6E02EC17F00001736F73514A
:101CC800A00BA00AF4E1E60E1E6E650ED6EC19F024
:101CD800020E1F6E1E6A030E206E7CEC17F0020EB9
:101CE8001F6E010E1E6E020E206E7CEC17F0246A29
:101CF8000001E1519BEC18F0120000017A6F68ECCA
:101D080014F0E36B7A5129E17E6B7E510E0D0C0EB7
:101D1800F324D96E030EF420DA6EDF6A7E510E0DBD
:101D2800040EF324D96E030EF420DA6EDF6A7E51B6
:101D38000E0D050EF324D96E030EF420DA6EDF6A59
:101D48007E510E0D060EF324D96E030EF420DA6EC2
:101D5800DF6A7E2B090E7E65D8D7E66B7E6B7E2BFD
:101D6800090E7E65FCD77A515BE0FB0E1E6E1F6A7A
:101D7800EFC020F0F0C021F0236A010E226EA4EC1F
:101D880017F01F0E0001FB6501D01F0CEB0E1E6E35
:101D98001F6AF3C020F0F4C021F0236A020E226EFD
:101DA800A4EC17F0FF0E1E6E1F6AEDC020F0EEC007
:101DB80021F0236A010E226EA4EC17F0000E1E6EAD
:101DC800030E1F6E3FC020F040C021F0236A8C0E26
:101DD800226EA4EC17F0430E1E6E1F6AF7C020F0A7
:101DE800F8C021F0236A010E226EA4EC17F0FC0E55
:101DF8001E6E1F6AF9C020F0FAC021F0236A010E96
:101E0800226EA4EC17F0410E1E6E1F6AF1C020F07E
:101E1800F2C021F0236A010E226EA4EC17F035D02F
:101E2800120EEC6F340EEB6FEB0E1E6E1F6AF3C0D2
:101E380020F0F4C021F0236A020E226E3FEC13F06A
:101E4800FB0E1E6E1F6AEFC020F0F0C021F0236A5F
:101E5800010E226E3FEC13F0FF0E1E6E1F6AEDC0DE
:101E680020F0EEC021F0236A010E226E3FEC13F041
:101E7800000E1E6E030E1F6E3FC020F040C021F002
:101E8800236A8C0E226E3FEC13F0600E00017C6F0B
:101E9800010E7D6F7B837B51870B40097B6F7AB185
:101EA80002D07B9502D000017B857B917BC074F0CA
:101EB8007CC075F07DC076F0F8EC18F07869796927
:101EC800EB0E216E780ED6EC16F00001FB517DEC7E
:101ED80019F00001E26BFF39F00BE213F0861200F3
:101EE80000016769686B68510E0D0C0EF324D96EFA
:101EF800030EF420DA6EDFAE14D0BCC01DF0BDC0F6
:101F08001EF0000168510E0D040EF3241F6E030E1F
:101F1800F420206EAAEC19F0000908E068C067F008
:101F280009D000016729D8B468C067F0682B090E8A
:101F38006865D9D76729D8B41200FF51D8A4120010
:101F4800686B6851BC25D96E000EBD21DA6E6751E9
:101F58000E0D000E626F030E636F040E6227000EF3
:101F68006323F3506227F450632368516225E16EBE
:101F7800000E6321E26EDFCFE7FF682B070E68656E
:101F8800E0D767510E0D0C0EF324D96E030EF42022
:101F9800DA6EDF8E000120EE02F0BE51D926BF5165
:101FA800DA22DF50626F010E621767510E0D0C0EB8
:101FB800F324D96E030EF420DA6EDF506219FE0B9B
:101FC8006219DF6E0001686B6851BE25626F000EF2
:101FD800BF21636F030E6225D96E000E6321DA6E8E
:101FE80067510E0D000E646F030E656F0D0E6427AA
:101FF800000E6523F3506427F45065236851642567
:10200800E16E000E6521E26EDFCFE7FF682B6851B5
:10201800DBE067C0E0F0E399CBEC17F0416E410ECE
:102028001E6E1F6AF1C020F0F2C021F0236A010E73
:10203800226E3FEF13F0FFC06DF1030E6E6F6F6BF2
:1020480054EC17F00101680501E1FF0C54EC17F09E
:102058001DC070F11EC071F11FC072F120C073F174
:10206800900E0101705FD00E715B030E725B000E63
:10207800735B0001FF6BE3897FD054EC17F01DC040
:1020880074F11EC075F11FC076F120C077F101010F
:102098007051745D696F715175596A6F72517659D3
:1020A8006B6F735177596C6F6C5107E1910E695DD5
:1020B800D00E6A59030E6B5959E374C170F175C19A
:1020C80071F176C172F177C173F16F076F2954E12D
:1020D800010E6F6F6E076E2903E10001E399FF0C93
:1020E8000001E66B380EE625D96EDA6A010EDA22AF
:1020F800810EDF6EE62B380EE625D96EDA6A010E00
:10210800DA22FBC0DFFFE62B380EE625D96EDA6A45
:10211800010EDA22E2C0DFFFE62B380EE625D96E83
:10212800DA6A010EDA22AA0EDF6EE62B0101786B5D
:102138007851FD0FD96EDA6A380E0001E625E16E96
:10214800E26A010EE222DFCFE7FFE62B0101782BDE
:102158007851EEE0EBC08FF0ECC090F00001916B8D
:10216800926B010E936F946B95EC12F0E8EC1AF0F9
:102178000009D8A4EEEC1AF00001E3B97ED76DC1CE
:10218800FFF0E05112000001746F82D08C96040EAB
:102198001E6E550ED6EC19F0800E1E6E450ED6EC4E
:1021A80019F0600E1E6E1B0ED6EC19F0800E1E6E16
:1021B8006B0ED6EC19F0010C8C8654EC17F01DC090
:1021C80075F01EC076F01FC077F020C078F054EC90
:1021D80017F01DC07AF01EC07BF01FC07CF020C035
:1021E8007DF075517A5F76517B5B77517C5B7851D6
:1021F8007D5B7D517C1105E1A90E7A5D610E7B59ED
:1022080008E388EC0DF03B0E216E3D0ED6EC16F07F
:1022180007D0620E94EC19F00001796F79ADD7D729
:1022280054EC17F01DC07AF01EC07BF01FC07CF084
:1022380020C07DF075517A5F76517B5B77517C5B6E
:1022480078517D5B7D517C1105E1A90E7A5D610EA7
:102258007B5908E388EC0DF03B0E216E3D0ED6EC61
:1022680016F00CD0020E1F6E0F0E1E6E02EC17F049
:102278000001796F7951E00BA00AD2E1040E1E6EBD
:102288006D0ED6EC19F01E6A6D0ED6EC19F0010C25
:10229800745101E17BD7FF0A8FE0000C040E636FD5
:1022A80063C060F0030E601762E16351606F616B99
:1022B800030E6027000E612361BF06D0615157E10C
:1022C800280E605DD8B053D063512424606F000E8F
:1022D8002520616F030E6025D96E000E6121DA6E2C
:1022E800DF50626F6251040D130EF324D96E010E94
:1022F800F420DA6E62C0DFFF63512424D96E000E29
:102308002520DA6E6251040D100EF324E16E010EE1
:10231800F420E26EDFCFE7FF63512424606F000EE4
:102328002520616F6029D96E000E6121DA6E625135
:10233800040D110EF324E16E010EF420E26EDFCFDE
:10234800E7FF63512424606F000E2520616F020EA1
:102358006025D96E000E6121DA6E6251040D120EED
:10236800F324E16E010EF420E26EDFCFE7FF632B6A
:10237800270E636595D7A6EC16F012001D500001D4
:10238800606F1E50616F626B636BD00E6003F3CF9A
:1023980064F0F4CF65F0666B676B6103F3506527F3
:1023A800F4506623000E6723070E6003F350652779
:1023B800F4506623000E6723D00E6203F35066279D
:1023C800F4506723070E6103F3506627F450672320
:1023D800000E6003F3506627F4506723D00E6303A2
:1023E800F3506727070E6203F3506727000E610357
:1023F800F3506727000E6003F350672764C01FF08F
:1024080065C020F066C021F067C022F0560E1F2676
:10241800FF0E20222122222222BE12002250211049
:1024280020100CE1C40E1F5CD8A0120007D000F0E9
:10243800D90E1F26FF0E20222122222222BE1200A0
:10244800225021102010F3E11F04D8B0F0D7120059
:102458000150036E0250046E056A066AD00E03022C
:10246800F3CF07F0F4CF08F0096A0A6A0402F350C0
:102478000826F4500922000E0A22070E0302F35020
:102488000826F4500922000E0A22D00E0502F35045
:102498000926F4500A22070E0402F3500926F450C4
:1024A8000A22000E0302F3500926F4500A22D00E25
:1024B8000602F3500A26070E0502F3500A26000EFC
:1024C8000402F3500A26000E0302F3500A2607C03E
:1024D8000BF008C00CF009C00DF00AC00EF0560E43
:1024E8000B26FF0E0C220D220E220EBE12000E50DD
:1024F8000D100C100CE1C40E0B5CD8A0120007D014
:1025080000F0D90E0B26FF0E0C220D220E220EBE55
:1025180012000E500D100C10F3E10B04D8B0F0D7D8
:102528001200976F986B935103E0956B952B02D02F
:102538000001956B98519519FC0B9519986F975157
:1025480003E1956B952B02D00001956B953B954760
:1025580098519519DF0B9519986F97B102D09895F6
:1025680002D00001988594B102D0989702D000015A
:1025780098879C6B9751010ED8B4000E9B6F9751AA
:1025880003E1956B952B02D00001956B953B954720
:10259800954798519519BF0B9519986F988F91C0C9
:1025A80099F092C09AF08FC09DF090C09EF020EEF6
:1025B80098F000EE74F0060EDBCFEBFFE806FCE2C5
:1025C800380E7B6F010E7C6FE6C07DF0EFEC0BF0F0
:1025D8000001966FE66B96511200E66BA8C0D9FF12
:1025E800A9C0DAFF380EE625E16EE26A010EE222A2
:1025F800DFCFE7FFE62B20EE01F0A851D926A9513D
:10260800DA22380EE625E16EE26A010EE222DFCF19
:10261800E7FFE62B20EE02F0A851D926A951DA22CD
:10262800380EE625E16EE26A010EE222DFCFE7FF0F
:10263800E62B030EAB6FAB51A525D96E000EA62174
:10264800DA6E380EE625E16EE26A010EE222DFCF8D
:10265800E7FFE62BAB2B270EAB65EDD7A36BA75196
:1026680032EC19F00001AA6FAA51D8B4B3EC1AF0F1
:102678000001AA511200000EF0B6010E0001606FB1
:10268800F0968C9A050ED1EC1AF0000ED1EC1AF0E7
:102698000001616F8C8AF8EC1AF0000161B1F1D782
:1026A8008C9A060ED1EC1AF08C8AF8EC1AF08C9AF7
:1026B800020ED1EC1AF02150D1EC1AF02050D1ECD6
:1026C8001AF00001616B1AD01EC0D9FF1FC0DAFFD3
:1026D800DF50D1EC1AF01E4A1F2A2206D8A0230682
:1026E8000001612B61512024246E3F0E241606E15F
:1026F8008C8A61512026000E2122C3D72250231034
:10270800E3E18C8A60B102D0F09601D0F086120025
:10271800216A41D021500E0D0C0EF324D96E030E00
:10272800F420DA6E0301DFAE35D021500E0D040E11
:10273800F324D96E030EF420DA6E10EE01F01D506A
:10274800E1261E50E222DE50E61824E121500E0D4B
:10275800050EF324D96E030EF420DA6E10EE02F0A3
:102768001D50E1261E50E222DE50E61813E12150EA
:102778000E0D060EF324D96E030EF420DA6E10EE59
:1027880003F01D50E1261E50E222DE50E61802E159
:1027980021501200212A4150215CBCE341502118EC
:1027A800D8B4FF0E120081B010D00001E45144E10A
:1027B800010EE46F54EC17F01DC000F11EC001F1CA
:1027C8001FC002F120C003F1010C81B410D0000138
:1027D800E45132E1010EE46F54EC17F01DC000F132
:1027E8001EC001F11FC002F120C003F1020C54EC1D
:1027F80017F01DC069F01EC06AF01FC06BF020C042
:102808006CF0010100510001695D656F0101015122
:1028180000016A59666F0101025100016B59676F27
:102828000101035100016C59686F6851671103E198
:10283800400E665DD8B0E46B000C01016C6F0001BE
:10284800EA6BEBC08FF0ECC090F0040E916F030EB2
:10285800926F010E936F6CC194F0000E95EC12F01C
:1028680054EC17F01DC06DF11EC06EF11FC06FF162
:1028780020C070F124D054EC17F01DC071F11EC0B7
:1028880072F11FC073F120C074F1E8EC1AF0010175
:102898006D51715D686F6E517259696F6F517359DF
:1028A8006A6F705174596B6F6B516A1105E1A90E0B
:1028B800685D610E695903E30001EA0503E100015F
:1028C800EA51D9E0EA511200010E226EDC6BDD6B91
:1028D8001E6A020E1D6EF30E1F6E66EC19F02216AC
:1028E8001E6A010E1D6EEF0E1F6E66EC19F02216A1
:1028F8001E6A010E1D6EED0E1F6E66EC19F0221693
:102908001E6A8C0E1D6E3F0E1F6E66EC19F02216A5
:102918001E6A040E1D6EF50E1F6E66EC19F0221667
:102928001E6A010E1D6EF10E1F6E66EC19F022165E
:102938001E6A010E1D6EF70E1F6E66EC19F0221648
:102948001E6A010E1D6EF90E1F6E66EC19F0221636
:1029580012007B0ED36EC090F26A550EA76EAA0EB7
:10296800A76E0E01FF91040EE76F130EF66F050EAA
:10297800D76F550EA76EAA0EA76EFF810F01486983
:102988003F0E496FF19E92689368946895689668BF
:10299800896A8A6A8C6A8D6A95948C84949C8B9CCB
:1029A800938093849294929693968A86959E8C8E21
:1029B8009382938A949E9398C00EC76E210EC66E1A
:1029C80095968C86F19A94948B84959A8C8AF28E3B
:1029D800F090F08617EC18F012000101686F38D0FB
:1029E8000001E3A30FD0000E1E6E030E1F6E3FC042
:1029F80020F040C021F0236A8C0E226E3FEC13F0C9
:102A08000001E393000EC7EC10F00009D8B41200DF
:102A18000001E3811200FF0EC7EC10F00009D8B4E2
:102A280012000001E3911200FF0EC7EC10F000093C
:102A3800D8B412000001E39172EC16F00009D8B482
:102A4800120002D094EC09F00001E3A51200FAD7B5
:102A58006851C6E0010ADFE0030AD8A41200E4D7EF
:102A6800256A2550235C0001606F000E2458616FB1
:102A7800070E60251E6E000E61211F6E2550FA0F8D
:102A8800206E010E216E5AEC18F0252A020E2564DC
:102A9800E8D720EE04F02350D9262450DA22DF6844
:102AA80020EE03F02350D9262450DA22FE0EDF6EE2
:102AB800256A2550235C0001606F000E2458616F61
:102AC800020E60251E6E000E61211F6E2550FD0F3F
:102AD800206E010E216E5AEC18F0252A020E25648C
:102AE800E8D7020C796F600E236E010E246E34EC69
:102AF80015F00101795103E0010E81EF0EF0899480
:102B08008996000E81EC0EF0190E7DEC19F0000983
:102B180001E1190C000E15EC19F0000E00018B6F85
:102B2800190EBAEC18F00101686B1FEC10F02D6E4D
:102B38002D2807E0010E00018B6F190EBAEC18F072
:102B4800436A430E1E6E1F6AF7C020F0F8C021F0DA
:102B5800236A010E226E3FEC13F0FF0E36EC16F0DE
:102B68008984BDEF1AF02650275C04E32A502B5CB9
:102B7800D8B0120071B0FED72650275C15E2275056
:102B8800C70FD96EDA6ADF50756E272A26502718C4
:102B9800D8A412002A50D8A412007184010E026E23
:102BA8002C0E016E2CEF12F02A502B5CD8B01200BC
:102BB8008A0E2B24D96EDA6A020EDA22DF5008E177
:102BC8008A0E2B24D96EDA6A020EDA22200EDF6E04
:102BD8008A0E2B24D96EDA6A020EDA22DF50756E5D
:102BE8002B2A2A502B18D7D703EE00F08C0EEE6A4A
:102BF800E806FDE102EE00F0AB0EEE6AE806FDE144
:102C080001EE00F0680EEE6AE806FDE100EEB9F0AC
:102C1800440EEE6AE806FDE100EE26F01C0EEE6AB0
:102C2800E806FDE1F40EF66E350EF76E000EF86E4E
:102C38000900F5CFFDF00900F5CFFEF00900F5CF4A
:102C4800FFF0F70EF66E350EF76E000EF86E0900FF
:102C5800F5CF42F00900F5CF43F0000EF86E000101
:102C680035EF1AF01D6E0A0E1D6405D01F6A1F2A63
:102C7800070E1F64FCD70A0E1D6016D01D500E0DDE
:102C88000C0EF324D96E030EF420DA6E0301DFAEC6
:102C980012001F6A1F2A070E1F64FCD71F6A1F2A0B
:102CA8001F50D8A41200FBD71F6A1F500E0D0C0E20
:102CB800F324D96E030EF420DA6E0301DFAE09D0D7
:102CC8001E6A1E2A070E1E64FCD71E6A1E2A1E5084
:102CD800FDE01F2A090E1F64E8D7090CE6C09FF023
:102CE80038C1A0F00001E66B380EE625D96EDA6A25
:102CF800010EDA22040EDF6EE62BEBC08FF0ECC07B
:102D080090F0040E916F030E926F010E936F000EF8
:102D1800946B95EC12F0000910E0E38554EC17F081
:102D28001DC0C3F01EC0C4F01FC0C5F020C0C6F04F
:102D3800A0C038F19FC0E6F0010CA0C038F19FC0D8
:102D4800E6F0000C4350D8A41200236A17D0235091
:102D5800040D100EF324D96E010EF420DA6E010171
:102D68006051DE180AE12350040D110EF324D96EC8
:102D7800010EF420DA6EDE5000D0232A2C501D6E8E
:102D88001E6A1D2A000E1E2223501F6E206A1D5027
:102D98001F5C2050800A216E1E50800A2158D8B02E
:102DA8001200D5D7226E2250D96EDA6ADF503D6EF6
:102DB8002250D96EDA6AD92ADF503E6E2150D96E78
:102DC800DA6ADF503B6E2150D96EDA6AD92ADF50B1
:102DD8003C6E3DC01EF0070ED6EC19F03EC01EF04A
:102DE800090ED6EC19F03BC01EF0030ED6EC19F014
:102DF8003CC01EF0050ED6EC19F01200000EF0B61D
:102E0800010E236EF0968A961EC020F01FC021F096
:102E1800D89021322032D89021322032D8902132D5
:102E2800203220507F0B8009D1EC1AF01E38E8467A
:102E3800E00BD1EC1AF0000ED1EC1AF0226E8A8663
:102E480023B002D0F09601D0F08622501200000E76
:102E5800F0B6010E076EF0968A9602C004F003C021
:102E680005F0D89005320432D89005320432D89053
:102E78000532043204507F0B8009D9EC1AF002386D
:102E8800E846E00BD9EC1AF0000ED9EC1AF0066E01
:102E98008A8607B002D0F09601D0F086065012005C
:102EA8009D900001636B646B606BCECF61F0CFCFF8
:102EB80062F0612909E16229D8A406D0602B600577
:102EC800216E020E2164F1D79EA004D0632B2E2818
:102ED800D8B4642B2E5063272F5064279D8061C07F
:102EE8001DF062C01EF063C01FF064C020F0120025
:102EF800000EF0B6010E236EF0968A961EC021F0E1
:102F08001FC022F0D89022322132D89022322132AA
:102F1800D8902232213221507F0B8009D1EC1AF04F
:102F28001E38E846E00B1009D1EC1AF02050D1EC1D
:102F38001AF08A8623B002D0F09601D0F0861200EB
:102F4800000EF0B6010E246EF0968C9A030ED1ECAA
:102F58001AF02150D1EC1AF02050D1EC1AF00DD013
:102F6800000ED1EC1AF01EC0D9FF1FC0DAFFDF6EC9
:102F78001E4A1F2A2206D8A0230622502310F0E159
:102F88008C8A24B002D0F09601D0F08612001D6A17
:102F98001E6A1E500E0D040EF324D96E030EF42083
:102FA800DA6EDF5014E11E500E0D050EF324D96EB3
:102FB800030EF420DA6EDF500AE11E500E0D060EE5
:102FC800F324D96E030EF420DA6EDF50D8A41D2A3C
:102FD8001E2A090E1E64DDD71D501200226A236ABC
:102FE8001F5020101BE0010E216E04D0D8901F3610
:102FF8002036212A20AEFAD7D890223623361F5001
:103008001D5C20501E5805E31F501D5E20501E5A9F
:103018002280D89020321F32212EEED722C01DF0F8
:1030280023C01EF01200530E9512A49E736AF00E70
:10303800746E280E726E716AA38EF28EF28C010E77
:103048001E6E2C0E1D6EC2EC11F07C0E0001C76FB7
:10305800810EC86FC96B1D6A030EA8EC1AF01E6AB0
:10306800C80E1D6EC2EC11F01200256E80EC1AF02D
:103078008A0E0001646F020E656FB30E666FFF0E55
:10308800676F25C068F0696BC6EC00F09A0E646F34
:10309800020E656FA20E666FFF0E676F87C068F03D
:1030A800696BC6EC00F09BEC1AF01200000EF2BE41
:1030B800010E226EF29E8B94030ED1EC1AF0205072
:1030C800D1EC1AF00BD0000ED1EC1AF01EC0D9FFCB
:1030D8001FC0DAFFDF6E1E4A1F2A21062150F3E1C6
:1030E8008B8422B002D0F29E01D0F28E120080ECC6
:1030F8001AF08A0E0001646F020E656F87C066F0D1
:1031080088C067F089C068F0696BC6EC00F09BEC7A
:103118001AF08A51D8B41200256A1E6AFA0E1D6E7A
:10312800C2EC11F0252A070E2564F7D7070C256E87
:103138000A0E2564000C1A0E256401D0000C25C067
:10314800E1F0020E1F6E1E6A2550100DF350500F4D
:103158000309206E7CEC17F0040E1E6E6D0ED6EC83
:1031680019F01E6A6D0ED6EC19F0010C8C6F8B519C
:103178000BE14E0E876FFE0E886F8CC089F0010E32
:103188008A6F7BEC18F00AD0AD0E876FFE0E886F41
:103198008CC089F0010E8A6F7BEC18F0030E1E6E4E
:1031A800E80E1D6EC2EC11F012006251631117E0B7
:1031B800010E246E04D0D89062376337242A63AF97
:1031C800FAD76251605D6351615904E36251605FEF
:1031D8006351615BD89063336233242EF2D760C0A9
:1031E80060F061C061F0120074C0D7F075C0D8F00B
:1031F80076C0D9F0D6CF28F00B0EE16F88EC0DF031
:10320800296A0001776B7751450D000EF324D96EBA
:10321800020EF420DA6EDF6A772B010E7765F3D79A
:10322800010C0001626F030E626501D0030C62C0DD
:10323800FFF0FFC025F0253AF00E2516E2510F0BDE
:103248002510E26FFF0E1E6E1F6AEDC020F0EEC063
:1032580021F0236A010E226E3FEF13F0A46FA451F0
:103268000E0D0C0EF324D96E030EF420DA6E030152
:10327800DFAE000C0001A4510E0D040EF3249F6F65
:10328800030EF420A06F010EA16FA3C0A2F055EFAA
:103298001AF0E66B380EE625D96EDA6A010EDA22E4
:1032A800DA0EDF6EE62BEBC08FF0ECC090F09FC01B
:1032B80091F0A0C092F0010E936F000E946B95EC04
:1032C80012F012001D50DC25206E1E50DD21216EEB
:1032D8002004800E215801E3000C1F50D96EDA6AD1
:1032E800DCC0DEFFDDC0DDFF1D50DC271E50DD2306
:1032F800010C626F246A62519BEC18F000090FE020
:1033080062C0FBF0FB0E1E6E1F6AEFC020F0F0C01B
:1033180021F0236A010E226E3FEC13F0010C000C21
:103328001E6E000EF0B6010E206EF0968A961E50A4
:10333800D1EC1AF0000ED1EC1AF01F6E8A8620B07C
:1033480002D0F09601D0F0861F501200236A235055
:103358001F24D96E000E2020DA6E23501D24E16E42
:10336800000E1E20E26EDE50E61801E0000C232A53
:10337800070E2364ECD7010C026E000EF0B6010EA6
:10338800046EF0968A960250D9EC1AF0000ED9EC29
:103398001AF0036E8A8604B002D0F09601D0F08647
:1033A800035012001F6E000EF0B6010E206EF0964C
:1033B8008A961F50D1EC1AF01E50D1EC1AF08A866A
:1033C80020B002D0F09601D0F0861200036E000EF5
:1033D800F0B6010E046EF0968A960350D9EC1AF0F6
:1033E8000250D9EC1AF08A8604B002D0F09601D0C7
:1033F800F0861200E90E0001876FFE0E886F896B58
:103408008A6B7BEC18F0D7EC13F08B6F8B0501E11E
:10341800000C020E8B19F7E1010C1D501F02F3CFAF
:1034280021F0F4CF22F01D502002F35022261E5026
:103438001F02F350222621C01DF022C01EF01200E8
:103448008E0E0001876FFE0E886F896B010E8A6FE2
:103458007BEC18F0050E1E6EDC0E1D6EC2EC11F032
:103468001200ADEC14F064EC1AF024EC1AF0FEEC47
:1034780019F00101856F855176EC15F0F3EC1AF01F
:10348800FDD700018B6F8B5104E02D0E876FFE0E68
:1034980003D06E0E876FFE0E886F896B8A6B7BEF89
:1034A80018F0EBC08FF0ECC090F09FC091F0A0C076
:1034B80092F0000E936BA2C094F095EC12F01200FB
:1034C800380ECD6E9A6ACF6ACE6ACECFDEF0CFCFF5
:1034D800DFF09E909D80F6EC1AF012001F6E1E6AB7
:1034E8003A0E1F6005D02F0E1F6402D0010E1E6E0B
:1034F8001EC01DF01D3012001D6A8A0E1D24D96ED3
:10350800DA6A020EDA22200EDF6E1D2A1F0E1D64F3
:10351800F4D71F0C020E4260020C4250450D000EFB
:10352800F324D96E020EF420DA6EDF6A000C7C0EEA
:10353800C76F320EC86FC96B200ECA6F200E1D6E82
:10354800040EA8EC1AF012001E6E71B4FED7276A9A
:103558002B6A1EC026F01DC02AF071801200C40E0E
:10356800876FFF0E886F896B010E8A6F7BEC18F0EE
:103578001200CC0E0001876FFE0E886F896B8A6B74
:103588007BEC18F01200A4AE1200A49EB7EC15F064
:10359800026A050E016E2CEF12F01D6EC69E1DC04C
:1035A800C9FFC7A0FED7C9501200016EC69E01C050
:1035B800C9FFC7A0FED7C9501200896F88C087F01D
:1035C800895139EC18F0120094EC09F00001E3B7C6
:1035D800010C000C0001E3978EEC1AF0120059EC74
:1035E80004F01200CD80120000F01200010103FF68
:0435F80001001200BC
:10FD90000020B2202020B22020B220B2202020203B
:10FDA00020B220B20D0AB220B220B220B220202010
:10FDB000B22020B22020B220200D0AB22020B22092
:10FDC00020B220B220B22020B22020B220B20D0AF0
:10FDD000B22020B22020B220B22020B220B220B225
:10FDE0002020B20D0AB22020B22020B220B2202062
:10FDF00020B220B2202020B20D0A20202020202076
:10FE0000202020202020202020202020200D0A013A
:10FE1000000800400000020010008001000A006499
:10FE200000E80310270100100000010010504320DB
:10FE30003A524230206F72205242322020746F209A
:10FE400042726F616463617374206D736700436F06
:10FE50006E6E656374696E67205065657220206FF1
:10FE60006E204368616E6E656C20256420005242EE
:10FE700030203A20556E696361737420202052420D
:10FE800032203A204E657874204E6F6465005369C5
:10FE90006D706C65205354415220202020204D521B
:10FEA0004632344A3430204E6F6465310020436F4F
:10FEB0006E6E6563746564205065657220206F6E98
:10FEC000204368616E6E656C202564005242303AB2
:10FED0002042726F61646361737420205242323A2F
:10FEE00020556E6963617374005242303A4E6577F3
:10FEF000204E6574776F726B205242323A467265BB
:10FF0000657A6572005242303A253032642D2530D0
:10FF1000327825303278253032782D6D65005242A6
:10FF2000303A253032642D2530327825303278252C
:10FF30003032780020416464726573733A25303240
:10FF400078253032782530327800446174615F530F
:10FF5000656E64696E675F4661696C2121003031AE
:10FF60003233343536373839414243444546003020
:10FF7000313233343536373839616263646566004F
:10FF80005242323A204368616E6765206E6F646545
:10FF90000044617461205061636B65742066726F08
:10FFA0006D005258204D657373616765733A202563
:10FFB0003364005458204D657373616765733A204C
:10FFC0002533640020556E6963617374204661694E
:10FFD0006C656400536C656570696E672121210052
:10FFE000576F6B6520557021212100536C6565703A
:08FFF000696E67212100000089
:08FFF800ACF6D8FFFFF9FFF1A0
:00000001FF
