:04000000C6EF00F057
:100008004382D9CF14F0DACF15F0F3CF16F0F4CF3E
:1000180017F0F0B6F0A0A2D0F090620E6CEC15F0DC
:10002800196E19A00FD0349034BC349C0001E06BD9
:10003800E16B34A207D0480E6CEC15F0186E18B0BE
:100048003484349219A683D01B681C6A1C50450D51
:10005800000EF324D96E010EF420DA6EDF5003E1AE
:100068001CC01BF004D01C2A010E1C64EFD7020E22
:100078001B6068D0040E026E730EAAEC15F01B50BC
:10008800450D000EF324D96E010EF420DA6E030E2E
:10009800036E026AE7EC12F0020FDF6E1B50450D8B
:1000A800000EF324D96E010EF420DA6E440EDF60E0
:1000B8003FD0348A010E1C6E1AD01B50450D000E1D
:1000C8000F6E010E106EF3500F26F45010221C50C4
:1000D8000F24D96E000E1020DA6E000E1C24026E5A
:1000E800036A030E0322E7EC12F0DF6E1C2A1C5091
:1000F8000F6E106A1B50450D000EF324D96E010EC9
:10010800F420DA6EDF50116E126A020E1126000E0C
:1001180012220F50115C1250800A136E1050800A80
:100128001358CBE2010E026E1B0EAAEC15F005D097
:10013800010E026E1B0EAAEC15F0026A730EAAECF1
:1001480015F005D0010E026E1B0EAAEC15F019A8C9
:1001580005D0800E026E590EAAEC15F09EB09DA037
:1001680005D09E90392A395001E13A2A89EC16F0D7
:1001780017C0F4FF16C0F3FF15C0DAFF14C0D9FF8B
:100188004392110026EF12F0680E7E6F7FD3250E82
:10019800841909E064C0D9FF65C0DAFF84C0DFFFB5
:1001A800644B652B73D3826B836B856B866B09D02D
:1001B800858705D0858103D0868701D08585664BE4
:1001C800672B66C0F6FF67C0F7FF0800F550200AE6
:1001D800F1E0030AF1E00E0AEBE01D0AEFE085B753
:1001E800859566C0F6FF67C0F7FF0800F55032EC4A
:1001F80016F030E30001826B836B82C01DF083C070
:100208001EF0206A0A0E1F6EE4EC15F01DC082F085
:100218001EC083F0D00E0001706F716966C0F6FFD2
:1002280067C0F7FF0800F550726F736B7051722743
:10023800715173237251822773518323664B672B45
:1002480066C0F6FF67C0F7FF0800F55032EC16F0FD
:1002580015E3D3D766C0F6FF67C0F7FF0800F5506F
:100268002A0A0CE100017E51D96EDA6ADECF82F0EB
:10027800DDCF83F0020E7E27664B672B66C0F6FF44
:1002880067C0F7FF0800F5502E0A32E10001868D9D
:10029800664B672B66C0F6FF67C0F7FF0800F5508E
:1002A8002A0A0AE17E51D96EDA6ADF50816F020E9E
:1002B8007E27664B672B8CD0816B10D066C0F6FF0B
:1002C80067C0F7FF0800F5CF70F0000181510A0DF3
:1002D800F3507025D00F816F664B672B66C0F6FF11
:1002E80067C0F7FF0800F55032EC16F071E3E6D767
:1002F8000001816B6DD0858D89D0858B858F86D0E7
:1003080081510FE081C070F0716B70BF71077C5133
:10031800705D7D51715905E281517C6F7D6B7CBFA9
:100328007D0782517C5D83517D5905E27C51825F56
:100338007D51835B02D0826B836B85B71DD008D05B
:1003480064C0D9FF65C0DAFF200EDF6E644B652BF1
:100358008207D8A083078229F3E183290DE0F0D72B
:100368007B51D96EDA6A64C0E1FF65C0E2FFDFCF76
:10037800E7FF7B2B644B652B7C07D8A07D077C2986
:10038800EFE17D29EDE185A781D208D064C0D9FFCE
:1003980065C0DAFF200EDF6E644B652B8207D8A09C
:1003A80083078229F3E1832901E170D2EFD77E51D7
:1003B800D96EDA6ADF50846F020E7E27840E7B6F57
:1003C800000E7D6F010E7C6F9BD7C00E85131ED06B
:1003D80066C0F6FF67C0F7FF0001664B672B080091
:1003E800F5CF84F0845101E15DD2580A86E03B0ADA
:1003F800DEE0070A0BE00D0A09E0060A01E17BD7F7
:100408001A0AE3E00D0A01E179D7D8D785C070F060
:10041800C00E701712E17E51D96EDA6ADECF7FF016
:10042800DDCF80F0020E7E2780AF10D0030E85133B
:100438007F6D801FD8B0802B09D07E51D96EDA6AC3
:10044800DECF7FF0DDCF80F0020E7E27815147E1BD
:100458007F51801144E1812B42D0010E846F050E3B
:10046800841946E08451020D670EF324F66EFE0EE1
:10047800F420F76E0900F5507F5D0900F5508059AA
:1004880037E3842BECD7010E846F040E841930E017
:100498008451020D710EF324F66EFE0EF420F76EF1
:1004A8000900F5507F5D0900F550805921E3842B40
:1004B800ECD7010E846F060E84191AE08451020DE0
:1004C8005B0EF324F66EFE0EF420F76E0900F5506D
:1004D8007F5D0900F55080590BE3842BECD78551DB
:1004E800C00BBBE0400AE5E0C00ACDE0400AB5E039
:1004F8008451800A706F8151800A705D03E281C067
:1005080084F009D08151800A706F8451800A705D2F
:1005180002E284C081F08251831108E085C070F046
:10052800030E701703E08207D8A0830786AD13D0A7
:10053800800E81BF7F0E706F8251815D8351800A6A
:10054800705907E28151825F000E81BFFF0E835B05
:1005580002D0826B836BC40E706F080E716F85C0FA
:1005680072F086C073F07051721771517317400E94
:1005780072190AE1080E731907E18251831124E008
:100588008207D8A0830720D0C00E706F080E716F45
:1005980085C072F086C073F070517217715173176D
:1005A800800E721911E1080E73190EE183BF0AD08B
:1005B800835103E1030E825D05E3FE0E8227FF0EE1
:1005C800832302D0826B836B800E84BF7F0E706F93
:1005D8008251845D8351800A705907E28451825F99
:1005E800000E84BFFF0E835B02D0826B836B85A5F0
:1005F8004FD085C070F0030E701709E064C0D9FFB2
:1006080065C0DAFF2D0EDF6E644B652B31D085A1F6
:1006180006D064C0D9FF65C0DAFF200EF4D7C00E3B
:10062800706F080E716F85C072F086C073F07051DC
:10063800721771517317800E72191AE1080E731927
:1006480017E164C0D9FF65C0DAFF300EDF6E644B76
:10065800652B85BB03D0766B780E02D0766B580E6F
:10066800756F64C0D9FF65C0DAFF75C0DFFFCCD7EE
:100678008251831101E1F2D064C0D9FF65C0DAFF6D
:10068800300EDF6E644B652B8207D8A08307F0D746
:100698008251831110E085B70ED064C0D9FF65C0C0
:1006A800DAFF200EDF6E644B652B8207D8A0830724
:1006B80082518311F2E185C070F0030E701709E0D2
:1006C80064C0D9FF65C0DAFF2D0EDF6E644B652B61
:1006D80008D085A106D064C0D9FF65C0DAFF200E16
:1006E800F4D7C00E706F080E716F85C072F086C0A7
:1006F80073F07051721771517317400E72190CE133
:10070800080E731909E164C0D9FF65C0DAFF300E1D
:10071800DF6E644B652BA2D0C00E706F080E716F30
:1007280085C072F086C073F07051721771517317DB
:10073800800E72191BE1080E731901E08FD064C096
:10074800D9FF65C0DAFF300EDF6E644B652B85BBC1
:1007580003D0786B780E02D0786B580E776F64C030
:10076800D9FF65C0DAFF77C0DFFFD3D777D08151D3
:10077800020D670EF324F66EFE0EF420F76E0900E4
:10078800F5CF1FF00A00F5CF20F07FC01DF080C024
:100798001EF086EC13F01DC060F01EC061F0636BA4
:1007A8000A0E626F6EEC14F0605145D07FC01DF0E8
:1007B80080C01EF08151020D710EF324F66EFE0EFC
:1007C800F420F76E0900F5CF1FF00A00F5CF20F0EE
:1007D80086EC13F01D500F0B746F85BB04D0A40E6C
:1007E800796FFF0E03D0930E796FFF0E7A6F7451F5
:1007F8007925706F000E7A21716F70C0F6FF71C095
:10080800F7FF0800F5CF84F022D07FC01DF080C02C
:100818001EF08151020D5B0EF324F66EFE0EF420DD
:10082800F76E0900F5CF1FF00A00F5CF20F086EC2F
:1008380013F01D50070B300F846F09D08551C00B82
:1008480096E0400AE2E0C00AB1E0400A90E064C0E5
:10085800D9FF65C0DAFF84C0DFFF5BD78107812934
:10086800EDE185B783BF12D0835102E182050EE323
:1008780064C0D9FF65C0DAFF200EDF6E644B652BBC
:100888008207D8A0830782518311F2E166C0F6FF80
:1008980067C0F7FF664B672B0800F5CF84F08451DB
:1008A80001E075D464C0D9FF65C0DAFFDF6A000CC7
:1008B80081A2F08034A00BD0E15103E1400EE05D4D
:1008C80004E3E06BE16B349002D0E04BE12B42682B
:1008D800236A2350450D000EF324D96E010EF4202F
:1008E800DA6EDF5003E023C042F004D0232A010E61
:1008F8002364EFD7020E4260000C010E246E4250B2
:10090800450D010EF324D96E010EF420DA6E0101B3
:10091800DFAC246A256A2D6A4250450D020EF32485
:10092800D96E010EF420DA6EDF50CC0B226EDBD1CB
:100938004250450D060EF324D96E010EF420DA6EEE
:10094800DE280BE14250450D070EF324D96E010E47
:10095800F420DA6EDE2801E12584258E24502EE06D
:100968004250450D040EF324D96E010EF420DA6EC0
:10097800DF502E6E4250450D050EF324D96E010E40
:10098800F420DA6EDF502F6E4250450D080EF32426
:10099800266E010EF420276E4250450D000EF324FA
:1009A800D96E010EF420DA6EDF50ED0F2A6E425038
:1009B800450D100EF324286E010E34D14250450D1A
:1009C800080EF324D96E010EF420DA6EDF502E6E75
:1009D8004250450D090EF324D96E010EF420DA6E4B
:1009E800DF502F6E4250450D0A0EF324266E010E7D
:1009F800F420276E4250450D000EF324D96E010EE7
:100A0800F420DA6EDF50EB0F2A6E4250450D120EBD
:100A1800F324286E010E06D1258E24502EE0425074
:100A2800450D040EF324D96E010EF420DA6EDF5062
:100A38002E6E4250450D050EF324D96E010EF4209A
:100A4800DA6EDF502F6E4250450D0E0EF324266EDF
:100A5800010EF420276E4250450D000EF324D96E86
:100A6800010EF420DA6EDF50E70F2A6E4250450D72
:100A7800160EF324286E010ED5D04250450D0E0EE9
:100A8800F324D96E010EF420DA6EDF502E6E425038
:100A9800450D0F0EF324D96E010EF420DA6EDF50E7
:100AA8002F6E4250450D100EF324266E010EF420D1
:100AB800276E4250450D000EF324D96E010EF42026
:100AC800DA6EDF50E50F2A6E4250450D180EF324FA
:100AD800286E010EA7D02584258E010E2D6E42505A
:100AE800450D040EF324D96E010EF420DA6EDF50A2
:100AF8002E6E4250450D050EF324D96E010EF420DA
:100B0800DA6EDF502F6E4250450D060EF324266E26
:100B1800010EF420276E4250450D000EF324D96EC5
:100B2800010EF420DA6EDF50F50F2A6E4250450DA3
:100B3800080EF324286E010E75D04250450D060E9E
:100B4800F324D96E010EF420DA6EDE280BE1425050
:100B5800450D070EF324D96E010EF420DA6EDE2857
:100B680001E12584258E010E2D6E24502EE1425080
:100B7800450D080EF324D96E010EF420DA6EDF500D
:100B88002E6E4250450D090EF324D96E010EF42045
:100B9800DA6EDF502F6E4250450D0A0EF324266E92
:100BA800010EF420276E4250450D000EF324D96E35
:100BB800010EF420DA6EDF50F10F2A6E4250450D17
:100BC8000C0EF324286E010E2DD04250450D040E54
:100BD800F324D96E010EF420DA6EDF502E6E4250E7
:100BE800450D050EF324D96E010EF420DA6EDF50A0
:100BF8002F6E4250450D080EF324266E010EF42088
:100C0800276E4250450D000EF324D96E010EF420D4
:100C1800DA6EDF50F30F2A6E4250450D0A0EF324A8
:100C2800286E010EF420296E70D0258E010E2D6ECF
:100C380024501BE04250450D040EF324D96E010EDA
:100C4800F420DA6EDF502E6E4250450D050EF32467
:100C5800D96E010EF420DA6EDF502F6E4250450D2A
:100C68000D0EF324266E010E95D64250450D0D0E3D
:100C7800F324D96E010EF420DA6EDF502E6E425046
:100C8800450D0E0EF324D96E010EF420DA6EDF50F6
:100C98002F6E4250450D0F0EF324266E010EA8D676
:100CA8004250450D060EF324D96E010EF420DA6E7B
:100CB800DE280BE14250450D070EF324D96E010ED4
:100CC800F420DA6EDE2801E125844250450D000E3D
:100CD800F324D96E010EF420DA6EDF50F60F25D713
:100CE8005BEC16F0000C2250080ADAE0880A01E1F1
:100CF800F2D6080A01E121D7040A97E0440A01E183
:100D080017D6040A01E188D6EBD74250450D010EEB
:100D1800F324D96E010EF420DA6EDFA60CD0E0D7EA
:100D2800FC0E25161DD02550FC0B0109256E18D088
:100D3800030E251215D04250450D010EF324D96E2D
:100D4800010EF420DA6EDF50070B1D6E1E6A1E506E
:100D5800C7E11D50EDE0010AE3E0020AE4E0C0D774
:100D68004250450D000EF324D96E010EF420DA6EC0
:100D7800DF501D6E4250450D1E681F68000E206E24
:100D8800010E216E1E5020261F502122F3502026CE
:100D9800F45021221D502024D96E000E2120DA6E35
:100DA800DF502C6E4250450D000EF324D96E010E13
:100DB800F420DA6EDF501D6E4250450D000E1E6E97
:100DC800010E1F6EF3501E26F4501F221D501E24C4
:100DD800D96E000E1F20DA6EDF502B6E010C000159
:100DE800E9A32DD05FEC13F01DC0A4F01EC0A5F040
:100DF8001FC0A6F020C0A7F0D951A45DA06FDA519A
:100E0800A559A16FDB51A659A26FDC51A759A36F51
:100E1800A35107E1910EA05DD00EA159030EA2596E
:100E28000EE3E993000E1E6E020E1F6E3FC020F007
:100E380040C021F0236AC80E226E4AEC10F000016F
:100E4800E9B712005CEC04F00009D8B41200000104
:100E5800C76B25A403D0A06BA02B02D00001A06B08
:100E6800C751A019FC0BA019C76F25A602D0C787C8
:100E780002D00001C7972550030BE80603E1A06BD9
:100E8800A02B02D00001A06BA03BA047C751A0191E
:100E9800DF0BA019C76F25AE02D0C78D02D00001A5
:100EA800C79D25AE04D026C0CAF027C0CBF02EC0FF
:100EB800C8F02FC0C9F02AC0CEF028C0CCF029C095
:100EC800CDF02CC0D0F02BC0CFF0C7ABE1D1CCD146
:100ED80020EE01F0CC51D926CD51DA22FB51DE1893
:100EE80003E05BEC16F0D5D1030EFE19FAE0C82931
:100EF80002E1C9290BE0EF51C81903E1F051C91902
:100F080005E0020ECE6502D0F20E02D0DBEC0DF049
:100F1800AA6FFE0507E1AA0505E0020EAA1902E07C
:100F2800F30EAA6FEB6B8A0EEB25D96EDA6A010E07
:100F3800DA22910EDF6EEB2B8A0EEB25D96EDA6A78
:100F4800010EDA22AAC0DFFFEB2B8A0EEB25D96E41
:100F5800DA6A010EDA22E7C0DFFFEB2BAA5102E0C2
:100F6800AA051AE18A0EEB25D96EDA6A010EDA2291
:100F7800E8C0DFFFEB2BAB6BAB51FC0FD96EDA6A25
:100F88008A0EEB25E16EE26A010EE222DFCFE7FF6F
:100F9800EB2BAB2BAB51F0E05BEC16F0C8C090F03C
:100FA800C9C091F0CAC092F0CBC093F0010E000105
:100FB800946F000EC7B7010E956F000EEDEC0FF0A1
:100FC800AA518FE1E6510A0D000EF3241E6E020E9F
:100FD800F4201F6EE6510A0D3F50F324206E405056
:100FE800F420216E236A0A0E226E4AEC10F051D1C9
:100FF800020EFE6501D075D720EE01F0CC51D9263E
:10100800CD51DA22FB51DE1801E06BD7EB6B8A0E6B
:10101800EB25D96EDA6A010EDA22970EDF6EEB2B1A
:101028008A0EEB25D96EDA6A010EDA22E8C0DFFFF4
:10103800EB2BAB6BAB51FC0FD96EDA6A8A0EEB2542
:10104800E16EE26A010EE222DFCFE7FFEB2BAB2B6A
:10105800AB51F0E05BEC16F0C8C090F0C9C091F05D
:10106800CAC092F0CBC093F0010E0001946F000E3D
:10107800C7B7010E956F000EEDEC0FF00AD1EB6BC0
:101088008A0EEB25D96EDA6A010EDA22920EDF6E2D
:10109800EB2BAB6BAB510A0D080EF324D96E020E85
:1010A800F420DA6EDFAE39D0CAC01DF0CBC01EF016
:1010B8000001AB510A0D000EF3241F6E020EF4203E
:1010C800206E56EC15F0000928E0AB510A0D080E09
:1010D800F324D96E020EF420DA6EDF6AAB510A0DE2
:1010E800000EF3241E6E020EF4201F6EAB510A0D83
:1010F8003F50F324206E4050F420216E236A0A0EDC
:10110800226E4AEC10F08A0E0001EB25D96EDA6ADD
:10111800010EDA22DF6AEB2B05D00001AB2B130E90
:10112800AB65B8D75BEC16F0140E0001AB1909E1FA
:101138008A0EEB25D96EDA6A010EDA22F00EDF6E1E
:10114800EB2BC8C090F0C9C091F0CAC092F0CBC0D8
:1011580093F0010E946F000EC7B7010E956F000E45
:10116800EDEC0FF096D0EF2919E1F02917E1C8C08E
:10117800EFF0C9C0F0F0A869A969EF0E216EA80EBA
:1011880093EC12F0EF0E1E6E1F6AF7C020F0F8C045
:1011980021F0236A020E226E4AEC10F0DBEC0DF00F
:1011A800E9835FEC13F01DC0D9F01EC0DAF01FC050
:1011B800DBF020C0DCF095D620EE01F0CC51D9262A
:1011C800CD51DA22DF50CFE0010ACDE08AD6E9BB63
:1011D800E99B87D620EE01F0CC51D926CD51DA22F1
:1011E800DF5001E07ED6AB6BAB510A0D080EF3243D
:1011F800D96E020EF420DA6EDFAE30D0CAC01DF010
:10120800CBC01EF00001AB510A0D000EF3241F6E77
:10121800020EF420206E56EC15F000091FE0AB51C9
:101228000A0D080EF324D96E020EF420DA6EDF6A76
:10123800AB510A0D000EF3241E6E020EF4201F6E31
:10124800AB510A0D3F50F324206E4050F420216E1C
:10125800236A0A0E226E4AEC10F043D60001AB2B2B
:10126800130EAB65C1D73DD6CCC0D9FFCDC0DAFFD0
:10127800DF50810A01E12CD6030A01E100D7050AF3
:1012880001E1B6D6160A98E0030AA4E0050A9FE031
:10129800E9870001CE5102E0E9AB1200E9975BEF64
:1012A80016F08F6B75A502D0010E786F75B7796B44
:1012B8007551030BE80602E1030E04D07551030BC8
:1012C80002E1010E8C6F3B507A190DE13C507B19FD
:1012D8000AE13B2802E13C2806E0050E8D6F8C8D63
:1012E800010E8B6F03D0070E8D6F8B6B7851020E3A
:1012F800D8B4080E8D277951020ED8B4080E8D2760
:1013080075BB75B501D08C8B7551030B030A07E1CA
:101318008C6B070E8D6F8B6B010E796F759B1F6A37
:101328001E6A8DC020F010EC13F000018F2B8FC0C7
:101338001EF01F6A8D517E25206E10EC13F00001FF
:101348008F2B8FC01EF01F6A8CC020F010EC13F09A
:1013580000018F2B7551030B030A12E18FC01EF099
:101368001F6A800E206E10EC13F000018F2B8FC0C7
:101378001EF01F6A32C020F010EC13F0322A77D02A
:1013880078510CE079510AE08FC01EF01F6A880E70
:10139800206E10EC13F000018F2B20D078510AE05A
:1013A800795108E18FC01EF01F6AC80E206E10EC3C
:1013B80013F0F1D778510AE1790508E18FC01EF0E2
:1013C8001F6A8C0E206E10EC13F0E5D78FC01EF04C
:1013D8001F6ACC0E206E10EC13F0DDD78FC01EF004
:1013E8001F6A32C020F010EC13F0322A00018F2B54
:1013F8008FC01EF01F6A7AC020F010EC13F00001B5
:101408008F2B8FC01EF01F6A7BC020F010EC13F0EA
:1014180000018F2B75A50FD08FC01EF01F6A2068A2
:1014280010EC13F000018F2B8FC01EF01F6A20688C
:1014380010EC13F01CD078511DE08FC01EF01F6A0D
:1014480076C0D9FF77C0DAFFDF50206E10EC13F0BA
:1014580000018F2B8FC01EF01F6A20EE01F076511D
:10146800D9267751DA22DF50206E10EC13F00001F4
:101478008F2B14D08E6B8FC01EF01F6A8E5176256D
:10148800D96E000E7721DA6EDF50206E10EC13F063
:1014980000018F2B8E2B070E8E65EDD78B5112E135
:1014A8008FC01EF01F6A3BC020F010EC13F0000143
:1014B8008F2B8FC01EF01F6A3CC020F010EC13F079
:1014C80000018F2B795113E08FC01EF01F6A3DC0B9
:1014D80020F010EC13F000018F2B8FC01EF01F6A54
:1014E8003EC020F010EC13F000018F2B14D08E6B4F
:1014F8008FC01EF01F6A8E51DE25D96E000EDF21C7
:10150800DA6EDF50206E10EC13F000018F2B8E2B5B
:10151800070E8E65EDD78E6B10D08FC01EF01F6A38
:101528008E517C25D96E000E7D21DA6EDF50206E3B
:1015380010EC13F000018F2B8E2B7E518E5DEDE3A6
:10154800348075BB75B504D0050E8E6F348203D018
:10155800010E8E6F34928EC01EF0370E96EC15F089
:101568005FEC13F01DC083F01EC084F01FC085F02F
:1015780020C086F081A2F08034B004D034A4010CDD
:101588003494000C5FEC13F01DC087F01EC088F087
:101598001FC089F020C08AF08351875D7F6F845116
:1015A8008859806F85518959816F86518A59826F10
:1015B8008251811105E1110E7F5D270E8059DAE312
:1015C8000BEC0CF03B0E216E3D0E93EC12F03490B8
:1015D800000C97EC10F02AEC15F0000901E012005D
:1015E800E6EC11F00101DB6F0AD10001EB6B386A00
:1015F800140E386401D023D0060E1D6EED51BEECDA
:1016080015F0150D9B0E0001BF6FFD0EC06FF35056
:10161800BF27F450C0233850BF27000EC023BFC0D7
:10162800F6FFC0C0F7FF8A0EEB25D96EDA6A010E05
:10163800DA220800F5CFDFFFEB2B382AD9D7ED2BBC
:10164800000E24EC16F0EAC089F0EC2BEC51ACEC5F
:1016580016F0030E1E6EE80E1D6E1EEC0FF093EFD3
:1016680016F0010E0001FD6F0101DE6B010EDC6F4B
:10167800C1D040EC16F040EC16F0B20E0001646FD9
:10168800010E656F670E666FFF0E676FDEC168F04B
:10169800696B0101DE510A0D000EF324D96E020EAA
:1016A800F420DA6EDF5000016A6F6B6B0101DE51C6
:1016B8000A0D010EF324D96E020EF420DA6EDF5003
:1016C80000016C6F6D6B0101DE510A0D020EF324EF
:1016D800D96E020EF420DA6EDF5000016E6F6F6B68
:1016E800C8EC00F0C20E646F010E656FD70E666F0E
:1016F800FF0E676FC8EC00F068EC16F068EC16F0A7
:10170800010E0001FD6F73D0E6EC11F00101DD6FF1
:101718002AEC15F00101DD0549E1DC6B0001FD6BE8
:10172800EE2BEB6B386A0A0E386401D023D0060E14
:101738001D6EEE51BEEC15F00B0D190E0001BF6FBA
:10174800FE0EC06FF350BF27F450C0233850BF2798
:10175800000EC023BFC0F6FFC0C0F7FF8A0EEB25FE
:10176800D96EDA6A010EDA220800F5CFDFFFEB2B1B
:10177800382AD9D7EE2B010EA46F0101DE51C7EC30
:1017880014F0000903E17FEC16F002D00001EC2B05
:10179800EAC089F0EC51ACEC16F0030E1E6EE80EB0
:1017A8001D6E1EEC0FF093EC16F024D0020EDD191E
:1017B8001EE1DE510001BF6FC06BFE0EC16FC26932
:1017C8004150C36FC46BC151C327C251C423BF5119
:1017D800C35DC451800AC56FC051800AC55903E270
:1017E8000101DE6B02D00101DE2B0001FD6B00015F
:1017F800FD518AE10101DC0501E13BD71200DB5113
:10180800010A01E1F2D6030A01E12BD712008C9EEE
:10181800030E6A6F6B6B6C6B6D6B18D04D0E626F3D
:10182800010E636F646B656B6207000E635B645B3C
:10183800655B6229F9E16329F7E16429F5E1652926
:10184800F3E16A07000E6B5B6C5B6D5B6A516B11B1
:101858006C116D11E3E18C8E0A0E6E6F6F6B706BFD
:10186800716B18D04D0E666F010E676F686B696BF0
:101878006607000E675B685B695B6629F9E16729A3
:10188800F7E16829F5E16929F3E16E07000E6F5B5E
:10189800705B715B6E516F1170117111E3E1070E8E
:1018A8001E6E550E96EC15F0540E40EC15F0000126
:1018B800746F74C061F0070E6117F6E1726B736B99
:1018C800724B732BE80E725D030E7359F9E3010E28
:1018D8001E6E1B0E96EC15F01E68070E96EC15F0A2
:1018E8001E68090E96EC15F01E68030E96EC15F0AE
:1018F8001E68050E96EC15F00001746B7451DE2518
:10190800D96E000EDF21DA6EDF501E6E7451020DA3
:10191800F3500B0F96EC15F00001742B070E74654D
:10192800EDD7020E1F6E1E6E800E206E10EC13F0A7
:10193800020E1F6E030E1E6E206A10EC13F0020ECC
:101948001F6E060E1E6E900E206E10EC13F0020E27
:101958001F6E070E1E6E800E206E10EC13F0020E26
:101968001F6E080E1E6E100E206E10EC13F0020E85
:101978001F6E200E1E6E210E206E10EC13F0800ECE
:101988001E6E750E96EC15F0400E1E6E7D0E96ECD2
:1019980015F0600E1E6E7F0E96EC15F0980E1E6EFA
:1019A800310E96EC15F0950E1E6E5D0E96EC15F048
:1019B800020E1F6E0F0E1E6EBEEC12F00001746F49
:1019C8007451A00BA00AF4E1E60E1E6E650E96ECAB
:1019D80015F0020E1F6E1E6A030E206E10EC13F037
:1019E800020E1F6E010E1E6E020E206E10EC13F01A
:1019F800246A33502FEF14F07B6F5DEC12F0E96B23
:101A08007B5129E17F6B7F510A0D080EF324D96EB3
:101A1800020EF420DA6EDF6A7F510A0D000EF324FD
:101A2800D96E020EF420DA6EDF6A7F510A0D010EBC
:101A3800F324D96E020EF420DA6EDF6A7F510A0DA4
:101A4800020EF324D96E020EF420DA6EDF6A7F2BC1
:101A5800130E7F65D8D7EB6B7F6B7F2B130E7F65DB
:101A6800FCD77B5143E0FB0E1E6E1F6AF3C020F0CB
:101A7800F4C021F0236A010E226E38EC13F01F0E19
:101A88000001FB6501D01F0CEF0E1E6E1F6AF7C028
:101A980020F0F8C021F0236A020E226E38EC13F011
:101AA800FE0E1E6E1F6AF1C020F0F2C021F0236AFC
:101AB800010E226E38EC13F0000E1E6E020E1F6E21
:101AC8003FC020F040C021F0236AC80E226E38ECD7
:101AD80013F0410E1E6E1F6AF5C020F0F6C021F00B
:101AE800236A010E226E38EC13F035D0120EF06F17
:101AF800340EEF6FEF0E1E6E1F6AF7C020F0F8C0AD
:101B080021F0236A020E226E4AEC10F0FB0E1E6EC4
:101B18001F6AF3C020F0F4C021F0236A010E226E80
:101B28004AEC10F0FE0E1E6E1F6AF1C020F0F2C0E3
:101B380021F0236A010E226E4AEC10F0000E1E6E90
:101B4800020E1F6E3FC020F040C021F0236AC80E6D
:101B5800226E4AEC10F0D30E00017D6F010E7E6FED
:101B68007C837C51870B40097C6F7BB102D07C95CC
:101B780002D000017C857C917CC075F07DC076F038
:101B88007EC077F08DEC14F079697A69EF0E216EDA
:101B9800790E93EC12F00001FB51FBEC14F00001FC
:101BA800E86BE881FE39F00BE813F08612000001BB
:101BB800666B6769686B68510A0D080EF324D96E65
:101BC800020EF420DA6EDFAE16D0CAC01DF0CBC00C
:101BD8001EF0000168510A0D000EF3241F6E020E5C
:101BE800F420206E56EC15F000090AE068C067F092
:101BF800010E666F09D00001672902E168C067F02D
:101C0800682B130E6865D7D7672901E1F10CFE51DF
:101C180003E000016651120067C0E7F0686B685185
:101C2800CA25D96E000ECB21DA6E67510A0D000E57
:101C3800626F020E636FF3506227F450632368519A
:101C48006225E16E000E6321E26EDFCFE7FF682BAD
:101C5800070E6865E4D767510A0D080EF324D96E9C
:101C6800020EF420DA6EDF8E000120EE02F0CC5175
:101C7800D926CD51DA22DF50626F010E6217675103
:101C88000A0D080EF324D96E020EF420DA6EDF5026
:101C98006219FE0B6219DF6E686B6851CC25626FA2
:101CA800000ECD21636F030E6225D96E000E6321ED
:101CB800DA6E67510A0D000E646F020E656F090E29
:101CC8006427000E6523F3506427F4506523685198
:101CD8006425E16E000E6521E26EDFCFE7FF682B19
:101CE8006851DBE067C0E6F0E999D1EC15F0416E88
:101CF800410E1E6E1F6AF5C020F0F6C021F0236A5F
:101D0800010E226E4AEC10F084D7FEC0B1F0030E2B
:101D1800B26FB36B5FEC13F0AC0501E1FF0C5FEC45
:101D280013F01DC0B4F01EC0B5F01FC0B6F020C03F
:101D3800B7F0900EB45FD00EB55B030EB65B000E25
:101D4800B75BFE6BE9896FD05FEC13F01DC0B8F08C
:101D58001EC0B9F01FC0BAF020C0BBF0B451B85DC6
:101D6800AD6FB551B959AE6FB651BA59AF6FB751DA
:101D7800BB59B06FB05107E1910EAD5DD00EAE59B1
:101D8800030EAF594AE3B8C0B4F0B9C0B5F0BAC051
:101D9800B6F0BBC0B7F0B307B32945E1010EB36F86
:101DA800B207B22902E1E999FF0CEB6B8A0EEB2529
:101DB800D96EDA6A010EDA22810EDF6EEB2B8A0EFB
:101DC800EB25D96EDA6A010EDA22FBC0DFFFEB2BB6
:101DD8008A0EEB25D96EDA6A010EDA22E8C0DFFF37
:101DE800EB2BBC6BBC51FC0FD96EDA6A8A0EEB2563
:101DF800E16EE26A010EE222DFCFE7FFEB2BBC2B9C
:101E0800BC51F0E0EFC090F0F0C091F0926B936B92
:101E1800010E946F956BEDEC0FF0B3EC16F0000922
:101E280002E0B9EC16F00001E9B98ED7B1C0FEF0B6
:101E3800E65112001D500001606F1E50616F626B09
:101E4800636BD00E6003F3CF64F0F4CF65F0666B7C
:101E5800676B6103F3506527F4506623000E672310
:101E6800070E6003F3506527F4506623000E6723BE
:101E7800D00E6203F3506627F4506723070E610300
:101E8800F3506627F4506723000E6003F35066276B
:101E9800F4506723D00E6303F3506727070E6203DD
:101EA800F3506727000E6103F3506727000E6003A5
:101EB800F350672764C01FF065C020F066C021F0AA
:101EC80067C022F0560E1F26FF0E20222122222252
:101ED80022BEFF0C2250211020100BE1C40E1F5C03
:101EE80008E2120000F0D90E1F26FF0E2022212240
:101EF800222222BE1200225021102010F3E11F04DA
:101F0800F1E212000150036E0250046E056A066A7F
:101F1800D00E0302F3CF07F0F4CF08F0096A0A6A7B
:101F28000402F3500826F4500922000E0A22070E74
:101F38000302F3500826F4500922000E0A22D00E9C
:101F48000502F3500926F4500A22070E0402F35042
:101F58000926F4500A22000E0302F3500926F45011
:101F68000A22D00E0602F3500A26070E0502F35085
:101F78000A26000E0402F3500A26000E0302F3504C
:101F88000A2607C00BF008C00CF009C00DF00AC003
:101F98000EF0560E0B26FF0E0C220D220E220EBE40
:101FA800FF0C0E500D100C100BE1C40E0B5C08E278
:101FB800120000F0D90E0B26FF0E0C220D220E2265
:101FC8000EBE12000E500D100C10F3E10B04F1E2DE
:101FD8001200986F0001996B945103E0966B962B51
:101FE80002D00001966B99519619FC0B9619996FBE
:101FF800985103E1966B962B02D00001966B963BA5
:10200800964799519619DF0B9619996F98B102D096
:10201800999502D00001998595B102D0999702D07F
:10202800000199879D6B9851010ED8B4000E9C6FE2
:10203800985103E1966B962B02D00001966B963B64
:102048009647964799519619BF0B9619996F998F8C
:1020580092C09AF093C09BF090C09EF091C09FF000
:1020680020EE99F000EE75F0060EDBCFEBFFE806E8
:10207800FCE28A0E7C6F010E7D6FEBC07EF055ECA2
:1020880009F00001976FEB6B97511200000EF0B644
:10209800010E0001606FF0968C9A050E9CEC16F00C
:1020A800000E9CEC16F00001616F8C8AC0EC16F0F3
:1020B800000161B1F1D78C9A060E9CEC16F08C8A5F
:1020C800C0EC16F08C9A020E9CEC16F021509CEC99
:1020D80016F020509CEC16F00001616B1AD01EC05F
:1020E800D9FF1FC0DAFFDF509CEC16F01E4A1F2AEA
:1020F8002206D8A023060001612B61512024246EFA
:102108003F0E241606E18C8A61512026000E2122FA
:10211800C3D722502310E3E18C8A60B102D0F09635
:1021280001D0F086120081A081B412000001BD6BBD
:1021380040EC16F0B20E0001646F010E656F500E90
:10214800666FFF0E676FF0C068F0696BEFC06AF0EA
:102158006B6B000E6D6F190E6C6FC8EC00F0C20E41
:10216800646F010E656F7D0E666FFF0E676FD3C1DA
:1021780068F0696BD4C16AF06B6BD5C16CF06D6B9C
:10218800C8EC00F068EC16F00ED0AC6B89EC0EF0E1
:10219800E6EC11F00001BE6FBE0503E0020EBE19A9
:1021A80002E1010EBD6F0001BD51EFE012007B0E90
:1021B800D36EC090F26A550EA76EAA0EA76E0E01D6
:1021C800FF91040EE76F130EF66F050ED76F550ECD
:1021D800A76EAA0EA76EFF810F0148693F0E496FCF
:1021E800F19E92689368946895689668896A8A6A85
:1021F8008C6A8D6A95948C84949C8B9C9380938430
:102208009294929693968A86959E8C8E9382938AC0
:10221800949E9398C00EC76E210EC66E95968C86B6
:10222800F19A94948B84959A8C8AF28EF090F08629
:10223800CDEF13F0BD6FD30E236E010E246E61EC4B
:1022480011F0BD510BE0010E00EC0DF0170E876F79
:10225800FF0E886F896B8A6BABEF13F089948996B0
:10226800000E00EC0DF0190EFBEC14F0000903E170
:10227800190EC4EC16F0000EAAEC14F0000E0001C2
:102288008C6F190E4FEC14F00001AC6B89EC0EF05A
:10229800386E382806E0010E8C6F190E4FEC14F0DA
:1022A80009D00A0E656F000E666B676B686B696B09
:1022B800E3EC14F0898493EF16F00001626B62512D
:1022C800235C606F000E2458616F070E60251E6E38
:1022D800000E61211F6E6251FA0F206E010E216EF1
:1022E800EEEC13F00001622B020E6265E8D720EED7
:1022F80004F02350D9262450DA22DF6820EE03F0B8
:102308002350D9262450DA22FE0EDF6E626B62510A
:10231800235C606F000E2458616F020E60251E6EEC
:10232800000E61211F6E6251FD0F206E010E216E9D
:10233800EEEC13F00001622B020E6265E8D7020C86
:102348003050315C04E33650375CD8B0120071B0BD
:10235800FED73050315C15E23150D10FD96EDA6AB0
:10236800DF50756E312A30503118D8A4120036501B
:10237800D8A412007184010E026E2C0E016E86EF35
:102388000FF03650375CD8B01200B20E3724D96E31
:10239800DA6A010EDA22DF5008E1B20E3724D96E6C
:1023A800DA6A010EDA22200EDF6EB20E3724D96EF9
:1023B800DA6A010EDA22DF50756E372A365037187E
:1023C800D9E0120081B00FD035503BE1010E356ED7
:1023D8005FEC13F01DC0D5F01EC0D6F01FC0D7F0BB
:1023E80020C0D8F0010C81B40FD035502AE1010E7D
:1023F800356E5FEC13F01DC0D5F01EC0D6F01FC0BF
:10240800D7F020C0D8F0020C5FEC13F01DC069F0C3
:102418001EC06AF01FC06BF020C06CF0D551695D1A
:10242800656FD6516A59666FD7516B59676FD85126
:102438006C59686F6851671103E1400E665D01E3EE
:10244800356A000C02EE00F0C80EEE6AE806FDE1FF
:1024580001EE00F0DB0EEE6AE806FDE100EEC7F0E3
:10246800350EEE6AE806FDE100EE25F01D0EEE6A77
:10247800E806FDE1840EF66E2D0EF76E000EF86E7E
:102488000900F5CFFCF00900F5CFFDF00900F5CF04
:10249800FEF08A0EF66E2D0EF76E000EF86E09002D
:1024A800F5CF42F043904392000EF86E000107EF1B
:1024B80016F0010E226E0001E26BE36B1E6A020E3B
:1024C8001D6EF70E1F6E13EC15F022161E6A010E14
:1024D8001D6EF30E1F6E13EC15F022161E6A010E08
:1024E8001D6EF10E1F6E13EC15F022161E6AC80E33
:1024F8001D6E3F0E1F6E13EC15F022161E6A040E99
:102508001D6EF90E1F6E13EC15F022161E6A010ED1
:102518001D6EF50E1F6E13EC15F022161200226EBA
:102528002250D96EDA6ADF503D6E2250D96EDA6ACF
:10253800D92ADF503E6E2150D96EDA6ADF503B6EE1
:102548002150D96EDA6AD92ADF503C6E3DC01EF0A0
:10255800070E96EC15F03EC01EF0090E96EC15F02D
:102568003BC01EF0030E96EC15F03CC01EF0050EA5
:1025780096EF15F0000EF0B6010E236EF0968A96CF
:102588001EC020F01FC021F0D89021322032D890F0
:1025980021322032D8902132203220507F0B8009FE
:1025A8009CEC16F01E38E846E00B9CEC16F0000E8A
:1025B8009CEC16F0226E8A8623B002D0F09601D0E9
:1025C800F08622501200000EF0B6010E076EF0964B
:1025D8008A9602C004F003C005F0D8900532043290
:1025E800D89005320432D8900532043204507F0B5B
:1025F8008009A4EC16F00238E846E00BA4EC16F0CB
:10260800000EA4EC16F0066E8A8607B002D0F0968B
:1026180001D0F08606501200000EF0B6010E236EAF
:10262800F0968A961EC021F01FC022F0D890223260
:102638002132D89022322132D890223221322150B0
:102648007F0B80099CEC16F01E38E846E00B100959
:102658009CEC16F020509CEC16F08A8623B002D031
:10266800F09601D0F0861200000EF0B6010E246E2E
:10267800F0968C9A030E9CEC16F021509CEC16F008
:1026880020509CEC16F00DD0000E9CEC16F01EC0ED
:10269800D9FF1FC0DAFFDF6E1E4A1F2A2206D8A004
:1026A800230622502310F0E18C8A24B002D0F09641
:1026B80001D0F08612009D900001636B646B606B23
:1026C800CECF61F0CFCF62F0612908E1622906E13F
:1026D800602B6005216E020E2164F2D79EA004D003
:1026E800632B392801E1642B395063273A5064275A
:1026F8009D8061C01DF062C01EF063C01FF064C001
:1027080020F01200226A236A1F5020101BE0010EDD
:10271800216E04D0D8901F362036212A20AEFAD751
:10272800D890223623361F501D5C20501E5805E3D2
:102738001F501D5E20501E5A2280D89020321F3212
:10274800212EEED722C01DF023C01EF0120040EC4F
:1027580016F0B20E0001646F010E656F87C066F057
:1027680088C067F089C068F0696BC8EC00F068EC55
:1027780016F000018A51D8B412008B6B1E6AFA0E4B
:102788001D6E1EEC0FF000018B2B070E8B65F6D724
:10279800070C530E9512A49E736AF00E746E280EE1
:1027A800726E716AA38EF28EF28C010E1E6E2C0E62
:1027B8001D6E1EEC0FF07C0E0001D16F810ED26FE2
:1027C800D36B1D6A030E74EC16F01E6AC80E1D6EDC
:1027D8001EEF0FF0000EF2BE010E226EF29E8B94D9
:1027E800030E9CEC16F020509CEC16F00BD0000E5B
:1027F8009CEC16F01EC0D9FF1FC0DAFFDF6E1E4A20
:102808001F2A21062150F3E18B8422B002D0F29EC8
:1028180001D0F28E1200886F40EC16F0B20E000163
:10282800646F010E656FC60E666FFF0E676F88C016
:1028380068F0696BC8EC00F0C20E646F010E656F3A
:10284800B50E666FFF0E676F87C068F0696BC8ECDE
:1028580000F068EF16F00001606F0A0E6065000C6A
:102868001A0E606501D0000C60C033F0020E1F6EB6
:102878001E6A6051100DF350500F0309206E10ECC2
:1028880013F0040E1E6E6D0E96EC15F01E6A6D0E9A
:1028980096EC15F0010C8D6F00018C510BE19A0E2E
:1028A800876FFE0E886F8DC089F0010E8A6FABECC2
:1028B80013F00AD0DA0E876FFE0E886F8DC089F08C
:1028C800010E8A6FABEC13F0030E1E6EE80E1D6E40
:1028D8001EEF0FF06251631117E0010E246E04D051
:1028E800D89062376337242A63AFFAD76251605DA4
:1028F8006351615904E36251605F6351615BD89031
:1029080063336233242EF2D760C060F061C061F097
:10291800120075C0DDF076C0DEF077C0DFF0D6CFEC
:1029280032F00B0E336E0BEC0CF0346A0001786B4E
:102938007851450D000EF324D96E010EF420DA6E9D
:10294800DF6A782B010E7865F3D7010C0001636FFD
:10295800030E636501D0030C63C0FEF0FEC062F095
:10296800623BF00E6217E8510F0B6211E86FFE0E22
:102978001E6E1F6AF1C020F0F2C021F0236A010E1A
:10298800226E4AEF10F00001A56FA5510A0D080E3E
:10299800F324D96E020EF420DA6E0201DFAE000CC9
:1029A8000001A5510A0D000EF324A06F020EF420B9
:1029B800A16F010EA26FA4C0A3F016EF16F06A6F04
:1029C8000FD0120EF06F340EEF6F6B696C69EF0E5B
:1029D800216E6B0E93EC12F05FEC13F05FEF13F0C7
:1029E80000016A51EEE0010AD8A4030A1200626FDE
:1029F800246A000162512FEC14F000090FE062C054
:102A0800FBF0FB0E1E6E1F6AF3C020F0F4C021F02D
:102A1800236A010E226E4AEC10F0010C000C1D50C6
:102A2800E225206E1E50E321216E2004800E2158DD
:102A380001E3000C1F50D96EDA6AE2C0DEFFE3C082
:102A4800DDFF1D50E2271E50E323010CB3EC16F006
:102A58000009D8B41200EA2BEAC089F0EC51ACECBA
:102A680016F08976070E1E6ED00E1D6E1EEC0FF046
:102A780093EC16F0B9EF16F01E6E000EF0B6010ECC
:102A8800206EF0968A961E509CEC16F0000E9CEC78
:102A980016F01F6E8A8620B002D0F09601D0F0861C
:102AA8001F501200236A23501F24D96E000E2020C5
:102AB800DA6E23501D24E16E000E1E20E26EDE50F9
:102AC800E61801E0000C232A070E2364ECD7010C5A
:102AD800026E000EF0B6010E046EF0968A96025051
:102AE800A4EC16F0000EA4EC16F0036E8A8604B06F
:102AF80002D0F09601D0F08603501200340E000187
:102B0800876FFF0E886F896B8A6BABEC13F0E6EC6E
:102B180011F000018C6F8C0501E1000C020E8C197C
:102B2800F6E1010C1F6E000EF0B6010E206EF09655
:102B38008A961F509CEC16F01E509CEC16F08A8664
:102B480020B002D0F09601D0F0861200036E000E7D
:102B5800F0B6010E046EF0968A960350A4EC16F0B7
:102B68000250A4EC16F08A8604B002D0F09601D088
:102B7800F08612001E6E080E1F6E206AD8901E3452
:102B88002034206ED8901E361D50205C02E31D5064
:102B9800205E1F2EF3D7205012001D6A1E6A1E5099
:102BA8000A0D080EF324D96E020EF420DA6E020123
:102BB800DFBE1D2A1E2A130E1E64F1D71D501200F7
:102BC8001D501F02F3CF21F0F4CF22F01D50200238
:102BD800F35022261E501F02F350222621C01DF05A
:102BE80022C01EF01200F90E0001876FFE0E886FDA
:102BF800896B010E8A6FABEC13F0070E1E6ED00EB8
:102C08001D6E1EEF0FF0DBEC10F04EEC16F0F7EC3B
:102C180015F082EC15F0C66FC6511EEC11F0BEEC33
:102C280016F0FDD7EFC090F0F0C091F0A0C092F080
:102C3800A1C093F0000E946BA3C095F0EDEF0FF0D8
:102C4800A06FEFC090F0F0C091F00001926B936B11
:102C5800946BA0C095F0010EEDEF0FF01F6E1E6A89
:102C68003A0E1F6005D02F0E1F6402D0010E1E6E93
:102C78001EC01DF01D3012001D6AB20E1D24D96E33
:102C8800DA6A010EDA22200EDF6E1D2A1F0E1D647D
:102C9800F4D71F0C380ECD6E9A6ACF6ACE6ACECFA3
:102CA800E4F0CFCFE5F09E909D80BCEF16F0020EC9
:102CB8004260020C4250450D000EF324D96E010EFD
:102CC800F420DA6EDF6A000C7C0E0001D16F320E40
:102CD800D26FD36B200ED46F1D6E040E74EF16F0F6
:102CE8001E6E71B4FED7316A376A1EC030F01DC03F
:102CF80036F071801200E70E0001876FFF0E886FB3
:102D0800896B010E8A6FABEF13F0A4AE1200A49E7C
:102D1800A4EC11F0026A050E016E86EF0FF0170E93
:102D28000001876FFF0E886F896B8A6BABEF13F01A
:102D38001D6EC69E1DC0C9FFC7A0FED7C950120090
:102D4800016EC69E01C0C9FFC7A0FED7C9501200B8
:102D58008A6F89C087F000018A510FEF14F0F3ECF5
:102D680006F00001E9B7010C000CE9975BEF16F0DB
:102D7800CD801200EDEF0AF000F01200010103000F
:042D88001200FF0036
:10FD9A000020B2202020B22020B220B22020202031
:10FDAA0020B220B20D0AB220B220B220B220202006
:10FDBA00B22020B22020B220200D0AB22020B22088
:10FDCA0020B220B220B22020B22020B220B20D0AE6
:10FDDA00B22020B22020B220B22020B220B220B21B
:10FDEA002020B20D0AB22020B22020B220B2202058
:10FDFA0020B220B2202020B20D0A2020202020206C
:10FE0A00202020202020202020202020200D0AB27F
:10FE1A00B2B22020B2B2B2B20D0AB22020B220B2DF
:10FE2A002020200D0AB22020B220B2B2B2B20D0AAE
:10FE3A00B22020B220B22020200D0AB2B2B2202075
:10FE4A00B2B2B2B20D0A2020202020202020200D9C
:10FE5A000A01000800400000020010008001000AA8
:10FE6A00006400E803102701001000000100105090
:10FE7A0043203A524230206F72205242322020747C
:10FE8A006F2042726F616463617374206D736700DF
:10FE9A00436F6E6E656374696E6720506565722084
:10FEAA00206F6E204368616E6E656C2025642000A9
:10FEBA00524230203A20556E6963617374202020C3
:10FECA00524232203A204E657874204E6F646500A3
:10FEDA0020436F6E6E656374656420506565722099
:10FEEA00206F6E204368616E6E656C202564005336
:10FEFA00696D706C65205032502020202020204DE2
:10FF0A00524632344A3430204E6F646500524230D1
:10FF1A003A2042726F6164636173742020524232E4
:10FF2A003A20556E6963617374005242303A4E65E5
:10FF3A0077204E6574776F726B205242323A46725E
:10FF4A0065657A65720050414E49443A25303278E7
:10FF5A00253032782043683A2530326400524230E4
:10FF6A003A253032642D25303278253032782530E2
:10FF7A00327800416464726573733A2025303278AE
:10FF8A002530327825303278003031323334353604
:10FF9A0037383941424344454600303132333435EB
:10FFAA0036373839616263646566005258204D6598
:10FFBA007373616765733A20253364005458204D82
:10FFCA00657373616765733A202533640052423260
:10FFDA003A2043686E6765206E6F64650020556E2F
:0EFFEA006963617374204661696C6564000090
:08FFF800ACF6D8FFFFF9FFF1A0
:00000001FF
