:04000000C6EF00F057
:100008004A82D9CF0DF0DACF0EF0F3CF0FF0F4CF4C
:1000180010F0F2B8F2A2A2D0F292620EF5EC1BF048
:10002800126E12A00FD03F903FBC3F9C0001D56BD1
:10003800D66B3FA207D0480EF5EC1BF0116E11B03D
:100048003F843F9212A683D01468156A1550450D57
:100058000C0EF324D96E010EF420DA6EDF5003E1A2
:1000680015C014F004D0152A010E1564EFD7020E3E
:10007800146068D0040E026E730E5CEC1CF0145011
:10008800450D0C0EF324D96E010EF420DA6E030E22
:10009800036E026A8FEC19F0020FDF6E1450450DE3
:1000A8000C0EF324D96E010EF420DA6E440EDF60D4
:1000B8003FD03F8A010E156E1AD01450450D0C0E14
:1000C800086E010E096EF3500826F45009221550E7
:1000D8000824D96E000E0920DA6E000E1524026E6F
:1000E800036A030E03228FEC19F0DF6E152A1550F0
:1000F800086E096A1450450D0C0EF324D96E010ED2
:10010800F420DA6EDF500A6E0B6A020E0A26000E21
:100118000B2208500A5C0B50800A0C6E0950800AAA
:100128000C58CBE2010E026E1B0E5CEC1CF005D0E5
:10013800010E026E1B0E5CEC1CF0026A730E5CEC86
:100148001CF005D0010E026E1B0E5CEC1CF012A810
:1001580005D0800E026E590E5CEC1CF09EB09DA07E
:1001680005D09E90412A415001E1422A6DEC1DF0D4
:1001780010C0F4FF0FC0F3FF0EC0DAFF0DC0D9FFA7
:100188004A9211008CEF17F02DEC1AF016C0A3F06C
:1001980017C0A4F018C0A5F019C0A6F02DEC1AF0ED
:1001A80016C0A8F017C0A9F018C0AAF019C0ABF083
:1001B800485020E00001CE51A85D986FCF51A95951
:1001C800996FD051AA599A6FD151AB599B6F980525
:1001D800A30E9959E10E9A59110E9B592BE3E6EC9F
:1001E80018F0A8C0CEF0A9C0CFF0AAC0D0F0ABC01C
:1001F800D1F020D00001CA51A85D986FCB51A95900
:10020800996FCC51AA599A6FCD51AB599B6F9B519D
:1002180007E1E10E985D700E9959720E9A590AE33A
:10022800B7EC1AF0A8C0CAF0A9C0CBF0AAC0CCF0AD
:10023800ABC0CDF0CA51A35D986FCB51A459996F4B
:10024800CC51A5599A6FCD51A6599B6F9B5107E187
:10025800E10E985D700E9959720E9A590CE3485048
:100268000AE095EC0EF0A3C0CAF0A4C0CBF0A5C07C
:10027800CCF0A6C0CDF0DFA32BD02DEC1AF016C021
:100288009CF017C09DF018C09EF019C09FF00001A7
:10029800C6519C5D986FC7519D59996FC8519E5919
:1002A8009A6FC9519F599B6F9B5107E1210E985D29
:1002B800A10E9959070E9A590BE3DF93780E176E22
:1002C800020E186E040E196E180E1A6E4DEC17F009
:1002D8000001DFB71200FDEC07F00009D8B41200E6
:1002E8000001A06BBC6B33A403D0986B982B02D091
:1002F8000001986BBC519819FC0B9819BC6F33A678
:1003080002D0BC8702D00001BC973350030BE8062B
:1003180003E1986B982B02D00001986B983B9847A3
:10032800BC519819DF0B9819BC6F33AE02D0BC8D45
:1003380002D00001BC9D33AE04D034C0BFF035C03C
:10034800C0F03CC0BDF03DC0BEF038C0C3F036C000
:10035800C1F037C0C2F03AC0C5F039C0C4F0BCAB78
:10036800A8D285D248500AE0AE6B20EE01F0C15108
:10037800D926C251DA22FC51DE1803E010EC1DF038
:1003880099D2030EFF19FAE0BD2902E1BE290BE05C
:10039800EA51BD1903E1EB51BE1905E0020EC36530
:1003A80002D0F20E03D021EC12F00001AE6F20EE65
:1003B80003F0C151D926C251DA22AA0EDE1820E173
:1003C800AC6B130EAC6501D01BD0BFC016F0C0C01B
:1003D80017F0AC510E0D7C0EF324186E020EF420AB
:1003E800196EDFEC1BF0000908E0640E0001AC2573
:1003F800D96EDA6A020EDA22DF680001AC2BE1D787
:10040800FF0507E1AE0505E0020EAE1902E0F30EA6
:10041800AE6FE26B960EE225D96EDA6A010EDA2229
:10042800910EDF6EE22B960EE225D96EDA6A010E86
:10043800DA22AEC0DFFFE22B960EE225D96EDA6A29
:10044800010EDA22DDC0DFFFE22BAE5102E0AE057D
:100458001BE1960EE225D96EDA6A010EDA22DEC0B9
:10046800DFFFE22BAF6BAF510FE1AF51FE0FD96E3B
:10047800DA6A960EE225E16EE26A010EE222DFCF29
:10048800E7FFE22BAF2BEFD710EC1DF0BDC07BF0E0
:10049800BEC07CF0BFC07DF0C0C07EF0010E000180
:1004A8007F6F000EBCB7010E806F000EA1EC14F038
:1004B80095EC0EF0AE5101E0FDD1DB510E0D780E3A
:1004C800F324176E020EF420186EDB510E0DF35054
:1004D800040F196E0E0E1A6E4DEC17F0EBD1020ECA
:1004E800FF6501D04BD720EE01F0C151D926C2518A
:1004F800DA22FC51DE1801E041D7E26B960EE225C4
:10050800D96EDA6A010EDA22970EDF6EE22B960EAA
:10051800E225D96EDA6A010EDA22DEC0DFFFE22BAD
:10052800AF6BAF510FE1AF51FE0FD96EDA6A960E7D
:10053800E225E16EE26A010EE222DFCFE7FFE22B5D
:10054800AF2BEFD710EC1DF0BDC07BF0BEC07CF028
:10055800BFC07DF0C0C07EF0010E00017F6F000EAD
:10056800BCB7010E806F000EA1EC14F0A3D1E26BB2
:10057800960EE225D96EDA6A010EDA22920EDF6E45
:10058800E22BAF6B130EAF6501D042D0AF510E0D09
:10059800840EF324D96E020EF420DA6EDFAE35D065
:1005A800BFC016F0C0C017F0AF510E0D7C0EF3247B
:1005B800186E020EF420196EDFEC1BF0000925E01E
:1005C8000001AF510E0D840EF324D96E020EF420F3
:1005D800DA6EDF6AAF510E0D780EF324176E020E35
:1005E800F420186EAF510E0DF350040F196E0E0E55
:1005F8001A6E4DEC17F0960E0001E225D96EDA6AF4
:10060800010EDA22DF6AE22B03D00001AF2BBAD742
:1006180010EC1DF0140E0001AF1909E1960EE22549
:10062800D96EDA6A010EDA22F00EDF6EE22BBDC057
:100638007BF0BEC07CF0BFC07DF0C0C07EF0010E74
:100648007F6F000EBCB7010E806F000EA1EC14F096
:1006580031D1EA2915E1EB2913E1BDC0EAF0BEC0AA
:10066800EBF0A169A269EA0E1A6EA10E12EC19F05C
:10067800EA0E176E186A196A020E1A6E4DEC17F018
:1006880021EC12F0000120EE02F0C151D926C2512E
:10069800DA22DF50FD6FFD0E176E186ABB0E196E59
:1006A800010E1A6E4DEC17F00001DF832DEC1AF0E5
:1006B80016C0C6F017C0C7F018C0C8F019C0C9F0F6
:1006C8005DD620EE01F0C151D926C251DA22DF50A1
:1006D800C0E0010ABEE052D6DFBBDF9B4FD620EE5A
:1006E80001F0C151D926C251DA22DF5001E046D6C5
:1006F800AF6B130EAF6501D041D6AF510E0D840E0E
:10070800F324D96E020EF420DA6EDFAE2CD0BFC00F
:1007180016F0C0C017F0AF510E0D7C0EF324186E02
:10072800020EF420196EDFEC1BF000091CE000013A
:10073800AF510E0D840EF324D96E020EF420DA6E3A
:10074800DF6AAF510E0D780EF324176E020EF420F7
:10075800186EAF510E0DF350040F196E0E0E1A6E6F
:100768004DEC17F00BD60001AF2BC3D7485001E072
:1007780005D6010EE96F02D6485001E0FFD520EEFC
:1007880001F0C151D926C251DA22DF50986F98057D
:10079800E76FC1C01DF0C2C01EF067EC13F0EED5C4
:1007A800485001E1EBD5C1C016F0C2C017F038ECD3
:1007B80016F00001A76FA7290DE0C1C091F0C2C0D3
:1007C80092F0A7C093F0BFC094F0C0C095F0A0EC21
:1007D80015F0A06FA05101E1D1D5BFC08BF0C0C00A
:1007E8008CF084EC1BF0CAD5485001E1C7D5AD6B3D
:1007F800130EAD6501D0C2D5BFC0D9FFC0C0DAFFA6
:10080800AD510E0D7C0EF324E16E020EF420E26E63
:10081800DE50E6182AE120EE01F0BF51D926C0517A
:10082800DA22AD510E0D7D0EF324E16E020EF42096
:10083800E26EDE50E61819E120EE02F0BF51D9262B
:10084800C051DA22AD510E0D7E0EF324E16E020E78
:10085800F420E26EDE50E61808E1500EAD25D96EA0
:10086800DA6A020EDA22DF2A89D5AD2BC1D7C1C0D8
:10087800D9FFC2C0DAFFDF50770A01E17DD70D0A40
:10088800B3E0FB0A01E16ED5030A01E170D6050A5F
:1008980001E125D6160A01E114D7030A01E11FD7A1
:1008A800050A01E119D75B0A01E17AD7160A01E1C5
:1008B8005DD7DF870001C35104E0DFB902D0DFABA9
:1008C8001200DF9710EF1DF0260E00016A6F7FD32C
:1008D800250E701909E022C0D9FF23C0DAFF70C0C5
:1008E800DFFF224A232A73D36E6B6F6B716B726BB7
:1008F80009D0718705D0718103D0728701D07185C5
:10090800244A252A24C0F6FF25C0F7FF0800F55021
:10091800200AF1E0030AF1E00E0AEBE01D0AEFE01D
:1009280071B7719524C0F6FF25C0F7FF0800F55090
:10093800F5EC1CF030E300016E6B6F6B6EC016F0C7
:100948006FC017F0196A0A0E186E83EC1CF016C0F7
:100958006EF017C06FF0D00E2E6E2F6824C0F6FF11
:1009680025C0F7FF0800F550306E316A2E5030264A
:100978002F503122305000016E2731506F23244A06
:10098800252A24C0F6FF25C0F7FF0800F550F5EC2E
:100998001CF015E3D3D724C0F6FF25C0F7FF0800E5
:1009A800F5502A0A0CE100016A51D96EDA6ADECFE5
:1009B8006EF0DDCF6FF0020E6A27244A252A24C084
:1009C800F6FF25C0F7FF0800F5502E0A32E10001B6
:1009D800728D244A252A24C0F6FF25C0F7FF080097
:1009E800F5502A0A0AE16A51D96EDA6ADF506D6F4A
:1009F800020E6A27244A252A8CD06D6B10D024C099
:100A0800F6FF25C0F7FF0800F5CF2EF000016D5165
:100A18000A0DF3502E24D00F6D6F244A252A24C0C6
:100A2800F6FF25C0F7FF0800F550F5EC1CF071E360
:100A3800E6D700016D6B6DD0718D89D0718B718F88
:100A480086D06D510FE06DC02EF02F6A2EBE2F0696
:100A580068512E5C69512F5805E26D51686F696BBA
:100A680068BF69076E51685D6F51695905E2685141
:100A78006E5F69516F5B02D06E6B6F6B71B71DD083
:100A880008D022C0D9FF23C0DAFF200EDF6E224A29
:100A9800232A6E07D8A06F076E29F3E16F290DE0AE
:100AA800F0D76751D96EDA6A22C0E1FF23C0E2FFAE
:100AB800DFCFE7FF672B224A232A6807D8A06907F8
:100AC8006829EFE16929EDE171A781D208D022C038
:100AD800D9FF23C0DAFF200EDF6E224A232A6E07D1
:100AE800D8A06F076E29F3E16F2901E170D2EFD723
:100AF8006A51D96EDA6ADF50706F020E6A27700E7B
:100B0800676F000E696F010E686F9BD7C00E711377
:100B18001ED024C0F6FF25C0F7FF244A252A080066
:100B2800F5CF70F00001705101E15DD2580A86E0FE
:100B38003B0ADEE0070A0BE00D0A09E0060A01E1BC
:100B48007BD71A0AE3E00D0A01E179D7D8D771C03B
:100B58002EF0C00E2E1612E16A51D96EDA6ADECF77
:100B68006BF0DDCF6CF0020E6A276CAF10D0030E6D
:100B780071136B6D6C1FD8B06C2B09D06A51D96E8C
:100B8800DA6ADECF6BF0DDCF6CF0020E6A276D51AA
:100B980047E16B516C1144E16D2B42D0010E706F2F
:100BA800050E701946E07051020D830EF324F66E9F
:100BB800FD0EF420F76E0900F5506B5D0900F55045
:100BC8006C5937E3702BECD7010E706F040E701957
:100BD80030E07051020D8D0EF324F66EFD0EF420F8
:100BE800F76E0900F5506B5D0900F5506C5921E36B
:100BF800702BECD7010E706F060E70191AE0705149
:100C0800020D770EF324F66EFD0EF420F76E090040
:100C1800F5506B5D0900F5506C590BE3702BECD760
:100C28007151C00BBBE0400AE5E0C00ACDE0400AC4
:100C3800B5E07051800A2E6E6D51800A2E5C03E279
:100C48006DC070F009D06D51800A2E6E7051800A07
:100C58002E5C02E270C06DF06E516F1108E071C039
:100C68002EF0030E2E1603E06E07D8A06F0772ADA4
:100C780013D0800E6DBF7F0E2E6E6E516D5D6F515D
:100C8800800A2E5807E26D516E5F000E6DBFFF0E91
:100C98006F5B02D06E6B6F6BC40E2E6E080E2F6EDC
:100CA80071C030F072C031F02E5030162F5031160E
:100CB800400E30180AE1080E311807E16E516F1125
:100CC80024E06E07D8A06F0720D0C00E2E6E080E45
:100CD8002F6E71C030F072C031F02E5030162F5088
:100CE8003116800E301811E1080E31180EE16FBF71
:100CF8000AD06F5103E1030E6E5D05E3FE0E6E2709
:100D0800FF0E6F2302D06E6B6F6B800E70BF7F0E6D
:100D18002E6E6E51705D6F51800A2E5807E2705129
:100D28006E5F000E70BFFF0E6F5B02D06E6B6F6B55
:100D380071A54FD071C02EF0030E2E1609E022C007
:100D4800D9FF23C0DAFF2D0EDF6E224A232A31D0C5
:100D580071A106D022C0D9FF23C0DAFF200EF4D734
:100D6800C00E2E6E080E2F6E71C030F072C031F0BA
:100D78002E5030162F503116800E30181AE1080EFA
:100D8800311817E122C0D9FF23C0DAFF300EDF6E19
:100D9800224A232A71BB03D0626B780E02D0626BA1
:100DA800580E616F22C0D9FF23C0DAFF61C0DFFF90
:100DB800CCD76E516F1101E1F2D022C0D9FF23C008
:100DC800DAFF300EDF6E224A232A6E07D8A06F079B
:100DD800F0D76E516F1110E071B70ED022C0D9FF55
:100DE80023C0DAFF200EDF6E224A232A6E07D8A01E
:100DF8006F076E516F11F2E171C02EF0030E2E16BF
:100E080009E022C0D9FF23C0DAFF2D0EDF6E224A87
:100E1800232A08D071A106D022C0D9FF23C0DAFF47
:100E2800200EF4D7C00E2E6E080E2F6E71C030F053
:100E380072C031F02E5030162F503116400E301837
:100E48000CE1080E311809E122C0D9FF23C0DAFFEE
:100E5800300EDF6E224A232AA2D0C00E2E6E080E54
:100E68002F6E71C030F072C031F02E5030162F50F6
:100E78003116800E30181BE1080E311801E08FD0B2
:100E880022C0D9FF23C0DAFF300EDF6E224A232AA0
:100E980071BB03D0646B780E02D0646B580E636F1D
:100EA80022C0D9FF23C0DAFF63C0DFFFD3D777D0D2
:100EB8006D51020D830EF324F66EFD0EF420F76ECD
:100EC8000900F5CF18F00A00F5CF19F06BC016F03D
:100ED8006CC017F053EC1AF016C01DF017C01EF0C6
:100EE800206A0A0E1F6E14EC1BF01D5045D06BC013
:100EF80016F06CC017F06D51020D8D0EF324F66ECE
:100F0800FD0EF420F76E0900F5CF18F00A00F5CFB2
:100F180019F053EC1AF016500F0B606F71BB04D028
:100F28005F0E656FFF0E03D04E0E656FFF0E666F86
:100F3800605165252E6E000E66212F6E2EC0F6FFBD
:100F48002FC0F7FF0800F5CF70F022D06BC016F065
:100F58006CC017F06D51020D770EF324F66EFD0E7E
:100F6800F420F76E0900F5CF18F00A00F5CF19F054
:100F780053EC1AF01650070B300F706F09D07151EF
:100F8800C00B96E0400AE2E0C00AB1E0400A90E0F7
:100F980022C0D9FF23C0DAFF70C0DFFF5BD76D071F
:100FA8006D29EDE171B76FBF12D06F5102E16E0587
:100FB8000EE322C0D9FF23C0DAFF200EDF6E224ADB
:100FC800232A6E07D8A06F076E516F11F2E124C073
:100FD800F6FF25C0F7FF244A252A0800F5CF70F050
:100FE800705101E075D422C0D9FF23C0DAFFDF6A4F
:100FF800000C81A0F2823FA00BD0D65103E1800EF5
:10100800D55D04E3D56BD66B3F9002D0D54BD62B7C
:1010180049681C6A1C50450D0C0EF324D96E010E4C
:10102800F420DA6EDF5003E01CC049F004D01C2A1B
:10103800010E1C64EFD7020E4960000C010E1D6EF4
:101048004950450D0D0EF324D96E010EF420DA6EC9
:101058000101DFAC1D6A336A3B6A4950450D0E0E2B
:10106800F324D96E010EF420DA6EDF50CC0B1B6E20
:10107800DBD14950450D120EF324D96E010EF42030
:10108800DA6EDE280BE14950450D130EF324D96EB4
:10109800010EF420DA6EDE2801E13384338E1D5010
:1010A8002EE04950450D100EF324D96E010EF420A0
:1010B800DA6EDF503C6E4950450D110EF324D96E9F
:1010C800010EF420DA6EDF503D6E4950450D140EC6
:1010D800F324346E010EF420356E4950450D0C0E84
:1010E800F324D96E010EF420DA6EDF50ED0F386E5E
:1010F8004950450D1C0EF324366E010E34D149506B
:10110800450D140EF324D96E010EF420DA6EDF506B
:101118003C6E4950450D150EF324D96E010EF4208E
:10112800DA6EDF503D6E4950450D160EF324346ECD
:10113800010EF420356E4950450D0C0EF324D96E7E
:10114800010EF420DA6EDF50EB0F386E4950450D72
:101158001E0EF324366E010E06D1338E1D502EE07E
:101168004950450D100EF324D96E010EF420DA6EA5
:10117800DF503C6E4950450D110EF324D96E010E17
:10118800F420DA6EDF503D6E4950450D1A0EF324F7
:10119800346E010EF420356E4950450D0C0EF324C3
:1011A800D96E010EF420DA6EDF50E70F386E495021
:1011B800450D220EF324366E010ED5D04950450D4B
:1011C8001A0EF324D96E010EF420DA6EDF503C6E4D
:1011D8004950450D1B0EF324D96E010EF420DA6E2A
:1011E800DF503D6E4950450D1C0EF324346E010E40
:1011F800F420356E4950450D0C0EF324D96E010EBE
:10120800F420DA6EDF50E50F386E4950450D240E94
:10121800F324366E010EA7D03384338E010E3B6E55
:101228004950450D100EF324D96E010EF420DA6EE4
:10123800DF503C6E4950450D110EF324D96E010E56
:10124800F420DA6EDF503D6E4950450D120EF3243E
:10125800346E010EF420356E4950450D0C0EF32402
:10126800D96E010EF420DA6EDF50F50F386E495052
:10127800450D140EF324366E010E75D04950450DF8
:10128800120EF324D96E010EF420DA6EDE280BE17B
:101298004950450D130EF324D96E010EF420DA6E71
:1012A800DE2801E13384338E010E3B6E1D502EE1A2
:1012B8004950450D140EF324D96E010EF420DA6E50
:1012C800DF503C6E4950450D150EF324D96E010EC2
:1012D800F420DA6EDF503D6E4950450D160EF324AA
:1012E800346E010EF420356E4950450D0C0EF32472
:1012F800D96E010EF420DA6EDF50F10F386E4950C6
:10130800450D180EF324366E010E2DD04950450DAB
:10131800100EF324D96E010EF420DA6EDF503C6E05
:101328004950450D110EF324D96E010EF420DA6EE2
:10133800DF503D6E4950450D140EF324346E010EF6
:10134800F420356E4950450D0C0EF324D96E010E6C
:10135800F420DA6EDF50F30F386E4950450D160E43
:10136800F324366E010EF420376E70D0338E010EE2
:101378003B6E1D501BE04950450D100EF324D96EED
:10138800010EF420DA6EDF503C6E4950450D110E07
:10139800F324D96E010EF420DA6EDF503D6E495009
:1013A800450D190EF324346E010E95D64950450D9E
:1013B800190EF324D96E010EF420DA6EDF503C6E5C
:1013C8004950450D1A0EF324D96E010EF420DA6E39
:1013D800DF503D6E4950450D1B0EF324346E010E4F
:1013E800A8D64950450D120EF324D96E010EF420EB
:1013F800DA6EDE280BE14950450D130EF324D96E41
:10140800010EF420DA6EDE2801E133844950450DDF
:101418000C0EF324D96E010EF420DA6EDF50F60FAD
:1014280025D710EC1DF0000C1B50080ADAE0880ADA
:1014380001E1F2D6080A01E121D7040A97E0440A3B
:1014480001E117D6040A01E188D6EBD74950450DCA
:101458000D0EF324D96E010EF420DA6EDFA60CD03F
:10146800E0D7FC0E33161DD03350FC0B0109336E48
:1014780018D0030E331215D04950450D0D0EF32424
:10148800D96E010EF420DA6EDF50070B166E176A5C
:101498001750C7E11650EDE0010AE3E0020AE4E064
:1014A800C0D74950450D0C0EF324D96E010EF42017
:1014B800DA6EDF50166E4950450D176818680C0E25
:1014C800196E010E1A6E1750192618501A22F35069
:1014D8001926F4501A2216501924D96E000E1A2013
:1014E800DA6EDF503A6E4950450D0C0EF324D96E72
:1014F800010EF420DA6EDF50166E4950450D0C0EC1
:10150800176E010E186EF3501726F4501822165055
:101518001724D96E000E1820DA6EDF50396E010CD0
:101528002DEC1AF016C004F117C005F118C006F129
:1015380019C007F1010E0001E66F55D207EC1AF049
:10154800000901E002D2C9EC16F00101F56FF505BA
:1015580004E0020EF51901E0F8D1485035E0000129
:10156800E26B406A140E406401D023D0060E166E5A
:10157800E45170EC1CF0150DF90E0001B56FFC0E6E
:10158800B66FF350B527F450B6234050B527000E78
:10159800B623B5C0F6FFB6C0F7FF960EE225D96EA2
:1015A800DA6A010EDA220800F5CFDFFFE22B402AC3
:1015B800D9D7E42B000ED9EC1CF0E1C074F0E32B72
:1015C800E35151EC1DF0C1D1F76B010E0001E56F3D
:1015D8000101F46FB6D196EC1CF00101F75100013E
:1015E800FD1938E1BE0E226E010E236ED00E246E58
:1015F800FE0E256E0101F751040D030EF324D96E7A
:10160800020EF420DA6EDF50266E276AF751040DB9
:10161800000EF324D96E020EF420DA6EDF50286E25
:10162800296AF751040D010EF324D96E020EF42035
:10163800DA6EDF502A6E2B6AF751040D020EF3247E
:10164800D96E020EF420DA6EDF502C6E2D6A68EC2B
:1016580004F037D0BE0E226E010E236EE90E246E02
:10166800FE0E256E0101F751040D030EF324D96E09
:10167800020EF420DA6EDF50266E276AF751040D49
:10168800000EF324D96E020EF420DA6EDF50286EB5
:10169800296AF751040D010EF324D96E020EF420C5
:1016A800DA6EDF502A6E2B6AF751040D020EF3240E
:1016B800D96E020EF420DA6EDF502C6E2D6A68ECBB
:1016C80004F0BE0E226E010E236EE90E246EFE0E8D
:1016D800256E0101F751040D030EF324D96E020E95
:1016E800F420DA6EDF50266E276AF751040D000EDB
:1016F800F324D96E020EF420DA6EDF50286E296AC0
:10170800F751040D010EF324D96E020EF420DA6E9F
:10171800DF502A6E2B6AF751040D020EF324D96E9E
:10172800020EF420DA6EDF502C6E2D6A68EC04F09D
:10173800CE0E226E010E236E700E246EFF0E256EE5
:1017480068EC04F006EC18F0010E0001E56FF5D026
:10175800C9EC16F00101F66F07EC1AF00101F60565
:1017680001E0CBD0F46B0001E56B0101F7510001FA
:10177800FD1930E1E26B406A140E406401D023D0B9
:10178800060E166EE45170EC1CF0150DF90E0001F2
:10179800B56FFC0EB66FF350B527F450B623405022
:1017A800B527000EB623B5C0F6FFB6C0F7FF960EF4
:1017B800E225D96EDA6A010EDA220800F5CFDFFFDA
:1017C800E22B402AD9D7000E8F6B50EC1BF000019A
:1017D800E32B83D0E26B960EE225D96EDA6A010E0E
:1017E800DA22CC0EDF6EE22B0101F751040D000E58
:1017F800F324D96E020EF420DA6E960E0001E2256B
:10180800E16EE26A010EE222DFCFE7FFE22B01017F
:10181800F751040D010EF324D96E020EF420DA6E8E
:10182800960E0001E225E16EE26A010EE222DFCFA8
:10183800E7FFE22B0101F751040D020EF324D96EE4
:10184800020EF420DA6E960E0001E225E16EE26ADD
:10185800010EE222DFCFE7FFE22B040E406E180EE6
:10186800406401D02AD0FC0EB56FB669060E166E1C
:10187800E45170EC1CF0150DF90E0001B76FFC0E69
:10188800B86FF350B727F450B8234050B727000E6D
:10189800B823B551B727B651B823B7C0F6FFB8C0BB
:1018A800F7FF960EE225D96EDA6A010EDA220800F1
:1018B800F5CFDFFFE22B402AD2D7000E53EC15F00C
:1018C8000101F36FF35183E1150E0001736FFF0EF1
:1018D800746F756B766B78EC1AF0E1C074F00001E8
:1018E800E35151EC1DF0050E176EDC0E166ED5ECAB
:1018F80013F04850B9EC1CF020D0020EF6191DE187
:10190800F7510001B56FB66BB769B869E751B96FA0
:10191800BA6BB751B927B851BA23B551B95DBA51A5
:10192800800ABB6FB651800ABB5903E20101F76B0D
:1019380002D00101F72B0001E56B0001E55101E040
:1019480007D70101F40501E146D60001E85106E098
:10195800485004E1B06B71EC11F0E86B2DEC1AF013
:1019680016C008F117C009F118C00AF119C00BF127
:1019780001010451085D0001B56F010105510959C4
:101988000001B66F010106510A590001B76F010144
:1019980007510B590001B86FB85107E1E10EB55D69
:1019A800700EB659720EB7591EE348501CE096ECFB
:1019B8001CF0BE0E226E010E236E3C0E246EFF0E2E
:1019C800256E47C026F0276A68EC04F006EC18F08C
:1019D800070E176ED00E166ED5EC13F00001E66BED
:1019E800010EB9EC1CF00001E65101E0A7D5120088
:1019F8007A6B60A502D0010E636F60B7646B6051AB
:101A0800030BE80602E1030E04D06051030B02E168
:101A1800010E776F435065190DE1445066190AE1CC
:101A2800432802E1442806E0050E786F778D010E01
:101A3800766F03D0070E786F766B6351020ED8B4B9
:101A4800080E78276451020ED8B4080E782760BBB8
:101A580060B501D0778B6051030B030A07E1776B00
:101A6800070E786F766B010E646F609B186A176AB1
:101A780078C019F0B8EC19F000017A2B7AC017F089
:101A8800186A78516925196EB8EC19F000017A2B9B
:101A98007AC017F0186A77C019F0B8EC19F000018D
:101AA8007A2B6051030B030A12E17AC017F0186A07
:101AB800800E196EB8EC19F000017A2B7AC017F075
:101AC800186A3EC019F0B8EC19F03E2A77D0635175
:101AD8000CE064510AE07AC017F0186A880E196E93
:101AE800B8EC19F000017A2B20D063510AE0645158
:101AF80008E17AC017F0186AC80E196EB8EC19F028
:101B0800F1D763510AE1640508E17AC017F0186A51
:101B18008C0E196EB8EC19F0E5D77AC017F0186A70
:101B2800CC0E196EB8EC19F0DDD77AC017F0186A28
:101B38003EC019F0B8EC19F03E2A00017A2B7AC0A1
:101B480017F0186A65C019F0B8EC19F000017A2B83
:101B58007AC017F0186A66C019F0B8EC19F00001DD
:101B68007A2B60A50FD07AC017F0186A1968B8ECFC
:101B780019F000017A2B7AC017F0186A1968B8ECC6
:101B880019F01CD063511DE07AC017F0186A61C0C3
:101B9800D9FF62C0DAFFDF50196EB8EC19F0000106
:101BA8007A2B7AC017F0186A20EE01F06151D92615
:101BB8006251DA22DF50196EB8EC19F000017A2B65
:101BC80014D0796B7AC017F0186A79516125D96EEB
:101BD800000E6221DA6EDF50196EB8EC19F00001C0
:101BE8007A2B792B070E7965EDD7765112E17AC0F9
:101BF80017F0186A43C019F0B8EC19F000017A2BF5
:101C08007AC017F0186A44C019F0B8EC19F000014E
:101C18007A2B645113E07AC017F0186A45C019F09E
:101C2800B8EC19F000017A2B7AC017F0186A46C090
:101C380019F0B8EC19F000017A2B14D0796B7AC03E
:101C480017F0186A7951D325D96E000ED421DA6EAF
:101C5800DF50196EB8EC19F000017A2B792B070EBA
:101C68007965EDD7796B10D07AC017F0186A795179
:101C78006725D96E000E6821DA6EDF50196EB8EC50
:101C880019F000017A2B792B6951795DEDE33F80DA
:101C980060BB60B504D0050E796F3F8203D0010E9A
:101CA800796F3F9279C017F0370E48EC1CF02DEC95
:101CB8001AF016C06EF017C06FF018C070F019C097
:101CC80071F081A0F2823FB004D03FA4010C3F9490
:101CD800000C2DEC1AF016C072F017C073F018C083
:101CE80074F019C075F000016E51725D6A6F6F5122
:101CF80073596B6F705174596C6F715175596D6F61
:101D08006D516C1105E1210E6A5D4E0E6B59D9E3D8
:101D1800A0EC0FF0430E1A6E450E12EC19F03F902E
:101D2800000C4750040D040EF326000EF422F4BEF6
:101D380005D0F45006E1280EF35C03E2010E936F20
:101D480027D04750040D040EF324166E000EF4201D
:101D5800176E196A280E186ECAEC17F01650936F92
:101D68004750040D040EF326000EF422F350F4102D
:101D78000FE04750040D040EF324166E000EF420F5
:101D8800176E196A280E186EB2EC18F016509327C1
:101D9800956BCDD0E26B960EE225D96EDA6A010E0C
:101DA800DA22770EDF6EE22B960EE225D96EDA6A1A
:101DB800010EDA2247C0DFFFE22B9551090D960E7E
:101DC800E225D96EDA6A010EDA22F3CFDFFFE22BC1
:101DD8009529090D960EE225D96EDA6A010EDA22E6
:101DE800F3CFDFFFE22B040E926F9551090DF3CF6D
:101DF80096F065D04750965D61E296510E0D840EBF
:101E0800F324D96E020EF420DA6EDFAE3DD096517F
:101E18000E0D7C0EF324D96E020EF420DA6E960EA7
:101E2800E225E16EE26A010EE222DFCFE7FFE22B54
:101E380096510E0D7D0EF324D96E020EF420DA6E43
:101E4800960EE225E16EE26A010EE222DFCFE7FF9D
:101E5800E22B96510E0D7E0EF324D96E020EF4205D
:101E6800DA6E960EE225E16EE26A010EE222DFCF1B
:101E7800E7FFE22B960EE225D96EDA6A010EDA2226
:101E880096C0DFFFE22B18D0960EE225D96EDA6AEB
:101E9800010EDA22DF68E22B960EE225D96EDA6AA5
:101EA800010EDA22DF68E22B960EE225D96EDA6A95
:101EB800010EDA22DF68DDD7040E9227962B9551A2
:101EC8008B6F8C6B8B2B000E8C23090E8B03F3CF3F
:101ED8008DF0F4CF8EF08C03F3508E2796518F6FD0
:101EE800906B8D518F5D9051800A916F8E51800A51
:101EF800915980E392C094F0270E946501D00BD0DD
:101F0800960EE225D96EDA6A010EDA22110EDF6E1C
:101F1800E22B942BF1D7EAC07BF0EBC07CF07D6B11
:101F28007E6B010E7F6F806BA1EC14F0952B9351A3
:101F3800955D01E22FD712008C90030E286E296A56
:101F48002A6A2B6A18D09A0E206E020E216E226A17
:101F5800236A2006000E215A225A235A2028F9E122
:101F68002128F7E12228F5E12328F3E12806000ECD
:101F7800295A2A5A2B5A285029102A102B10E3E1E3
:101F88008C800A0E2C6E2D6A2E6A2F6A18D09A0E33
:101F9800246E020E256E266A276A2406000E255A2C
:101FA800265A275A2428F9E12528F7E12628F5E1B9
:101FB8002728F3E12C06000E2D5A2E5A2F5A2C50A2
:101FC8002D102E102F10E3E1070E176E550E48EC5A
:101FD8001CF0540EC9EC1BF0326E32C01FF0070E15
:101FE8001F16F7E1306A316A304A312AE80E305C50
:101FF800030E3158F9E3010E176E1B0E48EC1CF066
:102008001768070E48EC1CF01768090E48EC1CF01E
:102018001768030E48EC1CF01768050E48EC1CF016
:10202800326A32500001D325D96E000ED421DA6EFF
:10203800DF50176E3250020DF3500B0F48EC1CF0B6
:10204800322A070E3264EDD7020E186E176E800E14
:10205800196EB8EC19F0020E186E030E176E196A95
:10206800B8EC19F0020E186E060E176E900E196E67
:10207800B8EC19F0020E186E070E176E800E196E66
:10208800B8EC19F0020E186E080E176E100E196EC5
:10209800B8EC19F0020E186E200E176E210E196E8C
:1020A800B8EC19F0800E176E750E48EC1CF0400E57
:1020B800176E7D0E48EC1CF0600E176E7F0E48EC14
:1020C8001CF0980E176E310E48EC1CF0950E176E2A
:1020D8005D0E48EC1CF0020E186E0F0E176E66ECC3
:1020E80019F0326E3250A00BA00AF5E1E60E176E19
:1020F800650E48EC1CF0020E186E176A030E196E76
:10210800B8EC19F0020E186E010E176E020E196E59
:10211800B8EC19F01D6A0001DC51D6EF1AF0666FB1
:1021280082EC16F0DF6B665137E16A6B6A510E0D6F
:10213800840EF324D96E020EF420DA6EDF6A6A5137
:102148000E0D7C0EF324D96E020EF420DA6EDF6ACF
:102158006A510E0D7D0EF324D96E020EF420DA6E4C
:10216800DF6A6A510E0D7E0EF324D96E020EF4203A
:10217800DA6EDF6A500E6A25D96EDA6A020EDA2242
:10218800DF6A640E6A25D96EDA6A020EDA22DF6A1D
:102198006A2B130E6A65CAD7E26B6A6B6A2B130E39
:1021A8006A65FCD7665145E0FC0E176E186A020E88
:1021B800196E010E1A6EB3EC1BF01F0E0001FC65C0
:1021C80001D01F0CEA0E176E186A196A020E1A6EF1
:1021D800B3EC1BF0FF0E176E186A030E196E010E92
:1021E8001A6EB3EC1BF0780E176E020E186E040E02
:1021F800196E180E1A6EB3EC1BF0480E176E186A9B
:10220800B80E196E010E1A6EB3EC1BF0FD0E176EA8
:10221800186ABB0E196E010E1A6EB3EC1BF0470E4E
:10222800176E186ABA0E196E010E1A6EB3EC1BF00F
:1022380028D0120EEB6F340EEA6FEA0E176E186A8A
:10224800196A020E1A6E4DEC17F0FC0E176E186A1A
:10225800020E196E010E1A6E4DEC17F0FF0E176E76
:10226800186A030E196E010E1A6E4DEC17F0780EEF
:10227800176E020E186E040E196E180E1A6E4DECBB
:1022880017F0DF0E0001686F010E696F67836751F1
:10229800870B4009676F66B102D0679502D00001CD
:1022A8006785679167C060F068C061F069C062F0D7
:1022B80033EC1BF064696569EA0E1A6E640E12EC61
:1022C80019F00001FC5134EC1CF00001DE6BDE81DA
:1022D800FF39F00BDE13F2881200FFC0E7F1030E9E
:1022E8000101E86FE96B2DEC1AF016C0CAF017C0AF
:1022F800CBF018C0CCF019C0CDF00001B00501E159
:10230800FF0C2DEC1AF016C0EAF117C0EBF118C05B
:10231800ECF119C0EDF1200E0101EA5FA10EEB5BB3
:10232800070EEC5B000EED5B0001FF6BDF897ED0D2
:102338002DEC1AF016C0EEF117C0EFF118C0F0F14D
:1023480019C0F1F10101EA51EE5D0001B16F01011F
:10235800EB51EF590001B26F0101EC51F059000146
:10236800B36F0101ED51F1590001B46FB45107E1A8
:10237800210EB15DA10EB259070EB35951E3EEC15A
:10238800EAF1EFC1EBF1F0C1ECF1F1C1EDF10101BE
:10239800E907E9294BE1010EE96FE807E82903E1BC
:1023A8000001DF99FF0C0001E26B960EE225D96E61
:1023B800DA6A010EDA22810EDF6EE22B960EE22532
:1023C800D96EDA6A010EDA22FCC0DFFFE22B960E24
:1023D800E225D96EDA6A010EDA22DEC0DFFFE22BCF
:1023E8000101F26BF251FE0FD96EDA6A960E000106
:1023F800E225E16EE26A010EE222DFCFE7FFE22B7F
:102408000101F22BF251EEE0EAC07BF0EBC07CF068
:1024180000017D6B7E6B010E7F6F806BA1EC14F069
:1024280058EC1DF0000902E063EC1DF00001DFB973
:102438007FD7E7C1FFF0DB511200226A2368246AC4
:1024480024500E0D840EF324D96E020EF420DA6E99
:10245800DFAE15D0BFC016F0C0C017F024500E0D67
:102468007C0EF324186E020EF420196EDFEC1BF0BC
:10247800000909E024C023F0010E226E08D02328A9
:1024880002E124C023F0242A130E2464D9D7232878
:1024980001E1F10C0001FF5102E02250120023C0BB
:1024A800DDF0246A2450BF25D96E000EC021DA6EF3
:1024B80023500E0D780E1E6E020E1F6E040E1E2681
:1024C800000E1F22F3501E26F4501F2224501E24F3
:1024D800E16E000E1F20E26EDFCFE7FF242A070E11
:1024E8002464E0D723500E0D840EF324D96E020E17
:1024F800F420DA6EDF8E20EE02F0C151D926C251E7
:10250800DA22DF501E6E010E1E1623500E0D840EA9
:10251800F324D96E020EF420DA6EDF501E18FE0B7B
:102528001E18DF6E246A2450C1251E6E000EC221BB
:102538001F6E030E1E24D96E000E1F20DA6E235064
:102548000E0D780E206E020E216E0D0E2026000E46
:102558002122F3502026F450212224502024E16E19
:10256800000E2120E26EDFCFE7FF242A2450DBE0B3
:1025780023C0DBF0DF99E0EC19F0476E470E176EC9
:10258800186ABA0E196E010E1A6E4DEC17F085D73F
:102598008F6F00018F294FE1906B90510E0D840EC3
:1025A800F324D96E020EF420DA6EDFAE24D0E26B8B
:1025B800960EE225D96EDA6A010EDA22820EDF6EF5
:1025C800E22BEAC07BF0EBC07CF090510E0D7C0E44
:1025D800F3247D6F020EF4207E6F010E7F6F000ED4
:1025E800806BA1EC14F08B6B8C6B8B4B8C2B8B2939
:1025F8000F0E8C59FAE390510E0D840EF324D96E08
:10260800020EF420DA6EDF6A90510E0D780EF32474
:10261800176E020EF420186E90510E0DF350040F31
:10262800196E0E0E1A6E4DEC17F00001902B130E5A
:102638009065B3D7130C8F510E0D840EF324D96E09
:10264800020EF420DA6EDFAE1200E26B960EE2257F
:10265800D96EDA6A010EDA22820EDF6EE22BEAC048
:102668007BF0EBC07CF08F510E0D7C0EF3247D6F58
:10267800020EF4207E6F010E7F6F000E806BA1ECBE
:1026880014F08D6B8E6B8D4B8E2B8D290F0E8E5902
:10269800FAE38F510E0D840EF324D96E020EF42046
:1026A800DA6EDF6A8F510E0D780EF324176E020E64
:1026B800F420186E8F510E0DF350040F196E0E0E84
:1026C8001A6E4DEF17F0040E226E22C01FF0030E93
:1026D8001F1661E122501F6E206A030E1F26000E8E
:1026E800202220BE05D0205056E1280E1F5C53E260
:1026F80022501D241F6E000E1E20206E030E1F2464
:10270800D96E000E2020DA6EDF50216E2150040DA4
:10271800030EF324D96E020EF420DA6E21C0DFFF17
:1027280022501D24D96E000E1E20DA6E2150040D91
:10273800000EF324E16E020EF420E26EDFCFE7FF15
:1027480022501D241F6E000E1E20206E1F28D96ED9
:10275800000E2020DA6E2150040D010EF324E16EE4
:10276800020EF420E26EDFCFE7FF22501D241F6E19
:10277800000E1E20206E020E1F24D96E000E20208F
:10278800DA6E2150040D020EF324E16E020EF420DD
:10279800E26EDFCFE7FF222A270E226496D742EFA8
:1027A80018F01650186E1750196E1A6A1B6AA00E88
:1027B8001802F3CF1CF0F4CF1DF01E6A1F6A19022D
:1027C800F3501D26F4501E22000E1F220F0E180271
:1027D800F3501D26F4501E22000E1F22A00E1A02CE
:1027E800F3501E26F4501F220F0E1902F3501E2616
:1027F800F4501F22000E1802F3501E26F4501F2218
:10280800A00E1B02F3501F260F0E1A02F3501F26AC
:10281800000E1902F3501F26000E1802F3501F264F
:102828001CC020F01DC021F01EC022F01FC023F0E4
:10283800560E2026FF0E21222222232223BEFF0C21
:102848002350221021100BE1C40E205C08E2120074
:1028580000F0D90E2026FF0E21222222232223BE99
:102868001200235022102110F3E12004F1E212009B
:102878008C8E8D90176A080E166ED5EC13F08D802D
:10288800176A500E166ED5EC13F0300E41EC1DF0A1
:10289800176A080E166ED5EC13F0300E41EC1DF0D9
:1028A800176A010E166ED5EC13F0300E41EC1DF0D0
:1028B800176A010E166ED5EC13F0390E41EC1DF0B7
:1028C800176A010E166ED5EC13F0140E41EC1DF0CC
:1028D800176A010E166ED5EC13F0560E41EC1DF07A
:1028E800176A010E166ED5EC13F06D0E41EC1DF053
:1028F800176A010E166ED5EC13F0700E41EC1DF040
:10290800176A010E166ED5EC13F00E0E41EC1DF091
:10291800176A010E166ED5EC13F0060E41EC1DF089
:10292800176A010E166ED5EC13F0010E41EC1DF07E
:10293800176A280E166ED5EF13F0836F0001846BAB
:102948007F5103E0816B812B02D00001816B8451A0
:102958008119FC0B8119846F835103E1816B812BF1
:1029680002D00001816B813B814784518119DF0BC3
:102978008119846F83B102D0849502D000018485C7
:1029880080B102D0849702D000018487886B83517C
:10299800010ED8B4000E876F835103E1816B812B40
:1029A80002D00001816B813B8147814784518119A5
:1029B800BF0B8119846F848F7DC085F07EC086F03F
:1029C8007BC089F07CC08AF020EE84F000EE60F0D5
:1029D800060EDBCFEBFFE806FCE2960E676F010EF2
:1029E800686FE2C069F0FCEC0CF00001826FE26BEA
:1029F80082511200780ED36E9B8CC090550EA76E34
:102A0800AA0EA76E0E01FF91110EE76F170EFB6F4E
:102A18000A0EDB6F090ED96F550EA76EAA0EA76EA8
:102A2800FF81FC0E0F01486F1F0E496F8B94899C24
:102A3800899E9494929C929E93829384F19E928212
:102A48009280898A8C808C82929A959095929380B4
:102A5800F19CF292F288938A949E9398C00EC76E66
:102A6800200EC66E8C8A959A8D8496948D928C8E43
:102A78008C968D909692959E95969690958C959419
:102A88009598736A310E726EA49E176A640E166E5C
:102A9800D5EC13F03CEC14F0F28EF28C120001012C
:102AA800E76F0001E96BEAC07BF0EBC07CF07C0EBD
:102AB8007D6F020E7E6F010E7F6FE7C180F0000E02
:102AC800A1EC14F02DEC1AF016C0E8F117C0E9F1EA
:102AD80018C0EAF119C0EBF12AD02DEC1AF016C093
:102AE800ECF117C0EDF118C0EEF119C0EFF158EC98
:102AF8001DF00101E851EC5D0001B06F0101E951E1
:102B0800ED590001B16F0101EA51EE590001B26FB0
:102B18000101EB51EF590001B36FB351B21105E157
:102B2800510EB05DC30EB15902E3E90503E100019E
:102B3800E951D3E0E9511200E26B94C0D9FF95C086
:102B4800DAFF960EE225E16EE26A010EE222DFCF9D
:102B5800E7FFE22B20EE01F09451D9269551DA22B5
:102B6800960EE225E16EE26A010EE222DFCFE7FF70
:102B7800E22B20EE02F09451D9269551DA22960ED6
:102B8800E225E16EE26A010EE222DFCFE7FFE22BE7
:102B9800030E976F97519125D96E000E9221DA6E28
:102BA800960EE225E16EE26A010EE222DFCFE7FF30
:102BB800E22B972B270E9765EDD78F6B935150EC2F
:102BC8001BF0966F965102E128EC1DF0000196511A
:102BD80012000001B56FDF0E1B6E010E1C6E0DECAE
:102BE80017F00001B55104E0010E93EC10F039D054
:102BF800899C899E000E93EC10F0190E34EC1CF0A1
:102C0800000903E1190E6CEC1DF0000E6AEC1BF0D4
:102C1800000E0001776F190EF5EC1AF00001B06B89
:102C280071EC11F0406E402807E0010E776F190E25
:102C3800F5EC1AF0486A0BD00A0E206E000E216AD5
:102C4800226A236A246A3DEC19F0010E486E480E88
:102C5800176E186AB80E196E010E1A6E4DEC17F041
:102C6800898C4850B9EF1CF01A6A40D01A500E0DE2
:102C7800840EF324D96E020EF420DA6EDFAE35D05E
:102C88001A500E0D7C0EF324D96E020EF420DA6E63
:102C980010EE01F01650E1261750E222DE50E61839
:102CA80024E11A500E0D7D0EF324D96E020EF42085
:102CB800DA6E10EE02F01650E1261750E222DE50CE
:102CC800E61813E11A500E0D7E0EF324D96E020E8B
:102CD800F420DA6E10EE03F01650E1261750E222C7
:102CE800DE50E61802E11A5012001A2A47501A5C00
:102CF800BDE347501A18D8B4FF0E1200010E1B6E20
:102D08000001D76BD86B176A020E166EF40E186E98
:102D18009CEC1BF01B16176A010E166EF00E186E4F
:102D28009CEC1BF01B16176A010E166EEC0E186E43
:102D38009CEC1BF01B16010E176E180E166EEE0E8D
:102D4800186E9CEC1BF01B16176A040E166EF60E16
:102D5800186E9CEC1BF01B16176A010E166EF20E0D
:102D6800186E9CEC1BF01B16176A010E166EF80EF7
:102D7800186E9CEC1BF01B16176A010E166EFA0EE5
:102D8800186E9CEC1BF01B16120081B210D00001CB
:102D9800E0513EE1010EE06F2DEC1AF016C000F193
:102DA80017C001F118C002F119C003F1010C81B478
:102DB80010D00001E0512CE1010EE06F2DEC1AF06B
:102DC80016C000F117C001F118C002F119C003F1D3
:102DD800020C2DEC1AF016C024F017C025F018C00C
:102DE80026F019C027F001010051245C206E015122
:102DF8002558216E02512658226E03512758236EFA
:102E08002350221003E1400E215C02E30001E06B35
:102E1800000C1F6A1F501B5C1D6E000E1C581E6E96
:102E2800070E1D24176E000E1E20186E1F50FA0F75
:102E3800196E010E1A6EB3EC1BF01F2A020E1F64E6
:102E4800E9D720EE04F01B50D9261C50DA22DF689F
:102E580020EE03F01B50D9261C50DA22FE0EDF6E3E
:102E68001F6A1F501B5C1D6E000E1C581E6E020E42
:102E78001D24176E000E1E20186E1F50FD0F196EB0
:102E8800010E1A6EB3EC1BF01F2A020E1F64E9D75D
:102E9800020C000EF2B8010E1C6EF2988C9A050E08
:102EA8001DEC1DF05EEC1DF01D6E8C8A69EC1DF0AA
:102EB8001DB0F4D78C9A060E1DEC1DF08C8A69ECB7
:102EC8001DF08C9A020E1DEC1DF019501DEC1DF022
:102ED8001D6A15D017C0D9FF18C0DAFFDF501DECE6
:102EE8001DF0174A182A1A061D2A19501D241B6E90
:102EF8000F0E1B1604E18C8A1D501926CFD71A50C5
:102F0800E9E18C8A1CB002D0F29801D0F288120054
:102F180002EE78F011EE18F0EE6AE550E150FCE1AF
:102F2800E250FAE102EE00F0780EEE6AE806FDE102
:102F380001EE00F0E70EEE6AE806FDE100EEBCF0F7
:102F4800420EEE6AE806FDE100EE33F0160EEE6A78
:102F5800E806FDE1D60EF66E3A0EF76E000EF86E34
:102F68000900F5CFFEF00900F5CFFFF0DC0EF66E94
:102F78003A0EF76E000EF86E0900F5CF49F04A9048
:102F88004A92000EF86E0001A9EF1CF01B6A19AEF8
:102F980006D0186C191ED8B0192A010E1B6E17AE70
:102FA80006D0166C171ED8B0172A010E1B1A1C6AF9
:102FB8001D6A185019101BE0010E1A6E04D0D89023
:102FC800183619361A2A19AEFAD7D8901C361D3673
:102FD8001850165C1950175805E31850165E19500A
:102FE800175A1C80D890193218321A2EEED71B5057
:102FF80004E01C6C1D1ED8B01D2A1CC016F01DC094
:1030080017F01200800E41EC1DF0186ABE0E18244D
:10301800D96EDA6A010EDA22DF5004E1200E39ECAB
:103028001DF009D0BE0E1824D96EDA6A010EDA2214
:10303800DF5039EC1DF0182A0F0E1864E7D7C00EC0
:1030480041EC1DF0100E186EBE0E1824D96EDA6A07
:10305800010EDA22DF5004E1200E39EC1DF009D010
:10306800BE0E1824D96EDA6A010EDA22DF5039EC66
:103078001DF0182A1F0E1864E7D71F0C1B6A48504A
:10308800D8A412001C6A1AD01C50040D000EF32498
:10309800D96E020EF420DA6E0101DF51DE180DE15F
:1030A8001C50040D010EF324D96E020EF420DA6EC2
:1030B800DE50E01902E1010E1B6E1C2A0001E751E7
:1030C800166E176A162A000E17221C50186E196AF7
:1030D8001650185C1950800A1A6E1750800A1A5830
:1030E800D3E31B50D8A41200010EE86F010C96EC34
:1030F8001CF0BE0E226E010E236E810E246EFF0E92
:10310800256E68EC04F0CE0E226E010E236EFF0EC3
:10311800246EFE0E256E73C0D9FF74C0DAFFDF502F
:10312800266E276A20EE01F07351D9267451DA22EF
:10313800DF50286E296A20EE02F07351D9267451A7
:10314800DA22DF502A6E2B6A68EC04F006EC18F0DD
:10315800040E176EB00E166ED5EF13F01B6A17AE7D
:1031680006D0166C171ED8B0172A010E1B6E19AEA2
:1031780004D0186C191ED8B0192A1850191017E065
:10318800010E1A6E04D0D890183619361A2A19AEBC
:10319800FAD71850165C1950175804E31850165EE1
:1031A8001950175AD890193218321A2EF2D71B50C4
:1031B80004E0166C171ED8B0172A16C016F017C0F0
:1031C80017F01200926B92510E0D840EF324D96EF3
:1031D800020EF420DA6EDFAE1BD0500E9225D96EA7
:1031E800DA6A020EDA22DF500CE1640E9225D96EFB
:1031F800DA6A020EDA22DE2804E09251CCEC12F0F0
:1032080007D0500E9225D96EDA6A020EDA22DF6AEA
:103218000001922B130E9265D6D7130C1B6E1B5010
:10322800D96EDA6ADF50456E1B50D96EDA6AD92A30
:10323800DF50466E1A50D96EDA6ADF50436E1A5064
:10324800D96EDA6AD92ADF50446E45C017F0070EE6
:1032580048EC1CF046C017F0090E48EC1CF043C0BF
:1032680017F0030E48EC1CF044C017F0050E48EFA9
:103278001CF0256E21D0120E0001EB6F340EEA6FA0
:1032880026682768EA0E1A6E260E12EC19F02DEC45
:103298001AF016C0CAF017C0CBF018C0CCF019C08D
:1032A800CDF02DEC1AF016C0CEF017C0CFF018C034
:1032B800D0F019C0D1F012002550DDE0010AD8A4E1
:1032C800030A1200000EF2B8010E1C6EF298899AD9
:1032D80017C019F018C01AF0D8901A321932D890BD
:1032E8001A321932D8901A32193219507F0B8009C4
:1032F80031EC1DF01738E846E00B31EC1DF0000EFC
:1033080031EC1DF01B6E898A1CB002D0F29801D0F6
:10331800F2881B501200000EF2B8010E076EF298E8
:10332800899A02C004F003C005F0D890053204322F
:10333800D89005320432D8900532043204507F0BFD
:10334800800949EC1DF00238E846E00B49EC1DF015
:10335800000E49EC1DF0066E898A07B002D0F2987B
:1033680001D0F28806501200000EF2B8010E1C6E51
:10337800F298899A17C01AF018C01BF0D8901B321F
:103388001A32D8901B321A32D8901B321A321A507D
:103398007F0B800931EC1DF01738E846E00B100967
:1033A80031EC1DF0195031EC1DF0898A1CB002D0A7
:1033B800F29801D0F2881200166A176A17500E0D9B
:1033C8007C0EF324D96E020EF420DA6EDF5014E17D
:1033D80017500E0D7D0EF324D96E020EF420DA6E0E
:1033E800DF500AE117500E0D7E0EF324D96E020E3F
:1033F800F420DA6EDF5001E0162A172A130E17643C
:10340800DDD71650120058EC1DF0B06FB0511EE019
:10341800E12BE1C074F0E35151EC1DF0070E176E7B
:10342800D00E166ED5EC13F0897E48500AE10001E3
:10343800BC51030B06E1C1C073F0C2C074F07BEC51
:1034480018F063EC1DF04850B9EC1CF00001B051C5
:1034580012009D901E6A1F6A1B6ACECF1CF0CFCF48
:103468001DF01C2808E11D2806E11B2A1B041A6E02
:10347800020E1A64F2D79EA004D01E2A412801E148
:103488001F2A41501E2642501F269D801CC016F040
:103498001DC017F01EC018F01FC019F012001B6ADB
:1034A8001C6A185019101BE0010E1A6E04D0D8902F
:1034B800183619361A2A19AEFAD7D8901B361C3680
:1034C8001850165C1950175805E31850165E195015
:1034D800175A1B80D890193218321A2EEED71BC0F3
:1034E80016F01CC017F0120096EC1CF0BE0E226EEF
:1034F800010E236E73C024F074C025F075C026F049
:10350800276A68EC04F006EC18F000017651D8B48C
:103518001200326A176AFA0E166ED5EC13F0322AC8
:10352800070E3264F7D7070C736F96EC1CF0BE0ECB
:10353800226E010E236EA20E246EFF0E256E73C03E
:1035480026F0276A32C028F0296A68EC04F0CE0E0B
:10355800226E010E236EB20E246EFF0E256E68ECED
:1035680004F006EF18F0E26B960EE225D96EDA6ADF
:10357800010EDA227A0EDF6EE22BEAC07BF0EBC096
:103588007CF07C0E7D6F020E7E6F010E7F6F000E49
:10359800806BA1EC14F08B6F8B51D8A41200010E34
:1035A800E86F010C1E6E0A0E1E64000C1A0E1E64D3
:1035B80001D0000C1EC0DCF0020E186E176A1E50F7
:1035C800100DF350500F0309196EB8EC19F0040EE2
:1035D800176E6D0E48EC1CF0176A6D0E48EC1CF067
:1035E800010C786F000177510BE1C70E736FFD0E68
:1035F800746F78C075F0010E766F78EC1AF00AD007
:10360800070E736FFE0E746F78C075F0010E766F3B
:1036180078EC1AF0030E176EE80E166ED5EF13F05D
:103628001F50201017E0010E216E04D0D8901F36CD
:103638002036212A20AEFAD71F501D5C20501E5874
:1036480004E31F501D5E20501E5AD89020321F32AE
:10365800212EF2D71DC01DF01EC01EF0120060C042
:10366800D2F061C0D3F062C0D4F0D6CF3EF00B0EDA
:10367800DC6FA0EC0FF03F6A0001636B6351450DEE
:103688000C0EF324D96E010EF420DA6EDF6A632B78
:10369800010E6365F3D7010C906F000190510E0D78
:1036A800840EF324D96E020EF420DA6EDFAE000C1D
:1036B80090510E0D7C0EF3248B6F020EF4208C6F4C
:1036C800010E8D6F8FC08EF0E7EF1CF01F6E030E9A
:1036D8001F6401D0030C1FC0FFF0FFC01EF01E3A8C
:1036E800F00E1E160001DE510F0B1E10DE6FFF0ECE
:1036F800176E186A030E196E010E1A6E4DEF17F049
:10370800E26B960EE225D96EDA6A010EDA22DA0E3B
:10371800DF6EE22BEAC07BF0EBC07CF08BC07DF063
:103728008CC07EF0010E7F6F000E806BA1EF14F04D
:103738001650D725196E1750D8211A6E1904800E05
:103748001A5801E3000C1850D96EDA6AD7C0DEFFA8
:10375800D8C0DDFF1650D7271750D823010C8C9AF4
:10376800030E1DEC1DF019501DEC1DF00AD05EEC87
:103778001DF017C0D9FF18C0DAFFDF6E174A182AE4
:103788001A061A50F4E18C8A1200176E000EF2B86D
:10379800010E196EF298899A175031EC1DF0000E3F
:1037A80031EC1DF0186E898A19B002D0F29801D058
:1037B800F288185012001C6A1C501824D96E000E8A
:1037C8001920DA6E1C501624E16E000E1720E26EE6
:1037D800DE50E61801E0000C1C2A070E1C64ECD72A
:1037E800010C026E000EF2B8010E046EF298899A6E
:1037F800025049EC1DF0000E49EC1DF0036E898A59
:1038080004B002D0F29801D0F2880350120016C01A
:103818001CF017C01DF008D01CC0D9FF1DC0DAFF6E
:1038280018C0DFFF1C4A1D2A1A06D8A01B061A2832
:10383800F3E11B28F1E112007E0E0001736FFE0E0A
:10384800746F756B766B78EC1AF0C9EC16F00001A2
:10385800776F770501E1000C020E7719F6E1010C8C
:103868001F6E1D6A1F50D6EC1AF000090CE01FC02D
:10387800FCF0FC0E176E186A020E196E010E1A6E15
:103888004DEC17F0010C000C186E000EF2B8010E8A
:10389800196EF298899A185031EC1DF0175031ECD6
:1038A8001DF0898A19B002D0F29801D0F28812006E
:1038B800036E000EF2B8010E046EF298899A035056
:1038C80049EC1DF0025049EC1DF0898A04B002D081
:1038D800F29801D0F2881200176E080E186E196A55
:1038E800D89017341934196ED89017361650195CB9
:1038F80002E31650195E182EF3D71950120016500D
:103908001802F3CF1AF0F4CF1BF016501902F35037
:103918001B2617501802F3501B261AC016F01BC09E
:1039280017F01200010E41EC1DF0176A020E166E18
:10393800D5EC13F0BE0E166E010E176E196A200E26
:10394800186E1B6A1A6E0BEF1CF0FEEC14F003ECF9
:103958001DF0C9EC1CF020EC1CF00101F86FF851C7
:10396800EDEC15F067EC1DF0FDD70001776F77518E
:1039780004E0440E736FFE0E03D0E70E736FFD0E66
:10398800746F756B766B78EF1AF0260E0001736F03
:10399800FE0E746F756B010E766F78EC1AF0070ED9
:1039A800176ED00E166ED5EF13F08B6FEAC07BF052
:1039B800EBC07CF000017D6B7E6B7F6B8BC080F071
:1039C800010EA1EF14F0EAC07BF0EBC07CF08BC0D5
:1039D8007DF08CC07EF0000E7F6B8EC080F0A1EF72
:1039E80014F0186E176A3A0E186005D02F0E186476
:1039F80002D0010E176E17C016F016301200380EDE
:103A0800CD6E9A6ACF6ACE6ACECFD9F0CFCFDAF030
:103A18009E909D80CD801200020E4960020C495094
:103A2800450D0C0EF324D96E010EF420DA6EDF6A10
:103A3800000C166EA49E729E16C075FF72BEFBD750
:103A4800A4AEFED7A49E1200920E736FFF0E746F81
:103A5800756B010E766F78EF1AF0166EC69E16C05B
:103A6800C9FFC7A0FED7C9501200176E8C9E8C865E
:103A780017501DEC1DF08C8E1200176E8C9E8C96C4
:103A880017501DEC1DF08C8E1200016EC69E01C0F1
:103A9800C9FFC7A0FED7C9501200756F74C032F0B5
:103AA8000001755198EF1AF0C8EC00F00001DFB77B
:103AB800010C000C000E1DEC1DF0755012000001E9
:103AC800DF9710EF1DF094EF0AF000F012000103E9
:063AD80012001200FF00C5
:10FCF8000020B2202020B22020B220B220202020D4
:10FD080020B220B20D0AB220B220B220B2202020A8
:10FD1800B22020B22020B220200D0AB22020B2202A
:10FD280020B220B220B22020B22020B220B20D0A88
:10FD3800B22020B22020B220B22020B220B220B2BD
:10FD48002020B20D0AB22020B22020B220B22020FA
:10FD580020B220B2202020B20D0A2020202020200E
:10FD6800202020202020202020202020200D0A01D3
:10FD7800000800400000020010008001000A006432
:10FD880000E803102701001000000100100D0A0D03
:10FD98000A436F6E6E656374696F6E2020202020A1
:10FDA800506565724C6F6E67416464726573732049
:10FDB8002020202050656572496E666F0D0A004349
:10FDC8006F6E6E656374696E67205065657220207A
:10FDD8006F6E204368616E6E656C20256420005349
:10FDE8005731203A20556E6963617374202020537F
:10FDF8005732203A204E657874204E6F6465002093
:10FE0800436F6E6E6563746564205065657220206B
:10FE18006F6E204368616E6E656C202564005369BF
:10FE28006D706C65205354415220202020204D5283
:10FE38004632344A3430204E6F6465005043203ACD
:10FE4800535731206F72205357322020746F20424D
:10FE5800726F616443617374005357313A20427280
:10FE68006F61646361737420205357323A20556E72
:10FE78006963617374005357313A4E6577204E6554
:10FE880074776F726B205357323A467265657A659C
:10FE9800720042726F616463617374205061636BB6
:10FEA8006574207769746820525353492000556E51
:10FEB8006963617374205061636B6574207769743A
:10FEC80068205253534920005242303A2530326458
:10FED8002D2530327825303278253032782D6D65F1
:10FEE800005242303A253032642D253032782530A0
:10FEF8003278253032780020416464726573733A31
:10FF080025303278253032782530327800446174D3
:10FF1800615F53656E64696E675F4661696C212134
:10FF2800000D0A0D0A4D7920416464726573733AB5
:10FF380020307800454E445F444556494345532098
:10FF48003A25303264003031323334353637383977
:10FF58004142434445460030313233343536373830
:10FF680039616263646566005242323A20436861CF
:10FF78006E6765206E6F646500446174612050612E
:10FF8800636B65742066726F6D0020556E696361DE
:10FF98007374204661696C65640054583A2533646B
:10FFA800202C2052583A253364004D6573736167DD
:10FFB8006520436F756E74002020202020202020AB
:10FFC80020202020200020204368616E6E656C3A56
:10FFD8002000202050414E49443A20307800536593
:10FFE800637572656420002066726F6D20000000E2
:08FFF800ACF5DAFBFFF9FFF1A3
:00000001FF
