:040000002AEF00F0F3
:0E0008005F82E1CF29F0E2CF2AF092EF08F0FC
:100018005F80D8CF66F0E8CF67F0E0CF68F0F2B243
:10002800F2A801D0F292600E0001E11907E1280E52
:10003800F0EC16F0656FD89065314E6E68C0E0FF41
:1000480067C0E8FF66C0D8FF5F901000D6EF15F0D4
:10005800790E8F6F78D3250E951909E075C0D9FFF1
:1000680076C0DAFF95C0DFFF754B762B6CD3936BA8
:10007800946B966B976B09D0968705D0968103D0C1
:10008800978701D09685774B782B77C0F6FF78C095
:10009800F7FF0800F550200AF1E0030AF1E00E0A24
:1000A800EBE01D0AEFE096B7969577C0F6FF78C0AB
:1000B800F7FF0800F55059EC19F02EE3936B946B99
:1000C80093C069F094C06AF06C6B0A0E6B6FF6EC23
:1000D80018F069C093F06AC094F0D00E816F8269FD
:1000E80077C0F6FF78C0F7FF0800F550836F846B80
:1000F80081518327825184238351932784519423E8
:10010800774B782B77C0F6FF78C0F7FF0800F550DB
:1001180059EC19F014E3D4D777C0F6FF78C0F7FF8D
:100128000800F5502A0A0BE18F51D96EDA6ADECF42
:1001380093F0DDCF94F0020E8F27774B782B77C0A2
:10014800F6FF78C0F7FF0800F5502E0A30E1978DCA
:10015800774B782B77C0F6FF78C0F7FF0800F5508B
:100168002A0A0AE18F51D96EDA6ADF50926F020EBD
:100178008F27774B782B8AD0926B0FD077C0F6FFFA
:1001880078C0F7FF0800F5CF81F092510A0DF350BF
:100198008125D00F926F774B782B77C0F6FF78C008
:1001A800F7FF0800F55059EC19F070E3E7D7926BA8
:1001B8006DD0968D88D0968B968F85D092510FE012
:1001C80092C081F0826B81BF82078D51815D8E5113
:1001D800825905E292518D6F8E6B8DBF8E079351B8
:1001E8008D5D94518E5905E28D51935F8E51945BCC
:1001F80002D0936B946B96B71DD008D075C0D9FF09
:1002080076C0DAFF200EDF6E754B762B9307D8A0E9
:1002180094079329F3E194290DE0F0D78C51D96E16
:10022800DA6A75C0E1FF76C0E2FFDFCFE7FF8C2B0B
:10023800754B762B8D07D8A08E078D29EFE18E2977
:10024800EDE196A780D208D075C0D9FF76C0DAFF55
:10025800200EDF6E754B762B9307D8A09407932951
:10026800F3E1942901E16FD2EFD78F51D96EDA6AA1
:10027800DF50956F020E8F27950E8C6F000E8E6FD4
:10028800010E8D6F9BD7C00E96131DD077C0F6FF59
:1002980078C0F7FF774B782B0800F5CF95F095518C
:1002A80001E15DD2580A87E03B0ADFE0070A0BE06C
:1002B8000D0A09E0060A01E17CD71A0AE4E00D0AF2
:1002C80001E17AD7D9D796C081F0C00E811712E123
:1002D8008F51D96EDA6ADECF90F0DDCF91F0020E41
:1002E8008F2791AF10D0030E9613906D911FD8B041
:1002F800912B09D08F51D96EDA6ADECF90F0DDCF1D
:1003080091F0020E8F27925147E19051911144E1EB
:10031800922B42D0010E956F050E951946E0955126
:10032800020D7B0EF324F66EFD0EF420F76E090025
:10033800F550905D0900F550915937E3952BECD7AE
:10034800010E956F040E951930E09551020D850E3A
:10035800F324F66EFD0EF420F76E0900F550905D5B
:100368000900F550915921E3952BECD7010E956FB3
:10037800060E95191AE09551020D6F0EF324F66ECC
:10038800FD0EF420F76E0900F550905D0900F55058
:1003980091590BE3952BECD79651C00BBBE0400A63
:1003A800E5E0C00ACDE0400AB5E09551800A816FCA
:1003B8009251800A815D03E292C095F009D0925172
:1003C800800A816F9551800A815D02E295C092F0A2
:1003D8009351941108E096C081F0030E811703E051
:1003E8009307D8A0940797AD13D0800E92BF7F0EC5
:1003F800816F9351925D9451800A815907E292511D
:10040800935F000E92BFFF0E945B02D0936B946BC8
:10041800C40E816F080E826F96C083F097C084F077
:100428008151831782518417400E83190AE1080EFF
:10043800841907E19351941124E09307D8A09407F5
:1004480020D0C00E816F080E826F96C083F097C0CF
:1004580084F08151831782518417800E831911E12A
:10046800080E84190EE194BF0AD0945103E1030EDB
:10047800935D05E3FE0E9327FF0E942302D0936B42
:10048800946B800E95BF7F0E816F9351955D94514B
:10049800800A815907E29551935F000E95BFFF0EC0
:1004A800945B02D0936B946B96A54FD096C081F065
:1004B800030E811709E075C0D9FF76C0DAFF2D0E4B
:1004C800DF6E754B762B31D096A106D075C0D9FF5B
:1004D80076C0DAFF200EF4D7C00E816F080E826F47
:1004E80096C083F097C084F0815183178251841796
:1004F800800E83191AE1080E841917E175C0D9FF17
:1005080076C0DAFF300EDF6E754B762B96BB03D0C4
:10051800876B780E02D0876B580E866F75C0D9FF2F
:1005280076C0DAFF86C0DFFFCCD79351941101E182
:10053800F2D075C0D9FF76C0DAFF300EDF6E754B8A
:10054800762B9307D8A09407F0D79351941110E015
:1005580096B70ED075C0D9FF76C0DAFF200EDF6ED1
:10056800754B762B9307D8A0940793519411F2E119
:1005780096C081F0030E811709E075C0D9FF76C0D7
:10058800DAFF2D0EDF6E754B762B08D096A106D0BC
:1005980075C0D9FF76C0DAFF200EF4D7C00E816F80
:1005A800080E826F96C083F097C084F0815183173C
:1005B80082518417400E83190CE1080E841909E151
:1005C80075C0D9FF76C0DAFF300EDF6E754B762B1B
:1005D800A2D0C00E816F080E826F96C083F097C0BC
:1005E80084F08151831782518417800E83191BE18F
:1005F800080E841901E08FD075C0D9FF76C0DAFFE4
:10060800300EDF6E754B762B96BB03D0896B780E58
:1006180002D0896B580E886F75C0D9FF76C0DAFF93
:1006280088C0DFFFD3D777D09251020D7B0EF32419
:10063800F66EFD0EF420F76E0900F5CF6BF00A0098
:10064800F5CF6CF090C069F091C06AF0CBEC16F071
:1006580069C070F06AC071F0736B0A0E726FB3EC08
:1006680017F0705145D090C069F091C06AF092516E
:10067800020D850EF324F66EFD0EF420F76E0900C8
:10068800F5CF6BF00A00F5CF6CF0CBEC16F06951A2
:100698000F0B856F96BB04D0490E8A6FFF0E03D0EF
:1006A800380E8A6FFF0E8B6F85518A25816F000E79
:1006B8008B21826F81C0F6FF82C0F7FF0800F5CF5B
:1006C80095F022D090C069F091C06AF09251020D65
:1006D8006F0EF324F66EFD0EF420F76E0900F5CFC9
:1006E8006BF00A00F5CF6CF0CBEC16F06951070BF4
:1006F800300F956F09D09651C00B96E0400AE2E0A2
:10070800C00AB1E0400A90E075C0D9FF76C0DAFFB0
:1007180095C0DFFF5BD792079229EDE196B794BFAA
:1007280012D0945102E193050EE375C0D9FF76C04B
:10073800DAFF200EDF6E754B762B9307D8A094074F
:1007480093519411F2E177C0F6FF78C0F7FF774B29
:10075800782B0800F5CF95F0955101E07CD475C051
:10076800D9FF76C0DAFFDF6A000C31EC16F069C0F9
:1007780089F16AC08AF16BC08BF16CC08CF1DB0E19
:10078800986FFF0E996F9A6B9B6B94EC17F031EC96
:1007980016F069C044F06AC045F06BC046F06CC002
:1007A80047F001018951445CE16F8A514558E26F75
:1007B8008B514658E36F8C514758E46FE45108E178
:1007C800810EE15D960EE259980EE35901E25BD283
:1007D800010E0001E76FE3EC19F0020E6FEC15F063
:1007E800D00E986FFF0E996F9A6B9B6B94EC17F075
:1007F800030E6A6FE80E696FFEEC0FF0000E1BEC3B
:1008080019F031EC16F069C08DF16AC08EF16BC039
:100818008FF16CC090F137D231EC16F069C091F1CC
:100828006AC092F16BC093F16CC094F101018D51D3
:10083800915DE16F8E519259E26F8F519359E36F39
:1008480090519459E46FE45107E1410EE15D4B0E7C
:10085800E2594C0EE3590CE3A6EC15F031EC16F016
:1008680069C08DF16AC08EF16BC08FF16CC090F1D8
:10087800D0EC19F0000910E0E42BE4C09AF0E6513E
:10088800C9EC19F0070E6A6FD00E696FFEEC0FF015
:10089800897EDAEC19F0B2D1ADEC12F00101EA6F01
:1008A800EA0504E0020EEA1901E0A8D1EC6B010E9A
:1008B800E96F9DD1E2EC18F00101EC510001F21949
:1008C8003FE1B80E756F010E766FCC0E776FFE0E96
:1008D800786F0101EC51040D3A0EF324D96E010E24
:1008E800F420DA6EDF500001796F7A6B0101EC5168
:1008F800040D370EF324D96E010EF420DA6EDF50A2
:1009080000017B6F7C6B0101EC51040D380EF32460
:10091800D96E010EF420DA6EDF5000017D6F7E6B18
:100928000101EC51040D390EF324D96E010EF420A7
:10093800DA6EDF5000017F6F806B2CEC00F03ED048
:10094800B80E756F010E766FE50E776FFE0E786F35
:100958000101EC51040D3A0EF324D96E010EF42076
:10096800DA6EDF500001796F7A6B0101EC51040DEA
:10097800370EF324D96E010EF420DA6EDF50000131
:100988007B6F7C6B0101EC51040D380EF324D96E9A
:10099800010EF420DA6EDF5000017D6F7E6B0101DD
:1009A800EC51040D390EF324D96E010EF420DA6EE1
:1009B800DF5000017F6F806B2CEC00F0B80E756F74
:1009C800010E766FE50E776FFE0E786F0101EC5120
:1009D800040D3A0EF324D96E010EF420DA6EDF50BE
:1009E8000001796F7A6B0101EC51040D370EF32485
:1009F800D96E010EF420DA6EDF5000017B6F7C6B3C
:100A08000101EC51040D380EF324D96E010EF420C7
:100A1800DA6EDF5000017D6F7E6B0101EC51040D31
:100A2800390EF324D96E010EF420DA6EDF5000017E
:100A38007F6F806B2CEC00F0C80E756F010E766F1F
:100A48005A0E776FFF0E786F2CEC00F007EC14F05D
:100A5800010EF46FC8D0ADEC12F00101EB6FEB059D
:100A680001E0A2D0E96B0001F46B0101E96BEC51E4
:100A78000001F2191FE1E56BEA6B140EEA6501D07B
:100A880012D0710EEA25F66EF76AFC0EF722950E63
:100A9800E525D96EDA6A010EDA220800F5CFDFFF04
:100AA800E52BEA2BEAD7000EA46B0DEC18F0000139
:100AB800E62B99D0E56B950EE525D96EDA6A010E1D
:100AC800DA22CC0EDF6EE52B0101EC51040D370E56
:100AD800F324D96E010EF420DA6E950E0001E52597
:100AE800E16EE26A010EE222DFCFE7FFE52B0101AA
:100AF800EC51040D380EF324D96E010EF420DA6E91
:100B0800950E0001E525E16EE26A010EE222DFCFD3
:100B1800E7FFE52B0101EC51040D390EF324D96EE2
:100B2800010EF420DA6E950E0001E525E16EE26A09
:100B3800010EE222DFCFE7FFE52B040EEA6F180E65
:100B4800EA6501D020D0FC0E0101E16FE2690001E5
:100B5800EA510101E36FE46BE151E327E251E42339
:100B6800710EE325F66EFC0EE421F76E950E00017A
:100B7800E525D96EDA6A010EDA220800F5CFDFFF23
:100B8800E52BEA2BDCD7000E47EC14F00101E86FE7
:100B9800E8518DE1110E0001986FFF0E996F9A6B65
:100BA8009B6B94EC17F01FD0020EEB191CE1EC5173
:100BB800E16FE26BE369E4690001E8510101E56F67
:100BC800E66BE351E527E451E623E151E55DE651A3
:100BD800800AE76FE251800AE75902E2EC6B01D024
:100BE800EC2B0001F46B0001F45101E034D7010152
:100BF800E90501E15FD6000E1BEC19F031EC16F0A7
:100C080069C048F06AC049F06BC04AF06CC04BF04C
:100C18004450485C0101E16F45504958E26F465025
:100C28004A58E36F47504B58E46FE1052D0EE259DF
:100C3800310EE359010EE4591DE30001E76BE5ECC1
:100C480019F0000E6FEC15F0B80E986FFF0E996F43
:100C58009A6B9B6B94EC17F0030E6A6FE80E696F42
:100C6800FEEC0FF048C089F149C08AF14AC08BF107
:100C78004BC08CF10001EB5106E0F65104E1B96B71
:100C880087EC0CF0EB6B0001E75101E180D5C4D58E
:100C980031EC16F031EC16F0DFA525D031EC16F06A
:100CA80069C0B3F06AC0B4F06BC0B5F06CC0B6F000
:100CB80001017D510001B35DAE6F01017E5100015C
:100CC800B459AF6F01017F510001B559B06F0101EF
:100CD80080510001B659B16FB151B01103E1400E16
:100CE800AF5D01E3DF95DFA332D031EC16F069C0C8
:100CF800B3F06AC0B4F06BC0B5F06CC0B6F00101D7
:100D080085510001B35DAE6F010186510001B459F0
:100D1800AF6F010187510001B559B06F01018851CA
:100D28000001B659B16FB15107E1210EAE5DA10EB8
:100D3800AF59070EB0590BE3DF93000E6A6F020E2E
:100D48006B6F040E6C6F8C0E6D6F83EC13F00001EB
:100D5800DFB712006BEC0AF00009D8B41200B26BCE
:100D6800CC6B3CA403D0AE6BAE2B02D00001AE6BB3
:100D7800CC51AE19FC0BAE19CC6F3CA602D0CC8777
:100D880002D00001CC973C50030BE80603E1AE6BA0
:100D9800AE2B02D00001AE6BAE3BAE47CC51AE19C4
:100DA800DF0BAE19CC6F3CAE02D0CC8D02D0000167
:100DB800CC9D3CAE04D03DC0CFF03EC0D0F041C089
:100DC800D3F03FC0D1F040C0D2F043C0D5F042C00C
:100DD800D4F0CCAB95D175D12BEC19F092D1020E91
:100DE800F56501D0F9D720EE01F0D151D926D251BD
:100DF800DA22F151DE18F0E1E56B950EE525D96EA2
:100E0800DA6A010EDA22970EDF6EE52B950EE525DC
:100E1800D96EDA6A010EDA22DEC0DFFFE52BB86B85
:100E2800B851F30FD96EDA6A950EE525E16EE26ADC
:100E3800010EE222DFCFE7FFE52BB82BB851F0E037
:100E48002BEC19F0CFC096F0D0C097F0010E986F38
:100E5800000ECCB7010E996F000E78EC11F051D14D
:100E6800E56B950EE525D96EDA6A010EDA22920E47
:100E7800DF6EE52BB86BB8510E0D0C0EF324D96E4E
:100E8800020EF420DA6EDFAE35D0CFC069F0D0C0E4
:100E98006AF00001B8510E0D040EF3246B6F020EB8
:100EA800F4206C6F8EEC18F0000924E0B8510E0D98
:100EB8000C0EF324D96E020EF420DA6EDF6AB851F4
:100EC8000E0D000EF3246A6F020EF4206B6FB851FA
:100ED8000E0DF350040F6C6F0E0E6D6F83EC13F054
:100EE800950E0001E525D96EDA6A010EDA22DF6A6D
:100EF800E52B05D00001B82B090EB865BCD72BEC43
:100F080019F00A0EB81909E1950EE525D96EDA6AC5
:100F1800010EDA22F00EDF6EE52BCFC096F0D0C0BE
:100F280097F0010E986F000ECCB7010E996F000E66
:100F380078EC11F0E6D0E0EC0BF0000120EE02F0C6
:100F4800D151D926D251DA22DF50F26FF20E6A6FF0
:100F58006B6BBB0E6C6F010E6D6F83EC13F00001B1
:100F6800DF8331EC16F069C085F16AC086F16BC089
:100F780087F16CC088F130D720EE01F0D151D92625
:100F8800D251DA22DF50D7E0010AD5E025D7DFBBFE
:100F9800DF9B22D720EE01F0D151D926D251DA2297
:100FA800DF5001E019D7B86BB8510E0D0C0EF324C1
:100FB800D96E020EF420DA6EDFAE2CD0CFC069F005
:100FC800D0C06AF00001B8510E0D040EF3246B6F07
:100FD800020EF4206C6F8EEC18F000091BE0B8517B
:100FE8000E0D0C0EF324D96E020EF420DA6EDF6AB1
:100FF800B8510E0D000EF3246A6F020EF4206B6FC9
:10100800B8510E0DF350040F6C6F0E0E6D6F83EC1C
:1010180013F0E2D60001B82B090EB865C5D7DCD6A7
:1010280020EE01F0D151D926D251DA22F151DE1841
:1010380001E0D2D620EE02F0D151D926D251DA22DF
:10104800DF50CEEC10F0C8D6F65101E0C5D6010E3F
:10105800EC6FC2D6F65101E0BFD620EE01F0D151B7
:10106800D926D251DA22DF50AE6FAE05E86FD1C073
:1010780070F0D2C071F027EC0FF0AED6F65101E156
:10108800ABD6D1C069F0D2C06AF061EC12F0B76F8C
:10109800B7290DE0D1C0A6F0D2C0A7F0B7C0A8F01C
:1010A800CFC0A9F0D0C0AAF014EC12F0B26FB251C0
:1010B80001E192D6CFC0A0F0D0C0A1F0CEEC18F0DC
:1010C8008BD6D1C0D9FFD2C0DAFFDF50770AC2E091
:1010D800F60A01E181D6030A01E1C2D6060AA0E0B8
:1010E800030A01E17CD6160A01E146D7030A01E1A9
:1010F80051D7050A01E14BD75B0AC0E0160AA4E004
:10110800DF87DFB5DFA701D0DF95D35104E0DFB972
:1011180002D0DFAB1200DF972BEF19F0D9CF2BF0FD
:10112800DACF2CF0F3CF2DF0F4CF2EF0F0B0F0A6FC
:10113800A6D1600E0001E11901E09DD14EC0E2F098
:10114800899A000EC1EC19F0396E898A3A6A3A50C8
:10115800390D8C0EF324D96E020EF420DA6E0201DA
:10116800DFA004D03A2A010E3A64F1D7020E3918EA
:1011780003E1010E366E01D0366A370E396007D0AA
:10118800395005E0010E3A6412D0365010E11A0EBB
:1011980015EC17F008D0899A000EC1EC19F0898A6D
:1011A8001A0E15EC17F0316E31B2F5D766D1376AE1
:1011B80039C02FF0306A5BD12F06D8A030063650E0
:1011C80009E0899A3750320FD96EDA6A000EC1ECFD
:1011D80019F017D0899A3A50390D8C0E256E020EE7
:1011E800266E252A000E2622F3502526F4502622A4
:1011F80037502524D96E000E2620DA6E000EC1EC79
:1012080019F0DF6E372A898A3950375C01E22FD10D
:10121800365024E03250030B020A08E14F503318CD
:1012280001E02BD1010E0001E96F27D1010E3A64CC
:1012380001D0ADD73A50390D8D0EF324D96E020E78
:10124800F420DA6E32C0DFFF3A50390D8E0EF324E7
:10125800D96E020EF420DA6E33C0DFFF3A50390D32
:10126800C40EF324D96E020EF420DA6E39C0DFFF03
:1012780038683A50390D8D0EF324D96E020EF420D9
:10128800DA6EDFAC33D03B6A28D03B50D725D96E15
:10129800000ED821DA6E3A50390D8C0E266E020EE9
:1012A800276E030E2626000E2722F3502626F4501A
:1012B80027223B502624E16E000E2720E26EDE50E6
:1012C800E6180AE03A50390DC40EF324D96E020E1E
:1012D800F420DA6EDF6A5BD73B2A0001D631E832A8
:1012E800E8320F0B256E25503B5CCFE33A50390DA1
:1012F8008D0EF324D96E020EF420DA6E0201DFAAF5
:1013080034D03B6A000E3B24D96EDA6A010EDA2229
:101318003B50320FE16EE26ADFCFE7FF3B2A010E56
:101328003B64F0D7060E0101006F3A50390D8E0E5E
:10133800F324D96E020EF420DA6EDF50016FF090BC
:10134800116A020EB3EC0DF03B6A3B50320FD96EB6
:10135800DA6A000E3B24E16EE26A010EE222DFCF78
:10136800E7FF3B2A010E3B64F0D73B6A3B50060D72
:101378005F0EF324D96E010EF420DA6EDF5026E0FA
:101388003A50390D8E0EF324D96E020EF420DA6E1F
:101398003B50060D600EF324E16E010EF420E26E60
:1013A800DE50E61813E17FEC16F03B50060D610E97
:1013B800F324D96E010EF420DA6E01C0DEFF02C0FC
:1013C800DEFF03C0DEFF04C0DEFF12D038280CE1C8
:1013D8003B50060D5F0EF324D96E010EF420DA6E31
:1013E800DF5002E13BC038F03B2A040E3B64BED715
:1013F800040E3B6442D0050E38602ED03850060DDE
:101408005F0EF324D96E010EF420DA6E010EDF6E42
:101418003A50390D8E0EF324D96E020EF420DA6E8E
:101428003850060D600EF324E16E010EF420E26ED2
:10143800DFCFE7FF7FEC16F03850060D610EF3247E
:10144800D96E010EF420DA6E01C0DEFF02C0DEFFA5
:1014580003C0DEFF04C0DEFF3A50390D8C0EF324C2
:10146800D96E020EF420DA6E0201DF8006D02F500A
:10147800301003E0A1D6010EDB6FF09000F0F2B25D
:10148800F2A80CD0F292600E0001E11907E1280ED3
:1014980015EC17F0256ED89025304E6E9EB09DA0A5
:1014A80006D09E90502A505002E10001ED2BEAEC44
:1014B80019F02EC0F4FF2DC0F3FF2CC0DAFF2BC0AB
:1014C800D9FF2AC0E2FF29C0E1FF5F921100806BBB
:1014D80031EC16F069C07BF06AC07CF06BC07DF01F
:1014E8006CC07EF08051060D5F0EF324D96E010E9C
:1014F800F420DA6EDF503FE08051060D610EF324D0
:10150800D96E010EF420DA6E7B51DE5C7C51DE5818
:101518007D51DE587E51DE582EE28051060D610E57
:10152800F324D96E010EF420DA6EDECF73F0DECF2D
:1015380074F0DECF75F0DECF76F073517B5D776F98
:1015480074517C59786F75517D59796F76517E59F0
:101558007A6F7A5107E1210E775DA10E7859070E4F
:10156800795909E38051060D5F0EF324D96E010EF7
:10157800F420DA6EDF6A802B040E8065A9D7E32990
:1015880001E0000C806B8051390D8C0EF324D96E6C
:10159800020EF420DA6EDFA055D000018051390D1B
:1015A8008D0EF324D96E020EF420DA6EDF503C6EF5
:1015B8008051390DC40EF324D96E020EF420DA6E70
:1015C800DF50416E020E7F6F3CAC05D0D631E83259
:1015D800E8320F0B7F273CAE19D08051390D8C0EA5
:1015E800736F020E746F732B000E7423F3507327FE
:1015F800F45074237F5173253D6E000E74213E6EA6
:10160800D631E832E8320F0B7F2702D03D6A3E6AB6
:101618007F51415E8051390D8C0E736F020E746FCD
:10162800732B000E7423F3507327F45074237F51E7
:1016380073253F6E000E7421406EE2C042F080C0F8
:10164800E3F0010C0001802B010E80659CD7000C93
:101658007B6FF7EC12F0DF6B7B5129E17F6B7F51D9
:101668000E0D0C0EF324D96E020EF420DA6EDF6A2A
:101678007F510E0D040EF324D96E020EF420DA6E9B
:10168800DF6A7F510E0D050EF324D96E020EF42089
:10169800DA6EDF6A7F510E0D060EF324D96E020E44
:1016A800F420DA6EDF6A7F2B090E7F65D8D7E56BE9
:1016B8007F6B7F2B090E7F65FCD77B513CE0F10ED9
:1016C8006A6F6B6B020E6C6F010E6D6F5EEC18F03B
:1016D8001F0EF16501D01F0CF50E6A6F6B6B030EC0
:1016E8006C6F010E6D6F5EEC18F0000E6A6F020EE3
:1016F8006B6F040E6C6F8C0E6D6F5EEC18F0F60E4F
:101708006A6F6B6BB80E6C6F010E6D6F5EEC18F044
:10171800F20E6A6F6B6BBB0E6C6F010E6D6F5EEC39
:1017280018F0F00E6A6F6B6BBA0E6C6F010E6D6F6E
:101738005EEC18F01ED0F10E6A6F6B6B020E6C6FC8
:10174800010E6D6F83EC13F0F50E00016A6F6B6B81
:10175800030E6C6F010E6D6F83EC13F0000E000129
:101768006A6F020E6B6F040E6C6F8C0E6D6F83ECDC
:1017780013F0D90E00017D6F010E7E6F7C837C51C2
:10178800870B40097C6F7BB102D07C9502D00001A9
:101798007C857C917CC077F07DC078F07EC079F044
:1017A800C7EC11F0F151A4EC18F00001DE6BF5392B
:1017B800F00BDE13F086120000017669776B775123
:1017C8000E0D0C0EF324D96E020EF420DA6EDFAE85
:1017D80014D0CFC069F0D0C06AF0000177510E0D67
:1017E800040EF3246B6F020EF4206C6F8EEC18F06D
:1017F800000908E077C076F009D00001762902E1F7
:1018080077C076F0772B090E7765D9D7762901E16D
:101818001200F55101E01200776B7751CF25D96E90
:10182800000ED021DA6E76510E0D000E716F020E89
:10183800726F040E7127000E7223F3507127F45053
:10184800722377517125E16E000E7221E26EDFCFAF
:10185800E7FF772B070E7765E0D776510E0D0C0E54
:10186800F324D96E020EF420DA6EDF8E000120EE2A
:1018780002F0D151D926D251DA22DF50716F010E10
:10188800711776510E0D0C0EF324D96E020EF4204A
:10189800DA6EDF507119FE0B7119DF6E776B7751B5
:1018A800D125716F000ED221726F030E7125D96E8A
:1018B800000E7221DA6E76510E0D000E736F020E55
:1018C800746F0D0E7327000E7423F3507327F450B2
:1018D800742377517325E16E000E7421E26EDFCF19
:1018E800E7FF772B7751DBE076C0DCF0DF9958EC27
:1018F80016F0F06FF00E6A6F6B6BBA0E6C6F010E1C
:101908006D6F83EF13F0F5C0BEF00A0EBF6FC46BA6
:1019180031EC16F0B90501E1FF0C31EC16F069C0A5
:10192800C0F06AC0C1F06BC0C2F06CC0C3F0200E3A
:10193800C05FA10EC15B070EC25B000EC35BF56BF7
:10194800DF8974D031EC16F069C0C5F06AC0C6F002
:101958006BC0C7F06CC0C8F0C051C55DBA6FC1514B
:10196800C659BB6FC251C759BC6FC351C859BD6F67
:10197800BD5107E1210EBA5DA10EBB59070EBC5936
:101988004FE3C5C0C0F0C6C0C1F0C7C0C2F0C8C0F0
:10199800C3F0C407C4294AE1010EC46FBF07BF29B9
:1019A80002E1DF99FF0CE56B950EE525D96EDA6A41
:1019B800010EDA22810EDF6EE52B950EE525D96E34
:1019C800DA6A010EDA22F1C0DFFFE52B950EE52574
:1019D800D96EDA6A010EDA22DEC0DFFFE52B950E3A
:1019E800E525D96EDA6A010EDA22AA0EDF6EE52B3A
:1019F800C96BC951F30FD96EDA6A950EE525E16E08
:101A0800E26A010EE222DFCFE7FFE52BC92BC951BD
:101A1800F0E0966B976B010E986F996B78EC11F06C
:101A2800D0EC19F0000902E0DAEC19F0DFB98AD736
:101A3800BEC0F5F0DC5112008B6F030E0001876FFA
:101A480087D0886BE96B866B795118E0280EA6EC75
:101A580016F0896FD8908933410E89650FD0862B8F
:101A680086057A6F040E7A6501D0000C010E696F45
:101A78006A6B6B6B6C6B95EC0FF0E8D7F298F0968D
:101A8800200EC2EC14F01A0E6B6FC90E6A6F36EC9A
:101A980017F000018B51D2EC17F000018C6B0BD0C2
:101AA800000E8C25D96EDA6A010EDA22DF50D2ECEC
:101AB80017F000018C2B8B518C5DF2E3800EC2EC89
:101AC80014F0F288F086DB5102E1F0A0FCD7DB6B62
:101AD800200EC2EC14F0600EC2EC14F0010100AB51
:101AE8000ED001C14FF031EC16F069C07EF06AC02B
:101AF8007FF06BC080F06CC081F0E95104E0010E0A
:101B080000018A6F2AD031EC16F069C082F06AC0F1
:101B180083F06BC084F06CC085F07E51825D7A6F73
:101B28007F5183597B6F805184597C6F81518559CE
:101B38007D6F7D517C1105E1A90E7A5D610E7B599F
:101B4800DCE3882B88057A6F040E7A6101D07AD796
:101B58008707872901E075D78A6B8A511200166EAC
:101B6800030E216E85D0226A0001E96B206A1150AC
:101B780018E0280E15EC17F0236ED8902332410E8A
:101B880023640FD0202A2004126E040E126401D0A0
:101B9800040C010E016E026A036A046A66EC10F016
:101BA800E8D7F298F096200E36EC15F01A0E036E70
:101BB800C90E026EF0EC17F0165029EC18F0246AE2
:101BC8000AD0000E2424D96EDA6A010EDA22DF5018
:101BD80029EC18F0242A1650245CF3E3800E36EC26
:101BE80015F0F288F0860001DB5102E1F0A0FBD786
:101BF800DB6B200E36EC15F0600E36EC15F00101AB
:101C080000AB0ED001C14FF07FEC16F001C018F008
:101C180002C019F003C01AF004C01BF0E95103E038
:101C2800010E176E010C7FEC16F001C01CF002C00B
:101C38001DF003C01EF004C01FF018501C5C126E8B
:101C480019501D58136E1A501E58146E1B501F58E9
:101C5800156E1550141005E1A90E125C610E13588B
:101C6800DDE3222A2204126E040E126001D07CD712
:101C78002106212801E077D7176A1200230E926502
:101C880001D0000C8DB503D0936B932B02D00001CB
:101C9800936B933B934793478D519319BF0B9319BC
:101CA8008D6F8D8F8D51030BE80601E18D8F8DC0EF
:101CB80000F1DDC001F1DD2B020E946F8DAD1AD05D
:101CC800956B10D095518E25D96E000E8F21DA6E46
:101CD800000E9425E16EE26A010EE222DFCFE7FFF3
:101CE800942B952BD631E832E8320F0B936F935132
:101CF800955DE8E38DAF1AD0956B10D09551D72537
:101D0800D96E000ED821DA6E000E9425E16EE26AD3
:101D1800010EE222DFCFE7FF942B952BD631E83274
:101D2800E8320F0B936F9351955DE8E3956B10D0F4
:101D380095519025D96E000E9121DA6E000E9425EA
:101D4800E16EE26A010EE222DFCFE7FF942B952BCA
:101D58009251955DEDE3000ED6B3010E796F945163
:101D680020EF0DF08C8E8D9000016A6B080E696F64
:101D7800FEEC0FF08D806A6B500E696FFEEC0FF071
:101D8800300EAFEC19F000016A6B080E696FFEECBB
:101D98000FF0300EAFEC19F000016A6B010E696F9D
:101DA800FEEC0FF0300EAFEC19F000016A6B010E7B
:101DB800696FFEEC0FF0390EAFEC19F000016A6B99
:101DC800010E696FFEEC0FF0140EAFEC19F0000174
:101DD8006A6B010E696FFEEC0FF0560EAFEC19F04E
:101DE80000016A6B010E696FFEEC0FF06D0EAFEC2F
:101DF80019F000016A6B010E696FFEEC0FF0700EAE
:101E0800AFEC19F000016A6B010E696FFEEC0FF080
:101E18000E0EAFEC19F000016A6B010E696FFEEC53
:101E28000FF0060EAFEC19F000016A6B010E696F36
:101E3800FEEC0FF0010EAFEC19F000016A6B280EF2
:101E4800696FFEEF0FF0040E756F75C072F0030E28
:101E5800721761E17551726F736B030E7227000E72
:101E6800732373BF05D0735156E1230E725D53E29D
:101E780075517025726F000E7121736F030E7225F4
:101E8800D96E000E7321DA6EDF50746F7451040D31
:101E98003A0EF324D96E010EF420DA6E74C0DFFF17
:101EA80075517025D96E000E7121DA6E7451040DCA
:101EB800370EF324E16E010EF420E26EDFCFE7FF68
:101EC80075517025726F000E7121736F7229D96E6A
:101ED800000E7321DA6E7451040D380EF324E16E8E
:101EE800010EF420E26EDFCFE7FF75517025726FA7
:101EF800000E7121736F020E7225D96E000E7321C8
:101F0800DA6E7451040D390EF324E16E010EF420DB
:101F1800E26EDFCFE7FF752B220E756596D786EF49
:101F280014F069C06DF06AC06EF06BC06FF06CC0E1
:101F380070F0280E6D03F3CF71F0F4CF72F0736B6D
:101F4800746B6E03F3507227F4507323000E7423DE
:101F58006D03F3507227F4507323000E7423280E78
:101F68006F03F3507327F4507423000E6E03F3507D
:101F78007327F4507423000E6D03F3507327F45045
:101F88007423280E7003F3507427000E6F03F35068
:101F98007427000E6E03F3507427000E6D03F35080
:101FA800742771C075F072C076F073C077F074C092
:101FB80078F0510E7527FF0E76237723782378BFA4
:101FC800FF0C7851771176110CE12E0E755D09E240
:101FD800120000F0D60E00017527FF0E7623772336
:101FE800782378BF1200785177117611F2E17505E0
:101FF800F0E2120069516B6F6A516C6F6D6B6E6B1A
:10200800A00E6B03F3CF6FF0F4CF70F0716B726BAF
:102018006C03F3507027F4507123000E72230F0ED7
:102028006B03F3507027F4507123000E7223A00E37
:102038006D03F3507127F45072230F0E6C03F350A5
:102048007127F4507223000E6B03F3507127F4507C
:102058007223A00E6E03F35072270F0E6D03F35018
:102068007227000E6C03F3507227000E6B03F350B7
:1020780072276FC073F070C074F071C075F072C0D1
:1020880076F0560E7327FF0E74237523762376BFDA
:10209800FF0C7651751174110CE1C40E735D09E2E1
:1020A800120000F0D90E00017327FF0E7423752368
:1020B800762376BF1200765175117411F2E173051B
:1020C800F0E2120001C005F002C006F003C007F0FC
:1020D80004C008F0280E0502F3CF09F0F4CF0AF087
:1020E8000B6A0C6A0602F3500A26F4500B22000E03
:1020F8000C220502F3500A26F4500B22000E0C2283
:10210800280E0702F3500B26F4500C22000E06028C
:10211800F3500B26F4500C22000E0502F3500B2648
:10212800F4500C22280E0802F3500C26000E070269
:10213800F3500C26000E0602F3500C26000E050282
:10214800F3500C2609C00DF00AC00EF00BC00FF0BA
:102158000CC010F0510E0D26FF0E0E220F22102279
:1021680010BEFF0C10500F100E100BE12E0E0D5C60
:1021780008E2120000F0D60E0D26FF0E0E220F22E6
:10218800102210BE120010500F100E10F3E10D04B3
:10219800F1E21200AC6F0001AD6B31EC16F069C0D2
:1021A800A4F06AC0A5F06BC0A6F06CC0A7F031EC33
:1021B80016F069C0A8F06AC0A9F06BC0AAF06CC09C
:1021C800ABF0A451A85DA06FA551A959A16FA65164
:1021D800AA59A26FA751AB59A36FA35107E1E10E0A
:1021E800A05DC10EA159030EA259E1E3E56B950E5E
:1021F800E525D96EDA6A010EDA22840EDF6EE52B48
:10220800950EE525D96EDA6A010EDA22F1C0DFFFF4
:10221800E52B950EE525D96EDA6A010EDA22ACC0F7
:10222800DFFFE52B966B976B010E986F996B78EC37
:1022380011F0AD2B020EAD65B0D7AC51A4EF18F07C
:10224800780ED36E9B8CC090550EA76EAA0EA76E03
:102258000E01FF91110EE76F170EFB6F0A0EDB6F71
:10226800090ED96F550EA76EAA0EA76EFF81FC0E38
:102278000F01486F1F0E496F8B94899C899E949417
:10228800929C929E93829384F19E92829280898AF4
:102298008C82929A95929380948CF18AF18CF29226
:1022A800F288F090F086938A949E9398C00EC76E39
:1022B800210EC66E8C9095808C8A959A8D84969402
:1022C8008D928C8E8C968D909692959E95969690E2
:1022D800958C95949598736A310E726EA49EB6EC9F
:1022E8000EF0F28EF28C12009C6F00019D6B9851DB
:1022F80003E09A6B9A2B02D000019A6B9D519A19B0
:10230800FC0B9A199D6F9C5103E19A6B9A2B02D092
:1023180000019A6B9A3B9A479D519A19DF0B9A19BB
:102328009D6F9CB102D09D9502D000019D8599B109
:1023380002D09D9702D000019D879C5103E19A6BC2
:102348009A2B02D000019A6B9A3B9A479A479D5163
:102358009A19BF0B9A199D6F9D8F96C09EF097C0D2
:102368009FF09DC08DF09EC08EF09FC08FF0950E9F
:10237800906F010E916FE5C092F042EC0EF09B6FEA
:10238800E56B9B51120077C0D6F078C0D7F079C0C2
:10239800D8F06A6B140E696FFEEC0FF08C82898A94
:1023A800D6CFDDF0E3697A6B7A51390D8C0EF324C0
:1023B800D96E020EF420DA6EDF6A7A2B010E7A6586
:1023C800F3D77A6B7A51020DEF0EF324F66EFC0EFA
:1023D800F420F76E0900F5CF6AF00A00F5CF6BF02C
:1023E80036EC17F000017A2B1F0E7A65EBD7200E1A
:1023F800C2EC14F06B6B460E6A6F36EC17F0400EA9
:10240800C2EC14F01C0E6B6F0F0E6A6F36EC17F0EF
:10241800600EC2EC14F0F292F288F090F08612008E
:10242800E56BA9C0D9FFAAC0DAFF950EE525E16ED4
:10243800E26A010EE222DFCFE7FFE52B20EE01F092
:10244800A951D926AA51DA22950EE525E16EE26A4C
:10245800010EE222DFCFE7FFE52B20EE02F0A951C3
:10246800D926AA51DA22950EE525E16EE26A010E17
:10247800E222DFCFE7FFE52B030EAC6FAC51A625B8
:10248800D96E000EA721DA6E950EE525E16EE26A97
:10249800010EE222DFCFE7FFE52BAC2B220EAC6565
:1024A800EDD7A46BA8510DEC18F00001AB6FAB5140
:1024B80002E194EC19F0AB5112006D6B42D06D51F2
:1024C8000E0D0C0EF324D96E020EF420DA6EDFAE78
:1024D80036D000016D510E0D040EF324D96E020E94
:1024E800F420DA6E10EE01F06951E1266A51E22219
:1024F800DE50E61824E16D510E0D050EF324D96E59
:10250800020EF420DA6E10EE02F06951E1266A51EB
:10251800E222DE50E61813E16D510E0D060EF3248B
:10252800D96E020EF420DA6E10EE03F06951E1263E
:102538006A51E222DE50E61802E16D5112000001F4
:102548006D2BF0516D5DBBE3F0516D19D8B4FF0EE2
:10255800120081B210D00001E05144E1010EE06F99
:1025680031EC16F069C081F16AC082F16BC083F169
:102578006CC084F1010C81B410D00001E05132E14B
:10258800010EE06F31EC16F069C081F16AC082F18A
:102598006BC083F16CC084F1020C31EC16F069C099
:1025A80077F06AC078F06BC079F06CC07AF00101FE
:1025B80081510001775D736F0101825100017859E3
:1025C800746F0101835100017959756F01018451BC
:1025D80000017A59766F7651751103E1400E745DEA
:1025E80001E3E06B000C010E00016E6FD96BDA6B32
:1025F8006A6B020E696FEE0E6B6F77EC18F06E1750
:102608006A6B010E696F550E6B6F77EC18F06E17D9
:102618006A6B010E696F510E6B6F77EC18F06E17CD
:102628006A6B8C0E696F530E6B6F77EC18F06E1730
:102638006A6B040E696F590E6B6F77EC18F06E17A2
:102648006A6B010E696F570E6B6F77EC18F06E1797
:102658006A6B010E696F5B0E6B6F77EC18F06E1783
:102668006A6B010E696F5D0E6B6F77EC18F06E1771
:102678001200716F1F0E0001716501D0000C0C0E65
:102688006B6F640E6A6F36EC17F02F0E0001712520
:10269800F66EF76AFD0EF7220800F5CF70F0000E0F
:1026A80070116A6F0E0E6B6F36EC17F04F0E00014B
:1026B8007125F66EF76AFD0EF7220800F5CF70F067
:1026C800000E70116A6F100E6B6F36EC17F0200E4B
:1026D800C2EC14F06B6B460E6A6F36EC17F0400EC6
:1026E800C2EC14F01C0E6B6F0F0E6A6F36EC17F00D
:1026F800200EC2EC14F0600EC2EC14F0010C000EB7
:10270800F0B6010E6F6FF0968C9A050E75EC19F005
:10271800D5EC19F00001706F8C8AE7EC19F0000114
:1027280070B1F2D78C9A060E75EC19F08C8AE7EC2A
:1027380019F08C9A020E75EC19F000016C5175ECC9
:1027480019F00001706B16D06AC0D9FF6BC0DAFFB0
:10275800DF5075EC19F000016A4B6B2B6D07702B7D
:102768006C5170256E6F0F0E6E1704E18C8A7051D4
:102778006C27CAD76D51E8E18C8A6FB102D0F09608
:1027880001D0F0861200726B72516E5D706F000E90
:102798006F59716F070E70256A6F000E71216B6F8C
:1027A8007251FA0F6C6F010E6D6F5EEC18F0722BA0
:1027B800020E7265E9D720EE04F06E51D9266F51EA
:1027C800DA22DF6820EE03F06E51D9266F51DA2243
:1027D800FE0EDF6E726B72516E5D706F000E6F5978
:1027E800716F020E70256A6F000E71216B6F725146
:1027F800FD0F6C6F010E6D6F5EEC18F0722B020E00
:102808007265E9D7020C800EAFEC19F000016B6B12
:10281800B80E6B25D96EDA6A010EDA22DF5004E1B0
:10282800200EA6EC19F009D0B80E6B25D96EDA6A1D
:10283800010EDA22DF50A6EC19F000016B2B0F0E07
:102848006B65E6D7C00EAFEC19F0100E00016B6F88
:10285800B80E6B25D96EDA6A010EDA22DF5004E170
:10286800200EA6EC19F009D0B80E6B25D96EDA6ADD
:10287800010EDA22DF50A6EC19F000016B2B1F0EB7
:102888006B65E6D71F0CC56F0001EC6B040E966FE5
:10289800020E976F010E986FC5C099F0000E78EC84
:1028A80011F031EC16F069C0BDF06AC0BEF06BC023
:1028B800BFF06CC0C0F022D031EC16F069C0C1F096
:1028C8006AC0C2F06BC0C3F06CC0C4F0D0EC19F0A1
:1028D800BD51C15DB96FBE51C259BA6FBF51C3591D
:1028E800BB6FC051C459BC6FBC51BB1105E1510E3F
:1028F800B95DC30EBA5902E3EC0502E1EC51DCE024
:10290800EC5112006E6BF651D8A412006F6B1ED0FA
:102918006F51040D370EF324D96E010EF420DA6ED0
:102928000101D951DE1810E100016F51040D380E74
:10293800F324D96E010EF420DA6EDE500101DA19A3
:1029480003E1010E00016E6F00016F2BE851696F02
:102958006A6B692B000E6A236F516B6F6C6B695140
:102968006B5D6C51800A6D6F6A51800A6D59D0E3B6
:102978006E51D8A41200010EEB6F010C00016E6FAE
:102988002CD06B6B860E6A6F36EC17F0800E000148
:10299800E16F800C6B6B660E6A6F36EC17F0600E99
:1029A8000001E16F600C6B6B460E6A6F36EC17F036
:1029B800400E0001E16F400C6B6B260E6A6F36EC1F
:1029C80017F0200E0001E16F200C6B6B060E6A6F8A
:1029D80036EC17F00001E16B120000016E51F5E0D2
:1029E800200AEAE0600ADFE0200AD4E0E00AC9E051
:1029F8001200CA6FD90E00016E6F010E6F6FC7EC1F
:102A080013F0CA5103E0010E2CEF0BF0899C899E4C
:102A1800000E2CEC0BF0190EA4EC18F0000901E1E3
:102A2800190C000E44EC18F0000E00019D6F190EF1
:102A380075EC17F0B96B87EC0CF0EA6FEA2906E041
:102A4800010E9D6F190E75EC17F0F66BF60E6A6F96
:102A58006B6BB80E6C6F010E6D6F83EC13F0898C85
:102A68009DEF19F0066E2CD0036A860E026EF0EC0C
:102A780017F0800E0001E16F800C036A660E026E8B
:102A8800F0EC17F0600E0001E16F600C036A460E6F
:102A9800026EF0EC17F0400E0001E16F400C036A83
:102AA800260E026EF0EC17F0200E0001E16F200CEC
:102AB800036A060E026EF0EC17F00001E16B1200DB
:102AC8000650F6E0200AEBE0600AE0E0200AD5E0D4
:102AD800E00ACAE01200B96F2DD0DFA30CD0000EB7
:102AE8006A6F020E6B6F040E6C6F8C0E6D6F83EC49
:102AF80013F00001DF93000E05EC16F00009D8A4CE
:102B0800DF811200FF0E05EC16F00009D8A4DF9152
:102B18001200FF0E05EC16F0000901E11200DF912A
:102B2800A6EC15F0000903E112004CEC06F0DFA555
:102B38001200FBD70001B951D0E0010AE3E0030A13
:102B4800E8E01200E5C0A0F095C1A1F00001E56B36
:102B5800950EE525D96EDA6A010EDA22040EDF6ECB
:102B6800E52B040E966F020E976F010E986F000EFC
:102B7800996B78EC11F0000910E0DF8531EC16F064
:102B880069C07DF16AC07EF16BC07FF16CC080F1D5
:102B9800A1C095F1A0C0E5F0010CA1C095F1A0C0BD
:102BA800E5F0000C02EE00F0FE0EEE6AE806FDE12C
:102BB80001EE00F0E10EEE6AE806FDE100EECCF071
:102BC800270EEE6AE806FDE100EE3CF0230EEE6A01
:102BD800E806FDE1BA0EF66E330EF76E000EF86EDB
:102BE80000EEF3F010EE04F00900F5CFEEFFE5502B
:102BF800E150FAE15F905F92000EF86E00013BEF42
:102C080019F00001776F22D0000EC2EC14F0F29890
:102C1800F096010C200EC2EC14F0600EC2EC14F019
:102C2800F288F0866A6B0A0E696FFEEC0FF0786B1B
:102C38007851060D5F0EF324D96E010EF420DA6E7A
:102C4800DF6A782B040E7865F3D7010C0001775101
:102C5800DBE0FF0AD8A4000CDDD79D900001716B62
:102C6800726B6E6BCECF6FF0CFCF70F06F2908E12B
:102C7800702906E16E2B6E056D6F020E6D65F2D739
:102C88009EA004D0712B502801E1722B505071275F
:102C9800ED5172279D806FC069F070C06AF071C0F5
:102CA8006BF072C06CF01200696B6A6B6A510E0DA2
:102CB800040EF324D96E020EF420DA6EDF5014E10C
:102CC8006A510E0D050EF324D96E020EF420DA6E49
:102CD800DF500AE16A510E0D060EF324D96E020E7A
:102CE800F420DA6EDF5001E0692B6A2B090E6A6561
:102CF800DDD7695112009D90096A0A6A066ACECF2B
:102D080007F0CFCF08F0072808E1082806E1062ACF
:102D18000604056E020E0564F2D79EA004D0092AA7
:102D2800502801E10A2A505009260001ED510A26CF
:102D38009D8007C001F008C002F009C003F00AC076
:102D480004F0120000016A6F000EF0B6010E6C6FFD
:102D5800000EF2B8010E6D6FF298F0968C926A8DA3
:102D68006A518BEC19F0000E8BEC19F000016B6FB7
:102D78008C826CB102D0F09601D0F08600016DB162
:102D880002D0F29801D0F28800016B5112006E6BEC
:102D98006F6B6B516C111BE0010E6D6F04D0D890F6
:102DA8006B376C376D2B6CAFFAD7D8906E376F379F
:102DB8006B51695D6C516A5905E36B51695F6C51E0
:102DC8006A5B6E81D8906C336B336D2FEED76EC013
:102DD80069F06FC06AF01200616F000EF0B6010E64
:102DE8000001636F000EF2B8010E646FF298F0965E
:102DF8008C92618D6151B8EC19F0000EB8EC19F0A5
:102E08000001626F8C8263B102D0F09601D0F08627
:102E1800000164B102D0F29801D0F2880001625139
:102E28001200026E000EF0B6010E046E000EF2B82B
:102E3800010E056EF298F0968C92028C0250C1EC4D
:102E480019F0000EC1EC19F0036E8C8204B002D0A8
:102E5800F09601D0F08605B002D0F29801D0F28841
:102E680003501200000EF0B6010E6C6F000EF2B89F
:102E7800010E6D6FF298F0968C926B518BEC19F0F5
:102E880000016A518BEC19F08C8200016CB102D000
:102E9800F09601D0F08600016DB102D0F29801D011
:102EA800F2881200996FE2EC18F0B80E756F010EF7
:102EB800766F8C0E776FFF0E786F99C079F07A6B0A
:102EC80098C07BF07C6B2CEC00F0C80E756F010E7F
:102ED800766F9C0E776FFF0E786F2CEC00F007EF83
:102EE80014F09E6F00019D510BE1E00E986FFD0EEE
:102EF800996F9EC09AF0010E9B6F94EC17F00AD060
:102F0800200E986FFE0E996F9EC09AF0010E9B6F6F
:102F180094EC17F0030E6A6FE80E696FFEEF0FF07E
:102F2800E2EC18F0B80E756F010E766F98C077F066
:102F380099C078F09AC079F07A6B2CEC00F007EC25
:102F480014F09B51D8B412009C6B6A6BFA0E696F2F
:102F5800FEEC0FF09C2B070E9C65F7D7070C7251FF
:102F6800731117E0010E746F04D0D890723773375D
:102F7800742B73AFFAD77251705D7351715904E3B2
:102F88007251705F7351715BD89073337233742FC1
:102F9800F2D770C070F071C071F012006A6F000E45
:102FA800F0B6010E00016B6F000EF2B8010E6C6FE7
:102FB800F298F096899A6A518BEC19F0898A000187
:102FC8006BB102D0F09601D0F08600016CB102D04E
:102FD800F29801D0F2881200000EF0B6010E046ECD
:102FE800000EF2B8010E056EF298F0968C9203501E
:102FF800C1EC19F00250C1EC19F08C8204B002D077
:10300800F09601D0F08605B002D0F29801D0F2888F
:103018001200A56F0001A5510E0D0C0EF324D96EF8
:10302800020EF420DA6E0201DFAE000C0001A55199
:103038000E0D040EF324A06F020EF420A16F010EF2
:10304800A26FA4C0A3F081EF19F0026E000EF0B6D3
:10305800010E036E000EF2B8010E046EF298F0969F
:10306800899A0250C1EC19F0898A03B002D0F0960F
:1030780001D0F08604B002D0F29801D0F288120094
:103088000001726F030E726501D0030C72C0F5F077
:10309800F5C071F0713BF00E7117DE510F0B711115
:1030A800DE6FF50E6A6F6B6B030E6C6F010E6D6F42
:1030B80083EF13F08C9A030E75EC19F000016C5134
:1030C80075EC19F00BD0D5EC19F06AC0D9FF6BC0BC
:1030D800DAFFDF6E00016A4B6B2B6D0700016D5143
:1030E800F2E18C8A12006951D9256C6F6A51DA2194
:1030F8006D6F6C05800E6D5901E3000C6B51D96E34
:10310800DA6AD9C0DEFFDAC0DDFF6951D9276A5112
:10311800DA23010C6F6B6F516B25D96E000E6C2191
:10312800DA6E6F516925E16E000E6A21E26EDE509B
:10313800E61801E0000C6F2B070E6F65ECD7010C49
:10314800726F00016F6B72513DEC13F000090CE0D7
:1031580072C0F1F0F10E6A6F6B6B020E6C6F010EAC
:103168006D6F83EC13F0010C000C69C06FF06AC03E
:1031780070F008D06FC0D9FF70C0DAFF6BC0DFFFF6
:103188006F4B702B6D07D8A06E076D29F3E16E2980
:10319800F1E11200E56B950EE525D96EDA6A010EAC
:1031A800DA22DA0EDF6EE52BA0C096F0A1C097F008
:1031B800010E986F000E996B78EF11F0010EAFECCD
:1031C80019F000016A6B020E696FFEEC0FF0B80E81
:1031D800696F010E6A6F6C6B200E6B6F6E6B6D6F93
:1031E800B9EF18F069516B03F3CF6DF0F4CF6EF0BF
:1031F80069516C03F3506E276A516B03F3506E27C5
:103208006DC069F06EC06AF012007A0E986FFE0EFB
:10321800996F9A6B9B6B94EC17F0ADEC12F09D6F65
:103228009D0501E1000C020E9D19F7E1010C00015A
:103238009D6F9D5104E0BF0E986FFD0E03D0000EE8
:10324800986FFE0E996F9A6B9B6B94EF17F0020EB6
:103258000001E361020CE351390D8C0EF324D96EA1
:10326800020EF420DA6E000EDF6AE369120024EC25
:1032780011F068EC19F04AEC19F009EC19F0CB6F71
:10328800CB51FDEC14F0E1EC19F0FDD73F0E986F2F
:10329800FE0E996F9A6B010E9B6F94EC17F0050E5A
:1032A8006A6FDC0E696FFEEF0FF06B6F00016A6BDF
:1032B8003A0E6B6105D02F0E6B6502D0010E6A6F56
:1032C8006AC069F069311200380ECD6E9A6ACF6A09
:1032D800CE6ACECF4CF0CFCF4DF09E909D80DFEFE1
:1032E80019F00001696FA49E729E69C075FF72BED5
:1032F800FBD7A4AEFED7A49E1200A0C096F0A1C032
:1033080097F0000E986BA3C099F078EF11F00001C8
:10331800696FC69E69C0C9FFC7A0FED7C950120011
:103328007C0E986FFF0E996F9A6B010E9B6F94EF4E
:1033380017F05D0E0001986FFE0E996F9A6B9B6BEC
:1033480094EF17F06A6F8C9E8C8600016A5175ECB9
:1033580019F08C8E120000016A6F8C9E8C966A514F
:1033680075EC19F08C8E12000001606FC69E60C06B
:10337800C9FFC7A0FED7C9501200016EC69E01C082
:10338800C9FFC7A0FED7C95012009B6F9AC098F01A
:1033980000019B5156EF17F04CEC06F0DFB7010C1B
:1033A800000C000E75EC19F075501200DF972BEF2A
:1033B80019F001010301CD801200B9EF03F08D82ED
:0E33C80012008D92120000F01200120012008E
:10FC70000020B2202020B22020B220B2202020205C
:10FC800020B220B20D0AB220B220B220B220202031
:10FC9000B22020B22020B220200D0AB22020B220B3
:10FCA00020B220B220B22020B22020B220B20D0A11
:10FCB000B22020B22020B220B22020B220B220B246
:10FCC0002020B20D0AB22020B22020B220B2202083
:10FCD00020B220B2202020B20D0A20202020202097
:10FCE000202020202020202020202020200D0A2637
:10FCF000008402090409060C08C10A770C630E1976
:10FD0000100012001400163818C81A0D1C001E72BC
:10FD1000203822382407260028002A692C812E7ECC
:10FD2000309632F83488364038003AE83C003E538A
:10FD30005353535353535353535353535353535393
:10FD40005353535454545454545454545454541DAD
:10FD5000202225282B2E303336393C3F4144474A58
:10FD60004D4F520A0D101215181B1E202326290173
:10FD7000000800400000020010008001000A00643A
:10FD800000E803102701001000000100100D0A0D0B
:10FD90000A436F6E6E656374696F6E2020202020A9
:10FDA000506565724C6F6E67416464726573732051
:10FDB0002020202050656572496E666F0D0A005044
:10FDC00043203A535731206F72205357322020740A
:10FDD0006F2042726F616443617374206D736700BA
:10FDE000436F6E6E656374696E672050656572203F
:10FDF000206F6E204368616E6E656C202564200064
:10FE0000535731203A20556E696361737420202066
:10FE1000535732203A204E657874204E6F64650047
:10FE200020436F6E6E656374656420506565722053
:10FE3000206F6E204368616E6E656C2025640053F0
:10FE4000696D706C65205354415220202020204D54
:10FE5000524638395841204E6F646531005357314E
:10FE60003A2042726F616463617374202053573289
:10FE70003A20556E6963617374005357313A4E6589
:10FE800077204E6574776F726B205357323A467203
:10FE900065657A65720042726F6164636173742094
:10FEA0005061636B657420776974682052535349BD
:10FEB0002000556E6963617374205061636B6574D3
:10FEC0002077697468205253534920005242303AD7
:10FED000253032642D253032782530327825303285
:10FEE000782D6D65005242303A253032642D253030
:10FEF00032782530327825303278002041646472BF
:10FF00006573733A2530327825303278253032786F
:10FF100000446174615F53656E64696E675F46613A
:10FF2000696C2121000D0A0D0A4D7920416464722B
:10FF30006573733A203078003031323334353637D8
:10FF40003839414243444546003031323334353646
:10FF5000373839616263646566005242323A204341
:10FF600068616E6765206E6F64650044617461202E
:10FF70005061636B65742066726F6D0020556E6909
:10FF800063617374204661696C65640054583A2556
:10FF90003364202C2052583A253364004D65737326
:10FFA00061676520436F756E74002020202020203B
:10FFB0002020202020202000536C656570696E672A
:10FFC0002121210020204368616E6E656C3A20007B
:10FFD000576F6B6520557021212100536C6565704A
:10FFE000696E672121005365637572656420002086
:08FFF00066726F6D2000000035
:08FFF800ACF5DAFBFFF9FFF1A3
:00000001FF
