:040000002AEF00F0F3
:0E0008005682E1CF29F0E2CF2AF071EF0BF023
:100018005680D8CF73F0E8CF74F0E0CF75F0F2B225
:10002800F2A801D0F292600E0001DD1907E1280E56
:10003800DCEC1DF0726FD8907231426E75C0E0FF33
:1000480074C0E8FF73C0D8FF5690100091EF1CF001
:100058001DEC1DF076C0E8F177C0E9F178C0EAF14F
:1000680079C0EBF11DEC1DF076C0F2F177C0F3F129
:1000780078C0F4F179C0F5F1E75128E001018F511A
:10008800F25D0001C66F01019051F3590001C76F7D
:1000980001019151F4590001C86F01019251F559BC
:1000A8000001C96F810EC65DC30EC759C90EC85974
:1000B800010EC95932E3F0EC1CF0F2C18FF1F3C123
:1000C80090F1F4C191F1F5C192F127D001018B5162
:1000D800F25D0001C66F01018C51F3590001C76F31
:1000E80001018D51F4590001C86F01018E51F55974
:1000F8000001C96FC95107E1E10EC65D700EC7590D
:10010800720EC8590AE33BEC1FF0F2C18BF1F3C140
:100118008CF1F4C18DF1F5C18EF101018B51E85DCF
:100128000001C66F01018C51E9590001C76F010137
:100138008D51EA590001C86F01018E51EB59000138
:10014800C96FC95107E1E10EC65D700EC759720E3D
:10015800C8590CE3E7510AE051EC0DF0E8C18BF106
:10016800E9C18CF1EAC18DF1EBC18EF10101FA6BA5
:10017800FA51330D800EF324D96E030EF420DA6E93
:100188000301DFA042D01DEC1DF076C0ECF177C072
:10019800EDF178C0EEF179C0EFF10101FA51330DBC
:1001A800720EF324D96E030EF420DA6EDECFC6F099
:1001B800DECFC7F0DECFC8F0DECFC9F00001C651F0
:1001C8000101EC5D0001CA6FC7510101ED59000141
:1001D800CB6FC8510101EE590001CC6FC951010123
:1001E800EF590001CD6FCD5106E1CA05120ECB596A
:1001F8007A0ECC590AE30101FA51330D800EF3242B
:10020800D96E030EF420DA6EDF6A0101FA2B010EB3
:10021800FA65AED70001DCA332D01DEC1DF076C024
:10022800ECF177C0EDF178C0EEF179C0EFF10101A2
:100238007F51EC5D0001C66F01018051ED5900014D
:10024800C76F01018151EE590001C86F0101825148
:10025800EF590001C96FC95107E1210EC65DA10E12
:10026800C759070EC8590BE3DC931E0E776F020EB1
:10027800786F040E796F8C0E7A6F37EC1AF00001E4
:10028800DCB7120054EC0FF00009D8B412000101D9
:10029800E76B2F6A73A504D00001C66BC62B02D08A
:1002A8000001C66B2F50C619FC0BC6192F6E010131
:1002B80073A702D02F8601D02F9601017351030B2B
:1002C800E80604E10001C66BC62B02D00001C66B2C
:1002D800C63BC6472F50C619DF0BC6192F6E010142
:1002E80073AF02D02F8C01D02F9C010173AF04D0C3
:1002F80074C132F075C133F078C136F076C134F08C
:1003080077C135F07AC138F079C137F02FAAF5D323
:10031800C9D30001E7510CE00101F86B20EE01F0B0
:100328003450D9263550DA220001E551DE1803E0B1
:100338006FEC20F0E4D3030EE919FAE0F8EC10F0C2
:100348000101F86F20EE03F03450D9263550DA2237
:10035800AA0EDE1821E1F66B090EF66501D01CD055
:1003680032C076F033C077F0F6510E0D220EF3242A
:100378000001786F020EF420796FBCEC1FF00009C1
:1003880008E0690E0101F625D96EDA6A010EDA2253
:10039800DF680101F62BE0D70001E90508E101015A
:1003A800F80505E0020EF81902E0F30EF86F0001F7
:1003B800DF6B950EDF25D96EDA6A010EDA22910E0F
:1003C800DF6EDF2B950EDF25D96EDA6A010EDA2291
:1003D800F8C1DFFFDF2B950EDF25D96EDA6A010E33
:1003E800DA223FC0DFFFDF2B0101F85102E0F805F8
:1003F8001EE1950E0001DF25D96EDA6A010EDA22B8
:10040800DBC0DFFFDF2B0101FA6BFA51E80FD96E71
:10041800DA6A950E0001DF25E16EE26A010EE2223A
:10042800DFCFE7FFDF2B0101FA2BFA51EEE06FEC8B
:1004380020F032C0A3F033C0A4F0010EA56F000E67
:100448002FB6010EA66F000EE1EC17F051EC0DF07F
:100458000101F85101E053D30001DA510E0D1E0ECF
:10046800F324776F020EF420786FDA510E0DF350F3
:10047800040F796F0E0E7A6F37EC1AF040D3020E24
:100488000001E96501D054D720EE01F03450D92697
:100498003550DA22E551DE1801E04AD7DF6B950EB8
:1004A800DF25D96EDA6A010EDA22970EDF6EDF2BAE
:1004B800950EDF25D96EDA6A010EDA22DBC0DFFF7E
:1004C800DF2B0101FA6BFA51E80FD96EDA6A950E43
:1004D8000001DF25E16EE26A010EE222DFCFE7FFCD
:1004E800DF2B0101FA2BFA51EEE06FEC20F032C05D
:1004F800A3F033C0A4F0010EA56F000E2FB6010EB5
:10050800A66F000EE1EC17F0FAD20001DF6B950E32
:10051800DF25D96EDA6A010EDA22920EDF6EDF2B42
:100528000101FA6BFA510E0D2A0EF324D96E020E50
:10053800F420DA6EDFAE3AD032C076F033C077F00E
:100548000101FA510E0D220EF3240001786F020EFC
:10055800F420796FBCEC1FF0000928E00101FA5182
:100568000E0D2A0EF324D96E020EF420DA6EDF6A1D
:10057800FA510E0D1E0EF3240001776F020EF420BF
:10058800786F0101FA510E0DF350040F0001796FD5
:100598000E0E7A6F37EC1AF0950E0001DF25D96E32
:1005A800DA6A010EDA22DF6ADF2B05D00101FA2BA5
:1005B800090EFA65B7D76FEC20F00A0E0101FA1997
:1005C8000AE1950E0001DF25D96EDA6A010EDA22FA
:1005D800F00EDF6EDF2B32C0A3F033C0A4F0010EA3
:1005E8000001A56F000E2FB6010EA66F000EE1ECFC
:1005F80017F085D2F8EC10F020EE02F03450D9262E
:100608003550DA22DF50E66FE60E776F786BBB0E57
:10061800796F010E7A6F37EC1AF00001DC831DEC5C
:100628001DF076C07FF177C080F178C081F179C084
:1006380082F17ED620EE01F03450D9263550DA22E8
:10064800DF50D8E0010AD6E073D60001DCBBDC9BA2
:100658006FD620EE01F03450D9263550DA22DF501B
:1006680001E066D6FA6BFA510E0D2A0EF324D96E04
:10067800020EF420DA6EDFAE31D032C076F033C02D
:1006880077F00101FA510E0D220EF3240001786F64
:10069800020EF420796FBCEC1FF000091FE0010185
:1006A800FA510E0D2A0EF324D96E020EF420DA6EDA
:1006B800DF6AFA510E0D1E0EF3240001776F020E49
:1006C800F420786F0101FA510E0DF350040F000168
:1006D800796F0E0E7A6F37EC1AF02AD60101FA2BD1
:1006E800090EFA65C0D724D6F16B0001DF6B010152
:1006F800FA6BFA51330D800EF324D96E030EF420F1
:10070800DA6EDFA01ED10101FA51330D800EF324F9
:10071800D96E030EF420DA6EDFA2AAD0F96B090EA7
:10072800F96501D00ED1FA51330D720E0001C66F72
:10073800030EC76F040EC627000EC723F350C62743
:10074800F450C7230101F9510001C625D96E000EE6
:10075800C721DA6EDE2801E188D00101FA51330D94
:10076800720E0001C66F030EC76F040EC627000E77
:10077800C723F350C627F450C7230101F9510001DC
:10078800C625D96E000EC721DA6EDF500E0D220E77
:10079800F324766F020EF420776F32C078F033C0FE
:1007A80079F0BCEC1FF0000960E00101FA51330D4B
:1007B800720E0001C66F030EC76F040EC627000E27
:1007C800C723F350C627F450C7230101F95100018C
:1007D800C625D96E000EC721DA6EDF680101F96BF4
:1007E80022D0FA51330D720E0001C66F030EC76F87
:1007F800100EC627000EC723F350C627F450C72390
:100808000101F9510001C625D96E000EC721DA6E23
:10081800950EDF25E16EE26A010EE222DFCFE7FFE7
:10082800DF2B0101F92BFA51330D810EF324D96E18
:10083800030EF420DA6EDE50F95DD3E332C0A3F084
:1008480033C0A4F0F1C1A5F0FA51330D800EF324A2
:10085800D96E030EF420DA6E000EDFB6010E000129
:10086800A66F000EE1EC17F063D50101F92B57D7FD
:100878000101FA51330D760EF3240001766F030E51
:10088800F420776F32C078F033C079F0BCEC1FF0F9
:10089800000957E00101F96B22D0FA51330D720EAD
:1008A8000001C66F030EC76F100EC627000EC723C0
:1008B800F350C627F450C7230101F9510001C6259A
:1008C800D96E000EC721DA6E950EDF25E16EE26A59
:1008D800010EE222DFCFE7FFDF2B0101F92BFA51EE
:1008E800330D810EF324D96E030EF420DA6EDE5038
:1008F800F95DD3E3FA51330D760EF3240001A36FAB
:10090800030EF420A46FF1C1A5F00101FA51330DD3
:10091800800EF324D96E030EF420DA6E000EDFB6D3
:10092800010E0001A66F000EE1EC17F00101FA516B
:10093800330D800EF324D96E030EF420DA6EDF6ACD
:10094800F7D40101FA2B010EFA65D3D6020EFA1973
:1009580001E0EED432C0A3F033C0A4F0F1C1A5F099
:10096800000E0001A66BE1EC17F0E2D420EE01F0D6
:100978003450D9263550DA220001E551DE1801E05D
:10098800D7D420EE02F03450D9263550DA22DF5081
:1009980097EC16F0CDD40001E75101E0C9D4010E5F
:1009A800E26FC6D40001E75101E0C2D420EE01F0A5
:1009B8003450D9263550DA22DF50C66FC605496E45
:1009C80034C07DF035C07EF0F0EC14F0B1D40001F5
:1009D800E75101E1ADD434C076F035C077F0CBEC07
:1009E80018F00101F06FF0290EE034C0BFF035C0F7
:1009F800C0F0F0C1C1F032C0C2F033C0C3F030EC77
:100A080018F00101E76FE75101E192D432C0ADF06F
:100A180033C0AEF0E7EC1FF08BD40001E75101E1E1
:100A280087D40101F76B090EF76501D081D432C074
:100A3800D9FF33C0DAFFF7510E0D220EF324E16E11
:100A4800020EF420E26EDE50E6182AE120EE01F0F4
:100A58003250D9263350DA22F7510E0D230EF324E3
:100A6800E16E020EF420E26EDE50E61819E120EE87
:100A780002F03250D9263350DA22F7510E0D240EE7
:100A8800F324E16E020EF420E26EDE50E61808E16F
:100A98005F0EF725D96EDA6A010EDA22DF2A48D40A
:100AA800F72BC1D734C0D9FF35C0DAFFDF50040AAD
:100AB80001E11AD6730A01E175D70D0AAEE0FB0A07
:100AC80001E127D4030A01E120D5010A01E10CD68E
:100AD800070A01E14BD7030A01E1D1D4160A01E163
:100AE800A9D5030A01E1B5D5050A01E1AED55B0A2E
:100AF80001E16DD7160A01E14ED70001DC873650B7
:100B080005E00001DCB902D0DCAB12000001DC9783
:100B18006FEF20F0860E9C6F78D3250EA21909E09E
:100B280082C0D9FF83C0DAFFA2C0DFFF824B832BCC
:100B38006CD3A06BA16BA36BA46B09D0A38705D062
:100B4800A38103D0A48701D0A385844B852B84C0BF
:100B5800F6FF85C0F7FF0800F550200AF1E0030A08
:100B6800F1E00E0AEBE01D0AEFE0A3B7A39584C0FD
:100B7800F6FF85C0F7FF0800F5509DEC20F02EE346
:100B8800A06BA16BA0C076F0A1C077F0796B0A0EBC
:100B9800786F4CEC20F076C0A0F077C0A1F0D00EB2
:100BA8008E6F8F6984C0F6FF85C0F7FF0800F55087
:100BB800906F916B8E5190278F5191239051A02760
:100BC8009151A123844B852B84C0F6FF85C0F7FF84
:100BD8000800F5509DEC20F014E3D4D784C0F6FF4C
:100BE80085C0F7FF0800F5502A0A0BE19C51D96E21
:100BF800DA6ADECFA0F0DDCFA1F0020E9C27844B8D
:100C0800852B84C0F6FF85C0F7FF0800F5502E0A33
:100C180030E1A48D844B852B84C0F6FF85C0F7FF97
:100C28000800F5502A0A0AE19C51D96EDA6ADF50A9
:100C38009F6F020E9C27844B852B8AD09F6B0FD009
:100C480084C0F6FF85C0F7FF0800F5CF8EF09F51EE
:100C58000A0DF3508E25D00F9F6F844B852B84C0CF
:100C6800F6FF85C0F7FF0800F5509DEC20F070E313
:100C7800E7D79F6B6DD0A38D88D0A38BA38F85D02A
:100C88009F510FE09FC08EF08F6B8EBF8F079A51D8
:100C98008E5D9B518F5905E29F519A6F9B6B9ABF4E
:100CA8009B07A0519A5DA1519B5905E29A51A05FFB
:100CB8009B51A15B02D0A06BA16BA3B71DD008D03C
:100CC80082C0D9FF83C0DAFF200EDF6E824B832BF0
:100CD800A007D8A0A107A029F3E1A1290DE0F0D72A
:100CE8009951D96EDA6A82C0E1FF83C0E2FFDFCF93
:100CF800E7FF992B824B832B9A07D8A09B079A2949
:100D0800EFE19B29EDE1A3A780D208D082C0D9FFEB
:100D180083C0DAFF200EDF6E824B832BA007D8A09A
:100D2800A107A029F3E1A12901E16FD2EFD79C51D6
:100D3800D96EDA6ADF50A26F020E9C27A20E996F55
:100D4800000E9B6F010E9A6F9BD7C00EA3131DD088
:100D580084C0F6FF85C0F7FF844B852B0800F5CFCC
:100D6800A2F0A25101E15DD2580A87E03B0ADFE018
:100D7800070A0BE00D0A09E0060A01E17CD71A0A06
:100D8800E4E00D0A01E17AD7D9D7A3C08EF0C00EEE
:100D98008E1712E19C51D96EDA6ADECF9DF0DDCF55
:100DA8009EF0020E9C279EAF10D0030EA3139D6DDC
:100DB8009E1FD8B09E2B09D09C51D96EDA6ADECF1F
:100DC8009DF0DDCF9EF0020E9C279F5147E19D517B
:100DD8009E1144E19F2B42D0010EA26F050EA2196D
:100DE80046E0A251020D910EF324F66EFD0EF4209A
:100DF800F76E0900F5509D5D0900F5509E5937E3DF
:100E0800A22BECD7010EA26F040EA21930E0A2515A
:100E1800020D9B0EF324F66EFD0EF420F76E09000A
:100E2800F5509D5D0900F5509E5921E3A22BECD7A2
:100E3800010EA26F060EA2191AE0A251020D850E2C
:100E4800F324F66EFD0EF420F76E0900F5509D5D53
:100E58000900F5509E590BE3A22BECD7A351C00B08
:100E6800BBE0400AE5E0C00ACDE0400AB5E0A25187
:100E7800800A8E6F9F51800A8E5D03E29FC0A2F0A8
:100E880009D09F51800A8E6FA251800A8E5D02E2BE
:100E9800A2C09FF0A051A11108E0A3C08EF0030EDC
:100EA8008E1703E0A007D8A0A107A4AD13D0800E29
:100EB8009FBF7F0E8E6FA0519F5DA151800A8E59F2
:100EC80007E29F51A05F000E9FBFFF0EA15B02D0FB
:100ED800A06BA16BC40E8E6F080E8F6FA3C090F02D
:100EE800A4C091F08E5190178F519117400E901910
:100EF8000AE1080E911907E1A051A11124E0A00709
:100F0800D8A0A10720D0C00E8E6F080E8F6FA3C087
:100F180090F0A4C091F08E5190178F519117800EC8
:100F2800901911E1080E91190EE1A1BF0AD0A15143
:100F380003E1030EA05D05E3FE0EA027FF0EA1232B
:100F480002D0A06BA16B800EA2BF7F0E8E6FA05146
:100F5800A25DA151800A8E5907E2A251A05F000E3E
:100F6800A2BFFF0EA15B02D0A06BA16BA3A54FD0BF
:100F7800A3C08EF0030E8E1709E082C0D9FF83C08C
:100F8800DAFF2D0EDF6E824B832B31D0A3A106D062
:100F980082C0D9FF83C0DAFF200EF4D7C00E8E6F4F
:100FA800080E8F6FA3C090F0A4C091F08E519017D7
:100FB8008F519117800E90191AE1080E911917E1B7
:100FC80082C0D9FF83C0DAFF300EDF6E824B832BDD
:100FD800A3BB03D0946B780E02D0946B580E936F1A
:100FE80082C0D9FF83C0DAFF93C0DFFFCCD7A051FE
:100FF800A11101E1F2D082C0D9FF83C0DAFF300E1F
:10100800DF6E824B832BA007D8A0A107F0D7A05191
:10101800A11110E0A3B70ED082C0D9FF83C0DAFFB8
:10102800200EDF6E824B832BA007D8A0A107A0510A
:10103800A111F2E1A3C08EF0030E8E1709E082C061
:10104800D9FF83C0DAFF2D0EDF6E824B832B08D0C9
:10105800A3A106D082C0D9FF83C0DAFF200EF4D73F
:10106800C00E8E6F080E8F6FA3C090F0A4C091F0D1
:101078008E5190178F519117400E90190CE1080E60
:10108800911909E182C0D9FF83C0DAFF300EDF6E03
:10109800824B832BA2D0C00E8E6F080E8F6FA3C019
:1010A80090F0A4C091F08E5190178F519117800E37
:1010B80090191BE1080E911901E08FD082C0D9FF69
:1010C80083C0DAFF300EDF6E824B832BA3BB03D0C5
:1010D800966B780E02D0966B580E956F82C0D9FF2A
:1010E80083C0DAFF95C0DFFFD3D777D09F51020DB9
:1010F800910EF324F66EFD0EF420F76E0900F5CF7D
:1011080078F00A00F5CF79F09DC076F09EC077F0B0
:10111800B7EC1DF076C07DF077C07EF0806B0A0ECC
:101128007F6FC3EC1EF07D5145D09DC076F09EC008
:1011380077F09F51020D9B0EF324F66EFD0EF420FE
:10114800F76E0900F5CF78F00A00F5CF79F0B7EC23
:101158001DF076510F0B926FA3BB04D06C0E976FE6
:10116800FF0E03D05B0E976FFF0E986F9251972575
:101178008E6F000E98218F6F8EC0F6FF8FC0F7FF1D
:101188000800F5CFA2F022D09DC076F09EC077F07F
:101198009F51020D850EF324F66EFD0EF420F76EB6
:1011A8000900F5CF78F00A00F5CF79F0B7EC1DF01B
:1011B8007651070B300FA26F09D0A351C00B96E0F0
:1011C800400AE2E0C00AB1E0400A90E082C0D9FFDC
:1011D80083C0DAFFA2C0DFFF5BD79F079F29EDE13D
:1011E800A3B7A1BF12D0A15102E1A0050EE382C0AE
:1011F800D9FF83C0DAFF200EDF6E824B832BA00756
:10120800D8A0A107A051A111F2E184C0F6FF85C0C2
:10121800F7FF844B852B0800F5CFA2F0A25101E01F
:101228007CD482C0D9FF83C0DAFFDF6A000C1DECD2
:101238001DF076C083F177C084F178C085F179C05C
:1012480086F1010E486E45D201EC1EF0000901E05E
:10125800F3D1A9EC19F00001D56FD50504E0020E11
:10126800D51901E0E9D1E75137E0DF6BE16B140EE6
:10127800E16501D026D0060E766F465011EC20F0BD
:10128800150D870E0201B66FFC0EB76FF350B62727
:10129800F450B7230001E1510201B627000EB7232D
:1012A800B6C2F6FFB7C2F7FF950E0001DF25D96E6B
:1012B800DA6A010EDA220800F5CFDFFFDF2BE12B17
:1012C800D6D7462A000EC2EC1CF043C0A7F0452A28
:1012D8004550FAEC20F0B0D1D76B010E476ED46FB1
:1012E800A8D125EC20F0D751E61937E1B80E826F66
:1012F800010E836FDD0E846FFE0E856FD751040DCE
:101308003A0EF324D96E010EF420DA6EDF50866FA0
:10131800876BD751040D370EF324D96E010EF420D4
:10132800DA6EDF50886F896BD751040D380EF324BD
:10133800D96E010EF420DA6EDF508A6F8B6BD751AD
:10134800040D390EF324D96E010EF420DA6EDF5045
:101358008C6F8D6B8EEC05F036D0B80E826F010E57
:10136800836FF60E846FFE0E856FD751040D3A0E0B
:10137800F324D96E010EF420DA6EDF50866F876B86
:10138800D751040D370EF324D96E010EF420DA6E0E
:10139800DF50886F896BD751040D380EF324D96E4E
:1013A800010EF420DA6EDF508A6F8B6BD751040D73
:1013B800390EF324D96E010EF420DA6EDF508C6FEB
:1013C8008D6B8EEC05F0B80E826F010E836FF60EF2
:1013D800846FFE0E856FD751040D3A0EF324D96E33
:1013E800010EF420DA6EDF50866F876BD751040D3B
:1013F800370EF324D96E010EF420DA6EDF50886FB1
:10140800896BD751040D380EF324D96E010EF420E0
:10141800DA6EDF508A6F8B6BD751040D390EF324C7
:10142800D96E010EF420DA6EDF508C6F8D6B8EEC66
:1014380005F0C80E826F010E836F7D0E846FFF0E5C
:10144800856F8EEC05F0BBEC1AF0010E476EEED0FE
:10145800A9EC19F00001D66F01EC1EF0D60501E0E9
:10146800C6D0D46B476AD751E61932E1DF6BE16B1E
:10147800140EE16501D026D0060E766F465011ECA9
:1014880020F0150D870E0201B66FFC0EB76FF350F2
:10149800B627F450B7230001E1510201B627000E28
:1014A800B723B6C2F6FFB7C2F7FF950E0001DF25D6
:1014B800D96EDA6A010EDA220800F5CFDFFFDF2BDA
:1014C800E12BD6D7000EB26B92EC17F0452A80D0EC
:1014D800DF6B950EDF25D96EDA6A010EDA22CC0EA3
:1014E800DF6EDF2BD751040D370EF324D96E010EB2
:1014F800F420DA6E950EDF25E16EE26A010EE22233
:10150800DFCFE7FFDF2BD751040D380EF324D96E58
:10151800010EF420DA6E950EDF25E16EE26A010E07
:10152800E222DFCFE7FFDF2BD751040D390EF3247A
:10153800D96E010EF420DA6E950EDF25E16EE26AAF
:10154800010EE222DFCFE7FFDF2B040EE16F180E5A
:10155800E16501D02FD0FC0E0201B66FB769060E07
:101568000001766F465011EC20F0150D870E020130
:10157800B86FFC0EB96FF350B827F450B9230001C7
:10158800E1510201B827000EB923B651B827B75167
:10159800B923B8C2F6FFB9C2F7FF950E0001DF25DF
:1015A800D96EDA6A010EDA220800F5CFDFFFDF2BE9
:1015B800E12BCDD7000E61EC19F0D36FD35186E142
:1015C800220EA56FFF0EA66FA76BA86BA4EC1EF0EA
:1015D80043C0A7F04550FAEC20F0050E776FDC0EFB
:1015E800766FC7EC15F0E7515FEC20F01FD0020EC4
:1015F800D6191CE1D7510201B66FB76BB869B96942
:101608004950BA6FBB6BB851BA27B951BB23B65111
:10161800BA5DBB51800ABC6FB751800ABC5903E25E
:101628000001D76B02D00001D72B476A475001E071
:101638000FD7D40501E155D64A5006E0E75104E139
:10164800CE6BA7EC11F04A6A1DEC1DF076C087F14D
:1016580077C088F178C089F179C08AF10101835196
:10166800875D0201B66F0101845188590201B76F85
:101678000101855189590201B86F010186518A59C2
:101688000201B96FB95107E1E10EB65D700EB759A5
:10169800720EB8591EE30001E7511BE025EC20F05B
:1016A800B80E826F010E836F490E846FFF0E856F2F
:1016B800E4C086F0876B8EEC05F0BBEC1AF0070EE1
:1016C800776FD00E766FC7EC15F0486A010E5FECA5
:1016D80020F0485001E0B8D51200D9CF2BF0DACF6E
:1016E8002CF0F3CF2DF0F4CF2EF0F0B0F0A6ADD162
:1016F800600E0001DD1901E0A4D142C041F0899AD1
:10170800000EF2EC20F000016A6F898A6B6B6B5156
:10171800390D000EF324D96E030EF420DA6EDFA023
:1017280005D000016B2B010E6B65F1D7020E00018D
:101738006A1903E1010E676F01D0676B370E6A61A2
:1017480007D06A5105E0010E6B6513D0675111E1AE
:101758001A0E25EC1EF008D0899A000EF2EC20F043
:10176800898A1A0E25EC1EF00001626F62B3F4D765
:101778006AD1686B6AC060F0616B5FD16007D8A0FE
:101788006107675109E0899A6851630FD96EDA6A6F
:10179800000EF2EC20F017D0899A6B51390D000E2B
:1017A800256E030E266E252A000E2622F3502526C6
:1017B800F450262268512524D96E000E2620DA6EB0
:1017C800000EF2EC20F0DF6E0001682B898A6A5166
:1017D800685D01E232D1675123E06351030B020ACD
:1017E80007E14450641901E02ED1010EE06F2BD1BE
:1017F800010E6B6501D0ACD76B51390D010EF32486
:10180800D96E030EF420DA6E63C0DFFF6B51390D19
:10181800020EF324D96E030EF420DA6E64C0DFFFE3
:101828006B51390D380EF324D96E030EF420DA6E9D
:101838006AC0DFFF69696B51390D010EF324D96E57
:10184800030EF420DA6EDFAC33D000016C6B28D0C5
:101858006C513A24D96E000E3B20DA6E6B51390D6B
:10186800000E266E030E276E030E2626000E272274
:10187800F3502626F45027226C512624E16E000EE0
:101888002720E26EDE50E6180AE06B51390D380E5B
:10189800F324D96E030EF420DA6EDF6A59D76C2B65
:1018A8003930E832E8320F0B256E25506C5DD0E3F5
:1018B80000016B51390D010EF324D96E030EF4208B
:1018C800DA6EDFAA37D06C6B000E6C25D96EDA6A37
:1018D800010EDA226C51630FE16EE26ADFCFE7FF97
:1018E8006C2B010E6C65F0D7060E0101006F00012C
:1018F8006B51390D020EF324D96E030EF420DA6E03
:10190800DF500101016FF090116A020E7CEC13F0B8
:1019180000016C6B6C51630FD96EDA6A000E6C258E
:10192800E16EE26A010EE222DFCFE7FF6C2B010EC7
:101938006C65F0D700016C6B6C51060D000EF3243A
:10194800D96E020EF420DA6EDF5026E06B51390DA5
:10195800020EF324D96E030EF420DA6E6C51060DD4
:10196800010EF324E16E020EF420E26EDE50E6185A
:1019780013E16BEC1DF06C51060D020EF324D96EC9
:10198800020EF420DA6E01C0DEFF02C0DEFF03C0E3
:10199800DEFF04C0DEFF12D069290CE16C51060D90
:1019A800000EF324D96E020EF420DA6EDF5002E145
:1019B8006CC069F06C2B040E6C65BED7040E6C65A8
:1019C80042D0050E69612ED06951060D000EF32430
:1019D800D96E020EF420DA6E010EDF6E6B51390DEE
:1019E800020EF324D96E030EF420DA6E6951060D47
:1019F800010EF324E16E020EF420E26EDFCFE7FF62
:101A08006BEC1DF06951060D020EF324D96E020E1F
:101A1800F420DA6E01C0DEFF02C0DEFF03C0DEFF85
:101A280004C0DEFF6B51390D000EF324D96E030E8E
:101A3800F420DA6E0301DF8006D06051611103E003
:101A48009DD6010ED96FF09000F0F2B2F2A80CD03A
:101A5800F292600E0001DD1907E1280E25EC1EF058
:101A6800256ED8902530426E9EB09DA006D09E90DF
:101A78004B2A4B5002E10001E32B17EC21F02EC05A
:101A8800F4FF2DC0F3FF2CC0DAFF2BC0D9FF2AC00A
:101A9800E2FF29C0E1FF56921100E451040D040E43
:101AA800F326000EF422F4BE05D0F45006E1230E0E
:101AB800F35C03E2010EB56F27D0E451040D040E68
:101AC800F324766F000EF420776F796B230E786F0E
:101AD80076EC1BF07651B56FE451040D040EF32635
:101AE800000EF422F350F4100FE0E451040D040E3C
:101AF800F324766F000EF420776F796B230E786FDE
:101B08005DEC1CF07651B527B76BCCD0DF6B950E2A
:101B1800DF25D96EDA6A010EDA22770EDF6EDF2B47
:101B2800950EDF25D96EDA6A010EDA22E4C0DFFFEE
:101B3800DF2BB751070D950EDF25D96EDA6A010E36
:101B4800DA22F3CFDFFFDF2BB729070D950EDF254C
:101B5800D96EDA6A010EDA22F3CFDFFFDF2B040E2B
:101B6800B46FB751070DF3CFB8F067D0E451B85D43
:101B780063E2B8510E0D2A0EF324D96E020EF4203A
:101B8800DA6EDFAE3ED00001B8510E0D220EF324FE
:101B9800D96E020EF420DA6E950EDF25E16EE26A48
:101BA800010EE222DFCFE7FFDF2BB8510E0D230E27
:101BB800F324D96E020EF420DA6E950EDF25E16E5D
:101BC800E26A010EE222DFCFE7FFDF2BB8510E0DEC
:101BD800240EF324D96E020EF420DA6E950EDF255A
:101BE800E16EE26A010EE222DFCFE7FFDF2B950EFE
:101BF800DF25D96EDA6A010EDA22B8C0DFFFDF2BE3
:101C080019D0950E0001DF25D96EDA6A010EDA22A5
:101C1800DF68DF2B950EDF25D96EDA6A010EDA222E
:101C2800DF68DF2B950EDF25D96EDA6A010EDA221E
:101C3800DF68DCD7040EB427B82BB751AD6FAE6B95
:101C4800AD2B000EAE23070EAD03F3CFAFF0F4CFEC
:101C5800B0F0AE03F350B027B851B16FB26BAF51CB
:101C6800B15DB251800AB36FB051800AB35901E235
:101C78007DD7B4C0B6F0220EB66501D00BD0950E54
:101C8800DF25D96EDA6A010EDA22110EDF6EDF2B3C
:101C9800B62BF1D7A36BA46B010EA56FA66BE1EC75
:101CA80017F0B72BB551B75D01E230D71200866F38
:101CB8000001886B8851330D800EF324D96E030E12
:101CC800F420DA6EDFB0E6D000018851330D800EC3
:101CD800F324D96E030EF420DA6EDF808851330DB9
:101CE800800EF324D96E030EF420DA6E86B102D08A
:101CF800DF9201D0DF8200018851330D800EF3247A
:101D0800D96E030EF420DA6E82B102D0DF9401D0CE
:101D1800DF8400018851330D800EF324D96E030E41
:101D2800F420DA6E83B102D0DF9601D0DF8600019D
:101D38008051811122E0896B89518025D96E000E6E
:101D48008121DA6E8851330D720E846F030E856F10
:101D5800040E8427000E8523F3508427F45085232E
:101D680089518425E16E000E8521E26EDFCFE7FF01
:101D7800892B070E8965E0D74ED0876B896B89510F
:101D88000E0D2A0EF324D96E020EF420DA6EDFAEA1
:101D980022D0000189510E0D2A0EF324D96E020EAD
:101DA800F420DA6EDFB017D08851330D720E846FCD
:101DB800030E856F040E8427000E8523F3508427B5
:101DC800F450852387518425D96E000E8521DA6E5B
:101DD80089C0DFFF872B0001892B090E8965CFD7C2
:101DE800090E876501D017D08851330D720E846FA4
:101DF800030E856F040E8427000E8523F350842775
:101E0800F450852387518425D96E000E8521DA6E1A
:101E1800DF68872BE5D78851330D810EF324D96EFF
:101E2800030EF420DA6EDFC0DFFF896B1DD0950E3C
:101E38008925D96EDA6A010EDA228851330D720EBD
:101E4800846F030E856F100E8427000E8523F350D0
:101E58008427F450852389518425E16E000E85215D
:101E6800E26EDFCFE7FF892BDF51895DE0E31DECF0
:101E78001DF08851330D720EF324D96E030EF42031
:101E8800DA6E76C0DEFF77C0DEFF78C0DEFF79C08D
:101E9800DEFF010C0001882B010E88650BD7000CB2
:101EA8008D6B1DEC1DF076C088F077C089F078C086
:101EB8008AF079C08BF08D51060D000EF324D96E8F
:101EC800020EF420DA6EDF503FE08D51060D020E4F
:101ED800F324D96E020EF420DA6E8851DE5C895143
:101EE800DE588A51DE588B51DE582EE28D51060D90
:101EF800020EF324D96E020EF420DA6EDECF80F0E3
:101F0800DECF81F0DECF82F0DECF83F08051885DB6
:101F1800846F81518959856F82518A59866F83519F
:101F28008B59876F875107E1210E845DA10E855972
:101F3800070E865909E38D51060D000EF324D96E5C
:101F4800020EF420DA6EDF6A8D2B040E8D65A9D798
:101F5800DE2901E0000C8D6B8D51390D000EF32444
:101F6800D96E030EF420DA6EDFA067D000018D5120
:101F7800390D010EF324D96E030EF420DA6EDF500A
:101F88000101736F00018D51390D380EF324D96E9C
:101F9800030EF420DA6EDF500101786F020E0001A3
:101FA8008C6F010173AD06D03930E832E8320F0B7F
:101FB80000018C27010173AF1ED000018D51390D2E
:101FC800000E806F030E816F802B000E8123F3506B
:101FD8008027F45081238C5180250101746F000102
:101FE800000E81210101756F3930E832E8320F0B9C
:101FF80000018C2702D0746B756B00018C510101B4
:10200800785F00018D51390D000E806F030E816FCE
:10201800802B000E8123F3508027F45081238C51AC
:1020280080250101766F0001000E81210101776F83
:1020380041C079F18DC0DEF0010C00018D2B010E3D
:102048008D658AD7000C886F41EC17F0DC6B8851DE
:1020580037E18C6B8C510E0D2A0EF324D96E020ECB
:10206800F420DA6EDF6A8C510E0D220EF324D96E3D
:10207800020EF420DA6EDF6A8C510E0D230EF32463
:10208800D96E020EF420DA6EDF6A8C510E0D240E22
:10209800F324D96E020EF420DA6EDF6A5F0E8C2507
:1020A800D96EDA6A010EDA22DF6A690E8C25D96EDA
:1020B800DA6A010EDA22DF6A8C2B090E8C65CAD720
:1020C800DF6B8C6B8C51330D800EF324D96E030EAD
:1020D800F420DA6EDF6A8C2B010E8C65F3D78C6BDB
:1020E8008C2B090E8C65FCD788513CE0E50E776F88
:1020F800786B020E796F010E7A6F8BEC1FF01F0E52
:10210800E56501D01F0CE90E776F786B030E796FC8
:10211800010E7A6F8BEC1FF01E0E776F020E786F30
:10212800040E796F8C0E7A6F8BEC1FF0E70E776FC9
:10213800786BB80E796F010E7A6F8BEC1FF0E60E94
:10214800776F786BBB0E796F010E7A6F8BEC1FF08F
:10215800E40E776F786BBA0E796F010E7A6F8BEC9D
:102168001FF01ED0E50E776F786B020E796F010EA7
:102178007A6F37EC1AF0E90E0001776F786B030E6F
:10218800796F010E7A6F37EC1AF01E0E0001776F27
:10219800020E786F040E796F8C0E7A6F37EC1AF096
:1021A800D90E00018A6F010E8B6F89838951870BC5
:1021B8004009896F88B102D0899502D000018985CC
:1021C800899189C084F08AC085F08BC086F07EEC46
:1021D80018F0E551D2EC1FF00001DB6BDB81E93927
:1021E800F00BDB13F08612000001826B8369846BAD
:1021F80084510E0D2A0EF324D96E020EF420DA6EE5
:10220800DFAE16D032C076F033C077F000018451CB
:102218000E0D220EF324786F020EF420796FBCECB9
:102228001FF000090AE084C083F0010E826F09D014
:102238000001832902E184C083F0842B090E8465A0
:10224800D7D7832901E1F10CE95103E0000182515C
:10225800120083C03FF0846B84513224D96E000E83
:102268003320DA6E83510E0D1E0E7E6F020E7F6FC5
:10227800040E7E27000E7F23F3507E27F4507F2321
:1022880084517E25E16E000E7F21E26EDFCFE7FFED
:10229800842B070E8465E0D783510E0D2A0EF32494
:1022A800D96E020EF420DA6EDF8E20EE02F0345082
:1022B800D9263550DA22DF5000017E6F010E7E17D5
:1022C80083510E0D2A0EF324D96E020EF420DA6E15
:1022D800DF507E19FE0B7E19DF6E846B8451342427
:1022E8007E6F000E35207F6F030E7E25D96E000E9F
:1022F8007F21DA6E83510E0D1E0E806F020E816FE4
:102308000D0E8027000E8123F3508027F45081237F
:1023180084518025E16E000E8121E26EDFCFE7FF58
:10232800842B8451DBE083C0DAF0DC9944EC1DF0A7
:10233800E46FE40E776F786BBA0E796F010E7A6FDF
:1023480037EC1AF083D7E9C0AAF20A0E0201AB6F84
:10235800B06B1DEC1DF076C08BF177C08CF178C0A6
:102368008DF179C08EF1CE0501E1FF0C1DEC1DF059
:1023780076C0ACF277C0ADF278C0AEF279C0AFF2F9
:10238800200E0201AC5FA10EAD5B070EAE5B000E26
:10239800AF5B0001E96BDC897AD01DEC1DF076C0DB
:1023A800B1F277C0B2F278C0B3F279C0B4F20201E8
:1023B800AC51B15D0001CF6F0201AD51B2590001BE
:1023C800D06F0201AE51B3590001D16F0201AF5174
:1023D800B4590001D26FD25107E1210ECF5DA10E91
:1023E800D059070ED1594DE3B1C2ACF2B2C2ADF229
:1023F800B3C2AEF2B4C2AFF20201B007B02947E1EE
:10240800010EB06FAB07AB2903E10001DC99FF0CAB
:102418000001DF6B950EDF25D96EDA6A010EDA222C
:10242800810EDF6EDF2B950EDF25D96EDA6A010E7D
:10243800DA22E5C0DFFFDF2B950EDF25D96EDA6AD9
:10244800010EDA22DBC0DFFFDF2B0201B56BB551CD
:10245800E80FD96EDA6A950E0001DF25E16EE26AAF
:10246800010EE222DFCFE7FFDF2B0201B52BB551CA
:10247800EEE00001A36BA46B010EA56FA66BE1EC67
:1024880017F001EC21F0000902E00CEC21F000014A
:10249800DCB983D7AAC2E9F0DA511200B16F0001A2
:1024A800B1294DE1B26BB2510E0D2A0EF324D96E4B
:1024B800020EF420DA6EDFAE21D00001DF6B950E3C
:1024C800DF25D96EDA6A010EDA22820EDF6EDF2B83
:1024D800B2510E0D220EF324A36F020EF420A46F46
:1024E800010EA56F000EA66BE1EC17F0AD6BAE6B9D
:1024F800AD4BAE2BAD290F0EAE59FAE30001B25128
:102508000E0D2A0EF324D96E020EF420DA6EDF6A5D
:10251800B2510E0D1E0EF324776F020EF420786F61
:10252800B2510E0DF350040F796F0E0E7A6F37EC1F
:102538001AF00001B22B090EB265B5D7090CB151DA
:102548000E0D2A0EF324D96E020EF420DA6E020163
:10255800DFAE12000001DF6B950EDF25D96EDA6A57
:10256800010EDA22820EDF6EDF2BB1510E0D220E24
:10257800F324A36F020EF420A46F010EA56F000EC2
:10258800A66BE1EC17F0AF6BB06BAF4BB02BAF297C
:102598000F0EB059FAE3B1510E0D2A0EF324D96E7D
:1025A800020EF420DA6EDF6AB1510E0D1E0EF3240E
:1025B800776F020EF420786FB1510E0DF350040FAF
:1025C800796F0E0E7A6F37EF1AF0986F030E0001CD
:1025D800946F87D0956BE06B936B865118E0280E4B
:1025E80092EC1DF0966FD8909633410E96650FD0F9
:1025F800932B9305876F040E876501D0000C010E9D
:10260800766F776B786B796B5EEC15F0E8D7F2989C
:10261800F096200EB2EC1BF01A0E786FC90E776F89
:1026280046EC1EF00001985100EC1FF00001996B78
:102638000BD0000E9925D96EDA6A010EDA22DF5026
:1026480000EC1FF00001992B9851995DF2E3800E80
:10265800B2EC1BF0F288F086D95102E1F0A0FCD769
:10266800D96B200EB2EC1BF0600EB2EC1BF001012E
:1026780000AB0ED001C144F01DEC1DF076C08BF00C
:1026880077C08CF078C08DF079C08EF0E05104E00E
:10269800010E0001976F2AD01DEC1DF076C08FF057
:1026A80077C090F078C091F079C092F08B518F5D2F
:1026B800876F8C519059886F8D519159896F8E51C0
:1026C80092598A6F8A51891105E1A90E875D610EB9
:1026D8008859DCE3952B9505876F040E876101D037
:1026E8007AD79407942901E075D7976B9751120010
:1026F800166E030E216E85D0226A0001E06B206AF7
:10270800115018E0280E25EC1EF0236ED8902332C5
:10271800410E23640FD0202A2004126E040E126486
:1027280001D0040C010E016E026A036A046A2FECE0
:1027380016F0E8D7F298F096200EEDEC1BF01A0E82
:10274800036EC90E026E1EEC1FF0165056EC1FF0F9
:10275800246A0AD0000E2424D96EDA6A010EDA221D
:10276800DF5056EC1FF0242A1650245CF3E3800E49
:10277800EDEC1BF0F288F0860001D95102E1F0A0DF
:10278800FBD7D96B200EEDEC1BF0600EEDEC1BF0C7
:10279800010100AB0ED001C144F06BEC1DF001C08B
:1027A80018F002C019F003C01AF004C01BF0E05181
:1027B80003E0010E176E010C6BEC1DF001C01CF05C
:1027C80002C01DF003C01EF004C01FF018501C5CAE
:1027D800126E19501D58136E1A501E58146E1B5045
:1027E8001F58156E1550141005E1A90E125C610EE4
:1027F8001358DDE3222A2204126E040E126001D05F
:102808007CD72106212801E077D7176A1200230E0A
:102818009F6501D0000C9AB503D0A06BA02B02D005
:102828000001A06BA03BA047A0479A51A019BF0B7D
:10283800A0199A6F9A8F9A51030BE80601E19A8FB3
:102848009AC000F13EC001F13E2A020EA16F9AAD76
:102858001AD0A26B10D0A2519B25D96E000E9C21D4
:10286800DA6E000EA125E16EE26A010EE222DFCFE8
:10287800E7FFA12BA22B3930E832E8320F0BA06F0B
:10288800A051A25DE8E39AAF1AD0A26B10D0A25172
:102898003A24D96E000E3B20DA6E000EA125E16EB7
:1028A800E26A010EE222DFCFE7FFA12BA22B39302B
:1028B800E832E8320F0BA06FA051A25DE8E3A26BEB
:1028C80010D0A2519D25D96E000E9E21DA6E000E01
:1028D800A125E16EE26A010EE222DFCFE7FFA12B1C
:1028E800A22B9F51A25DEDE3000E39B2010E866F57
:1028F800A151E9EF12F08C8E8D900001776B080ED4
:10290800766FC7EC15F08D80776B500E766FC7EC3D
:1029180015F0300EE0EC20F00001776B080E766FB2
:10292800C7EC15F0300EE0EC20F00001776B010EDB
:10293800766FC7EC15F0300EE0EC20F00001776BF5
:10294800010E766FC7EC15F0390EE0EC20F00001AF
:10295800776B010E766FC7EC15F0140EE0EC20F0E3
:102968000001776B010E766FC7EC15F0560EE0ECA0
:1029780020F00001776B010E766FC7EC15F06D0E35
:10298800E0EC20F00001776B010E766FC7EC15F0D4
:10299800700EE0EC20F00001776B010E766FC7EC4B
:1029A80015F00E0EE0EC20F00001776B010E766F4B
:1029B800C7EC15F0060EE0EC20F00001776B010E75
:1029C800766FC7EC15F0010EE0EC20F00001776B94
:1029D800280E766FC7EF15F0040E826F82C07FF065
:1029E800030E7F1761E182517F6F806B030E7F2793
:1029F800000E802380BF05D0805156E1230E7F5DF5
:102A080053E282517D257F6F000E7E21806F030E79
:102A18007F25D96E000E8021DA6EDF50816F8151DB
:102A2800040D3A0EF324D96E010EF420DA6E81C03B
:102A3800DFFF82517D25D96E000E7E21DA6E81512D
:102A4800040D370EF324E16E010EF420E26EDFCFA1
:102A5800E7FF82517D257F6F000E7E21806F7F29E1
:102A6800D96E000E8021DA6E8151040D380EF324E0
:102A7800E16E010EF420E26EDFCFE7FF82517D2583
:102A88007F6F000E7E21806F020E7F25D96E000EAB
:102A98008021DA6E8151040D390EF324E16E010EA6
:102AA800F420E26EDFCFE7FF822B220E826596D7F5
:102AB8003AEF1BF076C07AF077C07BF078C07CF0F4
:102AC80079C07DF0280E7A03F3CF7EF0F4CF7FF043
:102AD800806B816B7B03F3507F27F4508023000EBB
:102AE80081237A03F3507F27F4508023000E81233B
:102AF800280E7C03F3508027F4508123000E7B03BB
:102B0800F3508027F4508123000E7A03F350802776
:102B1800F4508123280E7D03F3508127000E7C0397
:102B2800F3508127000E7B03F3508127000E7A03B0
:102B3800F35081277EC082F07FC083F080C084F08C
:102B480081C085F0510E8227FF0E832384238523BD
:102B580085BFFF0C8551841183110CE12E0E825D17
:102B680009E2120000F0D60E00018227FF0E83232F
:102B78008423852385BF1200855184118311F2E1D6
:102B88008205F0E212007651786F7751796F7A6B8F
:102B98007B6BA00E7803F3CF7CF0F4CF7DF07E6BD7
:102BA8007F6B7903F3507D27F4507E23000E7F233B
:102BB8000F0E7803F3507D27F4507E23000E7F23F9
:102BC800A00E7A03F3507E27F4507F230F0E79036B
:102BD800F3507E27F4507F23000E7803F3507E27AE
:102BE800F4507F23A00E7B03F3507F270F0E7A0348
:102BF800F3507F27000E7903F3507F27000E7803E8
:102C0800F3507F277CC080F07DC081F07EC082F0C9
:102C18007FC083F0560E8027FF0E812382238323F3
:102C280083BFFF0C8351821181110CE1C40E805DBA
:102C380009E2120000F0D90E00018027FF0E81235F
:102C48008223832383BF1200835182118111F2E111
:102C58008005F0E2120001C005F002C006F003C0D2
:102C680007F004C008F0280E0502F3CF09F0F4CFEE
:102C78000AF00B6A0C6A0602F3500A26F4500B227B
:102C8800000E0C220502F3500A26F4500B22000E07
:102C98000C22280E0702F3500B26F4500C22000ECB
:102CA8000602F3500B26F4500C22000E0502F350D6
:102CB8000B26F4500C22280E0802F3500C26000EA6
:102CC8000702F3500C26000E0602F3500C26000EE5
:102CD8000502F3500C2609C00DF00AC00EF00BC017
:102CE8000FF00CC010F0510E0D26FF0E0E220F2211
:102CF800102210BEFF0C10500F100E100BE12E0EFC
:102D08000D5C08E2120000F0D60E0D26FF0E0E2212
:102D18000F22102210BE120010500F100E10F3E1F7
:102D28000D04F1E21200B96F0001BA6B1DEC1DF041
:102D380076C0B1F077C0B2F078C0B3F079C0B4F023
:102D48001DEC1DF076C0B5F077C0B6F078C0B7F0CE
:102D580079C0B8F0B151B55DAD6FB251B659AE6F2B
:102D6800B351B759AF6FB451B859B06FB05107E10B
:102D7800E10EAD5DC10EAE59030EAF59E1E3DF6B55
:102D8800950EDF25D96EDA6A010EDA22840EDF6E1F
:102D9800DF2B950EDF25D96EDA6A010EDA22E5C03F
:102DA800DFFFDF2B950EDF25D96EDA6A010EDA22F6
:102DB800B9C0DFFFDF2BA36BA46B010EA56FA66B59
:102DC800E1EC17F0BA2B020EBA65B0D7B951D2EFC1
:102DD8001FF0780ED36E9B8CC090550EA76EAA0E6E
:102DE800A76E0E01FF91110EE76F170EFB6F0A0E0B
:102DF800DB6F090ED96F550EA76EAA0EA76EFF815D
:102E0800FC0E0F01486F1F0E496F8B94899C899E99
:102E18009494929C929E93829384F19E9282928043
:102E2800898A8C82929A95929380948CF18AF18CFB
:102E3800F292F288F090F086938A949E9398C00E4E
:102E4800C76E210EC66E8C9095808C8A959A8D845B
:102E580096948D928C8E8C968D909692959E959642
:102E68009690958C95949598736A310E726EA49E7F
:102E78007FEC14F0F28EF28C1200010E00017C6FD0
:102E88003C6A3D6A776B020E766F520E786F796BEB
:102E9800A4EC1FF07C17776B010E766F500E786FDD
:102EA800796BA4EC1FF07C17776B010E766F4C0ED4
:102EB800786F796BA4EC1FF07C17776B8C0E766FAC
:102EC8004E0E786F796BA4EC1FF07C17776B040EAD
:102ED800766F540E786F796BA4EC1FF07C17776BC4
:102EE800010E766FE10E786F010E796FA4EC1FF07A
:102EF8007C17776B010E766FE30E786F010E796F92
:102F0800A4EC1FF07C17776B010E766FE50E786FD7
:102F1800010E796FA4EC1FF07C171200BD6F000141
:102F2800BD510E0D2A0EF324D96E020EF420DA6E6E
:102F38000201DFAE000C0001BD510E0D2A0EF32474
:102F4800D96E020EF420DA6EDFB028D0BE6BBD5108
:102F58000E0D1E0EB36F020EB46F040EB327000ED3
:102F6800B423F350B327F450B423BE51B325D96E1C
:102F7800000EB421DA6EBE51B50FE16EE26ADFCF02
:102F8800E7FFBE2B070EBE65E2D7B50E806F816BDB
:102F9800000E826BB2C083F05BEF0EF00001BD51F2
:102FA8000E0D220EF324AD6F020EF420AE6F010E4B
:102FB800AF6FB2C0B0F0FBEF1AF0A96F0001AA6BB7
:102FC800A55103E0A76BA72B02D00001A76BAA515C
:102FD800A719FC0BA719AA6FA95103E1A76BA72B87
:102FE80002D00001A76BA73BA747AA51A719DF0B7F
:102FF800A719AA6FA9B102D0AA9502D00001AA8583
:10300800A6B102D0AA9702D00001AA87A95103E16C
:10301800A76BA72B02D00001A76BA73BA747A74721
:10302800AA51A719BF0BA719AA6FAA8FA3C0ABF003
:10303800A4C0ACF0AAC09AF0ABC09BF0ACC09CF0A6
:10304800950E9D6F010E9E6FDFC09FF00BEC14F084
:10305800A86FDF6BA85112000001DF6BC2C0D9FF57
:10306800C3C0DAFF950EDF25E16EE26A010EE222A7
:10307800DFCFE7FFDF2B20EE01F0C251D926C35185
:10308800DA22950EDF25E16EE26A010EE222DFCF39
:10309800E7FFDF2B20EE02F0C251D926C351DA2216
:1030A800950EDF25E16EE26A010EE222DFCFE7FF2F
:1030B800DF2B030EC56FC551BF25D96E000EC02189
:1030C800DA6E950EDF25E16EE26A010EE222DFCFAD
:1030D800E7FFDF2BC52B220EC565EDD7B26BC151BB
:1030E80092EC17F00001C46FC45102E1C5EC20F066
:1030F800C451120084C039F085C03AF086C03BF054
:10310800776B140E766FC7EC15F08C82898AD6CF50
:103118003EF0DE69876B8751390D000EF324D96EB6
:10312800030EF420DA6EDF6A872B010E8765F3D76A
:10313800876B8751020D050EF324F66EFD0EF42001
:10314800F76E0900F5CF77F00A00F5CF78F046EC76
:103158001EF00001872B1F0E8765EBD7200EB2ECFF
:103168001BF0786B460E776F46EC1EF0400EB2EC03
:103178001BF01C0E786F0F0E776F46EC1EF0600E7A
:10318800B2EC1BF0F292F288F090F08612007A6BA3
:1031980042D07A510E0D2A0EF324D96E020EF42075
:1031A800DA6EDFAE36D000017A510E0D220EF3240E
:1031B800D96E020EF420DA6E10EE01F07651E12697
:1031C8007751E222DE50E61824E17A510E0D230EE3
:1031D800F324D96E020EF420DA6E10EE02F0765166
:1031E800E1267751E222DE50E61813E17A510E0DFE
:1031F800240EF324D96E020EF420DA6E10EE03F0DA
:103208007651E1267751E222DE50E61802E17A5142
:10321800120000017A2BE4517A5DBBE3E4517A197C
:10322800D8B4FF0E1200D36FD90E00017B6F010EC8
:103238007C6F7BEC1AF0D35104E0010E27EC10F000
:1032480039D0899C899E000E27EC10F0190ED2EC1B
:103258001FF0000903E1190E16EC21F0000E71ECC5
:103268001FF0000E0001AA6F190E85EC1EF0CE6B40
:10327800A7EC11F0E16FE12907E0010EAA6F190E22
:1032880085EC1EF0E76B0BD00A0E806F000E816B89
:10329800826B836B846BE2EC1EF0010EE76FE70E26
:1032A800776F786BB80E796F010E7A6F37EC1AF07A
:1032B800898C0001E7515FEF20F00201B26F000135
:1032C800E26B220EA36F020EA46F010EA56FB2C2AD
:1032D800A6F0000EE1EC17F01DEC1DF076C0AAF286
:1032E80077C0ABF278C0ACF279C0ADF22AD01DEC51
:1032F8001DF076C0AEF277C0AFF278C0B0F279C0F8
:10330800B1F201EC21F00201AA51AE5D0001CE6FCD
:103318000201AB51AF590001CF6F0201AC51B05956
:103328000001D06F0201AD51B1590001D16FD151E7
:10333800D01105E1510ECE5DC30ECF5902E3E2056F
:1033480002E1E251D4E0E251120081B20FD04050C4
:1033580043E1010E406E1DEC1DF076C07BF177C095
:103368007CF178C07DF179C07EF1010C81B40FD079
:10337800405032E1010E406E1DEC1DF076C07BF12D
:1033880077C07CF178C07DF179C07EF1020C1DEC2C
:103398001DF076C084F077C085F078C086F079C0DB
:1033A80087F001017B510001845D806F01017C5130
:1033B80000018559816F01017D5100018659826F95
:1033C80001017E5100018759836F8351821103E106
:1033D800400E815D01E3406A000C7E6F1F0E000104
:1033E8007E6501D0000C0C0E786F640E776F46EC8A
:1033F8001EF0450E00017E25F66EF76AFD0EF722D7
:103408000800F5CF7DF0000E7D11776F0E0E786FF6
:1034180046EC1EF0650E00017E25F66EF76AFD0E7D
:10342800F7220800F5CF7DF0000E7D11776F100EA2
:10343800786F46EC1EF0200EB2EC1BF0786B460E4F
:10344800776F46EC1EF0400EB2EC1BF01C0E786F46
:103458000F0E776F46EC1EF0200EB2EC1BF0600EDC
:10346800B2EC1BF0010C000EF0B6010E7C6FF0966A
:103478008C9A050EB9EC20F007EC21F000017D6F65
:103488008C8A13EC21F000017DB1F2D78C9A060EDC
:10349800B9EC20F08C8A13EC21F08C9A020EB9EC6E
:1034A80020F000017951B9EC20F000017D6B16D0B5
:1034B80077C0D9FF78C0DAFFDF50B9EC20F00001FF
:1034C800774B782B7A077D2B79517D257B6F0F0EF3
:1034D8007B1704E18C8A7D517927CAD77A51E8E1B4
:1034E8008C8A7CB102D0F09601D0F08612007F6BF6
:1034F8007F517B5D7D6F000E7C597E6F070E7D25A9
:10350800776F000E7E21786F7F51FA0F796F010E69
:103518007A6F8BEC1FF07F2B020E7F65E9D720EEC8
:1035280004F07B51D9267C51DA22DF6820EE03F0C3
:103538007B51D9267C51DA22FE0EDF6E7F6B7F51DC
:103548007B5D7D6F000E7C597E6F020E7D25776F47
:10355800000E7E21786F7F51FD0F796F010E7A6F13
:103568008BEC1FF07F2B020E7F65E9D7020C800ED3
:10357800E0EC20F00001786BB80E7825D96EDA6A95
:10358800010EDA22DF5004E1200ED7EC20F009D03A
:10359800B80E7825D96EDA6A010EDA22DF50D7EC38
:1035A80020F00001782B0F0E7865E6D7C00EE0EC0E
:1035B80020F0100E0001786FB80E7825D96EDA6AFF
:1035C800010EDA22DF5004E1200ED7EC20F009D0FA
:1035D800B80E7825D96EDA6A010EDA22DF50D7ECF8
:1035E80020F00001782B1F0E7865E6D71F0CB16B11
:1035F800B1510E0D2A0EF324D96E020EF420DA6EA4
:10360800DFAE25D00001B1510E0D2A0EF324D96E7C
:10361800020EF420DA6EDFB01AD0ADC076F0AEC07C
:1036280077F0B1510E0D220EF324786F020EF420BC
:10363800796FBCEC1FF000090AE0ADC080F0AEC0A5
:1036480081F0000E826BB0C083F05BEF0EF00001DA
:10365800B12B090EB165CCD7ADC0A3F0AEC0A4F0B4
:10366800000EA56BB0C0A6F0E1EF17F07B6BE75139
:10367800D8A412007C6B1ED07C51040D370EF324A5
:10368800D96E010EF420DA6E0101D951DE1810E16D
:1036980000017C51040D380EF324D96E010EF4207C
:1036A800DA6EDE500101DA1903E1010E00017B6FC9
:1036B80000017C2B4950766F776B762B000E7723B1
:1036C8007C51786F796B7651785D7951800A7A6F81
:1036D8007751800A7A59D0E37B51D8A41200010EA1
:1036E8004A6E010C7B6B79AF06D0786D791FD8B024
:1036F800792B010E7B6F77AF06D0766D771FD8B028
:10370800772B010E7B1B7C6B7D6B785179111BE04D
:10371800010E7A6F04D0D890783779377A2B79AF41
:10372800FAD7D8907C377D377851765D79517759BB
:1037380005E37851765F7951775B7C81D89079334E
:1037480078337A2FEED77B5104E07C6D7D1FD8B09B
:103758007D2B7CC076F07DC077F0120000017B6F76
:103768002CD0786B860E776F46EC1EF0800E000129
:10377800DD6F800C786B660E776F46EC1EF0600E7E
:103788000001DD6F600C786B460E776F46EC1EF01B
:10379800400E0001DD6F400C786B260E776F46EC0B
:1037A8001EF0200E0001DD6F200C786B060E776F7F
:1037B80046EC1EF00001DD6B120000017B51F5E0C4
:1037C800200AEAE0600ADFE0200AD4E0E00AC9E063
:1037D8001200066E2CD0036A860E026E1EEC1FF0D5
:1037E800800E0001DD6F800C036A660E026E1EEC0F
:1037F8001FF0600E0001DD6F600C036A460E026E5A
:103808001EEC1FF0400E0001DD6F400C036A260E0F
:10381800026E1EEC1FF0200E0001DD6F200C036A03
:10382800060E026E1EEC1FF00001DD6B1200065042
:10383800F6E0200AEBE0600AE0E0200AD5E0E00AC2
:10384800CAE0120025EC20F0B80E826F010E836FDB
:103858008E0E846FFF0E856F8EEC05F0C80E826F9A
:10386800010E836F0C0E846FFF0E856FA5C0D9FF04
:10387800A6C0DAFFDF50866F876B20EE01F0A551F6
:10388800D926A651DA22DF50886F896B20EE02F024
:10389800A551D926A651DA22DF508A6F8B6B8EECA0
:1038A80005F0BBEC1AF0040E776FB00E766FC7EF19
:1038B80015F07B6B77AF06D0766D771FD8B0772B76
:1038C800010E7B6F79AF04D0786D791FD8B0792B52
:1038D8007851791117E0010E7A6F04D0D8907837B3
:1038E80079377A2B79AFFAD77851765D795177594C
:1038F80004E37851765F7951775BD89079337833E0
:103908007A2FF2D77B5104E0766D771FD8B0772BEA
:1039180076C076F077C077F0120003EE00F0D80E8C
:10392800EE6AE806FDE102EE00F0AA0EEE6AE8068D
:10393800FDE101EE00F0E70EEE6AE806FDE100EEBB
:10394800D9F00F0EEE6AE806FDE100EE2FF0270E23
:10395800EE6AE806FDE12A0EF66E420EF76E000EDC
:10396800F86E0900F5CFE8F00900F5CFE9F05690B8
:103978005692000EF86E00017FEF20F0AD6F000147
:10398800AE6BAE510E0D2A0EF324D96E020EF42042
:10399800DA6EDFAE14D00001AE510E0D2A0EF324FC
:1039A800D96E020EF420DA6EDFB009D0806B816B1D
:1039B800826BADC083F0010E5BEC0EF005D0000108
:1039C800AE2B090EAE65DDD7A36BA46BA56BADC09E
:1039D800A6F0010EE1EF17F0B46BB4510E0D2A0EEC
:1039E800F324D96E020EF420DA6EDFAE1CD05F0E1F
:1039F8000001B425D96EDA6A010EDA22DF500CE133
:103A0800690EB425D96EDA6A010EDA22DE2804E0DE
:103A1800B45152EC12F007D05F0EB425D96EDA6AB1
:103A2800010EDA22DF6A0001B42B090EB465D5D77E
:103A3800090C9D9000017E6B7F6B7B6BCECF7CF079
:103A4800CFCF7DF07C2908E17D2906E17B2B7B0522
:103A58007A6F020E7A65F2D79EA004D07E2B4B288F
:103A680001E17F2B4B507E27E3517F279D807CC04F
:103A780076F07DC077F07EC078F07FC079F01200D4
:103A8800766B776B77510E0D220EF324D96E020EEA
:103A9800F420DA6EDF5014E177510E0D230EF32473
:103AA800D96E020EF420DA6EDF500AE177510E0D5E
:103AB800240EF324D96E020EF420DA6EDF5001E0F2
:103AC800762B772B090E7765DDD7765112009D90FE
:103AD800096A0A6A066ACECF07F0CFCF08F007282E
:103AE80008E1082806E1062A0604056E020E0564A8
:103AF800F2D79EA004D0092A4B2801E10A2A4B508C
:103B080009260001E3510A269D8007C001F008C07C
:103B180002F009C003F00AC004F012000001776F38
:103B2800000EF0B6010E796F000EF2B8010E7A6F32
:103B3800F298F0968C92778D7751CEEC20F0000EAB
:103B4800CEEC20F00001786F8C8279B102D0F0962B
:103B580001D0F08600017AB102D0F29801D0F28843
:103B68000001785112007B6B7C6B785179111BE056
:103B7800010E7A6F04D0D890783779377A2B79AFDD
:103B8800FAD7D8907B377C377851765D7951775959
:103B980005E37851765F7951775B7B81D8907933EB
:103BA80078337A2FEED77BC076F07CC077F012009E
:103BB8006E6F000EF0B6010E0001706F000EF2B8C5
:103BC800010E716FF298F0968C926E8D6E51E9EC41
:103BD80020F0000EE9EC20F000016F6F8C8270B1CC
:103BE80002D0F09601D0F086000171B102D0F298AF
:103BF80001D0F28800016F51120001EC21F0CE6F64
:103C0800CE511DE0432A43C0A7F04550FAEC20F0FE
:103C1800070E776FD00E766FC7EC15F0897EE751E7
:103C280009E12F50030B06E134C0A5F035C0A6F01A
:103C380026EC1CF00CEC21F0E7515FEC20F0CE51A3
:103C48001200026E000EF0B6010E046E000EF2B8FD
:103C5800010E056EF298F0968C92028C0250F2ECEE
:103C680020F0000EF2EC20F0036E8C8204B002D03B
:103C7800F09601D0F08605B002D0F29801D0F28813
:103C880003501200000EF0B6010E796F000EF2B864
:103C9800010E7A6FF298F0968C927851CEEC20F063
:103CA80000017751CEEC20F08C82000179B102D06E
:103CB800F09601D0F08600017AB102D0F29801D0D6
:103CC800F2881200A66F25EC20F0B80E826F010E64
:103CD800836FAF0E846FFF0E856FA6C086F0876B6B
:103CE800A5C088F0896B8EEC05F0C80E826F010EB6
:103CF800836FBF0E846FFF0E856F8EEC05F0BBEFF0
:103D08001AF0AB6F0001AA510BE1D50EA56FFD0E9D
:103D1800A66FABC0A7F0010EA86FA4EC1EF00AD0E6
:103D2800150EA56FFE0EA66FABC0A7F0010EA86F0B
:103D3800A4EC1EF0030E776FE80E766FC7EF15F050
:103D480025EC20F0B80E826F010E836FA5C084F0B9
:103D5800A6C085F0A7C086F0876B8EEC05F0BBEC9B
:103D68001AF0A851D8B41200A96B776BFA0E766FC7
:103D7800C7EC15F0A92B070EA965F7D7070C7F51DB
:103D8800801117E0010E816F04D0D8907F378037FB
:103D9800812B80AFFAD77F517D5D80517E5904E336
:103DA8007F517D5F80517E5BD89080337F33812F38
:103DB800F2D77DC07DF07EC07EF01200856F15D0F1
:103DC8001DEC1DF076C08BF177C08CF178C08DF1B9
:103DD80079C08EF11DEC1DF076C08FF177C090F19F
:103DE80078C091F179C092F1120000018551E8E0A4
:103DF800010AD8A4030A1200776F000EF0B6010E6C
:103E08000001786F000EF2B8010E796FF298F09603
:103E1800899A7751CEEC20F0898A000178B102D0D6
:103E2800F09601D0F086000179B102D0F29801D065
:103E3800F2881200000EF0B6010E046E000EF2B801
:103E4800010E056EF298F0968C920350F2EC20F079
:103E58000250F2EC20F08C8204B002D0F09601D02F
:103E6800F08605B002D0F29801D0F2881200DF6B1C
:103E7800950EDF25D96EDA6A010EDA227A0EDF6E28
:103E8800DF2B220EA36F020EA46F010EA56F000E8A
:103E9800A66BE1EC17F0AD6FAD51D8A41200010E7E
:103EA8004A6E010C026E000EF0B6010E036E000E93
:103EB800F2B8010E046EF298F096899A0250F2EC6C
:103EC80020F0898A03B002D0F09601D0F08604B0C1
:103ED80002D0F29801D0F288120000017F6F030E21
:103EE8007F6501D0030C7FC0E9F0E9C07EF07E3B1E
:103EF800F00E7E17DB510F0B7E11DB6FE90E776F2B
:103F0800786B030E796F010E7A6F37EF1AF08C9A7F
:103F1800030EB9EC20F000017951B9EC20F00BD078
:103F280007EC21F077C0D9FF78C0DAFFDF6E000117
:103F3800774B782B7A0700017A51F2E18C8A1200CC
:103F480076513C247A6F77513D207B6F7A05800E3D
:103F58007B5901E3000C78C0D9FF79C0DAFF3CC077
:103F6800DEFF3DC0DDFF76513C2677513D22010C36
:103F78007C6B7C517825D96E000E7921DA6E7C51E4
:103F88007625E16E000E7721E26EDE50E61801E03C
:103F9800000C7C2B070E7C65ECD7010C7F6F0001B1
:103FA8007C6B7F51F1EC19F000090CE07FC0E5F063
:103FB800E50E776F786B020E796F010E7A6F37EC2A
:103FC8001AF0010C000C0001DF6B950EDF25D96E8D
:103FD800DA6A010EDA22DA0EDF6EDF2BADC0A3F04B
:103FE800AEC0A4F0010EA56F000EA66BE1EF17F0AE
:103FF80076C07CF077C07DF008D07CC0D9FF7DC04A
:10400800DAFF78C0DFFF7C4B7D2B7A07D8A07B07CF
:104018007A29F3E17B29F1E11200776F080E00019C
:10402800786F796BD89077357935796FD8907737FD
:104038007651795D02E37651795F782FF3D779511C
:104048001200010EE0EC20F00001776B020E766F93
:10405800C7EC15F0B80E766F010E776F796B200EEE
:10406800786F7B6B7A6FFCEF1FF08B0EA56FFE0EDF
:10407800A66FA76BA86BA4EC1EF0A9EC19F00001C1
:10408800AA6FAA0501E1000C020EAA19F6E1010CBB
:1040980076517803F3CF7AF0F4CF7BF07651790339
:1040A800F3507B2777517803F3507B277AC076F05B
:1040B8007BC077F01200AA6F0001AA5104E0510EEC
:1040C800A56FFE0E03D0F50EA56FFD0EA66FA76BAC
:1040D800A86BA4EF1EF0020E0001DE61020CDE5197
:1040E800390D000EF324D96E030EF420DA6E000E9B
:1040F800DF6ADE691200EDEC16F0ACEC20F08EEC15
:1041080020F039EC20F0D86FD85117EC19F011ECE9
:1041180021F0FDD7340EA56FFE0EA66FA76B010E1A
:10412800A86FA4EC1EF0070E776FD00E766FC7EF5E
:1041380015F0786F0001776B3A0E786105D02F0E75
:10414800786502D0010E776F77C076F0763112006D
:10415800380ECD6E9A6ACF6ACE6ACECF93F1CFCFA2
:1041680094F19E909D800FEF21F00001766FA49E40
:10417800729E76C075FF72BEFBD7A4AEFED7A49E12
:1041880012009F0EA56FFF0EA66FA76B010EA86FFA
:10419800A4EF1EF00001766FC69E76C0C9FFC7A0C7
:1041A800FED7C9501200776F8C9E8C86000177511C
:1041B800B9EC20F08C8E12000001776F8C9E8C96E3
:1041C8007751B9EC20F08C8E120000016D6FC69EFD
:1041D8006DC0C9FFC7A0FED7C9501200016EC69EA8
:1041E80001C0C9FFC7A0FED7C95012000001A86FBF
:1041F800A7C0A5F0A85166EF1EF02CEC00F0000156
:10420800DCB7010C000C000EB9EC20F07550120060
:10421800DC976FEF20F0CD8012001BEF09F000F063
:08422800120001031200120054
:10FC86000020B2202020B22020B220B22020202046
:10FC960020B220B20D0AB220B220B220B22020201B
:10FCA600B22020B22020B220200D0AB22020B2209D
:10FCB60020B220B220B22020B22020B220B20D0AFB
:10FCC600B22020B22020B220B22020B220B220B230
:10FCD6002020B20D0AB22020B22020B220B220206D
:10FCE60020B220B2202020B20D0A20202020202081
:10FCF600202020202020202020202020200D0A2621
:10FD0600008402090409060C08C10A770C630E195F
:10FD1600100012001400163818C81A0D1C001E72A6
:10FD2600203822382407260028002A692C812E7EB6
:10FD3600309632F83488364038003AE83C003E5374
:10FD4600535353535353535353535353535353537D
:10FD56005353535454545454545454545454541D97
:10FD6600202225282B2E303336393C3F4144474A42
:10FD76004D4F520A0D101215181B1E20232629015D
:10FD8600000800400000020010008001000A006424
:10FD960000E803102701001000000100100D0A0DF5
:10FDA6000A436F6E6E656374696F6E202020202093
:10FDB600506565724C6F6E6741646472657373203B
:10FDC6002020202050656572496E666F0D0A00433B
:10FDD6006F6E6E656374696E67205065657220206C
:10FDE6006F6E204368616E6E656C2025642000533B
:10FDF6005731203A20556E69636173742020205371
:10FE06005732203A204E657874204E6F6465002084
:10FE1600436F6E6E6563746564205065657220205D
:10FE26006F6E204368616E6E656C202564005369B1
:10FE36006D706C65205354415220202020204D5275
:10FE46004638395841204E6F6465005043203A5376
:10FE56005731206F72205357322020746F20427220
:10FE66006F616443617374005357313A2042726F75
:10FE760061646361737420205357323A20556E696A
:10FE860063617374005357313A4E6577204E65743B
:10FE9600776F726B205357323A467265657A657290
:10FEA6000042726F616463617374205061636B65B5
:10FEB60074207769746820525353492000556E693F
:10FEC60063617374205061636B657420776974682D
:10FED600205253534920005242303A253032642D85
:10FEE6002530327825303278253032782D6D650010
:10FEF6005242303A253032642D2530327825303260
:10FF060078253032780020416464726573733A252F
:10FF16003032782530327825303278004461746189
:10FF26005F53656E64696E675F4661696C21210087
:10FF36000D0A0D0A4D7920416464726573733A2087
:10FF4600307800454E445F44455649434553203A70
:10FF56002530326400303132333435363738394162
:10FF6600424344454600303132333435363738392A
:10FF7600616263646566005242323A204368616E8C
:10FF86006765206E6F64650044617461205061632B
:10FF96006B65742066726F6D0020556E69636173C0
:10FFA60074204661696C65640054583A25336420B0
:10FFB6002C2052583A253364004D6573736167658A
:10FFC60020436F756E7400202020202020202020E2
:10FFD600202020200020204368616E6E656C3A2048
:10FFE600005365637572656420002066726F6D202C
:02FFF600000009
:08FFF800ACF5DAFBFFF9FFF1A3
:00000001FF
