:04000000C6EF00F057
:100008004A82D9CF0DF0DACF0EF0F3CF0FF0F4CF4C
:1000180010F0F2B8F2A2A2D0F292620EC2EC18F07E
:10002800126E12A00FD03F903FBC3F9C0001896B1D
:100038008A6B3FA207D0480EC2EC18F0116E11B0BF
:100048003F843F9212A683D01468156A1550450D57
:10005800040EF324D96E010EF420DA6EDF5003E1AA
:1000680015C014F004D0152A010E1564EFD7020E3E
:10007800146068D0040E026E730E29EC19F0145047
:10008800450D040EF324D96E010EF420DA6E030E2A
:10009800036E026AA1EC16F0020FDF6E1450450DD4
:1000A800040EF324D96E010EF420DA6E440EDF60DC
:1000B8003FD03F8A010E156E1AD01450450D040E1C
:1000C800086E010E096EF3500826F45009221550E7
:1000D8000824D96E000E0920DA6E000E1524026E6F
:1000E800036A030E0322A1EC16F0DF6E152A1550E1
:1000F800086E096A1450450D040EF324D96E010EDA
:10010800F420DA6EDF500A6E0B6A020E0A26000E21
:100118000B2208500A5C0B50800A0C6E0950800AAA
:100128000C58CBE2010E026E1B0E29EC19F005D01B
:10013800010E026E1B0E29EC19F0026A730E29ECEF
:1001480019F005D0010E026E1B0E29EC19F012A849
:1001580005D0800E026E590E29EC19F09EB09DA0B4
:1001680005D09E90412A415001E1422A27EC1AF01D
:1001780010C0F4FF0FC0F3FF0EC0DAFF0DC0D9FFA7
:100188004A92110031EF14F0260E0001B96F7FD3A7
:10019800250EBF1909E022C0D9FF23C0DAFFBFC06E
:1001A800DFFF224A232A73D3BD6BBE6BC06BC16BC2
:1001B80009D0C08705D0C08103D0C18701D0C085D0
:1001C800244A252A24C0F6FF25C0F7FF0800F55069
:1001D800200AF1E0030AF1E00E0AEBE01D0AEFE065
:1001E800C0B7C09524C0F6FF25C0F7FF0800F5503A
:1001F800A0EC19F030E30001BD6BBE6BBDC016F07A
:10020800BEC017F0196A0A0E186E3DEC19F016C038
:10021800BDF017C0BEF0D00E2E6E2F6824C0F6FFBA
:1002280025C0F7FF0800F550306E316A2E50302691
:100238002F50312230500001BD273150BE23244AAF
:10024800252A24C0F6FF25C0F7FF0800F550A0ECCA
:1002580019F015E3D3D724C0F6FF25C0F7FF08002F
:10026800F5502A0A0CE10001B951D96EDA6ADECFDD
:10027800BDF0DDCFBEF0020EB927244A252A24C0DE
:10028800F6FF25C0F7FF0800F5502E0A32E10001FD
:10029800C18D244A252A24C0F6FF25C0F7FF08008F
:1002A800F5502A0A0AE1B951D96EDA6ADF50BC6FF3
:1002B800020EB927244A252A8CD0BC6B10D024C042
:1002C800F6FF25C0F7FF0800F5CF2EF00001BC515E
:1002D8000A0DF3502E24D00FBC6F244A252A24C0BF
:1002E800F6FF25C0F7FF0800F550A0EC19F071E300
:1002F800E6D70001BC6B6DD0C08D89D0C08BC08F94
:1003080086D0BC510FE0BCC02EF02F6A2EBE2F063F
:10031800B7512E5CB8512F5805E2BC51B76FB86B76
:10032800B7BFB807BD51B75DBE51B85905E2B7515F
:10033800BD5FB851BE5B02D0BD6BBE6BC0B71DD0F0
:1003480008D022C0D9FF23C0DAFF200EDF6E224A70
:10035800232ABD07D8A0BE07BD29F3E1BE290DE0B9
:10036800F0D7B651D96EDA6A22C0E1FF23C0E2FFA6
:10037800DFCFE7FFB62B224A232AB707D8A0B80752
:10038800B729EFE1B829EDE1C0A781D208D022C092
:10039800D9FF23C0DAFF200EDF6E224A232ABD07C9
:1003A800D8A0BE07BD29F3E1BE2901E170D2EFD77D
:1003B800B951D96EDA6ADF50BF6F020EB927BF0E86
:1003C800B66F000EB86F010EB76F9BD7C00EC01383
:1003D8001ED024C0F6FF25C0F7FF244A252A0800AE
:1003E800F5CFBFF00001BF5101E15DD2580A86E0A8
:1003F8003B0ADEE0070A0BE00D0A09E0060A01E104
:100408007BD71A0AE3E00D0A01E179D7D8D7C0C033
:100418002EF0C00E2E1612E1B951D96EDA6ADECF6F
:10042800BAF0DDCFBBF0020EB927BBAF10D0030E78
:10043800C013BA6DBB1FD8B0BB2B09D0B951D96E48
:10044800DA6ADECFBAF0DDCFBBF0020EB927BC51B5
:1004580047E1BA51BB1144E1BC2B42D0010EBF6F3A
:10046800050EBF1946E0BF51020D6F0EF324F66E5C
:10047800FD0EF420F76E0900F550BA5D0900F5503D
:10048800BB5937E3BF2BECD7010EBF6F040EBF1962
:1004980030E0BF51020D790EF324F66EFD0EF42004
:1004A800F76E0900F550BA5D0900F550BB5921E314
:1004B800BF2BECD7010EBF6F060EBF191AE0BF5154
:1004C800020D630EF324F66EFD0EF420F76E09009C
:1004D800F550BA5D0900F550BB590BE3BF2BECD7BB
:1004E800C051C00BBBE0400AE5E0C00ACDE0400ABD
:1004F800B5E0BF51800A2E6EBC51800A2E5C03E223
:10050800BCC0BFF009D0BC51800A2E6EBF51800A12
:100518002E5C02E2BFC0BCF0BD51BE1108E0C0C0F5
:100528002EF0030E2E1603E0BD07D8A0BE07C1ADFE
:1005380013D0800EBCBF7F0E2E6EBD51BC5DBE5168
:10054800800A2E5807E2BC51BD5F000EBCBFFF0EEB
:10055800BE5B02D0BD6BBE6BC40E2E6E080E2F6E36
:10056800C0C030F0C1C031F02E5030162F503116B7
:10057800400E30180AE1080E311807E1BD51BE11CE
:1005880024E0BD07D8A0BE0720D0C00E2E6E080EEE
:100598002F6EC0C030F0C1C031F02E5030162F5031
:1005A8003116800E301811E1080E31180EE1BEBF69
:1005B8000AD0BE5103E1030EBD5D05E3FE0EBD2763
:1005C800FF0EBE2302D0BD6BBE6B800EBFBF7F0E79
:1005D8002E6EBD51BF5DBE51800A2E5807E2BF5135
:1005E800BD5F000EBFBFFF0EBE5B02D0BD6BBE6B12
:1005F800C0A54FD0C0C02EF0030E2E1609E022C0B1
:10060800D9FF23C0DAFF2D0EDF6E224A232A31D00C
:10061800C0A106D022C0D9FF23C0DAFF200EF4D72C
:10062800C00E2E6E080E2F6EC0C030F0C1C031F063
:100638002E5030162F503116800E30181AE1080E41
:10064800311817E122C0D9FF23C0DAFF300EDF6E60
:10065800224A232AC0BB03D0B16B780E02D0B16BFB
:10066800580EB06F22C0D9FF23C0DAFFB0C0DFFF39
:10067800CCD7BD51BE1101E1F2D022C0D9FF23C0B1
:10068800DAFF300EDF6E224A232ABD07D8A0BE0744
:10069800F0D7BD51BE1110E0C0B70ED022C0D9FFAF
:1006A80023C0DAFF200EDF6E224A232ABD07D8A016
:1006B800BE07BD51BE11F2E1C0C02EF0030E2E16CA
:1006C80009E022C0D9FF23C0DAFF2D0EDF6E224ACF
:1006D800232A08D0C0A106D022C0D9FF23C0DAFF40
:1006E800200EF4D7C00E2E6E080E2F6EC0C030F04C
:1006F800C1C031F02E5030162F503116400E301830
:100708000CE1080E311809E122C0D9FF23C0DAFF35
:10071800300EDF6E224A232AA2D0C00E2E6E080E9B
:100728002F6EC0C030F0C1C031F02E5030162F509F
:100738003116800E30181BE1080E311801E08FD0F9
:1007480022C0D9FF23C0DAFF300EDF6E224A232AE7
:10075800C0BB03D0B36B780E02D0B36B580EB26F28
:1007680022C0D9FF23C0DAFFB2C0DFFFD3D777D0CA
:10077800BC51020D6F0EF324F66EFD0EF420F76ED9
:100788000900F5CF18F00A00F5CF19F0BAC016F035
:10079800BBC017F03FEC17F016C01DF017C01EF0D5
:1007A800206A0A0E1F6EE1EC17F01D5045D0BAC042
:1007B80016F0BBC017F0BC51020D790EF324F66E8B
:1007C800FD0EF420F76E0900F5CF18F00A00F5CFFA
:1007D80019F03FEC17F016500F0BAF6FC0BB04D0E9
:1007E8003E0EB46FFF0E03D02D0EB46FFF0EB56F23
:1007F800AF51B4252E6E000EB5212F6E2EC0F6FF18
:100808002FC0F7FF0800F5CFBFF022D0BAC016F00E
:10081800BBC017F0BC51020D630EF324F66EFD0E3B
:10082800F420F76E0900F5CF18F00A00F5CF19F09B
:100838003FEC17F01650070B300FBF6F09D0C051AF
:10084800C00B96E0400AE2E0C00AB1E0400A90E03E
:1008580022C0D9FF23C0DAFFBFC0DFFF5BD7BC07C8
:10086800BC29EDE1C0B7BEBF12D0BE5102E1BD0543
:100878000EE322C0D9FF23C0DAFF200EDF6E224A22
:10088800232ABD07D8A0BE07BD51BE11F2E124C07E
:10089800F6FF25C0F7FF244A252A0800F5CFBFF048
:1008A800BF5101E075D422C0D9FF23C0DAFFDF6A47
:1008B800000C19EC17F016C076F017C077F018C0C6
:1008C80078F019C079F0DC0E0001C26FFF0EC36F1B
:1008D800C46BC56B64EC17F019EC17F016C07AF00E
:1008E80017C07BF018C07CF019C07DF0000176516C
:1008F8007A5D0101EB6F000177517B590101EC6FC3
:10090800000178517C590101ED6F000179517D5941
:100918000101EE6FEE5108E1810EEB5D960EEC5988
:10092800980EED5901E25CD2010E0001976F1DECA3
:100938001AF0020E37EC15F0D10E0001C26FFF0E4F
:10094800C36FC46BC56B64EC17F0030E176EE80E2B
:10095800166E88EC11F0000E63EC19F019EC17F024
:1009680016C082F017C083F018C084F019C085F053
:1009780037D219EC17F016C000F117C001F118C0F2
:1009880002F119C003F1000182510101005DEB6F12
:100998000001835101010159EC6F000184510101EB
:1009A8000259ED6F0001855101010359EE6FEE51B7
:1009B80007E1410EEB5D4B0EEC594C0EED590CE383
:1009C800EAEC15F019EC17F016C082F017C083F0A6
:1009D80018C084F019C085F00CEC1AF0000910E07A
:1009E800942B94C0C3F0965105EC1AF0070E176EBD
:1009F800D00E166E88EC11F0897E17EC1AF09CD197
:100A080075EC14F00101F46FF40504E0020EF4191A
:100A180001E092D1F66B010EF36F87D150EC19F01B
:100A28000101F6510001AE1938E1B60E226E010E31
:100A3800236EC10E246EFE0E256E0101F651040DC3
:100A4800030EF324D96E020EF420DA6EDF50266E00
:100A5800276AF651040D000EF324D96E020EF42015
:100A6800DA6EDF50286E296AF651040D010EF32460
:100A7800D96E020EF420DA6EDF502A6E2B6AF65118
:100A8800040D020EF324D96E020EF420DA6EDF5044
:100A98002C6E2D6AC8EC00F037D0B60E226E010E0F
:100AA800236EDA0E246EFE0E256E0101F651040D3A
:100AB800030EF324D96E020EF420DA6EDF50266E90
:100AC800276AF651040D000EF324D96E020EF420A5
:100AD800DA6EDF50286E296AF651040D010EF324F0
:100AE800D96E020EF420DA6EDF502A6E2B6AF651A8
:100AF800040D020EF324D96E020EF420DA6EDF50D4
:100B08002C6E2D6AC8EC00F0B60E226E010E236E14
:100B1800DA0E246EFE0E256E0101F651040D030E49
:100B2800F324D96E020EF420DA6EDF50266E276A9F
:100B3800F651040D000EF324D96E020EF420DA6E7D
:100B4800DF50286E296AF651040D010EF324D96E80
:100B5800020EF420DA6EDF502A6E2B6AF651040D6D
:100B6800020EF324D96E020EF420DA6EDF502C6EDA
:100B78002D6AC8EC00F0C60E226E010E236E4F0ED1
:100B8800246EFF0E256EC8EC00F074EC15F0010E13
:100B98000001FC6FC6D075EC14F00101F56FF50586
:100BA80001E0A0D0F36B0001FC6B0101F36BF6517F
:100BB8000001AE191FE1956B406A140E406401D024
:100BC80012D0E50E4024F66EF76AFC0EF7228E0E60
:100BD8009525D96EDA6A010EDA220800F5CFDFFF13
:100BE800952B402AEAD7000EDE6B1DEC18F00001A9
:100BF800962B97D0956B8E0E9525D96EDA6A010ED5
:100C0800DA22CC0EDF6E952B0101F651040D000E91
:100C1800F324D96E020EF420DA6E8E0E00019525AB
:100C2800E16EE26A010EE222DFCFE7FF952B0101B8
:100C3800F651040D010EF324D96E020EF420DA6E7B
:100C48008E0E00019525E16EE26A010EE222DFCFE9
:100C5800E7FF952B0101F651040D020EF324D96E1E
:100C6800020EF420DA6E8E0E00019525E16EE26A1E
:100C7800010EE222DFCFE7FF952B040E406E180E1F
:100C8800406401D01ED0FC0E0101EB6FEC694050AE
:100C9800ED6FEE6BEB51ED27EC51EE23E50EED25F4
:100CA800F66EFC0EEE21F76E8E0E00019525D96EBC
:100CB800DA6A010EDA220800F5CFDFFF952B402A09
:100CC800DED7000E06EC13F00101F26FF2518FE14E
:100CD800060E0001C26FFF0EC36FC46BC56B64ECD8
:100CE80017F01FD0020EF5191CE1F651EB6FEC6BF3
:100CF800ED69EE69000198510101EF6FF06BED515C
:100D0800EF27EE51F023EB51EF5DF051800AF16FC0
:100D1800EC51800AF15902E2F66B01D0F62B000182
:100D2800FC6B0001FC5101E036D70101F30501E13C
:100D380075D6000E63EC19F0000199050DE1190E46
:100D480001EC19F0000E37EC18F00001F46B36ECEA
:100D58000FF0FF0AFAE0996B19EC17F016C07EF055
:100D680017C07FF018C080F019C081F000017A51D7
:100D78007E5D0101EB6F00017B517F590101EC6F32
:100D880000017C5180590101ED6F00017D518159AD
:100D98000101EE6FEB052D0EEC59310EED59010EE8
:100DA800EE591EE30001976B1FEC1AF0000E37ECAA
:100DB80015F0AD0E0001C26FFF0EC36FC46BC56B9B
:100DC80064EC17F0030E176EE80E166E88EC11F03F
:100DD8007EC076F07FC077F080C078F081C079F06F
:100DE8000001975101E178D5C4D581A0F2823FA0D6
:100DF8000BD08A5103E1800E895D04E3896B8A6B0D
:100E08003F9002D0894B8A2B48681C6A1C50450DBC
:100E1800040EF324D96E010EF420DA6EDF5003E0DD
:100E28001CC048F004D01C2A010E1C64EFD7020E27
:100E38004860000C010E1D6E4850450D050EF32448
:100E4800D96E010EF420DA6E0101DFAC1D6A336A37
:100E58003B6A4850450D060EF324D96E010EF42066
:100E6800DA6EDF50CC0B1B6EDBD14850450D0A0EF5
:100E7800F324D96E010EF420DA6EDE280BE1485017
:100E8800450D0B0EF324D96E010EF420DA6EDE2820
:100E980001E13384338E1D502EE04850450D080E75
:100EA800F324D96E010EF420DA6EDF503C6E485000
:100EB800450D090EF324D96E010EF420DA6EDF50C9
:100EC8003D6E4850450D0C0EF324346E010EF4208F
:100ED800356E4850450D040EF324D96E010EF420EA
:100EE800DA6EDF50ED0F386E4850450D140EF324BE
:100EF800366E010E34D14850450D0C0EF324D96ED0
:100F0800010EF420DA6EDF503C6E4850450D0D0E90
:100F1800F324D96E010EF420DA6EDF503D6E48508E
:100F2800450D0E0EF324346E010EF420356E485034
:100F3800450D040EF324D96E010EF420DA6EDF504D
:100F4800EB0F386E4850450D160EF324366E010E21
:100F580006D1338E1D502EE04850450D080EF3245F
:100F6800D96E010EF420DA6EDF503C6E4850450D04
:100F7800090EF324D96E010EF420DA6EDF503D6EAF
:100F88004850450D120EF324346E010EF420356ED0
:100F98004850450D040EF324D96E010EF420DA6E84
:100FA800DF50E70F386E4850450D1A0EF324366EA1
:100FB800010ED5D04850450D120EF324D96E010EFE
:100FC800F420DA6EDF503C6E4850450D130EF324C2
:100FD800D96E010EF420DA6EDF503D6E4850450D93
:100FE800140EF324346E010EF420356E4850450D6E
:100FF800040EF324D96E010EF420DA6EDF50E50FEB
:10100800386E4850450D1C0EF324366E010EA7D0DD
:101018003384338E010E3B6E4850450D080EF32481
:10102800D96E010EF420DA6EDF503C6E4850450D43
:10103800090EF324D96E010EF420DA6EDF503D6EEE
:101048004850450D0A0EF324346E010EF420356E17
:101058004850450D040EF324D96E010EF420DA6EC3
:10106800DF50F50F386E4850450D0C0EF324366EE0
:10107800010E75D04850450D0A0EF324D96E010EA5
:10108800F420DA6EDE280BE14850450D0B0EF324F0
:10109800D96E010EF420DA6EDE2801E13384338E36
:1010A800010E3B6E1D502EE14850450D0C0EF324E9
:1010B800D96E010EF420DA6EDF503C6E4850450DB3
:1010C8000D0EF324D96E010EF420DA6EDF503D6E5A
:1010D8004850450D0E0EF324346E010EF420356E83
:1010E8004850450D040EF324D96E010EF420DA6E33
:1010F800DF50F10F386E4850450D100EF324366E50
:10110800010E2DD04850450D080EF324D96E010E5E
:10111800F420DA6EDF503C6E4850450D090EF3247A
:10112800D96E010EF420DA6EDF503D6E4850450D41
:101138000C0EF324346E010EF420356E4850450D24
:10114800040EF324D96E010EF420DA6EDF50F30F8B
:10115800386E4850450D0E0EF324366E010EF420FD
:10116800376E70D0338E010E3B6E1D501BE0485019
:10117800450D080EF324D96E010EF420DA6EDF5007
:101188003C6E4850450D090EF324D96E010EF4202B
:10119800DA6EDF503D6E4850450D110EF324346E63
:1011A800010E95D64850450D110EF324D96E010E47
:1011B800F420DA6EDF503C6E4850450D120EF324D1
:1011C800D96E010EF420DA6EDF503D6E4850450DA1
:1011D800130EF324346E010EA8D64850450D0A0E9E
:1011E800F324D96E010EF420DA6EDE280BE14850A4
:1011F800450D0B0EF324D96E010EF420DA6EDE28AD
:1012080001E133844850450D040EF324D96E010ED4
:10121800F420DA6EDF50F60F25D7BBEC19F0000C7E
:101228001B50080ADAE0880A01E1F2D6080A01E14F
:1012380021D7040A97E0440A01E117D6040A01E11C
:1012480088D6EBD74850450D050EF324D96E010E0C
:10125800F420DA6EDFA60CD0E0D7FC0E33161DD0D2
:101268003350FC0B0109336E18D0030E331215D01E
:101278004850450D050EF324D96E010EF420DA6EA0
:10128800DF50070B166E176A1750C7E11650EDE0CE
:10129800010AE3E0020AE4E0C0D74850450D040E15
:1012A800F324D96E010EF420DA6EDF50166E485022
:1012B800450D17681868040E196E010E1A6E17503E
:1012C800192618501A22F3501926F4501A221650CB
:1012D8001924D96E000E1A20DA6EDF503A6E485083
:1012E800450D040EF324D96E010EF420DA6EDF509A
:1012F800166E4850450D040E176E010E186EF35009
:101308001726F450182216501724D96E000E1820EC
:10131800DA6EDF50396E010C19EC17F019EC17F082
:10132800000192A51ED019EC17F016C0EFF017C0F7
:10133800F0F018C0F1F019C0F2F000016A51EF5D49
:10134800E76F6B51F059E86F6C51F159E96F6D51C6
:10135800F259EA6FEA51E91103E1400EE85D01E351
:10136800929592A32BD019EC17F016C0EFF017C086
:10137800F0F018C0F1F019C0F2F000017251EF5D01
:10138800E76F7351F059E86F7451F159E96F75516E
:10139800F259EA6FEA5107E1210EE75DA10EE8591B
:1013A800070EE9590BE39293A00E176E020E186E02
:1013B800040E196E300E1A6EF8EC14F0000192B794
:1013C8001200F9EC06F00009D8B412000001EB6B2A
:1013D800606B33A403D0E76BE72B02D00001E76B07
:1013E8006051E719FC0BE719606F33A602D06087DC
:1013F80002D0000160973350030BE80603E1E76B66
:10140800E72B02D00001E76BE73BE7476051E7199C
:10141800DF0BE719606F33AE02D0608D02D0000198
:10142800609D33AE04D034C063F035C064F03CC076
:1014380061F03DC062F038C067F036C065F037C073
:1014480066F03AC069F039C068F060ABA1D183D1C9
:10145800BBEC19F09ED1020EFD6501D0F9D720EE44
:1014680001F06551D9266651DA22AD51DE18F0E156
:10147800956B8E0E9525D96EDA6A010EDA22970ED3
:10148800DF6E952B8E0E9525D96EDA6A010EDA225B
:1014980091C0DFFF952BF36BF351FB0FD96EDA6A1E
:1014A8008E0E9525E16EE26A010EE222DFCFE7FF9C
:1014B800952BF32BF351F0E0BBEC19F061C0CAF0A7
:1014C80062C0CBF063C0CCF064C0CDF0010E000167
:1014D800CE6F000E60B7010ECF6F000E54EC12F005
:1014E80058D1956B8E0E9525D96EDA6A010EDA22DF
:1014F800920EDF6E952BF36BF3510E0DAC0EF324A9
:10150800D96E020EF420DA6EDFAE35D063C016F065
:1015180064C017F0F3510E0DA40EF324186E020EDA
:10152800F420196EACEC18F0000925E00001F35125
:101538000E0DAC0EF324D96E020EF420DA6EDF6ABB
:10154800F3510E0DA00EF324176E020EF420186E40
:10155800F3510E0DF350040F196E0E0E1A6EF8ECBF
:1015680014F08E0E00019525D96EDA6A010EDA2282
:10157800DF6A952B05D00001F32B270EF365BCD746
:10158800BBEC19F0280E0001F31909E18E0E952520
:10159800D96EDA6A010EDA22F00EDF6E952B61C081
:1015A800CAF062C0CBF063C0CCF064C0CDF0010ECD
:1015B800CE6F000E60B7010ECF6F000E54EC12F024
:1015C800E8D09B2915E19C2913E161C09BF062C01A
:1015D8009CF0EC69ED699B0E1A6EEC0E4DEC16F062
:1015E8009B0E176E186A196A020E1A6EF8EC14F040
:1015F800E7EC0FF0000120EE02F06551D9266651A4
:10160800DA22DF50AE6FAE0E176E186ABB0E196E77
:10161800010E1A6EF8EC14F00001928319EC17F021
:1016280016C072F017C073F018C074F019C075F0C6
:101638000FD720EE01F06551D9266651DA22DF5026
:10164800C0E0010ABEE004D792BB929B01D720EE0E
:1016580001F06551D9266651DA22DF5001E0F8D64B
:10166800F36BF3510E0DAC0EF324D96E020EF42079
:10167800DA6EDFAE2CD063C016F064C017F0F351F9
:101688000E0DA40EF324186E020EF420196EACECA5
:1016980018F000091CE00001F3510E0DAC0EF32404
:1016A800D96E020EF420DA6EDF6AF3510E0DA00E29
:1016B800F324176E020EF420186EF3510E0DF3503A
:1016C800040F196E0E0E1A6EF8EC14F0C1D6000154
:1016D800F32B270EF365C5D7BBD6495001E0B8D622
:1016E800010E9A6FB5D6495001E0B2D620EE01F04E
:1016F8006551D9266651DA22DF50E76FE705986F02
:1017080065C01DF066C01EF01AEC11F0A1D6495054
:1017180001E19ED665C016F066C017F0A0EC13F084
:101728000001EE6FEE290DE065C0E0F066C0E1F063
:10173800EEC0E2F063C0E3F064C0E4F053EC13F0F1
:10174800EB6FEB5101E184D663C0DAF064C0DBF0E3
:1017580051EC18F07DD665C0D9FF66C0DAFFDF50BE
:10176800770AC1E0F60A01E173D6030A01E1B9D6A6
:10177800050A01E170D6160A01E15BD7030A01E107
:1017880066D7050A01E160D75B0AC1E0160AA5E041
:101798009287000192B592A701D09295675104E013
:1017A80092B902D092AB12009297BBEF19F0C96BB5
:1017B800AFA502D0010EB26FAFB7B36BAF51030B39
:1017C800E80602E1030E04D0AF51030B02E1010E5B
:1017D800C66F4350B4190DE14450B5190AE14328C6
:1017E80002E1442806E0050EC76FC68D010EC56FDD
:1017F80003D0070EC76FC56BB251020ED8B4080EDE
:10180800C727B351020ED8B4080EC727AFBBAFB570
:1018180001D0C68BAF51030B030A07E1C66B070E55
:10182800C76FC56B010EB36FAF9B186A176AC7C045
:1018380019F0CAEC16F00001C92BC9C017F0186AD4
:10184800C751B825196ECAEC16F00001C92BC9C0DA
:1018580017F0186AC6C019F0CAEC16F00001C92BB7
:10186800AF51030B030A12E1C9C017F0186A800EC2
:10187800196ECAEC16F00001C92BC9C017F0186A16
:101888003EC019F0CAEC16F03E2A77D0B2510CE0EF
:10189800B3510AE0C9C017F0186A880E196ECAEC6D
:1018A80016F00001C92B20D0B2510AE0B35108E16B
:1018B800C9C017F0186AC80E196ECAEC16F0F1D72D
:1018C800B2510AE1B30508E1C9C017F0186A8C0ED5
:1018D800196ECAEC16F0E5D7C9C017F0186ACC0E15
:1018E800196ECAEC16F0DDD7C9C017F0186A3EC0E9
:1018F80019F0CAEC16F03E2A0001C92BC9C017F02E
:10190800186AB4C019F0CAEC16F00001C92BC9C096
:1019180017F0186AB5C019F0CAEC16F00001C92B07
:10192800AFA50FD0C9C017F0186A1968CAEC16F02D
:101938000001C92BC9C017F0186A1968CAEC16F05B
:101948001CD0B2511DE0C9C017F0186AB0C0D9FF49
:10195800B1C0DAFFDF50196ECAEC16F00001C92BCE
:10196800C9C017F0186A20EE01F0B051D926B1515C
:10197800DA22DF50196ECAEC16F00001C92B14D018
:10198800C86BC9C017F0186AC851B025D96E000EC7
:10199800B121DA6EDF50196ECAEC16F00001C92BBE
:1019A800C82B070EC865EDD7C55112E1C9C017F09D
:1019B800186A43C019F0CAEC16F00001C92BC9C057
:1019C80017F0186A44C019F0CAEC16F00001C92BC8
:1019D800B35113E0C9C017F0186A45C019F0CAEC32
:1019E80016F00001C92BC9C017F0186A46C019F0D3
:1019F800CAEC16F00001C92B14D0C86BC9C017F087
:101A0800186AC8518725D96E000E8821DA6EDF5012
:101A1800196ECAEC16F00001C92BC82B070EC86551
:101A2800EDD7C86B10D0C9C017F0186AC851B625D1
:101A3800D96E000EB721DA6EDF50196ECAEC16F0B7
:101A48000001C92BC82BB851C85DEDE33F80AFBB7F
:101A5800AFB504D0050EC86F3F8203D0010EC86F22
:101A68003F92C8C017F0370E15EC19F019EC17F0B3
:101A780016C0BDF017C0BEF018C0BFF019C0C0F046
:101A880081A0F2823FB004D03FA4010C3F94000C27
:101A980019EC17F016C0C1F017C0C2F018C0C3F097
:101AA80019C0C4F00001BD51C15DB96FBE51C25922
:101AB800BA6FBF51C359BB6FC051C459BC6FBC5139
:101AC800BB1105E1210EB95D4E0EBA59D9E374EC8C
:101AD8000DF0430E1A6E450E4DEC16F03F90000CBB
:101AE8008C90030E286E296A2A6A2B6A18D09A0EDF
:101AF800206E020E216E226A236A2006000E215AE9
:101B0800225A235A2028F9E12128F7E12228F5E171
:101B18002328F3E12806000E295A2A5A2B5A28505E
:101B280029102A102B10E3E18C800A0E2C6E2D6AE6
:101B38002E6A2F6A18D09A0E246E020E256E266A17
:101B4800276A2406000E255A265A275A2428F9E11E
:101B58002528F7E12628F5E12728F3E12C06000ED1
:101B68002D5A2E5A2F5A2C502D102E102F10E3E1DB
:101B7800070E176E550E15EC19F0540E96EC18F06A
:101B8800326E32C01FF0070E1F16F7E1306A316A55
:101B9800304A312AE80E305C030E3158F9E3010E61
:101BA800176E1B0E15EC19F01768070E15EC19F0D7
:101BB8001768090E15EC19F01768030E15EC19F0E3
:101BC8001768050E15EC19F0326A325000018725A6
:101BD800D96E000E8821DA6EDF50176E3250020D72
:101BE800F3500B0F15EC19F0322A070E3264EDD7BB
:101BF800020E186E176E800E196ECAEC16F0020EE1
:101C0800186E030E176E196ACAEC16F0020E186EDB
:101C1800060E176E900E196ECAEC16F0020E186EAC
:101C2800070E176E800E196ECAEC16F0020E186EAB
:101C3800080E176E100E196ECAEC16F0020E186E0A
:101C4800200E176E210E196ECAEC16F0800E176E54
:101C5800750E15EC19F0400E176E7D0E15EC19F087
:101C6800600E176E7F0E15EC19F0980E176E310E78
:101C780015EC19F0950E176E5D0E15EC19F0020EA5
:101C8800186E0F0E176E78EC16F0326E3250A00BED
:101C9800A00AF5E1E60E176E650E15EC19F0020EB6
:101CA800186E176A030E196ECAEC16F0020E186E3B
:101CB800010E176E020E196ECAEC16F01D6A0001AD
:101CC8009051A3EF17F0B56FEAEC13F0926BB55192
:101CD80029E1B96BB9510E0DAC0EF324D96E020E81
:101CE800F420DA6EDF6AB9510E0DA40EF324D96E12
:101CF800020EF420DA6EDF6AB9510E0DA50EF32438
:101D0800D96E020EF420DA6EDF6AB9510E0DA60EF6
:101D1800F324D96E020EF420DA6EDF6AB92B270E8F
:101D2800B965D8D7956BB96BB92B270EB965FCD7B0
:101D3800B55145E0AD0E176E186A020E196E010E08
:101D48001A6E80EC18F01F0E0001AD6501D01F0C53
:101D58009B0E176E186A196A020E1A6E80EC18F03C
:101D6800FD0E176E186A030E196E010E1A6E80ECBE
:101D780018F0A00E176E020E186E040E196E300EB3
:101D88001A6E80EC18F0490E176E186AB80E196EA4
:101D9800010E1A6E80EC18F0AE0E176E186ABB0EA4
:101DA800196E010E1A6E80EC18F0470E176E186A3D
:101DB800BA0E196E010E1A6E80EC18F028D0120EA9
:101DC8009C6F340E9B6F9B0E176E186A196A020E71
:101DD8001A6EF8EC14F0AD0E176E186A020E196E32
:101DE800010E1A6EF8EC14F0FD0E176E186A030E49
:101DF800196E010E1A6EF8EC14F0A00E176E020E92
:101E0800186E040E196E300E1A6EF8EC14F0D70E18
:101E18000001B76F010EB86FB683B651870B400942
:101E2800B66FB5B102D0B69502D00001B685B691AD
:101E3800B6C0AFF0B7C0B0F0B8C0B1F000EC18F061
:101E4800B369B4699B0E1A6EB30E4DEC16F000011F
:101E5800AD5101EC19F00001916BFD39F00B9113B4
:101E6800F2881200FDC0DFF1030E0101E06FE16BA3
:101E780019EC17F00001F40501E1FF0C19EC17F05B
:101E880016C0E2F117C0E3F118C0E4F119C0E5F19A
:101E9800200E0101E25FA10EE35B070EE45B000E7A
:101EA800E55B0001FD6B928987D019EC17F016C02D
:101EB800E6F117C0E7F118C0E8F119C0E9F101012E
:101EC800E251E65D0001F56F0101E351E7590001B8
:101ED800F66F0101E451E8590001F76F0101E5517E
:101EE800E9590001F86FF85107E1210EF55DA10EDF
:101EF800F659070EF7595AE3E6C1E2F1E7C1E3F1F3
:101F0800E8C1E4F1E9C1E5F10101E107E12954E1A2
:101F1800010EE16FE007E02903E100019299FF0C4F
:101F28000001956B8E0E9525D96EDA6A010EDA22BC
:101F3800810EDF6E952B8E0E9525D96EDA6A010E0D
:101F4800DA22ADC0DFFF952B8E0E9525D96EDA6AA1
:101F5800010EDA2291C0DFFF952B8E0E9525D96EE2
:101F6800DA6A010EDA22AA0EDF6E952B0101EA6BFE
:101F7800EA51FB0FD96EDA6A8E0E00019525E16EE3
:101F8800E26A010EE222DFCFE7FF952B0101EA2B7F
:101F9800EA51EEE09BC0CAF09CC0CBF00001CC6BCC
:101FA800CD6B010ECE6FCF6B54EC12F00CEC1AF027
:101FB800000902E017EC1AF0000192B976D7DFC1E8
:101FC800FDF08F5112002368246A24500E0DAC0EC8
:101FD800F324D96E020EF420DA6EDFAE13D063C09C
:101FE80016F064C017F024500E0DA40EF324186EDA
:101FF800020EF420196EACEC18F0000907E024C0BA
:1020080023F008D0232802E124C023F0242A270E35
:102018002464DBD7232801E112000001FD5101E00F
:102028001200246A24506325D96E000E6421DA6EEA
:1020380023500E0DA00E1E6E020E1F6E040E1E26DD
:10204800000E1F22F3501E26F4501F2224501E2477
:10205800E16E000E1F20E26EDFCFE7FF242A070E95
:102068002464E0D723500E0DAC0EF324D96E020E73
:10207800F420DA6EDF8E20EE02F06551D926665123
:10208800DA22DF501E6E010E1E1623500E0DAC0E06
:10209800F324D96E020EF420DA6EDF501E18FE0B00
:1020A8001E18DF6E246A245065251E6E000E6621F8
:1020B8001F6E030E1E24D96E000E1F20DA6E2350E9
:1020C8000E0DA00E206E020E216E0D0E2026000EA3
:1020D8002122F3502026F450212224502024E16E9E
:1020E800000E2120E26EDFCFE7FF242A2450DBE038
:1020F80023C08FF09299F2EC16F0476E470E176ED8
:10210800186ABA0E196E010E1A6EF8EF14F0000173
:10211800AF6F84D08C92040E176E550E15EC19F023
:10212800800E176E450E15EC19F0600E176E1B0E1B
:1021380015EC19F0800E176E6B0E15EC19F0010CEA
:102148008C8219EC17F016C0B0F017C0B1F018C0A7
:10215800B2F019C0B3F019EC17F016C0B5F017C0FB
:10216800B6F018C0B7F019C0B8F00001B051B55FAB
:10217800B151B65BB251B75BB351B85BB851B71147
:1021880005E1510EB55DC30EB65908E374EC0DF0C8
:10219800430E1A6E450E4DEC16F007D0620E96EC03
:1021A80018F00001B46FB4ADD6D719EC17F016C00B
:1021B800B5F017C0B6F018C0B7F019C0B8F00001F4
:1021C800B051B55FB151B65BB251B75BB351B85BB3
:1021D800B851B71105E1510EB55DC30EB65908E304
:1021E80074EC0DF0430E1A6E450E4DEC16F00CD043
:1021F800020E186E0F0E176E78EC16F00001B46F11
:10220800B451E00BA00AD1E1040E176E6D0E15EC67
:1022180019F0176A6D0E15EC19F0010C0001AF5199
:1022280001E178D7FF0AD8A4000C8AD7040E226EE1
:1022380022C01FF0030E1F1661E122501F6E206A94
:10224800030E1F26000E202220BE05D0205056E186
:10225800280E1F5C53E222501D241F6E000E1E2004
:10226800206E030E1F24D96E000E2020DA6EDF5078
:10227800216E2150040D030EF324D96E020EF420B2
:10228800DA6E21C0DFFF22501D24D96E000E1E20F9
:10229800DA6E2150040D000EF324E16E020EF420D4
:1022A800E26EDFCFE7FF22501D241F6E000E1E20B6
:1022B800206E1F28D96E000E2020DA6E2150040DE2
:1022C800010EF324E16E020EF420E26EDFCFE7FF89
:1022D80022501D241F6E000E1E20206E020E1F2489
:1022E800D96E000E2020DA6E2150040D020EF32460
:1022F800E16E020EF420E26EDFCFE7FF222A270EFE
:10230800226496D71EEF16F01650186E1750196EE5
:102318001A6A1B6AA00E1802F3CF1CF0F4CF1DF046
:102328001E6A1F6A1902F3501D26F4501E22000E61
:102338001F220F0E1802F3501D26F4501E22000E05
:102348001F22A00E1A02F3501E26F4501F220F0E51
:102358001902F3501E26F4501F22000E1802F350E3
:102368001E26F4501F22A00E1B02F3501F260F0E2C
:102378001A02F3501F26000E1902F3501F26000EF2
:102388001802F3501F261CC020F01DC021F01EC0EB
:1023980022F01FC023F0560E2026FF0E21222222F3
:1023A800232223BEFF0C2350221021100BE1C40E60
:1023B800205C08E2120000F0D90E2026FF0E212230
:1023C8002222232223BE1200235022102110F3E1DF
:1023D8002004F1E212008C8E8D90176A080E166E9A
:1023E80088EC11F08D80176A500E166E88EC11F08B
:1023F800300EF5EC19F0176A080E166E88EC11F01D
:10240800300EF5EC19F0176A010E166E88EC11F013
:10241800300EF5EC19F0176A010E166E88EC11F003
:10242800390EF5EC19F0176A010E166E88EC11F0EA
:10243800140EF5EC19F0176A010E166E88EC11F0FF
:10244800560EF5EC19F0176A010E166E88EC11F0AD
:102458006D0EF5EC19F0176A010E166E88EC11F086
:10246800700EF5EC19F0176A010E166E88EC11F073
:102478000E0EF5EC19F0176A010E166E88EC11F0C5
:10248800060EF5EC19F0176A010E166E88EC11F0BD
:10249800010EF5EC19F0176A280E166E88EF11F088
:1024A800D26F0001D36BCE5103E0D06BD02B02D09A
:1024B8000001D06BD351D019FC0BD019D36FD25176
:1024C80003E1D06BD02B02D00001D06BD03BD047BA
:1024D800D351D019DF0BD019D36FD2B102D0D39515
:1024E80002D00001D385CFB102D0D39702D000012A
:1024F800D387D76BD251010ED8B4000ED66FD25104
:1025080003E1D06BD02B02D00001D06BD03BD04779
:10251800D047D351D019BF0BD019D36FD38FCCC0AC
:10252800D4F0CDC0D5F0CAC0D8F0CBC0D9F020EED9
:10253800D3F000EEAFF0060EDBCFEBFFE806FCE2CF
:102548008E0EB66F010EB76F95C0B8F0DBEC0BF0CE
:102558000001D16F956BD1511200780ED36E9B8C10
:10256800C090550EA76EAA0EA76E0E01FF91110E10
:10257800E76F170EFB6F0A0EDB6F090ED96F550E4A
:10258800A76EAA0EA76EFF81FC0E0F01486F1F0EE3
:10259800496F8B94899C899E9494929C929E938275
:1025A8009384F19E92829280898A8C808C82929AFE
:1025B800959095929380F19CF292F288938A949EDA
:1025C8009398C00EC76E200EC66E8C8A959A8D841D
:1025D80096948D928C8E8C968D909692959E9596CB
:1025E8009690958C95949598736A310E726EA49E08
:1025F800176A640E166E88EC11F0EFEC11F0F28E8B
:10260800F28C12000101DF6F00019A6B9BC0CAF0C7
:102618009CC0CBF0A40ECC6F020ECD6F010ECE6F16
:10262800DFC1CFF0000E54EC12F019EC17F016C011
:10263800E0F117C0E1F118C0E2F119C0E3F12AD0C6
:1026480019EC17F016C0E4F117C0E5F118C0E6F16F
:1026580019C0E7F10CEC1AF00101E051E45D00014A
:10266800F46F0101E151E5590001F56F0101E251F3
:10267800E6590001F66F0101E351E7590001F76FD0
:10268800F751F61105E1510EF45DC30EF55902E359
:102698009A0503E100019A51D3E09A511200956B13
:1026A800E3C0D9FFE4C0DAFF8E0E9525E16EE26A39
:1026B800010EE222DFCFE7FF952B20EE01F0E35178
:1026C800D926E451DA228E0E9525E16EE26A010ED2
:1026D800E222DFCFE7FF952B20EE02F0E351D92667
:1026E800E451DA228E0E9525E16EE26A010EE222AD
:1026F800DFCFE7FF952B030EE66FE651E025D96E95
:10270800000EE121DA6E8E0E9525E16EE26A010E69
:10271800E222DFCFE7FF952BE62B270EE665EDD704
:10272800DE6BE2511DEC18F0E56FE55102E1D3ECE8
:1027380019F00001E55112001A6A40D01A500E0D26
:10274800AC0EF324D96E020EF420DA6EDFAE35D06B
:102758001A500E0DA40EF324D96E020EF420DA6E70
:1027680010EE01F01650E1261750E222DE50E6186E
:1027780024E11A500E0DA50EF324D96E020EF42092
:10278800DA6E10EE02F01650E1261750E222DE5003
:10279800E61813E11A500E0DA60EF324D96E020E98
:1027A800F420DA6E10EE03F01650E1261750E222FC
:1027B800DE50E61802E11A5012001A2A47501A5C35
:1027C800BDE347501A18D8B4FF0E1200010E1B6E55
:1027D80000018B6B8C6B176A020E166EA50E186EB5
:1027E80069EC18F01B16176A010E166EA10E186E0A
:1027F80069EC18F01B16176A010E166E9D0E186EFE
:1028080069EC18F01B16020E176E300E166E9F0E2E
:10281800186E69EC18F01B16176A040E166EA70ED0
:10282800186E69EC18F01B16176A010E166EA30EC7
:10283800186E69EC18F01B16176A010E166EA90EB1
:10284800186E69EC18F01B16176A010E166EAB0E9F
:10285800186E69EC18F01B16120002EEA0F012EECA
:1028680030F0EE6AE550E150FCE1E250FAE102EEA8
:1028780000F0A00EEE6AE806FDE101EE00F0DF0EC2
:10288800EE6AE806FDE100EE60F04F0EEE6AE8063B
:10289800FDE100EE33F0150EEE6AE806FDE1460EA6
:1028A800F66E340EF76E000EF86E0900F5CFFBF0E9
:1028B8000900F5CFFCF00900F5CFFDF0490EF66EE2
:1028C800340EF76E000EF86E0900F5CF48F00900D7
:1028D800F5CF49F04A904A92000EF86E000183EF56
:1028E80019F081B210D0000193513DE1010E936FB0
:1028F80019EC17F016C06EF017C06FF018C070F022
:1029080019C071F0010C81B410D0000193512BE172
:10291800010E936F19EC17F016C06EF017C06FF028
:1029280018C070F019C071F0020C19EC17F016C03D
:1029380024F017C025F018C026F019C027F00001B0
:102948006E51245C206E6F512558216E70512658A7
:10295800226E71512758236E2350221003E1400E36
:10296800215C01E3936B000C1F6A1F501B5C1D6EFA
:10297800000E1C581E6E070E1D24176E000E1E201A
:10298800186E1F50FA0F196E010E1A6E80EC18F0AF
:102998001F2A020E1F64E9D720EE04F01B50D92627
:1029A8001C50DA22DF6820EE03F01B50D9261C5099
:1029B800DA22FE0EDF6E1F6A1F501B5C1D6E000EB2
:1029C8001C581E6E020E1D24176E000E1E20186E57
:1029D8001F50FD0F196E010E1A6E80EC18F01F2A99
:1029E800020E1F64E9D7020C000EF2B8010E1C6E2D
:1029F800F2988C9A050EC8EC19F012EC1AF01D6EBC
:102A08008C8A21EC1AF01DB0F4D78C9A060EC8EC0B
:102A180019F08C8A21EC1AF08C9A020EC8EC19F085
:102A28001950C8EC19F01D6A15D017C0D9FF18C085
:102A3800DAFFDF50C8EC19F0174A182A1A061D2ABF
:102A480019501D241B6E0F0E1B1604E18C8A1D5095
:102A58001926CFD71A50E9E18C8A1CB002D0F29817
:102A680001D0F2881200F46F33D092A30CD0A00EDC
:102A7800176E020E186E040E196E300E1A6EF8ECF0
:102A880014F000019293000E8BEC10F00009D8B4FA
:102A98001200000192811200FF0E8BEC10F0000969
:102AA800D8B41200000192911200FF0E8BEC10F0C6
:102AB800000901E1120000019291EAEC15F0000909
:102AC80003E1120090EC09F0000192A51200FAD778
:102AD8000001F451CAE0010ADFE0030AE6E012004F
:102AE800800EF5EC19F0186AB60E1824D96EDA6A59
:102AF800010EDA22DF5004E1200EEDEC19F009D0C6
:102B0800B60E1824D96EDA6A010EDA22DF50EDEC1F
:102B180019F0182A0F0E1864E7D7C00EF5EC19F053
:102B2800100E186EB60E1824D96EDA6A010EDA2263
:102B3800DF5004E1200EEDEC19F009D0B60E182490
:102B4800D96EDA6A010EDA22DF50EDEC19F0182A94
:102B58001F0E1864E7D71F0CF96FD70E1B6E010EF6
:102B68001C6EB8EC14F00001F95103E0010E67EF98
:102B78000EF0899C899E000E67EC0EF0190E01EC90
:102B880019F0000901E1190C000E37EC18F0000EDD
:102B98000001C66F190EC2EC17F00001F46B36EC99
:102BA8000FF0406E402806E0010EC66F190EC2EC09
:102BB80017F0496A490E176E186AB80E196E010E99
:102BC8001A6EF8EC14F0898CDCEF19F095C0DAF085
:102BD8008EC1DBF00001956B8E0E9525D96EDA6AF1
:102BE800010EDA22040EDF6E952B9BC0CAF09CC042
:102BF800CBF0A40ECC6F020ECD6F010ECE6F000E7F
:102C0800CF6B54EC12F0000910E0928519EC17F024
:102C180016C06AF017C06BF018C06CF019C06DF0E0
:102C2800DBC08EF1DAC095F0010CDBC08EF1DAC0A2
:102C380095F0000C4950D8A412001C6A16D01C50FC
:102C4800040D000EF324D96E020EF420DA6E010191
:102C5800D751DE1809E11C50040D010EF324D96E7A
:102C6800020EF420DA6EDE501C2A00019851166E0E
:102C7800176A162A000E17221C50186E196A165069
:102C8800185C1950800A1A6E1750800A1A58D7E330
:102C980012001B6E1B50D96EDA6ADF50456E1B504E
:102CA800D96EDA6AD92ADF50466E1A50D96EDA6AB6
:102CB800DF50436E1A50D96EDA6AD92ADF50446E53
:102CC80045C017F0070E15EC19F046C017F0090EAD
:102CD80015EC19F043C017F0030E15EC19F044C0B9
:102CE80017F0050E15EF19F0000EF2B8010E1C6E64
:102CF800F298899A17C019F018C01AF0D8901A32A9
:102D08001932D8901A321932D8901A321932195009
:102D18007F0B8009E5EC19F01738E846E00BE5EC85
:102D280019F0000EE5EC19F01B6E898A1CB002D070
:102D3800F29801D0F2881B501200000EF2B8010E72
:102D4800076EF298899A02C004F003C005F0D89083
:102D580005320432D89005320432D8900532043254
:102D680004507F0B8009FDEC19F00238E846E00BAF
:102D7800FDEC19F0000EFDEC19F0066E898A07B01B
:102D880002D0F29801D0F28806501200000EF2B874
:102D9800010E1C6EF298899A17C01AF018C01BF021
:102DA800D8901B321A32D8901B321A32D8901B3264
:102DB8001A321A507F0B8009E5EC19F01738E846EB
:102DC800E00B1009E5EC19F01950E5EC19F0898AC7
:102DD8001CB002D0F29801D0F2881200166A176A65
:102DE80017500E0DA40EF324D96E020EF420DA6EDD
:102DF800DF5014E117500E0DA50EF324D96E020E04
:102E0800F420DA6EDF500AE117500E0DA60EF324F7
:102E1800D96E020EF420DA6EDF5001E0162A172A66
:102E2800270E1764DDD7165012009D901E6A1F6A80
:102E38001B6ACECF1CF0CFCF1DF01C2808E11D283F
:102E480006E11B2A1B041A6E020E1A64F2D79EA012
:102E580004D01E2A412801E11F2A41501E26425053
:102E68001F269D801CC016F01DC017F01EC018F04C
:102E78001FC019F012001B6A1C6A185019101BE0B9
:102E8800010E1A6E04D0D890183619361A2A19AEBF
:102E9800FAD7D8901B361C361850165C195017589C
:102EA80005E31850165E1950175A1B80D89019322E
:102EB80018321A2EEED71BC016F01CC017F01200DD
:102EC80050EC19F0B60E226E010E236EC2C024F02B
:102ED800C3C025F0C4C026F0276AC8EC00F074EC23
:102EE80015F00001C551D8B41200326A176AFA0EFB
:102EF800166E88EC11F0322A070E3264F7D7070CE9
:102F0800C26F50EC19F0B60E226E010E236E810EC0
:102F1800246EFF0E256EC2C026F0276A32C028F044
:102F2800296AC8EC00F0C60E226E010E236E910EBF
:102F3800246EFF0E256EC8EC00F074EF15F01E6EBF
:102F48000A0E1E64000C1A0E1E6401D0000C1EC06E
:102F580090F0020E186E176A1E50100DF350500FA5
:102F68000309196ECAEC16F0040E176E6D0E15ECF7
:102F780019F0176A6D0E15EC19F0010CC76F0001F6
:102F8800C6510BE1D40EC26FFD0EC36FC7C0C4F0AB
:102F9800010EC56F64EC17F00AD0330EC26FFE0E37
:102FA800C36FC7C0C4F0010EC56F64EC17F0030E01
:102FB800176EE80E166E88EF11F01F50201017E0FC
:102FC800010E216E04D0D8901F362036212A20AE5B
:102FD800FAD71F501D5C20501E5804E31F501D5E79
:102FE80020501E5AD89020321F32212EF2D71DC0F1
:102FF8001DF01EC01EF01200AFC086F0B0C087F0F2
:10300800B1C088F0D6CF3EF00B0E906F74EC0DF087
:103018003F6A0001B26BB251450D040EF324D96E1C
:10302800010EF420DA6EDF6AB22B010EB265F3D717
:10303800010CDF6F0001DF510E0DAC0EF324D96EC9
:10304800020EF420DA6EDFAE000CDF510E0DA40E76
:10305800F324DA6F020EF420DB6F010EDC6FDEC0A2
:10306800DDF092EF19F01F6E030E1F6401D0030C00
:103078001FC0FDF0FDC01EF01E3AF00E1E16000126
:1030880091510F0B1E10916FFD0E176E186A030EEB
:10309800196E010E1A6EF8EF14F0956B8E0E9525C9
:1030A800D96EDA6A010EDA22DA0EDF6E952B9BC032
:1030B800CAF09CC0CBF0DAC0CCF0DBC0CDF0010E7A
:1030C800CE6F000ECF6B54EF12F016508B25196E91
:1030D80017508C211A6E1904800E1A5801E3000C3F
:1030E8001850D96EDA6A8BC0DEFF8CC0DDFF16502F
:1030F8008B2717508C23010C8C9A030EC8EC19F0FF
:103108001950C8EC19F00AD012EC1AF017C0D9FF00
:1031180018C0DAFFDF6E174A182A1A061A50F4E1A7
:103128008C8A1200176E000EF2B8010E196EF29812
:10313800899A1750E5EC19F0000EE5EC19F0186EB5
:10314800898A19B002D0F29801D0F288185012007A
:103158001C6A1C501824D96E000E1920DA6E1C50F7
:103168001624E16E000E1720E26EDE50E61801E02C
:10317800000C1C2A070E1C64ECD7010C026E000E12
:10318800F2B8010E046EF298899A0250FDEC19F01B
:10319800000EFDEC19F0036E898A04B002D0F29893
:1031A80001D0F2880350120016C01CF017C01DF0A1
:1031B80008D01CC0D9FF1DC0DAFF18C0DFFF1C4AA9
:1031C8001D2A1A06D8A01B061A28F3E11B28F1E1CC
:1031D80012006F0E0001C26FFE0EC36FC46BC56B89
:1031E80064EC17F075EC14F00001C66FC60501E138
:1031F800000C020EC619F6E1010C1F6E1D6A1F5065
:10320800A3EC17F000090CE01FC0ADF0AD0E176E6F
:10321800186A020E196E010E1A6EF8EC14F0010C01
:10322800000C186E000EF2B8010E196EF298899A09
:103238001850E5EC19F01750E5EC19F0898A19B027
:1032480002D0F29801D0F2881200036E000EF2B894
:10325800010E046EF298899A0350FDEC19F00250A1
:10326800FDEC19F0898A04B002D0F29801D0F288F6
:10327800120016501802F3CF1AF0F4CF1BF01650B4
:103288001902F3501B2617501802F3501B261AC0B8
:1032980016F01BC017F01200010EF5EC19F0176AB2
:1032A800020E166E88EC11F0B60E166E010E176E31
:1032B800196A200E186E1B6A1A6ED8EF18F00001F2
:1032C800C66FC65104E0B30EC26FFD0E03D0F40EF4
:1032D800C26FFD0EC36FC46BC56B64EF17F0140E9D
:1032E8000001C26FFE0EC36FC46B010EC56F64ECA4
:1032F80017F0050E176EDC0E166E88EF11F0B1ECA4
:1033080012F0AEEC19F073EC19F0EDEC18F0FA6F5E
:10331800FA51B0EC15F01BEC1AF0FDD79BC0CAF0BF
:103328009CC0CBF0DAC0CCF0DBC0CDF0000ECE6B89
:10333800DDC0CFF054EF12F0186E176A3A0E18601D
:1033480005D02F0E186402D0010E176E17C016F0A4
:1033580016301200380ECD6E9A6ACF6ACE6ACECF7A
:103368008DF0CFCF8EF09E909D80CD801200020E02
:103378004860020C4850450D040EF324D96E010E26
:10338800F420DA6EDF6A000C166EA49E729E16C0D8
:1033980075FF72BEFBD7A4AEFED7A49E1200710EB5
:1033A800C26FFF0EC36FC46B010EC56F64EF17F0D9
:1033B800520E0001C26FFE0EC36FC46BC56B64EF83
:1033C80017F0166EC69E16C0C9FFC7A0FED7C95013
:1033D8001200176E8C9E8C861750C8EC19F08C8ED4
:1033E8001200176E8C9E8C961750C8EC19F08C8EB4
:1033F8001200016EC69E01C0C9FFC7A0FED7C95002
:103408001200C46FC3C032F00001C45184EF17F03A
:1034180090EC09F0000192B7010C000C000EC8EC0A
:1034280019F07550120000019297BBEF19F05DEF8B
:1034380004F08D8212008D92120000F0120001013A
:0834480003FF01001200120055
:10FCE4000020B2202020B22020B220B220202020E8
:10FCF40020B220B20D0AB220B220B220B2202020BD
:10FD0400B22020B22020B220200D0AB22020B2203E
:10FD140020B220B220B22020B22020B220B20D0A9C
:10FD2400B22020B22020B220B22020B220B220B2D1
:10FD34002020B20D0AB22020B22020B220B220200E
:10FD440020B220B2202020B20D0A20202020202022
:10FD5400202020202020202020202020200D0A01E7
:10FD6400000800400000020010008001000A006446
:10FD740000E803102701001000000100100D0A0D17
:10FD84000A436F6E6E656374696F6E2020202020B5
:10FD9400506565724C6F6E6741646472657373205D
:10FDA4002020202050656572496E666F0D0A005050
:10FDB40043203A535731206F722053573220207416
:10FDC4006F2042726F616443617374206D736700C6
:10FDD400436F6E6E656374696E672050656572204B
:10FDE400206F6E204368616E6E656C202564200070
:10FDF400535731203A20556E696361737420202073
:10FE0400535732203A204E657874204E6F64650053
:10FE140053696D706C65205354415220202020207A
:10FE24004D524632344A3430204E6F6465310020DE
:10FE3400436F6E6E6563746564205065657220203F
:10FE44006F6E204368616E6E656C202564005357A5
:10FE5400313A2042726F6164636173742020535796
:10FE6400323A20556E6963617374005357313A4EC8
:10FE74006577204E6574776F726B205357323A461C
:10FE84007265657A65720042726F6164636173744E
:10FE9400205061636B6574207769746820525353F2
:10FEA400492000556E6963617374205061636B650A
:10FEB40074207769746820525353492000524230A9
:10FEC4003A253032642D2530327825303278253089
:10FED40032782D6D65005242303A253032642D253A
:10FEE400303278253032782530327800204164640D
:10FEF400726573733A253032782530327825303282
:10FF04007800446174615F53656E64696E675F462F
:10FF140061696C2121000D0A0D0A4D792041646448
:10FF2400726573733A2030780030313233343536A9
:10FF34003738394142434445460030313233343551
:10FF440036373839616263646566005242323A205A
:10FF54004368616E6765206E6F6465004461746117
:10FF6400205061636B65742066726F6D0020556E5E
:10FF74006963617374204661696C65640054583A1E
:10FF8400253364202C2052583A253364004D657380
:10FF94007361676520436F756E74002020202020F4
:10FFA400202020202020202000536C656570696E7D
:10FFB400672121210020204368616E6E656C3A2020
:10FFC40000202050414E49443A20307800576F6B4E
:10FFD4006520557021212100536C656570696E6739
:10FFE4002121005365637572656420002066726F79
:04FFF4006D2000007C
:08FFF800ACF5DAFBFFF9FFF1A3
:00000001FF
