:020000040000FA
:06000000F8EF2FF01200E2
:020006001200E6
:060008003BEF21F01200A5
:02000E00227757
:08001000665544332211000380
:060018003BEF21F0120095
:02001E000400DC
:10002000456000005902000002000000426000002C
:1000300054020000030000000E0000003A0200001D
:100040000A00000028600000000200001A00000002
:1000500000001200D9CFE6FFE1CFD9FF0B0EE12659
:10006000DF6A020EDF5C5EE2DF503A0DF3CFE9FF9C
:10007000F4CFEAFF000EE926010EEA22100EE9266F
:10008000000EEA22EF50010B4BE0E4EC2DF0010EE4
:1000900004C0DBFF020E05C0DBFF030E06C0DBFF62
:1000A000040E07C0DBFFDF503A0DF3CFE9FFF4CFBA
:1000B000EAFF000EE926010EEA22EECF14F0EECFA1
:1000C00015F0EECF16F0EFCF17F0D950010FE96E13
:1000D000DACFEAFF00011450EE5C106E1550EE58B6
:1000E000116E1650EE58126E1750EE58136ED880DF
:1000F000500E1054A90E1154AB0E1254000E13548E
:100100000FE2DF503A0DF3CFE9FFF4CFEAFF000E24
:10011000E926010EEA22100EE926000EEA22EF6A15
:10012000DF2A9FD70F010FA52BD0E4EC2DF0010E95
:1001300004C0DBFF020E05C0DBFF030E06C0DBFFC1
:10014000040E07C0DBFFD950010FE96EDACFEAFFDA
:100150000F014D51EE5C106E4E51EE58116E4F5125
:10016000EE58126E5051EE58136ED880FF0E105498
:100170003F0E1154000E1254000E135401E20F955D
:100180000FA33CD0E4EC2DF0010E04C0DBFF020E07
:1001900005C0DBFF030E06C0DBFF040E07C0DBFF5C
:1001A000D950010FE96EDACFEAFF0F015C51EE5C26
:1001B000106E5D51EE58116E5E51EE58126E5F5129
:1001C000EE58136ED880240E1054F40E1154000E05
:1001D0001254000E135412E20F93640EE66EE66A98
:1001E00020C2E6FF21C2E6FF740EE66E010EE66E47
:1001F00009EC2AF0106E060EE15E1050EFEC16F0DE
:10020000000902E155EF06F00F01046B5151040B98
:1002100001E0010E030BF36EFC0E0415F310046FE6
:1002200051510497080B01E004875151030B010859
:1002300002E1010E01D0000E049BE8B0048B515185
:10024000049D800B01E0048D51AF04D052CF07FF15
:1002500053CF08FF5ACF05FF5BCF06FF56CF0BFFEA
:1002600054CF09FF55CF0AFF58CF0DFF57CF0CFFD2
:1002700004AB41EF06F009CFE9FF0ACFEAFFEF50E8
:10028000840A02E124EF06F0070A01E1E9D2870AB5
:1002900001E1E6D2960A01E16FD2050A01E15DD1E2
:1002A000060A01E110D1130A6BE0050A0BE0060A09
:1002B00003E00F8740EF06F0A8EC1BF040EF06F0DC
:1002C00040EF06F002014351020804E2A8EC1BF0E3
:1002D00040EF06F0010E0F01EA6A0925E96E0A51A6
:1002E000EA22EF500201425D04E0A8EC1BF040EF6F
:1002F00006F00F01026B0251022BEA6AD80FE96E79
:10030000010EEA22970EEF6E0251022BEA6AD80F15
:10031000E96E010EEA2203CFEFFFDF6A010EDF5C18
:1003200014E2DF50EA6A180FE96E020EEA22EF507B
:10033000E66E0251022BEA6AD80FE96E010EEA223C
:10034000E552E750EF6EDF2AE9D7A8EC1BF00F016A
:100350000451080B01E0010EE66E010EE66E07CFB8
:10036000E6FF08CFE6FF05CFE6FF06CFE6FFE66A29
:10037000EDEC09F0106E070EE15E105040EF06F054
:10038000026B0251022BEA6AD80FE96E010EEA22D3
:10039000920EEF6EDF6A0A0EDF5C6EE2DF500A0D2E
:1003A000F3CFE9FFF4CFEAFF740EE926010EEA224B
:1003B000080EE926000EEA22EF50800B5BE0DF50CA
:1003C0000A0DF3CFE9FFF4CFEAFF740EE926010E20
:1003D000EA22E9CF10F0EACF11F010C0E6FF11C019
:1003E000E6FF07CFE6FF08CFE6FFEEEC0BF0E552A5
:1003F000E552E552E55200093DE0DF500A0DF3CF2A
:10040000E9FFF4CFEAFF740EE926010EEA22080E96
:10041000E926000EEA22EF6A0A0EE66EE66ADF506F
:100420000A0D02012051F324106E2151F420116EA7
:1004300010C0E6FF11C0E6FFDF500A0DF3CF12F047
:10044000F4CF13F0740E1226010E132212C0E6FF31
:1004500013C0E6FF09EC2AF0146E060EE15E14509C
:100460000F010251022BEA6AD80FE96E010EEA224F
:10047000EF6A02D0DF2A8FD7A8EC1BF00A0EDF5CF0
:100480000AE10F010251022BEA6AD80FE96E010E50
:10049000EA22F00EEF6E0F010451080B01E0010E8D
:1004A000E66E010EE66E07CFE6FF08CFE6FF05CF4A
:1004B000E6FF06CFE6FFE66AEDEC09F0106E070EE8
:1004C000E15E1050DDD3010EEA6A0925E96E0A519A
:1004D000EA22EF5003E0010A01E03CD0001D01E1F7
:1004E000011D29E105CF00FF06CF01FF050EDB68E6
:1004F000060EDB68000EE66E0F0EE66ED950050F95
:10050000E66E000EDA20E66EB6EC20F0E552E5521B
:10051000E552E552020EE66EE66A1AC2E6FF1BC21B
:10052000E6FF000EE66E0F0EE66E09EC2AF0106E86
:10053000060EE15E105082EC0EF00F010F83E4EC2A
:100540002DF004C05CFF05C05DFF06C05EFF07C064
:100550005FFF00D0A8EC1BF093D30FAB02D00F9B32
:1005600008D1DF6A0F011051DF5C4CE2DF500F0D44
:10057000F3CFE9FFF4CFEAFF110EE9260F0EEA22CE
:10058000EF500201425D3CE1DF500F0DF3CFE9FF78
:10059000F4CFEAFF110EE9260F0EEA22090EE92632
:1005A000000EEA22EECF10F0EFCF11F00F0105514F
:1005B0000001101804E10F0106510001111820E19B
:1005C00007CFE6FF08CFE6FFDF500F0DF3CFE9FFBF
:1005D000F4CFEAFF110EE9260F0EEA22EE52E9CF20
:1005E00012F0EACF13F012C0E6FF13C0E6FFEEEC04
:1005F0000BF0E552E552E552E552000901E002D068
:10060000DF2AB0D70F011051DF5C01E0B2D0040E39
:10061000DF5C01E3AED010510F0DF3CFE9FFF4CF53
:10062000EAFF110EE9260F0EEA2242C2EFFF105137
:100630000F0DF3CFE9FFF4CFEAFF110EE9260F0EFD
:10064000EA220B0EE926000EEA220CCFEFFF105132
:100650000F0DF3CFE9FFF4CFEAFF110EE9260F0EDD
:10066000EA220C0EE926000EEA220DCFEFFF105110
:100670000F0DF3CFE9FFF4CFEAFF110EE9260F0EBD
:10068000EA22090EE926000EEA2205CFEEFF06CF88
:10069000EDFFDF6A080EDF5C24E2DF500F01EA6A3B
:1006A0000725E96E0851EA22EF50E66E10510F0D52
:1006B000F3CFE9FFF4CFEAFF110EE9260F0EEA228D
:1006C000EE52E9CF10F0EACF11F0DF500F01102405
:1006D000E96E000E1120EA6EE552E750EF6EDF2A58
:1006E000D9D7010E0F01EA6A0925E96E0A51EA22FB
:1006F000EF50E66E10510F0DF3CFE9FFF4CFEAFF94
:10070000110EE9260F0EEA220D0EE926000EEA224E
:10071000E552E750EF6EDF6A010EDF5C28E2020E61
:10072000DF240F01EA6A0925E96E0A51EA22EF5037
:10073000E66E10510F0DF3CFE9FFF4CFEAFF110E73
:10074000E9260F0EEA220E0EE926000EEA22E9CF74
:1007500010F0EACF11F0DF500F011024E96E000E07
:100760001120EA6EE552E750EF6EDF2AD5D70F0170
:10077000102BA8EC1BF084D2010EEA6A0925E96E61
:100780000A51EA22EF5069E1DF6A0A0EDF5C65E296
:10079000DF500A0DF3CFE9FFF4CFEAFF740EE9262C
:1007A000010EEA22080EE926000EEA22EF50800B25
:1007B00052E0DF500A0DF3CFE9FFF4CFEAFF740EE9
:1007C000E926010EEA22E9CF10F0EACF11F010C0BD
:1007D000E6FF11C0E6FF07CFE6FF08CFE6FFEEEC2D
:1007E0000BF0E552E552E552E552000934E0DF50E6
:1007F0000A0DF3CFE9FFF4CFEAFF740EE926010EEC
:10080000EA22080EE926000EEA22EF6A0A0EE66ED8
:10081000E66ADF500A0D02012051F324106E2151C7
:10082000F420116E10C0E6FF11C0E6FFDF500A0D84
:10083000F3CF12F0F4CF13F0740E1226010E132230
:1008400012C0E6FF13C0E6FF09EC2AF0146E060E94
:10085000E15E145002D0DF2A98D7A8EC1BF010D22A
:10086000070EDB6A026BDF6A020EDF5C01E3D4D1A4
:10087000DF503A0DF3CFE9FFF4CFEAFF000EE9268F
:10088000010EEA22100EE926000EEA22EF50010BBB
:1008900001E1C0D1DF503A0DF3CFE9FFF4CFEAFF19
:1008A000000EE926010EEA22100EE926000EEA22C9
:1008B000EF50020B01E1F4D00A0EDB6AF36EDBCFDE
:1008C000F4FFF350F45C01E3EAD0DF503A0DF3CFCC
:1008D000E9FFF4CFEAFF000EE926010EEA22060E38
:1008E000E926000EEA22E9CF10F0EACF11F00A0E55
:1008F000DB500F011024E96E000E1120EA6EEF505C
:10090000FF0801E1C9D007CFE6FF08CFE6FFDF50BF
:100910003A0DF3CFE9FFF4CFEAFF000EE926010E0E
:10092000EA22060EE926000EEA22E9CF14F0EACF09
:1009300015F00A0EDB501424E96E000E1520EA6E45
:10094000EF500A0DF3CFE9FFF4CFEAFF740EE9266A
:10095000010EEA22E9CF12F0EACF13F012C0E6FF4F
:1009600013C0E6FFEEEC0BF0E552E552E552E5521E
:10097000000901E191D0DF503A0DF3CFE9FFF4CF48
:10098000EAFF000EE926010EEA22060EE926000E15
:10099000EA22E9CF10F0EACF11F00A0EDB500F0186
:1009A0001024E96E000E1120EA6EEF680A0EDB6A71
:1009B000DF503A0DF3CFE9FFF4CFEAFF000EE9264E
:1009C000010EEA22110EE926000EEA22EF50F36E24
:1009D0000A0EDBCFF4FFF350F45C2AE2DF503A0D4D
:1009E000F3CFE9FFF4CFEAFF000EE926010EEA2279
:1009F000120EE926000EEA22E9CF10F0EACF11F03C
:100A00000A0EDB500F011024E96E000E1120EA6E71
:100A1000EF50E66E0F010251022BEA6AD80FE96E21
:100A2000010EEA22E552E750EF6E0A0EDB2AC0D72C
:100A3000DF503A0DF3CFE9FFF4CFEAFF000EE926CD
:100A4000010EEA22100EE926000EEA22EF50080BF2
:100A500001E0010EE66E070EDBCFE6FF07CFE6FFF3
:100A600008CFE6FFDF503A0DF3CFE9FFF4CFEAFFFE
:100A7000000EE926010EEA22040EE926000EEA2203
:100A8000EECFE6FFEFCFE6FFE66AEDEC09F0106E81
:100A9000070EE15E1050D5D00A0EDB2A0FD7BAD070
:100AA00007CFE6FF08CFE6FFDF503A0DF3CFE9FFAF
:100AB000F4CFEAFF000EE926010EEA22060EE9262F
:100AC000000EEA22E9CF10F0EACF11F010C0E6FFE5
:100AD00011C0E6FFEEEC0BF0E552E552E552E552AF
:100AE000000901E197D00A0EDB6ADF503A0DF3CF1F
:100AF000E9FFF4CFEAFF000EE926010EEA22110E0B
:100B0000E926000EEA22EF50F36E0A0EDBCFF4FF67
:100B1000F350F45C2AE2DF503A0DF3CFE9FFF4CF53
:100B2000EAFF000EE926010EEA22120EE926000E67
:100B3000EA22E9CF10F0EACF11F00A0EDB500F01E4
:100B40001024E96E000E1120EA6EEF50E66E0F01E0
:100B50000251022BEA6AD80FE96E010EEA22E55231
:100B6000E750EF6E0A0EDB2AC0D7DF503A0DF3CF05
:100B7000E9FFF4CFEAFF000EE926010EEA22100E8B
:100B8000E926000EEA22EF50080B01E0010EE66EA6
:100B9000070EDBCFE6FFDF503A0DF3CFE9FFF4CFCE
:100BA000EAFF000EE926010EEA22060EE926000EF3
:100BB000EA22E9CF10F0EACF11F010C0E6FF11C031
:100BC000E6FFDF503A0DF3CFE9FFF4CFEAFF000E66
:100BD000E926010EEA22040EE926000EEA22EECFF3
:100BE000E6FFEFCFE6FFE66AEDEC09F0126E070EC6
:100BF000E15E1250DF503A0DF3CFE9FFF4CFEAFF88
:100C0000000EE926010EEA22100EE926000EEA2265
:100C1000EF6A17D0DF2A28D6020EDF5C12E1E66AFF
:100C2000070EDBCFE6FF07CFE6FF08CFE6FF05CFD5
:100C3000E6FF06CFE6FFE66AD0DB106E070EE15E48
:100C40001050A8EC1BF01CD0010EEA6A0925E96ED1
:100C50000A51EA22EF500201425D03E0A8EC1BF0CA
:100C60000FD0020E0F01EA6A0925E96E0A51EA2245
:100C7000EF50E66E8FEC11F0E552A8EC1BF000D0BF
:100C800001D00F870F010F51040B04E00F51080B27
:100C900001E00F950B5106E00F51100B03E10F51CE
:100CA000200B03E00F97A8EC1BF00B0EE15C02E2B7
:100CB000E16AE552E16EE552E7CFD9FF1200D9CFE4
:100CC000E6FFE1CFD9FF060EE12689EC2AF00F01FD
:100CD0000F6BDF6A0A0EDF5C11E2DF500A0DF3CF03
:100CE000E9FFF4CFEAFF740EE926010EEA22080EAE
:100CF000E926000EEA22EF6ADF2AECD7DAEC2DF0C3
:100D00000F01026BDF6A020EDF5C11E2DF503A0D69
:100D1000F3CFE9FFF4CFEAFF000EE926010EEA2245
:100D2000100EE926000EEA22EF6ADF2AECD7FE0E4B
:100D3000DB504BE0010EE66EE66A1CC2E6FF1DC208
:100D4000E6FF420EE66E020EE66ECFEC29F0106E64
:100D5000060EE15E1050200E0201425D02E3000E1D
:100D6000CFD0020EE66EE66A1AC2E6FF1BC2E6FFAD
:100D7000000EE66E0F0EE66ECFEC29F0106E060E3A
:100D8000E15E1050010EE66EE66A1EC2E6FF1FC26B
:100D9000E6FF430EE66E020EE66ECFEC29F0106E13
:100DA000060EE15E1050640EE66EE66A20C2E6FFB3
:100DB00021C2E6FF740EE66E010EE66ECFEC29F05E
:100DC000106E060EE15E105049D00F01340E006F18
:100DD000120E016F020EE66EE66A1AC2E6FF1BC231
:100DE000E6FF000EE66E0F0EE66E09EC2AF0106EBE
:100DF000060EE15E1050010EE66EE66A1CC2E6FFCA
:100E00001DC2E6FF420EE66E020EE66E09EC2AF007
:100E1000106E060EE15E1050010EE66EE66A1EC20E
:100E2000E6FF1FC2E6FF430EE66E020EE66E09EC19
:100E30002AF0106E060EE15E1050640EE66EE66A51
:100E400020C2E6FF21C2E6FF740EE66E010EE66EDA
:100E500009EC2AF0106E060EE15E1050D950020F18
:100E6000E96EDACFEAFF3A0EEE6E020EED6E010E7B
:100E7000DB82DB96DB98DB9ADB8CFE0EDB50106EA0
:100E8000D950010FE96EDACFEAFF1050010BF36E73
:100E9000F346F346FB0EEF14F310EF6E010EDB90FA
:100EA000DBCFE6FF020EDBCFE6FF030EDBCFE6FF74
:100EB0000CEC21F0E552E552E552040EDB68050E1C
:100EC000DB68000EE66E0F0EE66ED950040FE66E7C
:100ED000000EDA20E66EB6EC20F0E552E552E5525F
:100EE000E55242C2E6FFD2EC0DF0E5520F01036B72
:100EF00002014339F00B0F010313F288010E00D0F9
:100F0000106E060EE15C02E2E16AE552E16E1050FD
:100F1000E552E7CFD9FF1200D9CFE6FFE1CFD9FFE5
:100F2000FE0EDB50020A34E0030A26E0010A02E06A
:100F3000FF0E45D00F010FA313D0640EE66EE66AD4
:100F400020C2E6FF21C2E6FF740EE66E010EE66ED9
:100F500009EC2AF0106E060EE15E10500F010F939F
:100F6000E66AFCEC1EF0E552000904E00F010F8177
:100F7000000E25D0010E23D0E668FCEC1EF0E552F1
:100F8000000904E00F010F91000E19D0010E17D0D7
:100F9000E668FCEC1EF0E552000902E1010E0FD0FC
:100FA0000F010F9110D8000902E1020E08D00F01C5
:100FB0000FA503D02AEC00F0FAD7000E00D0E552BE
:100FC000E7CFD9FF1200D9CFE6FFE1CFD9FF020E5C
:100FD000E12602CFDFFF010ED8C1DBFF0F01026B5C
:100FE0000251022BEA6AD80FE96E010EEA22040EC2
:100FF000EF6EE66A010EE66E740EE66E010EE66EA8
:1010000000CFE6FF01CFE6FFE66AE7D9106E070ED4
:10101000E15E1050000912E00F010F85E4EC2DF0A5
:1010200004C04DFF05C04EFF06C04FFF07C050FF74
:10103000010EDBCFD8F1DFCF02FF07D0010EDBCFEF
:10104000D8F1DFCF02FF000E00D0106E020EE15C7F
:1010500002E2E16AE552E16E1050E552E7CFD9FFB6
:101060001200D9CFE6FFE1CFD9FF030EE126DF6AF8
:10107000020EDF5C01E3A3D1DF503A0DF3CFE9FFAD
:10108000F4CFEAFF000EE926010EEA22100EE9264F
:10109000000EEA22EF50010B01E08FD1DF503A0D34
:1010A000F3CFE9FFF4CFEAFF000EE926010EEA22B2
:1010B000100EE926000EEA22EF80FE0EDB50106EC5
:1010C000DF503A0DF3CFE9FFF4CFEAFF000EE92637
:1010D000010EEA22100EE926000EEA221050010B42
:1010E000F36EF346FD0EEF14F310EF6EF90EDB50C6
:1010F000106EDF503A0DF3CFE9FFF4CFEAFF000E98
:10110000E926010EEA22100EE926000EEA2210500E
:10111000010BF36EF346F346FB0EEF14F310EF6E84
:10112000F80EDB50106EDF503A0DF3CFE9FFF4CF2D
:10113000EAFF000EE926010EEA22100EE926000E53
:10114000EA221050010BF36EF346F346F346F70E16
:10115000EF14F310EF6EDF503A0DF3CFE9FFF4CF49
:10116000EAFF000EE926010EEA22040EE926000E2F
:10117000EA22FC0EDBCFEEFFFD0EDBCFEDFFD950F8
:10118000FA0FE96EFF0EDA20EA6EEE50ED103AE04B
:10119000010EDB6A080EF36E010EDBCFF4FFF35095
:1011A000F45C2FE2010EDB50E76EFA0EDBCFE9FFB5
:1011B000FB0EDBCFEAFFE750E926000EEA22EF50F4
:1011C000E66EDF503A0DF3CFE9FFF4CFEAFF000EF1
:1011D000E926010EEA22060EE926000EEA22E9CFF0
:1011E00010F0EACF11F0010EDB500F011024E96E70
:1011F000000E1120EA6EE552E750EF6E010EDB2A79
:10120000C9D779D0020EDB6A010EDB6A0A0EF36ED3
:10121000010EDBCFF4FFF350F45C47E2010EDB502C
:101220000A0DF3CFE9FFF4CFEAFF740EE926010EB1
:10123000EA22080EE926000EEA22EF50800B32E087
:10124000010EDB500A0DF3CFE9FFF4CFEAFF740E75
:10125000E926010EEA22080EE926000EEA22EF50E6
:10126000010B20E1DF503A0DF3CFE9FFF4CFEAFFA5
:10127000000EE926010EEA22060EE926000EEA22F9
:10128000E9CF10F0EACF11F0020EDBCFF3FFDB2A3B
:10129000F3500F011024E96E000E1120EA6E010ECA
:1012A000DBCFEFFF010EDB2AB1D70A0EF36E020E81
:1012B000DBCFF4FFF350F45C1EE2DF503A0DF3CFC6
:1012C000E9FFF4CFEAFF000EE926010EEA22060E3E
:1012D000E926000EEA22E9CF10F0EACF11F0020E63
:1012E000DB500F011024E96E000E1120EA6EEF684A
:1012F000020EDB2ADAD7DF503A0DF3CFE9FFF4CF45
:10130000EAFF000EE926010EEA22110EE926000E80
:10131000EA2202CFEFFF010EDB6A0F010251F36EEA
:10132000010EDBCFF4FFF350F45C29E2010EDB5039
:10133000EA6AD80FE96E010EEA22EF50E66EDF503E
:101340003A0DF3CFE9FFF4CFEAFF000EE926010ED4
:10135000EA22120EE926000EEA22E9CF10F0EACFC7
:1013600011F0010EDB500F011024E96E000E112068
:10137000EA6EE552E750EF6E010EDB2ACED7E4ECC1
:101380002DF004C010F005C011F006C012F007C027
:1013900013F0DF503A0DF3CFE9FFF4CFEAFF000E70
:1013A000E926010EEA2210C0EEFF11C0EEFF12C0C6
:1013B000EEFF13C0EEFF010E04D0DF2A59D6000E57
:1013C00000D0106E030EE15C02E2E16AE552E16ECC
:1013D0001050E552E7CFD9FF1200D9CFE6FFE1CF99
:1013E000D9FF080EE126DF6AF90EDB5002E0010E9C
:1013F00001D0000E106ED9CFE9FFDACFEAFF10500E
:10140000030BF36EFC0EEF14F310EF6EFE0EDB50C9
:1014100002E0000E01D0010E106ED9CFE9FFDACF45
:10142000EAFF1050010BF36EF346F346F346F34622
:10143000F346DF0EEF14F310EF6EFE0EDB50106E6E
:10144000D9CFE9FFDACFEAFF1050010BF36EF34674
:10145000F346FB0EEF14F310EF6EF80EDB50106E38
:10146000D9CFE9FFDACFEAFF1050010BF36EF34654
:10147000F346F346F70EEF14F310EF6E040EDB6A3B
:10148000FE0EDB5002E0010E01D0000EE76E030EEF
:10149000E7CFDBFFFE0EDB5002E0000E01D0010EB5
:1014A000106ED9CFE9FFDACFEAFF1050010BF36ECF
:1014B000F346F346F346F346F346F346BF0EEF1406
:1014C000F310EF6EDF8EFA0EDBCF06F0FB0EDBCFF4
:1014D00007F0DE5206C0DEFF07C0DDFFDD52FC0E66
:1014E000DBCF06F0FD0EDBCF07F0050E06C0DBFFFD
:1014F000060E07C0DBFF02CFE6FFD80EE66E010E38
:10150000E66ED9CFE9FFDACFEAFFEECFE6FFEECF06
:10151000E6FFEECFE6FFEECFE6FFEECFE6FFEECF43
:10152000E6FFEECFE6FFB8EC1BF0106E0A0EE15EB0
:101530001050E76E070EE7CFDBFF0F01026BDB50A9
:10154000106E080EE15C03E200D0E16AE552E16E44
:101550001050E552E7CFD9FF1200D9CFE6FFE1CF17
:10156000D9FFE652DF6A0A0EDF5C37E2DF500A0D70
:10157000F3CFE9FFF4CFEAFF740EE926010EEA2269
:10158000080EE926000EEA22EF50800B24E0DF501F
:101590000A0DF3CFE9FFF4CFEAFF740EE926010E3E
:1015A000EA22080EE926000EEA22EF50010B13E1B1
:1015B000FE0EDBCFE6FFE66A000EE66EE66A00CFBF
:1015C000E6FF01CFE6FF010EE66E4BDD106E070E63
:1015D000E15E105002D0DF2AC6D7FE0EDBCFE6FF59
:1015E000E66A000EE66EE66A00CFE6FF01CFE6FF90
:1015F000010EE66EF2DE106E070EE15E105000D0B6
:10160000E552E552E7CFD9FF1200D9CFE6FFE1CF8F
:10161000D9FFFE0EDB500A0DF3CFE9FFF4CFEAFF4E
:10162000740EE926010EEA22080EE926000EEA22CF
:10163000EF50800B52E0FE0EDB500A0DF3CFE9FFB6
:10164000F4CFEAFF740EE926010EEA22080EE9261D
:10165000000EEA22EF50010B22E1FD0EDBCFE6FF88
:10166000E66AFE0EDB500A0DF3CFE9FFF4CFEAFF86
:10167000740EE926010EEA22E9CF10F0EACF11F04C
:1016800010C0E6FF11C0E6FF00CFE6FF01CFE6FF86
:10169000E66AE7DC126E070EE15E125020D0FD0E06
:1016A000DBCFE6FF010EE66EFE0EDB500A0DF3CF38
:1016B000E9FFF4CFEAFF740EE926010EEA22E9CF32
:1016C00010F0EACF11F010C0E6FF11C0E6FF0BD812
:1016D000E552E552E552E55202D0000E00D0E55247
:1016E000E7CFD9FF1200D9CFE6FFE1CFD9FFE6520D
:1016F000DF6A0A0EDF5C58E2DF500A0DF3CFE9FF24
:10170000F4CFEAFF740EE926010EEA22080EE9265C
:10171000000EEA22EF50800B45E0DF500A0DF3CFB8
:10172000E9FFF4CFEAFF740EE926010EEA22080E63
:10173000E926000EEA22EF50010B34E1DF500A0DDA
:10174000F3CFE9FFF4CFEAFF740EE926010EEA2297
:10175000E9CF10F0EACF11F010C0E6FF11C0E6FFAC
:10176000FD0EDBCFE6FFFE0EDBCFE6FF37D8E552FE
:10177000E552E552E552000915E0FB0EDBCFE6FF2E
:10178000E66AFD0EDBCFE6FFFE0EDBCFE6FF00CF05
:10179000E6FF01CFE6FFE66A64DC106E070EE15E4D
:1017A000105017D0DF2AA5D7FB0EDBCFE6FFE66A85
:1017B000FD0EDBCFE6FFFE0EDBCFE6FF00CFE6FF40
:1017C00001CFE6FFE66A09DE106E070EE15E1050FB
:1017D00000D0E552E552E7CFD9FF1200D9CFE6FF9E
:1017E000E1CFD9FFE652DF6A080EDF5C21E2DF506D
:1017F000E76EFD0EDBCFE9FFFE0EDBCFEAFFE75021
:10180000E926000EEA22EFCF10F0DF50E76EFB0E64
:10181000DBCFE9FFFC0EDBCFEAFFE750E926000E45
:10182000EA22EF50105C02E0000E04D0DF2ADCD781
:10183000010E00D0E552E552E7CFD9FF1200D9CF13
:10184000E6FFE1CFD9FF060EE126FE0EDB50020ACD
:101850005EE0030A1BE0010A02E0000E5AD00F010D
:10186000340E006F120E016FDE68DD68000EE66E4A
:101870000F0EE66ED9CFE6FFDACFE6FFB6EC20F02A
:10188000E552E552E552E552010E43D00F01340E08
:10189000006F120E016F040EDB68050EDB68000E90
:1018A000E66E0F0EE66ED950040FE66E000EDA20DB
:1018B000E66EB6EC20F0E552E552E552E552D9501D
:1018C000030FE66E000EDA20E66EE66AFD0EDBCF51
:1018D000E6FFD950F90FE96EFF0EDA20EA6EEECF7F
:1018E000E6FFEECFE6FFEECFE6FFEFCFE6FF7CECC4
:1018F00010F0106E080EE15E1050E76E020EE7CF9A
:10190000DBFFDBCFE6FF4ED9E552010E02D0000E21
:1019100000D0106E060EE15C02E2E16AE552E16E73
:101920001050E552E7CFD9FF1200D9CFE6FFE1CF43
:10193000D9FF0C0EE12643C2DFFFDE52030EDD6E3F
:10194000020EDB6AFD0EDB0402E1FF0E1BD1E4ECAC
:101950002DF0030E04C0DBFF040E05C0DBFF050EF7
:1019600006C0DBFF060E07C0DBFFD950030FE96E90
:10197000DACFEAFF240EEE5EF40EEE5A000EEE5AB7
:10198000EE5A0201436B0F010F890F010FA9F6D028
:10199000E4EC2DF0070E04C0DBFF080E05C0DBFFF2
:1019A000090E06C0DBFF0A0E07C0DBFF070EDBCF08
:1019B00014F0080EDBCF15F0090EDBCF16F00A0E7F
:1019C000DBCF17F0D950030FE96EDACFEAFFEE5004
:1019D000145C106EEE501558116EEE501658126EC3
:1019E000EE501758136ED880240E1054F40E115474
:1019F000000E1254000E135401E3BBD0D950070F50
:101A0000E96EDACFEAFF030EEECFDBFF040EEECF76
:101A1000DBFF050EEECFDBFF060EEECFDBFF020E87
:101A2000DBCFF3FFDB06F350000801E2AED7010E77
:101A3000F36E020EF3CFDBFF010EDBCFF3FFDB060D
:101A4000F350000904E10F010F99FF0E9BD00F0125
:101A5000026B0251022BEA6AD80FE96E010EEA22EC
:101A6000810EEF6E0251022BEA6AD80FE96E010E69
:101A7000EA2242C2EFFF0251022BEA6AD80FE96E56
:101A8000010EEA2203CFEFFF0B0EDB6A010EF36EAD
:101A90000B0EDBCFF4FFF350F45C16E20B0EDB50C1
:101AA000EA6A180FE96E020EEA22EF50E66E025162
:101AB000022BEA6AD80FE96E010EEA22E552E750DE
:101AC000EF6E0B0EDB2AE2D7FE0EDB50FF0812E1B1
:101AD000E66A010EE66E000EE66EE66A00CFE6FFED
:101AE00001CFE6FF010EE66E78DC106E070EE15EB8
:101AF00010503FD0FE0EDB500F0DF3CFE9FFF4CFB7
:101B0000EAFF110EE9260F0EEA22EF50E66E4AD8E0
:101B1000E552E66A010EE66EFE0EDB500F0DF3CFC6
:101B2000E9FFF4CFEAFF110EE9260F0EEA22EE528A
:101B3000E9CF10F0EACF11F010C0E6FF11C0E6FFC8
:101B4000FE0EDB500F0DF3CFE9FFF4CFEAFF110ECD
:101B5000E9260F0EEA22090EE926000EEA22EECF50
:101B6000E6FFEFCFE6FFE66A38DC126E070EE15EB5
:101B7000125042D8000901E011D807D7DFCF43F255
:101B80000E5100D0106E0C0EE15C02E2E16AE552EB
:101B9000E16E1050E552E7CFD9FF12000F010F9709
:101BA000A8EF1BF0D9CFE6FFE1CFD9FFE66AFE0E22
:101BB000DBCFE6FF1DEC20F0E552E552000916E010
:101BC000FE0EDBCF42F2010EE66EE66A1CC2E6FFB5
:101BD0001DC2E6FF420EE66E020EE66E09EC2AF02A
:101BE000106E060EE15E1050010E02D0000E00D005
:101BF000E552E7CFD9FF12002AEC00F00F010F5198
:101C0000080B01E0010E00D01200D9CFE6FFE1CFB2
:101C1000D9FF020EE126FE0EDB500A0806E2DF6A5B
:101C2000080EDF5C02E2DF2AFBD70A0EF36EFE0E1F
:101C3000DBCFF4FFF350F45C23E2FE0EDB500A0D21
:101C4000F3CFE9FFF4CFEAFF740EE926010EEA2292
:101C5000080EE926000EEA22EF50800B10E0DF6A42
:101C6000080EDF5C06E2080EDF5C01E200D0DF2A2E
:101C7000F7D7DF6A010EDF5C02E2DF2AFBD738D03C
:101C8000DF6A0A0EDF5C34E2DF500A0DF3CFE9FFB2
:101C9000F4CFEAFF740EE926010EEA22080EE926C7
:101CA000000EEA22EF50800B21E0010EDB6A080EE5
:101CB000F36E010EDBCFF4FFF350F45C0CE2080E80
:101CC000F36E010EDBCFF4FFF350F45C01E200D0C1
:101CD000010EDB2AECD7010EDB6AF36EDBCFF4FFDB
:101CE000F350F45C03E2010EDB2AF7D7DF2AC9D7F1
:101CF000020EE15C02E2E16AE552E16EE552E7CFF5
:101D0000D9FF1200D9CFE6FFE1CFD9FF030EE126BC
:101D1000010EDB6A020EDB68030E0F010B5D02E2AF
:101D2000020EDED0DF6A0A0EDF5C3FE2DF500A0DF2
:101D3000F3CFE9FFF4CFEAFF740EE926010EEA22A1
:101D4000080EE926000EEA22EF50800B25E0DF5056
:101D50000A0DF3CFE9FFF4CFEAFF740EE926010E76
:101D6000EA22E9CF10F0EACF11F010C0E6FF11C06F
:101D7000E6FF07CFE6FF08CFE6FF30DDE552E5528C
:101D8000E552E552000907E0020EDFCFDBFFDE522D
:101D9000010EDD6E0AD007D0020EDB50FF0803E112
:101DA000020EDFCFDBFFDF2ABED7020EDB50FF08BB
:101DB00003E1F10E95D091D0010E0201435D03E3E2
:101DC000010EDB508DD0DF6A080EDF5C24E2DF50AD
:101DD0000F01EA6A0725E96E0851EA22EF50E66E24
:101DE000020EDB500A0DF3CFE9FFF4CFEAFF740EC9
:101DF000E926010EEA22E9CF10F0EACF11F0DF5018
:101E00000F011024E96E000E1120EA6EE552E75032
:101E1000EF6EDF2AD9D7020EDB500A0DF3CFE9FFB0
:101E2000F4CFEAFF740EE926010EEA22080EE92635
:101E3000000EEA22EF8E020E0F01EA6A0925E96E12
:101E40000A51EA22EF50010B106E020EDB500A0D10
:101E5000F3CFE9FFF4CFEAFF740EE926010EEA2280
:101E6000080EE926000EEA221050010BF36EFE0E5A
:101E7000EF14F310EF6EDF6A010EDF5C29E2030E50
:101E8000DF240F01EA6A0925E96E0A51EA22EF50C0
:101E9000E66E020EDB500A0DF3CFE9FFF4CFEAFF46
:101EA000740EE926010EEA22090EE926000EEA2246
:101EB000E9CF10F0EACF11F0DF500F011024E96EE6
:101EC000000E1120EA6EE552E750EF6EDF2AD4D7FC
:101ED000020EDBCF0EFF0F010F99010EDB5000D079
:101EE000106E030EE15C02E2E16AE552E16E105011
:101EF000E552E7CFD9FF1200D9CFE6FFE1CFD9FFF6
:101F0000100EE126010EF36EF3CFDBFF020EDB6A4B
:101F1000030EDB6A040EDB6A050E42C2DBFFDF6ADA
:101F2000040EDF5C0DE2DF500F0DF3CFE9FFF4CFBD
:101F3000EAFF110EE9260F0EEA22EF68DF2AF0D73A
:101F40000F01106BDF6A200EDF5C01E3C1D0106A65
:101F5000F80E116E1268070E136ED950FA0FE96E63
:101F6000FF0EDA20EA6EEE501016EE501116EE500B
:101F70001216EE501316010EDBCF14F0020EDBCF5B
:101F800015F0030EDBCF16F0040EDBCF17F0DF5099
:101F90001F0B07E0D8901436153616361736E806AC
:101FA000F9E114501016155011161650121617504C
:101FB0001316105011101210131001E187D0DFCF4B
:101FC000E6FFF0DDE5520F01026B0251022BEA6AD7
:101FD000D80FE96E010EEA22870EEF6E0251022B36
:101FE000EA6AD80FE96E010EEA2242C2EFFF0E0E36
:101FF000DB680F0EDB68E66A010EE66E000EE66E29
:10200000E66A0E0EDBCFE6FF0F0EDBCFE6FF010E1A
:10201000E66EEDEC09F0106E070EE15E1050E4EC98
:102020002DF0060E04C0DBFF070E05C0DBFF080E17
:1020300006C0DBFF090E07C0DBFFDEDD000901E0A3
:10204000ADDDE4EC2DF00A0E04C0DBFF0B0E05C085
:10205000DBFF0C0E06C0DBFF0D0E07C0DBFF0A0E18
:10206000DBCF14F00B0EDBCF15F00C0EDBCF16F030
:102070000D0EDBCF17F0D950060FE96EDACFEAFF6D
:10208000EE50145C106EEE501558116EEE5016584E
:10209000126EEE501758136EFE0EDB50040DF3CF88
:1020A000F6FFF4CFF7FF720EF6265F0EF722105000
:1020B0000900F55C11500900F55812500900F55857
:1020C00013500900F55801E201D0B7D7DF2A3BD7FA
:1020D000050EDBCFE6FF66DDE5520F011051106EF5
:1020E000100EE15C03E200D0E16AE552E16E1050AF
:1020F000E552E7CFD9FF1200D9CFE6FFE1CFD9FFF4
:10210000130EE126020EDB68010EF36E030EF3CF11
:10211000DBFF040EDB6A050EDB6A060EDB6AF90ED6
:10212000DB5002E0FF0EEFD0DF6A200EDF5C01E340
:10213000E7D0106AF80E116E1268070E136ED950B0
:10214000FB0FE96EFF0EDA20EA6EEE501016EE502D
:102150001116EE501216EE501316030EDBCF14F0CC
:10216000040EDBCF15F0050EDBCF16F0060EDBCF2D
:1021700017F0DF501F0B07E0D890143615361636CF
:102180001736E806F9E114501016155011161650BE
:10219000121617501316105011101210131001E1DF
:1021A000ADD0100EDB6ADFCFE6FFFCDCE552E4ECDD
:1021B0002DF0070E04C0DBFF080E05C0DBFF090E83
:1021C00006C0DBFF0A0E07C0DBFF010EE66EC6ECA1
:1021D0001EF0E552E76E0F0EE7CFDBFFDBCF10F00E
:1021E000100EDB50D880105406E20F0EDB50E76E65
:1021F000100EE7CFDBFFE4EC2DF00B0E04C0DBFF8D
:102200000C0E05C0DBFF0D0E06C0DBFF0E0E07C077
:10221000DBFF0B0EDBCF14F00C0EDBCF15F00D0E39
:10222000DBCF16F00E0EDBCF17F0D950070FE96E9B
:10223000DACFEAFFEE50145C106EEE501558116EB6
:10224000EE501658126EEE501758136EFA0EDB5001
:10225000040DF3CFF6FFF4CFF7FF720EF6265F0EF4
:10226000F72210500900F55C11500900F558125082
:102270000900F55813500900F55801E201D0A5D71F
:10228000050E106E10C00CF0100EDBCF07F006EC40
:1022900030F0110E07C0DBFF120EDB6A110EDB50AF
:1022A000F36E120EDBCFF4FFF350F45C03E2120E78
:1022B000DB2AF4D7020EDB50F36E100EDBCFF4FFF7
:1022C000F350F45C1BE2100EDB50E76E020EE7CF1A
:1022D000DBFF010EDFCFDBFFD950F70FE96EFF0EFA
:1022E000DA20EA6EEE50ED1009E0F70EDBCFE9FFE1
:1022F000F80EDBCFEAFF020EDBCFEFFFDF2A15D7A8
:10230000010EDB5000D0106E130EE15C02E2E16AB8
:10231000E552E16E1050E552E7CFD9FF1200D9CF58
:10232000E6FFE1CFD9FF090EE126DF6A030EDF5C8D
:1023300076E2E4EC2DF0010E04C0DBFF020E05C0D6
:10234000DBFF030E06C0DBFF040E07C0DBFFE4EC7F
:102350002DF0050E04C0DBFF060E05C0DBFF070EE7
:1023600006C0DBFF080E07C0DBFF050EDBCF14F055
:10237000060EDBCF15F0070EDBCF16F0080EDBCF15
:1023800017F0D950010FE96EDACFEAFFEE50145C76
:10239000106EEE501558116EEE501658126EEE502B
:1023A0001758136ED8803C0E1054780E1154000E3E
:1023B0001254000E135432E20F01026B0251022B31
:1023C000EA6AD80FE96E010EEA22840EEF6E02511E
:1023D000022BEA6AD80FE96E010EEA2242C2EFFF31
:1023E0000251022BEA6AD80FE96E010EEA22FE0EB4
:1023F000DBCFEFFFE66A010EE66E000EE66EE66AE0
:1024000000CFE6FF01CFE6FF010EE66EEDEC09F02E
:10241000106E070EE15E1050DF2A88D798D7FE0EA7
:10242000DBCFE6FFD2EC0DF0E552090EE15C02E2F3
:10243000E16AE552E16EE552E7CFD9FF1200D9CF4C
:10244000E6FFE1CFD9FF0F0EE126020E42C2DBFF0D
:10245000E4EC2DF0030E04C0DBFF040E05C0DBFF2F
:10246000050E06C0DBFF060E07C0DBFF0F010F8B5A
:10247000DF6A030EDF5C01E3E8D0010EF36E0B0EA2
:10248000F3CFDBFF0C0EDB6A0D0EDB6A0E0EDB6A90
:10249000010EDB6A0F010FABCFD0E4EC2DF0070E7D
:1024A00004C0DBFF080E05C0DBFF090E06C0DBFF22
:1024B0000A0E07C0DBFF070EDBCF14F0080EDBCFE0
:1024C00015F0090EDBCF16F00A0EDBCF17F0D9504E
:1024D000030FE96EDACFEAFFEE50145C106EEE5097
:1024E0001558116EEE501658126EEE501758136EA6
:1024F000D8803C0E1054780E1154000E1254000E69
:10250000135401E392D0D950070FE96EDACFEAFFF6
:10251000030EEECFDBFF040EEECFDBFF050EEECF9A
:10252000DBFF060EEECFDBFF010EDB501F0801E2E2
:1025300083D0106AF80E116E1268070E136ED95010
:10254000FA0FE96EFF0EDA20EA6EEE501016EE502A
:102550001116EE501216EE5013160B0EDBCF14F0C0
:102560000C0EDBCF15F00D0EDBCF16F00E0EDBCF11
:1025700017F0010EDB501F0B07E0D890143615360C
:1025800016361736E806F9E11450101615501116D4
:102590001650121617501316105011101210131057
:1025A00007E1010EDB2ADB501F0801E24AD0C1D748
:1025B000010EDBCFE6FFD2EC0DF0E552010EDB2A77
:1025C0000F01026B0251022BEA6AD80FE96E010E6D
:1025D000EA22870EEF6E0251022BEA6AD80FE96EEB
:1025E000010EEA2242C2EFFFE66A010EE66EFE0E1F
:1025F000DB500A0DF3CFE9FFF4CFEAFF740EE926B2
:10260000010EEA22E9CF10F0EACF11F010C0E6FF88
:1026100011C0E6FF00CFE6FF01CFE6FFE66AEDEC72
:1026200009F0126E070EE15E1250FCEC0DF000098D
:1026300002E0CEEC0DF02ED70F010FBB02D0010E41
:102640000ED028EC00F0DF2A14D7020EDBCFE6FF15
:10265000D2EC0DF0E5520F010F9B000E00D0106E72
:102660000F0EE15C02E2E16AE552E16E1050E552C4
:10267000E7CFD9FF1200D9CFE6FFE1CFD9FF040E93
:10268000E126010E42C2DBFF020E43C2DBFF030E56
:10269000E66E71D9E552D9CFE6FFDACFE6FFE66AFA
:1026A0000A0EE66ED950FB0FE96EFF0EDA20EA6ED5
:1026B000EECFE6FFEECFE6FFEECFE6FFEFCFE6FF91
:1026C0001BDD106E080EE15E1050E76E030EE7CFC3
:1026D000DBFF020EDBCFE6FF4ED9E552010EDBCF6A
:1026E000E6FFD2EC0DF0E552010EDB50F36E030E67
:1026F000DB50F35C02E1000E07D0030EDBCFE6FFF8
:102700000EDEE552010E00D0106E040EE15C02E216
:10271000E16AE552E16E1050E552E7CFD9FF1200B1
:10272000D9CFE6FFE1CFD9FF050EE126FE0EDB5043
:10273000FF0801E08CD0DF6A0A0EDF5C01E386D07F
:10274000DF500A0DF3CFE9FFF4CFEAFF740EE9265C
:10275000010EEA22080EE926000EEA22EF50800B55
:1027600040E00F01026B0251022BEA6AD80FE96EBA
:10277000010EEA22820EEF6EE66A010EE66EDF506F
:102780000A0DF3CFE9FFF4CFEAFF740EE926010E3C
:10279000EA22E9CF10F0EACF11F010C0E6FF11C035
:1027A000E6FF00CFE6FF01CFE6FFE66AEDEC09F0B9
:1027B000126E070EE15E1250010EDB6A020EDB6A3A
:1027C000010EDBCF10F0020EDBCF11F0FF0E105C1C
:1027D0000F0E115806E2010EDB2A020E01E3DB2A7E
:1027E000EFD7DF500A0DF3CFE9FFF4CFEAFF740E05
:1027F000E926010EEA22080EE926000EEA22EF6A17
:102800000A0EE66EE66ADF500A0D02012051F3243B
:10281000106E2151F420116E10C0E6FF11C0E6FFCA
:10282000DF500A0DF3CF12F0F4CF13F0740E12261E
:10283000010E132212C0E6FF13C0E6FF09EC2AF0D6
:10284000146E060EE15E1450DF2A76D78AD0FE0E93
:10285000DB500A0DF3CFE9FFF4CFEAFF740EE9264F
:10286000010EEA22080EE926000EEA22EF50800B44
:1028700001E177D00F01026B0251022BEA6AD80FF7
:10288000E96E010EEA22820EEF6EE66A010EE66E36
:10289000FE0EDB500A0DF3CFE9FFF4CFEAFF740E12
:1028A000E926010EEA22E9CF10F0EACF11F010C0BC
:1028B000E6FF11C0E6FF00CFE6FF01CFE6FFE66AC4
:1028C000EDEC09F0126E070EE15E1250030EDB6AAA
:1028D000040EDB6A030EDBCF10F0040EDBCF11F029
:1028E000FF0E105C0F0E115806E2030EDB2A040ED9
:1028F00001E3DB2AEFD7FE0EDB500A0DF3CFE9FF31
:10290000F4CFEAFF740EE926010EEA22080EE9264A
:10291000000EEA22EF6A0A0EE66EE66AFE0EDB5051
:102920000A0D02012051F324106E2151F420116E82
:1029300010C0E6FF11C0E6FFFE0EDB500A0DF3CF1C
:1029400012F0F4CF13F0740E1226010E132212C0EF
:10295000E6FF13C0E6FF09EC2AF0146E060EE15EF6
:102960001450050EE15C02E2E16AE552E16EE552C7
:10297000E7CFD9FF1200D9CFE6FFE1CFD9FFFE0E96
:10298000DB50030801E21DD0FE0EDBCF43F2020153
:102990004339F00B106E0F0E0F0103151010036F6B
:1029A000010EE66EE66A1EC2E6FF1FC2E6FF430E98
:1029B000E66E020EE66E09EC2AF0106E060EE15E7F
:0A29C0001050E552E7CFD9FF1200D6
:0629CA00D9CFE6FFE1CFCA
:1029D000D9FFE652F250100B01E0010EDF6EF298C3
:1029E0008B90FD0EDBCF10F0FE0EDBCF11F0030E4F
:1029F000D89011321032E804FBE17F0E10148009E8
:102A0000E66E6EEC2DF0E552FD0EDBCF10F0FE0E03
:102A1000DBCF11F0050ED89010361136E804FBE13B
:102A2000E00E10141009E66E6EEC2DF0E552FC0E6F
:102A3000DBCFE6FF6EEC2DF0E5528B80DF50E8B087
:102A4000F288E8A0F298E552E552E7CFD9FF1200EC
:102A5000D9CFE6FFE1CFD9FFE652F250100B01E0EB
:102A6000010EDF6EF2988B90FE0EDBCFE6FF6EEC70
:102A70002DF0E552FD0EDBCFE6FF6EEC2DF0E552BA
:102A80008B80DF50E8B0F288E8A0F298E552E5527A
:102A9000E7CFD9FF1200D9CFE6FFE1CFD9FF020E71
:102AA000E126F250100B01E0010EE76E010EE7CFB8
:102AB000DBFFF2988B90FE0EDBCFE6FF6EEC2DF085
:102AC000E55295EC2DF0DF6E8B80010EDB50E8B007
:102AD000F288E8A0F298DF50106E020EE15C03E28B
:102AE00000D0E16AE552E16E1050E552E7CFD9FF20
:102AF0001200D9CFE6FFE1CFD9FF020EE126F25056
:102B0000100B01E0010EE76E010EE7CFDBFFF2983C
:102B10008B90FD0EDBCF10F0FE0EDBCF11F0030E1D
:102B2000D89011321032E804FBE17F0E1016000E2F
:102B30001116800E1010E66E6EEC2DF0E552FD0EB3
:102B4000DBCF10F0FE0EDBCF11F0050ED890103663
:102B50001136E804FBE1E00E1014E66E6EEC2DF089
:102B6000E55295EC2DF0DF6E8B80010EDB50E8B066
:102B7000F288E8A0F298DF50106E020EE15C03E2EA
:102B800000D0E16AE552E16E1050E552E7CFD9FF7F
:102B90001200D9CFE6FFE1CFD9FF030EE1268B94D7
:102BA000010EDB6A020EDB6A010EDBCF10F0020EB3
:102BB000DBCF11F02C0E105C010E115806E2010E55
:102BC000DB2A020E01E3DB2AEFD78B84010EDB6ADE
:102BD000020EDB6A010EDBCF10F0020EDBCF11F02C
:102BE0002C0E105C010E115806E2010EDB2A020EBB
:102BF00001E3DB2AEFD7070EE66E550EE66E28DFFF
:102C0000E552E552540EE66E46DFE552DF6E070EE2
:102C1000DF14F8E1010EDB6A020EDB6A010EDBCF86
:102C200010F0020EDBCF11F0E80E105C030E11580D
:102C300006E2010EDB2A020E01E3DB2AEFD7010ECA
:102C4000E66E1B0EE66E04DFE552E552E668070EFF
:102C5000E66EFEDEE552E552E668090EE66EF8DE47
:102C6000E552E552E668030EE66EF2DEE552E55205
:102C7000E668050EE66EECDEE552E552DF6A080E08
:102C8000DF5C12E2DF500201EA6A3125E96E32515F
:102C9000EA22EF50E66EDF50E8240B0FE66ED8DE36
:102CA000E552E552DF2AEBD7800EE66E020EE66EA5
:102CB000E66E8BDEE552E552E552E66A030EE66EFD
:102CC000020EE66E82DEE552E552E552900EE66EA9
:102CD000060EE66E020EE66E78DEE552E552E5522D
:102CE000800EE66E070EE66E020EE66E6EDEE552B2
:102CF000E552E552100EE66E080EE66E020EE66E26
:102D000064DEE552E552E552210EE66E200EE66ED7
:102D1000020EE66E5ADEE552E552E552800EE66E90
:102D2000750EE66E95DEE552E552400EE66E7D0EBE
:102D3000E66E8EDEE552E552600EE66E7F0EE66EC2
:102D400087DEE552E552980EE66E310EE66E80DEC5
:102D5000E552E552950EE66E5D0EE66E79DEE552C1
:102D6000E5520F0EE66E020EE66EC3DEE552E55248
:102D7000DF6EA00EDF14A008F4E1E60EE66E650E2D
:102D8000E66E66DEE552E552B90EE66E250EE66E9B
:102D90005FDEE552E552030EE66EE66A020EE66E6F
:102DA00014DEE552E552E552020EE66E010EE66EC5
:102DB000020EE66E0ADEE552E552E552E66A34C2DC
:102DC000E6FF1DEC20F0E552E552030EE15C02E265
:102DD000E16AE552E16EE552E7CFD9FF1200D9CFA3
:102DE000E6FFE1CFD9FF030EE12681A0F2820201C6
:102DF00039A11DD055C210F056C211F0126A136AE3
:102E0000D8901350000A08E6800E105C000E11588E
:102E1000000E1258000E135806E30201556B566B54
:102E20000201399104D00201552B000E56230201F4
:102E30005469DF6A020EDF5C12E2DF50450DF3CF0A
:102E4000E9FFF4CFEAFF600EE926000EEA22EF5018
:102E5000000803E2DFCF54F202D0DF2AEBD7020EE4
:102E60000201545D02E39AEF1BF0010EF36E020EB5
:102E7000F3CFDBFF5451450DF3CFE9FFF4CFEAFF69
:102E8000600EE926000EEA22EE52EF50400B02E1FE
:102E9000020EDB6A0F01516B596B02015451450D53
:102EA000F3CFE9FFF4CFEAFF600EE926000EEA2235
:102EB000EE52010EE926000EEA22EF50CC0BE76E2F
:102EC000010EE7CFDBFFDB50080A01E1B4D3840A2F
:102ED00001E1F2D2040A01E10AD2080A01E1A6D115
:102EE0004C0A01E1E6D0040A01E0A5D35451450D96
:102EF000F3CFE9FFF4CFEAFF600EE926000EEA22E5
:102F0000EE52050EE926000EEA22EF50FF0814E10A
:102F10005451450DF3CFE9FFF4CFEAFF600EE926E7
:102F2000000EEA22EE52060EE926000EEA22EF50CB
:102F3000FF0802E10F0151850F01518F020EDB5096
:102F40005CE002015451450DF3CFE9FFF4CFEAFFF5
:102F5000600EE926000EEA22EE52030EE926000E6C
:102F6000EA22EFCF5AFF5451450DF3CFE9FFF4CFDA
:102F7000EAFF600EE926000EEA22EE52040EE92670
:102F8000000EEA22EFCF5BFF5451450DF3CFE9FF6E
:102F9000F4CFEAFF600EE926000EEA22EE52E9CFF6
:102FA00052FFEACF53FF070E0F015227000E5323A3
:102FB00002015451450DF3CFE9FFF4CFEAFF600E53
:102FC000E926000EEA22EF50ED0F0F01566F0201C5
:102FD0005451450DF3CFE9FFF4CFEAFF600EE92627
:102FE000000EEA22EE52E9CF54FFEACF55FF0F0E52
:102FF0000F015427000E55235BD002015451450D9B
:10300000F3CFE9FFF4CFEAFF600EE926000EEA22D3
:10301000EE52070EE926000EEA22EFCF5AFF545176
:10302000450DF3CFE9FFF4CFEAFF600EE926000E6D
:10303000EA22EE52080EE926000EEA22EFCF5BFFED
:103040005451450DF3CFE9FFF4CFEAFF600EE926B6
:10305000000EEA22EE52E9CF52FFEACF53FF090EEB
:103060000F015227000E532302015451450DF3CF97
:10307000E9FFF4CFEAFF600EE926000EEA22EF50E6
:10308000EB0F0F01566F02015451450DF3CFE9FFCD
:10309000F4CFEAFF600EE926000EEA22EE52E9CFF5
:1030A00054FFEACF55FF110E0F015427000E552390
:1030B000C5D20F01518F020EDB505CE0020154516A
:1030C000450DF3CFE9FFF4CFEAFF600EE926000ECD
:1030D000EA22EE52030EE926000EEA22EFCF5AFF53
:1030E0005451450DF3CFE9FFF4CFEAFF600EE92616
:1030F000000EEA22EE52040EE926000EEA22EFCF7D
:103100005BFF5451450DF3CFE9FFF4CFEAFF600EAA
:10311000E926000EEA22EE52E9CF52FFEACF53FF32
:103120000D0E0F015227000E532302015451450D7D
:10313000F3CFE9FFF4CFEAFF600EE926000EEA22A2
:10314000EF50E70F0F01566F02015451450DF3CFB9
:10315000E9FFF4CFEAFF600EE926000EEA22EE5204
:10316000E9CF54FFEACF55FF150E0F015427000E8B
:1031700055235BD002015451450DF3CFE9FFF4CF45
:10318000EAFF600EE926000EEA22EE520D0EE92655
:10319000000EEA22EFCF5AFF5451450DF3CFE9FF5D
:1031A000F4CFEAFF600EE926000EEA22EE520E0E80
:1031B000E926000EEA22EFCF5BFF5451450DF3CF15
:1031C000E9FFF4CFEAFF600EE926000EEA22EE5294
:1031D000E9CF52FFEACF53FF0F0E0F015227000E27
:1031E000532302015451450DF3CFE9FFF4CFEAFF19
:1031F000600EE926000EEA22EF50E50F0F01566F30
:1032000002015451450DF3CFE9FFF4CFEAFF600E00
:10321000E926000EEA22EE52E9CF54FFEACF55FF2D
:10322000170E0F015427000E552308D20F015185A8
:10323000518F010E596F02015451450DF3CFE9FF33
:10324000F4CFEAFF600EE926000EEA22EE52030EEA
:10325000E926000EEA22EFCF5AFF5451450DF3CF75
:10326000E9FFF4CFEAFF600EE926000EEA22EE52F3
:10327000040EE926000EEA22EFCF5BFF5451450D04
:10328000F3CFE9FFF4CFEAFF600EE926000EEA2251
:10329000EE52E9CF52FFEACF53FF050E0F0152273E
:1032A000000E532302015451450DF3CFE9FFF4CF33
:1032B000EAFF600EE926000EEA22EF50F50F0F013B
:1032C000566F02015451450DF3CFE9FFF4CFEAFFE9
:1032D000600EE926000EEA22EE52E9CF54FFEACF53
:1032E00055FF070E0F015427000E5523A7D1545147
:1032F000450DF3CFE9FFF4CFEAFF600EE926000E9B
:10330000EA22EE52050EE926000EEA22EF50FF08EF
:1033100014E15451450DF3CFE9FFF4CFEAFF600EFD
:10332000E926000EEA22EE52060EE926000EEA22F7
:10333000EF50FF0802E10F0151850F01518F010E7F
:10334000596F020EDB505CE102015451450DF3CF81
:10335000E9FFF4CFEAFF600EE926000EEA22EE5202
:10336000070EE926000EEA22EFCF5AFF5451450D11
:10337000F3CFE9FFF4CFEAFF600EE926000EEA2260
:10338000EE52080EE926000EEA22EFCF5BFF545101
:10339000450DF3CFE9FFF4CFEAFF600EE926000EFA
:1033A000EA22EE52E9CF52FFEACF53FF090E0F0196
:1033B0005227000E532302015451450DF3CFE9FF6C
:1033C000F4CFEAFF600EE926000EEA22EF50F10F7B
:1033D0000F01566F02015451450DF3CFE9FFF4CFB1
:1033E000EAFF600EE926000EEA22EE52E9CF54FF12
:1033F000EACF55FF0B0E0F015427000E55235BD06B
:1034000002015451450DF3CFE9FFF4CFEAFF600EFE
:10341000E926000EEA22EE52030EE926000EEA2209
:10342000EFCF5AFF5451450DF3CFE9FFF4CFEAFF38
:10343000600EE926000EEA22EE52040EE926000E86
:10344000EA22EFCF5BFF5451450DF3CFE9FFF4CFF4
:10345000EAFF600EE926000EEA22EE52E9CF52FFA3
:10346000EACF53FF070E0F015227000E532302012C
:103470005451450DF3CFE9FFF4CFEAFF600EE92682
:10348000000EEA22EF50F30F0F01566F0201545164
:10349000450DF3CFE9FFF4CFEAFF600EE926000EF9
:1034A000EA22EE52E9CF54FFEACF55FF090E0F0191
:1034B0005427000E5523C2D00F01518F010E596FB2
:1034C000020EDB505CE002015451450DF3CFE9FFE1
:1034D000F4CFEAFF600EE926000EEA22EE52030E58
:1034E000E926000EEA22EFCF5AFF5451450DF3CFE3
:1034F000E9FFF4CFEAFF600EE926000EEA22EE5261
:10350000040EE926000EEA22EFCF5BFF5451450D71
:10351000F3CFE9FFF4CFEAFF600EE926000EEA22BE
:10352000EE52E9CF52FFEACF53FF0C0E0F015227A4
:10353000000E532302015451450DF3CFE9FFF4CFA0
:10354000EAFF600EE926000EEA22EF50ED0F0F01B0
:10355000566F02015451450DF3CFE9FFF4CFEAFF56
:10356000600EE926000EEA22EE52E9CF54FFEACFC0
:1035700055FF0F0E0F015427000E55235BD002019B
:103580005451450DF3CFE9FFF4CFEAFF600EE92671
:10359000000EEA22EE520C0EE926000EEA22EFCFD0
:1035A0005AFF5451450DF3CFE9FFF4CFEAFF600E07
:1035B000E926000EEA22EE520D0EE926000EEA225E
:1035C000EFCF5BFF5451450DF3CFE9FFF4CFEAFF96
:1035D000600EE926000EEA22EE52E9CF52FFEACF52
:1035E00053FF0E0E0F015227000E532302015451B8
:1035F000450DF3CFE9FFF4CFEAFF600EE926000E98
:10360000EA22EF50EB0F0F01566F02015451450DA6
:10361000F3CFE9FFF4CFEAFF600EE926000EEA22BD
:10362000EE52E9CF54FFEACF55FF110E0F01542798
:10363000000E552303D08CD8000E7ED002015451C9
:10364000450DF3CFE9FFF4CFEAFF600EE926000E47
:10365000EA22EE52EF50080B03E07AD8000E6CD04D
:103660005451450DF3CFE9FFF4CFEAFF600EE92690
:10367000000EEA22EE52EF50070B0FE0030A09E0BA
:10368000020A03E065D8000E57D00F015191519303
:1036900008D00F015181519304D00F015181518302
:1036A00000D002015451450DF3CFE9FFF4CFEAFFFA
:1036B000600EE926000EEA22EE52E9CF10F0EACFC2
:1036C00011F05451450DF3CFE9FFF4CFEAFF600E3E
:1036D000E926000EEA22EF50FE0F0F011024E96EDA
:1036E000000E1120EA6EEFCF58FF02015451450D34
:1036F000F3CFE9FFF4CFEAFF600EE926000EEA22DD
:10370000EE52E9CF10F0EACF11F05451450DF3CF4E
:10371000E9FFF4CFEAFF600EE926000EEA22EF048B
:103720000F011024E96E000E1120EA6EEFCF57FF53
:10373000010E02D0000E00D0106E030EE15C02E21A
:10374000E16AE552E16E1050E552E7CFD9FF120071
:10375000020E0201545D0BE25451450DF3CFE9FF17
:10376000F4CFEAFF600EE926000EEA22EF6A1200AB
:10377000D9CFE6FFE1CFD9FF0C0EE126010EDB6ABF
:10378000020EDB6AD950F80FE96EFF0EDA20EA6EFE
:10379000EF50040B05E0010EF36EFB0EF3CFDBFFE1
:1037A000D950F80FE96EFF0EDA20EA6EEF50080BE1
:1037B00002E0FC0EDB6AD950F80FE96EFF0EDA204A
:1037C000EA6EEF50030B010806E1030EF36E020EE2
:1037D000F3CFDBFF0FD0D950F80FE96EFF0EDA20E0
:1037E000EA6EEF50030B000905E1010EF36E020EC5
:1037F000F3CFDBFFFD0EDBCF10F0FE0EDBCF11F0C1
:1038000002013551101802E1365111180EE1351D33
:1038100001E1361D0AE0050EDF6E020EDB8C010EA3
:10382000F36E030EF3CFDBFF04D0070EDF6E030E43
:10383000DB6AFB0EDB5003E0020EDF2602D0080E2F
:10384000DF26FC0EDB5003E0020EDF2602D0080E5E
:10385000DF26D950F80FE96EFF0EDA20EA6EEF503E
:10386000200B0BE0D950F80FE96EFF0EDA20EA6E5C
:10387000EF50040B02E1020EDB8AD950F80FE96E1B
:10388000FF0EDA20EA6EEF50030B03080DE1020E83
:10389000DB6A070EDF6E030EDB6A010EF36EFC0EB1
:1038A000F3CFDBFFF80EDB9ADFCFE6FF010EDBCFB5
:1038B000F3FFDB2AF350E66EE66AE5EC14F0E5521E
:1038C000E552E552F50EDB50DF24E66E010EDBCF4C
:1038D000F3FFDB2AF350E66EE66AE5EC14F0E552FE
:1038E000E552E552020EDBCFE6FF010EDBCFF3FF20
:1038F000DB2AF350E66EE66AE5EC14F0E552E55299
:10390000E552D950F80FE96EFF0EDA20EA6EEF505B
:10391000030B03081FE1800EE66E010EDBCFF3FF01
:10392000DB2AF350E66EE66AE5EC14F0E552E55268
:10393000E55202013351332BE66E010EDBCFF3FF6C
:10394000DB2AF350E66EE66AE5EC14F0E552E55248
:10395000E552F9D0FB0EDB5012E0FC0EDB500FE01D
:10396000880EE66E010EDBCFF3FFDB2AF350E66E26
:10397000E66AE5EC14F0E552E552E55238D0FB0E6C
:10398000DB5012E0FC0EDB500FE1C80EE66E010EBC
:10399000DBCFF3FFDB2AF350E66EE66AE5EC14F0CA
:1039A000E552E552E55223D0FB0EDB5012E1FC0E4E
:1039B000DB040FE18C0EE66E010EDBCFF3FFDB2A9A
:1039C000F350E66EE66AE5EC14F0E552E552E55296
:1039D0000ED0CC0EE66E010EDBCFF3FFDB2AF350E8
:1039E000E66EE66AE5EC14F0E552E552E5520201B6
:1039F0003351332BE66E010EDBCFF3FFDB2AF3509E
:103A0000E66EE66AE5EC14F0E552E552E552FD0E8D
:103A1000DBCFE6FF010EDBCFF3FFDB2AF350E66ED0
:103A2000E66AE5EC14F0E552E552E552FE0EDBCF16
:103A3000E6FF010EDBCFF3FFDB2AF350E66EE66A0A
:103A4000E5EC14F0E552E552E552D950F80FE96E75
:103A5000FF0EDA20EA6EEF50040B1BE0E668010E61
:103A6000DBCFF3FFDB2AF350E66EE66AE5EC14F0F9
:103A7000E552E552E552E668010EDBCFF3FFDB2AA3
:103A8000F350E66EE66AE5EC14F0E552E552E552D5
:103A90005AD0FB0EDB502FE0F90EDBCFE9FFFA0E18
:103AA000DBCFEAFFEF50E66E010EDBCFF3FFDB2A40
:103AB000F350E66EE66AE5EC14F0E552E552E552A5
:103AC000010EE76EF90EDBCFE9FFFA0EDBCFEAFF5E
:103AD000E750E926000EEA22EF50E66E010EDBCF3A
:103AE000F3FFDB2AF350E66EE66AE5EC14F0E552EC
:103AF000E552E55228D0020EDB6A080EF36E020E84
:103B0000DBCFF4FFF350F45C1EE2020EDB50E76EF5
:103B1000F90EDBCFE9FFFA0EDBCFEAFFE750E9262B
:103B2000000EEA22EF50E66E010EDBCFF3FFDB2A38
:103B3000F350E66EE66AE5EC14F0E552E552E55224
:103B4000020EDB2ADAD7030EDB501CE135C2E6FF9A
:103B5000010EDBCFF3FFDB2AF350E66EE66AE5ECFD
:103B600014F0E552E552E55236C2E6FF010EDBCF16
:103B7000F3FFDB2AF350E66EE66AE5EC14F0E5525B
:103B8000E552E552FC0EDB501DE037C2E6FF010EA8
:103B9000DBCFF3FFDB2AF350E66EE66AE5EC14F0C8
:103BA000E552E552E55238C2E6FF010EDBCFF3FFE6
:103BB000DB2AF350E66EE66AE5EC14F0E552E552D6
:103BC000E55223D0020EDB6A080EF36E020EDBCF45
:103BD000F4FFF350F45C19E2020EDB500201EA6AD2
:103BE0003125E96E3251EA22EF50E66E010EDBCF4D
:103BF000F3FFDB2AF350E66EE66AE5EC14F0E552DB
:103C0000E552E552020EDB2ADFD7020EDB6AF50E23
:103C1000DB50F36E020EDBCFF4FFF350F45C1EE2D8
:103C2000020EDB50E76EF60EDBCFE9FFF70EDBCFBF
:103C3000EAFFE750E926000EEA22EF50E66E010E99
:103C4000DBCFF3FFDB2AF350E66EE66AE5EC14F017
:103C5000E552E552E552020EDB2AD9D7020139813D
:103C6000D950F80FE96EFF0EDA20EA6EEF50200B04
:103C700010E0D950F80FE96EFF0EDA20EA6EEF502F
:103C8000040B07E1050EF36E020EF3CFDBFF398361
:103C900006D0010EF36E020EF3CFDBFF3993DBCFBC
:103CA000E6FF370EE66E28EC15F0E552E552E4EC3F
:103CB0002DF0040E04C0DBFF050E05C0DBFF060E71
:103CC00006C0DBFF070E07C0DBFF81A0F282020106
:103CD00039B107D039A503D03995000E4BD0010E6C
:103CE00049D0E4EC2DF0080E04C0DBFF090E05C03E
:103CF000DBFF0A0E06C0DBFF0B0E07C0DBFF080E62
:103D0000DBCF14F0090EDBCF15F00A0EDBCF16F077
:103D10000B0EDBCF17F0D950040FE96EDACFEAFFB4
:103D2000EE50145C106EEE501558116EEE50165891
:103D3000126EEE501758136ED880C40E1054090E30
:103D40001154000E1254000E135413E2C9EC15F076
:103D5000350EE66E020EE66E370EE66E020EE66E6B
:103D600005DAE552E552E552E55202013991000EBD
:103D700001D0ABD7106E0C0EE15C02E2E16AE552B5
:103D8000E16E1050E552E7CFD9FF1200D9CFE6FF20
:103D9000E1CFD9FFE652800EE66E7D0EE66E28EC8E
:103DA00015F0E552E5527C0EE66E4BEC15F0E5524F
:103DB000DF6E010EDF14010807E07C0EE66E4BECAF
:103DC00015F0E552DF6EF5D7100EE66E020EE66EC8
:103DD00079EC15F0E552E552DF6E400EE66E7D0E91
:103DE000E66E28EC15F0E552E552DF5000D0E552C2
:103DF000E552E7CFD9FF1200D9CFE6FFE1CFD9FFD7
:103E0000090EE126FE0EDB50FF0A26E0FF0A02E063
:103E1000000E07D18B92040EE66E550EE66E28EC6E
:103E200015F0E552E552800EE66E450EE66E28EC82
:103E300015F0E552E552600EE66E1B0EE66E28ECBC
:103E400015F0E552E552800EE66E6B0EE66E28EC3C
:103E500015F0E552E552E3D08B82E4EC2DF0010E33
:103E600004C0DBFF020E05C0DBFF030E06C0DBFF54
:103E7000040E07C0DBFFE4EC2DF0050E04C0DBFFF1
:103E8000060E05C0DBFF070E06C0DBFF080E07C0ED
:103E9000DBFF050EDBCF14F0060EDBCF15F0070EAF
:103EA000DBCF16F0080EDBCF17F0D950010FE96E0B
:103EB000DACFEAFFEE50145C106EEE501558116E1A
:103EC000EE501658126EEE501758136E050E10C0B5
:103ED000DBFF060E11C0DBFF070E12C0DBFF080E72
:103EE00013C0DBFFD950050FE96EDACFEAFFD880A7
:103EF0006A0EEE54180EEE54000EEE54000EEE5400
:103F000010E2C9EC15F0350EE66E020EE66E370EC5
:103F1000E66E020EE66E2AD9E552E552E552E5520A
:103F200009D0620EE66E4BEC15F0E552DF6EDFBC99
:103F300001D0A1D7E4EC2DF0050E04C0DBFF060E86
:103F400005C0DBFF070E06C0DBFF080E07C0DBFF66
:103F5000050EDBCF14F0060EDBCF15F0070EDBCF1E
:103F600016F0080EDBCF17F0D950010FE96EDACF4B
:103F7000EAFFEE50145C106EEE501558116EEE50C4
:103F80001658126EEE501758136E050E10C0DBFF58
:103F9000060E11C0DBFF070E12C0DBFF080E13C0B8
:103FA000DBFFD950050FE96EDACFEAFFD8806A0E41
:103FB000EE54180EEE54000EEE54000EEE5410E2C5
:103FC000C9EC15F0350EE66E020EE66E370EE66EA3
:103FD000020EE66ECBD8E552E552E552E5520FD01F
:103FE0000F0EE66E020EE66E79EC15F0E552E55224
:103FF000DF6EE00EDF14A00801E101D09BD7040EB4
:10400000E66E6D0EE66E28EC15F0E552E552E66AB6
:104010006D0EE66E28EC15F0E552E55200D0010E6B
:1040200000D0106E090EE15C02E2E16AE552E16E39
:104030001050E552E7CFD9FF1200D9CFE6FFE1CF0C
:10404000D9FF0B0EF36EFE0EDBCFF4FFF350F45CE2
:1040500004E3FE0EDB501A0802E2000E22D0FE0E30
:10406000DBCF34F2DB50F50F100DF3500309E66E91
:10407000E66A020EE66EE5EC14F0E552E552E55212
:10408000040EE66E6D0EE66E28EC15F0E552E55274
:10409000E66A6D0EE66E28EC15F0E552E552010E6B
:1040A00000D0E552E7CFD9FF1200D9CFE6FFE1CF2C
:1040B000D9FF020EE1260A0E106E10C00CF0FE0EA3
:1040C000DBCF07F006EC30F0010E03C0DBFF0A0E79
:1040D000106E10C00CF0FE0EDBCF07F006EC30F0D7
:1040E0000750400DF350DF6E010EDB50050803E270
:1040F000380EDF2622D0010EDB50040803E2300E1A
:10410000DF261BD0010EDB50030803E2280EDF265A
:1041100014D0010EDB50020803E2200EDF260DD082
:10412000010EDB50010803E2180EDF2606D0010E57
:10413000DB50000802E2100EDF26DFCFE6FF030EA1
:10414000E66E020EE66EE5EC14F0E552E552E5523D
:10415000010E106E020EE15C03E200D0E16AE5524E
:10416000E16E1050E552E7CFD9FF1200D9CFE6FF3C
:10417000E1CFD9FFFD0EDBCFE9FFFE0EDBCFEAFF7B
:10418000EFCF37F2010EE76EFD0EDBCFE9FFFE0E3B
:10419000DBCFEAFFE750E926000EEA22EFCF38F244
:1041A000FB0EDBCFE9FFFC0EDBCFEAFFEFCF35F2F2
:1041B000010EE76EFB0EDBCFE9FFFC0EDBCFEAFF63
:1041C000E750E926000EEA22EFCF36F237C2E6FFCB
:1041D000070EE66E28EC15F0E552E55238C2E6FF10
:1041E000090EE66E28EC15F0E552E55235C2E6FF01
:1041F000030EE66E28EC15F0E552E55236C2E6FFF6
:10420000050EE66E28EC15F0E552E552010E00D0E1
:10421000E552E7CFD9FF1200D9CFE6FFE1CFD9FFB2
:10422000E652FC0EDBCF30F2FD0EDBCF31F2FE0E9C
:10423000DBCF32F2D6CF33F202010B0E346FC9EC72
:1042400015F00201396BDF6A020EDF5C0DE2DF5010
:10425000450DF3CFE9FFF4CFEAFF600EE926000E2B
:10426000EA22EF6ADF2AF0D7010E00D0E552E552CC
:10427000E7CFD9FF1200D8CFE4FFE0CFE4FFE46E30
:10428000DACFE4FFE2CFDAFFE9CFE4FFEACFE4FFE1
:10429000F6CFE4FFF7CFE4FFF5CFE4FFF3CFE4FF81
:1042A000F4CFE4FFFACFE4FF00EE00F0100EE804D4
:1042B00003E3EECFE4FFFBD700EE10F0080EE804B6
:1042C00003E3EECFE4FFFBD7E652D9CFE6FFE1CF21
:1042D000D9FF060EE126F250100B01E1FCD0F2509E
:1042E000020B01E1F8D0F292620EE66E4BEC15F093
:1042F000E552E76E020EE7CFDBFFD950020FE96E01
:10430000DACFEAFFEF50010B1DE002013991020103
:10431000556B566B020139A315D0480EE66E4BEC77
:1043200015F0E552E76E040EE7CFDBFFD950040F1E
:10433000E96EDACFEAFFEF50010B02E002013985A6
:1043400002013993D950020FE96EDACFEAFFEF503C
:10435000080B01E1B0D0050EDB68DF6A020EDF5CFE
:1043600012E2DF50450DF3CFE9FFF4CFEAFF600E14
:10437000E926000EEA22EF5004E1050EDFCFDBFF55
:1043800002D0DF2AEBD7020EF36E050EDBCFF4FF6F
:10439000F350F45C01E387D0040EE66E730EE66E14
:1043A00028EC15F0E552E552E66A030EE66E79EC6C
:1043B00015F0E552E552020FE66E050EDB50450D95
:1043C000F3CFE9FFF4CFEAFF600EE926000EEA2200
:1043D000E552E750EF6E050EDB50450DF3CFE9FFD8
:1043E000F4CFEAFF600EE926000EEA22EFCF18F0C4
:1043F000440E185C48E20201398B010EDF6E050E97
:10440000DB50450DF3CFE9FFF4CFEAFF600EE9265C
:10441000000EEA22EF50020FD880DF542BE3DF506A
:104420001B6A000F1A6E030E1B221AC0E6FF1BC088
:10443000E6FF79EC15F0E552E552E66E050EDB502D
:10444000450DF3CFE9FFF4CFEAFF600EE926000E39
:10445000EA22EE52E9CF18F0EACF19F0DF040F019B
:104460001824E96E000E1920EA6EE552E750EF6E4F
:10447000DF2AC5D7010EE66E1B0EE66E28EC15F09E
:10448000E552E55208D0010EE66E1B0EE66E28ECF2
:1044900015F0E552E552E66A730EE66E28EC15F06B
:1044A000E552E55208D0010EE66E1B0EE66E28ECD2
:1044B00015F0E552E552D950020FE96EDACFEAFF66
:1044C000EF50100B08E0800EE66E590EE66E28ECF9
:1044D00015F0E552E552F2A409D0F2AA07D0F29401
:1044E0000201572B575102E10201582B8CEC28F0A6
:1044F000060EE15C03E200D0E16AE552E16EE552AE
:10450000E7CFD9FFE55200EE17F0080EE80403E309
:10451000E5CFEDFFFBD700EE0FF0100EE80403E34C
:10452000E5CFEDFFFBD7E5CFFAFFE5CFF4FFE5CF11
:10453000F3FFE5CFF5FFE5CFF7FFE5CFF6FFE5CFDA
:10454000EAFFE5CFE9FFE5CFDAFFE550E5CFE0FF91
:06455000E5CFD8FF1000CA
:0A455600010EE66EE66AE20EE66E64
:104560005E0EE66EFCEC27F0E552E552E552E552B0
:104570001200D9CFE6FFE1CFD9FFFD0EDB5010E1ED
:10458000010EE66EFE0EDBCFE6FFC20EE66E5E0E9D
:10459000E66EFCEC27F0E552E552E552E5520FD00D
:1045A000010EE66EFE0EDBCFE6FFA30EE66E5E0E9C
:1045B000E66EFCEC27F0E552E552E552E552E55295
:1045C000E7CFD9FF1200D9CFE6FFE1CFD9FF030E25
:1045D000E126020EDB68FE0EDB5000081FE2DF6AF8
:1045E000FE0EDB50DF5C1AE2010EDB6AF36EDBCFFE
:1045F000F4FFF350F45C03E2010EDB2AF7D7DF503F
:104600000F0DF3CFE9FFF4CFEAFF110EE9260F0EED
:10461000EA22020EEFCFDBFFDF2AE2D7020EDB50E9
:10462000106E030EE15C03E200D0E16AE552E16E38
:104630001050E552E7CFD9FF12001200010EE66ECE
:1046400042C2E6FFA30EE66E5E0EE66EFCEC27F0BD
:10465000E552E552E552E5521200E66AE66A860E38
:10466000E66E5E0EE66EFCEC27F0E552E552E55292
:10467000E5521200D9CFE6FFE1CFD9FF050EE126C2
:10468000DF6A080EE66EE66A07CFE6FF08CFE6FFB0
:10469000000EE66E020EE66E9BEC2EF0106E060E1D
:1046A000E15E1050000901E0EBD00F01026BDF501A
:1046B0000F01EA6A0925E96E0A51EA22EF500B0A56
:1046C00001E1CAD00E0A01E18AD0010A64E0070ABA
:1046D0004EE0010A12E0120A0DE01E0A07E0010A8C
:1046E00001E0BBD00201010E486FB7D00201010EFC
:1046F000496FB3D00201496BB0D00F010251022BB8
:10470000EA6AD80FE96E010EEA22020EEF6EE66A3F
:10471000E2EC2CF0E552FBEC25F02BEC26F02BEC38
:1047200026F0000901E0FBD77DEC26F0DE52F3CF46
:10473000DEFFF4CFDDFFDD52010EE66EE2EC2CF081
:10474000E5520F010251022BEA6AD80FE96E010E01
:10475000EA22020EDBCFEFFF0251022BEA6AD80FEA
:10476000E96E010EEA22010EDBCFEFFF76D00F01DA
:104770000251022BEA6AD80FE96E010EEA22030EFB
:10478000EF6E0251022BEA6AD80FE96E010EEA229F
:104790005CC2EFFF62D0030EDB6A30EC2DF0E76EF7
:1047A000030EE7CFDBFFDB5005E034EC2DF0020118
:1047B000506B516B0F010251022BEA6AD80FE96E60
:1047C000010EEA22040EEF6E0251022BEA6AD80FA4
:1047D000E96E010EEA22030EDBCFEFFF3ED0040E9E
:1047E000DB6A0F010251022BEA6AD80FE96E010E53
:1047F000EA22050EEF6E040EDBCF10F010C0E6FFCC
:10480000080EE66E020EE66EDEEC2EF0E552E55284
:10481000E552E7CF10F0F3CF11F0F4CF12F01150C2
:10482000105C000E125417E2040EDB50EA6A080F07
:10483000E96E020EEA22EF50E66E0F010251022BE2
:10484000EA6AD80FE96E010EEA22E552E750EF6EF0
:10485000040EDB2AD0D701D000D0010EE66E000E88
:10486000E66E020EE66E8DEC2BF0E552E552F3504B
:10487000E66E05EC0BF0E552E552000901E124D8A3
:10488000050EE15C02E2E16AE552E16EE552E7CF36
:10489000D9FF1200D9CFE6FFE1CFD9FFFD0EDBCF64
:1048A000E6FFFE0EDBCFE6FFF4EC27F0E552E55223
:1048B000E552E7CFD9FF1200D9CFE6FFE1CFD9FF0C
:1048C000E552E7CFD9FF1200010EE66EE66A760EDA
:1048D000E66E5E0EE66EFCEC27F0E552E552E55220
:0448E000E55212008B
:0C48E400D9CFE6FFE1CFD9FF0A0EE12694
:1048F000020EDB68030EDB6A040EDB6A050EDB6A60
:10490000060EDB6A070EDB6A080EDB6A090EDB6A3D
:104910006BEC27F0ABEC22F0010EE66E010EE66EBA
:104920006FEC2CF0E552E552020EE66E020EE66EDA
:104930006FEC2CF0E552E552CCEC2BF08150200BC3
:1049400012E1010EE66E5FEC06F0E55201080BE1A4
:1049500081AAFED7020EE66E010EE66E6FEC2CF019
:10496000E552E55241D0E66A5FEC06F0E552E668B2
:10497000E668E668E6680A0EE66E7CEC0FF0106EFC
:10498000050EE15E1050E76E010EE7CFDBFF010E72
:10499000DBCFE6FFE3EC22F0E552E76E020EE7CF55
:1049A000DBFF020EDB50FF080FE0020EDBCFE6FF5D
:1049B000D2EC0DF0E552020EE66E010EE66E6FECE3
:1049C0002CF0E552E55203D01DEC23F0D0D7E66A77
:1049D000BBEC14F0E552E66AE66A95EC0CF0E552A1
:1049E000E552DF6E1EEC23F0E66805EC0EF0E552B2
:1049F000FCEC0DF0000911E03AEC23F0CEEC0DF0E8
:104A0000080EDB2A080EDBCFE6FF070EDBCFE6FF42
:104A10004AEC24F0E552E552E3D0050EDB500308E2
:104A200015E2010EE66E8CEC07F0E552E668E668EA
:104A3000E668E668E66A1FEC12F0106E050EE15EAD
:104A40001050050EDB6A060EDB6A05D0010EF36E10
:104A5000060EF3CFDBFF060EDB5001E1C1D0060EE0
:104A6000DB6AE66A8CEC07F0E5527AEC28F003008A
:104A700088EC28F004EC28F0E76E090EE7CFDBFFA6
:104A8000020EE66E8CEC07F0E552000803E2050E1C
:104A9000DB2A10D0050EDB5000080AE2080EDBCF3F
:104AA000E6FF070EDBCFE6FF4AEC24F0E552E552C5
:104AB000050EDB6A090EDB50020A46E0030A01E03C
:104AC0008ED00F01026BDF6A150EDF5C2AE2060E44
:104AD000126E12C00CF0030EDBCF07F006EC30F0C4
:104AE0000350150DF3CF10F0F4CF11F0760E102611
:104AF0005C0E1122DF500F011024F66E000E112003
:104B0000F76E0800F550E66E0F010251022BEA6ABB
:104B1000D80FE96E010EEA22E552E750EF6EDF2A68
:104B2000D3D7030EDB2AE66AADEC0AF0E552080E95
:104B3000DBCFE6FF070EDB2A070EDBCFE6FF4AECF2
:104B400024F0E552E5524CD00F01026BDF6A0B0EE8
:104B5000DF5C2AE2060E126E12C00CF0040EDBCFF0
:104B600007F006EC30F003500B0DF3CF10F0F4CF4C
:104B700011F0F40E10265C0E1122DF500F011024EC
:104B8000F66E000E1120F76E0800F550E66E0F016C
:104B90000251022BEA6AD80FE96E010EEA22E552B1
:104BA000E750EF6EDF2AD3D7040EDB2A010EE66E44
:104BB000E66A05EC0BF0E552E552000903E164EC0E
:104BC00024F002D0070EDB2A080EDBCFE6FF070E2B
:104BD000DBCFE6FF4AEC24F0E552E55201D000D0ED
:104BE00007D70A0EE15C02E2E16AE552E16EE552A6
:064BF000E7CFD9FF12001F
:0A4BF600D9CFE6FFE1CFD9FFE65268
:104C0000DF6A92969294938289868984B9D880507B
:104C1000040B03E08050080B02E1FF0E17D0D0D840
:104C2000960EE66E1CD9E552DF12010EE66E17D91C
:104C3000E552DF12610EE66E12D9E552DF12C5D8D9
:104C4000DF5002E0FF0E01D0000E00D0E552E55229
:104C5000E7CFD9FF1200D9CFE6FFE1CFD9FF020E8F
:104C6000E126DF6AADD8960EE66EF9D8E552DF127E
:104C7000010EE66EF4D8E552DF12A7D8A1D8970E40
:104C8000E66EEDD8E552DF12010EE66EA5D8E552CC
:104C9000E76E010EE7CFDBFF98D8DF5005E1010E8C
:104CA000DB507F0B610802E0FF0E1BD0010EDBBE64
:104CB00018D086D8960EE66ED2D8E552DF12010ED5
:104CC000E66ECDD8E552DF12E10EE66EC8D8E552A9
:104CD000DF127BD8DF5003E0FF0E03D002D0000EBE
:104CE00000D0106E020EE15C02E2E16AE552E16E74
:104CF0001050E552E7CFD9FF1200D9CFE6FFE1CF40
:104D0000D9FF030EE126DF6A5BD8960EE66EA7D8C0
:104D1000E552DF12E66AA3D8E552DF1256D850D822
:104D2000970EE66E9CD8E552DF12E66A55D8E5523A
:104D3000E76E020EE7CFDBFF010EE66E4DD8E552BF
:104D4000E76E010EE7CFDBFF40D8DF5004E0F36AE7
:104D5000F46A0CD00BD0010EDBCF10F0020EDBCFCB
:104D600011F010C0F3FF11C0F4FF00D0030EE15C9E
:104D700002E2E16AE552E16EE552E7CFD9FF1200A7
:104D8000D9CFE6FFE1CFD9FF020EE126640EDE6E39
:104D9000DD6ADFCF10F0DF06010EDBCF11F001E29C
:104DA000DB061050111002E00000F3D7020EE15CA8
:104DB00002E2E16AE552E16EE552E7CFD9FF120067
:104DC0008996DEDF8994C0EF26F08996D9DF898441
:104DD000D7DF8986C0EF26F0D9CFE6FFE1CFD9FF34
:104DE000020EE126DF6A8986010EDB6ADBCF10F056
:104DF000080EE76E1018E8AE02D0E73402D0E75094
:104E0000105C13E2BDDF8984BBDF8050080B01E03A
:104E1000010E010BDF12010EDB50070802E0DF9EDE
:104E2000DF468994010EDB2AE1D7AADFFE0EDB50B4
:104E3000E8B08986E8A08996A3DF8984A1DF8994F8
:104E40009FDFDF50106E020EE15C03E200D0E16AEA
:104E5000E552E16E1050E552E7CFD9FF1200D9CFED
:104E6000E6FFE1CFD9FFE652DF6ADFCF10F0080E90
:104E7000E76E1018E8AE02D0E73402D0E750105CBD
:104E800018E2FE0EDB50800B02E0010E01D0000E96
:104E9000E8B08986E8A08996FE0EDBCFF3FFF39E8B
:104EA000F346F3CFDBFF6CDF89846ADF8994DF2A66
:104EB000DCD7899665DF898463DF8050080B01E0C9
:104EC000010EDF6E89945CDFDF5000D0E552E552C1
:064ED000E7CFD9FF12003C
:0A4ED600D9CFE6FFE1CFD9FF050EAA
:104EE000E126DF6A720ED36E00000000F19E926828
:104EF00093689468896A8A6A938A93889290929256
:104F000094908B8094948B8493809E869488949ABA
:104F1000949694928B82F19C0F0EC16E040E896E52
:104F2000E00E926EF290F19E7E6A020E7F6E300E5F
:104F30007D12D7EC2FF0F350DF12DDEC2BF0DF12F7
:104F4000FBEC25F0DF12CFEC2CF0DF12010EE66E49
:104F5000E2EC2CF0E552DF5037E0030EE66E010E76
:104F6000E66E6FEC2CF0E552E552030EE66E020E93
:104F7000E66E6FEC2CF0E552E552E00EF36E010E9A
:104F8000F3CFDBFF2E0EF36E020EF3CFDBFF030E2B
:104F9000DB6A040EDB6AD950010FE96EDACFEAFF53
:104FA000EFCF10F0EE06000EEFCF11F0EE5AEFCF7C
:104FB00012F0EE5AEFCF13F0EF5A105011101210FA
:104FC000131001E0E8D7C7D79388938AF28EF28C4A
:104FD000F292F288050EE15C02E2E16AE552E16ECE
:104FE000E552E7CFD9FF1200D9CFE6FFE1CFD9FFD5
:104FF000E552E7CFD9FF1200D9CFE6FFE1CFD9FFC5
:10500000E552E7CFD9FF1200D9CFE6FFE1CFD9FFB4
:10501000080EE12681BA12D00001FB510EE1010E0B
:10502000FB6FE4EC2DF004C0FCF005C0FDF006C001
:10503000FEF007C0FFF0010E51D04ED081B812D063
:105040000001FB510EE1010EFB6FE4EC2DF004C0FA
:10505000FCF005C0FDF006C0FEF007C0FFF0020E38
:105060003DD03AD0E4EC2DF0040E04C0DBFF050E79
:1050700005C0DBFF060E06C0DBFF070E07C0DBFF27
:10508000D950040FE96EDACFEAFF0001FC51EE5C63
:10509000106EFD51EE58116EFE51EE58126EFF511A
:1050A000EE58136E10C0DFFF010E11C0DBFF020EC1
:1050B00012C0DBFF030E13C0DBFFD9CFE9FFDACF4D
:1050C000EAFFD880FF0EEE543F0EEE54000EEE5471
:1050D000000EEE5401E2FB6B000E00D0106E080EC5
:1050E000E15C02E2E16AE552E16E1050E552E7CF81
:1050F000D9FF12000400D180F292F19CF288F09264
:10510000F198F088010EE66EFAEC2CF0E5521200F0
:10511000F298F098D190120037EC2DF0A1A42CD089
:1051200002015C6BA1945C5127E10F01026B0251FB
:10513000022BEA6AD80FE96E010EEA22030EEF6E27
:105140000251022BEA6AD80FE96E010EEA22EF6AD9
:10515000010EE66E000EE66E020EE66E8DEC2BF092
:10516000E552E552F350E66E05EC0BF0E552E552E0
:0A517000000902E164EC24F01200D3
:06517A00D9CFE6FFE1CFF2
:10518000D9FF040EE12601D079D0FB0EDBCF10F061
:10519000FC0EDBCF11F0FD0EDBCF12F0FE0EDBCFED
:1051A00013F0280E096E0A6A0B6A0C6A10C004F02C
:1051B00011C005F012C006F013C007F081EC2FF00B
:1051C00000C010F001C011F002C012F003C013F0D3
:1051D00010C0DFFF010E11C0DBFF020E12C0DBFFAB
:1051E000030E13C0DBFFD9CFE9FFDACFEAFFAF0E22
:1051F000EE5E000EEE5A000EEE5A000EEE5ADECFB4
:1052000005F0DECF06F0DECF07F0DDCF08F0DD528F
:10521000DD520834000E081809E6D8802D0E05541A
:10522000000E0654000E0754000E085401E326D069
:10523000DECF05F0DECF06F0DECF07F0DDCF08F0E1
:10524000DD52DD520834000E081809E6D880000E41
:105250000554000E0654000E0754000E08540EE2CA
:105260000000D9CFE9FFDACFEAFF2A0EEE5E000E8A
:10527000EE5A000EEE5A000EEE5ADAD7040EE15C3A
:1052800002E2E16AE552E16EE552E7CFD9FF120092
:10529000D9CFE6FFE1CFD9FF040EE126FD0EDBCF2B
:1052A00010F0FE0EDBCF11F0126A136AA00E096E29
:1052B0000F0E0A6E0B6A0C6A10C004F011C005F0E4
:1052C00012C006F013C007F081EC2FF000C010F000
:1052D00001C011F002C012F003C013F010C0DFFFD4
:1052E000010E11C0DBFF020E12C0DBFF030E13C064
:1052F000DBFFD9CFE9FFDACFEAFFAA0EEE5E000EA0
:10530000EE5A000EEE5A000EEE5ADECF05F0DECF5A
:1053100006F0DECF07F0DDCF08F0DD52DD520834B5
:10532000000E081809E6D880C30E0554000E065476
:10533000000E0754000E085402E327D026D0DECF1B
:1053400005F0DECF06F0DECF07F0DDCF08F0DD524E
:10535000DD520834000E081809E6D880000E055406
:10536000000E0654000E0754000E08540EE2000012
:10537000D9CFE9FFDACFEAFF270EEE5E000EEE5A34
:10538000000EEE5A000EEE5ADAD7040EE15C02E28D
:0E539000E16AE552E16EE552E7CFD9FF120067
:02539E00D9CF65
:1053A000E6FFE1CFD9FFD950F90FE96EFF0EDA2001
:1053B000EA6EEE50ED1029E0FB0EDBCF10F0FC0E94
:1053C000DBCF11F011C010F0116A1050AA6EFB0E65
:1053D000DB50A96EA69EA69CA68028EC00F0FD0ED0
:1053E000DBCFE9FFDB2AFE0EDBCFEAFF01E3DB2A9E
:1053F000A8CFEFFFF90EDB06FA0E01E2DB06FB0E8B
:10540000DB2AFC0E01E3DB2ACED7E552E7CFD9FF3A
:105410001200D9CFE6FFE1CFD9FFE652D950F90FFC
:10542000E96EFF0EDA20EA6EEE50ED103AE0FB0E68
:10543000DBCF10F0FC0EDBCF11F011C010F0116AC1
:105440001050AA6EFB0EDB50A96EFD0EDBCFE9FFFC
:10545000DB2AFE0EDBCFEAFF01E3DB2AEF50A86E6A
:10546000A69EA69CA684F250800B01E0010EDF6E82
:10547000F29E550EA76EAA0EA76EA682DF50E8B068
:10548000F28EE8A0F29EA6B2FED7A694F90EDB0635
:10549000FA0E01E2DB06FB0EDB2AFC0E01E3DB2A3F
:1054A000BDD7E552E552E7CFD9FF1200D9CFE6FFCD
:1054B000E1CFD9FFFD0EDB50020124250001106E63
:1054C000FE0EDB50020125210001116E000ED88076
:1054D0001054040E115402E2000E17D0FB0EDBCF65
:1054E000E9FFFC0EDBCFEAFF24C2EEFF25C2EDFF91
:1054F000FD0EDBCF06F0FE0EDBCF07F006500201FB
:10550000242707502523010E00D0E552E7CFD9FF0D
:105510001200D9CFE6FFE1CFD9FFE652010EDF6ED0
:105520000201246B256B1A0EE66E020EE66E020E69
:10553000E66EE66ABBDFE552E552E552E552DF165C
:105540001C0EE66E020EE66E010EE66EE66AAEDF39
:10555000E552E552E552E552DF161E0EE66E020EEA
:10556000E66E010EE66EE66AA1DFE552E552E5520F
:10557000E552DF16200EE66E020EE66E640EE66E53
:10558000E66A94DFE552E552E552E552DF16220E57
:10559000E66E020EE66E040EE66EE66A87DFE55200
:1055A000E552E552E552DF16DF5000D0E552E552F4
:0655B000E7CFD9FF120055
:0A55B600D9CFE6FFE1CFD9FF0201D3
:1055C0004551040A50E0070A3CE0010A2BE0030AB7
:1055D00019E0010A01E091D0FE0EDB50660811E1EE
:1055E000030EE66EE66AE66A4A0EE66E020EE66EA6
:1055F000C4EC2EF0106E050EE15E10500201010E9B
:10560000456F7ED0FE0EDB500201030BF36EFC0EE5
:105610004A15F3104A6F0201020E456FFE0EDBCFF2
:1056200046F26ED0FE0EDBCF4BF24BC24CF20201C3
:105630004B6B0201030E456FFE0EDB500201462745
:105640005FD0FE0EDB50106E116A105002014B133A
:10565000115002014C130201040E456FFE0EDB5087
:10566000020146274DD0FE0EDB500201465D34E1BB
:1056700002014A51030B040804E10201010E476FC5
:105680002AD002014A51030B020804E10201020E72
:10569000476F21D002014A51030B030804E10201C4
:1056A000030E476F18D002014A51030B050804E1AD
:1056B0000201040E476F0FD002014A51030B080884
:1056C00004E10201050E476F06D002014A51030BA7
:1056D000090801E1FF000ED0030EE66EE66AE66AF5
:1056E0004A0EE66E020EE66EC4EC2EF0106E050E4B
:1056F000E15E10500201456B03D00201456B00D002
:10570000E552E7CFD9FF1200D9CFE6FFE1CFD9FFAD
:10571000E552E7CFD9FF12001200D9CFE6FFE1CF63
:10572000D9FFE652DF6ADF6A0A0EDF5C2DE2080E5F
:10573000E66EE66AFD0EDBCFE6FFFE0EDBCFE6FF90
:10574000DF500A0DF3CFE9FFF4CFEAFF740EE9262C
:10575000010EEA22E9CF10F0EACF11F010C0E6FF07
:1057600011C0E6FF9BEC2EF0126E060EE15E1250A9
:10577000000908E1DF50106E116A10C0F3FF11C07C
:10578000F4FF05D0DF2AD0D7F368F46800D0E552E3
:10579000E552E7CFD9FF1200010EE66EE66AE66A2F
:1057A0005B0EE66E020EE66EC4EC2EF0106E050E79
:0A57B000E15E10500201526B12007E
:0657BA00938A938892908F
:1057C0009292000E00D01200D9CFE6FFE1CFD9FFB0
:1057D000080EE12681BA06D00201595102E1010EFC
:1057E000596F29D0E4EC2DF004C0DEFF05C0DEFFC8
:1057F00006C0DEFF07C0DDFFDD52DD52D9CFE9FF75
:10580000DACFEAFF0001EA51EE5CF26FEB51EE589D
:10581000F36FEC51EE58F46FED51EE58F56FD88000
:10582000FF0EF255080EF355000EF455000EF55517
:1058300002E20201596B81B806D002015A5102E11D
:10584000010E5A6F2CD0E4EC2DF0040E04C0DBFFE7
:10585000050E05C0DBFF060E06C0DBFF070E07C006
:10586000DBFFD950040FE96EDACFEAFF0001EE51F9
:10587000EE5CF66FEF51EE58F76FF051EE58F86F9F
:10588000F151EE58F96FD880FF0EF655080EF75516
:10589000000EF855000EF95502E202015A6B080E8F
:1058A000E15C02E2E16AE552E16EE552E7CFD9FF41
:1058B0001200D9CFE6FFE1CFD9FFFE0EDB50020A7E
:1058C00007E0030A02E0000E06D00201595103D09E
:1058D00002015A5100D0E552E7CFD9FF1200D9CFCB
:1058E000E6FFE1CFD9FFFE0EDB50020A13E0030A08
:1058F00001E020D0FD0EDB50030A09E0010A05E0BB
:10590000030A01E006D0898004D0899002D0897012
:1059100000D010D0FD0EDB50030A09E0010A05E0BB
:10592000030A01E006D0898204D0899202D08972EC
:1059300000D000D0E552E7CFD9FF1200D9CFE6FF63
:10594000E1CFD9FFFE0EDB5019E00001FA9189503A
:10595000010B01E0FA81FA938950020B01E0FA830E
:10596000020EE66E010EE66EBADFE552E552020E59
:10597000E66EE66EB4DFE552E5520DD00001FA5155
:10598000010B02E0898001D08990FA51020B02E0FC
:0E599000898201D08992E552E7CFD9FF12003B
:02599E009298DD
:1059A000899893867F827B6A7A6A060E7B6E160ED2
:1059B0007A6E100E796EB00EB56E0201536B000E4A
:1059C00000D01200D9CFE6FFE1CFD9FFFE0EDB50A9
:1059D00008E089887B8E7A8EB58EB48EB4AEFED701
:1059E00005D089987B9E7A9EB59EB49EE552E7CFFE
:1059F000D9FF1200D9CFE6FFE1CFD9FFE6527B50A5
:105A0000DF6E7A50DF6EFE0EDB5005E0A19CA19A9E
:105A1000A08CA08A04D0A19CA19AA09CA09AE55237
:105A2000E552E7CFD9FF1200D9CFE6FFE1CFD9FF8A
:105A3000E6527B50DF6E7A50DF6EA19CA19AE55250
:105A4000E552E7CFD9FF12007B50400B03E17A50BB
:105A5000400B03E0010E03D002D0000E00D0120074
:105A60000201535100D012000201536B1200A150E9
:105A7000400B03E1A150200B30E00201010E536FF7
:105A8000526FD2DF0201525128E0526B0F01026BBC
:105A90000251022BEA6AD80FE96E010EEA22040EC7
