:040000002AEF00F0F3
:0E0008005682E1CF29F0E2CF2AF010EF06F089
:100018005680D8CF73F0E8CF74F0E0CF75F0F2B225
:10002800F2A801D0F292600E0001CE1907E1280E65
:1000380016EC14F0726FD8907231536E75C0E0FFF1
:1000480074C0E8FF73C0D8FF5690100050EF13F04B
:10005800860E9C6F78D3250EA21909E082C0D9FFBD
:1000680083C0DAFFA2C0DFFF824B832B6CD3A06B67
:10007800A16BA36BA46B09D0A38705D0A38103D080
:10008800A48701D0A385844B852B84C0F6FF85C047
:10009800F7FF0800F550200AF1E0030AF1E00E0A24
:1000A800EBE01D0AEFE0A3B7A39584C0F6FF85C077
:1000B800F7FF0800F5509BEC16F02EE3A06BA16B40
:1000C800A0C076F0A1C077F0796B0A0E786F47EC84
:1000D80016F076C0A0F077C0A1F0D00E8E6F8F69B1
:1000E80084C0F6FF85C0F7FF0800F550906F916B4C
:1000F8008E5190278F5191239051A0279151A12380
:10010800844B852B84C0F6FF85C0F7FF0800F550A7
:100118009BEC16F014E3D4D784C0F6FF85C0F7FF34
:100128000800F5502A0A0BE19C51D96EDA6ADECF35
:10013800A0F0DDCFA1F0020E9C27844B852B84C054
:10014800F6FF85C0F7FF0800F5502E0A30E1A48DB0
:10015800844B852B84C0F6FF85C0F7FF0800F55057
:100168002A0A0AE19C51D96EDA6ADF509F6F020EA3
:100178009C27844B852B8AD09F6B0FD084C0F6FFB9
:1001880085C0F7FF0800F5CF8EF09F510A0DF35098
:100198008E25D00F9F6F844B852B84C0F6FF85C0BA
:1001A800F7FF0800F5509BEC16F070E3E7D79F6B5C
:1001B8006DD0A38D88D0A38BA38F85D09F510FE0DE
:1001C8009FC08EF08F6B8EBF8F079A518E5D9B51AB
:1001D8008F5905E29F519A6F9B6B9ABF9B07A0515D
:1001E8009A5DA1519B5905E29A51A05F9B51A15B71
:1001F80002D0A06BA16BA3B71DD008D082C0D9FFD5
:1002080083C0DAFF200EDF6E824B832BA007D8A0B5
:10021800A107A029F3E1A1290DE0F0D79951D96EE2
:10022800DA6A82C0E1FF83C0E2FFDFCFE7FF992BE4
:10023800824B832B9A07D8A09B079A29EFE19B2929
:10024800EDE1A3A780D208D082C0D9FF83C0DAFF2E
:10025800200EDF6E824B832BA007D8A0A107A02910
:10026800F3E1A12901E16FD2EFD79C51D96EDA6A87
:10027800DF50A26F020E9C27A20E996F000E9B6F93
:10028800010E9A6F9BD7C00EA3131DD084C0F6FF32
:1002980085C0F7FF844B852B0800F5CFA2F0A2514B
:1002A80001E15DD2580A87E03B0ADFE0070A0BE06C
:1002B8000D0A09E0060A01E17CD71A0AE4E00D0AF2
:1002C80001E17AD7D9D7A3C08EF0C00E8E1712E1FC
:1002D8009C51D96EDA6ADECF9DF0DDCF9EF0020E1A
:1002E8009C279EAF10D0030EA3139D6D9E1FD8B000
:1002F8009E2B09D09C51D96EDA6ADECF9DF0DDCFF6
:100308009EF0020E9C279F5147E19D519E1144E1AA
:100318009F2B42D0010EA26F050EA21946E0A251F2
:10032800020DB70EF324F66EFD0EF420F76E0900E9
:10033800F5509D5D0900F5509E5937E3A22BECD787
:10034800010EA26F040EA21930E0A251020DC10ED7
:10035800F324F66EFD0EF420F76E0900F5509D5D4E
:100368000900F5509E5921E3A22BECD7010EA26F8C
:10037800060EA2191AE0A251020DAB0EF324F66E76
:10038800FD0EF420F76E0900F5509D5D0900F5504B
:100398009E590BE3A22BECD7A351C00BBBE0400A3C
:1003A800E5E0C00ACDE0400AB5E0A251800A8E6FB0
:1003B8009F51800A8E5D03E29FC0A2F009D09F5131
:1003C800800A8E6FA251800A8E5D02E2A2C09FF061
:1003D800A051A11108E0A3C08EF0030E8E1703E010
:1003E800A007D8A0A107A4AD13D0800E9FBF7F0E91
:1003F8008E6FA0519F5DA151800A8E5907E29F51CF
:10040800A05F000E9FBFFF0EA15B02D0A06BA16B87
:10041800C40E8E6F080E8F6FA3C090F0A4C091F029
:100428008E5190178F519117400E90190AE1080EBE
:10043800911907E1A051A11124E0A007D8A0A107B4
:1004480020D0C00E8E6F080E8F6FA3C090F0A4C08E
:1004580091F08E5190178F519117800E901911E1DC
:10046800080E91190EE1A1BF0AD0A15103E1030EB4
:10047800A05D05E3FE0EA027FF0EA12302D0A06B0E
:10048800A16B800EA2BF7F0E8E6FA051A25DA151FD
:10049800800A8E5907E2A251A05F000EA2BFFF0E8C
:1004A800A15B02D0A06BA16BA3A54FD0A3C08EF017
:1004B800030E8E1709E082C0D9FF83C0DAFF2D0E24
:1004C800DF6E824B832B31D0A3A106D082C0D9FF27
:1004D80083C0DAFF200EF4D7C00E8E6F080E8F6F20
:1004E800A3C090F0A4C091F08E5190178F5191172E
:1004F800800E90191AE1080E911917E182C0D9FFF0
:1005080083C0DAFF300EDF6E824B832BA3BB03D090
:10051800946B780E02D0946B580E936F82C0D9FFFB
:1005280083C0DAFF93C0DFFFCCD7A051A11101E14E
:10053800F2D082C0D9FF83C0DAFF300EDF6E824B63
:10054800832BA007D8A0A107F0D7A051A11110E0D4
:10055800A3B70ED082C0D9FF83C0DAFF200EDF6EAA
:10056800824B832BA007D8A0A107A051A111F2E1CB
:10057800A3C08EF0030E8E1709E082C0D9FF83C096
:10058800DAFF2D0EDF6E824B832B08D0A3A106D095
:1005980082C0D9FF83C0DAFF200EF4D7C00E8E6F59
:1005A800080E8F6FA3C090F0A4C091F08E519017E1
:1005B8008F519117400E90190CE1080E911909E11D
:1005C80082C0D9FF83C0DAFF300EDF6E824B832BE7
:1005D800A2D0C00E8E6F080E8F6FA3C090F0A4C07B
:1005E80091F08E5190178F519117800E90191BE141
:1005F800080E911901E08FD082C0D9FF83C0DAFFBD
:10060800300EDF6E824B832BA3BB03D0966B780E24
:1006180002D0966B580E956F82C0D9FF83C0DAFF5F
:1006280095C0DFFFD3D777D09F51020DB70EF324C3
:10063800F66EFD0EF420F76E0900F5CF78F00A008B
:10064800F5CF79F09DC076F09EC077F0F1EC13F00D
:1006580076C07DF077C07EF0806B0A0E7F6FD9EC94
:1006680014F07D5145D09DC076F09EC077F09F5123
:10067800020DC10EF324F66EFD0EF420F76E09008C
:10068800F5CF78F00A00F5CF79F0F1EC13F0765158
:100698000F0B926FA3BB04D0740E976FFF0E03D09D
:1006A800630E976FFF0E986F925197258E6F000E0D
:1006B80098218F6F8EC0F6FF8FC0F7FF0800F5CF27
:1006C800A2F022D09DC076F09EC077F09F51020D17
:1006D800AB0EF324F66EFD0EF420F76E0900F5CF8D
:1006E80078F00A00F5CF79F0F1EC13F07651070BAA
:1006F800300FA26F09D0A351C00B96E0400AE2E088
:10070800C00AB1E0400A90E082C0D9FF83C0DAFF96
:10071800A2C0DFFF5BD79F079F29EDE1A3B7A1BF69
:1007280012D0A15102E1A0050EE382C0D9FF83C017
:10073800DAFF200EDF6E824B832BA007D8A0A1071B
:10074800A051A111F2E184C0F6FF85C0F7FF844BE8
:10075800852B0800F5CFA2F0A25101E07CD482C01D
:10076800D9FF83C0DAFFDF6A000C0001CCA332D0C6
:100778007EEC13F076C0A5F177C0A6F178C0A7F19A
:1007880079C0A8F141500101A55D0001BB6F42503D
:100798000101A6590001BC6F43500101A75900018E
:1007A800BD6F44500101A8590001BE6FBE5107E159
:1007B800210EBB5DA10EBC59070EBD590BE3CC93AE
:1007C800720E776F020E786F040E796F640E7A6F6F
:1007D80064EC11F00001CCB7120011EC09F000092B
:1007E800D8B412002F6A39A403D0BB6BBB2B02D03C
:1007F8000001BB6B2F50BB19FC0BBB192F6E39A620
:1008080002D02F8601D02F963950030BE80604E159
:100818000001BB6BBB2B02D00001BB6BBB3BBB47D2
:100828002F50BB19DF0BBB192F6E39AE02D02F8C9E
:1008380001D02F9C39AE04D03AC032F03BC033F01F
:100848003EC036F03CC034F03DC035F040C038F012
:100858003FC037F02FAAD5D1BDD120EE01F03450DA
:10086800D9263550DA220001E651DE1803E07CEC87
:1008780016F0C9D1030EE919FAE0D2EC09F001012A
:10088800A96F0001E90508E10101A90505E0020ECB
:10089800A91902E0F30EA96F0001D26B590ED225F7
:1008A800D96EDA6A010EDA22910EDF6ED22B590E5A
:1008B800D225D96EDA6A010EDA22A9C1DFFFD22B5E
:1008C800590ED225D96EDA6A010EDA22CAC0DFFFC4
:1008D800D22B0101A95102E0A9051EE1590E000120
:1008E800D225D96EDA6A010EDA22CBC0DFFFD22B0D
:1008F8000101AA6BAA51E70FD96EDA6A590E0001F5
:10090800D225E16EE26A010EE222DFCFE7FFD22BA9
:100918000101AA2BAA51EEE07CEC16F032C0A3F03C
:1009280033C0A4F0010EA56F000E2FB6010EA66FFE
:10093800000E38EC10F00101A95199E10001C851ED
:100948000A0D720EF324776F020EF420786FC851E7
:100958000A0DF350040F796F0A0E7A6F64EC11F0E8
:1009680052D1020E0001E96501D081D720EE01F0D5
:100978003450D9263550DA22E651DE1801E077D70F
:10098800D26B590ED225D96EDA6A010EDA22970E89
:10099800DF6ED22B590ED225D96EDA6A010EDA2211
:1009A800CBC0DFFFD22B0101AA6BAA51E70FD96E8A
:1009B800DA6A590E0001D225E16EE26A010EE222DE
:1009C800DFCFE7FFD22B0101AA2BAA51EEE07CEC86
:1009D80016F032C0A3F033C0A4F0010EA56F000ECC
:1009E8002FB6010EA66F000E38EC10F00CD10001E6
:1009F800D26B590ED225D96EDA6A010EDA22920E1E
:100A0800DF6ED22B0101AA6BAA510A0D7A0EF324CC
:100A1800D96E020EF420DA6EDFAE3AD032C076F02C
:100A280033C077F00101AA510A0D720EF3240001B8
:100A3800786F020EF420796FCAEC15F0000928E0EF
:100A48000101AA510A0D7A0EF324D96E020EF42080
:100A5800DA6EDF6AAA510A0D720EF3240001776F6D
:100A6800020EF420786F0101AA510A0DF350040F09
:100A78000001796F0A0E7A6F64EC11F0590E0001CB
:100A8800D225D96EDA6A010EDA22DF6AD22B05D0B6
:100A98000101AA2B090EAA65B7D77CEC16F00A0E3D
:100AA8000101AA190AE1590E0001D225D96EDA6AA4
:100AB800010EDA22F00EDF6ED22B32C0A3F033C063
:100AC800A4F0010E0001A56F000E2FB6010EA66F4F
:100AD800000E38EC10F097D0D2EC09F0CC837EEC05
:100AE80013F076C041F077C042F078C043F079C087
:100AF80044F0BDD620EE01F03450D9263550DA2224
:100B0800DF50EAE0010AE8E0B2D60001CCBBCC9B9A
:100B1800AED620EE01F03450D9263550DA22DF5017
:100B280001E0A5D60101AA6BAA510A0D7A0EF32499
:100B3800D96E020EF420DA6EDFAE31D032C076F014
:100B480033C077F00101AA510A0D720EF324000197
:100B5800786F020EF420796FCAEC15F000091FE0D7
:100B68000101AA510A0D7A0EF324D96E020EF4205F
:100B7800DA6EDF6AAA510A0D720EF3240001776F4C
:100B8800020EF420786F0101AA510A0DF350040FE8
:100B98000001796F0A0E7A6F64EC11F068D60101D2
:100BA800AA2B090EAA65C0D762D620EE01F03450F0
:100BB800D9263550DA220001E651DE1801E057D671
:100BC80020EE02F03450D9263550DA22DF508EEC70
:100BD8000FF04DD634C0D9FF35C0DAFFDF50810A97
:100BE80001E13BD6030A01E102D7060ADEE0030A67
:100BF80001E1B7D6160A01E17DD7030A8AE0050AA2
:100C080084E00001CC87365003E00001CCAB120031
:100C18000001CC977CEF16F0D9CF2BF0DACF2CF06F
:100C2800F3CF2DF0F4CF2EF0F0B0F0A6ADD1600EDA
:100C38000001CE1901E0A4D153C0CFF0899A000E6B
:100C48001AEC17F000016A6F898A6B6B6B51390DCA
:100C5800000EF324D96E020EF420DA6EDFA005D060
:100C680000016B2B010E6B65F1D7020E00016A19AA
:100C780003E1010E676F01D0676B370E6A6107D019
:100C88006A5105E0010E6B6513D0675111E11A0E28
:100C98003BEC14F008D0899A000E1AEC17F0898AF8
:100CA8001A0E3BEC14F00001626F62B3F4D76AD1FC
:100CB800686B6AC060F0616B5FD16007D8A061079C
:100CC800675109E0899A6851630FD96EDA6A000E94
:100CD8001AEC17F017D0899A6B51390D000E256E52
:100CE800020E266E252A000E2622F3502526F450E1
:100CF800262268512524D96E000E2620DA6E000EB1
:100D08001AEC17F0DF6E0001682B898A6A51685D5A
:100D180001E232D1675123E06351030B020A07E174
:100D28005450641901E02ED1010ED66F2BD1010E5B
:100D38006B6501D0ACD76B51390D010EF324D96E18
:100D4800020EF420DA6E63C0DFFF6B51390D020E1C
:100D5800F324D96E020EF420DA6E64C0DFFF6B5103
:100D6800390D380EF324D96E020EF420DA6E6AC0FB
:100D7800DFFF69696B51390D010EF324D96E020E3C
:100D8800F420DA6EDFAC33D000016C6B28D06C51E4
:100D9800C325D96E000EC421DA6E6B51390D000ED1
:100DA800266E020E276E030E2626000E2722F3500B
:100DB8002626F45027226C512624E16E000E2720A7
:100DC800E26EDE50E6180AE06B51390D380EF32456
:100DD800D96E020EF420DA6EDF6A59D76C2BC23155
:100DE800E832E8320F0B256E25506C5DD0E3000128
:100DF8006B51390D010EF324D96E020EF420DA6E10
:100E0800DFAA37D06C6B000E6C25D96EDA6A010E3A
:100E1800DA226C51630FE16EE26ADFCFE7FF6C2BD9
:100E2800010E6C65F0D7060E0101006F00016B51D1
:100E3800390D020EF324D96E020EF420DA6EDF505B
:100E48000101016FF090116A020EE1EC0CF0000153
:100E58006C6B6C51630FD96EDA6A000E6C25E16E0B
:100E6800E26A010EE222DFCFE7FF6C2B010E6C6510
:100E7800F0D700016C6B6C51060D370EF324D96E58
:100E8800010EF420DA6EDF5026E06B51390D020EA8
:100E9800F324D96E020EF420DA6E6C51060D380E6A
:100EA800F324E16E010EF420E26EDE50E61813E141
:100EB800A5EC13F06C51060D390EF324D96E010E12
:100EC800F420DA6E01C0DEFF02C0DEFF03C0DEFFE1
:100ED80004C0DEFF12D069290CE16C51060D370EF3
:100EE800F324D96E010EF420DA6EDF5002E16CC0F3
:100EF80069F06C2B040E6C65BED7040E6C6542D08D
:100F0800050E69612ED06951060D370EF324D96E8E
:100F1800010EF420DA6E010EDF6E6B51390D020EF0
:100F2800F324D96E020EF420DA6E6951060D380EDC
:100F3800F324E16E010EF420E26EDFCFE7FFA5ECAB
:100F480013F06951060D390EF324D96E010EF42001
:100F5800DA6E01C0DEFF02C0DEFF03C0DEFF04C0A0
:100F6800DEFF6B51390D000EF324D96E020EF4200A
:100F7800DA6E0201DF8006D06051611103E09DD670
:100F8800010EC76FF09000F0F2B2F2A80CD0F29206
:100F9800600E0001CE1907E1280E3BEC14F0256E17
:100FA800D8902530536E9EB09DA006D09E90552AAD
:100FB800555002E10001D82B3FEC17F02EC0F4FF8A
:100FC8002DC0F3FF2CC0DAFF2BC0D9FF2AC0E2FFE7
:100FD80029C0E1FF569211006BEC12F0B4EC15F049
:100FE800000901E01200D4EC10F00101C26F0DD12C
:100FF8000001D26BD76B140ED76501D026D0060E30
:10100800766FD4511FEC16F0150D6B0E0101BB6FF6
:10101800FC0EBC6FF350BB27F450BC230001D75122
:101028000101BB27000EBC23BBC1F6FFBCC1F7FF03
:10103800590E0001D225D96EDA6A010EDA220800AB
:10104800F5CFDFFFD22BD72BD6D7D42B000EDAEC77
:1010580016F0D1C0A7F0D32BD35122EC17F0030E12
:10106800776FE80E766FBEEC0EF012EF17F0010EF8
:101078000001E86F0101C56B010EC36FC1D033ECED
:1010880016F033EC16F07C0E826F010E836F240E7F
:10109800846FFF0E856FC5C186F0876B0101C5514E
:1010A8000A0D720EF324D96E020EF420DA6EDF50A8
:1010B8000001886F896B0101C5510A0D730EF32475
:1010C800D96E020EF420DA6EDF5000018A6F8B6B46
:1010D8000101C5510A0D740EF324D96E020EF420D5
:1010E800DA6EDF5000018C6F8D6B2CEC00F08C0EEB
:1010F800826F010E836F850E846FFF0E856F2CEC57
:1011080000F02BEC12F02BEC12F0010EE86F75D00A
:10111800D4EC10F00101C46FB4EC15F00101C40562
:101128004CE1C36B0001E86BD52BD26BD76B0A0E71
:10113800D76501D026D0060E766FD5511FEC16F074
:101148000B0DE90E0101BB6FFC0EBC6FF350BB2702
:10115800F450BC230001D7510101BB27000EBC236A
:10116800BBC1F6FFBCC1F7FF590E0001D225D96EED
:10117800DA6A010EDA220800F5CFDFFFD22BD72B6F
:10118800D6D7D52B010EB16F0101C55133EC15F03F
:10119800000903E1E4EC16F002D00001D32BD1C022
:1011A800A7F0D35122EC17F0030E776FE80E766F95
:1011B800BEEC0EF012EC17F023D0020EC4191DE19C
:1011C800C551BB6FBC6BFE0EBD6FBE690001E5511A
:1011D8000101BF6FC06BBD51BF27BE51C023BB51BA
:1011E800BF5DC051800AC16FBC51800AC15902E27B
:1011F800C56B01D0C52B0001E86B0001E85188E1FF
:101208000101C30501E13BD71200C251010A01E106
:10121800EFD6030A01E12BD712008D6B7EEC13F099
:1012280076C088F077C089F078C08AF079C08BF0F2
:101238008D51060D370EF324D96E010EF420DA6EA7
:10124800DF503FE08D51060D390EF324D96E010EA3
:10125800F420DA6E8851DE5C8951DE588A51DE58F6
:101268008B51DE582EE28D51060D390EF324D96EBE
:10127800010EF420DA6EDECF80F0DECF81F0DECF13
:1012880082F0DECF83F08051885D846F8151895967
:10129800856F82518A59866F83518B59876F875121
:1012A80007E1210E845DA10E8559070E865909E3D1
:1012B8008D51060D370EF324D96E010EF420DA6E27
:1012C800DF6A8D2B040E8D65A9D7D02901E0000CAB
:1012D8008D6B8D51390D000EF324D96E020EF4205A
:1012E800DA6EDFA055D000018D51390D010EF324BF
:1012F800D96E020EF420DA6EDF50396E8D51390D39
:10130800380EF324D96E020EF420DA6EDF503E6EEA
:10131800020E8C6F39AC05D0C231E832E8320F0BBF
:101328008C2739AE19D08D51390D000E806F020E01
:10133800816F802B000E8123F3508027F450812386
:101348008C5180253A6E000E81213B6EC231E83205
:10135800E8320F0B8C2702D03A6A3B6A8C513E5E0A
:101368008D51390D000E806F020E816F802B000E9B
:101378008123F3508027F45081238C5180253C6EC3
:10138800000E81213D6ECFC03FF08DC0D0F0010C22
:1013980000018D2B010E8D659CD7000C0001826B1E
:1013A8008369846B84510A0D7A0EF324D96E020E78
:1013B800F420DA6EDFAE16D032C076F033C077F0A4
:1013C800000184510A0D720EF324786F020EF42086
:1013D800796FCAEC15F000090AE084C083F0010EA9
:1013E800826F09D00001832902E184C083F0842B35
:1013F800090E8465D7D7832901E1F10CE95103E08F
:1014080000018251120083C0CAF0846B84513224D7
:10141800D96E000E3320DA6E83510A0D720E7E6F7C
:10142800020E7F6FF3507E27F4507F2384517E2570
:10143800E16E000E7F21E26EDFCFE7FF842B070EFF
:101448008465E4D783510A0D7A0EF324D96E020E0F
:10145800F420DA6EDF8E20EE02F03450D9263550B3
:10146800DA22DF5000017E6F010E7E1783510A0DCC
:101478007A0EF324D96E020EF420DA6EDF507E194C
:10148800FE0B7E19DF6E846B845134247E6F000E50
:1014980035207F6F030E7E25D96E000E7F21DA6E10
:1014A80083510A0D720E806F020E816F090E80271C
:1014B800000E8123F3508027F45081238451802526
:1014C800E16E000E8121E26EDFCFE7FF842B8451AD
:1014D800DBE083C0C8F0CC99F5EC15F0E56FE50EBC
:1014E800776F786BBA0E796F010E7A6F64EC11F032
:1014F80087D7886F1AEC13F0CC6B885129E18C6B75
:101508008C510A0D7A0EF324D96E020EF420DA6E8D
:10151800DF6A8C510A0D720EF324D96E020EF42084
:10152800DA6EDF6A8C510A0D730EF324D96E020E3F
:10153800F420DA6EDF6A8C510A0D740EF324D96E2A
:10154800020EF420DA6EDF6A8C2B090E8C65D8D770
:10155800D26B8C6B8C2B090E8C65FCD788512AE0DA
:10156800E60E776F786B020E796F010E7A6F84EC56
:1015780015F01F0EE66501D01F0CE90E776F786B2A
:10158800030E796F010E7A6F84EC15F0720E776F87
:10159800020E786F040E796F640E7A6F84EC15F082
:1015A800E50E776F786BBA0E796F010E7A6F84EC5F
:1015B80015F01ED0E60E776F786B020E796F010E6C
:1015C8007A6F64EC11F0E90E0001776F786B030E07
:1015D800796F010E7A6F64EC11F0720E0001776F6B
:1015E800020E786F040E796F640E7A6F64EC11F056
:1015F8009D0E00018A6F010E8B6F89838951870BBD
:101608004009896F88B102D0899502D00001898587
:10161800899189C084F08AC085F08BC086F087ECF8
:1016280010F0E651E0EC15F00001CB6BCB81E93905
:10163800F00BCB13F0861200E9C0AFF10A0E0101DE
:10164800B06FB16B7EEC13F0BF0501E1FF0C7EECCF
:1016580013F076C0B2F177C0B3F178C0B4F179C0B5
:10166800B5F1200E0101B25FA10EB35B070EB45BAA
:10167800000EB55B0001E96BCC8972D07EEC13F0EB
:1016880076C0B6F177C0B7F178C0B8F179C0B9F1D2
:101698000101B251B65DAB6FB351B759AC6FB451DC
:1016A800B859AD6FB551B959AE6FAE5107E1210EBA
:1016B800AB5DA10EAC59070EAD594CE3B6C1B2F102
:1016C800B7C1B3F1B8C1B4F1B9C1B5F1B107B12926
:1016D80047E1010EB16FB007B02903E10001CC99D1
:1016E800FF0C0001D26B590ED225D96EDA6A010EB1
:1016F800DA22810EDF6ED22B590ED225D96EDA6A24
:10170800010EDA22E6C0DFFFD22B590ED225D96EA0
:10171800DA6A010EDA22CBC0DFFFD22B0101BA6BE5
:10172800BA51E70FD96EDA6A590E0001D225E16E77
:10173800E26A010EE222DFCFE7FFD22B0101BA2BCA
:10174800BA51EEE00001A36BA46B010EA56FA66B66
:1017580038EC10F029EC17F0000902E033EC17F030
:101768000001CCB98BD7AFC1E9F0C8511200806B2A
:1017780081A281B431D07EEC13F076C045F077C0F9
:1017880046F078C047F079C048F081A281B422D0F1
:1017980081B202D081A4FCD77EEC13F076C085F02C
:1017A80077C086F078C087F079C088F04550855DAD
:1017B800816F46508659826F47508759836F4850CA
:1017C8008859846F8451831103E1200E825D60E3A0
:1017D800030E5DD0806B5CD081B22CD07EEC13F010
:1017E80076C049F077C04AF078C04BF079C04CF029
:1017F80081B2F0D781A2FED77EEC13F076C085F0D7
:1018080077C086F078C087F079C088F04950855D48
:10181800816F4A508659826F4B508759836F4C505D
:101828008859846F8451831103E1200E825D30E36F
:10183800010E2DD081B42CD07EEC13F076C04DF083
:1018480077C04EF078C04FF079C050F081B4C2D75D
:1018580081A4FED77EEC13F076C085F077C086F0C1
:1018680078C087F079C088F04D50855D816F4E5003
:101878008659826F4F508759836F50508859846FAB
:101888008451831103E1200E825D02E3020E806F12
:1018980080511200976F030E0001946F87D0956BEB
:1018A800D66B936B865118E0280ECCEC13F0966F2C
:1018B800D8909633410E96650FD0932B9305876F7A
:1018C800040E876501D0000C010E766F776B786B7C
:1018D800796B55EC0EF0E8D7F298F096200EA6EC4E
:1018E80012F01A0E786FC90E776F5CEC14F00001D5
:1018F8009751F8EC14F00001996B0BD0000E992564
:10190800D96EDA6A010EDA22DF50F8EC14F0000121
:10191800992B9751995DF2E3800EA6EC12F0F288AC
:10192800F086C75102E1F0A0FCD7C76B200EA6ECE9
:1019380012F0600EA6EC12F0010100AB0ED001C14E
:1019480054F07EEC13F076C08BF077C08CF078C042
:101958008DF079C08EF0D65104E0010E0001986F29
:101968002AD07EEC13F076C08FF077C090F078C064
:1019780091F079C092F08B518F5D876F8C5190599F
:10198800886F8D519159896F8E5192598A6F8A51FA
:10199800891105E1A90E875D610E8859DCE3952B55
:1019A8009505876F040E876101D07AD7940794292B
:1019B80001E075D7986B98511200166E030E216ED0
:1019C80085D0226A0001D66B206A115018E0280ED3
:1019D8003BEC14F0236ED8902332410E23640FD0D1
:1019E800202A2004126E040E126401D0040C010E89
:1019F800016E026A036A046A26EC0FF0E8D7F298CF
:101A0800F096200EE1EC12F01A0E036EC90E026E6B
:101A180016EC15F016504FEC15F0246A0AD0000E9B
:101A28002424D96EDA6A010EDA22DF504FEC15F061
:101A3800242A1650245CF3E3800EE1EC12F0F288BD
:101A4800F0860001C75102E1F0A0FBD7C76B200E5A
:101A5800E1EC12F0600EE1EC12F0010100AB0ED0E7
:101A680001C154F0A5EC13F001C018F002C019F040
:101A780003C01AF004C01BF0D65103E0010E176E24
:101A8800010CA5EC13F001C01CF002C01DF003C04E
:101A98001EF004C01FF018501C5C126E19501D581F
:101AA800136E1A501E58146E1B501F58156E155081
:101AB800141005E1A90E125C610E1358DDE3222A09
:101AC8002204126E040E126001D07CD72106212850
:101AD80001E077D7176A1200230E9F6501D0000C2A
:101AE8009AB503D0A06BA02B02D00001A06BA03B3D
:101AF800A047A0479A51A019BF0BA0199A6F9A8FB7
:101B08009A51030BE80601E19A8F9AC000F1C9C007
:101B180001F1C92B020EA16F9AAD1AD0A26B10D099
:101B2800A2519B25D96E000E9C21DA6E000EA125CC
:101B3800E16EE26A010EE222DFCFE7FFA12BA22BC2
:101B4800C231E832E8320F0BA06FA051A25DE8E382
:101B58009AAF1AD0A26B10D0A251C325D96E000E2D
:101B6800C421DA6E000EA125E16EE26A010EE222BE
:101B7800DFCFE7FFA12BA22BC231E832E8320F0BEF
:101B8800A06FA051A25DE8E3A26B10D0A2519D25E1
:101B9800D96E000E9E21DA6E000EA125E16EE26A72
:101BA800010EE222DFCFE7FFA12BA22B9F51A25DFE
:101BB800EDE3000EC2B3010E866FA1514EEF0CF09B
:101BC8008C8E8D900001776B080E766FBEEC0EF050
:101BD8008D80776B500E766FBEEC0EF0300E00ECF9
:101BE80017F00001776B080E766FBEEC0EF0300E22
:101BF80000EC17F00001776B010E766FBEEC0EF06B
:101C0800300E00EC17F00001776B010E766FBEEC1A
:101C18000EF0390E00EC17F00001776B010E766FAD
:101C2800BEEC0EF0140E00EC17F00001776B010EFD
:101C3800766FBEEC0EF0560E00EC17F00001776BD5
:101C4800010E766FBEEC0EF06D0E00EC17F0000181
:101C5800776B010E766FBEEC0EF0700E00EC17F08D
:101C68000001776B010E766FBEEC0EF00E0E00ECE5
:101C780017F00001776B010E766FBEEC0EF0060EC2
:101C880000EC17F00001776B010E766FBEEC0EF0DA
:101C9800010E00EC17F00001776B280E766FBEEF8F
:101CA8000EF076C07AF077C07BF078C07CF079C00F
:101CB8007DF0280E7A03F3CF7EF0F4CF7FF0806BAF
:101CC800816B7B03F3507F27F4508023000E812320
:101CD8007A03F3507F27F4508023000E8123280EC7
:101CE8007C03F3508027F4508123000E7B03F350CC
:101CF8008027F4508123000E7A03F3508027F45094
:101D08008123280E7D03F3508127000E7C03F350B6
:101D18008127000E7B03F3508127000E7A03F350CE
:101D280081277EC082F07FC083F080C084F081C0AC
:101D380085F0510E8227FF0E83238423852385BFD8
:101D4800FF0C8551841183110CE12E0E825D09E28E
:101D5800120000F0D60E00018227FF0E8323842391
:101D6800852385BF1200855184118311F2E1820514
:101D7800F0E212007651786F7751796F7A6B7B6B4E
:101D8800A00E7803F3CF7CF0F4CF7DF07E6B7F6BF1
:101D98007903F3507D27F4507E23000E7F230F0E26
:101DA8007803F3507D27F4507E23000E7F23A00E86
:101DB8007A03F3507E27F4507F230F0E7903F350F4
:101DC8007E27F4507F23000E7803F3507E27F450CB
:101DD8007F23A00E7B03F3507F270F0E7A03F35067
:101DE8007F27000E7903F3507F27000E7803F35006
:101DF8007F277CC080F07DC081F07EC082F07FC0EC
:101E080083F0560E8027FF0E81238223832383BF0E
:101E1800FF0C8351821181110CE1C40E805D09E22F
:101E2800120000F0D90E00018027FF0E81238223C3
:101E3800832383BF1200835182118111F2E180054F
:101E4800F0E2120001C005F002C006F003C007F07E
:101E580004C008F0280E0502F3CF09F0F4CF0AF009
:101E68000B6A0C6A0602F3500A26F4500B22000E85
:101E78000C220502F3500A26F4500B22000E0C2205
:101E8800280E0702F3500B26F4500C22000E06020F
:101E9800F3500B26F4500C22000E0502F3500B26CB
:101EA800F4500C22280E0802F3500C26000E0702EC
:101EB800F3500C26000E0602F3500C26000E050205
:101EC800F3500C2609C00DF00AC00EF00BC00FF03D
:101ED8000CC010F0510E0D26FF0E0E220F221022FC
:101EE80010BEFF0C10500F100E100BE12E0E0D5CE3
:101EF80008E2120000F0D60E0D26FF0E0E220F2269
:101F0800102210BE120010500F100E10F3E10D0435
:101F1800F1E21200B96F0001BA6B7EEC13F076C0E3
:101F2800B1F077C0B2F078C0B3F079C0B4F07EEC0D
:101F380013F076C0B5F077C0B6F078C0B7F079C0C6
:101F4800B8F0B151B55DAD6FB251B659AE6FB3517E
:101F5800B759AF6FB451B859B06FB05107E1E10E3E
:101F6800AD5DC10EAE59030EAF59E1E3D26B590E08
:101F7800D225D96EDA6A010EDA22840EDF6ED22BF0
:101F8800590ED225D96EDA6A010EDA22E6C0DFFFD1
:101F9800D22B590ED225D96EDA6A010EDA22B9C0CF
:101FA800DFFFD22BA36BA46B010EA56FA66B38ECD9
:101FB80010F0BA2B020EBA65B0D7B951E0EF15F0A0
:101FC800780ED36E9B8CC090550EA76EAA0EA76E86
:101FD8000E01FF91110EE76F170EFB6F0A0EDB6FF4
:101FE800090ED96F550EA76EAA0EA76EFF81FC0EBB
:101FF8000F01486F1F0E496F8B94899C899E94949A
:10200800929C929E93829384F19E92829280898A76
:102018008C82929A95929380948CF18AF18CF292A8
:10202800F288F090F086938A949E9398C00EC76EBB
:10203800210EC66E8C9095808C8A959A8D84969484
:102048008D928C8E8C968D909692959E9596969064
:10205800958C95949598736A310E726EA49EE4ECF3
:102068000DF0F28EF28C1200A96F0001AA6BA55137
:1020780003E0A76BA72B02D00001A76BAA51A719F1
:10208800FC0BA719AA6FA95103E1A76BA72B02D0D4
:102098000001A76BA73BA747AA51A719DF0BA719F0
:1020A800AA6FA9B102D0AA9502D00001AA85A6B14B
:1020B80002D0AA9702D00001AA87A95103E1A76B11
:1020C800A72B02D00001A76BA73BA747A747AA5198
:1020D800A719BF0BA719AA6FAA8FA3C0ABF0A4C0FA
:1020E800ACF0AAC09AF0ABC09BF0ACC09CF0590E03
:1020F8009D6F010E9E6FD2C09FF070EC0DF0A86F1F
:10210800D26BA851120084C0C2F085C0C3F086C04B
:10211800C4F0776B140E766FBEEC0EF08C82898A51
:10212800D6CFC9F0D069876B8751390D000EF324DB
:10213800D96E020EF420DA6EDF6A872B010E8765EE
:10214800F3D7876B8751020D2B0EF324F66EFD0E25
:10215800F420F76E0900F5CF77F00A00F5CF78F094
:102168005CEC14F00001872B1F0E8765EBD7200E5F
:10217800A6EC12F0786B560E776F5CEC14F0400EFC
:10218800A6EC12F01C0E786F0F0E776F5CEC14F053
:10219800600EA6EC12F0F292F288F090F08612002F
:1021A80081B210D00001CD5144E1010ECD6F7EEC1B
:1021B80013F076C055F177C056F178C057F179C061
:1021C80058F1010C81B410D00001CD5132E1010E5B
:1021D800CD6F7EEC13F076C055F177C056F178C01C
:1021E80057F179C058F1020C7EEC13F076C084F0F8
:1021F80077C085F078C086F079C087F00101555125
:102208000001845D806F0101565100018559816F7D
:102218000101575100018659826F0101585100018F
:102228008759836F8351821103E1400E815D01E379
:10223800CD6B000C7E6F1F0E00017E6501D0000C77
:102248000C0E786F640E776F5CEC14F06B0E000167
:102258007E25F66EF76AFD0EF7220800F5CF7DF0B1
:10226800000E7D11776F0E0E786F5CEC14F08B0EFC
:1022780000017E25F66EF76AFD0EF7220800F5CFFD
:102288007DF0000E7D11776F100E786F5CEC14F006
:10229800200EA6EC12F0786B560E776F5CEC14F0FB
:1022A800400EA6EC12F01C0E786F0F0E776F5CECE8
:1022B80014F0200EA6EC12F0600EA6EC12F0010C41
:1022C800000EF0B6010E7C6FF0968C9A050EC4ECE9
:1022D80016F02EEC17F000017D6F8C8A3AEC17F09F
:1022E80000017DB1F2D78C9A060EC4EC16F08C8AE8
:1022F8003AEC17F08C9A020EC4EC16F000017951F2
:10230800C4EC16F000017D6B16D077C0D9FF78C0F9
:10231800DAFFDF50C4EC16F00001774B782B7A0710
:102328007D2B79517D257B6F0F0E7B1704E18C8AFD
:102338007D517927CAD77A51E8E18C8A7CB102D0DD
:10234800F09601D0F08612000001C06F9D0E7B6FE1
:10235800010E7C6FEBEC11F0C0510BE0010E7DEC2F
:102368000AF07B0EA56FFE0EA66FA76BA86BBAEFDF
:1023780014F0899C899E000E7DEC0AF0190EE0ECA1
:1023880015F0000903E1190E3EEC17F0000E6AEC97
:1023980015F0000E0001AA6F190E9BEC14F0BF6B2C
:1023A80020EC0BF0D76FD72906E0010EAA6F190EA3
:1023B8009BEC14F009D00A0E806F000E816B826BC3
:1023C800836B846BB7EC16F0898C12EF17F07F6B78
:1023D8007F517B5D7D6F000E7C597E6F070E7D25DA
:1023E800776F000E7E21786F7F51FA0F796F010E9B
:1023F8007A6F84EC15F07F2B020E7F65E9D720EE0B
:1024080004F07B51D9267C51DA22DF6820EE03F0F4
:102418007B51D9267C51DA22FE0EDF6E7F6B7F510D
:102428007B5D7D6F000E7C597E6F020E7D25776F78
:10243800000E7E21786F7F51FD0F796F010E7A6F44
:1024480084EC15F07F2B020E7F65E9D7020C800E15
:1024580000EC17F00001786B7C0E7825D96EDA6AEB
:10246800010EDA22DF5004E1200EF7EC16F009D055
:102478007C0E7825D96EDA6A010EDA22DF50F7EC85
:1024880016F00001782B0F0E7865E6D7C00E00EC29
:1024980017F0100E0001786F7C0E7825D96EDA6A75
:1024A800010EDA22DF5004E1200EF7EC16F009D015
:1024B8007C0E7825D96EDA6A010EDA22DF50F7EC45
:1024C80016F00001782B1F0E7865E6D71F0C81A245
:1024D80081B412000001C06B33EC16F07C0E826FE1
:1024E800010E836FDD0E846FFF0E856F000E876F00
:1024F800190E866F2CEC00F08C0E826F010E836F24
:102508003A0E846FFF0E856F9DC186F0876B9EC162
:1025180088F0896B9FC18AF08B6B2CEC00F02BEC58
:1025280012F00DD0BF6B20EC0BF0BBEC0BF0C16FC1
:10253800C10503E0020EC11902E1010EC06FC051CE
:10254800F1E0120000017B6F2CD0786B960E776F4C
:102558005CEC14F0800E0001CE6F800C786B760E68
:10256800776F5CEC14F0600E0001CE6F600C786B36
:10257800560E776F5CEC14F0400E0001CE6F400CE5
:10258800786B360E776F5CEC14F0200E0001CE6F7E
:10259800200C786B160E776F5CEC14F00001CE6B94
:1025A800120000017B51F5E0200AEAE0600ADFE052
:1025B800200AD4E0E00AC9E01200066E2CD0036AB3
:1025C800960E026E16EC15F0800E0001CE6F800C90
:1025D800036A760E026E16EC15F0600E0001CE6FDF
:1025E800600C036A560E026E16EC15F0400E0001E0
:1025F800CE6F400C036A360E026E16EC15F0200EF4
:102608000001CE6F200C036A160E026E16EC15F050
:102618000001CE6B12000650F6E0200AEBE0600ADB
:10262800E0E0200AD5E0E00ACAE01200010E00014D
:102638007B6FC56BC66B776B020E766FE10E786F9A
:102648009DEC15F07B17776B010E766FDD0E786FBA
:102658009DEC15F07B17776B010E766FD90E786FAE
:102668009DEC15F07B17776B640E766FDB0E786F39
:102678009DEC15F07B17776B040E766FE30E786F81
:102688009DEC15F07B17776B010E766FDF0E786F78
:102698009DEC15F07B17120002EE00F0D60EEE6AE4
:1026A800E806FDE101EE00F0A50EEE6AE806FDE1A0
:1026B80000EEC2F0250EEE6AE806FDE100EE2FF00E
:1026C800270EEE6AE806FDE1780EF66E2E0EF76E1E
:1026D800000EF86E0900F5CFE7F00900F5CFE8F035
:1026E8000900F5CFE9F056905692000EF86E0001F9
:1026F8006CEF16F09D9000017E6B7F6B7B6BCECFED
:102708007CF0CFCF7DF07C2908E17D2906E17B2B89
:102718007B057A6F020E7A65F2D79EA004D07E2BD5
:10272800552801E17F2B55507E27D8517F279D8062
:102738007CC076F07DC077F07EC078F07FC079F0FD
:1027480012009D90096A0A6A066ACECF07F0CFCFB9
:1027580008F0072808E1082806E1062A0604056E9D
:10276800020E0564F2D79EA004D0092A552801E17B
:102778000A2A555009260001D8510A269D8007C00B
:1027880001F008C002F009C003F00AC004F012000A
:102798000001776F000EF0B6010E796F000EF2B8E7
:1027A800010E7A6FF298F0968C92778D7751EEEC55
:1027B80016F0000EEEEC16F00001786F8C8279B1FD
:1027C80002D0F09601D0F08600017AB102D0F298DA
:1027D80001D0F2880001785112007B6B7C6B785134
:1027E80079111BE0010E7A6F04D0D89078377937C9
:1027F8007A2B79AFFAD7D8907B377C377851765DCA
:102808007951775905E37851765F7951775B7B8108
:10281800D890793378337A2FEED77BC076F07CC0A6
:1028280077F012006E6F000EF0B6010E0001706FA7
:10283800000EF2B8010E716FF298F0968C926E8DC0
:102848006E5109EC17F0000E09EC17F000016F6FDC
:102858008C8270B102D0F09601D0F086000171B17F
:1028680002D0F29801D0F28800016F511200026E76
:10287800000EF0B6010E046E000EF2B8010E056EE1
:10288800F298F0968C92028C02501AEC17F0000E17
:102898001AEC17F0036E8C8204B002D0F09601D0C7
:1028A800F08605B002D0F29801D0F28803501200E9
:1028B800000EF0B6010E796F000EF2B8010E7A6FB5
:1028C800F298F0968C927851EEEC16F00001775160
:1028D800EEEC16F08C82000179B102D0F09601D0AE
:1028E800F08600017AB102D0F29801D0F288120085
:1028F800A66F33EC16F07C0E826F010E836FA50E67
:10290800846FFF0E856FA6C086F0876BA5C088F020
:10291800896B2CEC00F08C0E826F010E836FB50E64
:10292800846FFF0E856F2CEC00F02BEF12F0AB6F6D
:102938000001AA510BE11C0EA56FFE0EA66FABC0DD
:10294800A7F0010EA86FBAEC14F00AD05C0EA56FC0
:10295800FE0EA66FABC0A7F0010EA86FBAEC14F07C
:10296800030E776FE80E766FBEEF0EF033EC16F0BD
:102978007C0E826F010E836FA5C084F0A6C085F01F
:10298800A7C086F0876B2CEC00F02BEC12F0A85156
:10299800D8B41200A96B776BFA0E766FBEEC0EF006
:1029A800A92B070EA965F7D7070C7F51801117E0EF
:1029B800010E816F04D0D8907F378037812B80AF8C
:1029C800FAD77F517D5D80517E5904E37F517D5F49
:1029D80080517E5BD89080337F33812FF2D77DC0C2
:1029E8007DF07EC07EF01200776F000EF0B6010E0B
:1029F8000001786F000EF2B8010E796FF298F09628
:102A0800899A7751EEEC16F0898A000178B102D0E4
:102A1800F09601D0F086000179B102D0F29801D089
:102A2800F2881200000EF0B6010E046E000EF2B825
:102A3800010E056EF298F0968C9203501AEC17F07E
:102A480002501AEC17F08C8204B002D0F09601D034
:102A5800F08605B002D0F29801D0F2881200000189
:102A6800B26FB2510A0D7A0EF324D96E020EF42019
:102A7800DA6E0201DFAE000C0001B2510A0D720ECF
:102A8800F324AD6F020EF420AE6F010EAF6FB1C02C
:102A9800B0F0D0EF16F0026E000EF0B6010E036E25
:102AA800000EF2B8010E046EF298F096899A025060
:102AB8001AEC17F0898A03B002D0F09601D0F0869C
:102AC80004B002D0F29801D0F288120000017F6FA2
:102AD800030E7F6501D0030C7FC0E9F0E9C07EF0EA
:102AE8007E3BF00E7E17CB510F0B7E11CB6FE90E9C
:102AF800776F786B030E796F010E7A6F64EF11F0C0
:102B08008C9A030EC4EC16F000017951C4EC16F04F
:102B18000BD02EEC17F077C0D9FF78C0DAFFDF6E44
:102B28000001774B782B7A0700017A51F2E18C8A01
:102B380012007651C525796F7751C6217A6F7905CC
:102B4800800E7A5901E3000C7851D96EDA6AC5C053
:102B5800DEFFC6C0DDFF7651C5277751C623010CBD
:102B680029EC17F00009D8B41200D12BD1C0A7F076
:102B7800D35122EC17F0897E070E776FD00E766F4F
:102B8800BEEC0EF012EC17F033EF17F07C6B7C51B3
:102B98007825D96E000E7921DA6E7C517625E16EA2
:102BA800000E7721E26EDE50E61801E0000C7C2B67
:102BB800070E7C65ECD7010C7F6F00017C6B7F51A1
:102BC8001EEC11F000090CE07FC0E6F0E60E776F0E
:102BD800786B020E796F010E7A6F64EC11F0010CBC
:102BE800000C766B776B77510A0D7A0EF324D96E49
:102BF800020EF420DA6EDFAE02D00001762B00015F
:102C0800772B090E7765EFD77651120076C07CF0E6
:102C180077C07DF008D07CC0D9FF7DC0DAFF78C0CE
:102C2800DFFF7C4B7D2B7A07D8A07B077A29F3E15D
:102C38007B29F1E11200776F080E0001786F796B3C
:102C4800D89077357935796FD89077377651795D1F
:102C580002E37651795F782FF3D779511200010E8C
:102C680000EC17F00001776B020E766FBEEC0EF0E9
:102C78007C0E766F010E776F796B200E786F7B6B09
:102C88007A6F0AEF16F076517803F3CF7AF0F4CF23
:102C98007BF076517903F3507B2777517803F35013
:102CA8007B277AC076F07BC077F01200D20EA56F32
:102CB800FE0EA66FA76BA86BBAEC14F0D4EC10F05C
:102CC800AA6FAA0501E1000C020EAA19F7E1010C8E
:102CD800E4EC0FF0AAEC16F08CEC16F05AEC16F0B7
:102CE8000101C66FC651A8EC11F038EC17F0FDD7FA
:102CF800020E0001D061020CD051390D000EF324F0
:102D0800D96E020EF420DA6E000EDF6AD069120066
:102D1800980EA56FFE0EA66FA76B010EA86FBAECF2
:102D280014F0070E776FD00E766FBEEF0EF0786F47
:102D38000001776B3A0E786105D02F0E786502D0C6
:102D4800010E776F77C076F076311200380ECD6EAF
:102D58009A6ACF6ACE6ACECF51F0CFCF52F09E900A
:102D68009D8036EF17F0856F04D07EEC13F07EEF70
:102D780013F000018551F9E0010AD8A4030A1200F2
:102D88000001766FA49E729E76C075FF72BEFBD757
:102D9800A4AEFED7A49E1200ADC0A3F0AEC0A4F0AE
:102DA800000EA56BB0C0A6F038EF10F0AD6F0001B3
:102DB800A36BA46BA56BADC0A6F0010E38EF10F0A5
:102DC800950E0001A56FFF0EA66FA76B010EA86FE9
:102DD800BAEF14F00001766FC69E76C0C9FFC7A08F
:102DE800FED7C9501200776F8C9E8C8600017751F0
:102DF800C4EC16F08C8E12000001776F8C9E8C96B6
:102E08007751C4EC16F08C8E120000016D6FC69ECF
:102E18006DC0C9FFC7A0FED7C9501200B50EA56F77
:102E2800FE0EA66FA76BA86BBAEF14F0016EC69ED4
:102E380001C0C9FFC7A0FED7C9501200A86FA7C01C
:102E4800A5F00001A8517CEF14F0B9EC03F0CCB761
:102E5800010C000C000EC4EC16F075501200CC9753
:102E68007CEF16F0CD801200F0EF07F000F01200B2
:082E7800010103001200120029
:10FC6A000020B2202020B22020B220B22020202062
:10FC7A0020B220B20D0AB220B220B220B220202037
:10FC8A00B22020B22020B220200D0AB22020B220B9
:10FC9A0020B220B220B22020B22020B220B20D0A17
:10FCAA00B22020B22020B220B22020B220B220B24C
:10FCBA002020B20D0AB22020B22020B220B2202089
:10FCCA0020B220B2202020B20D0A2020202020209D
:10FCDA00202020202020202020202020200D0AB2B1
:10FCEA00B2B22020B2B2B2B20D0AB22020B220B211
:10FCFA002020200D0AB22020B220B2B2B2B20D0AE0
:10FD0A00B22020B220B22020200D0AB2B2B22020A6
:10FD1A00B2B2B2B20D0A2020202020202020200DCD
:10FD2A000A36008402090409060C08C10A7D0C641B
:10FD3A000E14100012001400163818C81A0D1C00F0
:10FD4A001E72203822382407260028002A692C81AE
:10FD5A002E7E309632F83488364038003AE83C0035
:10FD6A003E4F4F4F4F4F4F4F4F4F4F4F4F4F4F4FAA
:10FD7A004F4F4F4F4F4F4F50505050505050505080
:10FD8A0050222426282A2C2E30323437393B3D3F44
:10FD9A00414345474A4C4E0507090B0D0F111416EE
:10FDAA001801000800400000020010008001000A4B
:10FDBA00006400E803102701001000000100100D84
:10FDCA000A0D0A436F6E6E656374696F6E20202098
:10FDDA002020506565724C6F6E674164647265736A
:10FDEA0073202020202050656572496E666F0D0AC7
:10FDFA00005043203A535731206F72205357322014
:10FE0A0020746F2042726F616443617374206D7352
:10FE1A006700436F6E6E656374696E67205065652F
:10FE2A007220206F6E204368616E6E656C202564B7
:10FE3A002000535731203A20556E6963617374204C
:10FE4A002020535732203A204E657874204E6F6432
:10FE5A00650020436F6E6E65637465642050656546
:10FE6A007220206F6E204368616E6E656C20256477
:10FE7A00005242303A2042726F61646361737420A7
:10FE8A00205242323A20556E696361737400536995
:10FE9A006D706C65205032502020202020204D5259
:10FEAA004638395841204E6F6465005357313A201D
:10FEBA0042726F61646361737420205357323A202F
:10FECA00556E6963617374005357313A4E657720F2
:10FEDA004E6574776F726B205357323A4672656576
:10FEEA007A65720042726F61646361737420506153
:10FEFA00636B6574207769746820525353492000F4
:10FF0A00556E6963617374205061636B6574207701
:10FF1A00697468205253534920005242303A2530BE
:10FF2A0032642D2530327825303278253032780007
:10FF3A00416464726573733A202530327825303211
:10FF4A007825303278000D0A0D0A4D792041646413
:10FF5A00726573733A203078003031323334353673
:10FF6A00373839414243444546003031323334351B
:10FF7A0036373839616263646566005242323A2024
:10FF8A0043686E6765206E6F64650020556E69630D
:10FF9A00617374204661696C65640054583A25336C
:10FFAA0064202C2052583A253364004D65737361DE
:10FFBA00676520436F756E74002020202020202062
:10FFCA002020202020200020204368616E6E656C6E
:10FFDA003A20002043683A2530326400536563753D
:0EFFEA0072656420002066726F6D20000000BA
:08FFF800ACF5DAFBFFF9FFF1A3
:00000001FF
