:040000002AEF00F0F3
:0E0008005682E1CF29F0E2CF2AF006EF0AF08F
:100018005680D8CF73F0E8CF74F0E0CF75F0F2B225
:10002800F2A801D0F292600E0001D51907E1280E5E
:100038008BEC1AF0726FD8907231436E75C0E0FF86
:1000480074C0E8FF73C0D8FF56901000A1EF19F0F4
:10005800CCEC19F076C005F377C006F378C007F347
:1000680079C008F3CCEC19F076C00AF377C00BF32B
:1000780078C00CF379C00DF3E7512CE00101A551CC
:1000880003010A5D0001BB6F0101A65103010B5971
:100098000001BC6F0101A75103010C590001BD6F9C
:1000A8000101A85103010D590001BE6F810EBB5D0E
:1000B800C30EBC59C90EBD59010EBE5936E374ECC6
:1000C80019F00AC3A5F10BC3A6F10CC3A7F10DC320
:1000D800A8F12BD00101A15103010A5D0001BB6FFA
:1000E8000101A25103010B590001BC6F0101A35189
:1000F80003010C590001BD6F0101A45103010D5901
:100108000001BE6FBE5107E1E10EBB5D700EBC5928
:10011800720EBD590AE306EC1CF00AC3A1F10BC329
:10012800A2F10CC3A3F10DC3A4F10101A151030174
:10013800055D0001BB6F0101A251030106590001D1
:10014800BC6F0101A351030107590001BD6F0101F3
:10015800A451030108590001BE6FBE5107E1E10E29
:10016800BB5D700EBC59720EBD590CE3E7510AE035
:10017800E6EC0BF005C3A1F106C3A2F107C3A3F196
:1001880008C3A4F1D3A336D0CCEC19F076C000F3A1
:1001980077C001F378C002F379C003F301019551E8
:1001A8000301005D0001BB6F010196510301015974
:1001B8000001BC6F01019751030102590001BD6F95
:1001C80001019851030103590001BE6FBE5107E1B7
:1001D800210EBB5DA10EBC59070EBD590BE3D3938D
:1001E800000E776F020E786F040E796F8C0E7A6F9F
:1001F80059EC17F00001D3B71200B3EC0DF0000969
:10020800D8B412000301046B2F6A39A404D000018A
:10021800BB6BBB2B02D00001BB6B2F50BB19FC0B77
:10022800BB192F6E39A602D02F8601D02F963950D0
:10023800030BE80604E10001BB6BBB2B02D00001F5
:10024800BB6BBB3BBB472F50BB19DF0BBB192F6EDA
:1002580039AE02D02F8C01D02F9C39AE04D03AC0D1
:1002680032F03BC033F03EC036F03CC034F03DC005
:1002780035F040C038F03FC037F02FAAB3D28DD246
:100288000001E7510CE00301106B20EE01F034503F
:10029800D9263550DA220001E551DE1803E048EC92
:1002A8001DF0A2D2030EE919FAE074EC0EF0030176
:1002B800106F20EE03F03450D9263550DA22AA0EFA
:1002C800DE1821E10E6B090E0E6501D01CD032C07C
:1002D80076F033C077F00E510E0D040EF3240001B2
:1002E800786F020EF420796F86EC1CF0000908E0A4
:1002F800870E03010E25D96EDA6A010EDA22DF684D
:1003080003010E2BE0D70001E90508E10301100500
:1003180005E0020E101902E0F30E106F0001D96B10
:10032800AB0ED925D96EDA6A010EDA22910EDF6E8C
:10033800D92BAB0ED925D96EDA6A010EDA2210C391
:10034800DFFFD92BAB0ED925D96EDA6A010EDA2276
:10035800D1C0DFFFD92B0301105102E010051FE1C6
:10036800AB0E0001D925D96EDA6A010EDA22D2C0A5
:10037800DFFFD92B0301116B115111E11151E80F66
:10038800D96EDA6AAB0E0001D925E16EE26A010E78
:10039800E222DFCFE7FFD92B0301112BEDD748EC81
:1003A8001DF032C0A3F033C0A4F0010EA56F000EFB
:1003B8002FB6010EA66F000EBDEC14F0E6EC0BF0A4
:1003C8000301105101E010D20001CF510E0D000EB3
:1003D800F324776F020EF420786FCF510E0DF3508F
:1003E800040F796F0E0E7A6F59EC17F0FDD1020EDB
:1003F8000001E96501D053D720EE01F03450D92629
:100408003550DA22E551DE1801E049D7D96BAB0E39
:10041800D925D96EDA6A010EDA22970EDF6ED92B4A
:10042800AB0ED925D96EDA6A010EDA22D2C0DFFF07
:10043800D92B0301116B115111E11151E80FD96E3C
:10044800DA6AAB0E0001D925E16EE26A010EE222FA
:10045800DFCFE7FFD92B0301112BEDD748EC1DF0B7
:1004680032C0A3F033C0A4F0010EA56F000E2FB662
:10047800010EA66F000EBDEC14F0B6D10001D96BC9
:10048800AB0ED925D96EDA6A010EDA22920EDF6E2A
:10049800D92B0301116B090E116501D047D01151F9
:1004A8000E0D0C0EF324D96E020EF420DA6EDFAEB8
:1004B8003AD032C076F033C077F0030111510E0DF7
:1004C800040EF3240001786F020EF420796F86EC95
:1004D8001CF0000928E0030111510E0D0C0EF32445
:1004E800D96E020EF420DA6EDF6A11510E0D000E7D
:1004F800F3240001776F020EF420786F0301115185
:100508000E0DF350040F0001796F0E0E7A6F59EC3F
:1005180017F0AB0E0001D925D96EDA6A010EDA227E
:10052800DF6AD92B03D00301112BB5D748EC1DF096
:100538000A0E030111190AE1AB0E0001D925D96E83
:10054800DA6A010EDA22F00EDF6ED92B32C0A3F080
:1005580033C0A4F0010E0001A56F000E2FB6010EE6
:10056800A66F000EBDEC14F03FD174EC0EF020EE37
:1005780002F03450D9263550DA22DF50E66FE60E05
:10058800776F786BBB0E796F010E7A6F59EC17F0A5
:100598000001D383CCEC19F076C095F177C096F1C1
:1005A80078C097F179C098F17AD620EE01F03450EE
:1005B800D9263550DA22DF50D8E0010AD6E06FD6C6
:1005C8000001D3BBD39B6BD620EE01F03450D92663
:1005D8003550DA22DF5001E062D60301116B090EB3
:1005E800116501D05CD611510E0D0C0EF324D96E95
:1005F800020EF420DA6EDFAE31D032C076F033C0AE
:1006080077F0030111510E0D040EF3240001786FE9
:10061800020EF420796F86EC1CF000091FE003013C
:1006280011510E0D0C0EF324D96E020EF420DA6E61
:10063800DF6A11510E0D000EF3240001776F020ED0
:10064800F420786F030111510E0DF350040F0001CF
:10065800796F0E0E7A6F59EC17F021D60301112B22
:10066800BED720EE01F03450D9263550DA220001E9
:10067800E551DE1801E013D620EE02F03450D926F9
:100688003550DA22DF5013EC14F009D60001E75197
:1006980001E005D6010EE26F02D60001E75101E044
:1006A800FED520EE01F03450D9263550DA22DF503D
:1006B800BB6FBB05DE6F34C07DF035C07EF06CECDF
:1006C80012F0EDD50001E75101E1E9D534C076F02B
:1006D80035C077F0A7EC15F00301096F09290EE082
:1006E80034C0B3F035C0B4F009C3B5F032C0B6F0C9
:1006F80033C0B7F00CEC15F00301046F045101E1AD
:10070800CED532C0ADF033C0AEF0B1EC1CF0C7D5D9
:100718000001E75101E1C3D503010F6B090E0F6515
:1007280001D0BDD532C0D9FF33C0DAFF0F510E0D4D
:10073800040EF324E16E020EF420E26EDE50E61899
:100748002AE120EE01F03250D9263350DA220F5137
:100758000E0D050EF324E16E020EF420E26EDE505B
:10076800E61819E120EE02F03250D9263350DA2289
:100778000F510E0D060EF324E16E020EF420E26E08
:10078800DE50E61808E17D0E0F25D96EDA6A010EF3
:10079800DA22DF2A84D50F2BC1D734C0D9FF35C060
:1007A800DAFFDF50770A01E178D70D0AB1E0FB0ADA
:1007B80001E166D5030A01E161D6060A01E151D7D4
:1007C800030A01E114D6160A01E1EFD6030A01E192
:1007D800FBD6050A01E1F4D65B0A01E173D7160AD4
:1007E80001E154D70001D387365005E00001D3B9A1
:1007F80002D0D3AB12000001D39748EF1DF0860E4C
:100808009C6F78D3250EA21909E082C0D9FF83C056
:10081800DAFFA2C0DFFF824B832B6CD3A06BA16BE6
:10082800A36BA46B09D0A38705D0A38103D0A487A9
:1008380001D0A385844B852B84C0F6FF85C0F7FFC4
:100848000800F550200AF1E0030AF1E00E0AEBE097
:100858001D0AEFE0A3B7A39584C0F6FF85C0F7FF94
:100868000800F55067EC1DF02EE3A06BA16BA0C04B
:1008780076F0A1C077F0796B0A0E786F03EC1DF063
:1008880076C0A0F077C0A1F0D00E8E6F8F6984C0BB
:10089800F6FF85C0F7FF0800F550906F916B8E51F9
:1008A80090278F5191239051A0279151A123844BD8
:1008B800852B84C0F6FF85C0F7FF0800F55067EC6C
:1008C8001DF014E3D4D784C0F6FF85C0F7FF0800F5
:1008D800F5502A0A0BE19C51D96EDA6ADECFA0F0F6
:1008E800DDCFA1F0020E9C27844B852B84C0F6FF38
:1008F80085C0F7FF0800F5502E0A30E1A48D844B1F
:10090800852B84C0F6FF85C0F7FF0800F5502A0A3A
:100918000AE19C51D96EDA6ADF509F6F020E9C275C
:10092800844B852B8AD09F6B0FD084C0F6FF85C07F
:10093800F7FF0800F5CF8EF09F510A0DF3508E2572
:10094800D00F9F6F844B852B84C0F6FF85C0F7FFBF
:100958000800F55067EC1DF070E3E7D79F6B6DD08A
:10096800A38D88D0A38BA38F85D09F510FE09FC004
:100978008EF08F6B8EBF8F079A518E5D9B518F596A
:1009880005E29F519A6F9B6B9ABF9B07A0519A5D96
:10099800A1519B5905E29A51A05F9B51A15B02D0DE
:1009A800A06BA16BA3B71DD008D082C0D9FF83C0AC
:1009B800DAFF200EDF6E824B832BA007D8A0A10799
:1009C800A029F3E1A1290DE0F0D79951D96EDA6A8F
:1009D80082C0E1FF83C0E2FFDFCFE7FF992B824BA4
:1009E800832B9A07D8A09B079A29EFE19B29EDE171
:1009F800A3A780D208D082C0D9FF83C0DAFF200E17
:100A0800DF6E824B832BA007D8A0A107A029F3E1B2
:100A1800A12901E16FD2EFD79C51D96EDA6ADF5074
:100A2800A26F020E9C27A20E996F000E9B6F010EFB
:100A38009A6F9BD7C00EA3131DD084C0F6FF85C044
:100A4800F7FF844B852B0800F5CFA2F0A25101E1F6
:100A58005DD2580A87E03B0ADFE0070A0BE00D0A7F
:100A680009E0060A01E17CD71A0AE4E00D0A01E16F
:100A78007AD7D9D7A3C08EF0C00E8E1712E19C5139
:100A8800D96EDA6ADECF9DF0DDCF9EF0020E9C278C
:100A98009EAF10D0030EA3139D6D9E1FD8B09E2B42
:100AA80009D09C51D96EDA6ADECF9DF0DDCF9EF079
:100AB800020E9C279F5147E19D519E1144E19F2BB7
:100AC80042D0010EA26F050EA21946E0A251020DF6
:100AD800910EF324F66EFD0EF420F76E0900F55022
:100AE8009D5D0900F5509E5937E3A22BECD7010E06
:100AF800A26F040EA21930E0A251020D9B0EF3243E
:100B0800F66EFD0EF420F76E0900F5509D5D0900A4
:100B1800F5509E5921E3A22BECD7010EA26F060EC9
:100B2800A2191AE0A251020D850EF324F66EFD0EED
:100B3800F420F76E0900F5509D5D0900F5509E59A7
:100B48000BE3A22BECD7A351C00BBBE0400AE5E0B6
:100B5800C00ACDE0400AB5E0A251800A8E6F9F51CD
:100B6800800A8E5D03E29FC0A2F009D09F51800ADF
:100B78008E6FA251800A8E5D02E2A2C09FF0A05142
:100B8800A11108E0A3C08EF0030E8E1703E0A007A2
:100B9800D8A0A107A4AD13D0800E9FBF7F0E8E6F83
:100BA800A0519F5DA151800A8E5907E29F51A05F15
:100BB800000E9FBFFF0EA15B02D0A06BA16BC40EFD
:100BC8008E6F080E8F6FA3C090F0A4C091F08E5165
:100BD80090178F519117400E90190AE1080E91193C
:100BE80007E1A051A11124E0A007D8A0A10720D0B7
:100BF800C00E8E6F080E8F6FA3C090F0A4C091F046
:100C08008E5190178F519117800E901911E1080E8F
:100C180091190EE1A1BF0AD0A15103E1030EA05D15
:100C280005E3FE0EA027FF0EA12302D0A06BA16B47
:100C3800800EA2BF7F0E8E6FA051A25DA151800AC7
:100C48008E5907E2A251A05F000EA2BFFF0EA15B62
:100C580002D0A06BA16BA3A54FD0A3C08EF0030E4A
:100C68008E1709E082C0D9FF83C0DAFF2D0EDF6E30
:100C7800824B832B31D0A3A106D082C0D9FF83C079
:100C8800DAFF200EF4D7C00E8E6F080E8F6FA3C048
:100C980090F0A4C091F08E5190178F519117800E4B
:100CA80090191AE1080E911917E182C0D9FF83C083
:100CB800DAFF300EDF6E824B832BA3BB03D0946B1D
:100CC800780E02D0946B580E936F82C0D9FF83C000
:100CD800DAFF93C0DFFFCCD7A051A11101E1F2D018
:100CE80082C0D9FF83C0DAFF300EDF6E824B832BC0
:100CF800A007D8A0A107F0D7A051A11110E0A3B771
:100D08000ED082C0D9FF83C0DAFF200EDF6E824B7F
:100D1800832BA007D8A0A107A051A111F2E1A3C07D
:100D28008EF0030E8E1709E082C0D9FF83C0DAFF68
:100D38002D0EDF6E824B832B08D0A3A106D082C074
:100D4800D9FF83C0DAFF200EF4D7C00E8E6F080ECD
:100D58008F6FA3C090F0A4C091F08E5190178F515F
:100D68009117400E90190CE1080E911909E182C003
:100D7800D9FF83C0DAFF300EDF6E824B832BA2D0FF
:100D8800C00E8E6F080E8F6FA3C090F0A4C091F0B4
:100D98008E5190178F519117800E90191BE1080EF4
:100DA800911901E08FD082C0D9FF83C0DAFF300EDD
:100DB800DF6E824B832BA3BB03D0966B780E02D0D9
:100DC800966B580E956F82C0D9FF83C0DAFF95C025
:100DD800DFFFD3D777D09F51020D910EF324F66E23
:100DE800FD0EF420F76E0900F5CF78F00A00F5CF74
:100DF80079F09DC076F09EC077F066EC1AF076C068
:100E08007DF077C07EF0806B0A0E7F6F72EC1BF06E
:100E18007D5145D09DC076F09EC077F09F51020D60
:100E28009B0EF324F66EFD0EF420F76E0900F5CF45
:100E380078F00A00F5CF79F066EC1AF076510F0BCE
:100E4800926FA3BB04D06C0E976FFF0E03D05B0E9E
:100E5800976FFF0E986F925197258E6F000E98210D
:100E68008F6F8EC0F6FF8FC0F7FF0800F5CFA2F096
:100E780022D09DC076F09EC077F09F51020D850E5E
:100E8800F324F66EFD0EF420F76E0900F5CF78F026
:100E98000A00F5CF79F066EC1AF07651070B300F9F
:100EA800A26F09D0A351C00B96E0400AE2E0C00A45
:100EB800B1E0400A90E082C0D9FF83C0DAFFA2C047
:100EC800DFFF5BD79F079F29EDE1A3B7A1BF12D032
:100ED800A15102E1A0050EE382C0D9FF83C0DAFF69
:100EE800200EDF6E824B832BA007D8A0A107A0514C
:100EF800A111F2E184C0F6FF85C0F7FF844B852B72
:100F08000800F5CFA2F0A25101E07CD482C0D9FF3D
:100F180083C0DAFFDF6A000CCCEC19F076C099F1D7
:100F280077C09AF178C09BF179C09CF1010EDD6F12
:100F380065D2B0EC1AF0000901E013D285EC16F086
:100F48000301206F200504E0020E201901E009D2F8
:100F58000001E75133E0D96BE06B140EE06501D076
:100F680022D0060E766FDB51DBEC1CF0150D870ED8
:100F7800C46FFC0EC56FF350C427F450C523E0516D
:100F8800C427000EC523C4C0F6FFC5C0F7FFAB0ECB
:100F9800D925D96EDA6A010EDA220800F5CFDFFF0B
:100FA800D92BE02BDAD7DB2B000E8FEC1DF0D8C045
:100FB800A7F0DA2BDA51D8EC1DF0D3D10301226B5C
:100FC800010E0001DC6F03011F6FC7D1EFEC1CF0AD
:100FD800030122510001E6193FE1CE0E826F010E96
:100FE800836FDD0E846FFE0E856F03012251040DA1
:100FF8003A0EF324D96E010EF420DA6EDF500001A8
:10100800866F876B03012251040D370EF324D96EC6
:10101800010EF420DA6EDF500001886F896B03013E
:101028002251040D380EF324D96E010EF420DA6E25
:10103800DF5000018A6F8B6B03012251040D390EBA
:10104800F324D96E010EF420DA6EDF5000018C6FA4
:101058008D6B03EC04F03ED0CE0E826F010E836FD1
:10106800F60E846FFE0E856F03012251040D3A0EB1
:10107800F324D96E010EF420DA6EDF500001866F7A
:10108800876B03012251040D370EF324D96E010E2C
:10109800F420DA6EDF500001886F896B030122515A
:1010A800040D380EF324D96E010EF420DA6EDF50E9
:1010B80000018A6F8B6B03012251040D390EF32452
:1010C800D96E010EF420DA6EDF5000018C6F8D6B43
:1010D80003EC04F0CE0E826F010E836FF60E846F60
:1010E800FE0E856F03012251040D3A0EF324D96ECA
:1010F800010EF420DA6EDF500001866F876B030162
:101108002251040D370EF324D96E010EF420DA6E45
:10111800DF500001886F896B03012251040D380EDE
:10112800F324D96E010EF420DA6EDF5000018A6FC5
:101138008B6B03012251040D390EF324D96E010E75
:10114800F420DA6EDF5000018C6F8D6B03EC04F035
:10115800DE0E826F010E836F7D0E846FFF0E856F2A
:1011680003EC04F0DDEC17F0010EDC6FF2D085EC37
:1011780016F00301216FB0EC1AF00301210501E01C
:10118800C8D01F6B0001DC6B030122510001E61976
:101198002FE1D96BE06B140EE06501D022D0060E6A
:1011A800766FDB51DBEC1CF0150D870EC46FFC0E5F
:1011B800C56FF350C427F450C523E051C427000E6F
:1011C800C523C4C0F6FFC5C0F7FFAB0ED925D96E3D
:1011D800DA6A010EDA220800F5CFDFFFD92BE02BFF
:1011E800DAD7000EB16BEAEC1BF00001DA2B82D0E3
:1011F800D96BAB0ED925D96EDA6A010EDA22CC0E7C
:10120800DF6ED92B03012251040D370EF324D96E5A
:10121800010EF420DA6EAB0E0001D925E16EE26A08
:10122800010EE222DFCFE7FFD92B03012251040D83
:10123800380EF324D96E010EF420DA6EAB0E0001DD
:10124800D925E16EE26A010EE222DFCFE7FFD92B52
:1012580003012251040D390EF324D96E010EF42036
:10126800DA6EAB0E0001D925E16EE26A010EE222C8
:10127800DFCFE7FFD92B040EE06F180EE06501D031
:1012880029D0FC0EC46FC569060E766FDB51DBEC06
:101298001CF0150D870EC66FFC0EC76FF350C627DE
:1012A800F450C723E051C627000EC723C451C627F0
:1012B800C551C723C6C0F6FFC7C0F7FFAB0ED92577
:1012C800D96EDA6A010EDA220800F5CFDFFFD92BD2
:1012D800E02BD3D7000E3DEC16F003011E6F1E5114
:1012E80084E1220E0001A56FFF0EA66FA76BA86B05
:1012F80053EC1BF0D8C0A7F0DA51D8EC1DF0050E5E
:10130800776FDC0E766F43EC13F0E75138EC1DF085
:1013180020D0020E21191DE122510001C46FC56BB6
:10132800C669C769DE51C86FC96BC651C827C7519E
:10133800C923C451C85DC951800ACA6FC551800A02
:10134800CA5903E20301226B02D00301222B0001D8
:10135800DC6B0001DC5101E00AD703011F0501E144
:1013680035D60001E15106E0E75104E1BF6B23ECFB
:101378000FF0E16BCCEC19F076C09DF177C09EF1CF
:1013880078C09FF179C0A0F1010199519D5D0001DC
:10139800C46F01019A519E590001C56F01019B510B
:1013A8009F590001C66F01019C51A0590001C76FE8
:1013B800C75107E1E10EC45D700EC559720EC659DA
:1013C8001DE3E7511BE0EFEC1CF0CE0E826F010E1F
:1013D800836F490E846FFF0E856FE4C086F0876BBC
:1013E80003EC04F0DDEC17F0070E776FD00E766F84
:1013F80043EC13F0DD6B010E38EC1DF0DD5101E01C
:1014080098D51200D9CF2BF0DACF2CF0F3CF2DF0EE
:10141800F4CF2EF0F0B0F0A6ADD1600E0001D519D2
:1014280001E0A4D143C0D6F0899A000ED0EC1DF09B
:1014380000016A6F898A6B6B6B51390D8C0EF3242E
:10144800D96E020EF420DA6EDFA005D000016B2BF6
:10145800010E6B65F1D7020E00016A1903E1010E56
:10146800676F01D0676B370E6A6107D06A5105E074
:10147800010E6B6513D0675111E11A0ED4EC1AF006
:1014880008D0899A000ED0EC1DF0898A1A0ED4EC87
:101498001AF00001626F62B3F4D76AD1686B6AC050
:1014A80060F0616B5FD16007D8A06107675109E000
:1014B800899A6851630FD96EDA6A000ED0EC1DF074
:1014C80017D0899A6B51390D8C0E256E020E266E37
:1014D800252A000E2622F3502526F450262268518C
:1014E8002524D96E000E2620DA6E000ED0EC1DF0F1
:1014F800DF6E0001682B898A6A51685D01E232D18A
:10150800675123E06351030B020A07E14450641951
:1015180001E02ED1010EDF6F2BD1010E6B6501D0DA
:10152800ACD76B51390D8D0EF324D96E020EF42011
:10153800DA6E63C0DFFF6B51390D8E0EF324D96E5E
:10154800020EF420DA6E64C0DFFF6B51390DC40E51
:10155800F324D96E020EF420DA6E6AC0DFFF6969DF
:101568006B51390D8D0EF324D96E020EF420DA6E0C
:10157800DFAC33D000016C6B28D06C51CC25D96E10
:10158800000ECD21DA6E6B51390D8C0E266E020ECF
:10159800276E030E2626000E2722F3502626F45027
:1015A80027226C512624E16E000E2720E26EDE50C1
:1015B800E6180AE06B51390DC40EF324D96E020EF9
:1015C800F420DA6EDF6A59D76C2BCB31E832E83277
:1015D8000F0B256E25506C5DD0E300016B51390D62
:1015E8008D0EF324D96E020EF420DA6EDFAA37D0FE
:1015F8006C6B000E6C25D96EDA6A010EDA226C511A
:10160800630FE16EE26ADFCFE7FF6C2B010E6C65BA
:10161800F0D7060E0101006F00016B51390D8E0ED7
:10162800F324D96E020EF420DA6EDF500101016F47
:10163800F090116A020EF8EC10F000016C6B6C511E
:10164800630FD96EDA6A000E6C25E16EE26A010E4C
:10165800E222DFCFE7FF6C2B010E6C65F0D70001AB
:101668006C6B6C51060D5F0EF324D96E010EF420DD
:10167800DA6EDF5026E06B51390D8E0EF324D96EE9
:10168800020EF420DA6E6C51060D600EF324E16E42
:10169800010EF420E26EDE50E61813E11AEC1AF09F
:1016A8006C51060D610EF324D96E010EF420DA6E2A
:1016B80001C0DEFF02C0DEFF03C0DEFF04C0DEFFA4
:1016C80012D069290CE16C51060D5F0EF324D96E16
:1016D800010EF420DA6EDF5002E16CC069F06C2B69
:1016E800040E6C65BED7040E6C6542D0050E6961A8
:1016F8002ED06951060D5F0EF324D96E010EF42029
:10170800DA6E010EDF6E6B51390D8E0EF324D96E31
:10171800020EF420DA6E6951060D600EF324E16EB4
:10172800010EF420E26EDFCFE7FF1AEC1AF06951E0
:10173800060D610EF324D96E010EF420DA6E01C095
:10174800DEFF02C0DEFF03C0DEFF04C0DEFF6B5118
:10175800390D8C0EF324D96E020EF420DA6E0201D4
:10176800DF8006D06051611103E09DD6010ECE6F77
:10177800F09000F0F2B2F2A80CD0F292600E0001E4
:10178800D51907E1280ED4EC1AF0256ED89025302B
:10179800436E9EB09DA006D09E90452A455002E11A
:1017A8000001E32BF4EC1DF02EC0F4FF2DC0F3FF75
:1017B8002CC0DAFF2BC0D9FF2AC0E2FF29C0E1FF05
:1017C80056921100E451040D040EF326000EF42283
:1017D800F4BE05D0F45006E1230EF35C03E2010EDB
:1017E800B56F27D0E451040D040EF324766F000E74
:1017F800F420776F796B230E786F59EC18F07651D7
:10180800B56FE451040D040EF326000EF422F350D4
:10181800F4100FE0E451040D040EF324766F000E6B
:10182800F420776F796B230E786F40EC19F07651BE
:10183800B527B76BCCD0D96BAB0ED925D96EDA6A80
:10184800010EDA22770EDF6ED92BAB0ED925D96EB1
:10185800DA6A010EDA22E4C0DFFFD92BB751070D8F
:10186800AB0ED925D96EDA6A010EDA22F3CFDFFF83
:10187800D92BB729070DAB0ED925D96EDA6A010E17
:10188800DA22F3CFDFFFD92B040EB46FB751070D5F
:10189800F3CFB8F067D0E451B85D63E2B8510E0DEC
:1018A8000C0EF324D96E020EF420DA6EDFAE3ED0B1
:1018B8000001B8510E0D040EF324D96E020EF42067
:1018C800DA6EAB0ED925E16EE26A010EE222DFCFB5
:1018D800E7FFD92BB8510E0D050EF324D96E020E71
:1018E800F420DA6EAB0ED925E16EE26A010EE2222F
:1018F800DFCFE7FFD92BB8510E0D060EF324D96EB2
:10190800020EF420DA6EAB0ED925E16EE26A010E02
:10191800E222DFCFE7FFD92BAB0ED925D96EDA6AE1
:10192800010EDA22B8C0DFFFD92B19D0AB0E0001A7
:10193800D925D96EDA6A010EDA22DF68D92BAB0E07
:10194800D925D96EDA6A010EDA22DF68D92BAB0EF7
:10195800D925D96EDA6A010EDA22DF68DCD7040EDF
:10196800B427B82BB751AD6FAE6BAD2B000EAE23BD
:10197800070EAD03F3CFAFF0F4CFB0F0AE03F350E2
:10198800B027B851B16FB26BAF51B15DB251800A97
:10199800B36FB051800AB35901E27DD7B4C0B6F035
:1019A800220EB66501D00BD0AB0ED925D96EDA6AF6
:1019B800010EDA22110EDF6ED92BB62BF1D7A36BED
:1019C800A46B010EA56FA66BBDEC14F0B72BB55137
:1019D800B75D01E230D71200886FCDEC16F0D36BFB
:1019E800885137E18C6B8C510E0D0C0EF324D96E97
:1019F800020EF420DA6EDF6A8C510E0D040EF32409
:101A0800D96E020EF420DA6EDF6A8C510E0D050EC7
:101A1800F324D96E020EF420DA6EDF6A8C510E0DB3
:101A2800060EF324D96E020EF420DA6EDF6A7D0EFC
:101A38008C25D96EDA6A010EDA22DF6A870E8C25C8
:101A4800D96EDA6A010EDA22DF6A8C2B090E8C65F0
:101A5800CAD7D96B8C6B8C2B090E8C65FCD7885137
:101A68003CE0E50E776F786B020E796F010E7A6FA6
:101A780056EC1CF01F0EE56501D01F0CE90E776FC0
:101A8800786B030E796F010E7A6F56EC1CF0000E1E
:101A9800776F020E786F040E796F8C0E7A6F56ECA2
:101AA8001CF0E70E776F786BB80E796F010E7A6FBE
:101AB80056EC1CF0E60E776F786BBB0E796F010E53
:101AC8007A6F56EC1CF0E40E776F786BBA0E796F6C
:101AD800010E7A6F56EC1CF01ED0E50E776F786B0E
:101AE800020E796F010E7A6F59EC17F0E90E0001BA
:101AF800776F786B030E796F010E7A6F59EC17F0D8
:101B0800000E0001776F020E786F040E796F8C0E4D
:101B18007A6F59EC17F0EF0E00018A6F010E8B6F88
:101B280089838951870B4009896F88B102D08995CB
:101B380002D000018985899189C084F08AC085F026
:101B48008BC086F05AEC15F0E5519CEC1CF00001B6
:101B5800D26BD281E939F00BD213F08612008D6B6B
:101B6800CCEC19F076C088F077C089F078C08AF09C
:101B780079C08BF08D51060D5F0EF324D96E010EDE
:101B8800F420DA6EDF503FE08D51060D610EF3242C
:101B9800D96E010EF420DA6E8851DE5C8951DE5868
:101BA8008A51DE588B51DE582EE28D51060D610E9A
:101BB800F324D96E010EF420DA6EDECF80F0DECF8A
:101BC80081F0DECF82F0DECF83F08051885D846FB4
:101BD80081518959856F82518A59866F83518B59F2
:101BE800876F875107E1210E845DA10E8559070E85
:101BF800865909E38D51060D5F0EF324D96E010E47
:101C0800F420DA6EDF6A8D2B040E8D65A9D7D729EB
:101C180001E0000C8D6B8D51390D8C0EF324D96EBB
:101C2800020EF420DA6EDFA055D000018D51390D77
:101C38008D0EF324D96E020EF420DA6EDF50396E61
:101C48008D51390DC40EF324D96E020EF420DA6ECC
:101C5800DF503E6E020E8C6F39AC05D0CB31E832C6
:101C6800E8320F0B8C2739AE19D08D51390D8C0EF7
:101C7800806F020E816F802B000E8123F350802726
:101C8800F45081238C5180253A6E000E81213B6EE1
:101C9800CB31E832E8320F0B8C2702D03A6A3B6A24
:101CA8008C513E5E8D51390D8C0E806F020E816F06
:101CB800802B000E8123F3508027F45081238C5110
:101CC80080253C6E000E81213D6ED6C03FF08DC050
:101CD800D7F0010C00018D2B010E8D659CD7000CEF
:101CE8000001826B8369846B84510E0D0C0EF32402
:101CF800D96E020EF420DA6EDFAE16D032C076F05E
:101D080033C077F0000184510E0D040EF324786F70
:101D1800020EF420796F86EC1CF000090AE084C0FA
:101D280083F0010E826F09D00001832902E184C08B
:101D380083F0842B090E8465D7D7832901E1F10C40
:101D4800E95103E000018251120083C0D1F0846B95
:101D580084513224D96E000E3320DA6E83510E0D71
:101D6800000E7E6F020E7F6F040E7E27000E7F230B
:101D7800F3507E27F4507F2384517E25E16E000EB8
:101D88007F21E26EDFCFE7FF842B070E8465E0D763
:101D980083510E0D0C0EF324D96E020EF420DA6E68
:101DA800DF8E20EE02F03450D9263550DA22DF508B
:101DB80000017E6F010E7E1783510E0D0C0EF32469
:101DC800D96E020EF420DA6EDF507E19FE0B7E19F2
:101DD800DF6E846B845134247E6F000E35207F6F54
:101DE800030E7E25D96E000E7F21DA6E83510E0D0B
:101DF800000E806F020E816F0D0E8027000E81236A
:101E0800F3508027F450812384518025E16E000E21
:101E18008121E26EDFCFE7FF842B8451DBE083C0B2
:101E2800CFF0D399F3EC19F0E46FE40E776F786B89
:101E3800BA0E796F010E7A6F59EC17F083D7E9C0A3
:101E480012F30A0E0301136F146BCCEC19F076C071
:101E5800A1F177C0A2F178C0A3F179C0A4F1BF05C0
:101E680001E1FF0CCCEC19F076C015F377C016F33E
:101E780078C017F379C018F3200E0301155FA10E7F
:101E8800165B070E175B000E185B0001E96BD38920
:101E98007AD0CCEC19F076C019F377C01AF378C071
:101EA8001BF379C01CF303011551195D0001C06FC4
:101EB800030116511A590001C16F030117511B592B
:101EC8000001C26F030118511C590001C36FC351AF
:101ED80007E1210EC05DA10EC159070EC2594DE39D
:101EE80019C315F31AC316F31BC317F31CC318F34E
:101EF80003011407142947E1010E146F130713296E
:101F080003E10001D399FF0C0001D96BAB0ED92571
:101F1800D96EDA6A010EDA22810EDF6ED92BAB0E8A
:101F2800D925D96EDA6A010EDA22E5C0DFFFD92B8E
:101F3800AB0ED925D96EDA6A010EDA22D2C0DFFFDC
:101F4800D92B03011D6B1D51E80FD96EDA6AAB0E50
:101F58000001D925E16EE26A010EE222DFCFE7FF38
:101F6800D92B03011D2B1D51EEE00001A36BA46BBF
:101F7800010EA56FA66BBDEC14F0DFEC1DF0000997
:101F880002E0E9EC1DF00001D3B983D712C3E9F0F0
:101F9800CF511200B16F0001B1294DE1B26BB251BE
:101FA8000E0D0C0EF324D96E020EF420DA6EDFAE9D
:101FB80021D00001D96BAB0ED925D96EDA6A010E92
:101FC800DA22820EDF6ED92BB2510E0D040EF324E5
:101FD800A36F020EF420A46F010EA56F000EA66B6E
:101FE800BDEC14F0AD6BAE6BAD4BAE2BAD290F0E47
:101FF800AE59FAE30001B2510E0D0C0EF324D96E5E
:10200800020EF420DA6EDF6AB2510E0D000EF324D0
:10201800776F020EF420786FB2510E0DF350040F53
:10202800796F0E0E7A6F59EC17F00001B22B090E7A
:10203800B265B5D7090CB1510E0D0C0EF324D96E4B
:10204800020EF420DA6E0201DFAE12000001D96B35
:10205800AB0ED925D96EDA6A010EDA22820EDF6E4E
:10206800D92BB1510E0D040EF324A36F020EF420E8
:10207800A46F010EA56F000EA66BBDEC14F0AF6B3C
:10208800B06BAF4BB02BAF290F0EB059FAE3B1517B
:102098000E0D0C0EF324D96E020EF420DA6EDF6AF0
:1020A800B1510E0D000EF324776F020EF420786FF5
:1020B800B1510E0DF350040F796F0E0E7A6F59EF70
:1020C80017F0976F030E0001946F87D0956BDF6B45
:1020D800936B865118E0280E41EC1AF0966FD89051
:1020E8009633410E96650FD0932B9305876F040E98
:1020F800876501D0000C010E766F776B786B796B72
:10210800DAEC12F0E8D7F298F096200E95EC18F079
:102118001A0E786FC90E776FF5EC1AF00001975117
:10212800AFEC1BF00001996B0BD0000E9925D96E0E
:10213800DA6A010EDA22DF50AFEC1BF00001992BAE
:102148009751995DF2E3800E95EC18F0F288F086CD
:10215800CE5102E1F0A0FCD7CE6B200E95EC18F022
:10216800600E95EC18F0010100AB0ED001C144F0EF
:10217800CCEC19F076C08BF077C08CF078C08DF07D
:1021880079C08EF0DF5104E0010E0001986F2AD06B
:10219800CCEC19F076C08FF077C090F078C091F051
:1021A80079C092F08B518F5D876F8C519059886FF1
:1021B8008D519159896F8E5192598A6F8A5189111F
:1021C80005E1A90E875D610E8859DCE3952B95051D
:1021D800876F040E876101D07AD79407942901E0AC
:1021E80075D7986B98511200166E030E216E85D024
:1021F800226A0001DF6B206A115018E0280ED4EC27
:102208001AF0236ED8902332410E23640FD0202A6F
:102218002004126E040E126401D0040C010E016E2B
:10222800026A036A046AABEC13F0E8D7F298F096F6
:10223800200ED0EC18F01A0E036EC90E026ECDEC0B
:102248001BF0165021EC1CF0246A0AD0000E24243E
:10225800D96EDA6A010EDA22DF5021EC1CF0242A4A
:102268001650245CF3E3800ED0EC18F0F288F08668
:102278000001CE5102E1F0A0FBD7CE6B200ED0ECCE
:1022880018F0600ED0EC18F0010100AB0ED001C1BF
:1022980044F01AEC1AF001C018F002C019F003C09B
:1022A8001AF004C01BF0DF5103E0010E176E010C99
:1022B8001AEC1AF001C01CF002C01DF003C01EF099
:1022C80004C01FF018501C5C126E19501D58136E74
:1022D8001A501E58146E1B501F58156E15501410A6
:1022E80005E1A90E125C610E1358DDE3222A2204CF
:1022F800126E040E126001D07CD72106212801E05D
:1023080077D7176A1200230E9F6501D0000C9AB583
:1023180003D0A06BA02B02D00001A06BA03BA0476C
:10232800A0479A51A019BF0BA0199A6F9A8F9A517A
:10233800030BE80601E19A8F9AC000F1D0C001F1C1
:10234800D02B020EA16F9AAD1AD0A26B10D0A25159
:102358009B25D96E000E9C21DA6E000EA125E16E38
:10236800E26A010EE222DFCFE7FFA12BA22BCB31DD
:10237800E832E8320F0BA06FA051A25DE8E39AAFF4
:102388001AD0A26B10D0A251CC25D96E000ECD2147
:10239800DA6E000EA125E16EE26A010EE222DFCFBD
:1023A800E7FFA12BA22BCB31E832E8320F0BA06F4D
:1023B800A051A25DE8E3A26B10D0A2519D25D96E71
:1023C800000E9E21DA6E000EA125E16EE26A010E72
:1023D800E222DFCFE7FFA12BA22B9F51A25DEDE305
:1023E800000ECBB3010E866FA15165EF10F08C8EF5
:1023F8008D900001776B080E766F43EC13F08D809B
:10240800776B500E766F43EC13F0300EBEEC1DF078
:102418000001776B080E766F43EC13F0300EBEECBC
:102428001DF00001776B010E766F43EC13F0300E50
:10243800BEEC1DF00001776B010E766F43EC13F0D4
:10244800390EBEEC1DF00001776B010E766F43EC80
:1024580013F0140EBEEC1DF00001776B010E766FC1
:1024680043EC13F0560EBEEC1DF00001776B010E25
:10247800766F43EC13F06D0EBEEC1DF00001776B28
:10248800010E766F43EC13F0700EBEEC1DF00001E8
:10249800776B010E766F43EC13F00E0EBEEC1DF059
:1024A8000001776B010E766F43EC13F0060EBEEC5D
:1024B8001DF00001776B010E766F43EC13F0010EEF
:1024C800BEEC1DF00001776B280E766F43EF13F01A
:1024D800040E826F82C07FF0030E7F1761E1825184
:1024E8007F6F806B030E7F27000E802380BF05D08F
:1024F800805156E1230E7F5D53E282517D257F6F27
:10250800000E7E21806F030E7F25D96E000E80217C
:10251800DA6EDF50816F8151040D3A0EF324D96EC3
:10252800010EF420DA6E81C0DFFF82517D25D96E5D
:10253800000E7E21DA6E8151040D370EF324E16E10
:10254800010EF420E26EDFCFE7FF82517D257F6F19
:10255800000E7E21806F7F29D96E000E8021DA6EF1
:102568008151040D380EF324E16E010EF420E26E61
:10257800DFCFE7FF82517D257F6F000E7E21806FC0
:10258800020E7F25D96E000E8021DA6E8151040D6E
:10259800390EF324E16E010EF420E26EDFCFE7FF7F
:1025A800822B220E826596D71DEF18F076C07AF03E
:1025B80077C07BF078C07CF079C07DF0280E7A0374
:1025C800F3CF7EF0F4CF7FF0806B816B7B03F35009
:1025D8007F27F4508023000E81237A03F3507F274E
:1025E800F4508023000E8123280E7C03F3508027AB
:1025F800F4508123000E7B03F3508027F45081238D
:10260800000E7A03F3508027F4508123280E7D03AF
:10261800F3508127000E7C03F3508127000E7B03C3
:10262800F3508127000E7A03F35081277EC082F091
:102638007FC083F080C084F081C085F0510E82276E
:10264800FF0E83238423852385BFFF0C85518411C6
:1026580083110CE12E0E825D09E2120000F0D60E05
:1026680000018227FF0E83238423852385BF120060
:10267800855184118311F2E18205F0E2120076514E
:10268800786F7751796F7A6B7B6BA00E7803F3CFF5
:102698007CF0F4CF7DF07E6B7F6B7903F3507D2760
:1026A800F4507E23000E7F230F0E7803F3507D270E
:1026B800F4507E23000E7F23A00E7A03F3507E276A
:1026C800F4507F230F0E7903F3507E27F4507F23B5
:1026D800000E7803F3507E27F4507F23A00E7B036F
:1026E800F3507F270F0E7A03F3507F27000E7903EC
:1026F800F3507F27000E7803F3507F277CC080F0CB
:102708007DC081F07EC082F07FC083F0560E8027A6
:10271800FF0E81238223832383BFFF0C8351821101
:1027280081110CE1C40E805D09E2120000F0D90E9F
:1027380000018027FF0E81238223832383BF120099
:10274800835182118111F2E18005F0E2120001C08B
:1027580005F002C006F003C007F004C008F0280E18
:102768000502F3CF09F0F4CF0AF00B6A0C6A0602EF
:10277800F3500A26F4500B22000E0C220502F350E7
:102788000A26F4500B22000E0C22280E0702F350E2
:102798000B26F4500C22000E0602F3500B26F450C0
:1027A8000C22000E0502F3500B26F4500C22280EC2
:1027B8000802F3500C26000E0702F3500C26000EF8
:1027C8000602F3500C26000E0502F3500C2609C031
:1027D8000DF00AC00EF00BC00FF00CC010F0510E37
:1027E8000D26FF0E0E220F22102210BEFF0C1050D5
:1027F8000F100E100BE12E0E0D5C08E2120000F017
:10280800D60E0D26FF0E0E220F22102210BE120029
:1028180010500F100E10F3E10D04F1E21200B96F21
:102828000001BA6BCCEC19F076C0B1F077C0B2F009
:1028380078C0B3F079C0B4F0CCEC19F076C0B5F03C
:1028480077C0B6F078C0B7F079C0B8F0B151B55DCF
:10285800AD6FB251B659AE6FB351B759AF6FB451EE
:10286800B859B06FB05107E1E10EAD5DC10EAE5978
:10287800030EAF59E1E3D96BAB0ED925D96EDA6AED
:10288800010EDA22840EDF6ED92BAB0ED925D96E54
:10289800DA6A010EDA22E5C0DFFFD92BAB0ED925A3
:1028A800D96EDA6A010EDA22B9C0DFFFD92BA36B21
:1028B800A46B010EA56FA66BBDEC14F0BA2B020E2B
:1028C800BA65B0D7B9519CEF1CF0780ED36E9B8CCB
:1028D800C090550EA76EAA0EA76E0E01FF91110E9D
:1028E800E76F170EFB6F0A0EDB6F090ED96F550ED7
:1028F800A76EAA0EA76EFF81FC0E0F01486F1F0E70
:10290800496F8B94899C899E9494929C929E938201
:102918009384F19E92829280898A8C82929A95926F
:102928009380948CF18AF18CF292F288F090F08680
:10293800938A949E9398C00EC76E210EC66E8C9093
:1029480095808C8A959A8D8496948D928C8E8C968F
:102958008D909692959E95969690958C959495982F
:10296800736A310E726EA49EFBEC11F0F28EF28C3B
:102978001200A96F0001AA6BA55103E0A76BA72B52
:1029880002D00001A76BAA51A719FC0BA719AA6FBF
:10299800A95103E1A76BA72B02D00001A76BA73BA6
:1029A800A747AA51A719DF0BA719AA6FA9B102D087
:1029B800AA9502D00001AA85A6B102D0AA9702D092
:1029C8000001AA87A95103E1A76BA72B02D0000138
:1029D800A76BA73BA747A747AA51A719BF0BA719DA
:1029E800AA6FAA8FA3C0ABF0A4C0ACF0AAC09AF09B
:1029F800ABC09BF0ACC09CF0AB0E9D6F010E9E6F00
:102A0800D9C09FF087EC11F0A86FD96BA8511200BC
:102A18000001D96BB6C0D9FFB7C0DAFFAB0ED92514
:102A2800E16EE26A010EE222DFCFE7FFD92B20EE4A
:102A380001F0B651D926B751DA22AB0ED925E16E8D
:102A4800E26A010EE222DFCFE7FFD92B20EE02F087
:102A5800B651D926B751DA22AB0ED925E16EE26A12
:102A6800010EE222DFCFE7FFD92B030EB96FB95170
:102A7800B325D96E000EB421DA6EAB0ED925E16EFE
:102A8800E26A010EE222DFCFE7FFD92BB92B220E33
:102A9800B965EDD7B16BB551EAEC1BF00001B86F21
:102AA800B85102E1A3EC1DF0B851120084C0CBF07C
:102AB80085C0CCF086C0CDF0776B140E766F43ECF2
:102AC80013F08C82898AD6CFD0F0D769876B87516B
:102AD800390D8C0EF324D96E020EF420DA6EDF6AFB
:102AE800872B010E8765F3D7876B8751020D050E7B
:102AF800F324F66EFD0EF420F76E0900F5CF77F09B
:102B08000A00F5CF78F0F5EC1AF00001872B1F0EBC
:102B18008765EBD7200E95EC18F0786B560E776F1B
:102B2800F5EC1AF0400E95EC18F01C0E786F0F0EAD
:102B3800776FF5EC1AF0600E95EC18F0F292F288C7
:102B4800F090F08612007A6B42D07A510E0D0C0E7E
:102B5800F324D96E020EF420DA6EDFAE36D000010F
:102B68007A510E0D040EF324D96E020EF420DA6E9B
:102B780010EE01F07651E1267751E222DE50E61898
:102B880024E17A510E0D050EF324D96E020EF420BD
:102B9800DA6E10EE02F07651E1267751E222DE502D
:102BA800E61813E17A510E0D060EF324D96E020EC3
:102BB800F420DA6E10EE03F07651E1267751E22226
:102BC800DE50E61802E17A51120000017A2BE45136
:102BD8007A5DBBE3E4517A19D8B4FF0E1200000104
:102BE800C46FEF0E7B6F010E7C6F9DEC17F0C45124
:102BF80004E0010EF0EC0CF039D0899C899E000E9F
:102C0800F0EC0CF0190E9CEC1CF0000903E1190E15
:102C1800F3EC1DF0000E3CEC1CF0000E0001AA6F56
:102C2800190E34EC1BF0BF6B23EC0FF0E06FE029BA
:102C380007E0010EAA6F190E34EC1BF0E76B0BD0FE
:102C48000A0E806F000E816B826B836B846B91EC34
:102C58001BF0010EE76FE70E776F786BB80E796F90
:102C6800010E7A6F59EC17F0898C0001E75138EFA3
:102C78001DF00101F76F0001E26B040EA36F020E55
:102C8800A46F010EA56FF7C1A6F0000EBDEC14F0FD
:102C9800CCEC19F076C0F8F177C0F9F178C0FAF108
:102CA80079C0FBF12AD0CCEC19F076C0FCF177C0E2
:102CB800FDF178C0FEF179C0FFF1DFEC1DF00101F4
:102CC800F851FC5D0001BF6F0101F951FD59000188
:102CD800C06F0101FA51FE590001C16F0101FB519A
:102CE800FF590001C26FC251C11105E1510EBF5D0C
:102CF800C30EC05902E3E20502E1E251D4E0E25119
:102D0800120081B20FD0D45143E1010ED46FCCEC44
:102D180019F076C091F177C092F178C093F179C03B
:102D280094F1010C81B40FD0D45132E1010ED46F6B
:102D3800CCEC19F076C091F177C092F178C093F19C
:102D480079C094F1020CCCEC19F076C084F077C00D
:102D580085F078C086F079C087F0010191510001B3
:102D6800845D806F0101925100018559816F0101D5
:102D7800935100018659826F0101945100018759CE
:102D8800836F8351821103E1400E815D01E3D46BAF
:102D9800000C010E00017B6F416A426A776B020EDC
:102DA800766F4E0E786F6FEC1CF07B17776B010E09
:102DB800766F4A0E786F6FEC1CF07B17776B010EFD
:102DC800766F460E786F6FEC1CF07B17776B8C0E66
:102DD800766F480E786F6FEC1CF07B17776B040EDC
:102DE800766F500E786F6FEC1CF07B17776B010EC7
:102DF800766F4C0E786F6FEC1CF07B17776B010EBB
:102E0800766F520E786F6FEC1CF07B17776B010EA4
:102E1800766F540E786F6FEC1CF07B1712007E6F84
:102E28001F0E00017E6501D0000C0C0E786F640E39
:102E3800776FF5EC1AF0450E00017E25F66EF76AFD
:102E4800FD0EF7220800F5CF7DF0000E7D11776F9B
:102E58000E0E786FF5EC1AF0650E00017E25F66E01
:102E6800F76AFD0EF7220800F5CF7DF0000E7D1100
:102E7800776F100E786FF5EC1AF0200E95EC18F0BD
:102E8800786B560E776FF5EC1AF0400E95EC18F04B
:102E98001C0E786F0F0E776FF5EC1AF0200E95EC7C
:102EA80018F0600E95EC18F0010C000EF0B6010E4B
:102EB8007C6FF0968C9A050E83EC1DF0E4EC1DF007
:102EC80000017D6F8C8AF0EC1DF000017DB1F2D716
:102ED8008C9A060E83EC1DF08C8AF0EC1DF08C9A0F
:102EE800020E83EC1DF00001795183EC1DF0000106
:102EF8007D6B16D077C0D9FF78C0DAFFDF5083EC3E
:102F08001DF00001774B782B7A077D2B79517D25B1
:102F18007B6F0F0E7B1704E18C8A7D517927CAD706
:102F28007A51E8E18C8A7CB102D0F09601D0F08623
:102F380012007F6B7F517B5D7D6F000E7C597E6F29
:102F4800070E7D25776F000E7E21786F7F51FA0F6F
:102F5800796F010E7A6F56EC1CF07F2B020E7F659D
:102F6800E9D720EE04F07B51D9267C51DA22DF68BC
:102F780020EE03F07B51D9267C51DA22FE0EDF6E5B
:102F88007F6B7F517B5D7D6F000E7C597E6F020EDB
:102F98007D25776F000E7E21786F7F51FD0F796F49
:102FA800010E7A6F56EC1CF07F2B020E7F65E9D775
:102FB800020C800EBEEC1DF00001786BCE0E782559
:102FC800D96EDA6A010EDA22DF5004E1200EB5EC80
:102FD8001DF009D0CE0E7825D96EDA6A010EDA22F4
:102FE800DF50B5EC1DF00001782B0F0E7865E6D7A1
:102FF800C00EBEEC1DF0100E0001786FCE0E7825C5
:10300800D96EDA6A010EDA22DF5004E1200EB5EC3F
:103018001DF009D0CE0E7825D96EDA6A010EDA22B3
:10302800DF50B5EC1DF00001782B1F0E7865E6D750
:103038001F0C7B6BE751D8A412007C6B1ED07C510F
:10304800040D370EF324D96E010EF420DA6E010157
:10305800EF51DE1810E100017C51040D380EF32405
:10306800D96E010EF420DA6EDE500101F01903E189
:10307800010E00017B6F00017C2BDE51766F776BB0
:10308800762B000E77237C51786F796B7651785DBB
:103098007951800A7A6F7751800A7A59D0E37B5147
:1030A800D8A41200010EE16F010C7B6B79AF06D03A
:1030B800786D791FD8B0792B010E7B6F77AF06D06A
:1030C800766D771FD8B0772B010E7B1B7C6B7D6BE1
:1030D800785179111BE0010E7A6F04D0D8907837B7
:1030E80079377A2B79AFFAD7D8907C377D377851F2
:1030F800765D7951775905E37851765F7951775B39
:103108007C81D890793378337A2FEED77B5104E0DD
:103118007C6D7D1FD8B07D2B7CC076F07DC077F0AC
:10312800120000017B6F2CD0786B960E776FF5EC50
:103138001AF0800E0001D56F800C786B760E776FD1
:10314800F5EC1AF0600E0001D56F600C786B560E26
:10315800776FF5EC1AF0400E0001D56F400C786BD4
:10316800360E776FF5EC1AF0200E0001D56F200CA3
:10317800786B160E776FF5EC1AF00001D56B12001C
:1031880000017B51F5E0200AEAE0600ADFE0200A4E
:10319800D4E0E00AC9E01200066E2CD0036A960E4D
:1031A800026ECDEC1BF0800E0001D56F800C036A17
:1031B800760E026ECDEC1BF0600E0001D56F600C30
:1031C800036A560E026ECDEC1BF0400E0001D56F5F
:1031D800400C036A360E026ECDEC1BF0200E000187
:1031E800D56F200C036A160E026ECDEC1BF00001A1
:1031F800D56B12000650F6E0200AEBE0600AE0E02A
:10320800200AD5E0E00ACAE01200EFEC1CF0CE0E6E
:10321800826F010E836F8E0E846FFF0E856F03EC35
:1032280004F0DE0E826F010E836F0C0E846FFF0EAA
:10323800856FA5C0D9FFA6C0DAFFDF50866F876B00
:1032480020EE01F0A551D926A651DA22DF50886F69
:10325800896B20EE02F0A551D926A651DA22DF505B
:103268008A6F8B6B03EC04F0DDEC17F0040E776FBC
:10327800B00E766F43EF13F07B6B77AF06D0766DA9
:10328800771FD8B0772B010E7B6F79AF04D0786D9C
:10329800791FD8B0792B7851791117E0010E7A6F20
:1032A80004D0D890783779377A2B79AFFAD7785114
:1032B800765D7951775904E37851765F7951775B78
:1032C800D890793378337A2FF2D77B5104E0766D32
:1032D800771FD8B0772B76C076F077C077F01200DA
:1032E800B46BB4510E0D0C0EF324D96E020EF420FB
:1032F800DA6EDFAE1CD07D0E0001B425D96EDA6A15
:10330800010EDA22DF500CE1870EB425D96EDA6A95
:10331800010EDA22DE2804E0B451CEEC0FF007D01B
:103328007D0EB425D96EDA6A010EDA22DF6A000151
:10333800B42B090EB465D5D7090C02EE00F0FE0EC9
:10334800EE6AE806FDE101EE00F0F70EEE6AE80627
:10335800FDE100EECBF01D0EEE6AE806FDE100EEA1
:103368002FF0270EEE6AE806FDE1E40EF66E3B0E3E
:10337800F76E000EF86E0900F5CFE8F00900F5CFFA
:10338800E9F056905692000EF86E000128EF1DF0F5
:103398009D9000017E6B7F6B7B6BCECF7CF0CFCF97
:1033A8007DF07C2908E17D2906E17B2B7B057A6F7E
:1033B800020E7A65F2D79EA004D07E2B452801E143
:1033C8007F2B45507E27E3517F279D807CC076F078
:1033D8007DC077F07EC078F07FC079F01200766B00
:1033E800776B77510E0D040EF324D96E020EF4207C
:1033F800DA6EDF5014E177510E0D050EF324D96E05
:10340800020EF420DA6EDF500AE177510E0D060E37
:10341800F324D96E020EF420DA6EDF5001E0762B29
:10342800772B090E7765DDD7765112009D90096AD2
:103438000A6A066ACECF07F0CFCF08F0072808E15E
:10344800082806E1062A0604056E020E0564F2D76E
:103458009EA004D0092A452801E10A2A45500926D8
:103468000001E3510A269D8007C001F008C002F060
:1034780009C003F00AC004F012000001776F000EC3
:10348800F0B6010E796F000EF2B8010E7A6FF2985D
:10349800F0968C92778D7751ACEC1DF0000EACEC69
:1034A8001DF00001786F8C8279B102D0F09601D0BE
:1034B800F08600017AB102D0F29801D0F2880001BA
:1034C800785112007B6B7C6B785179111BE0010EEF
:1034D8007A6F04D0D890783779377A2B79AFFAD7C2
:1034E800D8907B377C377851765D7951775905E3E9
:1034F8007851765F7951775B7B81D89079337833CF
:103508007A2FEED77BC076F07CC077F012006E6F12
:10351800000EF0B6010E0001706F000EF2B8010E39
:10352800716FF298F0968C926E8D6E51C7EC1DF00B
:10353800000EC7EC1DF000016F6F8C8270B102D0D5
:10354800F09601D0F086000171B102D0F29801D056
:10355800F28800016F511200DFEC1DF0BF6FBF5100
:103568001DE0D82BD8C0A7F0DA51D8EC1DF0070E13
:10357800776FD00E766F43EC13F0897EE75109E13F
:103588002F50030B06E134C0A5F035C0A6F009ECB6
:1035980019F0E9EC1DF0E75138EC1DF0BF511200AD
:1035A800026E000EF0B6010E046E000EF2B8010EA7
:1035B800056EF298F0968C92028C0250D0EC1DF0B9
:1035C800000ED0EC1DF0036E8C8204B002D0F09691
:1035D80001D0F08605B002D0F29801D0F2880350ED
:1035E8001200000EF0B6010E796F000EF2B8010E4F
:1035F8007A6FF298F0968C927851ACEC1DF000013D
:103608007751ACEC1DF08C82000179B102D0F096B4
:1036180001D0F08600017AB102D0F29801D0F28888
:103628001200A66FEFEC1CF0CE0E826F010E836FB6
:10363800AF0E846FFF0E856FA6C086F0876BA5C09E
:1036480088F0896B03EC04F0DE0E826F010E836F45
:10365800BF0E846FFF0E856F03EC04F0DDEF17F0EB
:10366800AB6F0001AA510BE1D50EA56FFD0EA66F39
:10367800ABC0A7F0010EA86F53EC1BF00AD0150ED3
:10368800A56FFE0EA66FABC0A7F0010EA86F53EC96
:103698001BF0030E776FE80E766F43EF13F0EFEC35
:1036A8001CF0CE0E826F010E836FA5C084F0A6C0F9
:1036B80085F0A7C086F0876B03EC04F0DDEC17F00B
:1036C800A851D8B41200A96B776BFA0E766F43EC49
:1036D80013F0A92B070EA965F7D7070C7F518011A6
:1036E80017E0010E816F04D0D8907F378037812B87
:1036F80080AFFAD77F517D5D80517E5904E37F51B9
:103708007D5F80517E5BD89080337F33812FF2D7E5
:103718007DC07DF07EC07EF01200856F15D0CCECA8
:1037280019F076C0A1F177C0A2F178C0A3F179C0F1
:10373800A4F1CCEC19F076C0A5F177C0A6F178C059
:10374800A7F179C0A8F1120000018551E8E0010A4B
:10375800D8A4030A1200776F000EF0B6010E00011C
:10376800786F000EF2B8010E796FF298F096899A88
:103778007751ACEC1DF0898A000178B102D0F0963F
:1037880001D0F086000179B102D0F29801D0F28818
:103798001200000EF0B6010E046E000EF2B8010E13
:1037A800056EF298F0968C920350D0EC1DF0025002
:1037B800D0EC1DF08C8204B002D0F09601D0F086D7
:1037C80005B002D0F29801D0F2881200B26F000161
:1037D800B2510E0D0C0EF324D96E020EF420DA6EDF
:1037E8000201DFAE000C0001B2510E0D040EF324ED
:1037F800AD6F020EF420AE6F010EAF6FB1C0B0F026
:1038080099EF1DF0D96BAB0ED925D96EDA6A010E86
:10381800DA227A0EDF6ED92B040EA36F020EA46F84
:10382800010EA56F000EA66BBDEC14F0AD6FAD5187
:10383800D8A41200010EE16F010C026E000EF0B662
:10384800010E036E000EF2B8010E046EF298F096A7
:10385800899A0250D0EC1DF0898A03B002D0F09604
:1038680001D0F08604B002D0F29801D0F28812009C
:1038780000017F6F030E7F6501D0030C7FC0E9F064
:10388800E9C07EF07E3BF00E7E17D2510F0B7E1101
:10389800D26FE90E776F786B030E796F010E7A6F2E
:1038A80059EF17F08C9A030E83EC1DF00001795143
:1038B80083EC1DF00BD0E4EC1DF077C0D9FF78C085
:1038C800DAFFDF6E0001774B782B7A0700017A5117
:1038D800F2E18C8A120076514124796F77514220A7
:1038E8007A6F7905800E7A5901E3000C7851D96E08
:1038F800DA6A41C0DEFF42C0DDFF765141267751CA
:103908004222010C7C6B7C517825D96E000E7921FE
:10391800DA6E7C517625E16E000E7721E26EDE507C
:10392800E61801E0000C7C2B070E7C65ECD7010C37
:103938007F6F00017C6B7F5113EC17F000090CE0DE
:103948007FC0E5F0E50E776F786B020E796F010E98
:103958007A6F59EC17F0010C000C0001D96BAB0E13
:10396800D925D96EDA6A010EDA22DA0EDF6ED92B82
:10397800ADC0A3F0AEC0A4F0010EA56F000EA66BFB
:10398800BDEF14F076C07CF077C07DF008D07CC025
:10399800D9FF7DC0DAFF78C0DFFF7C4B7D2B7A072B
:1039A800D8A07B077A29F3E17B29F1E11200776F30
:1039B800080E0001786F796BD89077357935796F73
:1039C800D89077377651795D02E37651795F782F11
:1039D800F3D779511200010EBEEC1DF00001776B90
:1039E800020E766F43EC13F0CE0E766F010E776FF2
:1039F800796B200E786F7B6B7A6FC6EF1CF076516F
:103A08007803F3CF7AF0F4CF7BF076517903F35053
:103A18007B2777517803F3507B277AC076F07BC0F9
:103A280077F012008B0EA56FFE0EA66FA76BA86B22
:103A380053EC1BF085EC16F0AA6FAA0501E1000C07
:103A4800020EAA19F7E1010C69EC14F076EC1DF0EE
:103A580058EC1DF016EC1DF00201FE6FFE51F3EC60
:103A680015F0EEEC1DF0FDD7AA6F0001AA5104E095
:103A7800510EA56FFE0E03D0F50EA56FFD0EA66FB5
:103A8800A76BA86B53EF1BF0020E0001D761020C65
:103A9800D751390D8C0EF324D96E020EF420DA6E4C
:103AA800000EDF6AD7691200340EA56FFE0EA66FEE
:103AB800A76B010EA86F53EC1BF0070E776FD00EA3
:103AC800766F43EF13F0786F0001776B3A0E7861E9
:103AD80005D02F0E786502D0010E776F77C076F08B
:103AE80076311200380ECD6E9A6ACF6ACE6ACECF82
:103AF800A9F1CFCFAAF19E909D80ECEF1DF00001B7
:103B0800766FA49E729E76C075FF72BEFBD7A4AE78
:103B1800FED7A49E1200AD6F0001A36BA46BA56B2A
:103B2800ADC0A6F0010EBDEF14F0ADC0A3F0AEC05D
:103B3800A4F0000EA56BB0C0A6F0BDEF14F09F0E68
:103B4800A56FFF0EA66FA76B010EA86F53EF1BF0B2
:103B58000001766FC69E76C0C9FFC7A0FED7C950C0
:103B68001200776F8C9E8C860001775183EC1DF0D4
:103B78008C8E12000001776F8C9E8C96775183ECA7
:103B88001DF08C8E120000016D6FC69E6DC0C9FFBE
:103B9800C7A0FED7C9501200016EC69E01C0C9FF5A
:103BA800C7A0FED7C9501200A86FA7C0A5F0000192
:103BB800A85115EF1BF02CEC00F0D3B7010C000C4A
:103BC800000E83EC1DF075501200D39748EF1DF0DE
:103BD800CD80120090EF07F000F0120001031200F0
:023BE8001200C9
:10FC86000020B2202020B22020B220B22020202046
:10FC960020B220B20D0AB220B220B220B22020201B
:10FCA600B22020B22020B220200D0AB22020B2209D
:10FCB60020B220B220B22020B22020B220B20D0AFB
:10FCC600B22020B22020B220B22020B220B220B230
:10FCD6002020B20D0AB22020B22020B220B220206D
:10FCE60020B220B2202020B20D0A20202020202081
:10FCF600202020202020202020202020200D0A3611
:10FD0600008402090409060C08C10A7D0C640E145D
:10FD1600100012001400163818C81A0D1C001E72A6
:10FD2600203822382407260028002A692C812E7EB6
:10FD3600309632F83488364038003AE83C003E4F78
:10FD46004F4F4F4F4F4F4F4F4F4F4F4F4F4F4F4FBD
:10FD56004F4F4F4F4F5050505050505050505022D0
:10FD66002426282A2C2E30323437393B3D3F414356
:10FD760045474A4C4E0507090B0D0F11141618017D
:10FD8600000800400000020010008001000A006424
:10FD960000E803102701001000000100100D0A0DF5
:10FDA6000A436F6E6E656374696F6E202020202093
:10FDB600506565724C6F6E6741646472657373203B
:10FDC6002020202050656572496E666F0D0A00433B
:10FDD6006F6E6E656374696E67205065657220206C
:10FDE6006F6E204368616E6E656C2025642000533B
:10FDF6005731203A20556E69636173742020205371
:10FE06005732203A204E657874204E6F6465002084
:10FE1600436F6E6E6563746564205065657220205D
:10FE26006F6E204368616E6E656C202564005369B1
:10FE36006D706C65205354415220202020204D5275
:10FE46004638395841204E6F6465005043203A5376
:10FE56005731206F72205357322020746F20427220
:10FE66006F616443617374005357313A2042726F75
:10FE760061646361737420205357323A20556E696A
:10FE860063617374005357313A4E6577204E65743B
:10FE9600776F726B205357323A467265657A657290
:10FEA6000042726F616463617374205061636B65B5
:10FEB60074207769746820525353492000556E693F
:10FEC60063617374205061636B657420776974682D
:10FED600205253534920005242303A253032642D85
:10FEE6002530327825303278253032782D6D650010
:10FEF6005242303A253032642D2530327825303260
:10FF060078253032780020416464726573733A252F
:10FF16003032782530327825303278004461746189
:10FF26005F53656E64696E675F4661696C21210087
:10FF36000D0A0D0A4D7920416464726573733A2087
:10FF4600307800454E445F44455649434553203A70
:10FF56002530326400303132333435363738394162
:10FF6600424344454600303132333435363738392A
:10FF7600616263646566005242323A204368616E8C
:10FF86006765206E6F64650044617461205061632B
:10FF96006B65742066726F6D0020556E69636173C0
:10FFA60074204661696C65640054583A25336420B0
:10FFB6002C2052583A253364004D6573736167658A
:10FFC60020436F756E7400202020202020202020E2
:10FFD600202020200020204368616E6E656C3A2048
:10FFE600005365637572656420002066726F6D202C
:02FFF600000009
:08FFF800ACF5DAFBFFF9FFF1A3
:00000001FF
