:04000000C6EF00F057
:100008004A82D9CF0DF0DACF0EF0F3CF0FF0F4CF4C
:1000180010F0F2B8F2A2A2D0F292620E37EC15F00C
:10002800126E12A00FD03F903FBC3F9C0001D66BD0
:10003800D76B3FA207D0480E37EC15F0116E11B000
:100048003F843F9212A683D01468156A1550450D57
:10005800000EF324D96E010EF420DA6EDF5003E1AE
:1000680015C014F004D0152A010E1564EFD7020E3E
:10007800146068D0040E026E730E9EEC15F01450D6
:10008800450D000EF324D96E010EF420DA6E030E2E
:10009800036E026A27EC13F0020FDF6E1450450D51
:1000A800000EF324D96E010EF420DA6E440EDF60E0
:1000B8003FD03F8A010E156E1AD01450450D000E20
:1000C800086E010E096EF3500826F45009221550E7
:1000D8000824D96E000E0920DA6E000E1524026E6F
:1000E800036A030E032227EC13F0DF6E152A15505E
:1000F800086E096A1450450D000EF324D96E010EDE
:10010800F420DA6EDF500A6E0B6A020E0A26000E21
:100118000B2208500A5C0B50800A0C6E0950800AAA
:100128000C58CBE2010E026E1B0E9EEC15F005D0AA
:10013800010E026E1B0E9EEC15F0026A730E9EEC09
:1001480015F005D0010E026E1B0E9EEC15F012A8DC
:1001580005D0800E026E590E9EEC15F09EB09DA043
:1001680005D09E90422A425001E1432ABCEC16F089
:1001780010C0F4FF0FC0F3FF0EC0DAFF0DC0D9FFA7
:100188004A9211002FEF12F0260E00016A6F7FD3FA
:10019800250E701909E022C0D9FF23C0DAFF70C00C
:1001A800DFFF224A232A73D36E6B6F6B716B726BFE
:1001B80009D0718705D0718103D0728701D071850C
:1001C800244A252A24C0F6FF25C0F7FF0800F55069
:1001D800200AF1E0030AF1E00E0AEBE01D0AEFE065
:1001E80071B7719524C0F6FF25C0F7FF0800F550D8
:1001F80039EC16F030E300016E6B6F6B6EC016F0D1
:100208006FC017F0196A0A0E186ED8EC15F016C0F0
:100218006EF017C06FF0D00E2E6E2F6824C0F6FF58
:1002280025C0F7FF0800F550306E316A2E50302691
:100238002F503122305000016E2731506F23244A4D
:10024800252A24C0F6FF25C0F7FF0800F55039EC31
:1002580016F015E3D3D724C0F6FF25C0F7FF080032
:10026800F5502A0A0CE100016A51D96EDA6ADECF2C
:100278006EF0DDCF6FF0020E6A27244A252A24C0CB
:10028800F6FF25C0F7FF0800F5502E0A32E10001FD
:10029800728D244A252A24C0F6FF25C0F7FF0800DE
:1002A800F5502A0A0AE16A51D96EDA6ADF506D6F91
:1002B800020E6A27244A252A8CD06D6B10D024C0E0
:1002C800F6FF25C0F7FF0800F5CF2EF000016D51AD
:1002D8000A0DF3502E24D00F6D6F244A252A24C00E
:1002E800F6FF25C0F7FF0800F55039EC16F071E36A
:1002F800E6D700016D6B6DD0718D89D0718B718FD0
:1003080086D06D510FE06DC02EF02F6A2EBE2F06DD
:1003180068512E5C69512F5805E26D51686F696B01
:1003280068BF69076E51685D6F51695905E2685188
:100338006E5F69516F5B02D06E6B6F6B71B71DD0CA
:1003480008D022C0D9FF23C0DAFF200EDF6E224A70
:10035800232A6E07D8A06F076E29F3E16F290DE0F5
:10036800F0D76751D96EDA6A22C0E1FF23C0E2FFF5
:10037800DFCFE7FF672B224A232A6807D8A069073F
:100388006829EFE16929EDE171A781D208D022C07F
:10039800D9FF23C0DAFF200EDF6E224A232A6E0718
:1003A800D8A06F076E29F3E16F2901E170D2EFD76A
:1003B8006A51D96EDA6ADF50706F020E6A27700EC2
:1003C800676F000E696F010E686F9BD7C00E7113BF
:1003D8001ED024C0F6FF25C0F7FF244A252A0800AE
:1003E800F5CF70F00001705101E15DD2580A86E046
:1003F8003B0ADEE0070A0BE00D0A09E0060A01E104
:100408007BD71A0AE3E00D0A01E179D7D8D771C082
:100418002EF0C00E2E1612E16A51D96EDA6ADECFBE
:100428006BF0DDCF6CF0020E6A276CAF10D0030EB4
:1004380071136B6D6C1FD8B06C2B09D06A51D96ED3
:10044800DA6ADECF6BF0DDCF6CF0020E6A276D51F1
:1004580047E16B516C1144E16D2B42D0010E706F76
:10046800050E701946E07051020D9D0EF324F66ECC
:10047800FD0EF420F76E0900F5506B5D0900F5508C
:100488006C5937E3702BECD7010E706F040E70199E
:1004980030E07051020DA70EF324F66EFD0EF42025
:1004A800F76E0900F5506B5D0900F5506C5921E3B2
:1004B800702BECD7010E706F060E70191AE0705190
:1004C800020D910EF324F66EFD0EF420F76E09006E
:1004D800F5506B5D0900F5506C590BE3702BECD7A8
:1004E8007151C00BBBE0400AE5E0C00ACDE0400A0C
:1004F800B5E07051800A2E6E6D51800A2E5C03E2C1
:100508006DC070F009D06D51800A2E6E7051800A4E
:100518002E5C02E270C06DF06E516F1108E071C080
:100528002EF0030E2E1603E06E07D8A06F0772ADEB
:1005380013D0800E6DBF7F0E2E6E6E516D5D6F51A4
:10054800800A2E5807E26D516E5F000E6DBFFF0ED8
:100558006F5B02D06E6B6F6BC40E2E6E080E2F6E23
:1005680071C030F072C031F02E5030162F50311655
:10057800400E30180AE1080E311807E16E516F116C
:1005880024E06E07D8A06F0720D0C00E2E6E080E8C
:100598002F6E71C030F072C031F02E5030162F50CF
:1005A8003116800E301811E1080E31180EE16FBFB8
:1005B8000AD06F5103E1030E6E5D05E3FE0E6E2750
:1005C800FF0E6F2302D06E6B6F6B800E70BF7F0EB5
:1005D8002E6E6E51705D6F51800A2E5807E2705171
:1005E8006E5F000E70BFFF0E6F5B02D06E6B6F6B9D
:1005F80071A54FD071C02EF0030E2E1609E022C04F
:10060800D9FF23C0DAFF2D0EDF6E224A232A31D00C
:1006180071A106D022C0D9FF23C0DAFF200EF4D77B
:10062800C00E2E6E080E2F6E71C030F072C031F001
:100638002E5030162F503116800E30181AE1080E41
:10064800311817E122C0D9FF23C0DAFF300EDF6E60
:10065800224A232A71BB03D0626B780E02D0626BE8
:10066800580E616F22C0D9FF23C0DAFF61C0DFFFD7
:10067800CCD76E516F1101E1F2D022C0D9FF23C04F
:10068800DAFF300EDF6E224A232A6E07D8A06F07E2
:10069800F0D76E516F1110E071B70ED022C0D9FF9C
:1006A80023C0DAFF200EDF6E224A232A6E07D8A065
:1006B8006F076E516F11F2E171C02EF0030E2E1606
:1006C80009E022C0D9FF23C0DAFF2D0EDF6E224ACF
:1006D800232A08D071A106D022C0D9FF23C0DAFF8F
:1006E800200EF4D7C00E2E6E080E2F6E71C030F09B
:1006F80072C031F02E5030162F503116400E30187F
:100708000CE1080E311809E122C0D9FF23C0DAFF35
:10071800300EDF6E224A232AA2D0C00E2E6E080E9B
:100728002F6E71C030F072C031F02E5030162F503D
:100738003116800E30181BE1080E311801E08FD0F9
:1007480022C0D9FF23C0DAFF300EDF6E224A232AE7
:1007580071BB03D0646B780E02D0646B580E636F64
:1007680022C0D9FF23C0DAFF63C0DFFFD3D777D019
:100778006D51020D9D0EF324F66EFD0EF420F76EFA
:100788000900F5CF18F00A00F5CF19F06BC016F084
:100798006CC017F09EEC13F016C01DF017C01EF0C9
:1007A800206A0A0E1F6E40EC14F01D5045D06BC035
:1007B80016F06CC017F06D51020DA70EF324F66EFB
:1007C800FD0EF420F76E0900F5CF18F00A00F5CFFA
:1007D80019F09EEC13F016500F0B606F71BB04D02C
:1007E800720E656FFF0E03D0610E656FFF0E666FA8
:1007F800605165252E6E000E66212F6E2EC0F6FF05
:100808002FC0F7FF0800F5CF70F022D06BC016F0AC
:100818006CC017F06D51020D910EF324F66EFD0EAB
:10082800F420F76E0900F5CF18F00A00F5CF19F09B
:100838009EEC13F01650070B300F706F09D07151F2
:10084800C00B96E0400AE2E0C00AB1E0400A90E03E
:1008580022C0D9FF23C0DAFF70C0DFFF5BD76D0766
:100868006D29EDE171B76FBF12D06F5102E16E05CE
:100878000EE322C0D9FF23C0DAFF200EDF6E224A22
:10088800232A6E07D8A06F076E516F11F2E124C0BA
:10089800F6FF25C0F7FF244A252A0800F5CF70F097
:1008A800705101E075D422C0D9FF23C0DAFFDF6A96
:1008B800000C81A0F2823FA00BD0D75103E1800E3B
:1008C800D65D04E3D66BD76B3F9002D0D64BD72BBF
:1008D80049681C6A1C50450D000EF324D96E010EA0
:1008E800F420DA6EDF5003E01CC049F004D01C2A63
:1008F800010E1C64EFD7020E4960000C010E1D6E3C
:100908004950450D010EF324D96E010EF420DA6E1C
:100918000101DFAC1D6A336A3B6A4950450D020E7E
:10092800F324D96E010EF420DA6EDF50CC0B1B6E67
:10093800DBD14950450D060EF324D96E010EF42083
:10094800DA6EDE280BE14950450D070EF324D96E07
:10095800010EF420DA6EDE2801E13384338E1D5057
:100968002EE04950450D040EF324D96E010EF420F3
:10097800DA6EDF503C6E4950450D050EF324D96EF2
:10098800010EF420DA6EDF503D6E4950450D080E19
:10099800F324346E010EF420356E4950450D000ED7
:1009A800F324D96E010EF420DA6EDF50ED0F386EA5
:1009B8004950450D100EF324366E010E34D14950BE
:1009C800450D080EF324D96E010EF420DA6EDF50BF
:1009D8003C6E4950450D090EF324D96E010EF420E2
:1009E800DA6EDF503D6E4950450D0A0EF324346E21
:1009F800010EF420356E4950450D000EF324D96ED2
:100A0800010EF420DA6EDF50EB0F386E4950450DB9
:100A1800120EF324366E010E06D1338E1D502EE0D1
:100A28004950450D040EF324D96E010EF420DA6EF8
:100A3800DF503C6E4950450D050EF324D96E010E6A
:100A4800F420DA6EDF503D6E4950450D0E0EF3244A
:100A5800346E010EF420356E4950450D000EF32416
:100A6800D96E010EF420DA6EDF50E70F386E495068
:100A7800450D160EF324366E010ED5D04950450D9E
:100A88000E0EF324D96E010EF420DA6EDF503C6EA0
:100A98004950450D0F0EF324D96E010EF420DA6E7D
:100AA800DF503D6E4950450D100EF324346E010E93
:100AB800F420356E4950450D000EF324D96E010E11
:100AC800F420DA6EDF50E50F386E4950450D180EE8
:100AD800F324366E010EA7D03384338E010E3B6E9D
:100AE8004950450D040EF324D96E010EF420DA6E38
:100AF800DF503C6E4950450D050EF324D96E010EAA
:100B0800F420DA6EDF503D6E4950450D060EF32491
:100B1800346E010EF420356E4950450D000EF32455
:100B2800D96E010EF420DA6EDF50F50F386E495099
:100B3800450D080EF324366E010E75D04950450D4B
:100B4800060EF324D96E010EF420DA6EDE280BE1CE
:100B58004950450D070EF324D96E010EF420DA6EC4
:100B6800DE2801E13384338E010E3B6E1D502EE1E9
:100B78004950450D080EF324D96E010EF420DA6EA3
:100B8800DF503C6E4950450D090EF324D96E010E15
:100B9800F420DA6EDF503D6E4950450D0A0EF324FD
:100BA800346E010EF420356E4950450D000EF324C5
:100BB800D96E010EF420DA6EDF50F10F386E49500D
:100BC800450D0C0EF324366E010E2DD04950450DFF
:100BD800040EF324D96E010EF420DA6EDF503C6E59
:100BE8004950450D050EF324D96E010EF420DA6E36
:100BF800DF503D6E4950450D080EF324346E010E4A
:100C0800F420356E4950450D000EF324D96E010EBF
:100C1800F420DA6EDF50F30F386E4950450D0A0E96
:100C2800F324366E010EF420376E70D0338E010E29
:100C38003B6E1D501BE04950450D040EF324D96E40
:100C4800010EF420DA6EDF503C6E4950450D050E5A
:100C5800F324D96E010EF420DA6EDF503D6E495050
:100C6800450D0D0EF324346E010E95D64950450DF1
:100C78000D0EF324D96E010EF420DA6EDF503C6EAF
:100C88004950450D0E0EF324D96E010EF420DA6E8C
:100C9800DF503D6E4950450D0F0EF324346E010EA2
:100CA800A8D64950450D060EF324D96E010EF4203E
:100CB800DA6EDE280BE14950450D070EF324D96E94
:100CC800010EF420DA6EDE2801E133844950450D27
:100CD800000EF324D96E010EF420DA6EDF50F60F01
:100CE80025D754EC16F0000C1B50080ADAE0880AE5
:100CF80001E1F2D6080A01E121D7040A97E0440A83
:100D080001E117D6040A01E188D6EBD74950450D11
:100D1800010EF324D96E010EF420DA6EDFA60CD092
:100D2800E0D7FC0E33161DD03350FC0B0109336E8F
:100D380018D0030E331215D04950450D010EF32477
:100D4800D96E010EF420DA6EDF50070B166E176AA3
:100D58001750C7E11650EDE0010AE3E0020AE4E0AB
:100D6800C0D74950450D000EF324D96E010EF4206A
:100D7800DA6EDF50166E4950450D17681868000E78
:100D8800196E010E1A6E1750192618501A22F350B0
:100D98001926F4501A2216501924D96E000E1A205A
:100DA800DA6EDF503A6E4950450D000EF324D96EC5
:100DB800010EF420DA6EDF50166E4950450D000E14
:100DC800176E010E186EF3501726F450182216509D
:100DD8001724D96E000E1820DA6EDF50396E010C18
:100DE8000001E0A32BD078EC13F016C08FF017C0E9
:100DF80090F018C091F019C092F00001C4518F5DB5
:100E08008B6FC55190598C6FC65191598D6FC751D1
:100E180092598E6F8E5107E1210E8B5DA10E8C5970
:100E2800070E8D590BE3E093000E176E020E186E35
:100E3800040E196EC80E1A6EB4EC11F00001E0B77A
:100E480012005DEC04F00009D8B412000001B66B82
:100E580033A403D08B6B8B2B02D000018B6BB65164
:100E68008B19FC0B8B19B66F33A602D0B68702D04C
:100E78000001B6973350030BE80603E18B6B8B2B0D
:100E880002D000018B6B8B3B8B47B6518B19DF0B64
:100E98008B19B66F33AE02D0B68D02D00001B69D65
:100EA80033AE04D034C0B9F035C0BAF03CC0B7F0A6
:100EB8003DC0B8F038C0BDF036C0BBF037C0BCF09C
:100EC8003AC0BFF039C0BEF0B6ABD5D1C0D120EE24
:100ED80001F0BB51D926BC51DA22FC51DE1803E0DF
:100EE80054EC16F0C9D1030EFF19FAE0B72902E154
:100EF800B8290BE0EE51B71903E1EF51B81905E035
:100F0800020EBD6502D0F20E03D099EC0DF000017F
:100F1800956FFF0507E1950505E0020E951902E0BA
:100F2800F30E956FE26B8A0EE225D96EDA6A010E2E
:100F3800DA22910EDF6EE22B8A0EE225D96EDA6A8A
:100F4800010EDA2295C0DFFFE22B8A0EE225D96E68
:100F5800DA6A010EDA22DEC0DFFFE22B955102E0E9
:100F680095051AE18A0EE225D96EDA6A010EDA22AF
:100F7800DFC0DFFFE22B966B9651FD0FD96EDA6A60
:100F88008A0EE225E16EE26A010EE222DFCFE7FF78
:100F9800E22B962B9651F0E054EC16F0B7C07BF09C
:100FA800B8C07CF0B9C07DF0BAC07EF0010E000177
:100FB8007F6F000EB6B7010E806F000E3DEC10F08B
:100FC80095518EE1DC510A0D000EF324176E020EC6
:100FD800F420186EDC510A0DF350040F196E0A0E36
:100FE8001A6EB4EC11F048D1020EFF6501D078D723
:100FF80020EE01F0BB51D926BC51DA22FC51DE1893
:1010080001E06ED7E26B8A0EE225D96EDA6A010E2C
:10101800DA22970EDF6EE22B8A0EE225D96EDA6AA3
:10102800010EDA22DFC0DFFFE22B966B9651FD0F2F
:10103800D96EDA6A8A0EE225E16EE26A010EE222D0
:10104800DFCFE7FFE22B962B9651F0E054EC16F039
:10105800B7C07BF0B8C07CF0B9C07DF0BAC07EF0F4
:10106800010E00017F6F000EB6B7010E806F000EF3
:101078003DEC10F001D1E26B8A0EE225D96EDA6AF6
:10108800010EDA22920EDF6EE22B966B96510A0D54
:10109800080EF324D96E020EF420DA6EDFAE36D0D5
:1010A800B9C016F0BAC017F0000196510A0D000E2B
:1010B800F324186E020EF420196E21EC15F00009C5
:1010C80025E0000196510A0D080EF324D96E020E90
:1010D800F420DA6EDF6A96510A0D000EF324176EBB
:1010E800020EF420186E96510A0DF350040F196E73
:1010F8000A0E1A6EB4EC11F08A0E0001E225D96EC0
:10110800DA6A010EDA22DF6AE22B05D00001962B9B
:10111800130E9665BBD754EC16F0140E0001961901
:1011280009E18A0EE225D96EDA6A010EDA22F00E9A
:10113800DF6EE22BB7C07BF0B8C07CF0B9C07DF0A1
:10114800BAC07EF0010E7F6F000EB6B7010E806F39
:10115800000E3DEC10F090D0EE2915E1EF2913E1D7
:10116800B7C0EEF0B8C0EFF093699469EE0E1A6E4E
:10117800930ED3EC12F0EE0E176E186A196A020E6F
:101188001A6EB4EC11F099EC0DF00001E08378ECE4
:1011980013F016C0C4F017C0C5F018C0C6F019C0C7
:1011A800C7F09ED620EE01F0BB51D926BC51DA22F9
:1011B800DF50D2E0010AD0E093D6E0BBE09B90D6A6
:1011C80020EE01F0BB51D926BC51DA22DF5001E0F4
:1011D80087D6966B96510A0D080EF324D96E020E27
:1011E800F420DA6EDFAE2DD0B9C016F0BAC017F011
:1011F800000196510A0D000EF324186E020EF42019
:10120800196E21EC15F000091CE0000196510A0D39
:10121800080EF324D96E020EF420DA6EDF6A9651B6
:101228000A0D000EF324176E020EF420186E965164
:101238000A0DF350040F196E0A0E1A6EB4EC11F071
:101248004FD60001962B130E9665C4D749D6BBC05E
:10125800D9FFBCC0DAFFDF50810A01E138D6030AA2
:1012680001E109D7050A01E1BFD6160A9BE0030A86
:10127800A7E0050AA2E0E0870001BD5102E0E0AB6B
:101288001200E09754EF16F07A6B60A502D0010EB9
:10129800636F60B7646B6051030BE80602E1030EED
:1012A80004D06051030B02E1010E776F44506519B9
:1012B8000DE1455066190AE1442802E1452806E097
:1012C800050E786F778D010E766F03D0070E786F55
:1012D800766B6351020ED8B4080E78276451020E5B
:1012E800D8B4080E782760BB60B501D0778B605101
:1012F800030B030A07E1776B070E786F766B010E15
:10130800646F609B186A176A78C019F050EC13F084
:1013180000017A2B7AC017F0186A78516925196E7E
:1013280050EC13F000017A2B7AC017F0186A77C0D6
:1013380019F050EC13F000017A2B6051030B030AEB
:1013480012E17AC017F0186A800E196E50EC13F08B
:1013580000017A2B7AC017F0186A3EC019F050ECD9
:1013680013F03E2A77D063510CE064510AE07AC04A
:1013780017F0186A880E196E50EC13F000017A2BDA
:1013880020D063510AE0645108E17AC017F0186A66
:10139800C80E196E50EC13F0F1D763510AE16405D9
:1013A80008E17AC017F0186A8C0E196E50EC13F029
:1013B800E5D77AC017F0186ACC0E196E50EC13F006
:1013C800DDD77AC017F0186A3EC019F050EC13F058
:1013D8003E2A00017A2B7AC017F0186A65C019F006
:1013E80050EC13F000017A2B7AC017F0186A66C027
:1013F80019F050EC13F000017A2B60A50FD07AC0D9
:1014080017F0186A196850EC13F000017A2B7AC0AB
:1014180017F0186A196850EC13F01CD063511DE0DE
:101428007AC017F0186A61C0D9FF62C0DAFFDF50CE
:10143800196E50EC13F000017A2B7AC017F0186A75
:1014480020EE01F06151D9266251DA22DF50196E7F
:1014580050EC13F000017A2B14D0796B7AC017F096
:10146800186A79516125D96E000E6221DA6EDF5053
:10147800196E50EC13F000017A2B792B070E796561
:10148800EDD7765112E17AC017F0186A44C019F006
:1014980050EC13F000017A2B7AC017F0186A45C097
:1014A80019F050EC13F000017A2B645113E07AC064
:1014B80017F0186A46C019F050EC13F000017A2BA7
:1014C8007AC017F0186A47C019F050EC13F0000101
:1014D8007A2B12D0796B7AC017F0186AD551792512
:1014E800D96EDA6ADF50196E50EC13F000017A2BCE
:1014F800792B070E7965EFD7796B10D07AC017F082
:10150800186A79516725D96E000E6821DA6EDF50A6
:10151800196E50EC13F000017A2B792B6951795D23
:10152800EDE33F8060BB60B504D0050E796F3F8264
:1015380003D0010E796F3F9279C017F0370E8AEC0D
:1015480015F078EC13F016C06EF017C06FF018C0E5
:1015580070F019C071F081A0F2823FB004D03FA4AE
:10156800010C3F94000C78EC13F016C072F017C011
:1015780073F018C074F019C075F000016E51725DF7
:101588006A6F6F5173596B6F705174596C6F7151E9
:1015980075596D6F6D516C1105E1210E6A5D4E0E26
:1015A8006B59D9E3EEEC0BF0440E1A6E460ED3ECF1
:1015B80012F03F90000CEFEC10F0DFEC14F0000993
:1015C80001E0120032EC11F00001B16FFBD0E26BC8
:1015D800416A140E416401D023D0060E166EE45100
:1015E800B2EC15F0150DD10E0001AA6FFC0EAB6F11
:1015F800F350AA27F450AB234150AA27000EAB237F
:10160800AAC0F6FFABC0F7FF8A0EE225D96EDA6AE8
:10161800010EDA220800F5CFDFFFE22B412AD9D7E5
:10162800E42B000E2BEC16F0E1C074F0E32BE35131
:101638009FEC16F0030E176EE80E166E71EC0FF0A5
:1016480076EF16F0010EFE6FB46B010EB26FB5D0D7
:10165800EBEC15F0EBEC15F0B20E226E010E236EDA
:10166800220E246EFF0E256EB4C026F0276A0001F4
:10167800B4510A0D000EF324D96E020EF420DA6E6E
:10168800DF50286E296AB4510A0D010EF324D96E71
:10169800020EF420DA6EDF502A6E2B6AB4510A0D5E
:1016A800020EF324D96E020EF420DA6EDF502C6E8F
:1016B8002D6AC8EC00F0C20E226E010E236E830E56
:1016C800246EFF0E256EC8EC00F0F3EC11F0F3EC7D
:1016D80011F0010E0001FE6F6ED032EC11F0000126
:1016E800B36FDFEC14F00001B30548E1B26BFE6B99
:1016F800E52BE26B416A0A0E416401D023D0060E45
:10170800166EE551B2EC15F00B0D4F0E0001AA6FE5
:10171800FD0EAB6FF350AA27F450AB234150AA2714
:10172800000EAB23AAC0F6FFABC0F7FF8A0EE22576
:10173800D96EDA6A010EDA220800F5CFDFFFE22B54
:10174800412AD9D7E52B010E8F6FB4515FEC14F005
:10175800000903E16CEC16F002D00001E32BE1C0B4
:1017680074F00001E3519FEC16F0030E176EE80EBB
:10177800166E71EC0FF076EC16F01FD0020EB3194E
:101788001AE1B451AA6FAB6BFE0EAC6FAD6948504D
:10179800AE6FAF6BAC51AE27AD51AF23AA51AE5D62
:1017A800AF51800AB06FAB51800AB05902E2B46BF6
:1017B80001D0B42BFE6BFE5190E10001B20501E1AE
:1017C80047D71200B151010A01E101D7030A01E12B
:1017D80039D712008C90030E286E296A2A6A2B6A60
:1017E80018D09A0E206E020E216E226A236A2006F5
:1017F800000E215A225A235A2028F9E12128F7E11C
:101808002228F5E12328F3E12806000E295A2A5A4E
:101818002B5A285029102A102B10E3E18C800A0E2D
:101828002C6E2D6A2E6A2F6A18D09A0E246E020E1C
:10183800256E266A276A2406000E255A265A275A34
:101848002428F9E12528F7E12628F5E12728F3E1FE
:101858002C06000E2D5A2E5A2F5A2C502D102E10B1
:101868002F10E3E1070E176E550E8AEC15F0540E93
:101878000BEC15F0326E32C01FF0070E1F16F7E1A1
:10188800306A316A304A312AE80E305C030E31582A
:10189800F9E3010E176E1B0E8AEC15F01768070E98
:1018A8008AEC15F01768090E8AEC15F01768030E14
:1018B8008AEC15F01768050E8AEC15F0326A0001FB
:1018C800D5513224D96EDA6ADF50176E3250020DC4
:1018D800F3500B0F8AEC15F0322A070E3264EFD75B
:1018E800020E186E176E800E196E50EC13F0020E71
:1018F800186E030E176E196A50EC13F0020E186E6C
:10190800060E176E900E196E50EC13F0020E186E3C
:10191800070E176E800E196E50EC13F0020E186E3B
:10192800080E176E100E196E50EC13F0020E186E9A
:10193800200E176E210E196E50EC13F0800E176EE4
:10194800750E8AEC15F0400E176E7D0E8AEC15F0B8
:10195800600E176E7F0E8AEC15F0980E176E310E1A
:101968008AEC15F0950E176E5D0E8AEC15F0020ED6
:10197800186E0F0E176EFEEC12F0326E3250A00B7E
:10198800A00AF5E1E60E176E650E8AEC15F0020E58
:10199800186E176A030E196E50EC13F0020E186ECB
:1019A800010E176E020E196E50EC13F01D6A00013D
:1019B800DD5102EF14F0656F9DEC12F0E06B65519C
:1019C80029E1686B68510A0D080EF324D96E020EDE
:1019D800F420DA6EDF6A68510A0D000EF324D96E1E
:1019E800020EF420DA6EDF6A68510A0D010EF32444
:1019F800D96E020EF420DA6EDF6A68510A0D020E03
:101A0800F324D96E020EF420DA6EDF6A682B130E07
:101A18006865D8D7E26B686B682B130E6865FCD7CE
:101A2800655133E0FC0E176E186A020E196E010E2E
:101A38001A6EF5EC14F01F0E0001FC6501D01F0CA6
:101A4800EE0E176E186A196A020E1A6EF5EC14F08B
:101A5800FF0E176E186A030E196E010E1A6EF5EC5A
:101A680014F0000E176E020E186E040E196EC80ED2
:101A78001A6EF5EC14F0480E176E186ABA0E196E45
:101A8800010E1A6EF5EC14F028D0120EEF6F340E1A
:101A9800EE6FEE0E176E186A196A020E1A6EB4EC23
:101AA80011F0FC0E176E186A020E196E010E1A6EEE
:101AB800B4EC11F0FF0E176E186A030E196E010EC2
:101AC8001A6EB4EC11F0000E176E020E186E040EAA
:101AD800196EC80E1A6EB4EC11F0E60E0001676FAD
:101AE80066836651870B4009666F65B102D06695BB
:101AF80002D000016685669166C060F067C061F03B
:101B08007BEC14F063696469EE0E1A6E630ED3EC15
:101B180012F00001FC5176EC15F00001DF6BDF815B
:101B2800FF39F00BDF13F2881200226A2368246A57
:101B380024500A0D080EF324D96E020EF420DA6E32
:101B48000201DFAE15D0B9C016F0BAC017F02450A4
:101B58000A0D000EF324186E020EF420196E21EC03
:101B680015F0000909E024C023F0010E226E08D008
:101B7800232802E124C023F0242A130E2464D8D792
:101B8800232801E1F10C0001FF5102E0225012006C
:101B980023C0DEF0246A2450B925D96E000EBA217C
:101BA800DA6E23500A0D000E1E6E020E1F6EF350E1
:101BB8001E26F4501F2224501E24E16E000E1F2002
:101BC800E26EDFCFE7FF242A070E2464E4D7235010
:101BD8000A0D080EF324D96E020EF420DA6EDF8E99
:101BE800000120EE02F0BB51D926BC51DA22DF50A9
:101BF8001E6E010E1E1623500A0D080EF324D96E10
:101C0800020EF420DA6EDF501E18FE0B1E18DF6E6F
:101C1800246A24500001BB251E6E000EBC211F6ED5
:101C2800030E1E24D96E000E1F20DA6E23500A0DF3
:101C3800000E206E020E216E090E2026000E2122B3
:101C4800F3502026F450212224502024E16E000E67
:101C58002120E26EDFCFE7FF242A2450DAE023C0F8
:101C6800DCF0E099C5EC15F0486E480E176E186A5E
:101C7800BA0E196E010E1A6EB4EC11F087D7FFC0B8
:101C88009CF0030E9D6F9E6B78EC13F00001970596
:101C980001E1FF0C78EC13F016C09FF017C0A0F01C
:101CA80018C0A1F019C0A2F0200E00019F5FA10E7C
:101CB800A05B070EA15B000EA25BFF6BE08970D0F2
:101CC80078EC13F016C0A3F017C0A4F018C0A5F064
:101CD80019C0A6F000019F51A35D986FA051A459A7
:101CE800996FA151A5599A6FA251A6599B6F9B5103
:101CF80007E1210E985DA10E9959070E9A594AE3FA
:101D0800A3C09FF0A4C0A0F0A5C0A1F0A6C0A2F0F7
:101D18009E079E2945E1010E9E6F9D079D2902E1C0
:101D2800E099FF0CE26B8A0EE225D96EDA6A010EA1
:101D3800DA22810EDF6EE22B8A0EE225D96EDA6A8C
:101D4800010EDA22FCC0DFFFE22B8A0EE225D96EF3
:101D5800DA6A010EDA22DFC0DFFFE22BA76BA75198
:101D6800FD0FD96EDA6A8A0EE225E16EE26A010E8B
:101D7800E222DFCFE7FFE22BA72BA751F0E0EEC06E
:101D88007BF0EFC07CF07D6B7E6B010E7F6F806B0C
:101D98003DEC10F0A6EC16F0000902E0B1EC16F0EC
:101DA8000001E0B98DD79CC0FFF0DC511200206A19
:101DB80081A281B432D078EC13F016C0C8F017C0F5
:101DC800C9F018C0CAF019C0CBF081A281B423D0E1
:101DD80081B202D081A4FCD778EC13F016C025F0AC
:101DE80017C026F018C027F019C028F00001C85104
:101DF800255C216EC9512658226ECA512758236E78
:101E0800CB512858246E2450231003E1200E225C65
:101E180062E3030E5FD0206A5ED081B22DD078ECE9
:101E280013F016C0CCF017C0CDF018C0CEF019C012
:101E3800CFF081B2F0D781A2FED778EC13F016C0AC
:101E480025F017C026F018C027F019C028F00001A7
:101E5800CC51255C216ECD512658226ECE51275883
:101E6800236ECF512858246E2450231003E1200EEE
:101E7800225C31E3010E2ED081B42DD078EC13F022
:101E880016C0D0F017C0D1F018C0D2F019C0D3F0E6
:101E980081B4C1D781A4FED778EC13F016C025F021
:101EA80017C026F018C027F019C028F00001D0513B
:101EB800255C216ED1512658226ED2512758236EA7
:101EC800D3512858246E2450231003E1200E225C9D
:101ED80002E3020E206E205012001650186E1750A2
:101EE800196E1A6A1B6AA00E1802F3CF1CF0F4CF01
:101EF8001DF01E6A1F6A1902F3501D26F4501E2297
:101F0800000E1F220F0E1802F3501D26F4501E2239
:101F1800000E1F22A00E1A02F3501E26F4501F2294
:101F28000F0E1902F3501E26F4501F22000E18023D
:101F3800F3501E26F4501F22A00E1B02F3501F263A
:101F48000F0E1A02F3501F26000E1902F3501F2617
:101F5800000E1802F3501F261CC020F01DC021F0EF
:101F68001EC022F01FC023F0560E2026FF0E21228D
:101F78002222232223BEFF0C2350221021100BE122
:101F8800C40E205C08E2120000F0D90E2026FF0ED5
:101F980021222222232223BE1200235022102110A4
:101FA800F3E12004F1E212008C8E8D90176A080E7E
:101FB800166E71EC0FF08D80176A500E166E71EC6C
:101FC8000FF0300E8FEC16F0176A080E166E71ECD3
:101FD8000FF0300E8FEC16F0176A010E166E71ECCA
:101FE8000FF0300E8FEC16F0176A010E166E71ECBA
:101FF8000FF0390E8FEC16F0176A010E166E71ECA1
:102008000FF0140E8FEC16F0176A010E166E71ECB5
:102018000FF0560E8FEC16F0176A010E166E71EC63
:102028000FF06D0E8FEC16F0176A010E166E71EC3C
:102038000FF0700E8FEC16F0176A010E166E71EC29
:102048000FF00E0E8FEC16F0176A010E166E71EC7B
:102058000FF0060E8FEC16F0176A010E166E71EC73
:102068000FF0010E8FEC16F0176A280E166E71EF3E
:102078000FF0836F0001846B7F5103E0816B812B2C
:1020880002D00001816B84518119FC0B8119846F86
:10209800835103E1816B812B02D00001816B813B6D
:1020A800814784518119DF0B8119846F83B102D074
:1020B800849502D00001848580B102D0849702D033
:1020C80000018487886B8351010ED8B4000E876F96
:1020D800835103E1816B812B02D00001816B813B2D
:1020E8008147814784518119BF0B8119846F848F7F
:1020F8007DC085F07EC086F07BC089F07CC08AF008
:1021080020EE84F000EE60F0060EDBCFEBFFE80671
:10211800FCE28A0E676F010E686FE2C069F048EC56
:1021280009F00001826FE26B82511200780ED36EC3
:102138009B8CC090550EA76EAA0EA76E0E01FF913C
:10214800110EE76F170EFB6F0A0EDB6F090ED96FC2
:10215800550EA76EAA0EA76EFF81FC0E0F01486FE1
:102168001F0E496F8B94899C899E9494929C929E91
:1021780093829384F19E92829280898A8C808C8249
:10218800929A959095929380F19CF292F288938A14
:10219800949E9398C00EC76E200EC66E8C8A959A30
:1021A8008D8496948D928C8E8C968D909692959E19
:1021B80095969690958C95949598736A310E726E53
:1021C800A49E176A640E166E71EC0FF0D8EC0FF02F
:1021D800F28EF28C120081A281B412000001A86B69
:1021E800EBEC15F0B20E226E010E236E0B0E246E70
:1021F800FF0E256EEFC026F0276AEEC028F0296A88
:10220800000E2B6E190E2A6EC8EC00F0C20E226E5C
:10221800010E236E380E246EFF0E256EE6C026F0E2
:10222800276AE7C028F0296AE8C02AF02B6AC8ECB8
:1022380000F0F3EC11F00ED0976B43EC0EF0DBECF2
:102248000EF00001A96FA90503E0020EA91902E129
:10225800010EA86F0001A851EFE0120081B20FD063
:1022680040503CE1010E406E78EC13F016C0C0F00F
:1022780017C0C1F018C0C2F019C0C3F0010C81B476
:102288000FD040502BE1010E406E78EC13F016C0D1
:10229800C0F017C0C1F018C0C2F019C0C3F0020CDA
:1022A80078EC13F016C024F017C025F018C026F0FB
:1022B80019C027F00001C051245C206EC151255877
:1022C800216EC2512658226EC3512758236E2350BF
:1022D800221003E1400E215C01E3406A000CA86F64
:1022E800E60E66EC12F00001A8510BE0010EDFECDF
:1022F8000CF07F0E736FFE0E746F756B766BC3EF09
:1023080013F0899C899E000EDFEC0CF0190E76EC18
:1023180015F0000903E1190EBBEC16F0000E96EC5F
:1023280014F0000E0001776F190E21EC14F0000173
:10233800976B43EC0EF0416E412806E0010E776F73
:10234800190E21EC14F009D00A0E206E000E216A35
:10235800226A236A246AB0EC14F0898C76EF16F0AE
:10236800000EF2B8010E1C6EF2988C9A050E61EC04
:1023780016F0ACEC16F01D6E8C8AB7EC16F01DB09A
:10238800F4D78C9A060E61EC16F08C8AB7EC16F02E
:102398008C9A020E61EC16F0195061EC16F01D6A69
:1023A80015D017C0D9FF18C0DAFFDF5061EC16F05E
:1023B800174A182A1A061D2A19501D241B6E0F0EBB
:1023C8001B1604E18C8A1D501926CFD71A50E9E153
:1023D8008C8A1CB002D0F29801D0F2881200800ECC
:1023E8008FEC16F0186AB20E1824D96EDA6A010E4C
:1023F800DA22DF5004E1200E87EC16F009D0B20E85
:102408001824D96EDA6A010EDA22DF5087EC16F04A
:10241800182A0F0E1864E7D7C00E8FEC16F0100EAE
:10242800186EB20E1824D96EDA6A010EDA22DF505D
:1024380004E1200E87EC16F009D0B20E1824D96EEC
:10244800DA6A010EDA22DF5087EC16F0182A1F0E1E
:102458001864E7D71F0C02EE00F0C80EEE6AE80613
:10246800FDE101EE00F0D30EEE6AE806FDE100EEB4
:10247800B6F0470EEE6AE806FDE100EE33F0160E00
:10248800EE6AE806FDE1720EF66E2D0EF76E000E8E
:10249800F86E0900F5CFFDF00900F5CFFEF0090050
:1024A800F5CFFFF07A0EF66E2D0EF76E000EF86E71
:1024B8000900F5CF49F04A904A92000EF86E0001E3
:1024C8000EEF16F01C6E1D6A1D501C5C1B6E070E6D
:1024D8001B261BC017F0186A1D50FA0F196E010E43
:1024E8001A6EF5EC14F01D2A020E1D64EDD71C506F
:1024F800D96EDA6A040ED926DF681C50D96EDA6AFA
:10250800030ED926FE0EDF6E1D6A1D501C5C1B6E65
:10251800020E1B261BC017F0186A1D50FD0F196EFE
:10252800010E1A6EF5EC14F01D2A020E1D64EDD78B
:10253800020C010E1B6E0001D86BD96B176A020ED4
:10254800166EF80E186EC8EC14F01B16176A010EFA
:10255800166EF40E186EC8EC14F01B16176A010EEE
:10256800166EF00E186EC8EC14F01B16176AC80E1B
:10257800166EF20E186EC8EC14F01B16176A040ECD
:10258800166EFA0E186EC8EC14F01B16176A010EB8
:10259800166EF60E186EC8EC14F01B1612001B6EA1
:1025A8001B50D96EDA6ADF50466E1B50D96EDA6A54
:1025B800D92ADF50476E1A50D96EDA6ADF50446E56
:1025C8001A50D96EDA6AD92ADF50456E46C017F01C
:1025D800070E8AEC15F047C017F0090E8AEC15F0C3
:1025E80044C017F0030E8AEC15F045C017F0050E2D
:1025F8008AEF15F0000EF2B8010E1C6EF298899A57
:1026080017C019F018C01AF0D8901A321932D89099
:102618001A321932D8901A32193219507F0B8009A0
:102628007FEC16F01738E846E00B7FEC16F0000E4A
:102638007FEC16F01B6E898A1CB002D0F29801D08C
:10264800F2881B501200000EF2B8010E076EF298C5
:10265800899A02C004F003C005F0D890053204320C
:10266800D89005320432D8900532043204507F0BDA
:10267800800997EC16F00238E846E00B97EC16F064
:10268800000E97EC16F0066E898A07B002D0F29811
:1026980001D0F28806501200000EF2B8010E1C6E2E
:1026A800F298899A17C01AF018C01BF0D8901B32FC
:1026B8001A32D8901B321A32D8901B321A321A505A
:1026C8007F0B80097FEC16F01738E846E00B1009FD
:1026D8007FEC16F019507FEC16F0898A1CB002D0F6
:1026E800F29801D0F28812009D901E6A1F6A1B6A38
:1026F800CECF1CF0CFCF1DF01C2808E11D2806E125
:102708001B2A1B041A6E020E1A64F2D79EA004D06C
:102718001E2A422801E11F2A42501E2643501F2626
:102728009D801CC016F01DC017F01EC018F01FC0F9
:1027380019F012001B6A1C6A185019101BE0010ED0
:102748001A6E04D0D890183619361A2A19AEFAD744
:10275800D8901B361C361850165C1950175805E3CC
:102768001850165E1950175A1B80D8901932183213
:102778001A2EEED71BC016F01CC017F01200EBEC97
:1027880015F0B20E226E010E236E73C024F074C0D1
:1027980025F075C026F0276AC8EC00F0F3EC11F0BC
:1027A80000017651D8B41200326A176AFA0E166E12
:1027B80071EC0FF0322A070E3264F7D7070C736FEB
:1027C800EBEC15F0B20E226E010E236EA30E246EF2
:1027D800FF0E256E73C026F0276A32C028F0296ADA
:1027E800C8EC00F0C20E226E010E236EB30E246EEA
:1027F800FF0E256EC8EC00F0F3EF11F01E6E0A0E06
:102808001E64000C1A0E1E6401D0000C1EC0DDF000
:10281800020E186E176A1E50100DF350500F030960
:10282800196E50EC13F0040E176E6D0E8AEC15F04D
:10283800176A6D0E8AEC15F0010C786F000177515C
:102848000BE1020E736FFE0E746F78C075F0010E07
:10285800766FC3EC13F00AD0420E736FFE0E746FDE
:1028680078C075F0010E766FC3EC13F0030E176E87
:10287800E80E166E71EF0FF01F50201017E0010ED2
:10288800216E04D0D8901F362036212A20AEFAD7E0
:102898001F501D5C20501E5804E31F501D5E205021
:1028A8001E5AD89020321F32212EF2D71DC01DF09B
:1028B8001EC01EF01200906F000190510A0D080E04
:1028C800F324D96E020EF420DA6E0201DFAE000C9A
:1028D800000190510A0D000EF3248B6F020EF420B4
:1028E8008C6F010E8D6F8FC08EF01DEF16F060C0DB
:1028F800D4F061C0D5F0D6CF3EF00B0EDD6FEEEC14
:102908000BF03F6A0001626B6251450D000EF32423
:10291800D96E010EF420DA6EDF6A622B010E626551
:10292800F3D7010C1F6E030E1F6401D0030C1FC0E8
:10293800FFF0FFC01EF01E3AF00E1E160001DF5118
:102948000F0B1E10DF6FFF0E176E186A030E196E3D
:10295800010E1A6EB4EF11F0256E10D0120E0001A0
:10296800EF6F340EEE6F26682768EE0E1A6E260E8D
:10297800D3EC12F078EC13F078EF13F02550EEE07A
:10298800010AD8A4030A12001650D825196E175048
:10299800D9211A6E1904800E1A5801E3000C185038
:1029A800D96EDA6AD8C0DEFFD9C0DDFF1650D82745
:1029B8001750D923010CA6EC16F00009D8B4120060
:1029C800E12BE1C074F0E3519FEC16F0897E070E0D
:1029D800176ED00E166E71EC0FF076EC16F0B1EFA4
:1029E80016F08C9A030E61EC16F0195061EC16F093
:1029F8000AD0ACEC16F017C0D9FF18C0DAFFDF6EAA
:102A0800174A182A1A061A50F4E18C8A1200176E0F
:102A1800000EF2B8010E196EF298899A17507FECE1
:102A280016F0000E7FEC16F0186E898A19B002D0E5
:102A3800F29801D0F288185012001C6A1C50182411
:102A4800D96E000E1920DA6E1C501624E16E000EA5
:102A58001720E26EDE50E61801E0000C1C2A070E73
:102A68001C64ECD7010C026E000EF2B8010E046E65
:102A7800F298899A025097EC16F0000E97EC16F02F
:102A8800036E898A04B002D0F29801D0F28803500C
:102A9800120016C01CF017C01DF008D01CC0D9FFCA
:102AA8001DC0DAFF18C0DFFF1C4A1D2A1A06D8A06D
:102AB8001B061A28F3E11B28F1E11200B90E0001E8
:102AC800736FFE0E746F756B766BC3EC13F032EC9C
:102AD80011F00001776F770501E1000C020E7719FC
:102AE800F6E1010C1F6E1D6A1F5002EC14F000097C
:102AF8000CE01FC0FCF0FC0E176E186A020E196E6F
:102B0800010E1A6EB4EC11F0010C000C186E000ED8
:102B1800F2B8010E196EF298899A18507FEC16F0E7
:102B280017507FEC16F0898A19B002D0F29801D0BC
:102B3800F2881200036E000EF2B8010E046EF298CD
:102B4800899A035097EC16F0025097EC16F0898A90
:102B580004B002D0F29801D0F2881200176E080E65
:102B6800186E196AD89017341934196ED890173618
:102B78001650195C02E31650195E182EF3D7195037
:102B88001200166A176A17500A0D080EF324D96E38
:102B9800020EF420DA6E0201DFBE162A172A130E7F
:102BA8001764F1D71650120016501802F3CF1AF016
:102BB800F4CF1BF016501902F3501B2617501802B9
:102BC800F3501B261AC016F01BC017F01200010E96
:102BD8008FEC16F0176A020E166E71EC0FF0B20E3B
:102BE800166E010E176E196A200E186E1B6A1A6E81
:102BF8004DEF15F0610E0001736FFE0E746F756B6B
:102C0800010E766FC3EC13F0070E176ED00E166E1A
:102C180071EF0FF09AEC10F047EC16F0FEEC15F09F
:102C280062EC15F0B56FB55173EC11F0B5EC16F018
:102C3800FDD7EEC07BF0EFC07CF08BC07DF08CC080
:102C48007EF0000E7F6B8EC080F03DEF10F08B6F32
:102C5800EEC07BF0EFC07CF000017D6B7E6B7F6B7C
:102C68008BC080F0010E3DEF10F0186E176A3A0E17
:102C7800186005D02F0E186402D0010E176E17C009
:102C880016F016301200380ECD6E9A6ACF6ACE6AE8
:102C9800CECFDAF0CFCFDBF09E909D80CD801200B2
:102CA800020E4960020C4950450D000EF324D96EFE
:102CB800010EF420DA6EDF6A000C166EA49E729E76
:102CC80016C075FF72BEFBD7A4AEFED7A49E120035
:102CD800930E0001736FFF0E746F756B010E766FA4
:102CE800C3EF13F09C0E0001736FFE0E746F756BCB
:102CF800766BC3EF13F0166EC69E16C0C9FFC7A049
:102D0800FED7C9501200176E8C9E8C86175061EC46
:102D180016F08C8E1200176E8C9E8C96175061ECF4
:102D280016F08C8E1200016EC69E01C0C9FFC7A0A6
:102D3800FED7C9501200756F74C032F0000175518A
:102D4800E3EF13F0F4EC06F00001E0B7010C000C1F
:102D5800000E61EC16F0755012000001E09754EF78
:102D680016F0DFEF0AF000F0120001010300120074
:042D78001200FF0046
:10FCD0000020B2202020B22020B220B220202020FC
:10FCE00020B220B20D0AB220B220B220B2202020D1
:10FCF000B22020B22020B220200D0AB22020B22053
:10FD000020B220B220B22020B22020B220B20D0AB0
:10FD1000B22020B22020B220B22020B220B220B2E5
:10FD20002020B20D0AB22020B22020B220B2202022
:10FD300020B220B2202020B20D0A20202020202036
:10FD4000202020202020202020202020200D0AB24A
:10FD5000B2B22020B2B2B2B20D0AB22020B220B2AA
:10FD60002020200D0AB22020B220B2B2B2B20D0A79
:10FD7000B22020B220B22020200D0AB2B2B2202040
:10FD8000B2B2B2B20D0A2020202020202020200D67
:10FD90000A01000800400000020010008001000A73
:10FDA000006400E803102701001000000100100D9E
:10FDB0000A0D0A436F6E6E656374696F6E202020B2
:10FDC0002020506565724C6F6E6741646472657384
:10FDD00073202020202050656572496E666F0D0AE1
:10FDE000005043203A535731206F7220535732202E
:10FDF00020746F2042726F616443617374206D736D
:10FE00006700436F6E6E656374696E672050656549
:10FE10007220206F6E204368616E6E656C202564D1
:10FE20002000535731203A20556E69636173742066
:10FE30002020535732203A204E657874204E6F644C
:10FE4000650020436F6E6E65637465642050656560
:10FE50007220206F6E204368616E6E656C20256491
:10FE60000053696D706C6520503250202020202096
:10FE7000204D524632344A3430204E6F6465005271
:10FE800042303A2042726F61646361737420205281
:10FE900042323A20556E6963617374005357313AA8
:10FEA0002042726F61646361737420205357323A49
:10FEB00020556E6963617374005357313A4E65770C
:10FEC000204E6574776F726B205357323A467265D5
:10FED000657A65720042726F616463617374205069
:10FEE00061636B65742077697468205253534920AD
:10FEF00000556E6963617374205061636B65742093
:10FF0000776974682052535349200050414E494448
:10FF10003A25303278253032782043683A2530321D
:10FF200064005242303A253032642D253032782533
:10FF30003032782530327800416464726573733AE8
:10FF400020253032782530327825303278000D0A7D
:10FF50000D0A4D7920416464726573733A203078DC
:10FF60000030313233343536373839414243444535
:10FF700046003031323334353637383961626364A4
:10FF80006566005242323A2043686E6765206E6FA4
:10FF900064650020556E6963617374204661696C05
:10FFA00065640054583A253364202C2052583A2571
:10FFB0003364004D65737361676520436F756E74BC
:10FFC0000020202020202020202020202020002071
:10FFD000204368616E6E656C3A2000202050414ECF
:10FFE00049443A2030780053656375726564200097
:08FFF0002066726F6D20000015
:08FFF800ACF5DAFBFFF9FFF1A3
:00000001FF
