:04000000DAEF01F042
:100008005C82E1CF23F0E2CF24F0D9CF25F0DACF1C
:1000180026F0F3CF27F0F4CF28F0F0B4F0AAADD152
:10002800600E561801E0A4D1280ED1EC18F01F6E0E
:10003800D8901F30576E57C0DCF08B94000E66ECDA
:100048001AF0336E8B84346A3450390D500EF32411
:10005800D96E020EF420DA6E0201DFA004D0342A31
:10006800010E3464F1D7020E331803E1010E306E2D
:1000780001D0306A370E336007D0335005E0010EE7
:10008800346412D0305010E11A0ED1EC18F008D0B8
:100098008B94000E66EC1AF08B841A0ED1EC18F0D3
:1000A8002B6E2BB2F5D767D1316A33C029F02A6A93
:1000B8005BD12906D8A02A06305009E08B9431502C
:1000C8002C0FD96EDA6A000E66EC1AF017D08B94F2
:1000D8003450390D500E1F6E020E206E1F2A000E6E
:1000E8002022F3501F26F450202231501F24D96EAD
:1000F800000E2020DA6E000E66EC1AF0DF6E312A50
:100108008B843350315C01E22FD1305024E02C50E5
:10011800030B020A08E15A502D1801E02CD1010EF8
:100128000001E46F28D1010E346401D0ADD73450FA
:10013800390D510EF324D96E020EF420DA6E2CC05C
:10014800DFFF3450390D520EF324D96E020EF4201D
:10015800DA6E2DC0DFFF3450390D880EF324D96EC6
:10016800020EF420DA6E33C0DFFF32683450390DE6
:10017800510EF324D96E020EF420DA6EDFAC33D0C0
:10018800356A28D03550D225D96E000ED321DA6EC3
:100198003450390D500E206E020E216E030E2026AB
:1001A800000E2122F3502026F4502122355020241D
:1001B800E16E000E2120E26EDE50E6180AE03450AF
:1001C800390D880EF324D96E020EF420DA6EDF6A38
:1001D8005BD7352A0001D131E832E8320F0B1F6EA8
:1001E8001F50355CCFE33450390D510EF324D96ECE
:1001F800020EF420DA6E0201DFAA34D0356A000E4E
:100208003524D96EDA6A010EDA2235502C0FE16EE8
:10021800E26ADFCFE7FF352A010E3564F0D7060E14
:100228000101006F3450390D520EF324D96E020EBD
:10023800F420DA6EDF50016FF0940B6A020E7FEC47
:100248000EF0356A35502C0FD96EDA6A000E352457
:10025800E16EE26A010EE222DFCFE7FF352A010EE6
:100268003564F0D7356A3550060D370EF324D96E4C
:10027800010EF420DA6EDF5026E03450390D520EAC
:10028800F324D96E020EF420DA6E3550060D380EBE
:10029800F324E16E010EF420E26EDE50E61813E15D
:1002A80028EC17F03550060D390EF324D96E010EDF
:1002B800F420DA6E01C0DEFF02C0DEFF03C0DEFFFD
:1002C80004C0DEFF12D032280CE13550060D370E7F
:1002D800F324D96E010EF420DA6EDF5002E135C046
:1002E80032F0352A040E3564BED7040E356443D087
:1002F800050E32602ED03250060D370EF324D96E1B
:10030800010EF420DA6E010EDF6E3450390D520EF4
:10031800F324D96E020EF420DA6E3250060D380E30
:10032800F324E16E010EF420E26EDFCFE7FF28EC44
:1003380017F03250060D390EF324D96E010EF42051
:10034800DA6E01C0DEFF02C0DEFF03C0DEFF04C0BC
:10035800DEFF3450390D500EF324D96E020EF4200E
:10036800DA6E0201DF8007D029502A1004E0A1D6F6
:10037800010E0001D66FF09400F09EB09DA006D04B
:100388009E905B2A5B5002E10001E72B43EC1AF0D8
:1003980028C0F4FF27C0F3FF26C0DAFF25C0D9FF25
:1003A80024C0E2FF23C0E1FF5C921100A1EF12F02C
:1003B800700E866F78D3250E8C1909E06CC0D9FFB2
:1003C8006DC0DAFF8CC0DFFF6C4B6D2B6CD38A6B72
:1003D8008B6B8D6B8E6B09D08D8705D08D8103D08B
:1003E8008E8701D08D856E4B6F2B6EC0F6FF6FC068
:1003F800F7FF0800F550200AF1E0030AF1E00E0AC1
:10040800EBE01D0AEFE08DB78D956EC0F6FF6FC06B
:10041800F7FF0800F550F8EC19F02EE38A6B8B6BA8
:100428008AC060F08BC061F0636B0A0E626F4EEC9D
:1004380019F060C08AF061C08BF0D00E786F7969CE
:100448006EC0F6FF6FC0F7FF0800F5507A6F7B6B40
:1004580078517A2779517B237A518A277B518B23CC
:100468006E4B6F2B6EC0F6FF6FC0F7FF0800F5509C
:10047800F8EC19F014E3D4D76EC0F6FF6FC0F7FF9D
:100488000800F5502A0A0BE18651D96EDA6ADECFE8
:100498008AF0DDCF8BF0020E86276E4B6F2B6EC075
:1004A800F6FF6FC0F7FF0800F5502E0A30E18E8D79
:1004B8006E4B6F2B6EC0F6FF6FC0F7FF0800F5504C
:1004C8002A0A0AE18651D96EDA6ADF50896F020E6C
:1004D80086276E4B6F2B8AD0896B0FD06EC0F6FFC4
:1004E8006FC0F7FF0800F5CF78F089510A0DF35077
:1004F8007825D00F896F6E4B6F2B6EC0F6FF6FC0DB
:10050800F7FF0800F550F8EC19F070E3E7D7896BAE
:100518006DD08D8D88D08D8B8D8F85D089510FE0D2
:1005280089C078F0796B78BF79078451785D8551F7
:10053800795905E28951846F856B84BF85078A5193
:10054800845D8B51855905E284518A5F85518B5BA7
:1005580002D08A6B8B6B8DB71DD008D06CC0D9FFC9
:100568006DC0DAFF200EDF6E6C4B6D2B8A07D8A0AA
:100578008B078A29F3E18B290DE0F0D78351D96ED7
:10058800DA6A6CC0E1FF6DC0E2FFDFCFE7FF832BC3
:100598006C4B6D2B8407D8A085078429EFE185294A
:1005A800EDE18DA780D208D06CC0D9FF6DC0DAFF0D
:1005B800200EDF6E6C4B6D2B8A07D8A08B078A291B
:1005C800F3E18B2901E16FD2EFD78651D96EDA6A50
:1005D800DF508C6F020E86278C0E836F000E856F9E
:1005E800010E846F9BD7C00E8D131DD06EC0F6FF11
:1005F8006FC0F7FF6E4B6F2B0800F5CF8CF08C5156
:1006080001E15DD2580A87E03B0ADFE0070A0BE008
:100618000D0A09E0060A01E17CD71A0AE4E00D0A8E
:1006280001E17AD7D9D78DC078F0C00E781712E1DA
:100638008651D96EDA6ADECF87F0DDCF88F0020EF8
:10064800862788AF10D0030E8D13876D881FD8B00A
:10065800882B09D08651D96EDA6ADECF87F0DDCFD4
:1006680088F0020E8627895147E18751881144E1B5
:10067800892B42D0010E8C6F050E8C1946E08C51E7
:10068800020DB90EF324F66EFA0EF420F76E090087
:10069800F550875D0900F550885937E38C2BECD766
:1006A800010E8C6F040E8C1930E08C51020DC30EB4
:1006B800F324F66EFA0EF420F76E0900F550875D04
:1006C8000900F550885921E38C2BECD7010E8C6F6B
:1006D800060E8C191AE08C51020DAD0EF324F66E3D
:1006E800FA0EF420F76E0900F550875D0900F55001
:1006F80088590BE38C2BECD78D51C00BBBE0400A1B
:10070800E5E0C00ACDE0400AB5E08C51800A786F78
:100718008951800A785D03E289C08CF009D089513B
:10072800800A786F8C51800A785D02E28CC089F06B
:100738008A518B1108E08DC078F0030E781703E01A
:100748008A07D8A08B078EAD13D0800E89BF7F0E85
:10075800786F8A51895D8B51800A785907E28951EF
:100768008A5F000E89BFFF0E8B5B02D08A6B8B6B92
:10077800C40E786F080E796F8DC07AF08EC07BF04A
:1007880078517A1779517B17400E7A190AE1080EC9
:100798007B1907E18A518B1124E08A07D8A08B07BF
:1007A80020D0C00E786F080E796F8DC07AF08EC099
:1007B8007BF078517A1779517B17800E7A1911E1FD
:1007C800080E7B190EE18BBF0AD08B5103E1030E93
:1007D8008A5D05E3FE0E8A27FF0E8B2302D08A6B03
:1007E8008B6B800E8CBF7F0E786F8A518C5D8B511E
:1007F800800A785907E28C518A5F000E8CBFFF0E81
:100808008B5B02D08A6B8B6B8DA54FD08DC078F037
:10081800030E781709E06CC0D9FF6DC0DAFF2D0E02
:10082800DF6E6C4B6D2B31D08DA106D06CC0D9FF1B
:100838006DC0DAFF200EF4D7C00E786F080E796FFE
:100848008DC07AF08EC07BF078517A1779517B177A
:10085800800E7A191AE1080E7B1917E16CC0D9FFCE
:100868006DC0DAFF300EDF6E6C4B6D2B8DBB03D085
:100878007E6B780E02D07E6B580E7D6F6CC0D9FFF0
:100888006DC0DAFF7DC0DFFFCCD78A518B1101E143
:10089800F2D06CC0D9FF6DC0DAFF300EDF6E6C4B42
:1008A8006D2B8A07D8A08B07F0D78A518B1110E0DF
:1008B8008DB70ED06CC0D9FF6DC0DAFF200EDF6E89
:1008C8006C4B6D2B8A07D8A08B078A518B11F2E1EC
:1008D8008DC078F0030E781709E06CC0D9FF6DC0A1
:1008E800DAFF2D0EDF6E6C4B6D2B08D08DA106D074
:1008F8006CC0D9FF6DC0DAFF200EF4D7C00E786F38
:10090800080E796F8DC07AF08EC07BF078517A1717
:1009180079517B17400E7A190CE1080E7B1909E111
:100928006CC0D9FF6DC0DAFF300EDF6E6C4B6D2BDB
:10093800A2D0C00E786F080E796F8DC07AF08EC085
:100948007BF078517A1779517B17800E7A191BE161
:10095800080E7B1901E08FD06CC0D9FF6DC0DAFF9B
:10096800300EDF6E6C4B6D2B8DBB03D0806B780E19
:1009780002D0806B580E7F6F6CC0D9FF6DC0DAFF54
:100988007FC0DFFFD3D777D08951020DB90EF3248A
:10099800F66EFA0EF420F76E0900F5CF62F00A0041
:1009A800F5CF63F087C060F088C061F04FEC17F0B6
:1009B80060C067F061C068F06A6B0A0E696FF9EC95
:1009C80017F0675145D087C060F088C061F0895141
:1009D800020DC30EF324F66EFA0EF420F76E09002A
:1009E800F5CF62F00A00F5CF63F04FEC17F06051D5
:1009F8000F0B7C6F8DBB04D0410E816FFF0E03D0AF
:100A0800300E816FFF0E826F7C518125786F000E4A
:100A18008221796F78C0F6FF79C0F7FF0800F5CF1B
:100A28008CF022D087C060F088C061F08951020D37
:100A3800AD0EF324F66EFA0EF420F76E0900F5CF2A
:100A480062F00A00F5CF63F04FEC17F06051070B26
:100A5800300F8C6F09D08D51C00B96E0400AE2E050
:100A6800C00AB1E0400A90E06CC0D9FF6DC0DAFF5F
:100A78008CC0DFFF5BD789078929EDE18DB78BBF74
:100A880012D08B5102E18A050EE36CC0D9FF6DC00C
:100A9800DAFF200EDF6E6C4B6D2B8A07D8A08B0710
:100AA8008A518B11F2E16EC0F6FF6FC0F7FF6E4BF3
:100AB8006F2B0800F5CF8CF08C5101E07CD46CC012
:100AC800D9FF6DC0DAFFDF6A000CDAEC16F060C0FF
:100AD80055F161C056F162C057F163C058F1D70EA5
:100AE8008F6FFF0E906F916B926BBAEC17F0DAEC88
:100AF80016F060C059F161C05AF162C05BF163C081
:100B08005CF101015551595D0001BA6F010156515F
:100B18005A590001BB6F010157515B590001BC6F65
:100B2800010158515C590001BD6FBD5108E1410EEA
:100B3800BA5D4B0EBB594C0EBC5901E23DD2010EB9
:100B4800E16F020E7FEC14F0CC0E00018F6FFF0EE8
:100B5800906F916B926BBAEC17F0030E616FE80E11
:100B6800606FEFEC0FF0000EBAEC19F0DAEC16F04B
:100B780060C05DF161C05EF162C05FF163C060F1A9
:100B88001BD2DAEC16F060C061F161C062F162C09C
:100B980063F163C064F101015D51615D0001BA6FE9
:100BA80001015E5162590001BB6F01015F51635938
:100BB8000001BC6F0101605164590001BD6FBD5156
:100BC80007E1A10EBA5D250EBB59260EBC590CE3F0
:100BD80055EC16F0DAEC16F060C05DF161C05EF11C
:100BE80062C05FF163C060F181EC1AF0000911E0A6
:100BF800DE2BDEC091F0E0516EEC1AF0070E00011A
:100C0800616FD00E606FEFEC0FF0897686EC1AF00A
:100C180082D1BFEC14F0C36FC30504E0020EC31900
:100C280001E079D1C56B010EC26F6FD107EC1AF0E4
:100C3800C551FA1937E1880E6C6F010E6D6F3C0EC5
:100C48006E6FFE0E6F6FC551040D030EF324D96E3F
:100C5800020EF420DA6EDF50706F716BC551040D0F
:100C6800000EF324D96E020EF420DA6EDF50726F94
:100C7800736BC551040D010EF324D96E020EF420D6
:100C8800DA6EDF50746F756BC551040D020EF324D4
:100C9800D96E020EF420DA6EDF50766F776BDCECDB
:100CA80001F036D0880E6C6F010E6D6FCA0E6E6F34
:100CB800FE0E6F6FC551040D030EF324D96E020E9C
:100CC800F420DA6EDF50706F716BC551040D000EA1
:100CD800F324D96E020EF420DA6EDF50726F736B54
:100CE800C551040D010EF324D96E020EF420DA6EFC
:100CF800DF50746F756BC551040D020EF324D96E65
:100D0800020EF420DA6EDF50766F776BDCEC01F0C0
:100D1800880E6C6F010E6D6FCA0E6E6FFE0E6F6FD0
:100D2800C551040D030EF324D96E020EF420DA6EB9
:100D3800DF50706F716BC551040D000EF324D96E2E
:100D4800020EF420DA6EDF50726F736BC551040D1A
:100D5800010EF324D96E020EF420DA6EDF50746FA0
:100D6800756BC551040D020EF324D96E020EF420E2
:100D7800DA6EDF50766F776BDCEC01F0980E6C6FF3
:100D8800010E6D6F520E6E6FFF0E6F6FDCEC01F08F
:100D980023EC1AF0010E0001FC6FB4D0BFEC14F084
:100DA800C46FC40501E092D0C26BFC6BC26BC55125
:100DB800FA191EE1DF6BE56B140EE56501D012D060
:100DC800AF0EE525F66EF76AF90EF722650EDF25F8
:100DD800D96EDA6A010EDA220800F5CFDFFFDF2BC1
:100DE800E52BEAD7000E956B6DEC18F0E02B8AD056
:100DF800DF6B650EDF25D96EDA6A010EDA22CC0EBA
:100E0800DF6EDF2BC551040D000EF324D96E020EE0
:100E1800F420DA6E650EDF25E16EE26A010EE22249
:100E2800DFCFE7FFDF2BC551040D010EF324D96E88
:100E3800020EF420DA6E650EDF25E16EE26A010E1D
:100E4800E222DFCFE7FFDF2BC551040D020EF324AA
:100E5800D96E020EF420DA6E650EDF25E16EE26AC5
:100E6800010EE222DFCFE7FFDF2B040EE56F180E3D
:100E7800E56501D01CD0FC0EBA6FBB69E551BC6FAB
:100E8800BD6BBA51BC27BB51BD23AF0EBC25F66E56
:100E9800F90EBD21F76E650EDF25D96EDA6A010EEF
:100EA800DA220800F5CFDFFFDF2BE52BE0D7000EB5
:100EB800FFEC14F0C16FC15199E1F60E8F6FFE0E71
:100EC800906F916B926BBAEC17F01CD0020EC4199C
:100ED80019E1C551BA6FBB6BBC69BD69E251BE6F00
:100EE800BF6BBC51BE27BD51BF23BA51BE5DBF51B8
:100EF800800AC06FBB51800AC05902E2C56B01D09D
:100F0800C52BFC6BFC5101E049D7C20501E18ED627
:100F1800000EBAEC19F0E3050DE1190EA1EC18F07A
:100F2800000E18EC18F00001A96B52EC0DF0FF0A46
:100F3800FAE0E36BDAEC16F060C04EF061C04FF0F7
:100F480062C050F063C051F0010159514E5C00017C
:100F5800BA6F01015A514F580001BB6F01015B5133
:100F680050580001BC6F01015C5151580001BD6F20
:100F7800BD5107E1810EBA5D960EBB59980EBC595A
:100F88001BE3E16B000E7FEC14F0B40E00018F6FD1
:100F9800FF0E906F916B926BBAEC17F0030E616FB6
:100FA800E80E606FEFEC0FF04EC055F14FC056F1F0
:100FB80050C057F151C058F1E15101E198D5E1D540
:100FC800DAEC16F0DAEC16F0DAA523D0DAEC16F043
:100FD80060C0A4F061C0A5F062C0A6F063C0A7F02D
:100FE8003E50A45D9E6F3F50A5599F6F4050A65933
:100FF800A06F4150A759A16FA151A01103E1400E64
:101008009F5D07E3B30E616FFE0E626F98EC19F0F7
:10101800DA95DAA32ED0DAEC16F060C0A4F061C03D
:10102800A5F062C0A6F063C0A7F04A50A45D9E6F09
:101038004B50A5599F6F4C50A659A06F4D50A759BA
:10104800A16FA15107E1910E9E5DD00E9F59030E2D
:10105800A0590FE3DA93C20E616F020E626FEAC005
:1010680063F0EBC064F0010E666F180E656F70ECEC
:1010780011F00001DAB71200EBEC0BF00009D8B45C
:101088001200A26BC76B36A403D09E6B9E2B02D0B6
:1010980000019E6BC7519E19FC0B9E19C76F36A69F
:1010A80002D0C78702D00001C7973650030BE80665
:1010B80003E19E6B9E2B02D000019E6B9E3B9E47D8
:1010C800C7519E19DF0B9E19C76F36AE02D0C78D68
:1010D80002D00001C79D36AE04D037C0CAF038C070
:1010E800CBF03BC0CEF039C0CCF03AC0CDF03DC01B
:1010F800D0F03CC0CFF0C7AB86D168D1CAEC19F0AC
:1011080083D1020EFD6501D0F9D720EE01F0CC5154
:10111800D926CD51DA22F951DE18F0E1DF6B650EE0
:10112800DF25D96EDA6A010EDA22970EDF6EDF2B21
:10113800650EDF25D96EDA6A010EDA22D9C0DFFF23
:10114800DF2BA86BA851FB0FD96EDA6A650EDF2575
:10115800E16EE26A010EE222DFCFE7FFDF2BA82B68
:10116800A851F0E0CAEC19F0CAC087F0CBC088F0EB
:10117800010E896F000EC7B7010E8A6F000E21ECB1
:1011880011F042D1DF6B650EDF25D96EDA6A010EE8
:10119800DA22920EDF6EDF2BA86BA8510E0DCE0E51
:1011A800F324D96E020EF420DA6EDFAE38D0CAC04E
:1011B80060F0CBC061F0A8510E0DC60EF324626F2B
:1011C800020EF420636FE8EC18F0000928E0A8513B
:1011D8000E0DCE0EF324D96E020EF420DA6EDF6AFD
:1011E800A8510E0DC20EF324616F020EF420626F37
:1011F800A8510E0DEA51F324636FEB51F420646F8C
:10120800666B0E0E656F70EC11F0650E0001DF2540
:10121800D96EDA6A010EDA22DF6ADF2B04D0A82B36
:10122800130EA865BAD7CAEC19F0140EA81909E16B
:10123800650EDF25D96EDA6A010EDA22F00EDF6E4E
:10124800DF2BCAC087F0CBC088F0010E896F000E73
:10125800C7B7010E8A6F000E21EC11F0D5D0ACECA7
:101268000CF0000120EE02F0CC51D926CD51DA2243
:10127800DF50FA6FFA0E616F626BF6C063F0F7C069
:1012880064F0666B010E656F70EC11F00001DA8393
:10129800DAEC16F060C04AF061C04BF062C04CF066
:1012A80063C04DF02BD720EE01F0CC51D926CD519B
:1012B800DA22DF50D4E0010AD2E020D7DABBDA9B89
:1012C8001DD720EE01F0CC51D926CD51DA22DF50BE
:1012D80001E014D7A86BA8510E0DCE0EF324D96ED9
:1012E800020EF420DA6EDFAE2FD0CAC060F0CBC099
:1012F80061F0A8510E0DC60EF324626F020EF420A1
:10130800636FE8EC18F000091FE0A8510E0DCE0E2F
:10131800F324D96E020EF420DA6EDF6AA8510E0D9E
:10132800C20EF324616F020EF420626FA8510E0DF5
:10133800EA51F324636FEB51F420646F666B0E0E71
:10134800656F70EC11F0DAD6A82B130EA865C3D719
:10135800D5D6FE5101E0D2D6010EE66FCFD6FE51AA
:1013680001E0CCD620EE01F0CC51D926CD51DA22BD
:10137800DF509E6F9E05E26FCCC067F0CDC068F06D
:1013880081EC0FF0BBD6FE5101E1B8D6CCC060F0BD
:10139800CDC061F057EC12F0A36FA3290DE0CCC0CB
:1013A80097F0CDC098F0A3C099F0CAC09AF0CBC00E
:1013B8009BF00BEC12F0A26FA25101E19FD6CAC0BC
:1013C80091F0CBC092F013EC19F098D6CCC0D9FFAD
:1013D800CDC0DAFFDF50770AC2E0F60A01E18ED607
:1013E800030A01E1CFD6050A01E18BD6160A01E10D
:1013F8005AD7030A01E165D7050A01E15FD75B0AFD
:10140800C2E0160AA6E0DA87DAB5DAA701D0DA95DB
:10141800CE5104E0DAB902D0DAAB1200DA97CAEF9B
:1014280019F00001666F140E66651DD01D0E616F00
:10143800FF0E626F98EC19F0686B6851B008D96EAE
:10144800000ED8A0E82A0108DA6EDF5035EC18F053
:101458000001682B070E6865F0D7C00E616FFF0E9C
:10146800626F98EC19F0140E66616AD00B0E616F0A
:10147800FC0E626F98EC19F066510E0DCE0EF32437
:10148800D96E020EF420DA6EDFAE1200665135EC2A
:1014980018F0A60E0001616FFF0E626F98EC19F04C
:1014A800686B080E686119D066510E0DC20E646F24
:1014B800020E656F0B0E6427000E6523F350642738
:1014C800F45065236851645DD96E6551D8A06505EF
:1014D800DA6EDF5035EC18F006D0B10E616FFF0EF2
:1014E800626F98EC19F00001682B070E6865D9D770
:1014F800AF0E616FFF0E626F98EC19F0686B665162
:101508000E0DC20E646F020E656F0D0E6427000E7D
:101518006523F3506427F450652368516425D96E18
:10152800000E6521DA6EDF5035EC18F00001682BEB
:101538006851E5E0F40E616FFF0E626F9CEF19F0E1
:10154800090E616FFC0E626F98EC19F0686B6851B8
:101558000E0DCE0EF324D96E020EF420DA6EDFAE35
:101568005AD0685135EC18F0A60E0001616FFF0ED5
:10157800626F98EC19F0676B080E676119D06851B3
:101588000E0DC20E646F020E656F0B0E6427000EFF
:101598006523F3506427F45065236751645DD96E61
:1015A8006551D8A06505DA6EDF5035EC18F006D025
:1015B800B10E616FFF0E626F98EC19F00001672B96
:1015C800070E6765D9D7AF0E616FFF0E626F98EC93
:1015D80019F0676B68510E0DC20E646F020E656FCD
:1015E8000D0E6427000E6523F3506427F45065231D
:1015F80067516425D96E000E6521DA6EDF5035EC2F
:1016080018F00001672B6751E5E0F40E616FFF0EDB
:10161800626F98EC19F0682B130E686598D7130C55
:10162800726F32EC13F0DA6B725129E1766B7651F6
:101638000E0DCE0EF324D96E020EF420DA6EDF6A98
:1016480076510E0DC60EF324D96E020EF420DA6E12
:10165800DF6A76510E0DC70EF324D96E020EF42000
:10166800DA6EDF6A76510E0DC80EF324D96E020EBB
:10167800F420DA6EDF6A762B130E7665D8D7DF6B27
:10168800766B762B130E7665FCD7725154E0F90E03
:10169800616F626BECC063F0EDC064F0666B010EC5
:1016A800656FAFEC16F01F0E0001F96501D01F0C35
:1016B800FD0E616F626BE8C063F0E9C064F0666BB1
:1016C800010E656FAFEC16F0C20E0001616F020EDD
:1016D800626FEAC063F0EBC064F0010E666F180E2B
:1016E800656FAFEC16F0FE0E0001616F626BF4C01F
:1016F80063F0F5C064F0666B010E656FAFEC16F031
:10170800FA0E0001616F626BF6C063F0F7C064F017
:10171800666B010E656FAFEC16F0F80E0001616F95
:10172800626BEEC063F0EFC064F0666B010E656F2C
:10173800AFEC16F028D0F90E616F626BECC063F065
:10174800EDC064F0666B010E656F70EC11F0FD0E74
:101758000001616F626BE8C063F0E9C064F0666B1A
:10176800010E656F70EC11F0C20E0001616F020E80
:10177800626FEAC063F0EBC064F0010E666F180E8A
:10178800656F70EC11F0A90E0001746F010E756F92
:1017980073837351870B4009736F72B102D07395CD
:1017A80002D000017385739173C06EF074C06FF03E
:1017B80075C070F0BEEC11F00001F951A1EC18F001
:1017C8000001D96BFD39F00BD913F08A1200776B41
:1017D800DAEC16F060C072F061C073F062C074F0A9
:1017E80063C075F07751060D370EF324D96E010EDC
:1017F800F420DA6EDF503FE07751060D390EF324FE
:10180800D96E010EF420DA6E7251DE5C7351DE5827
:101818007451DE587551DE582EE27751060D390E97
:10182800F324D96E010EF420DA6EDECF6AF0DECF33
:101838006BF0DECF6CF0DECF6DF06A51725D6E6FCB
:101848006B5173596F6F6C517459706F6D51755935
:10185800716F715107E1910E6E5DD00E6F59030ED5
:10186800705909E37751060D370EF324D96E010E2E
:10187800F420DA6EDF6A772B040E7765A9D7DD29A5
:1018880001E0000C776B7751390D500EF324D96EB7
:10189800020EF420DA6EDFA055D000017751390D21
:1018A800510EF324D96E020EF420DA6EDF50366E34
:1018B8007751390D880EF324D96E020EF420DA6EB2
:1018C800DF503B6E020E766F36AC05D0D131E83270
:1018D800E8320F0B762736AE19D07751390D500EF6
:1018E8006A6F020E6B6F6A2B000E6B23F3506A2728
:1018F800F4506B2376516A25376E000E6B21386ED3
:10190800D131E832E8320F0B762702D0376A386ACD
:1019180076513B5E7751390D500E6A6F020E6B6F30
:101928006A2B000E6B23F3506A27F4506B23765111
:101938006A25396E000E6B213A6EDCC03CF077C028
:10194800DDF0010C0001772B010E77659CD7000CA8
:101958006F69706B70510E0DCE0EF324D96E020EA6
:10196800F420DA6EDFAE13D0CAC060F0CBC061F0ED
:1019780070510E0DC60EF324626F020EF420636FD1
:10198800E8EC18F0000907E070C06FF008D06F2984
:1019980002E170C06FF0702B130E7065DBD76F29F2
:1019A80001E11200FD5101E01200706B7051CA256F
:1019B800D96E000ECB21DA6E6F510E0DC20E6A6F12
:1019C800020E6B6F040E6A27000E6B23F3506A2712
:1019D800F4506B2370516A25E16E000E6B21E26EA4
:1019E800DFCFE7FF702B070E7065E0D76F510E0D44
:1019F800CE0EF324D96E020EF420DA6EDF8E20EEBE
:101A080002F0CC51D926CD51DA22DF506A6F010E8F
:101A18006A176F510E0DCE0EF324D96E020EF42004
:101A2800DA6EDF506A19FE0B6A19DF6E706B70513F
:101A3800CC256A6F000ECD216B6F030E6A25D96E17
:101A4800000E6B21DA6E6F510E0DC20E6C6F020E16
:101A58006D6F0D0E6C27000E6D23F3506C27F4503C
:101A68006D2370516C25E16E000E6D21E26EDFCFA3
:101A7800E7FF702B7051DBE06FC0D7F0DA9901EC0B
:101A880017F0F86FF80E616F626BEEC063F0EFC08D
:101A980064F0666B010E656F70EF11F0FDC0AEF07B
:101AA800030EAF6FB06BDAEC16F0A90501E1FF0C7D
:101AB800DAEC16F060C0B1F061C0B2F062C0B3F009
:101AC80063C0B4F0900EB15FD00EB25B030EB35B8F
:101AD800000EB45BFD6BDA8974D0DAEC16F060C0E6
:101AE800B5F061C0B6F062C0B7F063C0B8F0B151EC
:101AF800B55DAA6FB251B659AB6FB351B759AC6F58
:101B0800B451B859AD6FAD5107E1910EAA5DD00E31
:101B1800AB59030EAC594FE3B5C0B1F0B6C0B2F043
:101B2800B7C0B3F0B8C0B4F0B007B0294AE1010EAD
:101B3800B06FAF07AF2902E1DA99FF0CDF6B650ED2
:101B4800DF25D96EDA6A010EDA22810EDF6EDF2B0D
:101B5800650EDF25D96EDA6A010EDA22F9C0DFFFD9
:101B6800DF2B650EDF25D96EDA6A010EDA22D9C0BD
:101B7800DFFFDF2B650EDF25D96EDA6A010EDA2268
:101B8800AA0EDF6EDF2BB96BB951FB0FD96EDA6A7B
:101B9800650EDF25E16EE26A010EE222DFCFE7FF84
:101BA800DF2BB92BB951F0E0876B886B010E896F79
:101BB8008A6B21EC11F081EC1AF0000902E086EC46
:101BC8001AF0DAB98AD7AEC0FDF0D75112007B6F90
:101BD800030E0001786F88D0796BE46B776B6A51DC
:101BE80019E0280E87EC18F07A6FD8907A33410EF6
:101BF8007A6510D0772B77056B6F040E6B6501D073
:101C0800000C010E606F000E616B626B636B91ECF0
:101C18001AF0E7D7F09A200EBBEC15F01A0E000167
:101C2800626FC90E616FFEEC18F000017B513BEC4E
:101C380019F000017D6B0BD0000E7D25D96EDA6A94
:101C4800010EDA22DF503BEC19F000017D2B7B51AD
:101C58007D5DF2E3800EBBEC15F0F08A0001D651F1
:101C680002E1F0A4FBD7D66B200EBBEC15F0600E9A
:101C7800BBEC15F0010100AB0ED001C15AF0DAEC53
:101C880016F060C06FF061C070F062C071F063C0A0
:101C980072F0E45104E0010E00017C6F2AD0DAEC06
:101CA80016F060C073F061C074F062C075F063C074
:101CB80076F06F51735D6B6F705174596C6F715121
:101CC80075596D6F725176596E6F6E516D1105E1D0
:101CD800D50E6B5D300E6C59DCE3792B79056B6F93
:101CE800040E6B6101D079D77807782901E074D7A1
:101CF8007C6B7C511200106E030E1B6E84D01C6A24
:101D08000001E46B1A6A0B5019E0280ED1EC18F0A8
:101D18001D6ED8901D32410E1D6410D01A2A1A0467
:101D28000C6E040E0C6401D0040C010E016E000E42
:101D3800026A036A046A92EC1AF0E7D7F09A200E56
:101D4800F1EC15F01A0E036EC90E026E61EC19F073
:101D58001050A9EC19F01E6A0AD0000E1E24D96E84
:101D6800DA6A010EDA22DF50A9EC19F01E2A1050A7
:101D78001E5CF3E3800EF1EC15F0F08A0001D651F9
:101D880002E1F0A4FBD7D66B200EF1EC15F0600E43
:101D9800F1EC15F0010100AB0ED001C15AF028ECAE
:101DA80017F001C012F002C013F003C014F004C011
:101DB80015F0E45103E0010E116E010C28EC17F048
:101DC80001C016F002C017F003C018F004C019F0E3
:101DD8001250165C0C6E135017580D6E145018588C
:101DE8000E6E155019580F6E0F500E1005E1D50ED6
:101DF8000C5C300E0D58DDE31C2A1C040C6E040E1E
:101E08000C6001D07DD71B061B2801E078D7116A2A
:101E18001200230E836501D0000C7EB503D0846BBD
:101E2800842B02D00001846B843B844784477E5115
:101E38008419BF0B84197E6F7E8F7E51030BE806D1
:101E480001E17E8F7EC000F1D8C001F1D82B020ECF
:101E5800856F7EAD1AD0866B10D086517F25D96EDE
:101E6800000E8021DA6E000E8525E16EE26A010E11
:101E7800E222DFCFE7FF852B862BD131E832E8322B
:101E88000F0B846F8451865DE8E37EAF1AD0866BB2
:101E980010D08651D225D96E000ED321DA6E000EED
:101EA8008525E16EE26A010EE222DFCFE7FF852B8E
:101EB800862BD131E832E8320F0B846F8451865D6E
:101EC800E8E3866B10D086518125D96E000E8221F9
:101ED800DA6E000E8525E16EE26A010EE222DFCF9E
:101EE800E7FF852B862B8351865DEDE3000ED1B38A
:101EF800010E6A6F8551EBEF0DF0040E6C6F6CC02C
:101F080069F0030E691761E16C51696F6A6B030E22
:101F18006927000E6A236ABF05D06A5156E1230E6D
:101F2800695D53E26C516725696F000E68216A6F1D
:101F3800030E6925D96E000E6A21DA6EDF506B6FC9
:101F48006B51040D030EF324D96E020EF420DA6EE1
:101F58006BC0DFFF6C516725D96E000E6821DA6E01
:101F68006B51040D000EF324E16E020EF420E26EB4
:101F7800DFCFE7FF6C516725696F000E68216A6F34
:101F88006929D96E000E6A21DA6E6B51040D010EB3
:101F9800F324E16E020EF420E26EDFCFE7FF6C510E
:101FA8006725696F000E68216A6F020E6925D96E70
:101FB800000E6A21DA6E6B51040D020EF324E16EF5
:101FC800020EF420E26EDFCFE7FF6C2B220E6C6569
:101FD80096D725EF16F06051626F6151636F646B9D
:101FE800656BD00E6203F3CF66F0F4CF67F0686BD1
:101FF800696B6303F3506727F4506823000E692365
:10200800070E6203F3506727F4506823000E692314
:10201800D00E6403F3506827F4506923070E630356
:10202800F3506827F4506923000E6203F3506827C1
:10203800F4506923D00E6503F3506927070E640333
:10204800F3506927000E6303F3506927000E6203FB
:10205800F350692766C06AF067C06BF068C06CF01F
:1020680069C06DF0560E6A27FF0E6B236C236D2333
:102078006DBFFF0C6D516C116B110CE1C40E6A5DE4
:1020880009E2120000F0D90E00016A27FF0E6B2347
:102098006C236D236DBF12006D516C116B11F2E151
:1020A8006A05F0E212000150036E0250046E056AE0
:1020B800066AD00E0302F3CF07F0F4CF08F0096ADE
:1020C8000A6A0402F3500826F4500922000E0A2274
:1020D800070E0302F3500826F4500922000E0A22C4
:1020E800D00E0502F3500926F4500A22070E040206
:1020F800F3500926F4500A22000E0302F350092671
:10210800F4500A22D00E0602F3500A26070E0502E2
:10211800F3500A26000E0402F3500A26000E0302AA
:10212800F3500A2607C00BF008C00CF009C00DF0E8
:102138000AC00EF0560E0B26FF0E0C220D220E22A0
:102148000EBEFF0C0E500D100C100BE1C40E0B5CF4
:1021580008E2120000F0D90E0B26FF0E0C220D2209
:102168000E220EBE12000E500D100C10F3E10B04DF
:10217800F1E21200260E8F6FFD0E906F916B010E2B
:10218800926FBAEC17F0850E616FFE0E626F98ECD5
:1021980019F0B60E616FFD0E626F98EC19F0EC0E37
:1021A800616FFD0E626F98EC19F06D0E616FFE0E97
:1021B800626F98EC19F0D10E616FFD0E626F98ECAA
:1021C80019F0070E616FFE0E626F98EC19F0CA0ED7
:1021D800616FFC0E626F98EC19F09C0E616FFE0E39
:1021E800626F98EC19F04F0E616FFB0E626F98ECFE
:1021F80019F08F0E616FFB0E626F98EC19F00D0EDF
:10220800616FFB0E626F98EC19F0CB0E616FFA0EDE
:10221800626F98EC19F0CD0E616FFB0E626F98EC4F
:1022280019F0F20E616FFF0E626F98EC19F0050E4F
:10223800616FDC0E606FEFEF0FF08D6F00018E6B3A
:10224800895103E08B6B8B2B02D000018B6B8E5175
:102258008B19FC0B8B198E6F8D5103E18B6B8B2BBC
:1022680002D000018B6B8B3B8B478E518B19DF0B98
:102278008B198E6F8DB102D08E9502D000018E859C
:102288008AB102D08E9702D000018E878D5103E16A
:102298008B6B8B2B02D000018B6B8B3B8B478B4757
:1022A8008E518B19BF0B8B198E6F8E8F87C08FF055
:1022B80088C090F08EC07EF08FC07FF090C080F014
:1022C800650E816F010E826FDFC083F00DEC0FF099
:1022D8008C6FDF6B8C511200000EF0BA010E686F24
:1022E800F09A8C9A050E4DEC1AF0000E4DEC1AF08F
:1022F8000001696F8C8A8FEC1AF0000169B1F1D77F
:102308008C9A060E4DEC1AF08C8A8FEC1AF08C9A87
:10231800020E4DEC1AF0000164514DEC1AF0000168
:1023280063514DEC1AF00001696B1AD061C0D9FFF6
:1023380062C0DAFFDF504DEC1AF00001614B622BEE
:102348006507D8A06607692B69516325676F3F0E3B
:10235800671706E18C8A69516327000E6423C1D789
:1023680065516611E3E18C8A68B102D0F09A01D018
:10237800F08A12006EC0D1F06FC0D2F070C0D3F0F6
:10238800616B140E606FEFEC0FF08D828B84D6CFEB
:10239800D8F0DD69716B7151390D500EF324D96E87
:1023A800020EF420DA6EDF6A712B010E7165F3D725
:1023B800716B7151020D2D0EF324F66EFA0EF42096
:1023C800F76E0900F5CF61F00A00F5CF62F0FEEC78
:1023D80018F00001712B1F0E7165EBD7200EBBECB6
:1023E80015F00001626B460E616FFEEC18F0400EAE
:1023F800BBEC15F01C0E0001626F0F0E616FFEEC56
:1024080018F0600EBBEC15F0F094F08A1200DF6B48
:102418009AC0D9FF9BC0DAFF650EDF25E16EE26A3C
:10242800010EE222DFCFE7FFDF2B20EE01F09A5109
:10243800D9269B51DA22650EDF25E16EE26A010E8C
:10244800E222DFCFE7FFDF2B20EE02F09A51D926F8
:102458009B51DA22650EDF25E16EE26A010EE22267
:10246800DFCFE7FFDF2B030E9D6F9D519725D96EB8
:10247800000E9821DA6E650EDF25E16EE26A010E24
:10248800E222DFCFE7FFDF2B9D2B220E9D65EDD7E4
:10249800956B99516DEC18F09C6F9C5102E1E9EC39
:1024A80019F09C511200646B40D064510E0DCE0E91
:1024B800F324D96E020EF420DA6EDFAE35D0645103
:1024C8000E0DC60EF324D96E020EF420DA6E10EE4D
:1024D80001F06051E1266151E222DE50E61824E164
:1024E80064510E0DC70EF324D96E020EF420DA6E75
:1024F80010EE02F06051E1266151E222DE50E6184A
:1025080013E164510E0DC80EF324D96E020EF420A7
:10251800DA6E10EE03F06051E1266151E222DE50DE
:10252800E61802E164511200642BF851645DBDE3C2
:10253800F8516419D8B4FF0E120002EEC2F011EE81
:1025480018F0EE6AE550E150FCE1E250FAE102EEE3
:1025580000F0C20EEE6AE806FDE101EE00F0B10EF1
:10256800EE6AE806FDE100EEC7F0340EEE6AE80612
:10257800FDE100EE36F0260EEE6AE806FDE1AC0E4F
:10258800F66E340EF76E000EF86E01EEB1F010EE36
:1025980010F00900F5CFEEFFE550E150FAE1120E18
:1025A800F66E350EF76E000EF86E00EEFBF010EECC
:1025B80004F00900F5CFEEFFE550E150FAE15C9038
:1025C8005C92000EF86E0001DAEF19F0676F1F0ECB
:1025D8000001676501D0000C0C0E626F640E616F1C
:1025E800FEEC18F06D0E00016725F66EF76AFA0E1C
:1025F800F7220800F5CF66F0000E6611616F0E0E27
:10260800626FFEEC18F08D0E00016725F66EF76A12
:10261800FA0EF7220800F5CF66F0000E6611616F1A
:10262800100E626FFEEC18F0200EBBEC15F00001E6
:10263800626B460E616FFEEC18F0400EBBEC15F0B5
:102648001C0E0001626F0F0E616FFEEC18F0200E79
:10265800BBEC15F0600EBBEC15F0010C010E00018F
:10266800656FD46BD56B616B020E606FF00E626F95
:10267800BAEC18F06517616B010E606FEC0E626FB3
:10268800BAEC18F06517616B010E606FE80E626FA7
:10269800BAEC18F06517010E616F180E606FEA0E3C
:1026A800626FBAEC18F06517616B040E606FF20E7A
:1026B800626FBAEC18F06517616B010E606FEE0E71
:1026C800626FBAEC18F06517616B010E606FF40E5B
:1026D800626FBAEC18F06517616B010E606FF60E49
:1026E800626FBAEC18F0651712006A6B6A51665D82
:1026F800686F000E6759696F070E6825616F000ED5
:102708006921626F6A51FA0F636F010E646F74EC8E
:1027180017F000016A2B020E6A65E8D720EE04F074
:102728006651D9266751DA22DF6820EE03F0665138
:10273800D9266751DA22FE0EDF6E6A6B6A51665D32
:10274800686F000E6759696F020E6825616F000E89
:102758006921626F6A51FD0F636F010E646F74EC3B
:1027680017F000016A2B020E6A65E8D7020C545074
:10277800555C04E35850595CD8B0120071B0FED7CC
:102788005450555C15E25550420FD96EDA6ADF5045
:10279800756E552A54505518D8A412005850D8A40C
:1027A80012007184010E026E2C0E016E57EF10F0AC
:1027B8005850595CD8B01200880E5924D96EDA6A7C
:1027C800010EDA22DF5008E1880E5924D96EDA6A40
:1027D800010EDA22200EDF6E880E5924D96EDA6ACD
:1027E800010EDA22DF50756E592A58505918D9E06F
:1027F80012007B0ED36EC090F26A550EA76EAA0E19
:10280800A76E0E01FF91060EE96F130EF66F050E07
:10281800D76F550EA76EAA0EA76EFF810F014869E4
:102828003F0E496FF19E9268936894689568966820
:10283800896A8A6A8C6A8D6A95948C84949C8B9C2C
:102848009380938492949296958E93869586938A94
:10285800949E9398C00EC76E210EC66E949496925D
:102868008B848D82F18696908D80959A8C8AF28ED3
:1028780098EF17F0BA6FA90E0001666F010E676F27
:1028880079EC13F0BA5103E0010E14EF0BF08994C0
:102898008996000E14EC0BF0190EA1EC18F0000943
:1028A80003E1190E86EF19F0000E18EC18F0000E6F
:1028B8000001946F190E3EEC15F0A96B52EC0DF067
:1028C800E56FE52906E0010E946F190E3EEC15F050
:1028D800FE6BFE0E616F626BF4C063F0F5C064F0CE
:1028E800666B010E656F70EC11F0FF0E15EC0AF0C7
:1028F80089845EEF1AF0A96F36D0DAA310D0C20E21
:10290800616F020E626FEAC063F0EBC064F0010E03
:10291800666F180E656F70EC11F00001DA93000E07
:1029280084EC16F00009D8B412000001DA81120014
:10293800FF0E84EC16F00009D8B412000001DA91F9
:102948001200FF0E84EC16F0000901E112000001EC
:10295800DA9155EC16F0000903E11200E4EC07F0F7
:10296800DAA51200FBD70001A951C7E0010AE0E08F
:10297800030AE7E0120081B00FD0DB513BE1010E02
:10298800DB6FDAEC16F060C046F061C047F062C059
:1029980048F063C049F0010C81B40FD0DB512AE143
:1029A800010EDB6FDAEC16F060C046F061C047F04C
:1029B80062C048F063C049F0020CDAEC16F060C05F
:1029C8006EF061C06FF062C070F063C071F0465085
:1029D8006E5D6A6F47506F596B6F485070596C6FD6
:1029E800495071596D6F6D516C1103E1400E6B5D6B
:1029F80001E3DB6B000CAD6F0001E66BC60E876F61
:102A0800020E886F010E896FADC08AF0000E21ECAE
:102A180011F0DAEC16F060C0AEF061C0AFF062C041
:102A2800B0F063C0B1F022D0DAEC16F060C0B2F0BA
:102A380061C0B3F062C0B4F063C0B5F081EC1AF0C5
:102A4800AE51B25DA96FAF51B359AA6FB051B45925
:102A5800AB6FB151B559AC6FAC51AB1105E1A90ED3
:102A6800A95D610EAA5902E3E60502E1E651DCE040
:102A7800E6511200956F000194511BE18A0E8F6F89
:102A8800FC0E906F95C091F0010E926FBAEC17F0A2
:102A9800080E616FFD0E626F98EC19F095517DEC90
:102AA80015F0F40E0001616FFF0E626F98EC19F0DB
:102AB8001AD0E90E8F6FFC0E906F95C091F0010E41
:102AC800926FBAEC17F0440E616FFD0E626F98ECCE
:102AD80019F095517DEC15F0F40E0001616FFF0EB1
:102AE800626F98EC19F0030E616FE80E606FEFEFFC
:102AF8000FF06A6F630E00016A6510D0640E646F90
:102B08006A5152EC18F0686F696BB10E6825D96E7E
:102B1800010E6921DA6EDF5075EC1AF0090E00011A
:102B28006A6514D00A0E646F640E606F6A5127ECF0
:102B380019F052EC18F0686F696BB10E6825D96E00
:102B4800010E6921DA6EDF5075EC1AF00A0E0001E9
:102B5800606F6A5127EC19F0686F696BB10E6825D0
:102B6800D96E010E6921DA6EDF5075EF1AF0000197
:102B7800646F27D0626B860E616FFEEC18F0800ED2
:102B8800566E800C626B660E616FFEEC18F0600E7C
:102B9800566E600C626B460E616FFEEC18F0400ECC
:102BA800566E400C626B260E616FFEEC18F0200E1C
:102BB800566E200C626B060E616FFEEC18F0566ABA
:102BC800120000016451F6E0200AECE0600AE2E03D
:102BD800200AD8E0E00ACEE01200056E27D0036A8A
:102BE800860E026E61EC19F0800E566E800C036A38
:102BF800660E026E61EC19F0600E566E600C036A88
:102C0800460E026E61EC19F0400E566E400C036AD7
:102C1800260E026E61EC19F0200E566E200C036A27
:102C2800060E026E61EC19F0566A12000550F7E0C4
:102C3800200AEDE0600AE3E0200AD9E0E00ACFE0EC
:102C48001200FE51D8A41200666B18D06651040D0C
:102C5800000EF324D96E020EF420DA6E0101A95198
:102C6800DE180AE100016651040D010EF324D96E45
:102C7800020EF420DA6EDE500001662BE251606F1E
:102C8800616B602B000E61236651626F636B60514C
:102C9800625D6351800A646F6151800A6459D6E3AA
:102CA8001200DFC091F065C192F0DF6B650EDF2581
:102CB800D96EDA6A010EDA22040EDF6EDF2BC60E39
:102CC800876F020E886F010E896F000E8A6B21ECE8
:102CD80011F0000910E0DA85DAEC16F060C03EF079
:102CE80061C03FF062C040F063C041F092C065F13E
:102CF80091C0DFF0010C92C065F191C0DFF0000CCB
:102D080000016E6F21D0000EBBEC15F0F09A010C9B
:102D1800200EBBEC15F0600EBBEC15F0F08A00013C
:102D2800616B0A0E606FEFEC0FF06F6B6F51060D61
:102D3800370EF324D96E010EF420DA6EDF6A6F2B9A
:102D4800040E6F65F3D7010C00016E51DCE0FF0A39
:102D5800D8A4000CDDD7000EF0BA010E676FF09A08
:102D68008C9A030E4DEC1AF0000164514DEC1AF0E8
:102D7800000163514DEC1AF00ED0000E4DEC1AF024
:102D880061C0D9FF62C0DAFFDF6E0001614B622BC0
:102D98006507D8A06607000165516611EEE18C8AC7
:102DA80067B102D0F09A01D0F08A12009D9000011C
:102DB800686B696B656BCECF66F0CFCF67F066291D
:102DC80008E1672906E1652B6505646F020E6465F5
:102DD800F2D79EA004D0682B5B2801E1692B5B50D9
:102DE8006827E75169279D8066C060F067C061F079
:102DF80068C062F069C063F01200606B616B61517A
:102E08000E0DC60EF324D96E020EF420DA6EDF50D2
:102E180014E161510E0DC70EF324D96E020EF42091
:102E2800DA6EDF500AE161510E0DC80EF324D96E37
:102E3800020EF420DA6EDF5001E0602B612B130ED6
:102E48006165DDD7605112009D90096A0A6A066AB9
:102E5800CECF07F0CFCF08F0072808E1082806E111
:102E6800062A0604056E020E0564F2D79EA004D059
:102E7800092A5B2801E10A2A5B5009260001E7516B
:102E88000A269D8007C001F008C002F009C003F0BF
:102E98000AC004F01200656B666B625163111BE097
:102EA800010E646F04D0D89062376337642B63AF28
:102EB800FAD7D890653766376251605D63516159BA
:102EC80005E36251605F6351615B6581D89063334C
:102ED8006233642FEED765C060F066C061F01200FF
:102EE800000EF2BE010E656FF29E8D90030E4DEC42
:102EF8001AF0000163514DEC1AF00CD0000E4DECA5
:102F08001AF061C0D9FF62C0DAFFDF6E0001614BC1
:102F1800622B640700016451F1E18D8065B102D034
:102F2800F29E01D0F28E1200530E9512A49E736A7F
:102F3800F00E746E280E726E716AA38EF28EF28C89
:102F4800010E0001616F2C0E606FEFEC0FF07C0E2C
:102F5800426E810E436E446A606B030E2EEC1AF0CB
:102F68000001616BC80E606FEFEF0FF007EC1AF00D
:102F7800880E6C6F010E6D6F8FC06EF090C06FF091
:102F880091C070F0716BDCEC01F023EC1AF00001D9
:102F98009251D8B41200936B616BFA0E606FEFEC2C
:102FA8000FF0932B070E9365F7D7070C906F07EC7C
:102FB8001AF0880E6C6F010E6D6F850E6E6FFF0E26
:102FC8006F6F90C070F0716BDCEC01F0980E6C6F55
:102FD800010E6D6F740E6E6FFF0E6F6F8FC070F005
:102FE800716BDCEC01F023EF1AF069516A1117E0FC
:102FF800010E6B6F04D0D89069376A376B2B6AAFB4
:10300800FAD76951675D6A51685904E36951675F86
:103018006A51685BD8906A3369336B2FF2D767C0FF
:1030280067F068C068F0120000016B6F030E6B65F3
:1030380001D0030C6BC0FDF0FDC06AF06A3BF00ED6
:103048006A17D9510F0B6A11D96FFD0E616F626B48
:10305800E8C063F0E9C064F0666B010E656F70EF5D
:1030680011F0626F62C061F0000162390F0B626F8C
:10307800B10E6225D96EDA6A010EDA22DF5075ECDC
:103088001AF0000161510F0B626FB10E6225D96E03
:10309800DA6A010EDA22DF5075EF1AF0656F000167
:1030A800676B645114E0010E666F03D0D8906437E3
:1030B800662B64AFFBD7D89067376451655D03E32F
:1030C8006451655F6781D8906433662FF4D7675180
:1030D8001200966F000196510E0DCE0EF324D96E94
:1030E800020EF420DA6EDFAE000C96510E0DC60EFD
:1030F800F324916F020EF420926F010E936F95C026
:1031080094F039EF1AF00001616F000EF0BA010E69
:10311800636FF09A8D92618D61514DEC1AF0000E3B
:103128004DEC1AF00001626F8D8263B102D0F09A03
:1031380001D0F08A0001625112006A6F0001656BCC
:103148006A51EAEC12F0000910E06AC0F9F0F90ED1
:103158000001616F626BECC063F0EDC064F0666BF8
:10316800010E656F70EC11F0010C000C6051D42554
:10317800636F6151D521646F6305800E645901E363
:10318800000C6251D96EDA6AD4C0DEFFD5C0DDFF0B
:103198006051D4276151D523010C026E000EF0BA9C
:1031A800010E046EF09A8D92028C025066EC1AF0B1
:1031B800000E66EC1AF0036E8D8204B002D0F09A0D
:1031C80001D0F08A03501200666B66516225D96EF1
:1031D800000E6321DA6E66516025E16E000E6121F2
:1031E800E26EDE50E61801E0000C662B070E6665FD
:1031F800ECD7010C000EF0BA010E636FF09A8D92B5
:1032080062514DEC1AF0000161514DEC1AF08D82BB
:10321800000163B102D0F09A01D0F08A1200DF6B8E
:10322800650EDF25D96EDA6A010EDA22DA0EDF6E54
:10323800DF2B91C087F092C088F0010E896F000ED5
:103248008A6B21EF11F0616F080E0001626F636BEA
:10325800D89061356335636FD89061376051635D8D
:1032680002E36051635F622FF3D763511200616F0D
:10327800000EF0BA010E0001626FF09A8B94615152
:103288004DEC1AF08B84000162B102D0F09A01D0A3
:10329800F08A120060516203F3CF64F0F4CF65F056
:1032A80060516303F350652761516203F35065274A
:1032B80064C060F065C061F01200000EF0BA010E43
:1032C800046EF09A8D92035066EC1AF0025066EC88
:1032D8001AF08D8204B002D0F09A01D0F08A120060
:1032E8007E0E8F6FFD0E906F916B926BBAEC17F09C
:1032F800BFEC14F0946F940501E1000C020E9419D0
:10330800F7E1010C00016B6F550E616FFE0E626FE5
:1033180098EC19F06B517DEC15F03B0E0001616FD4
:10332800FC0E626F9CEF19F003D063517BEC1AF02E
:1033380061C0F6FF62C0F7FF0001614B622B080015
:10334800F5CF63F06351F1E11200026E000EF0BA9E
:10335800010E036EF09A8B94025066EC1AF08B847F
:1033680003B002D0F09A01D0F08A1200946F0001E5
:10337800945104E0690E8F6FFC0E03D0AA0E8F6F74
:10338800FC0E906F916B926BBAEF17F0020E000172
:10339800DD61020CDD51390D500EF324D96E020E99
:1033A800F420DA6E000EDF6ADD691200FDEC13F01E
:1033B80016EC1AF0BEEC10F074EC19F0C66FC6519A
:1033C8003EEC14F08DEC1AF0FDD70A0E616FFF0E7B
:1033D800626F98EC19F0960E8F6FFF0E906F916BDD
:1033E800010E926FBAEF17F0626F0001616B3A0E2F
:1033F800626105D02F0E626502D0010E616F61C057
:1034080060F0603112000001606B880E6025D96E93
:10341800DA6A010EDA22200EDF6E602B1F0E60655D
:10342800F4D71F0C380ECD6E9A6ACF6ACE6ACECF0B
:1034380052F0CFCF53F09E909D808BEF1AF07C0E08
:10344800426E320E436E446A200E456E606F040E63
:103458002EEF1AF0616F71B4FED7556A596A61C0D0
:1034680054F060C058F07180120091C087F092C08B
:1034780088F0000E896B94C08AF021EF11F0A4AE99
:103488001200A49EBBEC13F0026A050E016E57EF02
:1034980010F00001606FC69E60C0C9FFC7A0FED7CC
:1034A800C950120030313233343536373839414259
:1034B80043444546610E8F6FFD0E906F916B926B82
:1034C800BAEF17F0016EC69E01C0C9FFC7A0FED7AC
:1034D800C9501200926F91C08FF000019251DAEF3B
:1034E80017F0606FA8A2FED760C0A9FF1200606F36
:1034F800A4A8FED760C0A9FF1200E4EC07F0DAB771
:10350800010C000CDA97CAEF19F001010301CD8014
:0E351800120069EF05F000F012001200120020
:10F9AE000020B2202020B22020B220B22020202021
:10F9BE0020B220B20D0AB220B220B220B2202020F6
:10F9CE00B22020B22020B220200D0AB22020B22078
:10F9DE0020B220B220B22020B22020B220B20D0AD6
:10F9EE00B22020B22020B220B22020B220B220B20B
:10F9FE002020B20D0AB22020B22020B220B2202048
:10FA0E0020B220B2202020B20D0A2020202020205B
:10FA1E00202020202020202020202020200D0A26FB
:10FA2E00008402090409060C08C10A770C630E193A
:10FA3E00100012001400163818C81A0D1C001E7281
:10FA4E00203822382407260028002A692C812E7E91
:10FA5E00309632F83488364038003AE83C003E534F
:10FA6E005353535353535353535353535353535358
:10FA7E005353535454545454545454545454541D72
:10FA8E00202225282B2E303336393C3F4144474A1D
:10FA9E004D4F520A0D101215181B1E202326290138
:10FAAE00000800400000020010008001000A0064FF
:10FABE0000E803102701001000000100100D0A20BD
:10FACE002020202020202020202020202020202028
:10FADE00202020203220746F20756E69636173744C
:10FAEE0020656E63727970746564206D65737361E1
:10FAFE0067652E204C454420322077696C6C000DD2
:10FB0E000A202020202020202020202020202020FD
:10FB1E00202020202020427574746F6E20312074B6
:10FB2E006F2062726F616463617374206D657373AD
:10FB3E006167652E205075736820427574746F6E00
:10FB4E00000D0A20202020202020202020202020F0
:10FB5E002020202020202020506F776572206F6E8D
:10FB6E002074686520626F61726420756E74696CB2
:10FB7E00204C45442031206C696768747320757081
:10FB8E00000D0A20202020202020202020202020B0
:10FB9E002020202020202020746F20696E6469634D
:10FBAE0061746520636F6E6E656374696E6720772E
:10FBBE0069746820706565722E2050757368000D2B
:10FBCE000A2020202020202020202020202020203D
:10FBDE00202020202020626520746F67676C65648A
:10FBEE002075706F6E20726563656976696E672029
:10FBFE006D657373616765732E20000D0A0D0A43E0
:10FC0E006F6E6E656374696F6E20202020205065C4
:10FC1E0065724C6F6E674164647265737320202049
:10FC2E00202050656572496E666F0D0A002069735B
:10FC3E00206E6F7420737570706F727465642069B6
:10FC4E006E2063757272656E7420636F6E6669677F
:10FC5E0075726174696F6E2E0D0A005043203A5210
:10FC6E004230206F72205242322020746F20427236
:10FC7E006F616463617374206D736700436F6E6EA2
:10FC8E00656374696E67205065657220206F6E2003
:10FC9E004368616E6E656C202564200052423020F0
:10FCAE003A20556E696361737420202052423220CF
:10FCBE003A204E657874204E6F6465000D0A202040
:10FCCE002020205246205472616E736365697665FA
:10FCDE00723A204D5246383958410020436F6E6EAD
:10FCEE006563746564205065657220206F6E2043D5
:10FCFE0068616E6E656C202564000D0A436F6E6E32
:10FD0E00656374696E672050656572206F6E20435F
:10FD1E0068616E6E656C200053696D706C65205362
:10FD2E0054415220202020204D524638395841202F
:10FD3E004E6F646531000D0A436F6E6E65637465B8
:10FD4E00642050656572206F6E204368616E6E652B
:10FD5E006C20005242303A2042726F6164636173CC
:10FD6E007420205242323A20556E696361737400DA
:10FD7E005242303A4E6577204E6574776F726B2023
:10FD8E005242323A467265657A65720042726F610E
:10FD9E006463617374205061636B6574207769745A
:10FDAE0068205253534920000D0A20202020202085
:10FDBE002020202020427574746F6E20313A20521C
:10FDCE004230000D0A20202020202020202020203C
:10FDDE002020204C454420313A20524132000D0A59
:10FDEE002020202020202020202020427574746F97
:10FDFE006E20323A20524232000D0A20202020205E
:10FE0E002020202020202020204C454420323A2043
:10FE1E0052413300556E6963617374205061636B98
:10FE2E0065742077697468205253534920005242FA
:10FE3E00303A253032642D2530327825303278250F
:10FE4E003032782D6D65000D0A53656C65637469EB
:10FE5E006F6E206F66206368616E6E656C20000D9C
:10FE6E000A4F757470757420436F6E66696775728C
:10FE7E006174696F6E3A000D0A496E707574204395
:10FE8E006F6E66696775726174696F6E3A000D0AFE
:10FE9E0020202044656D6F20496E737472756374F3
:10FEAE00696F6E3A004461746120526571756573B5
:10FEBE007420457870697265640D0A005242303ABA
:10FECE00253032642D253032782530327825303287
:10FEDE00780020416464726573733A253032782558
:10FEEE003032782530327800446174615F53656E2C
:10FEFE0064696E675F4661696C2121000D0A556E5B
:10FF0E006963617374204661696C65640D0A000D46
:10FF1E000A0D0A4D7920416464726573733A20307C
:10FF2E007800303132333435363738394142434434
:10FF3E0045460030313233343536373839616263F5
:10FF4E00646566005242323A204368616E676520EE
:10FF5E006E6F64650044617461205061636B6574FB
:10FF6E002066726F6D005258204D65737361676520
:10FF7E00733A20253364005458204D6573736167BE
:10FF8E0065733A202533640020556E69636173747E
:10FF9E00204661696C6564002020202020202020EE
:10FFAE00202020202000536C656570696E6721212A
:10FFBE00210020204368616E6E656C3A2000576FF9
:10FFCE006B6520557021212100536C656570696E3B
:10FFDE006721210053656375726564200020667287
:0AFFEE006F6D20000D0A0D0A0000DF
:08FFF800ACF6D8FFFFF9FFF1A0
:00000001FF
