:020000040000FA
:0600000083EF36F0120050
:020006001200E6
:0600080094EF27F0120046
:02000E000111DE
:060010002233445566771F
:020016000000E8
:0600180094EF27F0120036
:02001E000500DB
:1000200016000000A902000002000000796D000027
:10003000A4020000030000006C6D00003E0F0000F1
:100040000D0000000E0000009502000008000000F6
:0C0050003E6D0000000F00002E000000BC
:04005C00000012008E
:10006000D9CFE6FFE1CFD9FF090EE126D6CF07F0C1
:10007000FE0EDBCF0CF091EC36F00350DF6EDF505C
:10008000000846E2DF0666EC34F0010E04C0DBFF38
:10009000020E05C0DBFF030E06C0DBFF040E07C027
:1000A000DBFF66EC34F0050E04C0DBFF060E05C076
:1000B000DBFF070E06C0DBFF080E07C0DBFF050EE7
:1000C000DBCF14F0060EDBCF15F0070EDBCF16F0FA
:1000D000080EDBCF17F0D950010FE96EDACFEAFF37
:1000E000EE50145C106EEE501558116EEE5016580E
:1000F000126EEE501758136ED8803E0E1054000E3C
:100100001154000E1254000E135401E2B8D7C9D78F
:10011000090EE15C02E2E16AE552E16EE552E7CFE9
:10012000D9FF1200D9CFE6FFE1CFD9FF150EE126A6
:10013000FCEC1CF0000902E1E8EF07F0010161A509
:1001400002D060EF08F0016B7C51040B01E0010E5E
:10015000030BF36EFC0E0115F310016F7C51019738
:10016000080B01E001877C51030B010802E1010E3D
:1001700001D0000E019BE8B0018B7C51019D800BEA
:1001800001E0018D7CAF08D08451019FE8B0018F60
:100190007DC104F17EC105F185C102F186C103F183
:1001A00083C10AF182C109F161957C51030B010AF7
:1001B00002E195EF05F0020A01E149D3030A02E0EA
:1001C000E3EF07F0DF6A050EDF5C22E2DF50080D87
:1001D000F3CFE9FFF4CFEAFF870EE926010EEA220A
:1001E000030EE926000EEA22EF5000080FE2DF506E
:1001F000080DF3CFE9FFF4CFEAFF870EE926010EE1
:10020000EA22030EE926000EEA22EF06DF2ADBD7F8
:100210000101815103E1619BE3EF07F00A0E815D6B
:1002200002E2E3EF07F0020EEA6A7F25E96E8051F1
:10023000EA22090EEFCFDBFF030EEA6A7F25E96EA3
:100240008051EA220A0EEFCFDBFF040EEA6A7F2517
:10025000E96E8051EA220F0EEFCFDBFF050EEA6A4E
:100260007F25E96E8051EA22100EEFCFDBFF060EEC
:10027000EA6A7F25E96E8051EA220B0EEFCFDBFFA1
:10028000070EEA6A7F25E96E8051EA220C0EEFCF55
:10029000DBFF080EEA6A7F25E96E8051EA220D0E27
:1002A000EFCFDBFF090EEA6A7F25E96E8051EA2273
:1002B0000E0EEFCFDBFF7C510197080B01E00187A9
:1002C0000151030B00090CE1D9500F0FE96EDACF91
:1002D000EAFFFC0ED880EE54FF0EED5401E3F6D099
:1002E0000D0EDBCF10F00E0EDBCF11F04D511018BC
:1002F00002E14E5111180EE10B0EDBCF12F00C0E85
:10030000DBCF13F04F51121802E15051131802E1E4
:10031000E3EF07F0D9500F0FE96EDACFEAFFFF0ED7
:10032000EE1802E1FF0EED1802E0E3EF07F0DF6ADE
:10033000050EDF5C43E2DF50080DF3CFE9FFF4CF99
:10034000EAFF870EE926010EEA22030EE926000ED7
:10035000EA22EF5031E0DF50080DF3CFE9FFF4CF90
:10036000EAFF870EE926010EEA22EECF10F0EFCF6A
:1003700011F00D0EDB50101803E10E0EDB501118BA
:100380001BE1DF50080DF3CFE9FFF4CFEAFF870E42
:10039000E926010EEA22020EE926000EEA22EFCF3C
:1003A00012F00A0E0101EA6A7F25E96E8051EA2205
:1003B000EF50125C01E102D0DF2ABAD7050EDF5CF4
:1003C00004E20101619BE3EF07F0DF6A050EDF5CE9
:1003D00013E2DF50080DF3CFE9FFF4CFEAFF870EF9
:1003E000E926010EEA22030EE926000EEA22EF506A
:1003F00001E102D0DF2AEAD7050EDF5C3AE2DF50E6
:10040000080DF3CFE9FFF4CFEAFF870EE926010ECE
:10041000EA220D0EDBCFEEFF0E0EDBCFEDFF0A0E54
:100420000101EA6A7F25E96E8051EA22EF50E66E0B
:10043000DF50080DF3CFE9FFF4CFEAFF870EE9267E
:10044000010EEA22020EE926000EEA22E552E750EA
:10045000EF6EDF50080DF3CFE9FFF4CFEAFF870E10
:10046000E926010EEA22030EE926000EEA22030E17
:10047000EF6ED9500F0FE96EDACFEAFFFF0EEE18DC
:1004800002E1FF0EED1804E10101018101931DD08D
:10049000D9500F0FE96EDACFEAFFFE0EEE1802E137
:1004A000FF0EED1804E10101018101830ED0D95046
:1004B0000F0FE96EDACFEAFFFD0EEE1802E1FF0E34
:1004C000ED1803E101010191018383D0090EDBCF17
:1004D00010F00A0EDBCF11F04F51101802E150510D
:1004E000111801E0B3D10F0EDBCF12F0100EDBCFED
:1004F00013F04D51121802E14E51131801E0A6D12C
:10050000010EEA6A7F25E96E8051EA22EF50040B62
:1005100060E04ACFB7F10101020EB86F0B0EDBCFDE
:10052000B9F10C0EDBCFBAF10D0EDBCFBBF10E0E25
:10053000DBCFBCF14FC1BDF150C1BEF14DC1BFF128
:100540004EC1C0F10A0E0101EA6A7F25E96E8051B1
:10055000EA22EFCFC1F10101C26B300EC36F01017E
:100560000D0E4C6F756B758B010E786F796F515155
:100570000E0DF3CFE9FFF4CFEAFF000EE926020EDD
:10058000EA22020EE926000EEA22E9CF76F1EACF4E
:1005900077F14FC17AF150C17BF14CC1E6FFB70E44
:1005A000E66E010EE66E75C1E6FF76C1E6FF77C125
:1005B000E6FF78C1E6FF79C1E6FF7AC1E6FF7BC1BD
:1005C000E6FF11EC22F0106E0A0EE15E1050010100
:1005D00001850B0E0101EA6A7F25E96E8051EA224E
:1005E000EF5001E0FBD00C0EEA6A7F25E96E8051E6
:1005F000EA22EF50300801E1D3D00C0EEA6A7F25E1
:10060000E96E8051EA22EF50110A01E0C8D0110EC4
:10061000DB6A080EF36E110EDBCFF4FFF350F45CCF
:1006200018E2110EDB500B0F020FEA6A7F25E96E0C
:100630008051EA22EF50E66E110EDB50EA6A520F4B
:10064000E96E010EEA22E552E750EF6E110EDB2A49
:10065000E0D78D0E626F150EEA6A7F25E96E805134
:10066000EA22EF50800B01E06291150EEA6A7F25C5
:10067000E96E8051EA22EFCF5AF1160EEA6A7F2521
:10068000E96E8051EA22EFCF5BF14FC15CF150C1BE
:100690005DF18EEC0AF00101656FFF0E655D13E000
:1006A00065510E0DF3CFE9FFF4CFEAFF000EE92606
:1006B000020EEA220C0EE926000EEA22EFCF62F1CA
:1006C0006285628704D08D0E626F5ABF629152ECD0
:1006D0000BF00101656FFF0E655D5EE2110EDB6AD6
:1006E000010EF36E110EDBCFF4FFF350F45C2BE23E
:1006F000110EDB50170F0101EA6A7F25E96E805168
:10070000EA22EF50E66E65510E0DF3CFE9FFF4CF0C
:10071000EAFF000EE926020EEA220D0EE926000E7F
:10072000EA22E9CF10F0EACF11F0110EDB500F01F1
:100730001024E96E000E1120EA6EE552E750EF6ECC
:10074000110EDB2ACDD70E0EE66EE66A0101655169
:100750000E0D0F013451F324106E3551F420116E3B
:1007600010C0E6FF11C0E6FF010165510E0DF3CF89
:1007700012F0F4CF13F0000E1226020E132212C054
:10078000E6FF13C0E6FF5CEC2EF0146E060EE15E91
:1007900014500101648101D06491649300D055D05C
:1007A0000A0EEA6A7F25E96E8051EA22EF500F01B6
:1007B000485D0EE10D0EDBCF10F00E0EDBCF11F019
:1007C00001015E51101802E15F51111801E16197BA
:1007D0000D0EDB50800800E2E3EF07F0619B0B0E8B
:1007E000815D086F0B0E7F25066F000E8021076F5D
:1007F0000B0EDBCF02F10C0EDBCF03F1080EEA6A21
:100800007F25E96E8051EA22EF50FF0812E1090EC0
:10081000EA6A7F25E96E8051EA22EF50FF0809E17C
:100820008451019FE8B0018F7DC104F17EC105F1C3
:1008300007D0018F080E7F25046F000E8021056F01
:10084000018D0851000801E2618500D0BCD3120E71
:10085000DB6ADB50040FEA6A7F25E96E8051EA22E9
:10086000EF505D080CE0120EDB50040FEA6A7F25A2
:10087000E96E8051EA22EF504D0801E0A4D361A156
:1008800053D185C15CF186C15DF17DC1E9FF7EC1B7
:10089000EAFFEFCF5AF1010EEA6A7D25E96E7E513B
:1008A000EA22EFCF5BF1120EDB50EA6A7F25E96E98
:1008B0008051EA22EF50FF0801E036D1120EDB280A
:1008C000EA6A7F25E96E8051EA22130EEFCFDBFF43
:1008D000040E0B5D01E328D1D950130FE96EDACF76
:1008E000EAFFEF50300BE842E842E842E8420108F4
:1008F00001E21AD10B510F0DF3CFE9FFF4CFEAFF5C
:100900000C0EE926010EEA2246CFEFFF0B510F0D28
:10091000F3CFE9FFF4CFEAFF0C0EE926010EEA223D
:100920000B0EE926000EEA2209C1EFFF0B510F0D55
:10093000F3CFE9FFF4CFEAFF0C0EE926010EEA221D
:100940000C0EE926000EEA220AC1EFFF0B510F0D33
:10095000F3CFE9FFF4CFEAFF0C0EE926010EEA22FD
:10096000090EE926000EEA225CC1EEFF5DC1EDFF33
:100970000B510F0DF3CFE9FFF4CFEAFF0C0EE92680
:10098000010EEA220D0EE926000EEA22EF6A0B5153
:100990000F0DF3CFE9FFF4CFEAFF0C0EE926010EAD
:1009A000EA220D0EE926000EEA22EF8CD950130F31
:1009B000E96EDACFEAFFEF50060BE842106E0B51FA
:1009C0000F0DF3CFE9FFF4CFEAFF0C0EE926010E7D
:1009D000EA220D0EE926000EEA221050030BF36EF8
:1009E000FC0EEF14F310EF6ED950130FE96EDACF4F
:1009F000EAFFEF50080B0FE00B510F0DF3CFE9FFAB
:100A0000F4CFEAFF0C0EE926010EEA220D0EE926CC
:100A1000000EEA22EF86D950130FE96EDACFEAFF13
:100A2000EF50300BE842E842E842E84201080FE3A9
:100A30000B510F0DF3CFE9FFF4CFEAFF0C0EE926BF
:100A4000010EEA220D0EE926000EEA22EF8A0B5172
:100A50000F0DF3CFE9FFF4CFEAFF0C0EE926010EEC
:100A6000EA220D0EE926000EEA22EF8E04C1E9FF0C
:100A700005C1EAFFEF50E66E0B510F0DF3CFE9FF12
:100A8000F4CFEAFF0C0EE926010EEA22EE52E552FF
:100A9000E750EF6E010EEA6A0425E96E0551EA227D
:100AA000EF50E66E0B510F0DF3CFE9FFF4CFEAFFE5
:100AB0000C0EE926010EEA22EE52010EE926000E86
:100AC000EA22E552E750EF6EDF6A010EDF5C2AE2B0
:100AD000120EDB50060FDF240101EA6A7F25E96E62
:100AE0008051EA22EF50E66E0B510F0DF3CFE9FF74
:100AF000F4CFEAFF0C0EE926010EEA220E0EE926DB
:100B0000000EEA22E9CF10F0EACF11F0DF500F011A
:100B10001024E96E000E1120EA6EE552E750EF6EE8
:100B2000DF2AD3D701010B2B4ED27FC1E9FF80C151
:100B3000EAFFEF508A0A01E1DFD1010A01E1DCD1CD
:100B4000880A01E11BD1010A01E03CD2030EEA6AE6
:100B50007F25E96E8051EA22EF5001E0D9D0010EE5
:100B6000EA6A7F25E96E8051EA22EFCF4DF1020E4D
:100B7000EA6A7F25E96E8051EA22EFCF4EF14F0EEF
:100B8000E66E010EE66E4D0EE66E010EE66E0FECA1
:100B900027F0E552E552E552E55201016183BF0EAF
:100BA000626FDF6A080EDF5C13E2DF50EA6A7D25C0
:100BB000E96E7E51EA22EF50E66EDF50EA6A520F8C
:100BC000E96E010EEA22E552E750EF6EDF2AEAD71E
:100BD00051510E0DF3CFE9FFF4CFEAFF000EE926E5
:100BE000020EEA22020EE926000EEA22EECF5AF1A8
:100BF000EDCF5BF14FC15CF150C15DF152EC0BF0F8
:100C00000101516FDF6A010EDF5C28E2040EDF2470
:100C10000101EA6A7F25E96E8051EA22EF50E66E13
:100C200051510E0DF3CFE9FFF4CFEAFF000EE92694
:100C3000020EEA220D0EE926000EEA22E9CF10F09C
:100C4000EACF11F0DF500F011024E96E000E1120E1
:100C5000EA6EE552E750EF6EDF2AD5D7020EE66E58
:100C6000E66A2ECFE6FF2FCFE6FF4F0EE66E010EAF
:100C7000E66E5CEC2EF0106E060EE15E1050020E79
:100C8000E66EE66A38CFE6FF39CFE6FF4D0EE66E38
:100C9000010EE66E5CEC2EF0106E060EE15E10505A
:100CA000010EE66EE66A3ACFE6FF3BCFE6FF510E55
:100CB000E66E010EE66E5CEC2EF0106E060EE15E46
:100CC00010500E0EE66EE66A010151510E0D0F0135
:100CD0003451F324106E3551F420116E10C0E6FF2C
:100CE00011C0E6FF010151510E0DF3CF12F0F4CF08
:100CF00013F0000E1226020E132212C0E6FF13C0DC
:100D0000E6FF5CEC2EF0146E060EE15E145035D05A
:100D100051694F6950695A695B694F0EE66E010E61
:100D2000E66E5A0EE66E010EE66E0FEC27F0E55207
:100D3000E552E552E552010EE66EE66A3ACFE6FF6D
:100D40003BCFE6FF510EE66E010EE66E5CEC2EF038
:100D5000106E060EE15E1050020EE66EE66A2ECFB1
:100D6000E6FF2FCFE6FF4F0EE66E010EE66E5CEC5F
:100D70002EF0106E060EE15E105024D161A322D138
:100D8000845118E07DC1E9FF7EC1EAFFEFCF5AF13F
:100D9000010EEA6A7D25E96E7E51EA22EFCF5BF112
:100DA000BDDBE76E140EE7CFDBFFDB50FF0801E190
:100DB00009D120D0DF6A080EDF5C13E2DF50EA6A57
:100DC0007D25E96E7E51EA22EF50E66EDF50EA6A39
:100DD000520FE96E010EEA22E552E750EF6EDF2A6C
:100DE000EAD7EEDBE76E140EE7CFDBFFDB50FF0840
:100DF00001E1E8D0140EDB500E0DF3CFE9FFF4CF84
:100E0000EAFF000EE926020EEA220C0EE926000E89
:100E1000EA22EF50200B6FE0DF6A0A0EDF5C11E27E
:100E2000DF500E0DF3CFE9FFF4CFEAFF000EE92605
:100E3000020EEA220C0EE926000EEA22EF6ADF2AF1
:100E4000ECD7010151694D694E694F6950694F0EE8
:100E5000E66E010EE66E4D0EE66E010EE66E0FECCE
:100E600027F0E552E552E552E55201016193010E8A
:100E7000E66EE66A3ACFE6FF3BCFE6FF510EE66E3E
:100E8000010EE66E5CEC2EF0106E060EE15E105068
:100E9000020EE66EE66A38CFE6FF39CFE6FF4D0E6A
:100EA000E66E010EE66E5CEC2EF0106E060EE15E54
:100EB0001050020EE66EE66A2ECFE6FF2FCFE6FF59
:100EC0004F0EE66E010EE66E5CEC2EF0106E060E16
:100ED000E15E10508C0EE66EE66A34CFE6FF35CF49
:100EE000E6FF000EE66E020EE66E5CEC2EF0106E73
:100EF000060EE15E105066D0010EEA6A7F25E96EAB
:100F00008051EA22EFCFB3F1020EEA6A7F25E96E43
:100F10008051EA22EFCFB4F1030EEA6A7F25E96E31
:100F20008051EA22EFCFB5F1040EEA6A7F25E96E1F
:100F30008051EA22EFCFB6F18151050841E27FC12D
:100F4000E9FF80C1EAFFEF508A081EE1DF6A050E63
:100F5000815DDF5C14E2050EDF24EA6A7F25E96E1D
:100F60008051EA22EF50E66EDF50EA6A7F25E96E93
:100F70008051EA22E552E750EF6EDF2AE8D7050EEE
:100F8000815FE2EF00F01DD0DF6A050E815DDF5C5E
:100F900014E2050EDF24EA6A7F25E96E8051EA2219
:100FA000EF50E66EDF50EA6A7F25E96E8051EA2253
:100FB000E552E750EF6EDF2AE8D7050E815FB5D521
:100FC000619B00D000D0010161B502D001EC22F09C
:100FD00066EC34F0010E04C0DBFF020E05C0DBFF3F
:100FE000030E06C0DBFF040E07C0DBFF010161A397
:100FF00036D061AB34D0D950010FE96EDACFEAFFB9
:101000004851EE5C106E4951EE58116E4A51EE583F
:10101000126E4B51EE58136E050E10C0DBFF060E1C
:1010200011C0DBFF070E12C0DBFF080E13C0DBFF91
:10103000D950050FE96EDACFEAFFD880FF0EEE54E3
:101040003F0EEE54000EEE54000EEE5408E2619B8B
:101050000B0EB36FB46B7F0EB56FC10EB66F64A38A
:101060002FD064B12DD0D950010FE96EDACFEAFF4D
:101070007151EE5C106E7251EE58116E7351EE5854
:10108000126E7451EE58136E050E10C0DBFF060E83
:1010900011C0DBFF070E12C0DBFF080E13C0DBFF21
:1010A000D950050FE96EDACFEAFFD8806C0EEE5406
:1010B000DC0EEE54020EEE54000EEE5401E2649388
:1010C000150EE15C02E2E16AE552E16EE552E7CF1E
:1010D000D9FF1200D9CFE6FFE1CFD9FF0101756B2F
:1010E000FA0EDB50030BF36EFC0E7515F310756FE3
:1010F000D950FB0FE96EFF0EDA20EA6EEE50ED10CC
:1011000001E175857551040B02E0000E01D0010E5E
:10111000759BE8B0758B758FFB0EDBCF76F1FC0EFF
:10112000DBCF77F1F90EDB50080B000803E2010E6C
:10113000786F01D0786BF90EDB50040B000803E2E6
:10114000010E796F01D0796BFD0EDBCFE9FFFE0E4A
:10115000DBCFEAFFEFCF7AF1010EE76EFD0EDBCFBA
:10116000E9FFFE0EDBCFEAFFE750E926000EEA2298
:10117000EFCF7BF14CC1E6FFB70EE66E010EE66ED7
:1011800075C1E6FF76C1E6FF77C1E6FF78C1E6FFED
:1011900079C1E6FF7AC1E6FF7BC1E6FF11EC22F0E0
:1011A000106E0A0EE15E105000D0E552E7CFD9FF75
:1011B0001200D9CFE6FFE1CFD9FFE652DF6A0A0E6F
:1011C000DF5C15E2DF500E0DF3CFE9FFF4CFEAFF4D
:1011D000000EE926020EEA220C0EE926000EEA2293
:1011E000EF50800B02E1DF5004D0DF2AE8D7FF0E7A
:1011F00000D0E552E552E7CFD9FF1200D9CFE6FF84
:10120000E1CFD9FF020EE126FE0EDB50FF0806E11A
:10121000DF6A080EDF5C02E2DF2AFBD7FE0EDB503E
:10122000FF0801E085D0DF6A0A0EDF5C01E37FD0B2
:10123000DF500E0DF3CFE9FFF4CFEAFF000EE926F1
:10124000020EEA220C0EE926000EEA22EF50800B75
:101250006CE0DF500E0DF3CFE9FFF4CFEAFF000E94
:10126000E926020EEA220C0EE926000EEA22EF50D1
:10127000010B01E000D0DF500E0DF3CFE9FFF4CFFA
:10128000EAFF000EE926020EEA220C0EE926000E05
:10129000EA22EF50020B01E000D0DF500E0DF3CF39
:1012A000E9FFF4CFEAFF000EE926020EEA220C0E57
:1012B000E926000EEA22EF50080B01E000D0DF50D3
:1012C0000E0DF3CFE9FFF4CFEAFF000EE926020E80
:1012D000EA220C0EE926000EEA22EF50040B0DE084
:1012E000010EDB6A080EF36E010EDBCFF4FFF35044
:1012F000F45C03E2010EDB2AF5D7010EDB6A000E77
:10130000F36E010EDBCFF4FFF350F45C03E2010E49
:10131000DB2AF5D7010EDB6AF36EDBCFF4FFF35067
:10132000F45C03E2010EDB2AF7D7DF2A7DD782D0F7
:10133000FE0EDB500E0DF3CFE9FFF4CFEAFF000EF7
:10134000E926020EEA220C0EE926000EEA22EF50F0
:10135000800B70E0FE0EDB500E0DF3CFE9FFF4CFF3
:10136000EAFF000EE926020EEA220C0EE926000E24
:10137000EA22EF50010B01E000D0FE0EDB500E0D13
:10138000F3CFE9FFF4CFEAFF000EE926020EEA22CE
:101390000C0EE926000EEA22EF50020B01E000D00D
:1013A000FE0EDB500E0DF3CFE9FFF4CFEAFF000E87
:1013B000E926020EEA220C0EE926000EEA22EF5080
:1013C000080B01E000D0FE0EDB500E0DF3CFE9FF5D
:1013D000F4CFEAFF000EE926020EEA220C0EE926FF
:1013E000000EEA22EF50040B0DE0010EDB6A080E3E
:1013F000F36E010EDBCFF4FFF350F45C03E2010E59
:10140000DB2AF5D7010EDB6A000EF36E010EDBCF8F
:10141000F4FFF350F45C03E2010EDB2AF5D7010E72
:10142000DB6AF36EDBCFF4FFF350F45C03E2010EF2
:10143000DB2AF7D7020EE15C02E2E16AE552E16ED7
:10144000E552E7CFD9FF1200D9CFE6FFE1CFD9FFB0
:10145000E6520101649166EC34F004C071F105C0FC
:1014600072F106C073F107C074F101015A6B5B6B36
:101470000B0E4C6F4C514C2BEA6AB70FE96E010E04
:10148000EA22EF6A4C514C2BEA6AB70FE96E010E63
:10149000EA22100EEF6EDF6A080EDF5C14E2DF5006
:1014A000EA6A3E0FE96E0F0EEA22EF50E66E4C51EB
:1014B0004C2BEA6AB70FE96E010EEA22E552E750BB
:1014C000EF6EDF2AE9D7DF6A010EDF5C14E2DF503E
:1014D000EA6A220FE96E0F0EEA22EF50E66E4C51D7
:1014E0004C2BEA6AB70FE96E010EEA22E552E7508B
:1014F000EF6EDF2AE9D7E66AE66A5A0EE66E010E5B
:10150000E66EEBEC14F0E552E552E552E5520101CE
:101510006483E552E552E7CFD9FF1200D9CFE6FF49
:10152000E1CFD9FFE652DF6A0A0EDF5C42E2DF500C
:101530000E0DF3CFE9FFF4CFEAFF000EE926020E0D
:10154000EA220C0EE926000EEA22EF50800B2FE073
:10155000DF500E0DF3CFE9FFF4CFEAFF000EE926CE
:10156000020EEA220C0EE926000EEA22EF50080BCA
:101570001EE0DF500E0DF3CFE9FFF4CFEAFF000EBF
:10158000E926020EEA22020EE926000EEA22EECF3A
:1015900010F0EFCF11F001015A510001101804E1D1
:1015A00001015B510001111802E1DF5004D0DF2A74
:1015B000BBD7FF0E00D0E552E552E7CFD9FF1200AE
:1015C000D9CFE6FFE1CFD9FF020EE126DF6A0A0E8E
:1015D000DF5C5AE2DF500E0DF3CFE9FFF4CFEAFFF4
:1015E000000EE926020EEA220C0EE926000EEA227F
:1015F000EF50800B47E0DF500E0DF3CFE9FFF4CF43
:10160000EAFF000EE926020EEA220C0EE926000E81
:10161000EA22EF50040B36E0010EDB6A080EF36E8F
:10162000010EDBCFF4FFF350F45C2AE2DF500E0D25
:10163000F3CFE9FFF4CFEAFF000EE926020EEA221B
:10164000040EE926000EEA22E9CF11F0EACF12F0EB
:10165000010EDB500F011124E96E000E1220EA6E1C
:10166000EFCF10F0010EDB50EA6A520FE96E010E67
:10167000EA22EF50105C01E005D0010EDB2ACED744
:10168000DF5004D0DF2AA3D7FF0E00D0106E020E69
:10169000E15C02E2E16AE552E16E1050E552E7CF0B
:1016A000D9FF1200D9CFE6FFE1CFD9FF020EE12624
:1016B000DF68010162A503D083DFDF6E04D062A77B
:1016C00002D02CDFDF6EFF0EDF5C02E172DDDF6E29
:1016D000FF0EDF5C69E0DF500E0DF3CFE9FFF4CFC2
:1016E000EAFF000EE926020EEA220C0EE926000EA1
:1016F000EA2262C1EFFF010162A533D0010EDB6A6D
:10170000080EF36E010EDBCFF4FFF350F45C29E218
:10171000010EDB50EA6A520FE96E010EEA22EF5029
:10172000E66EDF500E0DF3CFE9FFF4CFEAFF000EB7
:10173000E926020EEA22040EE926000EEA22E9CF8B
:1017400010F0EACF11F0010EDB500F011024E96E0A
:10175000000E1120EA6EE552E750EF6E010EDB2A13
:10176000CFD7010162A712D0DF500E0DF3CFE9FFF2
:10177000F4CFEAFF000EE926020EEA22020EE92665
:10178000000EEA225AC1EEFF5BC1EDFFDF500E0DE5
:10179000F3CFE9FFF4CFEAFF000EE926020EEA22BA
:1017A0005CC1EEFF5DC1EDFFDF50106E020EE15C2B
:1017B00003E200D0E16AE552E16E1050E552E7CF56
:1017C000D9FF1200D9CFE6FFE1CFD9FFE652DF6A99
:1017D000080EDF5C21E2DF50E76EFD0EDBCFE9FF94
:1017E000FE0EDBCFEAFFE750E926000EEA22EFCF3C
:1017F00010F0DF50E76EFB0EDBCFE9FFFC0EDBCF16
:10180000EAFFE750E926000EEA22EF50105C02E002
:10181000000E04D0DF2ADCD7010E00D0E552E552DD
:10182000E7CFD9FF1200D9CFE6FFE1CFD9FFE652CB
:101830004CC1DFFF01014C6B4C514C2BEA6AB70FD6
:10184000E96E010EEA22040EEF6E0C0EE66E010E3A
:10185000E66E020EE66E020EE66E000EE66E020EFA
:10186000E66E38DC106E060EE15E1050000912E0E4
:101870000101618B66EC34F004C048F105C049F108
:1018800006C04AF107C04BF1DFCF4CF1B36AB26A30
:10189000010E04D0DFCF4CF1000E00D0E552E5522E
:1018A000E7CFD9FF1200D9CFE6FFE1CFD9FF040E71
:1018B000E126DCEC2EF001014D694E69340E4F6FCC
:1018C000120E506F030EDB6A0A0EF36E030EDBCFAF
:1018D000F4FFF350F45C13E2030EDB500E0DF3CF74
:1018E000E9FFF4CFEAFF000EE926020EEA220C0E11
:1018F000E926000EEA22EF6A030EDB2AE5D7010192
:10190000616B636B646B006B5CEC34F001014C6BDE
:10191000030EDB6A050EF36E030EDBCFF4FFF3500C
:10192000F45C13E2030EDB50080DF3CFE9FFF4CFB4
:10193000EAFF870EE926010EEA22030EE926000ED1
:10194000EA22EF6A030EDB2AE5D7FE0EDB5001E147
:10195000A6D0010EE66EE66A30CFE6FF31CFE6FF95
:10196000460EE66E0F0EE66E22EC2EF0106E060EA0
:10197000E15E1050200E0F01465D02E3000E4BD1D8
:10198000020EE66EE66A38CFE6FF39CFE6FF4D0E6F
:10199000E66E010EE66E22EC2EF0106E060EE15E93
:1019A000105001014D1D01E14E1D02E1000E33D129
:1019B000020EE66EE66A2ECFE6FF2FCFE6FF4F0E51
:1019C000E66E010EE66E22EC2EF0106E060EE15E63
:1019D0001050010EE66EE66A32CFE6FF33CFE6FF27
:1019E000470EE66E0F0EE66E22EC2EF0106E060E1F
:1019F000E15E10500F0147510101030BF36EF346F6
:101A0000F346F346F346CF0E0015F310006F8C0E2D
:101A1000E66EE66A34CFE6FF35CFE6FF000EE66EEF
:101A2000020EE66E22EC2EF0106E060EE15E1050F5
:101A3000020EE66EE66A38CFE6FF39CFE6FF4D0EBE
:101A4000E66E010EE66E22EC2EF0106E060EE15EE2
:101A50001050010EE66EE66A3ACFE6FF3BCFE6FF96
:101A6000510EE66E010EE66E22EC2EF0106E060EA2
:101A7000E15E105046CFE6FF33D9E5524F0EE66ED9
:101A8000010EE66E4D0EE66E010EE66E0FEC27F0CF
:101A9000E552E552E552E5520101618366D0020E3E
:101AA000E66EE66A2ECFE6FF2FCFE6FF4F0EE66E1C
:101AB000010EE66E5CEC2EF0106E060EE15E10502C
:101AC000010EE66EE66A30CFE6FF31CFE6FF460E46
:101AD000E66E0F0EE66E5CEC2EF0106E060EE15E0A
:101AE0001050010EE66EE66A32CFE6FF33CFE6FF16
:101AF000470EE66E0F0EE66E5CEC2EF0106E060ED4
:101B0000E15E10508C0EE66EE66A34CFE6FF35CF0C
:101B1000E6FF000EE66E020EE66E5CEC2EF0106E36
:101B2000060EE15E1050020EE66EE66A38CFE6FF62
:101B300039CFE6FF4D0EE66E010EE66E5CEC2EF040
:101B4000106E060EE15E1050010EE66EE66A3ACFA8
:101B5000E6FF3BCFE6FF510EE66E010EE66E5CEC53
:101B60002EF0106E060EE15E1050DF6ADF96DF98F1
:101B7000DF9ADF8CDF82FE0EDB50106ED9CFE9FFDB
:101B8000DACFEAFF1050010BF36EF346F346FB0E7B
:101B9000EF14F310EF6ED950010FE96EDACFEAFFC0
:101BA0003E0EEE6E0F0EED6EDECFE6FFDECFE6FFF1
:101BB000DDCFE6FFDD5265EC27F0E552E552E55258
:101BC0004F0EE66E010EE66E4D0EE66E010EE66EEF
:101BD0000FEC27F0E552E552E552E55246CFE6FF1D
:101BE0007FD8E5520F0147510101030BF36EF34615
:101BF000F346F346F346CF0E0015F310006FB36BB8
:101C0000B46B5F0EB56FF00EB66FD6CF60F1F29287
:101C1000F288010E00D0106E040EE15C02E2E16A6F
:101C2000E552E16E1050E552E7CFD9FF1200D9CF4F
:101C3000E6FFE1CFD9FFE652FE0EDB50020A34E0A8
:101C4000030A26E0010A02E0FF0E45D0010163A766
:101C500013D08C0EE66EE66A34CFE6FF35CFE6FF92
:101C6000000EE66E020EE66E5CEC2EF0106E060EB6
:101C7000E15E105001016397E66A55EC25F0E552EC
:101C8000000904E00101618F000E25D0010E23D070
:101C9000E66855EC25F0E552000904E00101619F7A
:101CA000000E19D0010E17D0E66855EC25F0E5526C
:101CB000000902E1010E0FD00101619FB4DD0009AE
:101CC00002E1020E08D0010161AB03D092EC00F0FA
:101CD000FAD7000E00D0E552E552E7CFD9FF120047
:101CE000D9CFE6FFE1CFD9FFE66AFE0EDBCFE6FFF4
:101CF00076EC26F0E552E552000916E0FE0EDBCF49
:101D000046FF010EE66EE66A30CFE6FF31CFE6FF12
:101D1000460EE66E0F0EE66E5CEC2EF0106E060EB2
:101D2000E15E1050010E02D0000E00D0E552E7CF68
:101D3000D9FF1200D9CFE6FFE1CFD9FFFE0EDB506D
:101D4000030801E221D0FE0EDBCF47FF0F01475110
:101D50000101030BF36EF346F346F346F346CF0E51
:101D60000015F310006F010EE66EE66A32CFE6FF53
:101D700033CFE6FF470EE66E0F0EE66E5CEC2EF0FC
:101D8000106E060EE15E1050E552E7CFD9FF12004B
:101D9000D9CFE6FFE1CFD9FF0E0EE126010EF36E9B
:101DA000F3CFDBFF020EDB6A030EDB6A040EDB6A95
:101DB000050E46CFDBFFDF6A040EDF5C0DE2DF506D
:101DC0000F0DF3CFE9FFF4CFEAFF0C0EE926010E69
:101DD000EA22EF68DF2AF0D701010B6B6181DF6A2D
:101DE000200EDF5C01E3BBD0106AF80E116E1268A2
:101DF000070E136ED950FA0FE96EFF0EDA20EA6E65
:101E0000EE501016EE501116EE501216EE5013163C
:101E1000010EDBCF14F0020EDBCF15F0030EDBCF8B
:101E200016F0040EDBCF17F0DF501F0B07E0D89041
:101E30001436153616361736E806F9E11450101622
:101E40001550111616501216175013161050111067
:101E50001210131001E181D0DFCFE6FF41DFE55220
:101E600001014C6B4C514C2BEA6AB70FE96E010E25
:101E7000EA22070EEF6E4C514C2BEA6AB70FE96E5F
:101E8000010EEA2246CFEFFF5C695D69E66A010E4A
:101E9000E66E000EE66EE66A5C0EE66E010EE66E1B
:101EA0006AEC08F0106E060EE15E105066EC34F03D
:101EB000060E04C0DBFF070E05C0DBFF080E06C0E0
:101EC000DBFF090E07C0DBFF39DB000901E03FDB68
:101ED00066EC34F00A0E04C0DBFF0B0E05C0DBFF1E
:101EE0000C0E06C0DBFF0D0E07C0DBFF0A0EDBCFBA
:101EF00014F00B0EDBCF15F00C0EDBCF16F00D0E31
:101F0000DBCF17F0D950060FE96EDACFEAFFEE50BB
:101F1000145C106EEE501558116EEE501658126E7D
:101F2000EE501758136EFE0EDB50040DF3CFF6FF84
:101F3000F4CFF7FF760EF6266C0EF722105009004C
:101F4000F55C11500900F55812500900F55813506E
:101F50000900F55801E201D0B7D7DF2A41D7050EB5
:101F6000DBCFE6FFBDDEE552010161910B51106E42
:101F70000E0EE15C03E200D0E16AE552E16E105022
:101F8000E552E7CFD9FF1200D9CFE6FFE1CFD9FF65
:101F90000A0EE126DF6EFD0EDB0467E166EC34F02D
:101FA000020E04C0DBFF030E05C0DBFF040E06C0FB
:101FB000DBFF050E07C0DBFF24EC0AF0010164A380
:101FC0004DD0BCDA000901E0C2DA66EC34F0060E4E
:101FD00004C0DBFF070E05C0DBFF080E06C0DBFFF9
:101FE000090E07C0DBFF060EDBCF14F0070EDBCFB8
:101FF00015F0080EDBCF16F0090EDBCF17F0D95025
:10200000020FE96EDACFEAFFEE50145C106EEE506C
:102010001558116EEE501658126EEE501758136E7A
:10202000D880240E1054F40E1154000E1254000ED9
:10203000135413E213EC0CF0D950060FE96EDACF0B
:10204000EAFF020EEECFDBFF030EEECFDBFF040E46
:10205000EECFDBFF050EEECFDBFFB0D764A102D0E1
:10206000655160D2FF0E5ED25BD2FD0EDB5001E007
:1020700057D2FE0EDB50FF0828E1010E106E116AE8
:10208000126A136A0F0146511F0B07E0D8901036F1
:10209000113612361336E806F9E110C0E6FF11C01A
:1020A000E6FF12C0E6FF13C0E6FF0A0EE66E70DE22
:1020B000146E050EE15E1450000905E1DF0602E131
:1020C000FF0E30D2DAD7FE0EDB6AFE0EDB500F0DAC
:1020D000F3CFE9FFF4CFEAFF0C0EE926010EEA2266
:1020E000090EE926000EEA22EECF5CF1EDCF5DF19C
:1020F000FE0EDB500F0DF3CFE9FFF4CFEAFF0C0E1D
:10210000E926010EEA22EE52EFCF5AF1FE0EDB5025
:102110000F0DF3CFE9FFF4CFEAFF0C0EE926010E15
:10212000EA22EE52010EE926000EEA22EFCF5BF121
:102130008EEC0AF00101516FFF0E515D08E1D9EC00
:1021400008F00101516FFF0802E1FF0EEBD1515180
:102150000E0DF3CFE9FFF4CFEAFF000EE926020EE1
:10216000EA220C0EE926000EEA22EF6AFE0EDB5090
:102170000F0DF3CFE9FFF4CFEAFF0C0EE926010EB5
:10218000EA22090EE926000EEA22EECF10F0EFCF88
:1021900011F051510E0DF3CFE9FFF4CFEAFF000E1D
:1021A000E926020EEA2210C0EEFF11C0EDFFFE0E7E
:1021B000DB500F0DF3CFE9FFF4CFEAFF0C0EE92659
:1021C000010EEA22EE52EF50E66E51510E0DF3CFA2
:1021D000E9FFF4CFEAFF000EE926020EEA22020E22
:1021E000E926000EEA22E552E750EF6EFE0EDB50C4
:1021F0000F0DF3CFE9FFF4CFEAFF0C0EE926010E35
:10220000EA22EE52010EE926000EEA22EF50E66EB7
:1022100051510E0DF3CFE9FFF4CFEAFF000EE9268E
:10222000020EEA22020EE926000EEA22010EE9263B
:10223000000EEA22E552E750EF6E51510E0DF3CF3A
:10224000E9FFF4CFEAFF000EE926020EEA220C0EA7
:10225000E926000EEA22EF86010EDB6AF36EDBCF81
:10226000F4FFF350F45C3EE2FE0EDB500F0DF3CFB3
:10227000E9FFF4CFEAFF0C0EE926010EEA220E0E6A
:10228000E926000EEA22E9CF12F0EACF13F0010EA0
:10229000DB500F011224E96E000E1320EA6EEF509E
:1022A000E66E010151510E0DF3CFE9FFF4CFEAFFC5
:1022B000000EE926020EEA220D0EE926000EEA22A1
:1022C000E9CF10F0EACF11F0010EDB500F0110241E
:1022D000E96E000E1120EA6EE552E750EF6E010E36
:1022E000DB2ABCD7010151510E0DF3CFE9FFF4CF2A
:1022F000EAFF000EE926020EEA220C0EE926000E85
:10230000EA22EF8251510E0DF3CFE9FFF4CFEAFF3D
:10231000000EE926020EEA220C0EE926000EEA2241
:10232000EF8A51510E0DF3CFE9FFF4CFEAFF000E13
:10233000E926020EEA220C0EE926000EEA22EF80C0
:10234000FE0EDB500F0DF3CFE9FFF4CFEAFF0C0ECA
:10235000E926010EEA22EF50E66EC2DCE5520101E9
:1023600051510E0DF3CFE9FFF4CFEAFF000EE9263D
:10237000020EEA22EECF4FF1EDCF50F15A695B69C0
:102380004F0EE66E010EE66E5A0EE66E010EE66E1A
:102390000FEC27F0E552E552E552E55201014C6B96
:1023A0004C514C2BEA6AB70FE96E010EEA22010E7E
:1023B000EF6E4C514C2BEA6AB70FE96E010EEA2220
:1023C00000C1EFFF010EDB6AF36EDBCFF4FFF350C9
:1023D000F45C16E2010EDB50EA6A220FE96E0F0E82
:1023E000EA22EF50E66E4C514C2BEA6AB70FE96EC9
:1023F000010EEA22E552E750EF6E010EDB2AE4D728
:10240000080EE66E010EE66E51510E0DF3CFE9FF98
:10241000F4CFEAFF000EE926020EEA22020EE926B8
:10242000000EEA22E9CF10F0EACF11F010C0E6FF6B
:1024300011C0E6FF51510E0DF3CFE9FFF4CFEAFFD3
:10244000000EE926020EEA22E9CF12F0EACF13F0DD
:1024500012C0E6FF13C0E6FF6AEC08F0146E060E29
:10246000E15E145066EC34F0020E04C0DBFF030E94
:1024700005C0DBFF040E06C0DBFF050E07C0DBFF57
:10248000010151510E0DF3CFE9FFF4CFEAFF000E29
:10249000E926020EEA220C0EE926000EEA22EF508F
:1024A000100B3CE14BD8000901E051D866EC34F048
:1024B000060E04C0DBFF070E05C0DBFF080E06C0DA
:1024C000DBFF090E07C0DBFF060EDBCF14F0070EA3
:1024D000DBCF15F0080EDBCF16F0090EDBCF17F0BF
:1024E000D950020FE96EDACFEAFFEE50145C106E9D
:1024F000EE501558116EEE501658126EEE501758D9
:10250000136ED880240E1054F40E1154000E125481
:10251000000E135402E2FF0E05D0B2D7515102D083
:10252000FF0E00D0106E0A0EE15C02E2E16AE55295
:10253000E16E1050E552E7CFD9FF120092EC00F0A7
:1025400001016151040B01E0010E00D012000101F4
:10255000619501EF22F0D9CFE6FFE1CFD9FFFE0E62
:10256000DBCFE6FF010EE66E07D8E552E55200D05C
:10257000E552E7CFD9FF1200D9CFE6FFE1CFD9FF6F
:102580004ACFB7F10101020EB86F4FC1B9F150C186
:10259000BAF1FE0EDB50020A0BE0010A06E0020A65
:1025A00002E0000E3FD0BB6906D0FE0EBB6F03D029
:1025B000FD0EBB6F00D0BC694FC1BDF150C1BEF173
:1025C0004DC1BFF14EC1C0F101016051602B01014D
:1025D000C16F0101756B7585FD0EDB507597E8B015
:1025E0007587010E796F4FC17AF150C17BF14CC1F3
:1025F000E6FFB70EE66E010EE66E75C1E6FF76C128
:10260000E6FF77C1E6FF78C1E6FF79C1E6FF7AC150
:10261000E6FF7BC1E6FF11EC22F0106E0A0EE15ED0
:10262000105000D0E552E7CFD9FF1200D9CFE6FF16
:10263000E1CFD9FF090EE126FE0EDB500E0DF3CFE0
:10264000E9FFF4CFEAFF000EE926020EEA220C0EA3
:10265000E926000EEA22EF50800B02E1000E31D194
:102660000F0149511DE00101C2511AE001016187CA
:1026700060C148FFFE0EDB500E0DF3CFE9FFF4CF33
:10268000EAFF000EE926020EEA22020EE926000EFB
:10269000EA22EECF5EF1EDCF5FF1060EDF6E04D0E1
:1026A00001016197020EDF6E4ACFB7F1DFCFB8F1BB
:1026B000FE0EDB500E0DF3CFE9FFF4CFEAFF000E64
:1026C000E926020EEA22EFCFB9F1FE0EDB500E0D25
:1026D000F3CFE9FFF4CFEAFF000EE926020EEA226B
:1026E000010EE926000EEA22EFCFBAF1FE0EDB5012
:1026F0000E0DF3CFE9FFF4CFEAFF000EE926020E3C
:10270000EA22020EE926000EEA22EFCFBBF1FE0E0E
:10271000DB500E0DF3CFE9FFF4CFEAFF000EE92600
:10272000020EEA22020EE926000EEA22010EE92636
:10273000000EEA22EFCFBCF14FC1BDF150C1BEF196
:102740004DC1BFF14EC1C0F16051602B0101C16F9D
:102750000101756B758BFD0EDB507597E8B07587C1
:10276000010E786F796F51510E0DF3CFE9FFF4CF61
:10277000EAFF000EE926020EEA22020EE926000E0A
:10278000EA22E9CF76F1EACF77F151510E0DF3CF7E
:10279000E9FFF4CFEAFF000EE926020EEA22EECFAF
:1027A0007AF1EDCF7BF14CC1E6FFB70EE66E010E7C
:1027B000E66E75C1E6FF76C1E6FF77C1E6FF78C138
:1027C000E6FF79C1E6FF7AC1E6FF7BC1E6FF11ECC7
:1027D00022F0106E0A0EE15E1050000904E10101C2
:1027E0006197000E6ED001016151080B68E0FE0E8A
:1027F000DB500E0DF3CFE9FFF4CFEAFF000EE92620
:10280000020EEA22020EE926000EEA22EECF10F0B6
:10281000EFCF11F0800E0001105C51E266EC34F055
:10282000010E04C0DBFF020E05C0DBFF030E06C075
:10283000DBFF040E07C0DBFF81DE000901E087DE5D
:10284000010161B702D0010E3CD066EC34F0050EF8
:1028500004C0DBFF060E05C0DBFF070E06C0DBFF72
:10286000080E07C0DBFF050EDBCF14F0060EDBCF32
:1028700015F0070EDBCF16F0080EDBCF17F0D9509E
:10288000010FE96EDACFEAFFEE50145C106EEE50E5
:102890001558116EEE501658126EEE501758136EF2
:1028A000D880240E1054F40E1154000E1254000E51
:1028B000135404E201016197000E03D0BDD7010E4D
:1028C00000D0106E090EE15C02E2E16AE552E16EB1
:1028D0001050E552E7CFD9FF1200D9CFE6FFE1CF84
:1028E000D9FF010161974ACFB7F10101020EB86F1C
:1028F0004FC1B9F150C1BAF1FD0EDBCFE9FFFE0EB9
:10290000DBCFEAFFEFCFBBF1010EE76EFD0EDBCFB1
:10291000E9FFFE0EDBCFEAFFE750E926000EEA22D0
:10292000EFCFBCF14FC1BDF150C1BEF14DC1BFF100
:102930004EC1C0F101016051602B0101C16F010165
:10294000756B758B51510E0DF3CFE9FFF4CFEAFF94
:10295000000EE926020EEA22EECF7AF1EDCF7BF1EE
:10296000010E786F796F51510E0DF3CFE9FFF4CF5F
:10297000EAFF000EE926020EEA22020EE926000E08
:10298000EA22E9CF76F1EACF77F14CC1E6FFB70E44
:10299000E66E010EE66E75C1E6FF76C1E6FF77C111
:1029A000E6FF78C1E6FF79C1E6FF7AC1E6FF7BC1A9
:1029B000E6FF11EC22F0106E0A0EE15E10500009E5
:1029C00004E101016197000E02D0010E00D0E55232
:1029D000E7CFD9FF1200D9CFE6FFE1CFD9FF130E21
:1029E000E126FC0EDB504CE1FD0EDBCFE9FFFE0ED5
:1029F000DBCFEAFFEFCF5AF1010EE76EFD0EDBCF22
:102A0000E9FFFE0EDBCFEAFFE750E926000EEA22DF
:102A1000EFCF5BF10101FC0ED8805A55FF0E5B55DC
:102A20002FE2FD0E5A1902E1E8685B1920E0FE0E64
:102A30005A1902E1E8685B1911E0E8685A1902E1E5
:102A4000E8685B1902E0000EAAD2FB0EDBCFE6FFBE
:102A5000010EE66E91DDE552E552A1D2FB0EDBCF11
:102A6000E6FF030EE66E88DDE552E55298D2FB0ED6
:102A7000DBCFE6FF020EE66E7FDDE552E5528FD238
:102A80000F0149510DE00101C2510AE001016187C6
:102A900060C148FF060EF36E020EF3CFDBFF06D0D7
:102AA00001016197020EF36EF3CFDBFFFC0EDB50EA
:102AB00001E18FD1010EDB6A080EF36E010EDBCF50
:102AC000F4FFF350F45C1CE2010EDB50E76EFD0EE8
:102AD000DBCFE9FFFE0EDBCFEAFFE750E926000E71
:102AE000EA22EF50E66E010EDB50EA6A520FE96E01
:102AF000010EEA22E552E750EF6E010EDB2ADCD729
:102B0000E0EC0AF0DF6EFF0848E14ACFB7F10101BF
:102B1000020EB86FB969BA69BB69BC694FC1BDF132
:102B200050C1BEF14DC1BFF14EC1C0F101016051B4
:102B3000602B0101C16F0101756B758BFB0EDB50C2
:102B40007597E8B07587FD0EDBCF76F1FE0EDBCF13
:102B500077F1786B010E796F4FC17AF150C17BF13B
:102B600061974CC1E6FFB70EE66E010EE66E75C1C9
:102B7000E6FF76C1E6FF77C1E6FF78C1E6FF79C1DF
:102B8000E6FF7AC1E6FF7BC1E6FF11EC22F0106E92
:102B90000A0EE15E105003D21CD1DF500E0DF3CFB0
:102BA000E9FFF4CFEAFF000EE926020EEA220C0E3E
:102BB000E926000EEA22EF50080B01E1A6D70F012B
:102BC000495112E0DF500E0DF3CFE9FFF4CFEAFFD9
:102BD000000EE926020EEA22020EE926000EEA2283
:102BE000EECF5EF1EDCF5FF14ACFB7F1020EDBCF52
:102BF000B8F1DF500E0DF3CFE9FFF4CFEAFF000E7E
:102C0000E926020EEA22EFCFB9F1DF500E0DF3CF25
:102C1000E9FFF4CFEAFF000EE926020EEA22010ED8
:102C2000E926000EEA22EFCFBAF1DF500E0DF3CF06
:102C3000E9FFF4CFEAFF000EE926020EEA22020EB7
:102C4000E926000EEA22EFCFBBF1DF500E0DF3CFE5
:102C5000E9FFF4CFEAFF000EE926020EEA22020E97
:102C6000E926000EEA22010EE926000EEA22EFCF45
:102C7000BCF14FC1BDF150C1BEF14DC1BFF14EC15C
:102C8000C0F101016051602B0101C16F0101756B41
:102C9000758BFB0EDB507597E8B0758751510E0DA3
:102CA000F3CFE9FFF4CFEAFF000EE926020EEA2295
:102CB000EECF7AF1EDCF7BF1010E786F796F515144
:102CC0000E0DF3CFE9FFF4CFEAFF000EE926020E66
:102CD000EA22020EE926000EEA22E9CF76F1EACFD7
:102CE00077F14CC1E6FFB70EE66E010EE66E75C1D8
:102CF000E6FF76C1E6FF77C1E6FF78C1E6FF79C15E
:102D0000E6FF7AC1E6FF7BC1E6FF11EC22F0106E10
:102D10000A0EE15E1050000904E101016197000E06
:102D20003ED1010161A753D066EC34F0030E04C01C
:102D3000DBFF040E05C0DBFF050E06C0DBFF060E41
:102D400007C0DBFF9EEC12F0000902E0A7EC12F0D6
:102D5000010161B702D0010E22D166EC34F0070EFA
:102D600004C0DBFF080E05C0DBFF090E06C0DBFF59
:102D70000A0E07C0DBFF070EDBCF14F0080EDBCF17
:102D800015F0090EDBCF16F00A0EDBCF17F0D95085
:102D9000030FE96EDACFEAFFEE50145C106EEE50CE
:102DA0001558116EEE501658126EEE501758136EDD
:102DB000D880240E1054F40E1154000E1254000E3C
:102DC000135404E201016197000EE9D0BBD7010E54
:102DD000E6D04ACFB7F1020EDBCFB8F14FC1B9F15F
:102DE00050C1BAF1FD0EDBCFE9FFFE0EDBCFEAFFEB
:102DF000EFCFBBF1010EE76EFD0EDBCFE9FFFE0E5C
:102E0000DBCFEAFFE750E926000EEA22EFCFBCF164
:102E10004FC1BDF150C1BEF14DC1BFF14EC1C0F1B6
:102E200001016051602B0101C16FFD0EDBCFE9FF95
:102E3000FE0EDBCFEAFFEFCF5EF1010EE76EFD0E77
:102E4000DBCFE9FFFE0EDBCFEAFFE750E926000EFD
:102E5000EA22EFCF5FF10101756B758BFB0EDB5042
:102E60007597E8B0758751510E0DF3CFE9FFF4CF98
:102E7000EAFF000EE926020EEA22EECF7AF1EDCF4C
:102E80007BF1010E786F796F51510E0DF3CFE9FF91
:102E9000F4CFEAFF000EE926020EEA22020EE9262E
:102EA000000EEA22E9CF76F1EACF77F14CC1E6FFD6
:102EB000B70EE66E010EE66E75C1E6FF76C1E6FF5F
:102EC00077C1E6FF78C1E6FF79C1E6FF7AC1E6FF88
:102ED0007BC1E6FF11EC22F0106E0A0EE15E10508D
:102EE000000905E101016197000E59D056D001019A
:102EF00061A753D066EC34F00B0E04C0DBFF0C0E60
:102F000005C0DBFF0D0E06C0DBFF0E0E07C0DBFFAA
:102F10009EEC12F0000902E0A7EC12F0010161B78B
:102F200002D0010E3CD066EC34F00F0E04C0DBFF83
:102F3000100E05C0DBFF110E06C0DBFF120E07C02E
:102F4000DBFF0F0EDBCF14F0100EDBCF15F0110EF0
:102F5000DBCF16F0120EDBCF17F0D9500B0FE96E56
:102F6000DACFEAFFEE50145C106EEE501558116E79
:102F7000EE501658126EEE501758136ED880240E6D
:102F80001054F40E1154000E1254000E135404E2A7
:102F900001016197000E03D0BBD7010E00D0106E67
:102FA000130EE15C02E2E16AE552E16E1050E55277
:102FB000E7CFD9FF1200D9CFE6FFE1CFD9FFFE0E50
:102FC000DB50020A06E0030A02E0000E04D0000E05
:102FD00002D0000E00D0E552E7CFD9FF1200D9CFC2
:102FE000E6FFE1CFD9FF130EE126010EDB68020EEA
:102FF000DB68010EF36E030EF3CFDBFF040EDB6A1A
:10300000050EDB6A060EDB6AF90EDB5002E0FF0EEE
:10301000F0D0DF6A200EDF5C01E3E8D0106AF80E22
:10302000116E1268070E136ED950FB0FE96EFF0E7A
:10303000DA20EA6EEE501016EE501116EE5012160F
:10304000EE501316030EDBCF14F0040EDBCF15F099
:10305000050EDBCF16F0060EDBCF17F0DF501F0B8F
:1030600007E0D8901436153616361736E806F9E11B
:10307000145010161550111616501216175013161C
:10308000105011101210131001E1AED0100EDB6AB7
:10309000DFCFE6FF70EC0EF0E55266EC34F00B0E7D
:1030A00004C0DBFF0C0E05C0DBFF0D0E06C0DBFF0E
:1030B0000E0E07C0DBFF010EE66E1FEC25F0E55299
:1030C000E76E0F0EE7CFDBFFDBCF10F0100EDB500B
:1030D000D880105406E20F0EDB50E76E100EE7CFDB
:1030E000DBFF66EC34F0070E04C0DBFF080E05C002
:1030F000DBFF090E06C0DBFF0A0E07C0DBFF070E71
:10310000DBCF14F0080EDBCF15F0090EDBCF16F085
:103110000A0EDBCF17F0D9500B0FE96EDACFEAFFBA
:10312000EE50145C106EEE501558116EEE5016589D
:10313000126EEE501758136EFA0EDB50040DF3CFDB
:10314000F6FFF4CFF7FF760EF6266C0EF72210503E
:103150000900F55C11500900F55812500900F558A6
:1031600013500900F55801E201D0A5D7050E106EE5
:1031700010C00CF0100EDBCF07F091EC36F0110E02
:1031800007C0DBFF120EDB6A110EDB50F36E120E6E
:10319000DBCFF4FFF350F45C03E2120EDB2AF4D72A
:1031A000020EDB50F36E100EDBCFF4FFF350F45C35
:1031B0001BE2100EDB50E76E020EE7CFDBFF010EC5
:1031C000DFCFDBFFD950F70FE96EFF0EDA20EA6E92
:1031D000EE50ED1009E0F70EDBCFE9FFF80EDBCF84
:1031E000EAFF020EDBCFEFFFDF2A14D7010EDB5020
:1031F00000D0106E130EE15C02E2E16AE552E16E6E
:103200001050E552E7CFD9FF1200D9CFE6FFE1CF4A
:10321000D9FFE652FE0EDB50FF0801E0E6D0DF6A80
:103220000A0EDF5C01E386D0DF500E0DF3CFE9FF1D
:10323000F4CFEAFF000EE926020EEA220C0EE92680
:10324000000EEA22EF50800B64E0DF500E0DF3CF4A
:10325000E9FFF4CFEAFF000EE926020EEA220C0E87
:10326000E926000EEA22EF50200B53E001014C6BDF
:103270004C514C2BEA6AB70FE96E010EEA22030E9D
:10328000EF6E756B758B75817593010E786F796F25
:10329000DF500E0DF3CFE9FFF4CFEAFF000EE92671
:1032A000020EEA22EECF7AF1EDCF7BF1DF500E0D68
:1032B000F3CFE9FFF4CFEAFF000EE926020EEA227F
:1032C000020EE926000EEA22E9CF76F1EACF77F185
:1032D0004CC1E6FFB70EE66E010EE66E75C1E6FF65
:1032E00076C1E6FF77C1E6FF78C1E6FF79C1E6FF68
:1032F0007AC1E6FF7BC1E6FF11EC22F0106E0A0EE8
:10330000E15E1050640EE66EE66AF8EC30F0E552CD
:10331000E552DF500E0DF3CFE9FFF4CFEAFF000EC8
:10332000E926020EEA220C0EE926000EEA22EF6AD6
:10333000DF2A76D7010151694D694E694F6950699D
:103340004F0EE66E010EE66E4D0EE66E010EE66E57
:103350000FEC27F0E552E552E552E5520101619389
:10336000020EE66EE66A38CFE6FF39CFE6FF4D0E75
:10337000E66E010EE66E5CEC2EF0106E060EE15E5F
:103380001050020EE66EE66A2ECFE6FF2FCFE6FF64
:103390004F0EE66E010EE66E5CEC2EF0106E060E21
:1033A000E15E1050010EE66EE66A3ACFE6FF3BCFD3
:1033B000E6FF510EE66E010EE66E5CEC2EF0106E2E
:1033C000060EE15E10508C0EE66EE66A34CFE6FF24
:1033D00035CFE6FF000EE66E020EE66E5CEC2EF0D8
:1033E000106E060EE15E1050FFD0FE0EDB500E0D8B
:1033F000F3CFE9FFF4CFEAFF000EE926020EEA223E
:103400000C0EE926000EEA22EF50800B01E1ECD011
:10341000FE0EDB500E0DF3CFE9FFF4CFEAFF000EF6
:10342000E926020EEA220C0EE926000EEA22EF50EF
:10343000200B01E1D9D0FE0EDB500101515D01E00E
:10344000D3D04C6B4C514C2BEA6AB70FE96E010E8E
:10345000EA22030EEF6E756B758B75817593010E05
:10346000786F796FFE0EDB500E0DF3CFE9FFF4CFCE
:10347000EAFF000EE926020EEA22EECF7AF1EDCF46
:103480007BF1FE0EDB500E0DF3CFE9FFF4CFEAFF28
:10349000000EE926020EEA22020EE926000EEA22BA
:1034A000E9CF76F1EACF77F14CC1E6FFB70EE66ED1
:1034B000010EE66E75C1E6FF76C1E6FF77C1E6FF55
:1034C00078C1E6FF79C1E6FF7AC1E6FF7BC1E6FF7E
:1034D00011EC22F0106E0A0EE15E1050FE0EDB5071
:1034E0000E0DF3CFE9FFF4CFEAFF000EE926020E3E
:1034F000EA220C0EE926000EEA22EF6A640EE66E5E
:10350000E66AF8EC30F0E552E552DF6A0A0EDF5C5D
:1035100011E2DF500E0DF3CFE9FFF4CFEAFF000E0A
:10352000E926020EEA220C0EE926000EEA22EF6AD4
:10353000DF2AECD7010151694D694E694F69506925
:103540004F0EE66E010EE66E4D0EE66E010EE66E55
:103550000FEC27F0E552E552E552E5520101619387
:10356000020EE66EE66A38CFE6FF39CFE6FF4D0E73
:10357000E66E010EE66E5CEC2EF0106E060EE15E5D
:103580001050020EE66EE66A2ECFE6FF2FCFE6FF62
:103590004F0EE66E010EE66E5CEC2EF0106E060E1F
:1035A000E15E1050010EE66EE66A3ACFE6FF3BCFD1
:1035B000E6FF510EE66E010EE66E5CEC2EF0106E2C
:1035C000060EE15E10508C0EE66EE66A34CFE6FF22
:1035D00035CFE6FF000EE66E020EE66E5CEC2EF0D6
:1035E000106E060EE15E1050E552E552E7CFD9FFAE
:0235F0001200C7
:0E35F200D9CFE6FFE1CFD9FFE652F250100B21
:1036000001E0010EDF6EF2988B90FD0EDBCF10F023
:10361000FE0EDBCF11F0030ED89011321032E80409
:10362000FBE17F0E10148009E66EF0EC33F0E552FA
:10363000FD0EDBCF10F0FE0EDBCF11F0050ED890A3
:1036400010361136E804FBE1E00E10141009E66EA6
:10365000F0EC33F0E552FC0EDBCFE6FFF0EC33F09C
:10366000E5528B80DF50E8B0F288E8A0F298E5528E
:10367000E552E7CFD9FF1200D9CFE6FFE1CFD9FF5E
:10368000E652F250100B01E0010EDF6EF2988B90C3
:10369000FE0EDBCFE6FFF0EC33F0E552FD0EDBCFA4
:1036A000E6FFF0EC33F0E5528B80DF50E8B0F288B3
:1036B000E8A0F298E552E552E7CFD9FF1200D9CF42
:1036C000E6FFE1CFD9FF020EE126F250100B01E038
:1036D000010EE76E010EE7CFDBFFF2988B90FE0E36
:1036E000DBCFE6FFF0EC33F0E55217EC34F0DF6EA1
:1036F0008B80010EDB50E8B0F288E8A0F298DF5032
:10370000106E020EE15C03E200D0E16AE552E16E68
:103710001050E552E7CFD9FF1200D9CFE6FFE1CF35
:10372000D9FF020EE126F250100B01E0010EE76E08
:10373000010EE7CFDBFFF2988B90FD0EDBCF10F090
:10374000FE0EDBCF11F0030ED89011321032E804D8
:10375000FBE17F0E1016000E1116800E1010E66EA3
:10376000F0EC33F0E552FD0EDBCF10F0FE0EDBCFB8
:1037700011F0050ED89010361136E804FBE1E00E8A
:103780001014E66EF0EC33F0E55217EC34F0DF6E17
:103790008B80010EDB50E8B0F288E8A0F298DF5091
:1037A000106E020EE15C03E200D0E16AE552E16EC8
:1037B0001050E552E7CFD9FF1200D9CFE6FFE1CF95
:1037C000D9FF030EE1268B94010EDB6A020EDB6A41
:1037D000010EDBCF10F0020EDBCF11F02C0E105CCF
:1037E000010E115806E2010EDB2A020E01E3DB2A6C
:1037F000EFD78B84010EDB6A020EDB6A010EDBCF92
:1038000010F0020EDBCF11F02C0E105C010E1158DF
:1038100006E2010EDB2A020E01E3DB2AEFD7070ED8
:10382000E66E550EE66E28DFE552E552540EE66E62
:1038300046DFE552DF6E070EDF14F8E1010EDB6AAA
:10384000020EDB6A010EDBCF10F0020EDBCF11F0AF
:10385000E80E105C030E115806E2010EDB2A020E80
:1038600001E3DB2AEFD7010EE66E1B0EE66E04DFE6
:10387000E552E552E668070EE66EFEDEE552E552D9
:10388000E668090EE66EF8DEE552E552E668030EDC
:10389000E66EF2DEE552E552E668050EE66EECDE17
:1038A000E552E552DF6A080EDF5C12E2DF500F01DD
:1038B000EA6A5625E96E5751EA22EF50E66EDF506C
:1038C000E8240B0FE66ED8DEE552E552DF2AEBD78F
:1038D000800EE66E020EE66EE66E8BDEE552E55277
:1038E000E552E66A030EE66E020EE66E82DEE552F1
:1038F000E552E552900EE66E060EE66E020EE66E9C
:1039000078DEE552E552E552800EE66E070EE66E71
:10391000020EE66E6EDEE552E552E552100EE66EE0
:10392000080EE66E020EE66E64DEE552E552E552E2
:10393000210EE66E200EE66E020EE66E5ADEE552AF
:10394000E552E552800EE66E750EE66E95DEE552A6
:10395000E552400EE66E7D0EE66E8EDEE552E552D5
:10396000600EE66E7F0EE66E87DEE552E552980E3B
:10397000E66E310EE66E80DEE552E552950EE66E9D
:103980005D0EE66E79DEE552E5520F0EE66E020E32
:10399000E66EC3DEE552E552DF6EA00EDF14A0082E
:1039A000F4E1E60EE66E650EE66E66DEE552E55281
:1039B000030EE66EE66A020EE66E1BDEE552E55287
:1039C000E552020EE66E010EE66E020EE66E11DEA6
:1039D000E552E552E552E66A59CFE6FF76EC26F06D
:1039E000E552E552030EE15C02E2E16AE552E16E66
:1039F000E552E7CFD9FF1200D9CFE6FFE1CFD9FFDB
:103A0000030EE12681A0F2820F015EA11DD0A5C2A6
:103A100010F0A6C211F0126A136AD8901350000A6F
:103A200008E6800E105C000E1158000E1258000EB1
:103A3000135806E30201A56BA66B0F015E9104D03B
:103A40000201A52B000EA6230201A469DF6A020E63
:103A5000DF5C12E2DF50500DF3CFE9FFF4CFEAFF55
:103A6000600EE926000EEA22EF50000803E2DFCFE5
:103A7000A4F202D0DF2AEBD7020E0201A45D02E31A
:103A8000F3EF21F0010EF36E020EF3CFDBFFA45132
:103A9000500DF3CFE9FFF4CFEAFF600EE926000EE8
:103AA000EA22EE52EF50400B02E1020EDB6A010106
:103AB0007C6B846B0201A451500DF3CFE9FFF4CF6E
:103AC000EAFF600EE926000EEA22EE52010EE92618
:103AD000000EEA22EF50CC0BE76E010EE7CFDBFFC2
:103AE000DB50080A01E1B8D3840A01E1F6D2040AE6
:103AF00001E10ED2080A01E1AAD14C0A01E1EAD0A3
:103B0000040A05E001EC22F0000EF5EF21F0A451CB
:103B1000500DF3CFE9FFF4CFEAFF600EE926000E67
:103B2000EA22EE52050EE926000EEA22EF50FF08C7
:103B300014E1A451500DF3CFE9FFF4CFEAFF600E7A
:103B4000E926000EEA22EE52060EE926000EEA22CF
:103B5000EF50FF0802E101017C8501017C8F020E1C
:103B6000DB505CE00201A451500DF3CFE9FFF4CF2C
:103B7000EAFF600EE926000EEA22EE52030EE92665
:103B8000000EEA22EFCF85F1A451500DF3CFE9FFEB
:103B9000F4CFEAFF600EE926000EEA22EE52040E90
:103BA000E926000EEA22EFCF86F1A451500DF3CFA3
:103BB000E9FFF4CFEAFF600EE926000EEA22EE529A
:103BC000E9CF7DF1EACF7EF1070E01017D27000EDE
:103BD0007E230201A451500DF3CFE9FFF4CFEAFF99
:103BE000600EE926000EEA22EF50ED0F0101816F11
:103BF0000201A451500DF3CFE9FFF4CFEAFF600EAC
:103C0000E926000EEA22EE52E9CF7FF1EACF80F1F9
:103C10000F0E01017F27000E80235BD00201A4510B
:103C2000500DF3CFE9FFF4CFEAFF600EE926000E56
:103C3000EA22EE52070EE926000EEA22EFCF85F1C6
:103C4000A451500DF3CFE9FFF4CFEAFF600EE9264F
:103C5000000EEA22EE52080EE926000EEA22EFCF0D
:103C600086F1A451500DF3CFE9FFF4CFEAFF600EC7
:103C7000E926000EEA22EE52E9CF7DF1EACF7EF18D
:103C8000090E01017D27000E7E230201A451500D73
:103C9000F3CFE9FFF4CFEAFF600EE926000EEA2237
:103CA000EF50EB0F0101816F0201A451500DF3CFD2
:103CB000E9FFF4CFEAFF600EE926000EEA22EE5299
:103CC000E9CF7FF1EACF80F1110E01017F27000ECD
:103CD00080230DD301017C8F020EDB505CE00201DA
:103CE000A451500DF3CFE9FFF4CFEAFF600EE926AF
:103CF000000EEA22EE52030EE926000EEA22EFCF72
:103D000085F1A451500DF3CFE9FFF4CFEAFF600E27
:103D1000E926000EEA22EE52040EE926000EEA22FF
:103D2000EFCF86F1A451500DF3CFE9FFF4CFEAFFB6
:103D3000600EE926000EEA22EE52E9CF7DF1EACFCD
:103D40007EF10D0E01017D27000E7E230201A4519C
:103D5000500DF3CFE9FFF4CFEAFF600EE926000E25
:103D6000EA22EF50E70F0101816F0201A451500DCB
:103D7000F3CFE9FFF4CFEAFF600EE926000EEA2256
:103D8000EE52E9CF7FF1EACF80F1150E01017F27D6
:103D9000000E80235BD00201A451500DF3CFE9FF48
:103DA000F4CFEAFF600EE926000EEA22EE520D0E75
:103DB000E926000EEA22EFCF85F1A451500DF3CF92
:103DC000E9FFF4CFEAFF600EE926000EEA22EE5288
:103DD0000E0EE926000EEA22EFCF86F1A451500D17
:103DE000F3CFE9FFF4CFEAFF600EE926000EEA22E6
:103DF000EE52E9CF7DF1EACF7EF10F0E01017D2772
:103E0000000E7E230201A451500DF3CFE9FFF4CF41
:103E1000EAFF600EE926000EEA22EF50E50F0101ED
:103E2000816F0201A451500DF3CFE9FFF4CFEAFFF7
:103E3000600EE926000EEA22EE52E9CF7FF1EACFCA
:103E400080F1170E01017F27000E802350D201015F
:103E50007C857C8F010E846F0201A451500DF3CF3D
:103E6000E9FFF4CFEAFF600EE926000EEA22EE52E7
:103E7000030EE926000EEA22EFCF85F1A451500D82
:103E8000F3CFE9FFF4CFEAFF600EE926000EEA2245
:103E9000EE52040EE926000EEA22EFCF86F1A4517D
:103EA000500DF3CFE9FFF4CFEAFF600EE926000ED4
:103EB000EA22EE52E9CF7DF1EACF7EF1050E010153
:103EC0007D27000E7E230201A451500DF3CFE9FFA0
:103ED000F4CFEAFF600EE926000EEA22EF50F50F5C
:103EE0000101816F0201A451500DF3CFE9FFF4CF1E
:103EF000EAFF600EE926000EEA22EE52E9CF7FF1DA
:103F0000EACF80F1070E01017F27000E8023EFD159
:103F1000A451500DF3CFE9FFF4CFEAFF600EE9267C
:103F2000000EEA22EE52050EE926000EEA22EF50BC
:103F3000FF0814E1A451500DF3CFE9FFF4CFEAFFDD
:103F4000600EE926000EEA22EE52060EE926000E69
:103F5000EA22EF50FF0802E101017C8501017C8F1C
:103F6000010E846F020EDB505CE10201A451500D82
:103F7000F3CFE9FFF4CFEAFF600EE926000EEA2254
:103F8000EE52070EE926000EEA22EFCF85F1A4518A
:103F9000500DF3CFE9FFF4CFEAFF600EE926000EE3
:103FA000EA22EE52080EE926000EEA22EFCF86F151
:103FB000A451500DF3CFE9FFF4CFEAFF600EE926DC
:103FC000000EEA22EE52E9CF7DF1EACF7EF1090E32
:103FD00001017D27000E7E230201A451500DF3CF75
:103FE000E9FFF4CFEAFF600EE926000EEA22EF5067
:103FF000F10F0101816F0201A451500DF3CFE9FFD0
:10400000F4CFEAFF600EE926000EEA22EE52E9CF75
:104010007FF1EACF80F10B0E01017F27000E802394
:104020005BD00201A451500DF3CFE9FFF4CFEAFFBA
:10403000600EE926000EEA22EE52030EE926000E7B
:10404000EA22EFCF85F1A451500DF3CFE9FFF4CF71
:10405000EAFF600EE926000EEA22EE52040EE9267F
:10406000000EEA22EFCF86F1A451500DF3CFE9FF05
:10407000F4CFEAFF600EE926000EEA22EE52E9CF05
:104080007DF1EACF7EF1070E01017D27000E7E2330
:104090000201A451500DF3CFE9FFF4CFEAFF600E07
:1040A000E926000EEA22EF50F30F0101816F0201B1
:1040B000A451500DF3CFE9FFF4CFEAFF600EE926DB
:1040C000000EEA22EE52E9CF7FF1EACF80F1090E2D
:1040D00001017F27000E80230AD101017C8F010E90
:1040E000846F020EDB505CE00201A451500DF3CF4F
:1040F000E9FFF4CFEAFF600EE926000EEA22EE5255
:10410000030EE926000EEA22EFCF85F1A451500DEF
:10411000F3CFE9FFF4CFEAFF600EE926000EEA22B2
:10412000EE52040EE926000EEA22EFCF86F1A451EA
:10413000500DF3CFE9FFF4CFEAFF600EE926000E41
:10414000EA22EE52E9CF7DF1EACF7EF10C0E0101B9
:104150007D27000E7E230201A451500DF3CFE9FF0D
:10416000F4CFEAFF600EE926000EEA22EF50ED0FD1
:104170000101816F0201A451500DF3CFE9FFF4CF8B
:10418000EAFF600EE926000EEA22EE52E9CF7FF147
:10419000EACF80F10F0E01017F27000E80235BD054
:1041A0000201A451500DF3CFE9FFF4CFEAFF600EF6
:1041B000E926000EEA22EE520C0EE926000EEA2253
:1041C000EFCF85F1A451500DF3CFE9FFF4CFEAFF13
:1041D000600EE926000EEA22EE520D0EE926000ED0
:1041E000EA22EFCF86F1A451500DF3CFE9FFF4CFCF
:1041F000EAFF600EE926000EEA22EE52E9CF7DF1D9
:10420000EACF7EF10E0E01017D27000E7E23020112
:10421000A451500DF3CFE9FFF4CFEAFF600EE92679
:10422000000EEA22EF50EB0F0101816F0201A45151
:10423000500DF3CFE9FFF4CFEAFF600EE926000E40
:10424000EA22EE52E9CF7FF1EACF80F1110E0101AF
:104250007F27000E80234BD0A451500DF3CFE9FFF0
:10426000F4CFEAFF600EE926000EEA22EE52050EB8
:10427000E926000EEA22EF50FF0814E1A451500D88
:10428000F3CFE9FFF4CFEAFF600EE926000EEA2241
:10429000EE52060EE926000EEA22EF50FF0802E178
:1042A00001017C850201A451500DF3CFE9FFF4CF49
:1042B000EAFF600EE926000EEA22EF50F60F010138
:1042C000816F0201A451500DF3CFE9FFF4CFEAFF53
:1042D000600EE926000EEA22EE52E9CF7FF1EACF26
:1042E00080F1070E01017F27000E802300D002011C
:1042F000A451500DF3CFE9FFF4CFEAFF600EE92699
:10430000000EEA22EE52EF50080B03E07AD8000EBE
:104310006CD0A451500DF3CFE9FFF4CFEAFF600E4B
:10432000E926000EEA22EE52EF50070B0FE0030AD7
:1043300009E0020A03E065D8000E57D001017C9124
:104340007C9308D001017C817C9304D001017C81A5
:104350007C8300D00201A451500DF3CFE9FFF4CFCC
:10436000EAFF600EE926000EEA22EE52E9CF10F0D5
:10437000EACF11F0A451500DF3CFE9FFF4CFEAFFDB
:10438000600EE926000EEA22EF50FE0F0F01102406
:10439000E96E000E1120EA6EEFCF83F10201A45105
:1043A000500DF3CFE9FFF4CFEAFF600EE926000ECF
:1043B000EA22EE52E9CF10F0EACF11F0A451500DED
:1043C000F3CFE9FFF4CFEAFF600EE926000EEA2200
:1043D000EF040F011024E96E000E1120EA6EEFCFFA
:1043E00082F1010E02D0000E00D0106E030EE15CCF
:1043F00002E2E16AE552E16E1050E552E7CFD9FFE3
:104400001200020E0201A45D0BE2A451500DF3CF85
:10441000E9FFF4CFEAFF600EE926000EEA22EF6A18
:104420001200D9CFE6FFE1CFD9FF0C0EE126010E35
:10443000DB6A020EDB6AD950F80FE96EFF0EDA2054
:10444000EA6EEF50040B05E0010EF36EFB0EF3CFA6
:10445000DBFFD950F80FE96EFF0EDA20EA6EEF505D
:10446000080B02E0FC0EDB6AD950F80FE96EFF0E74
:10447000DA20EA6EEF50030B010806E1030EF36E3B
:10448000020EF3CFDBFF0FD0D950F80FE96EFF0E0D
:10449000DA20EA6EEF50030B000905E1010EF36E1E
:1044A000020EF3CFDBFFFD0EDBCF10F0FE0EDBCFF5
:1044B00011F00F015A51101802E15B5111180EE171
:1044C0005A1D01E15B1D0AE0050EDF6E020EDB8C5A
:1044D000010EF36E030EF3CFDBFF04D0070EDF6E89
:1044E000030EDB6AFB0EDB5003E0020EDF2602D078
:1044F000080EDF26FC0EDB5003E0020EDF2602D0A2
:10450000080EDF26D950F80FE96EFF0EDA20EA6EAA
:10451000EF50200B0BE0D950F80FE96EFF0EDA20B8
:10452000EA6EEF50040B02E1020EDB8AD950F80F5D
:10453000E96EFF0EDA20EA6EEF50030B03080DE17F
:10454000020EDB6A070EDF6E030EDB6A010EF36EEE
:10455000FC0EF3CFDBFFF80EDB9ADFCFE6FF010E98
:10456000DBCFF3FFDB2AF350E66EE66AF9EC1AF0D4
:10457000E552E552E552F50EDB50DF24E66E010E02
:10458000DBCFF3FFDB2AF350E66EE66AF9EC1AF0B4
:10459000E552E552E552020EDBCFE6FF010EDBCF1E
:1045A000F3FFDB2AF350E66EE66AF9EC1AF0E55207
:1045B000E552E552D950F80FE96EFF0EDA20EA6EA7
:1045C000EF50030B03081FE1800EE66E010EDBCFF8
:1045D000F3FFDB2AF350E66EE66AF9EC1AF0E552D7
:1045E000E552E5520F015851582BE66E010EDBCF14
:1045F000F3FFDB2AF350E66EE66AF9EC1AF0E552B7
:10460000E552E552F9D0FB0EDB5012E0FC0EDB5018
:104610000FE0880EE66E010EDBCFF3FFDB2AF350CE
:10462000E66EE66AF9EC1AF0E552E552E55238D04A
:10463000FB0EDB5012E0FC0EDB500FE1C80EE66E05
:10464000010EDBCFF3FFDB2AF350E66EE66AF9ECEE
:104650001AF0E552E552E55223D0FB0EDB5012E191
:10466000FC0EDB040FE18C0EE66E010EDBCFF3FFD8
:10467000DB2AF350E66EE66AF9EC1AF0E552E552F1
:10468000E5520ED0CC0EE66E010EDBCFF3FFDB2A37
:10469000F350E66EE66AF9EC1AF0E552E552E5529F
:1046A0000F015851582BE66E010EDBCFF3FFDB2ACA
:1046B000F350E66EE66AF9EC1AF0E552E552E5527F
:1046C000FD0EDBCFE6FF010EDBCFF3FFDB2AF3505D
:1046D000E66EE66AF9EC1AF0E552E552E552FE0E96
:1046E000DBCFE6FF010EDBCFF3FFDB2AF350E66EF4
:1046F000E66AF9EC1AF0E552E552E552D950F80FA6
:10470000E96EFF0EDA20EA6EEF50040B1BE0E6685C
:10471000010EDBCFF3FFDB2AF350E66EE66AF9EC1D
:104720001AF0E552E552E552E668010EDBCFF3FFE1
:10473000DB2AF350E66EE66AF9EC1AF0E552E55230
:10474000E5525AD0FB0EDB502FE0F90EDBCFE9FF2C
:10475000FA0EDBCFEAFFEF50E66E010EDBCFF3FF80
:10476000DB2AF350E66EE66AF9EC1AF0E552E55200
:10477000E552010EE76EF90EDBCFE9FFFA0EDBCF53
:10478000EAFFE750E926000EEA22EF50E66E010E3E
:10479000DBCFF3FFDB2AF350E66EE66AF9EC1AF0A2
:1047A000E552E552E55228D0020EDB6A080EF36EA0
:1047B000020EDBCFF4FFF350F45C1EE2020EDB507E
:1047C000E76EF90EDBCFE9FFFA0EDBCFEAFFE75029
:1047D000E926000EEA22EF50E66E010EDBCFF3FF72
:1047E000DB2AF350E66EE66AF9EC1AF0E552E55280
:1047F000E552020EDB2ADAD7030EDB501CE15ACF5A
:10480000E6FF010EDBCFF3FFDB2AF350E66EE66A2C
:10481000F9EC1AF0E552E552E5525BCFE6FF010EE6
:10482000DBCFF3FFDB2AF350E66EE66AF9EC1AF011
:10483000E552E552E552FC0EDB501DE05CCFE6FF91
:10484000010EDBCFF3FFDB2AF350E66EE66AF9ECEC
:104850001AF0E552E552E5525DCFE6FF010EDBCFDF
:10486000F3FFDB2AF350E66EE66AF9EC1AF0E55244
:10487000E552E55223D0020EDB6A080EF36E020EFB
:10488000DBCFF4FFF350F45C19E2020EDB500F01B2
:10489000EA6A5625E96E5751EA22EF50E66E010E9C
:1048A000DBCFF3FFDB2AF350E66EE66AF9EC1AF091
:1048B000E552E552E552020EDB2ADFD7020EDB6A33
:1048C000F50EDB50F36E020EDBCFF4FFF350F45C19
:1048D0001EE2020EDB50E76EF60EDBCFE9FFF70EAD
:1048E000DBCFEAFFE750E926000EEA22EF50E66E42
:1048F000010EDBCFF3FFDB2AF350E66EE66AF9EC3C
:104900001AF0E552E552E552020EDB2AD9D70F0123
:104910005E81D950F80FE96EFF0EDA20EA6EEF5093
:10492000200B10E0D950F80FE96EFF0EDA20EA6E86
:10493000EF50040B07E1050EF36E020EF3CFDBFF21
:104940005E8306D0010EF36E020EF3CFDBFF5E93A3
:10495000DBCFE6FF370EE66E3CEC1BF0E552E5528E
:1049600066EC34F0040E04C0DBFF050E05C0DBFF6F
:10497000060E06C0DBFF070E07C0DBFF81A0F28238
:104980000F015EB107D05EA503D05E95000E4BD03F
:10499000010E49D066EC34F0080E04C0DBFF090EAE
:1049A00005C0DBFF0A0E06C0DBFF0B0E07C0DBFFF6
:1049B000080EDBCF14F0090EDBCF15F00A0EDBCFAB
:1049C00016F00B0EDBCF17F0D950040FE96EDACFDB
:1049D000EAFFEE50145C106EEE501558116EEE505A
:1049E0001658126EEE501758136ED880C40E10541D
:1049F000090E1154000E1254000E135413E2DDEC94
:104A00001BF05A0EE66E0F0EE66E5C0EE66E0F0E93
:104A1000E66E05DAE552E552E552E5520F015E9188
:104A2000000E01D0ABD7106E0C0EE15C02E2E16A21
:104A3000E552E16E1050E552E7CFD9FF1200D9CF11
:104A4000E6FFE1CFD9FFE652800EE66E7D0EE66E00
:104A50003CEC1BF0E552E5527C0EE66E5FEC1BF081
:104A6000E552DF6E010EDF14010807E07C0EE66EF2
:104A70005FEC1BF0E552DF6EF5D7100EE66E020E0E
:104A8000E66E8DEC1BF0E552E552DF6E400EE66EF1
:104A90007D0EE66E3CEC1BF0E552E552DF5000D097
:104AA000E552E552E7CFD9FF1200D9CFE6FFE1CFBB
:104AB000D9FF090EE126FE0EDB50FF0A26E0FF0AB1
:104AC00002E0000E07D18B92040EE66E550EE66EE4
:104AD0003CEC1BF0E552E552800EE66E450EE66EAC
:104AE0003CEC1BF0E552E552600EE66E1B0EE66EE6
:104AF0003CEC1BF0E552E552800EE66E6B0EE66E66
:104B00003CEC1BF0E552E552E3D08B8266EC34F0CE
:104B1000010E04C0DBFF020E05C0DBFF030E06C062
:104B2000DBFF040E07C0DBFF66EC34F0050E04C0AB
:104B3000DBFF060E05C0DBFF070E06C0DBFF080E1D
:104B400007C0DBFF050EDBCF14F0060EDBCF15F040
:104B5000070EDBCF16F0080EDBCF17F0D950010F90
:104B6000E96EDACFEAFFEE50145C106EEE50155885
:104B7000116EEE501658126EEE501758136E050E49
:104B800010C0DBFF060E11C0DBFF070E12C0DBFFFB
:104B9000080E13C0DBFFD950050FE96EDACFEAFF2C
:104BA000D8806A0EEE54180EEE54000EEE54000E2D
:104BB000EE5410E2DDEC1BF05A0EE66E0F0EE66EC0
:104BC0005C0EE66E0F0EE66E2AD9E552E552E5520E
:104BD000E55209D0620EE66E5FEC1BF0E552DF6E27
:104BE000DFBC01D0A1D766EC34F0050E04C0DBFFBA
:104BF000060E05C0DBFF070E06C0DBFF080E07C070
:104C0000DBFF050EDBCF14F0060EDBCF15F0070E31
:104C1000DBCF16F0080EDBCF17F0D950010FE96E8D
:104C2000DACFEAFFEE50145C106EEE501558116E9C
:104C3000EE501658126EEE501758136E050E10C037
:104C4000DBFF060E11C0DBFF070E12C0DBFF080EF4
:104C500013C0DBFFD950050FE96EDACFEAFFD88029
:104C60006A0EEE54180EEE54000EEE54000EEE5482
:104C700010E2DDEC1BF05A0EE66E0F0EE66E5C0ED7
:104C8000E66E0F0EE66ECBD8E552E552E552E552E0
:104C90000FD00F0EE66E020EE66E8DEC1BF0E552A5
:104CA000E552DF6EE00EDF14A00801E101D09BD7D2
:104CB000040EE66E6D0EE66E3CEC1BF0E552E5521E
:104CC000E66A6D0EE66E3CEC1BF0E552E55200D054
:104CD000010E00D0106E090EE15C02E2E16AE552BD
:104CE000E16E1050E552E7CFD9FF1200D9CFE6FFB1
:104CF000E1CFD9FF0B0EF36EFE0EDBCFF4FFF350C6
:104D0000F45C04E3FE0EDB501A0802E2000E22D02F
:104D1000FE0EDBCF59FFDB50F50F100DF3500309EA
:104D2000E66EE66A020EE66EF9EC1AF0E552E5521E
:104D3000E552040EE66E6D0EE66E3CEC1BF0E5529D
:104D4000E552E66A6D0EE66E3CEC1BF0E552E5526C
:104D5000010E00D0E552E7CFD9FF1200D9CFE6FF10
:104D6000E1CFD9FF020EE1260A0E106E10C00CF042
:104D7000FE0EDBCF07F091EC36F0010E03C0DBFF37
:104D80000A0E106E10C00CF0FE0EDBCF07F091EC97
:104D900036F00750400DF350DF6E010EDB50050872
:104DA00003E2380EDF2622D0010EDB50040803E2B6
:104DB000300EDF261BD0010EDB50030803E2280E65
:104DC000DF2614D0010EDB50020803E2200EDF269E
:104DD0000DD0010EDB50010803E2180EDF2606D0CD
:104DE000010EDB50000802E2100EDF26DFCFE6FFE7
:104DF000030EE66E020EE66EF9EC1AF0E552E5528D
:104E0000E552010E106E020EE15C03E200D0E16A91
:104E1000E552E16E1050E552E7CFD9FF1200D9CF2D
:104E2000E6FFE1CFD9FFFD0EDBCFE9FFFE0EDBCFC2
:104E3000EAFFEFCF5CFF010EE76EFD0EDBCFE9FF6F
:104E4000FE0EDBCFEAFFE750E926000EEA22EFCFA5
:104E50005DFFFB0EDBCFE9FFFC0EDBCFEAFFEFCF00
:104E60005AFF010EE76EFB0EDBCFE9FFFC0EDBCF36
:104E7000EAFFE750E926000EEA22EFCF5BFF5CCFA6
:104E8000E6FF070EE66E3CEC1BF0E552E5525DCF07
:104E9000E6FF090EE66E3CEC1BF0E552E5525ACFF8
:104EA000E6FF030EE66E3CEC1BF0E552E5525BCFED
:104EB000E6FF050EE66E3CEC1BF0E552E552010EF6
:104EC00000D0E552E7CFD9FF1200D9CFE6FFE1CFFE
:104ED000D9FFE652FC0EDBCF55FFFD0EDBCF56FFB0
:104EE000FE0EDBCF57FFD6CF58FF0F010B0E596FC9
:104EF000DDEC1BF00F015E6BDF6A020EDF5C0DE282
:104F0000DF50500DF3CFE9FFF4CFEAFF600EE92642
:104F1000000EEA22EF6ADF2AF0D7010E00D0E55238
:104F2000E552E7CFD9FF1200D8CFE4FFE0CFE4FF8E
:104F3000E46EDACFE4FFE2CFDAFFE9CFE4FFEACFB5
:104F4000E4FFF6CFE4FFF7CFE4FFF5CFE4FFF3CFC4
:104F5000E4FFF4CFE4FFFACFE4FF00EE00F0100E20
:104F6000E80403E3EECFE4FFFBD700EE10F0080EF9
:104F7000E80403E3EECFE4FFFBD7E652D9CFE6FF28
:104F8000E1CFD9FF060EE126F250100B01E1FCD073
:104F9000F250020B01E1F8D0F292620EE66E5FEC85
:104FA0001BF0E552E76E020EE7CFDBFFD950020F90
:104FB000E96EDACFEAFFEF50010B1DE00F015E91C1
:104FC0000201A56BA66B0F015EA315D0480EE66E1D
:104FD0005FEC1BF0E552E76E040EE7CFDBFFD95024
:104FE000040FE96EDACFEAFFEF50010B02E00F0188
:104FF0005E850F015E93D950020FE96EDACFEAFFAA
:10500000EF50080B01E1B0D0050EDB68DF6A020E3D
:10501000DF5C12E2DF50500DF3CFE9FFF4CFEAFF7F
:10502000600EE926000EEA22EF5004E1050EDFCF04
:10503000DBFF02D0DF2AEBD7020EF36E050EDBCFCB
:10504000F4FFF350F45C01E387D0040EE66E730EB8
:10505000E66E3CEC1BF0E552E552E66A030EE66EA6
:105060008DEC1BF0E552E552020FE66E050EDB50AB
:10507000500DF3CFE9FFF4CFEAFF600EE926000EF2
:10508000EA22E552E750EF6E050EDB50500DF3CFEC
:10509000E9FFF4CFEAFF600EE926000EEA22EFCF27
:1050A00018F04F0E185C48E20F015E8B010EDF6EA8
:1050B000050EDB50500DF3CFE9FFF4CFEAFF600E91
:1050C000E926000EEA22EF50020FD880DF542BE3CE
:1050D000DF501B6A000F1A6E030E1B221AC0E6FF78
:1050E0001BC0E6FF8DEC1BF0E552E552E66E050EA7
:1050F000DB50500DF3CFE9FFF4CFEAFF600EE92655
:10510000000EEA22EE52E9CF18F0EACF19F0DF04E0
:105110000F011824E96E000E1920EA6EE552E750DF
:10512000EF6EDF2AC5D7010EE66E1B0EE66E3CEC75
:105130001BF0E552E55208D0010EE66E1B0EE66E3E
:105140003CEC1BF0E552E552E66A730EE66E3CEC71
:105150001BF0E552E55208D0010EE66E1B0EE66E1E
:105160003CEC1BF0E552E552D950020FE96EDACF64
:10517000EAFFEF50100B08E0800EE66E590EE66E67
:105180003CEC1BF0E552E552F2A409D0F2AA07D09C
:10519000F2940201A72BA75102E10201A82B68ECAF
:1051A00030F0060EE15C03E200D0E16AE552E16E08
:1051B000E552E7CFD9FFE55200EE17F0080EE804FC
:1051C00003E3E5CFEDFFFBD700EE0FF0100EE80490
:1051D00003E3E5CFEDFFFBD7E5CFFAFFE5CFF4FF23
:1051E000E5CFF3FFE5CFF5FFE5CFF7FFE5CFF6FF1E
:1051F000E5CFEAFFE5CFE9FFE5CFDAFFE550E5CF00
:08520000E0FFE5CFD8FF10002C
:08520800D9CFE6FFE1CFD9FF89
:105210000A0EE126020EDB68030EDB6A040EDB6A6F
:10522000050EDB6A060EDB6A070EDB6A080EDB6A18
:10523000090EDB6A48EC2FF0E0EC2AF0020EE66E75
:10524000010EE66E17EC33F0E552E552020EE66E03
:10525000020EE66E17EC33F0E552E55274EC32F0D4
:10526000E3EC2FF0000920E1010EE66E53EC0CF0A8
:10527000E552010819E1010EE66E010EE66E17EC2B
:1052800033F0E552E552E80EE66E030EE66EF8ECFA
:1052900030F0E552E552020EE66E010EE66E17ECB6
:1052A00033F0E552E55251D0E66A53EC0CF0E5528A
:1052B000E668E668E668E6680A0EE66EC8EC0EF098
:1052C000106E050EE15E1050E76E010EE7CFDBFFBA
:1052D000010EDBCFE6FF18EC2BF0E552E76E020E75
:1052E000E7CFDBFF020EDB50FF081EE0020EDBCF34
:1052F000E6FF70EC0EF0E552010EE66E010EE66E72
:1053000017EC33F0E552E552640EE66EE66AF8EC0F
:1053100030F0E552E552020EE66E010EE66E17EC35
:1053200033F0E552E55203D052EC2BF0C1D7E66AD8
:105330009AEC0EF0E552010EE66EE66AC4EC0FF050
:10534000E552E552DF6E53EC2BF0E668FEEC08F018
:10535000E5520F01010E106F04009EEC12F00009DF
:1053600011E06FEC2BF0A7EC12F0080EDB2A080E10
:10537000DBCFE6FF070EDBCFE6FF8AEC2CF0E55231
:10538000E55213D1050EDB5003080BE2010EE66E69
:1053900017EC0EF0E552FF00050EDB6A060EDB6A25
:1053A00005D0010EF36E060EF3CFDBFF060EDB50C9
:1053B00001E1FBD0060EDB6AE66A17EC0EF0E5525F
:1053C00059EC30F0030064EC30F0E3EC2FF0E76EC2
:1053D000090EE7CFDBFF010EE66E17EC0EF0E5528B
:1053E000000803E2050EDB2AE0D0050EDB500008C2
:1053F0000AE2080EDBCFE6FF070EDBCFE6FF8AEC02
:105400002CF0E552E552050EDB6AD0B666D00101FC
:105410000B0E4C6F01014C514C2BEA6AB70FE96E31
:10542000010EEA22110EEF6E01014C514C2BEA6A7B
:10543000B70FE96E010EEA22230EEF6E01014C5107
:105440004C2BEA6AB70FE96E010EEA22770EEF6E77
:1054500001014C514C2BEA6AB70FE96E010EEA22AA
:10546000660EEF6E01014C514C2BEA6AB70FE96EE4
:10547000010EEA22550EEF6E01014C514C2BEA6AE7
:10548000B70FE96E010EEA22440EEF6E01014C5196
:105490004C2BEA6AB70FE96E010EEA22330EEF6E6B
:1054A00001014C514C2BEA6AB70FE96E010EEA225A
:1054B000220EEF6E01014C514C2BEA6AB70FE96ED8
:1054C000010EEA22110EEF6EE66AABEC12F0E55225
:1054D000000902E1A4EC2CF068D001010B0E4C6F26
:1054E00001014C514C2BEA6AB70FE96E010EEA221A
:1054F000040EEF6E01014C514C2BEA6AB70FE96EB6
:10550000010EEA22230EEF6E01014C514C2BEA6A88
:10551000B70FE96E010EEA22770EEF6E01014C51D2
:105520004C2BEA6AB70FE96E010EEA22660EEF6EA7
:1055300001014C514C2BEA6AB70FE96E010EEA22C9
:10554000550EEF6E01014C514C2BEA6AB70FE96E14
:10555000010EEA22440EEF6E01014C514C2BEA6A17
:10556000B70FE96E010EEA22330EEF6E01014C51C6
:105570004C2BEA6AB70FE96E010EEA22220EEF6E9B
:1055800001014C514C2BEA6AB70FE96E010EEA2279
:10559000110EEF6EE66AABEC12F0E552000902E183
:1055A000A4EC2CF0DEEC33F00400D6D60A0EE15C5D
:1055B00002E2E16AE552E16EE552E7CFD9FF12005F
:1055C000010EE66EE66AE60EE66E6B0EE66EDBEC4C
:1055D0002FF0E552E552E552E5521200D9CFE6FF31
:1055E000E1CFD9FFFD0EDB5010E1010EE66EFE0E9D
:1055F000DBCFE6FFC60EE66E6B0EE66EDBEC2FF041
:10560000E552E552E552E5520FD0010EE66EFE0E70
:10561000DBCFE6FFA70EE66E6B0EE66EDBEC2FF03F
:10562000E552E552E552E552E552E7CFD9FF1200C7
:10563000D9CFE6FFE1CFD9FF030EE126020EDB68EA
:10564000FE0EDB5000081FE2DF6AFE0EDB50DF5C5F
:105650001AE2010EDB6AF36EDBCFF4FFF350F45C69
:1056600003E2010EDB2AF7D7DF500F0DF3CFE9FF7E
:10567000F4CFEAFF0C0EE926010EEA22020EEFCF6C
:10568000DBFFDF2AE2D7020EDB50106E030EE15C77
:1056900003E200D0E16AE552E16E1050E552E7CF37
:1056A000D9FF12001200010EE66E46CFE6FFA70EEC
:1056B000E66E6B0EE66EDBEC2FF0E552E552E5523E
:1056C000E5521200E66AE66A8A0EE66E6B0EE66E38
:1056D000DBEC2FF0E552E552E552E5521200D9CF4E
:1056E000E6FFE1CFD9FF050EE126DF6A080EE66E80
:1056F000E66A04C1E6FF05C1E6FF000EE66E0F0E86
:10570000E66E1DEC35F0106E060EE15E10500009DD
:1057100001E0F6D001010B0E4C6FDF500101EA6A87
:105720000625E96E0751EA22EF500B0A01E1D4D0B9
:105730000E0A01E194D0010A6EE0070A58E0010A5E
:105740001CE0120A17E01E0A07E0010A01E0C5D0BA
:105750000201010E906FC1D089820201010E916F8A
:10576000F40EE66E010EE66EF8EC30F0E552E5520E
:105770008992B3D00201916BB0D001014C514C2BF6
:10578000EA6AB70FE96E010EEA22020EEF6EE66AD0
:105790008AEC33F0E552B2EC2CF0E2EC2CF0E2ECC7
:1057A0002CF0000901E0FBD734EC2DF0DE52F3CFF2
:1057B000DEFFF4CFDDFFDD52010EE66E8AEC33F042
:1057C000E55201014C514C2BEA6AB70FE96E010E0C
:1057D000EA22020EDBCFEFFF4C514C2BEA6AB70FE7
:1057E000E96E010EEA22010EDBCFEFFF76D0010158
:1057F0004C514C2BEA6AB70FE96E010EEA22030EF8
:10580000EF6E4C514C2BEA6AB70FE96E010EEA229B
:10581000ABC2EFFF62D0030EDB6ADAEC33F0E76E67
:10582000030EE7CFDBFFDB5005E0DEEC33F00201D7
:10583000A06BA16B01014C514C2BEA6AB70FE96ECA
:10584000010EEA22040EEF6E4C514C2BEA6AB70FA0
:10585000E96E010EEA22030EDBCFEFFF3ED0040E0D
:10586000DB6A01014C514C2BEA6AB70FE96E010E5D
:10587000EA22050EEF6E040EDBCF10F010C0E6FF3B
:10588000120EE66E0F0EE66E60EC35F0E552E55254
:10589000E552E7CF10F0F3CF11F0F4CF12F0115032
:1058A000105C000E125417E2040EDB50EA6A120F6D
:1058B000E96E0F0EEA22EF50E66E01014C514C2BBF
:1058C000EA6AB70FE96E010EEA22E552E750EF6E81
:1058D000040EDB2AD0D701D000D0010EE66E000EF8
:1058E000E66E0F0EE66E31EC32F0E552E552F35003
:1058F000E66E16EC13F0E552E552000901E124D8FA
:10590000050EE15C02E2E16AE552E16EE552E7CFA5
:10591000D9FF1200D9CFE6FFE1CFD9FFFD0EDBCFD3
:10592000E6FFFE0EDBCFE6FFD3EC2FF0E552E552AB
:10593000E552E7CFD9FF1200D9CFE6FFE1CFD9FF7B
:10594000E552E7CFD9FF1200010EE66EE66A7A0E45
:10595000E66E6B0EE66EDBEC2FF0E552E552E5529B
:04596000E5521200FA
:0C596400D9CFE6FFE1CFD9FFE652DF6AA1
:1059700092969294938289868984B9D88050040B38
:1059800003E08050080B02E1FF0E17D0D0D8960E2E
:10599000E66E1CD9E552DF12010EE66E17D9E5520C
:1059A000DF12610EE66E12D9E552DF12C5D8DF5064
:1059B00002E0FF0E01D0000E00D0E552E552E7CF25
:1059C000D9FF1200D9CFE6FFE1CFD9FF020EE126C1
:1059D000DF6AADD8960EE66EF9D8E552DF12010EF9
:1059E000E66EF4D8E552DF12A7D8A1D8970EE66E7E
:1059F000EDD8E552DF12010EE66EA5D8E552E76E4E
:105A0000010EE7CFDBFF98D8DF5005E1010EDB5038
:105A10007F0B610802E0FF0E1BD0010EDBBE18D029
:105A200086D8960EE66ED2D8E552DF12010EE66EEB
:105A3000CDD8E552DF12E10EE66EC8D8E552DF128E
:105A40007BD8DF5003E0FF0E03D002D0000E00D061
:105A5000106E020EE15C02E2E16AE552E16E105066
:105A6000E552E7CFD9FF1200D9CFE6FFE1CFD9FF4A
:105A7000030EE126DF6A5BD8960EE66EA7D8E552E4
:105A8000DF12E66AA3D8E552DF1256D850D8970E37
:105A9000E66E9CD8E552DF12E66A55D8E552E76E0D
:105AA000020EE7CFDBFF010EE66E4DD8E552E76E42
