:040000002AEF00F0F3
:0E0008005F82E1CF29F0E2CF2AF099EF08F0F5
:100018005F80D8CF66F0E8CF67F0E0CF68F0F2B243
:10002800F2A801D0F292600E0001E11907E1280E52
:10003800EBEC16F0656FD89065314E6E68C0E0FF46
:1000480067C0E8FF66C0D8FF5F901000D1EF15F0D9
:10005800790E8F6F78D3250E951909E075C0D9FFF1
:1000680076C0DAFF95C0DFFF754B762B6CD3936BA8
:10007800946B966B976B09D0968705D0968103D0C1
:10008800978701D09685774B782B77C0F6FF78C095
:10009800F7FF0800F550200AF1E0030AF1E00E0A24
:1000A800EBE01D0AEFE096B7969577C0F6FF78C0AB
:1000B800F7FF0800F55054EC19F02EE3936B946B9E
:1000C80093C069F094C06AF06C6B0A0E6B6FF1EC28
:1000D80018F069C093F06AC094F0D00E816F8269FD
:1000E80077C0F6FF78C0F7FF0800F550836F846B80
:1000F80081518327825184238351932784519423E8
:10010800774B782B77C0F6FF78C0F7FF0800F550DB
:1001180054EC19F014E3D4D777C0F6FF78C0F7FF92
:100128000800F5502A0A0BE18F51D96EDA6ADECF42
:1001380093F0DDCF94F0020E8F27774B782B77C0A2
:10014800F6FF78C0F7FF0800F5502E0A30E1978DCA
:10015800774B782B77C0F6FF78C0F7FF0800F5508B
:100168002A0A0AE18F51D96EDA6ADF50926F020EBD
:100178008F27774B782B8AD0926B0FD077C0F6FFFA
:1001880078C0F7FF0800F5CF81F092510A0DF350BF
:100198008125D00F926F774B782B77C0F6FF78C008
:1001A800F7FF0800F55054EC19F070E3E7D7926BAD
:1001B8006DD0968D88D0968B968F85D092510FE012
:1001C80092C081F0826B81BF82078D51815D8E5113
:1001D800825905E292518D6F8E6B8DBF8E079351B8
:1001E8008D5D94518E5905E28D51935F8E51945BCC
:1001F80002D0936B946B96B71DD008D075C0D9FF09
:1002080076C0DAFF200EDF6E754B762B9307D8A0E9
:1002180094079329F3E194290DE0F0D78C51D96E16
:10022800DA6A75C0E1FF76C0E2FFDFCFE7FF8C2B0B
:10023800754B762B8D07D8A08E078D29EFE18E2977
:10024800EDE196A780D208D075C0D9FF76C0DAFF55
:10025800200EDF6E754B762B9307D8A09407932951
:10026800F3E1942901E16FD2EFD78F51D96EDA6AA1
:10027800DF50956F020E8F27950E8C6F000E8E6FD4
:10028800010E8D6F9BD7C00E96131DD077C0F6FF59
:1002980078C0F7FF774B782B0800F5CF95F095518C
:1002A80001E15DD2580A87E03B0ADFE0070A0BE06C
:1002B8000D0A09E0060A01E17CD71A0AE4E00D0AF2
:1002C80001E17AD7D9D796C081F0C00E811712E123
:1002D8008F51D96EDA6ADECF90F0DDCF91F0020E41
:1002E8008F2791AF10D0030E9613906D911FD8B041
:1002F800912B09D08F51D96EDA6ADECF90F0DDCF1D
:1003080091F0020E8F27925147E19051911144E1EB
:10031800922B42D0010E956F050E951946E0955126
:10032800020D7B0EF324F66EFD0EF420F76E090025
:10033800F550905D0900F550915937E3952BECD7AE
:10034800010E956F040E951930E09551020D850E3A
:10035800F324F66EFD0EF420F76E0900F550905D5B
:100368000900F550915921E3952BECD7010E956FB3
:10037800060E95191AE09551020D6F0EF324F66ECC
:10038800FD0EF420F76E0900F550905D0900F55058
:1003980091590BE3952BECD79651C00BBBE0400A63
:1003A800E5E0C00ACDE0400AB5E09551800A816FCA
:1003B8009251800A815D03E292C095F009D0925172
:1003C800800A816F9551800A815D02E295C092F0A2
:1003D8009351941108E096C081F0030E811703E051
:1003E8009307D8A0940797AD13D0800E92BF7F0EC5
:1003F800816F9351925D9451800A815907E292511D
:10040800935F000E92BFFF0E945B02D0936B946BC8
:10041800C40E816F080E826F96C083F097C084F077
:100428008151831782518417400E83190AE1080EFF
:10043800841907E19351941124E09307D8A09407F5
:1004480020D0C00E816F080E826F96C083F097C0CF
:1004580084F08151831782518417800E831911E12A
:10046800080E84190EE194BF0AD0945103E1030EDB
:10047800935D05E3FE0E9327FF0E942302D0936B42
:10048800946B800E95BF7F0E816F9351955D94514B
:10049800800A815907E29551935F000E95BFFF0EC0
:1004A800945B02D0936B946B96A54FD096C081F065
:1004B800030E811709E075C0D9FF76C0DAFF2D0E4B
:1004C800DF6E754B762B31D096A106D075C0D9FF5B
:1004D80076C0DAFF200EF4D7C00E816F080E826F47
:1004E80096C083F097C084F0815183178251841796
:1004F800800E83191AE1080E841917E175C0D9FF17
:1005080076C0DAFF300EDF6E754B762B96BB03D0C4
:10051800876B780E02D0876B580E866F75C0D9FF2F
:1005280076C0DAFF86C0DFFFCCD79351941101E182
:10053800F2D075C0D9FF76C0DAFF300EDF6E754B8A
:10054800762B9307D8A09407F0D79351941110E015
:1005580096B70ED075C0D9FF76C0DAFF200EDF6ED1
:10056800754B762B9307D8A0940793519411F2E119
:1005780096C081F0030E811709E075C0D9FF76C0D7
:10058800DAFF2D0EDF6E754B762B08D096A106D0BC
:1005980075C0D9FF76C0DAFF200EF4D7C00E816F80
:1005A800080E826F96C083F097C084F0815183173C
:1005B80082518417400E83190CE1080E841909E151
:1005C80075C0D9FF76C0DAFF300EDF6E754B762B1B
:1005D800A2D0C00E816F080E826F96C083F097C0BC
:1005E80084F08151831782518417800E83191BE18F
:1005F800080E841901E08FD075C0D9FF76C0DAFFE4
:10060800300EDF6E754B762B96BB03D0896B780E58
:1006180002D0896B580E886F75C0D9FF76C0DAFF93
:1006280088C0DFFFD3D777D09251020D7B0EF32419
:10063800F66EFD0EF420F76E0900F5CF6BF00A0098
:10064800F5CF6CF090C069F091C06AF0C6EC16F076
:1006580069C070F06AC071F0736B0A0E726FAEEC0D
:1006680017F0705145D090C069F091C06AF092516E
:10067800020D850EF324F66EFD0EF420F76E0900C8
:10068800F5CF6BF00A00F5CF6CF0C6EC16F06951A7
:100698000F0B856F96BB04D0490E8A6FFF0E03D0EF
:1006A800380E8A6FFF0E8B6F85518A25816F000E79
:1006B8008B21826F81C0F6FF82C0F7FF0800F5CF5B
:1006C80095F022D090C069F091C06AF09251020D65
:1006D8006F0EF324F66EFD0EF420F76E0900F5CFC9
:1006E8006BF00A00F5CF6CF0C6EC16F06951070BF9
:1006F800300F956F09D09651C00B96E0400AE2E0A2
:10070800C00AB1E0400A90E075C0D9FF76C0DAFFB0
:1007180095C0DFFF5BD792079229EDE196B794BFAA
:1007280012D0945102E193050EE375C0D9FF76C04B
:10073800DAFF200EDF6E754B762B9307D8A094074F
:1007480093519411F2E177C0F6FF78C0F7FF774B29
:10075800782B0800F5CF95F0955101E07CD475C051
:10076800D9FF76C0DAFFDF6A000C2CEC16F069C0FE
:1007780089F16AC08AF16BC08BF16CC08CF1DB0E19
:10078800986FFF0E996F9A6B9B6B8FEC17F02CECA0
:1007980016F069C044F06AC045F06BC046F06CC002
:1007A80047F001018951445CE16F8A514558E26F75
:1007B8008B514658E36F8C514758E46FE45108E178
:1007C800810EE15D960EE259980EE35901E262D27C
:1007D800010E0001E76FDEEC19F0020E3AEC15F09D
:1007E800D00E986FFF0E996F9A6B9B6B8FEC17F07A
:1007F800030E6A6FE80E696F05EC10F0000E16EC38
:1008080019F02CEC16F069C08DF16AC08EF16BC03E
:100818008FF16CC090F13ED22CEC16F069C091F1CA
:100828006AC092F16BC093F16CC094F101018D51D3
:10083800915DE16F8E519259E26F8F519359E36F39
:1008480090519459E46FE45107E1410EE15D4B0E7C
:10085800E2594C0EE3590CE371EC15F02CEC16F050
:1008680069C08DF16AC08EF16BC08FF16CC090F1D8
:10087800CBEC19F0000910E0E42BE4C09AF0E65143
:10088800C4EC19F0070E6A6FD00E696F05EC10F012
:10089800897ED5EC19F0B2D1B4EC12F00101EA6FFF
:1008A800EA0504E0020EEA1901E0A8D1EC6B010E9A
:1008B800E96F9DD1DDEC18F00101EC510001F2194E
:1008C8003FE1B80E756F010E766FCC0E776FFE0E96
:1008D800786F0101EC51040D3A0EF324D96E010E24
:1008E800F420DA6EDF500001796F7A6B0101EC5168
:1008F800040D370EF324D96E010EF420DA6EDF50A2
:1009080000017B6F7C6B0101EC51040D380EF32460
:10091800D96E010EF420DA6EDF5000017D6F7E6B18
:100928000101EC51040D390EF324D96E010EF420A7
:10093800DA6EDF5000017F6F806B2CEC00F03ED048
:10094800B80E756F010E766FE50E776FFE0E786F35
:100958000101EC51040D3A0EF324D96E010EF42076
:10096800DA6EDF500001796F7A6B0101EC51040DEA
:10097800370EF324D96E010EF420DA6EDF50000131
:100988007B6F7C6B0101EC51040D380EF324D96E9A
:10099800010EF420DA6EDF5000017D6F7E6B0101DD
:1009A800EC51040D390EF324D96E010EF420DA6EE1
:1009B800DF5000017F6F806B2CEC00F0B80E756F74
:1009C800010E766FE50E776FFE0E786F0101EC5120
:1009D800040D3A0EF324D96E010EF420DA6EDF50BE
:1009E8000001796F7A6B0101EC51040D370EF32485
:1009F800D96E010EF420DA6EDF5000017B6F7C6B3C
:100A08000101EC51040D380EF324D96E010EF420C7
:100A1800DA6EDF5000017D6F7E6B0101EC51040D31
:100A2800390EF324D96E010EF420DA6EDF5000017E
:100A38007F6F806B2CEC00F0C80E756F010E766F1F
:100A48005A0E776FFF0E786F2CEC00F00EEC14F056
:100A5800010EF46FC8D0B4EC12F00101EB6FEB0596
:100A680001E0A2D0E96B0001F46B0101E96BEC51E4
:100A78000001F2191FE1E56BEB6B140EEB6501D079
:100A880012D0710EEB25F66EF76AFC0EF722950E62
:100A9800E525D96EDA6A010EDA220800F5CFDFFF04
:100AA800E52BEB2BEAD7000EA46B08EC18F000013D
:100AB800E62B99D0E56B950EE525D96EDA6A010E1D
:100AC800DA22CC0EDF6EE52B0101EC51040D370E56
:100AD800F324D96E010EF420DA6E950E0001E52597
:100AE800E16EE26A010EE222DFCFE7FFE52B0101AA
:100AF800EC51040D380EF324D96E010EF420DA6E91
:100B0800950E0001E525E16EE26A010EE222DFCFD3
:100B1800E7FFE52B0101EC51040D390EF324D96EE2
:100B2800010EF420DA6E950E0001E525E16EE26A09
:100B3800010EE222DFCFE7FFE52B040EEB6F180E64
:100B4800EB6501D020D0FC0E0101E16FE2690001E4
:100B5800EB510101E36FE46BE151E327E251E42338
:100B6800710EE325F66EFC0EE421F76E950E00017A
:100B7800E525D96EDA6A010EDA220800F5CFDFFF23
:100B8800E52BEB2BDCD7000E4EEC14F00101E86FDF
:100B9800E8518DE1110E0001986FFF0E996F9A6B65
:100BA8009B6B8FEC17F01FD0020EEB191CE1EC5178
:100BB800E16FE26BE369E4690001E8510101E56F67
:100BC800E66BE351E527E451E623E151E55DE651A3
:100BD800800AE76FE251800AE75902E2EC6B01D024
:100BE800EC2B0001F46B0001F45101E034D7010152
:100BF800E90501E15FD6000E16EC19F00001E905E0
:100C08000DE1190E9FEC18F0000E3FEC18F00001F2
:100C1800B96B8EEC0CF0FF0AFAE0E96B2CEC16F0DD
:100C280069C048F06AC049F06BC04AF06CC04BF02C
:100C38004450485C0101E16F45504958E26F465005
:100C48004A58E36F47504B58E46FE1052D0EE259BF
:100C5800310EE359010EE4591DE30001E76BE0ECA6
:100C680019F0000E3AEC15F0B80E986FFF0E996F58
:100C78009A6B9B6B8FEC17F0030E6A6FE80E696F27
:100C880005EC10F048C089F149C08AF14AC08BF1DF
:100C98004BC08CF10001E75101E179D5BDD52CECB1
:100CA80016F02CEC16F0DFA525D02CEC16F069C058
:100CB800B3F06AC0B4F06BC0B5F06CC0B6F0010117
:100CC8007D510001B35DAE6F01017E510001B45941
:100CD800AF6F01017F510001B559B06F010180511B
:100CE8000001B659B16FB151B01103E1400EAF5DCB
:100CF80001E3DF95DFA332D02CEC16F069C0B3F026
:100D08006AC0B4F06BC0B5F06CC0B6F00101855193
:100D18000001B35DAE6F010186510001B459AF6F98
:100D2800010187510001B559B06F010188510001D7
:100D3800B659B16FB15107E1210EAE5DA10EAF59A1
:100D4800070EB0590BE3DF93000E6A6F020E6B6F4C
:100D5800040E6C6F8C0E6D6F8AEC13F00001DFB718
:100D6800120072EC0AF00009D8B41200B26BCC6B16
:100D78003CA403D0AE6BAE2B02D00001AE6BCC51BD
:100D8800AE19FC0BAE19CC6F3CA602D0CC8702D0B2
:100D98000001CC973C50030BE80603E1AE6BAE2B89
:100DA80002D00001AE6BAE3BAE47CC51AE19DF0BA3
:100DB800AE19CC6F3CAE02D0CC8D02D00001CC9DD8
:100DC8003CAE04D03DC0CFF03EC0D0F041C0D3F01F
:100DD8003FC0D1F040C0D2F043C0D5F042C0D4F0FB
:100DE800CCAB95D175D126EC19F092D1020EF565F0
:100DF80001D0F9D720EE01F0D151D926D251DA220B
:100E0800F151DE18F0E1E56B950EE525D96EDA6A49
:100E1800010EDA22970EDF6EE52B950EE525D96EC9
:100E2800DA6A010EDA22DEC0DFFFE52BB86BB851B3
:100E3800F30FD96EDA6A950EE525E16EE26A010EC6
:100E4800E222DFCFE7FFE52BB82BB851F0E026EC24
:100E580019F0CFC096F0D0C097F0010E986F000E31
:100E6800CCB7010E996F000E7FEC11F051D1E56BF4
:100E7800950EE525D96EDA6A010EDA22920EDF6E3A
:100E8800E52BB86BB8510E0D0C0EF324D96E020E7B
:100E9800F420DA6EDFAE35D0CFC069F0D0C06AF08A
:100EA8000001B8510E0D040EF3246B6F020EF420EE
:100EB8006C6F89EC18F0000924E0B8510E0D0C0E87
:100EC800F324D96E020EF420DA6EDF6AB8510E0DE3
:100ED800000EF3246A6F020EF4206B6FB8510E0DEA
:100EE800F350040F6C6F0E0E6D6F8AEC13F0950EB5
:100EF8000001E525D96EDA6A010EDA22DF6AE52BF0
:100F080005D00001B82B090EB865BCD726EC19F03E
:100F18000A0EB81909E1950EE525D96EDA6A010EAF
:100F2800DA22F00EDF6EE52BCFC096F0D0C097F036
:100F3800010E986F000ECCB7010E996F000E7FEC72
:100F480011F0E6D0E7EC0BF0000120EE02F0D151F1
:100F5800D926D251DA22DF50F26FF20E6A6F6B6B2C
:100F6800BB0E6C6F010E6D6F8AEC13F00001DF830E
:100F78002CEC16F069C085F16AC086F16BC087F168
:100F88006CC088F130D720EE01F0D151D926D2516A
:100F9800DA22DF50D7E0010AD5E025D7DFBBDF9B97
:100FA80022D720EE01F0D151D926D251DA22DF50D2
:100FB80001E019D7B86BB8510E0D0C0EF324D96E99
:100FC800020EF420DA6EDFAE2CD0CFC069F0D0C0AC
:100FD8006AF00001B8510E0D040EF3246B6F020E77
:100FE800F4206C6F89EC18F000091BE0B8510E0D65
:100FF8000C0EF324D96E020EF420DA6EDF6AB851B3
:101008000E0D000EF3246A6F020EF4206B6FB851B8
:101018000E0DF350040F6C6F0E0E6D6F8AEC13F00B
:10102800E2D60001B82B090EB865C5D7DCD620EE8C
:1010380001F0D151D926D251DA22F151DE1801E05E
:10104800D2D620EE02F0D151D926D251DA22DF5081
:10105800D5EC10F0C8D6F65101E0C5D6010EEC6FFC
:10106800C2D6F65101E0BFD620EE01F0D151D92603
:10107800D251DA22DF50AE6FAE05E86FD1C070F002
:10108800D2C071F02EEC0FF0AED6F65101E1ABD61E
:10109800D1C069F0D2C06AF068EC12F0B76FB72916
:1010A8000DE0D1C0A6F0D2C0A7F0B7C0A8F0CFC05D
:1010B800A9F0D0C0AAF01BEC12F0B26FB25101E156
:1010C80092D6CFC0A0F0D0C0A1F0C9EC18F08BD652
:1010D800D1C0D9FFD2C0DAFFDF50770AC2E0F60AE2
:1010E80001E181D6030A01E1C2D6060AA0E0030A9B
:1010F80001E17CD6160A01E146D7030A01E151D77E
:10110800050A01E14BD75B0AC0E0160AA4E0DF87B5
:10111800DFB5DFA701D0DF95D35104E0DFB902D0F6
:10112800DFAB1200DF9726EF19F0D9CF2BF0DACF1B
:101138002CF0F3CF2DF0F4CF2EF0F0B0F0A6A6D11E
:10114800600E0001E11901E09DD14EC0E2F0899ADC
:10115800000EBCEC19F0396E898A3A6A3A50390D9A
:101168008C0EF324D96E020EF420DA6E0201DFA091
:1011780004D03A2A010E3A64F1D7020E391803E175
:10118800010E366E01D0366A370E396007D03950F5
:1011980005E0010E3A6412D0365010E11A0E10EC38
:1011A80017F008D0899A000EBCEC19F0898A1A0E3B
:1011B80010EC17F0316E31B2F5D766D1376A39C005
:1011C8002FF0306A5BD12F06D8A03006365009E0E0
:1011D800899A3750320FD96EDA6A000EBCEC19F0D2
:1011E80017D0899A3A50390D8C0E256E020E266E4C
:1011F800252A000E2622F3502526F45026223750A1
:101208002524D96E000E2620DA6E000EBCEC19F0EB
:10121800DF6E372A898A3950375C01E22FD1365080
:1012280024E03250030B020A08E14F50331801E062
:101238002BD1010E0001EA6F27D1010E3A6401D0CB
:10124800ADD73A50390D8D0EF324D96E020EF42025
:10125800DA6E32C0DFFF3A50390D8E0EF324D96EA4
:10126800020EF420DA6E33C0DFFF3A50390DC40E97
:10127800F324D96E020EF420DA6E39C0DFFF386825
:101288003A50390D8D0EF324D96E020EF420DA6E21
:10129800DFAC33D03B6A28D03B50D725D96E000E3F
:1012A800D821DA6E3A50390D8C0E266E020E276E52
:1012B800030E2626000E2722F3502626F450272256
:1012C8003B502624E16E000E2720E26EDE50E61821
:1012D8000AE03A50390DC40EF324D96E020EF420F8
:1012E800DA6EDF6A5BD73B2A0001D631E832E83292
:1012F8000F0B256E25503B5CCFE33A50390D8D0E10
:10130800F324D96E020EF420DA6E0201DFAA34D07B
:101318003B6A000E3B24D96EDA6A010EDA223B5092
:10132800320FE16EE26ADFCFE7FF3B2A010E3B6432
:10133800F0D7060E0101006F3A50390D8E0EF324D6
:10134800D96E020EF420DA6EDF50016FF090116A48
:10135800020EBAEC0DF03B6A3B50320FD96EDA6AD6
:10136800000E3B24E16EE26A010EE222DFCFE7FFC6
:101378003B2A010E3B64F0D73B6A3B50060D5F0EDB
:10138800F324D96E010EF420DA6EDF5026E03A50CD
:10139800390D8E0EF324D96E020EF420DA6E3B500E
:1013A800060D600EF324E16E010EF420E26EDE50AD
:1013B800E61813E17AEC16F03B50060D610EF324A3
:1013C800D96E010EF420DA6E01C0DEFF02C0DEFF26
:1013D80003C0DEFF04C0DEFF12D038280CE13B500A
:1013E800060D5F0EF324D96E010EF420DA6EDF507D
:1013F80002E13BC038F03B2A040E3B64BED7040E22
:101408003B6442D0050E38602ED03850060D5F0E72
:10141800F324D96E010EF420DA6E010EDF6E3A5015
:10142800390D8E0EF324D96E020EF420DA6E385080
:10143800060D600EF324E16E010EF420E26EDFCF9C
:10144800E7FF7AEC16F03850060D610EF324D96EDA
:10145800010EF420DA6E01C0DEFF02C0DEFF03C019
:10146800DEFF04C0DEFF3A50390D8C0EF324D96E2E
:10147800020EF420DA6E0201DF8006D02F50301001
:1014880003E0A1D6010EDB6FF09000F0F2B2F2A8F3
:101498000CD0F292600E0001E11907E1280E10EC61
:1014A80017F0256ED89025304E6E9EB09DA006D0C0
:1014B8009E90502A505002E10001ED2BE5EC19F006
:1014C8002EC0F4FF2DC0F3FF2CC0DAFF2BC0D9FFCC
:1014D8002AC0E2FF29C0E1FF5F921100806B2CEC6B
:1014E80016F069C07BF06AC07CF06BC07DF06CC000
:1014F8007EF08051060D5F0EF324D96E010EF420A4
:10150800DA6EDF503FE08051060D610EF324D96E8C
:10151800010EF420DA6E7B51DE5C7C51DE587D5181
:10152800DE587E51DE582EE28051060D610EF324FE
:10153800D96E010EF420DA6EDECF73F0DECF74F0D0
:10154800DECF75F0DECF76F073517B5D776F745127
:101558007C59786F75517D59796F76517E597A6FBC
:101568007A5107E1210E775DA10E7859070E795956
:1015780009E38051060D5F0EF324D96E010EF420A5
:10158800DA6EDF6A802B040E8065A9D7E32901E0B3
:10159800000C806B8051390D8C0EF324D96E020E2D
:1015A800F420DA6EDFA055D000018051390D8D0E80
:1015B800F324D96E020EF420DA6EDF503C6E8051AF
:1015C800390DC40EF324D96E020EF420DA6EDF5002
:1015D800416E020E7F6F3CAC05D0D631E832E8325E
:1015E8000F0B7F273CAE19D08051390D8C0E736FCD
:1015F800020E746F732B000E7423F3507327F4508C
:1016080074237F5173253D6E000E74213E6ED631D2
:10161800E832E8320F0B7F2702D03D6A3E6A7F51DD
:10162800415E8051390D8C0E736F020E746F732BEF
:10163800000E7423F3507327F45074237F517325DD
:101648003F6E000E7421406EE2C042F080C0E3F0AD
:10165800010C0001802B010E80659CD7000C7B6F6C
:10166800FEEC12F0DF6B7B5129E17F6B7F510E0D91
:101678000C0EF324D96E020EF420DA6EDF6A7F5165
:101688000E0D040EF324D96E020EF420DA6EDF6A12
:101698007F510E0D050EF324D96E020EF420DA6E7A
:1016A800DF6A7F510E0D060EF324D96E020EF42068
:1016B800DA6EDF6A7F2B090E7F65D8D7E56B7F6B03
:1016C8007F2B090E7F65FCD77B513CE0F10E6A6FDA
:1016D8006B6B020E6C6F010E6D6F59EC18F01F0EDC
:1016E800F16501D01F0CF50E6A6F6B6B030E6C6F02
:1016F800010E6D6F59EC18F0000E6A6F020E6B6FD9
:10170800040E6C6F8C0E6D6F59EC18F0F60E6A6F44
:101718006B6BB80E6C6F010E6D6F59EC18F0F20E12
:101728006A6F6B6BBB0E6C6F010E6D6F59EC18F026
:10173800F00E6A6F6B6BBA0E6C6F010E6D6F59EC21
:1017480018F01ED0F10E6A6F6B6B020E6C6F010EF3
:101758006D6F8AEC13F0F50E00016A6F6B6B030E68
:101768006C6F010E6D6F8AEC13F0000E00016A6F4A
:10177800020E6B6F040E6C6F8C0E6D6F8AEC13F09B
:10178800D90E00017D6F010E7E6F7C837C51870B23
:1017980040097C6F7BB102D07C9502D000017C852A
:1017A8007C917CC077F07DC078F07EC079F0CEEC7B
:1017B80011F0F1519FEC18F00001DE6BF539F00BD8
:1017C800DE13F086120000017669776B77510E0DF3
:1017D8000C0EF324D96E020EF420DA6EDFAE14D0AC
:1017E800CFC069F0D0C06AF0000177510E0D040E29
:1017F800F3246B6F020EF4206C6F89EC18F000096B
:1018080008E077C076F009D00001762902E177C0B8
:1018180076F0772B090E7765D9D7762901E1120082
:10182800F55101E01200776B7751CF25D96E000E84
:10183800D021DA6E76510E0D000E716F020E726FA6
:10184800040E7127000E7223F3507127F45072238F
:1018580077517125E16E000E7221E26EDFCFE7FF4E
:10186800772B070E7765E0D776510E0D0C0EF32413
:10187800D96E020EF420DA6EDF8E000120EE02F03F
:10188800D151D926D251DA22DF50716F010E71176A
:1018980076510E0D0C0EF324D96E020EF420DA6E7A
:1018A800DF507119FE0B7119DF6E776B7751D125F7
:1018B800716F000ED221726F030E7125D96E000E62
:1018C8007221DA6E76510E0D000E736F020E746F70
:1018D8000D0E7327000E7423F3507327F4507423EE
:1018E80077517325E16E000E7421E26EDFCFE7FFBA
:1018F800772B7751DBE076C0DCF0DF9953EC16F0FC
:10190800F06FF00E6A6F6B6BBA0E6C6F010E6D6F35
:101918008AEF13F0F5C0BEF00A0EBF6FC46B2CEC53
:1019280016F0B90501E1FF0C2CEC16F069C0C0F007
:101938006AC0C1F06BC0C2F06CC0C3F0200EC05FBB
:10194800A10EC15B070EC25B000EC35BF56BDF899E
:1019580074D02CEC16F069C0C5F06AC0C6F06BC034
:10196800C7F06CC0C8F0C051C55DBA6FC151C65947
:10197800BB6FC251C759BC6FC351C859BD6FBD5168
:1019880007E1210EBA5DA10EBB59070EBC594FE302
:10199800C5C0C0F0C6C0C1F0C7C0C2F0C8C0C3F05F
:1019A800C407C4294AE1010EC46FBF07BF2902E179
:1019B800DF99FF0CE56B950EE525D96EDA6A010E05
:1019C800DA22810EDF6EE52B950EE525D96EDA6AEF
:1019D800010EDA22F1C0DFFFE52B950EE525D96E61
:1019E800DA6A010EDA22DEC0DFFFE52B950EE52567
:1019F800D96EDA6A010EDA22AA0EDF6EE52BC96B00
:101A0800C951F30FD96EDA6A950EE525E16EE26ADF
:101A1800010EE222DFCFE7FFE52BC92BC951F0E029
:101A2800966B976B010E986F996B7FEC11F0CBEC6E
:101A380019F0000902E0D5EC19F0DFB98AD7BEC069
:101A4800F5F0DC5112008B6F030E0001876F87D011
:101A5800886BEA6B866B795118E0280EA1EC16F0BA
:101A6800896FD8908933410E89650FD0862B8605FA
:101A78007A6F040E7A6501D0000C010E696F6A6BEB
:101A88006B6B6C6B9CEC0FF0E8D7F298F096200E1D
:101A98008DEC14F01A0E6B6FC90E6A6F31EC17F0EB
:101AA80000018B51CDEC17F000018C6B0BD0000EB0
:101AB8008C25D96EDA6A010EDA22DF50CDEC17F0E8
:101AC80000018C2B8B518C5DF2E3800E8DEC14F0B1
:101AD800F288F086DB5102E1F0A0FCD7DB6B200E28
:101AE8008DEC14F0600E8DEC14F0010100AB0ED0FB
:101AF80001C14FF02CEC16F069C07EF06AC07FF08F
:101B08006BC080F06CC081F0EA5104E0010E000166
:101B18008A6F2AD02CEC16F069C082F06AC083F074
:101B28006BC084F06CC085F07E51825D7A6F7F5106
:101B380083597B6F805184597C6F815185597D6FA2
:101B48007D517C1105E1A90E7A5D610E7B59DCE3BC
:101B5800882B88057A6F040E7A6101D07AD78707B7
:101B6800872901E075D78A6B8A511200166E030E19
:101B7800216E85D0226A0001EA6B206A115018E0B4
:101B8800280E10EC17F0236ED8902332410E2364F0
:101B98000FD0202A2004126E040E126401D0040C07
:101BA800010E016E026A036A046A6DEC10F0E8D750
:101BB800F298F096200E01EC15F01A0E036EC90E7D
:101BC800026EEBEC17F0165024EC18F0246A0AD0D9
:101BD800000E2424D96EDA6A010EDA22DF5024ECD2
:101BE80018F0242A1650245CF3E3800E01EC15F05B
:101BF800F288F0860001DB5102E1F0A0FBD7DB6B35
:101C0800200E01EC15F0600E01EC15F0010100AB9F
:101C18000ED001C14FF07AEC16F001C018F002C0E6
:101C280019F003C01AF004C01BF0EA5103E0010EDA
:101C3800176E010C7AEC16F001C01CF002C01DF002
:101C480003C01EF004C01FF018501C5C126E19501F
:101C58001D58136E1A501E58146E1B501F58156EBF
:101C68001550141005E1A90E125C610E1358DDE33E
:101C7800222A2204126E040E126001D07CD721069B
:101C8800212801E077D7176A1200230E926501D048
:101C9800000C8DB503D0936B932B02D00001936B8E
:101CA800933B934793478D519319BF0B93198D6FAE
:101CB8008D8F8D51030BE80601E18D8F8DC000F1EA
:101CC800DDC001F1DD2B020E946F8DAD1AD0956B3E
:101CD80010D095518E25D96E000E8F21DA6E000E28
:101CE8009425E16EE26A010EE222DFCFE7FF942B32
:101CF800952BD631E832E8320F0B936F9351955DEF
:101D0800E8E38DAF1AD0956B10D09551D725D96ED1
:101D1800000ED821DA6E000E9425E16EE26A010EFB
:101D2800E222DFCFE7FF942B952BD631E832E83259
:101D38000F0B936F9351955DE8E3956B10D0955118
:101D48009025D96E000E9121DA6E000E9425E16E71
:101D5800E26A010EE222DFCFE7FF942B952B925126
:101D6800955DEDE3000ED6B3010E796F945127EF20
:101D78000DF08C8E8D9000016A6B080E696F05EC72
:101D880010F08D806A6B500E696F05EC10F0300E04
:101D9800AAEC19F000016A6B080E696F05EC10F0E7
:101DA800300EAAEC19F000016A6B010E696F05ECA0
:101DB80010F0300EAAEC19F000016A6B010E696F81
:101DC80005EC10F0390EAAEC19F000016A6B010E4F
:101DD800696F05EC10F0140EAAEC19F000016A6B9B
:101DE800010E696F05EC10F0560EAAEC19F000010F
:101DF8006A6B010E696F05EC10F06D0EAAEC19F014
:101E080000016A6B010E696F05EC10F0700EAAEC08
:101E180019F000016A6B010E696F05EC10F00E0EE7
:101E2800AAEC19F000016A6B010E696F05EC10F05D
:101E3800060EAAEC19F000016A6B010E696F05EC39
:101E480010F0010EAAEC19F000016A6B280E696FF8
:101E580005EF10F0040E756F75C072F0030E72175F
:101E680061E17551726F736B030E7227000E732355
:101E780073BF05D0735156E1230E725D53E275515D
:101E88007025726F000E7121736F030E7225D96E63
:101E9800000E7321DA6EDF50746F7451040D3A0E20
:101EA800F324D96E010EF420DA6E74C0DFFF755189
:101EB8007025D96E000E7121DA6E7451040D370E3B
:101EC800F324E16E010EF420E26EDFCFE7FF7551D7
:101ED8007025726F000E7121736F7229D96E000E12
:101EE8007321DA6E7451040D380EF324E16E010E7D
:101EF800F420E26EDFCFE7FF75517025726F000E98
:101F08007121736F020E7225D96E000E7321DA6E7D
:101F18007451040D390EF324E16E010EF420E26EC3
:101F2800DFCFE7FF752B220E756596D7A1EF15F069
:101F380069C06DF06AC06EF06BC06FF06CC070F075
:101F4800280E6D03F3CF71F0F4CF72F0736B746BDE
:101F58006E03F3507227F4507323000E74236D033D
:101F6800F3507227F4507323000E7423280E6F0366
:101F7800F3507327F4507423000E6E03F350732745
:101F8800F4507423000E6D03F3507327F450742338
:101F9800280E7003F3507427000E6F03F350742754
:101FA800000E6E03F3507427000E6D03F350742770
:101FB80071C075F072C076F073C077F074C078F0B5
:101FC800510E7527FF0E76237723782378BFFF0CF1
:101FD8007851771176110CE12E0E755D09E2120029
:101FE80000F0D60E00017527FF0E7623772378239D
:101FF80078BF1200785177117611F2E17505F0E299
:10200800120069516B6F6A516C6F6D6B6E6BA00E2D
:102018006B03F3CF6FF0F4CF70F0716B726B6C03DE
:10202800F3507027F4507123000E72230F0E6B03C8
:10203800F3507027F4507123000E7223A00E6D0325
:10204800F3507127F45072230F0E6C03F35071276D
:10205800F4507223000E6B03F3507127F45072236F
:10206800A00E6E03F35072270F0E6D03F350722704
:10207800000E6C03F3507227000E6B03F3507227A7
:102088006FC073F070C074F071C075F072C076F0F4
:10209800560E7327FF0E74237523762376BFFF0C25
:1020A8007651751174110CE1C40E735D09E21200CA
:1020B80000F0D90E00017327FF0E742375237623D1
:1020C80076BF1200765175117411F2E17305F0E2D2
:1020D800120001C005F002C006F003C007F004C0FA
:1020E80008F0280E0502F3CF09F0F4CF0AF00B6AC6
:1020F8000C6A0602F3500A26F4500B22000E0C223A
:102108000502F3500A26F4500B22000E0C22280E6A
:102118000702F3500B26F4500C22000E0602F3506F
:102128000B26F4500C22000E0502F3500B26F45037
:102138000C22280E0802F3500C26000E0702F3505A
:102148000C26000E0602F3500C26000E0502F35072
:102158000C2609C00DF00AC00EF00BC00FF00CC021
:1021680010F0510E0D26FF0E0E220F22102210BE67
:10217800FF0C10500F100E100BE12E0E0D5C08E234
:10218800120000F0D60E0D26FF0E0E220F2210228E
:1021980010BE120010500F100E10F3E10D04F1E202
:1021A8001200AC6F0001AD6B2CEC16F069C0A4F006
:1021B8006AC0A5F06BC0A6F06CC0A7F02CEC16F0B6
:1021C80069C0A8F06AC0A9F06BC0AAF06CC0ABF0F7
:1021D800A451A85DA06FA551A959A16FA651AA59EC
:1021E800A26FA751AB59A36FA35107E1E10EA05D00
:1021F800C10EA159030EA259E1E3E56B950EE52541
:10220800D96EDA6A010EDA22840EDF6EE52B950E9E
:10221800E525D96EDA6A010EDA22F1C0DFFFE52B77
:10222800950EE525D96EDA6A010EDA22ACC0DFFF19
:10223800E52B966B976B010E986F996B7FEC11F0FD
:10224800AD2B020EAD65B0D7AC519FEF18F0780EEC
:10225800D36E9B8CC090550EA76EAA0EA76E0E016A
:10226800FF91110EE76F170EFB6F0A0EDB6F090E59
:10227800D96F550EA76EAA0EA76EFF81FC0E0F012F
:10228800486F1F0E496F8B94899C899E9494929CE9
:10229800929E93829384F19E92829280898A8C8204
:1022A800929A95929380948CF18AF18CF292F288AA
:1022B800F090F086938A949E9398C00EC76E210E74
:1022C800C66E8C9095808C8A959A8D8496948D9202
:1022D8008C8E8C968D909692959E95969690958CD0
:1022E80095949598736A310E726EA49EBDEC0EF0AB
:1022F800F28EF28C12009C6F00019D6B985103E0E6
:102308009A6B9A2B02D000019A6B9D519A19FC0B7B
:102318009A199D6F9C5103E19A6B9A2B02D0000188
:102328009A6B9A3B9A479D519A19DF0B9A199D6FA0
:102338009CB102D09D9502D000019D8599B102D033
:102348009D9702D000019D879C5103E19A6B9A2BBF
:1023580002D000019A6B9A3B9A479A479D519A1965
:10236800BF0B9A199D6F9D8F96C09EF097C09FF0E6
:102378009DC08DF09EC08EF09FC08FF0950E906F1F
:10238800010E916FE5C092F049EC0EF09B6FE56B82
:102398009B51120077C0D6F078C0D7F079C0D8F03A
:1023A8006A6B140E696F05EC10F08C82898AD6CF9F
:1023B800DDF0E3697A6B7A51390D8C0EF324D96E0E
:1023C800020EF420DA6EDF6A7A2B010E7A65F3D7F3
:1023D8007A6B7A51020DEF0EF324F66EFC0EF420A0
:1023E800F76E0900F5CF6AF00A00F5CF6BF031EC13
:1023F80017F000017A2B1F0E7A65EBD7200E8DECB3
:1024080014F06B6B560E6A6F31EC17F0400E8DECC2
:1024180014F01C0E6B6F0F0E6A6F31EC17F0600E24
:102428008DEC14F0F292F288F090F0861200E56BD1
:10243800A9C0D9FFAAC0DAFF950EE525E16EE26AC8
:10244800010EE222DFCFE7FFE52B20EE01F0A951D4
:10245800D926AA51DA22950EE525E16EE26A010E27
:10246800E222DFCFE7FFE52B20EE02F0A951D926C3
:10247800AA51DA22950EE525E16EE26A010EE22202
:10248800DFCFE7FFE52B030EAC6FAC51A625D96E65
:10249800000EA721DA6E950EE525E16EE26A010EBF
:1024A800E222DFCFE7FFE52BAC2B220EAC65EDD7A0
:1024B800A46BA85108EC18F00001AB6FAB5102E116
:1024C8008FEC19F0AB5112006D6B42D06D510E0DAF
:1024D8000C0EF324D96E020EF420DA6EDFAE36D07D
:1024E80000016D510E0D040EF324D96E020EF42076
:1024F800DA6E10EE01F06951E1266A51E222DE50EF
:10250800E61824E16D510E0D050EF324D96E020E66
:10251800F420DA6E10EE02F06951E1266A51E222E7
:10252800DE50E61813E16D510E0D060EF324D96E38
:10253800020EF420DA6E10EE03F06951E1266A51BA
:10254800E222DE50E61802E16D51120000016D2B07
:10255800F0516D5DBBE3F0516D19D8B4FF0E120058
:1025680081B210D00001E05144E1010EE06F2CEC83
:1025780016F069C081F16AC082F16BC083F16CC04A
:1025880084F1010C81B410D00001E05132E1010E58
:10259800E06F2CEC16F069C081F16AC082F16BC063
:1025A80083F16CC084F1020C2CEC16F069C077F052
:1025B8006AC078F06BC079F06CC07AF00101815183
:1025C8000001775D736F0101825100017859746FC2
:1025D8000101835100017959756F0101845100018E
:1025E8007A59766F7651751103E1400E745D01E3F7
:1025F800E06B000C010E00016E6FD96BDA6B6A6B31
:10260800020E696FEE0E6B6F72EC18F06E176A6B44
:10261800010E696F550E6B6F72EC18F06E176A6BCE
:10262800010E696F510E6B6F72EC18F06E176A6BC2
:102638008C0E696F530E6B6F72EC18F06E176A6B25
:10264800040E696F590E6B6F72EC18F06E176A6B97
:10265800010E696F570E6B6F72EC18F06E176A6B8C
:10266800010E696F5B0E6B6F72EC18F06E176A6B78
:10267800010E696F5D0E6B6F72EC18F06E17120029
:10268800716F1F0E0001716501D0000C0C0E6B6F8D
:10269800640E6A6F31EC17F02F0E00017125F66E8B
:1026A800F76AFD0EF7220800F5CF70F0000E7011E2
:1026B8006A6F0E0E6B6F31EC17F04F0E000171252B
:1026C800F66EF76AFD0EF7220800F5CF70F0000EDF
:1026D80070116A6F100E6B6F31EC17F0200E8DECD5
:1026E80014F06B6B560E6A6F31EC17F0400E8DECE0
:1026F80014F01C0E6B6F0F0E6A6F31EC17F0200E82
:102708008DEC14F0600E8DEC14F0010C000EF0B698
:10271800010E6F6FF0968C9A050E70EC19F0D0ECE4
:1027280019F00001706F8C8AE2EC19F0000170B1A9
:10273800F2D78C9A060E70EC19F08C8AE2EC19F03C
:102748008C9A020E70EC19F000016C5170EC19F0C3
:102758000001706B16D06AC0D9FF6BC0DAFFDF507A
:1027680070EC19F000016A4B6B2B6D07702B6C51E4
:1027780070256E6F0F0E6E1704E18C8A70516C27EE
:10278800CAD76D51E8E18C8A6FB102D0F09601D0BA
:10279800F0861200726B72516E5D706F000E6F5989
:1027A800716F070E70256A6F000E71216B6F725181
:1027B800FA0F6C6F010E6D6F59EC18F0722B020E48
:1027C8007265E9D720EE04F06E51D9266F51DA22EE
:1027D800DF6820EE03F06E51D9266F51DA22FE0E23
:1027E800DF6E726B72516E5D706F000E6F59716F94
:1027F800020E70256A6F000E71216B6F7251FD0F0A
:102808006C6F010E6D6F59EC18F0722B020E726529
:10281800E9D7020C800EAAEC19F000016B6BB80E18
:102828006B25D96EDA6A010EDA22DF5004E1200E38
:10283800A1EC19F009D0B80E6B25D96EDA6A010E31
:10284800DA22DF50A1EC19F000016B2B0F0E6B653B
:10285800E6D7C00EAAEC19F0100E00016B6FB80E87
:102868006B25D96EDA6A010EDA22DF5004E1200EF8
:10287800A1EC19F009D0B80E6B25D96EDA6A010EF1
:10288800DA22DF50A1EC19F000016B2B1F0E6B65EB
:10289800E6D71F0CC56F0001EC6B040E966F020E95
:1028A800976F010E986FC5C099F0000E7FEC11F07C
:1028B8002CEC16F069C0BDF06AC0BEF06BC0BFF06A
:1028C8006CC0C0F022D02CEC16F069C0C1F06AC010
:1028D800C2F06BC0C3F06CC0C4F0CBEC19F0BD51B2
:1028E800C15DB96FBE51C259BA6FBF51C359BB6FF1
:1028F800C051C459BC6FBC51BB1105E1510EB95D43
:10290800C30EBA5902E3EC0502E1EC51DCE0EC51EC
:10291800120000016E6F2CD06B6B960E6A6F31EC53
:1029280017F0800E0001E16F800C6B6B760E6A6FFA
:1029380031EC17F0600E0001E16F600C6B6B560E06
:102948006A6F31EC17F0400E0001E16F400C6B6BC1
:10295800360E6A6F31EC17F0200E0001E16F200C83
:102968006B6B160E6A6F31EC17F00001E16B120009
:1029780000016E51F5E0200AEAE0600ADFE0200A73
:10298800D4E0E00AC9E01200CA6FD90E00016E6FE8
:10299800010E6F6FCEEC13F0CA5103E0010E33EF56
:1029A8000BF0899C899E000E33EC0BF0190E9FECFE
:1029B80018F0000901E1190C000E3FEC18F0000EA8
:1029C80000019D6F190E70EC17F0B96B8EEC0CF0CE
:1029D800EB6FEB2906E0010E9D6F190E70EC17F0F6
:1029E800F66BF60E6A6F6B6BB80E6C6F010E6D6F3F
:1029F8008AEC13F0898C98EF19F0066E2CD0036AD4
:102A0800960E026EEBEC17F0800E0001E16F800C61
:102A1800036A760E026EEBEC17F0600E0001E16FB0
:102A2800600C036A560E026EEBEC17F0400E0001C4
:102A3800E16F400C036A360E026EEBEC17F0200EC5
:102A48000001E16F200C036A160E026EEBEC17F022
:102A58000001E16B12000650F6E0200AEBE0600A84
:102A6800E0E0200AD5E0E00ACAE01200B96F2DD0F4
:102A7800DFA30CD0000E6A6F020E6B6F040E6C6F32
:102A88008C0E6D6F8AEC13F00001DF93000E00ECE2
:102A980016F00009D8A4DF811200FF0E00EC16F032
:102AA8000009D8A4DF911200FF0E00EC16F000090F
:102AB80001E11200DF9171EC15F0000903E1120049
:102AC80053EC06F0DFA51200FBD70001B951D0E0A6
:102AD800010AE3E0030AE8E01200E5C0A0F095C1AE
:102AE800A1F00001E56B950EE525D96EDA6A010EB5
:102AF800DA22040EDF6EE52B040E966F020E976F36
:102B0800010E986F000E996B7FEC11F0000910E030
:102B1800DF852CEC16F069C07DF16AC07EF16BC0D0
:102B28007FF16CC080F1A1C095F1A0C0E5F0010C67
:102B3800A1C095F1A0C0E5F0000CF651D8A4120090
:102B48006F6B18D06F51040D370EF324D96E010E38
:102B5800F420DA6E0101D951DE180AE100016F5143
:102B6800040D380EF324D96E010EF420DA6EDE500F
:102B780000016F2BE851696F6A6B692B000E6A239D
:102B88006F516B6F6C6B69516B5D6C51800A6D6F27
:102B98006A51800A6D59D6E3120002EE00F0FE0E6B
:102BA800EE6AE806FDE101EE00F0E10EEE6AE806E5
:102BB800FDE100EECCF0270EEE6AE806FDE100EE3E
:102BC8003CF0230EEE6AE806FDE1B00EF66E330E19
:102BD800F76E000EF86E00EEF3F010EE04F0090048
:102BE800F5CFEEFFE550E150FAE15F905F92000EFD
:102BF800F86E000136EF19F00001776F22D0000E51
:102C08008DEC14F0F298F096010C200E8DEC14F077
:102C1800600E8DEC14F0F288F0866A6B0A0E696F0C
:102C280005EC10F0786B7851060D5F0EF324D96E21
:102C3800010EF420DA6EDF6A782B040E7865F3D77C
:102C4800010C00017751DBE0FF0AD8A4000CDDD7A6
:102C58009D900001716B726B6E6BCECF6FF0CFCF12
:102C680070F06F2908E1702906E16E2B6E056D6F13
:102C7800020E6D65F2D79EA004D0712B502801E199
:102C8800722B50507127ED5172279D806FC069F0EB
:102C980070C06AF071C06BF072C06CF01200696BA2
:102CA8006A6B6A510E0D040EF324D96E020EF420DD
:102CB800DA6EDF5014E16A510E0D050EF324D96E59
:102CC800020EF420DA6EDF500AE16A510E0D060E8C
:102CD800F324D96E020EF420DA6EDF5001E0692B7E
:102CE8006A2B090E6A65DDD7695112009D90096A41
:102CF8000A6A066ACECF07F0CFCF08F0072808E1A6
:102D0800082806E1062A0604056E020E0564F2D7B5
:102D18009EA004D0092A502801E10A2A5050092609
:102D28000001ED510A269D8007C001F008C002F09D
:102D380009C003F00AC004F0120000016A6F000E17
:102D4800F0B6010E6C6F000EF2B8010E6D6FF298BE
:102D5800F0968C926A8D6A5186EC19F0000E86EC1A
:102D680019F000016B6F8C826CB102D0F09601D023
:102D7800F08600016DB102D0F29801D0F28800010E
:102D88006B5112006E6B6F6B6B516C111BE0010E77
:102D98006D6F04D0D8906B376C376D2B6CAFFAD74A
:102DA800D8906E376F376B51695D6C516A5905E37E
:102DB8006B51695F6C516A5B6E81D8906C336B3371
:102DC8006D2FEED76EC069F06FC06AF01200616FA8
:102DD800000EF0B6010E0001636F000EF2B8010E8E
:102DE800646FF298F0968C92618D6151B3EC19F092
:102DF800000EB3EC19F00001626F8C8263B102D04F
:102E0800F09601D0F086000164B102D0F29801D0AA
:102E1800F288000162511200026E000EF0B6010E37
:102E2800046E000EF2B8010E056EF298F0968C92C0
:102E3800028C0250BCEC19F0000EBCEC19F0036EC9
:102E48008C8204B002D0F09601D0F08605B002D092
:102E5800F29801D0F28803501200000EF0B6010E6D
:102E68006C6F000EF2B8010E6D6FF298F0968C92AE
:102E78006B5186EC19F000016A5186EC19F08C82CE
:102E880000016CB102D0F09601D0F08600016DB15E
:102E980002D0F29801D0F2881200996FDDEC18F098
:102EA800B80E756F010E766F8C0E776FFF0E786F08
:102EB80099C079F07A6B98C07BF07C6B2CEC00F0B1
:102EC800C80E756F010E766F9C0E776FFF0E786FC8
:102ED8002CEC00F00EEF14F09E6F00019D510BE1F9
:102EE800E00E986FFD0E996F9EC09AF0010E9B6FD1
:102EF8008FEC17F00AD0200E986FFE0E996F9EC0C7
:102F08009AF0010E9B6F8FEC17F0030E6A6FE80EB4
:102F1800696F05EF10F0DDEC18F0B80E756F010E53
:102F2800766F98C077F099C078F09AC079F07A6B8C
:102F38002CEC00F00EEC14F09B51D8B412009C6BF2
:102F48006A6BFA0E696F05EC10F09C2B070E9C65F6
:102F5800F7D7070C7251731117E0010E746F04D084
:102F6800D89072377337742B73AFFAD77251705D7C
:102F78007351715904E37251705F7351715BD8904A
:102F880073337233742FF2D770C070F071C071F060
:102F980012006A6F000EF0B6010E00016B6F000E92
:102FA800F2B8010E6C6FF298F096899A6A5186EC25
:102FB80019F0898A00016BB102D0F09601D0F08631
:102FC80000016CB102D0F29801D0F2881200000E14
:102FD800F0B6010E046E000EF2B8010E056EF298FE
:102FE800F0968C920350BCEC19F00250BCEC19F02E
:102FF8008C8204B002D0F09601D0F08605B002D0E1
:10300800F29801D0F2881200A56F0001A5510E0DAB
:103018000C0EF324D96E020EF420DA6E0201DFAE34
:10302800000C0001A5510E0D040EF324A06F020E32
:10303800F420A16F010EA26FA4C0A3F07CEF19F0D9
:10304800026E000EF0B6010E036E000EF2B8010E0D
:10305800046EF298F096899A0250BCEC19F0898AAD
:1030680003B002D0F09601D0F08604B002D0F298F6
:1030780001D0F28812000001726F030E726501D050
:10308800030C72C0F5F0F5C071F0713BF00E7117CA
:10309800DE510F0B7111DE6FF50E6A6F6B6B030E4D
:1030A8006C6F010E6D6F8AEF13F08C9A030E70EC43
:1030B80019F000016C5170EC19F00BD0D0EC19F03C
:1030C8006AC0D9FF6BC0DAFFDF6E00016A4B6B2B59
:1030D8006D0700016D51F2E18C8A12006951D92502
:1030E8006C6F6A51DA216D6F6C05800E6D5901E3C2
:1030F800000C6B51D96EDA6AD9C0DEFFDAC0DDFF89
:103108006951D9276A51DA23010C6F6B6F516B250E
:10311800D96E000E6C21DA6E6F516925E16E000ED2
:103128006A21E26EDE50E61801E0000C6F2B070EF4
:103138006F65ECD7010C726F00016F6B725144EC34
:1031480013F000090CE072C0F1F0F10E6A6F6B6BBE
:10315800020E6C6F010E6D6F8AEC13F0010C000CFF
:1031680069C06FF06AC070F008D06FC0D9FF70C036
:10317800DAFF6BC0DFFF6F4B702B6D07D8A06E07AF
:103188006D29F3E16E29F1E11200E56B950EE52555
:10319800D96EDA6A010EDA22DA0EDF6EE52BA0C0EC
:1031A80096F0A1C097F0010E986F000E996B7FEF13
:1031B80011F0010EAAEC19F000016A6B020E696F9A
:1031C80005EC10F0B80E696F010E6A6F6C6B200E7B
:1031D8006B6F6E6B6D6FB4EF18F069516B03F3CFC3
:1031E8006DF0F4CF6EF069516C03F3506E276A519D
:1031F8006B03F3506E276DC069F06EC06AF0120061
:103208007A0E986FFE0E996F9A6B9B6B8FEC17F086
:10321800B4EC12F09D6F9D0501E1000C020E9D19A2
:10322800F7E1010C00019D6F9D5104E0BF0E986FFE
:10323800FD0E03D0000E986FFE0E996F9A6B9B6B74
:103248008FEF17F0020E0001E361020CE351390D14
:103258008C0EF324D96E020EF420DA6E000EDF6AAB
:10326800E36912002BEC11F063EC19F045EC19F04E
:1032780004EC19F0CB6FCB51C8EC14F0DCEC19F06E
:10328800FDD73F0E986FFE0E996F9A6B010E9B6FDC
:103298008FEC17F0050E6A6FDC0E696F05EF10F002
:1032A8006B6F00016A6B3A0E6B6105D02F0E6B6570
:1032B80002D0010E6A6F6AC069F069311200380ED7
:1032C800CD6E9A6ACF6ACE6ACECF4CF0CFCF4DF092
:1032D8009E909D80DAEF19F00001696FA49E729E9E
:1032E80069C075FF72BEFBD7A4AEFED7A49E1200BC
:1032F800A0C096F0A1C097F0000E986BA3C099F0FB
:103308007FEF11F00001696FC69E69C0C9FFC7A0B1
:10331800FED7C95012007C0E986FFF0E996F9A6BFA
:10332800010E9B6F8FEF17F05D0E0001986FFE0E78
:10333800996F9A6B9B6B8FEF17F06A6F8C9E8C86D8
:1033480000016A5170EC19F08C8E120000016A6F4E
:103358008C9E8C966A5170EC19F08C8E12000001CC
:10336800606FC69E60C0C9FFC7A0FED7C9501200D3
:10337800016EC69E01C0C9FFC7A0FED7C950120082
:103388009B6F9AC098F000019B5151EF17F053ECD6
:1033980006F0DFB7010C000C000E70EC19F0755048
:1033A8001200DF9726EF19F001010301CD8012000A
:1033B800B9EF03F08D8212008D92120000F0120016
:0433C80012001200DD
:10FC70000020B2202020B22020B220B2202020205C
:10FC800020B220B20D0AB220B220B220B220202031
:10FC9000B22020B22020B220200D0AB22020B220B3
:10FCA00020B220B220B22020B22020B220B20D0A11
:10FCB000B22020B22020B220B22020B220B220B246
:10FCC0002020B20D0AB22020B22020B220B2202083
:10FCD00020B220B2202020B20D0A20202020202097
:10FCE000202020202020202020202020200D0A3627
:10FCF000008402090409060C08C10A7D0C640E1474
:10FD0000100012001400163818C81A0D1C001E72BC
:10FD1000203822382407260028002A692C812E7ECC
:10FD2000309632F83488364038003AE83C003E4F8E
:10FD30004F4F4F4F4F4F4F4F4F4F4F4F4F4F4F4FD3
:10FD40004F4F4F4F4F5050505050505050505022E6
:10FD50002426282A2C2E30323437393B3D3F41436C
:10FD600045474A4C4E0507090B0D0F111416180193
:10FD7000000800400000020010008001000A00643A
:10FD800000E803102701001000000100100D0A0D0B
:10FD90000A436F6E6E656374696F6E2020202020A9
:10FDA000506565724C6F6E67416464726573732051
:10FDB0002020202050656572496E666F0D0A005044
:10FDC00043203A535731206F72205357322020740A
:10FDD0006F2042726F616443617374206D736700BA
:10FDE000436F6E6E656374696E672050656572203F
:10FDF000206F6E204368616E6E656C202564200064
:10FE0000535731203A20556E696361737420202066
:10FE1000535732203A204E657874204E6F64650047
:10FE200020436F6E6E656374656420506565722053
:10FE3000206F6E204368616E6E656C2025640053F0
:10FE4000696D706C65205354415220202020204D54
:10FE5000524638395841204E6F646531005357314E
:10FE60003A2042726F616463617374202053573289
:10FE70003A20556E6963617374005357313A4E6589
:10FE800077204E6574776F726B205357323A467203
:10FE900065657A65720042726F6164636173742094
:10FEA0005061636B657420776974682052535349BD
:10FEB0002000556E6963617374205061636B6574D3
:10FEC0002077697468205253534920005242303AD7
:10FED000253032642D253032782530327825303285
:10FEE000782D6D65005242303A253032642D253030
:10FEF00032782530327825303278002041646472BF
:10FF00006573733A2530327825303278253032786F
:10FF100000446174615F53656E64696E675F46613A
:10FF2000696C2121000D0A0D0A4D7920416464722B
:10FF30006573733A203078003031323334353637D8
:10FF40003839414243444546003031323334353646
:10FF5000373839616263646566005242323A204341
:10FF600068616E6765206E6F64650044617461202E
:10FF70005061636B65742066726F6D0020556E6909
:10FF800063617374204661696C65640054583A2556
:10FF90003364202C2052583A253364004D65737326
:10FFA00061676520436F756E74002020202020203B
:10FFB0002020202020202000536C656570696E672A
:10FFC0002121210020204368616E6E656C3A20007B
:10FFD000576F6B6520557021212100536C6565704A
:10FFE000696E672121005365637572656420002086
:08FFF00066726F6D2000000035
:08FFF800ACF5DAFBFFF9FFF1A3
:00000001FF
