:04000000E1EF01F03B
:100008005582E1CF4FF0E2CF50F0D9CF51F0DACF9F
:1000180052F0F3CF53F0F4CF54F0F0B4F0AAB4D1C7
:10002800600E271801E0ABD1280EC5EC1CF04B6E12
:10003800D8904B30286E28C0CFF08B94000E5DEC22
:100048001EF000016A6F8B846B6B6B51390D8C0E3F
:10005800F324D96E020EF420DA6EDFA005D0000179
:100068006B2B010E6B65F1D7020E00016A1903E1D3
:10007800010E676F01D0676B370E6A6107D06A514E
:1000880005E0010E6B6513D0675111E11A0EC5EC3E
:100098001CF008D08B94000E5DEC1EF08B841A0EB9
:1000A800C5EC1CF00001626F62B3F4D76BD1686BCA
:1000B8006AC060F0616B5FD16007D8A061076751C3
:1000C80009E08B946851630FD96EDA6A000E5DEC13
:1000D8001EF017D08B946B51390D8C0E4B6E020E9F
:1000E8004C6E4B2A000E4C22F3504B26F4504C22F7
:1000F80068514B24D96E000E4C20DA6E000E5DEC70
:100108001EF0DF6E0001682B8B846A51685D01E286
:1001180032D1675123E06351030B020A07E12B50E8
:10012800641901E02FD1010ED86F2CD1010E6B6537
:1001380001D0ACD76B51390D8D0EF324D96E020E58
:10014800F420DA6E63C0DFFF6B51390D8E0EF32495
:10015800D96E020EF420DA6E64C0DFFF6B51390DE0
:10016800C40EF324D96E020EF420DA6E6AC0DFFFE3
:1001780069696B51390D8D0EF324D96E020EF42086
:10018800DA6EDFAC33D000016C6B28D06C51C4251B
:10019800D96E000EC521DA6E6B51390D8C0E4C6E7E
:1001A800020E4D6E030E4C26000E4D22F3504C26C7
:1001B800F4504D226C514C24E16E000E4D20E26E3D
:1001C800DE50E6180AE06B51390DC40EF324D96EDF
:1001D800020EF420DA6EDF6A59D76C2BC331E8328D
:1001E800E8320F0B4B6E4B506C5DD0E300016B5146
:1001F800390D8D0EF324D96E020EF420DA6EDFAAC3
:1002080037D06C6B000E6C25D96EDA6A010EDA22D3
:100218006C51630FE16EE26ADFCFE7FF6C2B010ED2
:100228006C65F0D7060E0101006F00016B51390DA6
:100238008E0EF324D96E020EF420DA6EDF5001011F
:10024800016FF094376A020EB6EC11F000016C6B86
:100258006C51630FD96EDA6A000E6C25E16EE26AA2
:10026800010EE222DFCFE7FF6C2B010E6C65F0D7A1
:1002780000016C6B6C51060D5F0EF324D96E010EF4
:10028800F420DA6EDF5026E06B51390D8E0EF32420
:10029800D96E020EF420DA6E6C51060D600EF3244E
:1002A800E16E010EF420E26EDE50E61813E1BCECBC
:1002B8001AF06C51060D610EF324D96E010EF4206C
:1002C800DA6E2DC0DEFF2EC0DEFF2FC0DEFF30C08D
:1002D800DEFF12D069290CE16C51060D5F0EF32484
:1002E800D96E010EF420DA6EDF5002E16CC069F0BD
:1002F8006C2B040E6C65BED7040E6C6543D0050EDE
:1003080069612ED06951060D5F0EF324D96E010E76
:10031800F420DA6E010EDF6E6B51390D8E0EF32468
:10032800D96E020EF420DA6E6951060D600EF324C0
:10033800E16E010EF420E26EDFCFE7FFBCEC1AF0AD
:100348006951060D610EF324D96E010EF420DA6EA0
:100358002DC0DEFF2EC0DEFF2FC0DEFF30C0DEFF67
:100368006B51390D8C0EF324D96E020EF420DA6E1F
:100378000201DF8007D06051611104E09DD6010EB3
:100388000001C86FF09400F09EB09DA006D09E902A
:100398002C2A2C5002E10001DC2B42EC1EF054C048
:1003A800F4FF53C0F3FF52C0DAFF51C0D9FF50C069
:1003B800E2FF4FC0E1FF5592110005EF19F07D0EE5
:1003C800936F78D3250E991909E079C0D9FF7AC0BF
:1003D800DAFF99C0DFFF794B7A2B6CD3976B986B58
:1003E8009A6B9B6B09D09A8705D09A8103D09B871B
:1003F80001D09A857B4B7C2B7BC0F6FF7CC0F7FF36
:100408000800F550200AF1E0030AF1E00E0AEBE0DB
:100418001D0AEFE09AB79A957BC0F6FF7CC0F7FFFC
:100428000800F550EDEC1DF02EE3976B986B97C024
:100438006DF098C06EF0706B0A0E6F6F42EC1DF095
:100448006DC097F06EC098F0D00E856F86697BC03E
:10045800F6FF7CC0F7FF0800F550876F886B855161
:1004680087278651882387519727885198237B4B64
:100478007C2B7BC0F6FF7CC0F7FF0800F550EDEC45
:100488001DF014E3D4D77BC0F6FF7CC0F7FF08004B
:10049800F5502A0A0BE19351D96EDA6ADECF97F04C
:1004A800DDCF98F0020E93277B4B7C2B7BC0F6FFA9
:1004B8007CC0F7FF0800F5502E0A30E19B8D7B4B7E
:1004C8007C2B7BC0F6FF7CC0F7FF0800F5502A0A9A
:1004D8000AE19351D96EDA6ADF50966F020E9327BC
:1004E8007B4B7C2B8AD0966B0FD07BC0F6FF7CC0F1
:1004F800F7FF0800F5CF85F096510A0DF3508525D2
:10050800D00F966F7B4B7C2B7BC0F6FF7CC0F7FF30
:100518000800F550EDEC1DF070E3E7D7966B6DD051
:100528009A8D88D09A8B9A8F85D096510FE096C075
:1005380085F0866B85BF86079151855D92518659F6
:1005480005E29651916F926B91BF92079751915D19
:100558009851925905E29151975F9251985B02D058
:10056800976B986B9AB71DD008D079C0D9FF7AC01D
:10057800DAFF200EDF6E794B7A2B9707D8A0980701
:100588009729F3E198290DE0F0D79051D96EDA6AEE
:1005980079C0E1FF7AC0E2FFDFCFE7FF902B794B0C
:1005A8007A2B9107D8A092079129EFE19229EDE1E2
:1005B8009AA780D208D079C0D9FF7AC0DAFF200E76
:1005C800DF6E794B7A2B9707D8A098079729F3E124
:1005D800982901E16FD2EFD79351D96EDA6ADF50CB
:1005E800996F020E9327990E906F000E926F010E6D
:1005F800916F9BD7C00E9A131DD07BC0F6FF7CC0AD
:10060800F7FF7B4B7C2B0800F5CF99F0995101E15E
:100618005DD2580A87E03B0ADFE0070A0BE00D0AC3
:1006280009E0060A01E17CD71A0AE4E00D0A01E1B3
:100638007AD7D9D79AC085F0C00E851712E19351A1
:10064800D96EDA6ADECF94F0DDCF95F0020E9327EB
:1006580095AF10D0030E9A13946D951FD8B0952BB3
:1006680009D09351D96EDA6ADECF94F0DDCF95F0D8
:10067800020E9327965147E19451951144E1962B28
:1006880042D0010E996F050E991946E09951020D55
:10069800E50EF324F66EFA0EF420F76E0900F55015
:1006A800945D0900F550955937E3992BECD7010E65
:1006B800996F040E991930E09951020DEF0EF32449
:1006C800F66EFA0EF420F76E0900F550945D0900F5
:1006D800F550955921E3992BECD7010E996F060E29
:1006E80099191AE09951020DD90EF324F66EFA0EF3
:1006F800F420F76E0900F550945D0900F5509559FE
:100708000BE3992BECD79A51C00BBBE0400AE5E00C
:10071800C00ACDE0400AB5E09951800A856F96512C
:10072800800A855D03E296C099F009D09651800A47
:10073800856F9951800A855D02E299C096F09751BC
:10074800981108E09AC085F0030E851703E0970713
:10075800D8A098079BAD13D0800E96BF7F0E856FEB
:100768009751965D9851800A855907E29651975F8F
:10077800000E96BFFF0E985B02D0976B986BC40E65
:10078800856F080E866F9AC087F09BC088F08551E8
:10079800871786518817400E87190AE1080E8819AD
:1007A80007E19751981124E09707D8A0980720D01F
:1007B800C00E856F080E866F9AC087F09BC088F0C0
:1007C8008551871786518817800E871911E1080E01
:1007D80088190EE198BF0AD0985103E1030E975D7E
:1007E80005E3FE0E9727FF0E982302D0976B986BB0
:1007F800800E99BF7F0E856F9751995D9851800A39
:10080800855907E29951975F000E99BFFF0E985BD3
:1008180002D0976B986B9AA54FD09AC085F0030EBB
:10082800851709E079C0D9FF7AC0DAFF2D0EDF6E8F
:10083800794B7A2B31D09AA106D079C0D9FF7AC0EA
:10084800DAFF200EF4D7C00E856F080E866F9AC0A7
:1008580087F09BC088F08551871786518817800ECE
:1008680087191AE1080E881917E179C0D9FF7AC0EB
:10087800DAFF300EDF6E794B7A2B9ABB03D08B6B85
:10088800780E02D08B6B580E8A6F79C0D9FF7AC068
:10089800DAFF8AC0DFFFCCD79751981101E1F2D077
:1008A80079C0D9FF7AC0DAFF300EDF6E794B7A2B28
:1008B8009707D8A09807F0D79751981110E09AB7E2
:1008C8000ED079C0D9FF7AC0DAFF200EDF6E794BDF
:1008D8007A2B9707D8A0980797519811F2E19AC0F8
:1008E80085F0030E851709E079C0D9FF7AC0DAFFD1
:1008F8002D0EDF6E794B7A2B08D09AA106D079C0DD
:10090800D9FF7AC0DAFF200EF4D7C00E856F080E23
:10091800866F9AC087F09BC088F0855187178651EB
:100928008817400E87190CE1080E881909E179C06B
:10093800D9FF7AC0DAFF300EDF6E794B7A2BA2D05E
:10094800C00E856F080E866F9AC087F09BC088F02E
:100958008551871786518817800E87191BE1080E65
:10096800881901E08FD079C0D9FF7AC0DAFF300E3C
:10097800DF6E794B7A2B9ABB03D08D6B780E02D041
:100988008D6B580E8C6F79C0D9FF7AC0DAFF8CC096
:10099800DFFFD3D777D09651020DE50EF324F66E1C
:1009A800FA0EF420F76E0900F5CF6FF00A00F5CFC4
:1009B80070F094C06DF095C06EF008EC1BF06DC03F
:1009C80074F06EC075F0776B0A0E766FB2EC1BF0A0
:1009D800745145D094C06DF095C06EF09651020DDB
:1009E800EF0EF324F66EFA0EF420F76E0900F5CF39
:1009F8006FF00A00F5CF70F008EC1BF06D510F0B8B
:100A0800896F9ABB04D0630E8E6FFF0E03D0520E0F
:100A18008E6FFF0E8F6F89518E25856F000E8F2187
:100A2800866F85C0F6FF86C0F7FF0800F5CF99F0FE
:100A380022D094C06DF095C06EF09651020DD90E7B
:100A4800F324F66EFA0EF420F76E0900F5CF6FF076
:100A58000A00F5CF70F008EC1BF06D51070B300F52
:100A6800996F09D09A51C00B96E0400AE2E0C00A9B
:100A7800B1E0400A90E079C0D9FF7AC0DAFF99C0A6
:100A8800DFFF5BD796079629EDE19AB798BF12D09A
:100A9800985102E197050EE379C0D9FF7AC0DAFFD1
:100AA800200EDF6E794B7A2B9707D8A098079751BD
:100AB8009811F2E17BC0F6FF7CC0F7FF7B4B7C2BE3
:100AC8000800F5CF99F0995101E07CD479C0D9FF9D
:100AD8007AC0DAFFDF6A000C6EEC1AF06DC0B4F071
:100AE8006EC0B5F06FC0B6F070C0B7F06EEC1AF01B
:100AF8006DC0B9F06EC0BAF06FC0BBF070C0BCF08A
:100B0800F05120E01F50B95DAB6F2050BA59AC6F5F
:100B18002150BB59AD6F2250BC59AE6F810EAB5DF1
:100B2800D10EAC59F00EAD59080EAE592AE316ECA9
:100B38001AF0B9C01FF0BAC020F0BBC021F0BCC089
:100B480022F01FD01B50B95DAB6F1C50BA59AC6F67
:100B58001D50BB59AD6F1E50BC59AE6FAE5107E169
:100B6800710EAB5D380EAC59390EAD590AE345EC40
:100B78001CF0B9C01BF0BAC01CF0BBC01DF0BCC053
:100B88001EF01B50B45DAB6F1C50B559AC6F1D50B7
:100B9800B659AD6F1E50B759AE6FAE5107E1710E21
:100BA800AB5D380EAC59390EAD590CE3F0510AE083
:100BB80074EC0BF0B4C01BF0B5C01CF0B6C01DF04F
:100BC800B7C01EF0CDA32DD06EEC1AF06DC0AFF0FB
:100BD8006EC0B0F06FC0B1F070C0B2F01750AF5D2A
:100BE800AB6F1850B059AC6F1950B159AD6F1A505E
:100BF800B259AE6FAE5107E1910EAB5DD00EAC5954
:100C0800030EAD590EE3CD93000E6E6F020E6F6F9B
:100C1800DFC070F0E0C071F0736B8C0E726FF7EC90
:100C280014F00001CDB7120065EC0EF00009D8B43D
:100C38001200B36B016A0BA403D0AB6BAB2B02D0D1
:100C48000001AB6B0150AB19FC0BAB19016E0BA685
:100C580002D0018601D001960B50030BE80604E18F
:100C68000001AB6BAB2B02D00001AB6BAB3BAB47CE
:100C78000150AB19DF0BAB19016E0BAE02D0018C22
:100C880001D0019C0BAE04D00CC004F00DC005F0DF
:100C980010C008F00EC006F00FC007F012C00AF02E
:100CA80011C009F001AA86D263D20001F0510AE00E
:100CB800BF6B20EE01F00650D9260750DA22EE511C
:100CC800DE1803E0CEEC1DF077D2030EF219FAE03D
:100CD80026EC0FF0BF6F20EE03F00650D926075020
:100CE800DA22AA0EDE181EE1BD6B090EBD6501D021
:100CF80019D004C06DF005C06EF0BD510E0D040E84
:100D0800F3246F6F020EF420706FDCEC1CF0000906
:100D180007E0870EBD25D96EDA6A010EDA22DF6890
:100D2800BD2BE3D7F20507E1BF0505E0020EBF19A9
:100D380002E0F30EBF6FD26B9D0ED225D96EDA6A30
:100D4800010EDA22910EDF6ED22B9D0ED225D96EBE
:100D5800DA6A010EDA22BFC0DFFFD22B9D0ED22540
:100D6800D96EDA6A010EDA22CBC0DFFFD22BBF516F
:100D780002E0BF051BE19D0ED225D96EDA6A010E8D
:100D8800DA22CCC0DFFFD22BC06BC0510FE1C051BB
:100D9800F10FD96EDA6A9D0ED225E16EE26A010E74
:100DA800E222DFCFE7FFD22BC02BEFD7CEEC1DF02E
:100DB80004C094F005C095F0010E966F000E01B6C0
:100DC800010E976F000EA8EC14F074EC0BF0BF51F5
:100DD80001E0F2D1C9510E0D000EF3246E6F020E20
:100DE800F4206F6FC9510E0DDF51F324706FE0517D
:100DF800F420716F736B0E0E726FF7EC14F0DCD188
:100E0800020E0001F26501D05DD720EE01F0065018
:100E1800D9260750DA22EE51DE1801E053D7D26BFB
:100E28009D0ED225D96EDA6A010EDA22970EDF6E90
:100E3800D22B9D0ED225D96EDA6A010EDA22CCC0E9
:100E4800DFFFD22BC06BC0510FE1C051F10FD96E3B
:100E5800DA6A9D0ED225E16EE26A010EE222DFCF48
:100E6800E7FFD22BC02BEFD7CEEC1DF004C094F0D7
:100E780005C095F0010E966F000E01B6010E976F32
:100E8800000EA8EC14F098D10001D26B9D0ED2256B
:100E9800D96EDA6A010EDA22920EDF6ED22BC06B9F
:100EA800090EC06501D046D0C0510E0D0C0EF324BA
:100EB800D96E020EF420DA6EDFAE39D004C06DF0C0
:100EC80005C06EF00001C0510E0D040EF3246F6FC3
:100ED800020EF420706FDCEC1CF0000928E0C05111
:100EE8000E0D0C0EF324D96E020EF420DA6EDF6AB2
:100EF800C0510E0D000EF3246E6F020EF4206F6FBA
:100F0800C0510E0DDF51F324706FE051F420716F62
:100F1800736B0E0E726FF7EC14F09D0E0001D22564
:100F2800D96EDA6A010EDA22DF6AD22B03D0000109
:100F3800C02BB6D7CEEC1DF00A0EC01909E19D0EE4
:100F4800D225D96EDA6A010EDA22F00EDF6ED22BC4
:100F580004C094F005C095F0010E966F000E01B61E
:100F6800010E976F000EA8EC14F026D126EC0FF0B6
:100F780020EE02F00650D9260750DA22DF50EF6F34
:100F8800EF0E6E6F6F6BEBC070F0ECC071F0736BAF
:100F9800010E726FF7EC14F00001CD836EEC1AF0BD
:100FA8006DC017F06EC018F06FC019F070C01AF05D
:100FB80089D620EE01F00650D9260750DA22DF50F4
:100FC800D5E0010AD3E07ED60001CDBBCD9B7AD611
:100FD80020EE01F00650D9260750DA22DF5001E052
:100FE80071D60001C06B090EC06501D06BD6C05127
:100FF8000E0D0C0EF324D96E020EF420DA6EDFAE5D
:1010080030D004C06DF005C06EF00001C0510E0D67
:10101800040EF3246F6F020EF420706FDCEC1CF0EA
:1010280000091FE0C0510E0D0C0EF324D96E020EFC
:10103800F420DA6EDF6AC0510E0D000EF3246E6FD5
:10104800020EF4206F6FC0510E0DDF51F324706F44
:10105800E051F420716F736B0E0E726FF7EC14F0A1
:1010680031D60001C02BBFD70001F05101E02AD6CC
:10107800010EDB6F27D60001F05101E023D620EEE8
:1010880001F00650D9260750DA22DF50AB6FAB05C6
:10109800D76F06C074F007C075F0B8EC12F012D61E
:1010A8000001F05101E10ED606C06DF007C06EF0E8
:1010B800DFEC15F0B86FB8290DE006C0A4F007C042
:1010C800A5F0B8C0A6F004C0A7F005C0A8F092EC3F
:1010D80015F0B36FB35101E1F5D504C09EF005C01A
:1010E8009FF007EC1DF0EED50001F05101E1EAD5C3
:1010F800BE6B090EBE6501D0E5D504C0D9FF05C099
:10110800DAFFBE510E0D040EF324E16E020EF42038
:10111800E26EDE50E6182AE120EE01F00450D926EE
:101128000550DA22BE510E0D050EF324E16E020EB3
:10113800F420E26EDE50E61819E120EE02F00450C9
:10114800D9260550DA22BE510E0D060EF324E16EA3
:10115800020EF420E26EDE50E61808E17D0EBE2590
:10116800D96EDA6A010EDA22DF2AACD5BE2BC1D7D6
:1011780006C0D9FF07C0DAFFDF50770A01E17BD745
:101188000D0AB2E0FB0A01E190D5030A01E17CD621
:10119800050A01E135D6160A01E10BD7030A01E178
:1011A80017D7050A01E110D75B0A01E179D7160ABA
:1011B80001E15AD70001CD87085005E00001CDB9FB
:1011C80002D0CDAB12000001CD97CEEF1DF06EEC32
:1011D8001AF06DC095F16EC096F16FC097F170C0AE
:1011E80098F1010ED66F77D2E3EC1AF0000901E00E
:1011F80023D275EC16F00301156F150504E0020EF5
:10120800151901E019D20001F05137E0D26BD96B02
:10121800140ED96501D026D0060E6D6FD4511BEC83
:101228001DF0150DDB0E03010C6FF90E0D6FF35059
:101238000C27F4500D230001D95103010C27000E8F
:101248000D230CC3F6FF0DC3F7FF9D0E0001D22539
:10125800D96EDA6A010EDA220800F5CFDFFFD22B49
:10126800D92BD6D7D42B000E2EEC1EF0D1C09EF071
:10127800D32BD35165EC1EF0DFD10301176B010EA0
:101288000001D56F0301146FD3D1FCEC1DF00301ED
:1012980017510001EF193FE1C00E796F010E7A6F07
:1012A800630E7B6FFE0E7C6F03011751040D3A0E1F
:1012B800F324D96E010EF420DA6EDF5000017D6F41
:1012C8007E6B03011751040D370EF324D96E010EFE
:1012D800F420DA6EDF5000017F6F806B0301175135
:1012E800040D380EF324D96E010EF420DA6EDF50A7
:1012F8000001816F826B03011751040D390EF3242D
:10130800D96E010EF420DA6EDF500001836F846B12
:10131800E3EC01F03ED0C00E796F010E7A6FDA0E61
:101328007B6FFE0E7C6F03011751040D3A0EF324F8
:10133800D96E010EF420DA6EDF5000017D6F7E6BEE
:1013480003011751040D370EF324D96E010EF42052
:10135800DA6EDF5000017F6F806B03011751040DB7
:10136800380EF324D96E010EF420DA6EDF50000136
:10137800816F826B03011751040D390EF324D96E66
:10138800010EF420DA6EDF500001836F846BE3EC0A
:1013980001F0C00E796F010E7A6FDA0E7B6FFE0EC8
:1013A8007C6F03011751040D3A0EF324D96E010E18
:1013B800F420DA6EDF5000017D6F7E6B0301175158
:1013C800040D370EF324D96E010EF420DA6EDF50C7
:1013D80000017F6F806B03011751040D380EF32451
:1013E800D96E010EF420DA6EDF500001816F826B36
:1013F80003011751040D390EF324D96E010EF420A0
:10140800DA6EDF500001836F846BE3EC01F0D00EDD
:10141800796F010E7A6F740E7B6FFF0E7C6FE3ECB1
:1014280001F018EC1EF0010E0001D56FFDD075EC2F
:1014380016F00301166FE3EC1AF00301160501E03C
:10144800D4D0146B0001D56B030117510001EF19BB
:1014580033E1D26BD96B140ED96501D026D0060EB4
:101468006D6FD4511BEC1DF0150DDB0E03010C6FD5
:10147800F90E0D6FF3500C27F4500D230001D951CC
:1014880003010C27000E0D230CC3F6FF0DC3F7FF55
:101498009D0E0001D225D96EDA6A010EDA22080003
:1014A800F5CFDFFFD22BD92BD6D7000EA26B29ECB4
:1014B8001CF00001D32B89D0D26B9D0ED225D96E9A
:1014C800DA6A010EDA22CC0EDF6ED22B0301175135
:1014D800040D370EF324D96E010EF420DA6E9D0E3A
:1014E8000001D225E16EE26A010EE222DFCFE7FFBA
:1014F800D22B03011751040D380EF324D96E010EB7
:10150800F420DA6E9D0E0001D225E16EE26A010E2A
:10151800E222DFCFE7FFD22B03011751040D390E6A
:10152800F324D96E010EF420DA6E9D0E0001D22547
:10153800E16EE26A010EE222DFCFE7FFD22B040E52
:10154800D96F180ED96501D02FD0FC0E03010C6F8E
:101558000D69060E00016D6FD4511BEC1DF0150DC1
:10156800DB0E03010E6FF90E0F6FF3500E27F450C8
:101578000F230001D95103010E27000E0F230C5130
:101588000E270D510F230EC3F6FF0FC3F7FF9D0E55
:101598000001D225D96EDA6A010EDA220800F5CFE9
:1015A800DFFFD22BD92BCDD7000E2BEC16F0030181
:1015B800136F135101E07DD7060E00019C6FFF0EDB
:1015C8009D6F9E6B9F6B73EC1BF0D1C09EF0D35147
:1015D80065EC1EF0050E00016E6FDC0E6D6F26ECDB
:1015E80013F0F051BEEC1DF01FD0020E16191CE1CD
:1015F80017510C6F0D6B0E690F690001D75103016C
:10160800106F116B0E5110270F5111230C51105DE3
:101618001151800A126F0D51800A125902E2176B9C
:1016280001D0172B0001D56B0001D55101E0FFD681
:101638000301140501E129D60001DA5106E0F05151
:1016480004E1C16BD8EC0FF0DA6B6EEC1AF06DC0E8
:1016580099F16EC09AF16FC09BF170C09CF10101C5
:101668009551995D03010C6F010196519A59030137
:101678000D6F010197519B5903010E6F010198519C
:101688009C5903010F6F0F5107E1710E0C5D380E65
:101698000D59390E0E591FE30001F0511CE0FCEC06
:1016A8001DF0C00E796F010E7A6F400E7B6FFF0E32
:1016B8007C6FEDC07DF07E6BE3EC01F018EC1EF062
:1016C800070E00016E6FD00E6D6F26EC13F0D66B0F
:1016D800010EBEEC1DF00001D65101E085D51200C7
:1016E800ED51040D040EF326000EF422F4BE05D0CD
:1016F800F45006E1230EF35C03E2010EA66F27D037
:10170800ED51040D040EF3246D6F000EF4206E6F7E
:10171800706B230E6F6FC9EC18F06D51A66FED5109
:10172800040D040EF326000EF422F350F4100FE01B
:10173800ED51040D040EF3246D6F000EF4206E6F4E
:10174800706B230E6F6FAEEC19F06D51A627A86B66
:10175800CCD0D26B9D0ED225D96EDA6A010EDA2270
:10176800770EDF6ED22B9D0ED225D96EDA6A010E66
:10177800DA22EDC0DFFFD22BA851070D9D0ED2252E
:10178800D96EDA6A010EDA22F3CFDFFFD22BA8294D
:10179800070D9D0ED225D96EDA6A010EDA22F3CF33
:1017A800DFFFD22B040EA56FA851070DF3CFA9F0C8
:1017B80067D0ED51A95D63E2A9510E0D0C0EF3241B
:1017C800D96E020EF420DA6EDFAE3ED00001A951C8
:1017D8000E0D040EF324D96E020EF420DA6E9D0E5F
:1017E800D225E16EE26A010EE222DFCFE7FFD22BBB
:1017F800A9510E0D050EF324D96E020EF420DA6EEF
:101808009D0ED225E16EE26A010EE222DFCFE7FFEC
:10181800D22BA9510E0D060EF324D96E020EF42018
:10182800DA6E9D0ED225E16EE26A010EE222DFCF6A
:10183800E7FFD22B9D0ED225D96EDA6A010EDA2285
:10184800A9C0DFFFD22B19D09D0E0001D225D96E79
:10185800DA6A010EDA22DF68D22B9D0ED225D96E04
:10186800DA6A010EDA22DF68D22B9D0ED225D96EF4
:10187800DA6A010EDA22DF68DCD7040EA527A92B65
:10188800A8519E6F9F6B9E2B000E9F23070E9E03F1
:10189800F3CFA0F0F4CFA1F09F03F350A127A951F3
:1018A800A26FA36BA051A25DA351800AA46FA1519E
:1018B800800AA45901E27DD7A5C0A7F0220EA7652A
:1018C80001D00BD09D0ED225D96EDA6A010EDA222C
:1018D800110EDF6ED22BA72BF1D7946B956B010EEF
:1018E800966F976BA8EC14F0A82BA651A85D01E29F
:1018F80030D712000001736F0A0E73651DD02D0ECC
:101908006E6FFF0E6F6F8CEC1DF0756B7551E808EC
:10191800D96E000ED8A0E82A0108DA6EDF500CEC68
:101928001CF00001752B070E7565F0D7D60E6E6F8B
:10193800FF0E6F6F8CEC1DF00A0E73616CD0370EC2
:101948006E6FFC0E6F6F8CEC1DF073510E0D0C0E4C
:10195800F324D96E020EF420DA6E0201DFAE120013
:10196800000173510CEC1CF0C80E00016E6FFF0EE5
:101978006F6F8CEC1DF0756B080E756119D0735183
:101988000E0D000E716F020E726F0B0E7127000E96
:101998007223F3507127F45072237551715DD96E1B
:1019A8007251D8A07205DA6EDF500CEC1CF006D02C
:1019B800D30E6E6FFF0E6F6F8CEC1DF00001752B50
:1019C800070E7565D9D7D10E6E6FFF0E6F6F8CEC51
:1019D8001DF0756B73510E0D000E716F020E726F54
:1019E8000D0E7127000E7223F3507127F4507223E5
:1019F80075517125D96E000E7221DA6EDF500CEC2C
:101A08001CF00001752B7551E5E0F40E6E6FFF0EAA
:101A18006F6F90EF1DF0350E6E6FFC0E6F6F8CECD4
:101A28001DF0756B75510E0D0C0EF324D96E020E58
:101A3800F420DA6EDFAE5BD0000175510CEC1CF0BF
:101A4800C80E00016E6FFF0E6F6F8CEC1DF0746B8B
:101A5800080E746119D075510E0D000E716F020ECB
:101A6800726F0B0E7127000E7223F3507127F4501A
:101A780072237451715DD96E7251D8A07205DA6EF5
:101A8800DF500CEC1CF006D0D30E6E6FFF0E6F6F9C
:101A98008CEC1DF00001742B070E7465D9D7D10E9C
:101AA8006E6FFF0E6F6F8CEC1DF0746B75510E0D21
:101AB800000E716F020E726F0D0E7127000E7223E9
:101AC800F3507127F450722374517125D96E000EAA
:101AD8007221DA6EDF500CEC1CF00001742B74518B
:101AE800E5E0F40E6E6FFF0E6F6F8CEC1DF00001D9
:101AF800752B090E756596D7090C7F6F05EC17F0E5
:101B0800CD6B7F5137E1836B83510E0D0C0EF3249F
:101B1800D96E020EF420DA6EDF6A83510E0D040EC0
:101B2800F324D96E020EF420DA6EDF6A83510E0DAB
:101B3800050EF324D96E020EF420DA6EDF6A8351A3
:101B48000E0D060EF324D96E020EF420DA6EDF6A4B
:101B58007D0E8325D96EDA6A010EDA22DF6A870ED6
:101B68008325D96EDA6A010EDA22DF6A832B090E21
:101B78008365CAD7D26B836B832B090E8365FCD729
:101B88007F5153E0EE0E6E6F6F6BE1C070F0E2C0F4
:101B980071F0736B010E726F43EC1AF01F0E0001A7
:101BA800EE6501D01F0CF20E6E6F6F6BDDC070F02A
:101BB800DEC071F0736B010E726F43EC1AF0000E09
:101BC80000016E6F020E6F6FDFC070F0E0C071F041
:101BD800736B8C0E726F43EC1AF0F00E00016E6F8F
:101BE8006F6BE9C070F0EAC071F0736B010E726F31
:101BF80043EC1AF0EF0E00016E6F6F6BEBC070F0E4
:101C0800ECC071F0736B010E726F43EC1AF0ED0EBD
:101C180000016E6F6F6BE3C070F0E4C071F0736B1E
:101C2800010E726F43EC1AF027D0EE0E6E6F6F6BD9
:101C3800E1C070F0E2C071F0736B010E726FF7ECE7
:101C480014F0F20E00016E6F6F6BDDC070F0DEC035
:101C580071F0736B010E726FF7EC14F0000E000157
:101C68006E6F020E6F6FDFC070F0E0C071F0736BC3
:101C78008C0E726FF7EC14F0E10E0001816F010E0B
:101C8800826F80838051870B4009806F7FB102D0BB
:101C9800809502D000018085809180C07BF081C052
:101CA8007CF082C07DF045EC15F00001EE5195EC1A
:101CB8001CF00001CC6BCC81F239F00BCC13F08A0C
:101CC8001200846B6EEC1AF06DC07FF06EC080F06D
:101CD8006FC081F070C082F08451060D5F0EF3244E
:101CE800D96E010EF420DA6EDF503FE08451060D04
:101CF800610EF324D96E010EF420DA6E7F51DE5C9A
:101D08008051DE588151DE588251DE582EE28451CE
:101D1800060D610EF324D96E010EF420DA6EDECFC3
:101D280077F0DECF78F0DECF79F0DECF7AF077513A
:101D38007F5D7B6F785180597C6F795181597D6FB8
:101D48007A5182597E6F7E5107E1910E7B5DD00EEC
:101D58007C59030E7D5909E38451060D5F0EF32467
:101D6800D96E010EF420DA6EDF6A842B040E8465C6
:101D7800A9D7D02901E0000C846B8451390D8C0E51
:101D8800F324D96E020EF420DA6EDFA055D00001DC
:101D98008451390D8D0EF324D96E020EF420DA6EBB
:101DA800DF500B6E8451390DC40EF324D96E020E28
:101DB800F420DA6EDF50106E020E836F0BAC05D084
:101DC800C331E832E8320F0B83270BAE19D08451A8
:101DD800390D8C0E776F020E786F772B000E7823F3
:101DE800F3507727F4507823835177250C6E000E33
:101DF80078210D6EC331E832E8320F0B832702D009
:101E08000C6A0D6A8351105E8451390D8C0E776F00
:101E1800020E786F772B000E7823F3507727F45053
:101E28007823835177250E6E000E78210F6ECFC070
:101E380011F084C0D0F0010C0001842B010E8465E0
:101E48009CD7000C00017B6B7C697D6B7D510E0D6E
:101E58000C0EF324D96E020EF420DA6EDFAE16D023
:101E680004C06DF005C06EF000017D510E0D040E2A
:101E7800F3246F6F020EF420706FDCEC1CF0000985
:101E88000AE07DC07CF0010E7B6F09D000017C293F
:101E980002E17DC07CF07D2B090E7D65D7D77C29BA
:101EA80001E1F10CF25103E000017B5112007CC00A
:101EB800CBF07D6B7D510424D96E000E0520DA6EBF
:101EC8007C510E0D000E776F020E786F040E772787
:101ED800000E7823F3507727F45078237D51772527
:101EE800E16E000E7821E26EDFCFE7FF7D2B070E53
:101EF8007D65E0D77C510E0D0C0EF324D96E020ED1
:101F0800F420DA6EDF8E20EE02F00650D926075054
:101F1800DA22DF500001776F010E77177C510E0D22
:101F28000C0EF324D96E020EF420DA6EDF50771906
:101F3800FE0B7719DF6E7D6B7D510624776F000EDF
:101F48000720786F030E7725D96E000E7821DA6E98
:101F58007C510E0D000E796F020E7A6F0D0E7927E7
:101F6800000E7A23F3507927F4507A237D5179258E
:101F7800E16E000E7A21E26EDFCFE7FF7D2B7D5107
:101F8800DBE07CC0C9F0CD9995EC1AF0ED6FED0E51
:101F98006E6F6F6BE3C070F0E4C071F0736B010E8D
:101FA800726FF7EC14F080D7F2C000F3030E030150
:101FB800016F026B6EEC1AF06DC01BF06EC01CF066
:101FC8006FC01DF070C01EF0C10501E1FF0C6EEC82
:101FD8001AF06DC003F36EC004F36FC005F370C050
:101FE80006F3900E0301035FD00E045B030E055B3E
:101FF800000E065B0001F26BCD897AD06EEC1AF008
:102008006DC007F36EC008F36FC009F370C00AF320
:1020180003010351075D0101F96F030104510859D8
:102028000101FA6F0301055109590101FB6F030111
:1020380006510A590101FC6FFC5107E1910EF95D47
:10204800D00EFA59030EFB594DE307C303F308C337
:1020580004F309C305F30AC306F3030102070229BF
:1020680047E1010E026F0107012903E10001CD9943
:10207800FF0C0001D26B9D0ED225D96EDA6A010ED3
:10208800DA22810EDF6ED22B9D0ED225D96EDA6A46
:10209800010EDA22EEC0DFFFD22B9D0ED225D96EBB
:1020A800DA6A010EDA22CCC0DFFFD22B03010B6BF8
:1020B8000B51F10FD96EDA6A9D0E0001D225E16E3F
:1020C800E26A010EE222DFCFE7FFD22B03010B2BDE
:1020D8000B51EEE00001946B956B010E966F976BB8
:1020E800A8EC14F078EC1EF0000902E07DEC1EF07C
:1020F8000001CDB983D700C3F2F0C9511200A26F15
:102108000001A22951E1A36BA3510E0D0C0EF3247B
:10211800D96E020EF420DA6EDFAE21D00001D26B48
:102128009D0ED225D96EDA6A010EDA22820EDF6E92
:10213800D22BA3510E0D040EF324946F020EF4203B
:10214800956F010E966F000E976BA8EC14F09E6BBE
:102158009F6B9E4B9F2B9E290F0E9F59FAE3000100
:10216800A3510E0D0C0EF324D96E020EF420DA6E74
:10217800DF6AA3510E0D000EF3246E6F020EF420D9
:102188006F6FA3510E0DDF51F324706FE051F420EF
:10219800716F736B0E0E726FF7EC14F00001A32BC6
:1021A800090EA365B1D7090CA2510E0D0C0EF3242C
:1021B800D96E020EF420DA6E0201DFAE12000001C1
:1021C800D26B9D0ED225D96EDA6A010EDA22820E02
:1021D800DF6ED22BA2510E0D040EF324946F020E63
:1021E800F420956F010E966F000E976BA8EC14F013
:1021F800A06BA16BA04BA12BA0290F0EA159FAE34C
:10220800A2510E0D0C0EF324D96E020EF420DA6ED4
:10221800DF6AA2510E0D000EF3246E6F020EF42039
:102228006F6FA2510E0DDF51F324706FE051F4204F
:10223800716F736B0E0E726FF7EF14F0886F030EE9
:102248000001856F88D0866BD86B846B775119E055
:10225800280E7BEC1CF0876FD8908733410E87657A
:1022680010D0842B8405786F040E786501D0000C9B
:10227800010E6D6F000E6E6B6F6B706B87EC1EF04E
:10228800E7D7F09A200E78EC19F01A0E00016F6F5C
:10229800C90E6E6FF2EC1CF0000188512FEC1DF096
:1022A80000018A6B0BD0000E8A25D96EDA6A010EFE
:1022B800DA22DF502FEC1DF000018A2B88518A5D4D
:1022C800F2E3800E78EC19F0F08A0001C85102E1BF
:1022D800F0A4FBD7C86B200E78EC19F0600E78ECF0
:1022E80019F0010100AB0ED001C12BF06EEC1AF011
:1022F8006DC07CF06EC07DF06FC07EF070C07FF066
:10230800D85104E0010E0001896F2AD06EEC1AF052
:102318006DC080F06EC081F06FC082F070C083F035
:102328007C51805D786F7D518159796F7E518259DA
:102338007A6F7F5183597B6F7B517A1105E1D50EF6
:10234800785D300E7959DCE3862B8605786F040EAC
:10235800786101D079D78507852901E074D7896B21
:10236800895112003C6E030E476E84D0486A000102
:10237800D86B466A375019E0280EC5EC1CF0496E38
:10238800D8904932410E496410D0462A4604386E26
:10239800040E386401D0040C010E2D6E000E2E6A56
:1023A8002F6A306A88EC1EF0E7D7F09A200EE2EC2C
:1023B80019F01A0E2F6EC90E2E6E55EC1DF03C50FA
:1023C8009DEC1DF04A6A0AD0000E4A24D96EDA6ADA
:1023D800010EDA22DF509DEC1DF04A2A3C504A5C7F
:1023E800F3E3800EE2EC19F0F08A0001C85102E133
:1023F800F0A4FBD7C86B200EE2EC19F0600EE2ECFB
:1024080019F0010100AB0ED001C12BF0BCEC1AF0A1
:102418002DC03EF02EC03FF02FC040F030C041F03C
:10242800D85103E0010E3D6E010CBCEC1AF02DC032
:1024380042F02EC043F02FC044F030C045F03E506B
:10244800425C386E3F504358396E405044583A6E9B
:10245800415045583B6E3B503A1005E1D50E385C6B
:10246800300E3958DDE3482A4804386E040E3860C7
:1024780001D07DD74706472801E078D73D6A12008A
:10248800230E906501D0000C8BB503D0916B912B76
:1024980002D00001916B913B914791478B51911963
:1024A800BF0B91198B6F8B8F8B51030BE80601E1E2
:1024B8008B8F8BC000F1CAC001F1CA2B020E926F3C
:1024C8008BAD1AD0936B10D093518C25D96E000E1A
:1024D8008D21DA6E000E9225E16EE26A010EE2228B
:1024E800DFCFE7FF922B932BC331E832E8320F0B93
:1024F800916F9151935DE8E38BAF1AD0936B10D035
:102508009351C425D96E000EC521DA6E000E9225AE
:10251800E16EE26A010EE222DFCFE7FF922B932BF6
:10252800C331E832E8320F0B916F9151935DE8E3C4
:10253800936B10D093518E25D96E000E8F21DA6ED1
:10254800000E9225E16EE26A010EE222DFCFE7FF7C
:10255800922B932B9051935DEDE3000EC3B3010EC4
:10256800776F925122EF11F0040E796F79C076F0EF
:10257800030E761761E17951766F776B030E762734
:10258800000E772377BF05D0775156E1230E765D8D
:1025980053E279517425766F000E7521776F030E1B
:1025A8007625D96E000E7721DA6EDF50786F785174
:1025B800040D3A0EF324D96E010EF420DA6E78C0B9
:1025C800DFFF79517425D96E000E7521DA6E7851C6
:1025D800040D370EF324E16E010EF420E26EDFCF16
:1025E800E7FF79517425766F000E7521776F76298C
:1025F800D96E000E7721DA6E7851040D380EF32467
:10260800E16E010EF420E26EDFCFE7FF7951742509
:10261800766F000E7521776F020E7625D96E000E43
:102628007721DA6E7851040D390EF324E16E010E2C
:10263800F420E26EDFCFE7FF792B220E796596D77B
:102648008DEF18F06D516F6F6E51706F716B726B0B
:10265800D00E6F03F3CF73F0F4CF74F0756B766B15
:102668007003F3507427F4507523000E7623070E79
:102678006F03F3507427F4507523000E7623D00EA1
:102688007103F3507527F4507623070E7003F35047
:102698007527F4507623000E6F03F3507527F45016
:1026A8007623D00E7203F3507627070E7103F3508A
:1026B8007627000E7003F3507627000E6F03F35051
:1026C800762773C077F074C078F075C079F076C05B
:1026D8007AF0560E7727FF0E782379237A237ABF6C
:1026E800FF0C7A51791178110CE1C40E775D09E27B
:1026F800120000F0D90E00017727FF0E7823792306
:102708007A237ABF12007A5179117811F2E17705AC
:10271800F0E212002D502F6E2E50306E316A326A60
:10272800D00E2F02F3CF33F0F4CF34F0356A366A87
:102738003002F3503426F4503522000E3622070EAC
:102748002F02F3503426F4503522000E3622D00ED4
:102758003102F3503526F4503622070E3002F3507A
:102768003526F4503622000E2F02F3503526F45049
:102778003622D00E3202F3503626070E3102F350BD
:102788003626000E3002F3503626000E2F02F35084
:10279800362633C037F034C038F035C039F036C08B
:1027A8003AF0560E3726FF0E382239223A223ABE20
:1027B800FF0C3A50391038100BE1C40E375C08E2B0
:1027C800120000F0D90E3726FF0E382239223A229D
:1027D8003ABE12003A5039103810F3E13704F1E2EA
:1027E80012004E0E9C6FFD0E9D6F9E6B010E9F6F2B
:1027F80073EC1BF0AC0E6E6FFE0E6F6F8CEC1DF061
:10280800DD0E6E6FFD0E6F6F8CEC1DF0130E6E6F8C
:10281800FE0E6F6F8CEC1DF0940E6E6FFE0E6F6FD8
:102828008CEC1DF0F80E6E6FFD0E6F6F8CEC1DF0CA
:102838002E0E6E6FFE0E6F6F8CEC1DF0D50E6E6F48
:10284800FC0E6F6F8CEC1DF0C30E6E6FFE0E6F6F7B
:102858008CEC1DF07B0E6E6FFB0E6F6F8CEC1DF019
:10286800BB0E6E6FFB0E6F6F8CEC1DF0390E6E6F2A
:10287800FB0E6F6F8CEC1DF0F70E6E6FFA0E6F6F1C
:102888008CEC1DF0F90E6E6FFB0E6F6F8CEC1DF06B
:10289800F20E6E6FFF0E6F6F8CEC1DF0070E6E6FF1
:1028A800D00E6D6F26EF13F00001C26FE10E736F4B
:1028B800010E746F4BEC17F0C25104E0010E81EC6D
:1028C8000DF03FD089948996000E81EC0DF0190E19
:1028D80095EC1CF0000903E1190E7AEC1DF0000ECE
:1028E800EFEC1BF0000E0001A16F190E10EC18F0B0
:1028F800C16BD8EC0FF0D96FD92907E0010EA16F91
:10290800190E10EC18F0F06B0BD00A0E776F000E52
:10291800786B796B7A6B7B6BD1EC1BF0010EF06FE7
:10292800F00E6E6F6F6BE9C070F0EAC071F0736BF8
:10293800010E726FF7EC14F0FF0E7EEC0CF0898438
:102948000001F051BEEF1DF09A6F00019B6B96518C
:1029580003E0986B982B02D00001986B9B51981953
:10296800FC0B98199B6F9A5103E1986B982B02D036
:102978000001986B983B98479B519819DF0B981961
:102988009B6F9AB102D09B9502D000019B8597B1AD
:1029980002D09B9702D000019B879A5103E1986B64
:1029A800982B02D00001986B983B984798479B5109
:1029B8009819BF0B98199B6F9B8F94C09CF095C07A
:1029C8009DF09BC08BF09CC08CF09DC08DF09D0E3F
:1029D8008E6F010E8F6FD2C090F044EC12F0996F99
:1029E800D26B99511200000EF0BA010E756FF09A71
:1029F8008C9A050E4CEC1EF0000E4CEC1EF00001FB
:102A0800766F8C8A84EC1EF0000176B1F1D78C9A2F
:102A1800060E4CEC1EF08C8A84EC1EF08C9A020E8A
:102A28004CEC1EF0000171514CEC1EF0000170518D
:102A38004CEC1EF00001766B1AD06EC0D9FF6FC047
:102A4800DAFFDF504CEC1EF000016E4B6F2B720763
:102A5800D8A07307762B76517025746F3F0E7417C4
:102A680006E18C8A76517027000E7123C1D7725106
:102A78007311E3E18C8A75B102D0F09A01D0F08A23
:102A880012007BC0C3F07CC0C4F07DC0C5F06E6B83
:102A9800140E6D6F26EC13F08D828B84D6CFCAF09E
:102AA800D0697E6B7E51390D8C0EF324D96E020EDF
:102AB800F420DA6EDF6A7E2B010E7E65F3D77E6B1B
:102AC8007E51020D590EF324F66EFA0EF420F76EBD
:102AD8000900F5CF6EF00A00F5CF6FF0F2EC1CF0AC
:102AE80000017E2B1F0E7E65EBD7200E78EC19F0C7
:102AF80000016F6B460E6E6FF2EC1CF0400E78EC26
:102B080019F01C0E00016F6F0F0E6E6FF2EC1CF0C7
:102B1800600E78EC19F0F094F08A1200D26BA7C01E
:102B2800D9FFA8C0DAFF9D0ED225E16EE26A010E38
:102B3800E222DFCFE7FFD22B20EE01F0A751D92602
:102B4800A851DA229D0ED225E16EE26A010EE22238
:102B5800DFCFE7FFD22B20EE02F0A751D926A851EC
:102B6800DA229D0ED225E16EE26A010EE222DFCF63
:102B7800E7FFD22B030EAA6FAA51A425D96E000E27
:102B8800A521DA6E9D0ED225E16EE26A010EE222DF
:102B9800DFCFE7FFD22BAA2B220EAA65EDD7A26BB7
:102BA800A65129EC1CF00001A96FA95102E1DEEC45
:102BB8001DF0A9511200716B42D071510E0D0C0E0F
:102BC800F324D96E020EF420DA6EDFAE36D000019F
:102BD80071510E0D040EF324D96E020EF420DA6E34
:102BE80010EE01F06D51E1266E51E222DE50E6183A
:102BF80024E171510E0D050EF324D96E020EF42056
:102C0800DA6E10EE02F06D51E1266E51E222DE50CE
:102C1800E61813E171510E0D060EF324D96E020E5B
:102C2800F420DA6E10EE03F06D51E1266E51E222C7
:102C3800DE50E61802E1715112000001712BED51CE
:102C4800715DBBE3ED517119D8B4FF0E1200030199
:102C5800006F0001DB6B040E946F020E956F010E7E
:102C6800966F00C397F0000EA8EC14F06EEC1AF003
:102C78006DC001F36EC002F36FC003F370C004F3BC
:102C88002BD06EEC1AF06DC005F36EC006F36FC062
:102C980007F370C008F378EC1EF003010151055DDD
:102CA8000101F96F0301025106590101FA6F03018D
:102CB800035107590101FB6F030104510859010130
:102CC800FC6FFC51FB1105E1510EF95DC30EFA5979
:102CD80003E30001DB0503E10001DB51D2E0DB5136
:102CE800120081B00FD0CE5143E1010ECE6F6EECD1
:102CF8001AF06DC091F16EC092F16FC093F170C07F
:102D080094F1010C81B40FD0CE5132E1010ECE6F97
:102D18006EEC1AF06DC091F16EC092F16FC093F134
:102D280070C094F1020C6EEC1AF06DC07BF06EC0AE
:102D38007CF06FC07DF070C07EF001019151000100
:102D48007B5D776F0101925100017C59786F010119
:102D5800935100017D59796F0101945100017E5909
:102D68007A6F7A51791103E1400E785D01E3CE6BF9
:102D7800000C746F1F0E0001746501D0000C0C0E5E
:102D88006F6F640E6E6FF2EC1CF0990E00017425E3
:102D9800F66EF76AFA0EF7220800F5CF73F0000E08
:102DA80073116E6F0E0E6F6FF2EC1CF0B90E00010E
:102DB8007425F66EF76AFA0EF7220800F5CF73F05D
:102DC800000E73116E6F100E6F6FF2EC1CF0200E78
:102DD80078EC19F000016F6B460E6E6FF2EC1CF088
:102DE800400E78EC19F01C0E00016F6F0F0E6E6F1D
:102DF800F2EC1CF0200E78EC19F0600E78EC19F06B
:102E0800010C010E0001726FC66BC76B6E6B020E70
:102E18006D6FE50E6F6FAEEC1CF072176E6B010EE6
:102E28006D6FE10E6F6FAEEC1CF072176E6B010EDA
:102E38006D6FDD0E6F6FAEEC1CF072176E6B8C0E43
:102E48006D6FDF0E6F6FAEEC1CF072176E6B040EB9
:102E58006D6FE70E6F6FAEEC1CF072176E6B010EA4
:102E68006D6FE30E6F6FAEEC1CF072176E6B010E98
:102E78006D6FE90E6F6FAEEC1CF072176E6B010E82
:102E88006D6FEB0E6F6FAEEC1CF072171200776B64
:102E98007751735D756F000E7459766F070E75253F
:102EA8006E6F000E76216F6F7751FA0F706F010EFB
:102EB800716F2DEC1BF00001772B020E7765E8D7B8
:102EC80020EE04F07351D9267451DA22DF6820EE1F
:102ED80003F07351D9267451DA22FE0EDF6E776B38
:102EE8007751735D756F000E7459766F020E7525F4
:102EF8006E6F000E76216F6F7751FD0F706F010EA8
:102F0800716F2DEC1BF00001772B020E7765E8D767
:102F1800020C2550265C04E329502A5CD8B0120024
:102F280071B0FED72550265C15E22650130FD96ED6
:102F3800DA6ADF50756E262A25502618D8A41200A2
:102F48002950D8A412007184010E2E6E2C0E2D6EFD
:102F58008EEF13F029502A5CD8B01200C00E2A2434
:102F6800D96EDA6A010EDA22DF5008E1C00E2A248F
:102F7800D96EDA6A010EDA22200EDF6EC00E2A241C
:102F8800D96EDA6A010EDA22DF50756E2A2A2950C4
:102F98002A18D9E012007B0ED36EC090F26A550E43
:102FA800A76EAA0EA76E0E01FF91060EE96F130E0B
:102FB800F66F050ED76F550EA76EAA0EA76EFF8186
:102FC8000F0148693F0E496FF19E926893689468B3
:102FD80095689668896A8A6A8C6A8D6A95948C84E1
:102FE800949C8B9C9380938492949296958E9386CE
:102FF8009586938A949E9398C00EC76E210EC66ECE
:10300800949496928B848D82F18696908D80959A71
:103018008C8AF28E51EF1BF0A26F0001A1511BE1C7
:10302800950E9C6FFC0E9D6FA2C09EF0010E9F6FC7
:1030380073EC1BF0130E6E6FFD0E6F6F8CEC1DF0B2
:10304800A2514FEC18F0F40E00016E6FFF0E6F6F77
:103058008CEC1DF01AD0F40E9C6FFC0E9D6FA2C074
:103068009EF0010E9F6F73EC1BF0310E6E6FFD0E1C
:103078006F6F8CEC1DF0A2514FEC18F0F40E0001AC
:103088006E6FFF0E6F6F8CEC1DF0030E6E6FE80E07
:103098006D6F26EF13F0776F630E0001776510D020
:1030A800640E716F775160EC1CF0756F766BE90EEA
:1030B8007525D96E010E7621DA6EDF506CEC1EF0A4
:1030C800090E0001776514D00A0E716F640E6D6FDA
:1030D80077511BEC1DF060EC1CF0756F766BE90EF8
:1030E8007525D96E010E7621DA6EDF506CEC1EF074
:1030F8000A0E00016D6F77511BEC1DF0756F766B32
:10310800E90E7525D96E010E7621DA6EDF506CEF67
:103118001EF0726BF051D8A41200736B1ED073515D
:10312800040D370EF324D96E010EF420DA6E010176
:10313800E151DE1810E100017351040D380EF3243B
:10314800D96E010EF420DA6EDE500101E21903E1B6
:10315800010E0001726F0001732BD7516D6F6E6BFA
:103168006D2B000E6E2373516F6F706B6D516F5D19
:103178007051800A716F6E51800A7159D0E3725193
:10318800D8A41200010EDA6F010C726B70AF06D072
:103198006F6D701FD8B0702B010E726F6EAF06D0B6
:1031A8006D6D6E1FD8B06E2B010E721B736B746B36
:1031B8006F5170111BE0010E716F04D0D8906F37FA
:1031C8007037712B70AFFAD7D890733774376F5147
:1031D8006D5D70516E5905E36F516D5F70516E5B97
:1031E8007381D89070336F33712FEED7725104E02A
:1031F800736D741FD8B0742B73C06DF074C06EF00B
:10320800120002EE00F0FE0EEE6AE806FDE101EEA5
:1032180000F0E90EEE6AE806FDE100EEC3F02E0EBE
:10322800EE6AE806FDE100EE01F02C0EEE6AE80613
:10323800FDE1AA0EF66E3C0EF76E000EF86E01EE7A
:10324800E9F010EE10F00900F5CFEEFFE550E1507F
:10325800FAE10C0EF66E3D0EF76E000EF86E0900E0
:10326800F5CFF1F00900F5CFF2F055905592000E28
:10327800F86E0001AEEF1DF0FCEC1DF0C00E796F8A
:10328800010E7A6F850E7B6FFF0E7C6FE3EC01F009
:10329800D00E796F010E7A6FF00E7B6FFE0E7C6F89
:1032A8009CC0D9FF9DC0DAFFDF507D6F7E6B20EE9A
:1032B80001F09C51D9269D51DA22DF507F6F806B37
:1032C80020EE02F09C51D9269D51DA22DF50816F01
:1032D800826BE3EC01F018EC1EF0040E00016E6F37
:1032E800B00E6D6F26EF13F00001716F27D06F6B72
:1032F800860E6E6FF2EC1CF0800E276E800C6F6BE2
:10330800660E6E6FF2EC1CF0600E276E600C6F6B31
:10331800460E6E6FF2EC1CF0400E276E400C6F6B81
:10332800260E6E6FF2EC1CF0200E276E200C6F6BD1
:10333800060E6E6FF2EC1CF0276A12000001715144
:10334800F6E0200AECE0600AE2E0200AD8E0E00AB1
:10335800CEE01200726B6EAF06D06D6D6E1FD8B0E6
:103368006E2B010E726F70AF04D06F6D701FD8B0E6
:10337800702B6F51701117E0010E716F04D0D89047
:103388006F377037712B70AFFAD76F516D5D705111
:103398006E5904E36F516D5F70516E5BD890703356
:1033A8006F33712FF2D7725104E06D6D6E1FD8B074
:1033B8006E2B6DC06DF06EC06EF01200316E27D0AE
:1033C8002F6A860E2E6E55EC1DF0800E276E800C2F
:1033D8002F6A660E2E6E55EC1DF0600E276E600C7F
:1033E8002F6A460E2E6E55EC1DF0400E276E400CCF
:1033F8002F6A260E2E6E55EC1DF0200E276E200C1F
:103408002F6A060E2E6E55EC1DF0276A12003150F9
:10341800F7E0200AEDE0600AE3E0200AD9E0E00ADC
:10342800CFE01200A56BA5510E0D0C0EF324D96E3A
:10343800020EF420DA6EDFAE1CD07D0E0001A52549
:10344800D96EDA6A010EDA22DF500CE1870EA52563
:10345800D96EDA6A010EDA22DE2804E0A55183EC7F
:1034680010F007D07D0EA525D96EDA6A010EDA2292
:10347800DF6A0001A52B090EA565D5D7090C000E3A
:10348800F0BA010E746FF09A8C9A030E4CEC1EF091
:10349800000171514CEC1EF0000170514CEC1EF013
:1034A8000ED0000E4CEC1EF06EC0D9FF6FC0DAFFD4
:1034B800DF6E00016E4B6F2B7207D8A073070001F7
:1034C80072517311EEE18C8A74B102D0F09A01D076
:1034D800F08A12009D900001756B766B726BCECFEF
:1034E80073F0CFCF74F0732908E1742906E1722BC9
:1034F8007205716F020E7165F2D79EA004D0752B0C
:103508002C2801E1762B2C507527DC5176279D80DD
:1035180073C06DF074C06EF075C06FF076C070F057
:1035280012006D6B6E6B6E510E0D040EF324D96E86
:10353800020EF420DA6EDF5014E16E510E0D050E06
:10354800F324D96E020EF420DA6EDF500AE16E51D0
:103558000E0D060EF324D96E020EF420DA6EDF503B
:1035680001E06D2B6E2B090E6E65DDD76D511200D3
:103578009D90356A366A326ACECF33F0CFCF34F0B9
:10358800332808E1342806E1322A3204316E020E6B
:103598003164F2D79EA004D0352A2C2801E1362ABE
:1035A8002C5035260001DC5136269D8033C02DF085
:1035B80034C02EF035C02FF036C030F0120078EC51
:1035C8001EF0C16FC1511EE0D12BD1C09EF0D35166
:1035D80065EC1EF0070E00016E6FD00E6D6F26ECC5
:1035E80013F08976F05109E10150030B06E106C09A
:1035F8009CF007C09DF040EC19F07DEC1EF0F051F6
:10360800BEEC1DF0C1511200726B736B6F517011DB
:103618001BE0010E716F04D0D8906F377037712B93
:1036280070AFFAD7D890723773376F516D5D70519C
:103638006E5905E36F516D5F70516E5B7281D89062
:1036480070336F33712FEED772C06DF073C06EF0A8
:103658001200000EF2BE010E726FF29E8D90030EE4
:103668004CEC1EF0000170514CEC1EF00CD0000E1A
:103678004CEC1EF06EC0D9FF6FC0DAFFDF6E0001A0
:103688006E4B6F2B710700017151F1E18D8072B1A2
:1036980002D0F29E01D0F28E1200530E9512A49E13
:1036A800736AF00E746E280E726E716AA38EF28EB3
:1036B800F28C010E00016E6F2C0E6D6F26EC13F06C
:1036C8007C0E136E810E146E156A6D6B030E23EC5F
:1036D8001EF000016E6BC80E6D6F26EF13F0FCEC48
:1036E8001DF0C00E796F010E7A6F9CC07BF09DC0F3
:1036F8007CF09EC07DF07E6BE3EC01F018EC1EF0D0
:1037080000019F51D8B41200A06B6E6BFA0E6D6F5A
:1037180026EC13F0A02B070EA065F7D7070C9D6FBA
:10372800FCEC1DF0C00E796F010E7A6FA70E7B6F4F
:10373800FF0E7C6F9DC07DF07E6BE3EC01F0D00E38
:10374800796F010E7A6F960E7B6FFF0E7C6F9CC0AF
:103758007DF07E6BE3EC01F018EF1EF076517711E7
:1037680017E0010E786F04D0D89076377737782B2A
:1037780077AFFAD77651745D7751755904E376516E
:10378800745F7751755BD89077337633782FF2D79B
:1037980074C074F075C075F012007C6F15D06EECB3
:1037A8001AF06DC01BF06EC01CF06FC01DF070C029
:1037B8001EF06EEC1AF06DC01FF06EC020F06FC0E6
:1037C80021F070C022F0120000017C51E8E0010AEB
:1037D800D8A4030A12000001786F030E786501D09F
:1037E800030C78C0F2F0F2C077F0773BF00E771751
:1037F800CC510F0B7711CC6FF20E6E6F6F6BDDC073
:1038080070F0DEC071F0736B010E726FF7EF14F099
:103818006F6F6FC06EF000016F390F0B6F6FE90E9D
:103828006F25D96EDA6A010EDA22DF506CEC1EF0D1
:1038380000016E510F0B6F6FE90E6F25D96EDA6AB2
:10384800010EDA22DF506CEF1EF0A36F0001A351C6
:103858000E0D0C0EF324D96E020EF420DA6E02015E
:10386800DFAE000C0001A3510E0D040EF3249E6F71
:10387800020EF4209F6F010EA06FA2C0A1F038EFD6
:103888001EF0D26B9D0ED225D96EDA6A010EDA22AD
:103898007A0EDF6ED22B040E946F020E956F010E16
:1038A800966F000E976BA8EC14F09E6F9E51D8A4EB
:1038B8001200010EDA6F010C726F0001746B715106
:1038C80014E0010E736F03D0D8907137732B71AF6A
:1038D800FBD7D89074377151725D03E37151725FF1
:1038E8007481D8907133732FF4D77451120000018A
:1038F8006E6F000EF0BA010E706FF09A8D926E8D99
:103908006E514CEC1EF0000E4CEC1EF000016F6F77
:103918008D8270B102D0F09A01D0F08A00016F5107
:103928001200776F0001726B7751BDEC16F0000939
:1039380010E077C0EEF0EE0E00016E6F6F6BE1C025
:1039480070F0E2C071F0736B010E726FF7EC14F057
:10395800010C000C6D51C625706F6E51C721716F37
:103968007005800E715901E3000C6F51D96EDA6A47
:10397800C6C0DEFFC7C0DDFF6D51C6276E51C72325
:10398800010C2E6E000EF0BA010E306EF09A8D9278
:103998002E8C2E505DEC1EF0000E5DEC1EF02F6E8E
:1039A8008D8230B002D0F09A01D0F08A2F501200E8
:1039B800736B73516F25D96E000E7021DA6E7351D7
:1039C8006D25E16E000E6E21E26EDE50E61801E014
:1039D800000C732B070E7365ECD7010C000EF0BAC0
:1039E800010E706FF09A8D926F514CEC1EF0000131
:1039F8006E514CEC1EF08D82000170B102D0F09A2D
:103A080001D0F08A1200D26B9D0ED225D96EDA6AE7
:103A1800010EDA22DA0EDF6ED22B9EC094F09FC020
:103A280095F0010E966F000E976BA8EF14F06E6F6D
:103A3800080E00016F6F706BD8906E357035706F1F
:103A4800D8906E376D51705D02E36D51705F6F2FC6
:103A5800F3D7705112006E6F000EF0BA010E00011C
:103A68006F6FF09A8B946E514CEC1EF08B840001B2
:103A78006FB102D0F09A01D0F08A12006D516F0335
:103A8800F3CF71F0F4CF72F06D517003F3507227D9
:103A98006E516F03F350722771C06DF072C06EF0F3
:103AA8001200000EF0BA010E306EF09A8D922F506F
:103AB8005DEC1EF02E505DEC1EF08D8230B002D011
:103AC800F09A01D0F08A1200A50E9C6FFD0E9D6F32
:103AD8009E6B9F6B73EC1BF075EC16F0A16FA10544
:103AE80001E1000C020EA119F7E1010C0001786F49
:103AF8007C0E6E6FFE0E6F6F8CEC1DF078514FECE4
:103B080018F0670E00016E6FFC0E6F6F90EF1DF0DE
:103B180003D0705172EC1EF06EC0F6FF6FC0F7FF55
:103B280000016E4B6F2B0800F5CF70F07051F1E17A
:103B380012002E6E000EF0BA010E2F6EF09A8B94C2
:103B48002E505DEC1EF08B842FB002D0F09A01D07D
:103B5800F08A1200CFEC17F00BEC1EF0F5EC13F026
:103B680068EC1DF00101FD6FFD5158EC14F082EC7A
:103B78001EF0FDD7A16F0001A15104E06B0E9C6FF0
:103B8800FD0E03D0B50E9C6FFC0E9D6F9E6B9F6B58
:103B980073EF1BF0020E0001D061020CD051390DF9
:103BA8008C0EF324D96E020EF420DA6E000EDF6A52
:103BB800D06912001A0E6E6FFF0E6F6F8CEC1DF03D
:103BC800B80E9C6FFF0E9D6F9E6B010E9F6F73EF7B
:103BD8001BF06F6F00016E6B3A0E6F6105D02F0EF0
:103BE8006F6502D0010E6E6F6EC06DF06D31120000
:103BF80000016D6BC00E6D25D96EDA6A010EDA22EE
:103C0800200EDF6E6D2B1F0E6D65F4D71F0C380E5E
:103C1800CD6E9A6ACF6ACE6ACECF23F0CFCF24F08A
:103C28009E909D8080EF1EF07C0E136E320E146EF7
:103C3800156A200E166E6D6F040E23EF1EF06E6F60
:103C480071B4FED7266A2A6A6EC025F06DC029F0C5
:103C5800718012009E6F0001946B956B966B9EC0ED
:103C680097F0010EA8EF14F09EC094F09FC095F055
:103C7800000E966BA1C097F0A8EF14F0A4AE120046
:103C8800A49E8DEC17F02E6A050E2D6E8EEF13F0A4
:103C980000016D6FC69E6DC0C9FFC7A0FED7C95091
:103CA80012003031323334353637383941424344E3
:103CB80045462D6EC69E2DC0C9FFC7A0FED7C95068
:103CC80012009F6F9EC09CF000019F5193EF1BF064
:103CD8006D6FA8A2FED76DC0A9FF12006D6FA4A8D2
:103CE800FED76DC0A9FF120070EC05F0CDB7010C2E
:103CF800000CCD97CEEF1DF0CD801200EBEF08F051
:0A3D080000F0120001031200120087
:10F9DA000020B2202020B22020B220B220202020F5
:10F9EA0020B220B20D0AB220B220B220B2202020CA
:10F9FA00B22020B22020B220200D0AB22020B2204C
:10FA0A0020B220B220B22020B22020B220B20D0AA9
:10FA1A00B22020B22020B220B22020B220B220B2DE
:10FA2A002020B20D0AB22020B22020B220B220201B
:10FA3A0020B220B2202020B20D0A2020202020202F
:10FA4A00202020202020202020202020200D0A26CF
:10FA5A00008402090409060C08C10A770C630E190E
:10FA6A00100012001400163818C81A0D1C001E7255
:10FA7A00203822382407260028002A692C812E7E65
:10FA8A00309632F83488364038003AE83C003E5323
:10FA9A00535353535353535353535353535353532C
:10FAAA005353535454545454545454545454541D46
:10FABA00202225282B2E303336393C3F4144474AF1
:10FACA004D4F520A0D101215181B1E20232629010C
:10FADA00000800400000020010008001000A0064D3
:10FAEA0000E803102701001000000100100D0A2091
:10FAFA0020202020202020202020202020202020FC
:10FB0A00202020203220746F20756E69636173741F
:10FB1A0020656E63727970746564206D65737361B4
:10FB2A0067652E204C454420322077696C6C000DA5
:10FB3A000A202020202020202020202020202020D1
:10FB4A00202020202020427574746F6E203120748A
:10FB5A006F2062726F616463617374206D65737381
:10FB6A006167652E205075736820427574746F6ED4
:10FB7A00000D0A20202020202020202020202020C4
:10FB8A002020202020202020506F776572206F6E61
:10FB9A002074686520626F61726420756E74696C86
:10FBAA00204C45442031206C696768747320757055
:10FBBA00000D0A2020202020202020202020202084
:10FBCA002020202020202020746F20696E64696321
:10FBDA0061746520636F6E6E656374696E67207702
:10FBEA0069746820706565722E2050757368000DFF
:10FBFA000A20202020202020202020202020202011
:10FC0A00202020202020626520746F67676C65645D
:10FC1A002075706F6E20726563656976696E6720FC
:10FC2A006D657373616765732E20000D0A0D0A43B3
:10FC3A006F6E6E656374696F6E2020202020506598
:10FC4A0065724C6F6E67416464726573732020201D
:10FC5A00202050656572496E666F0D0A002069732F
:10FC6A00206E6F7420737570706F7274656420698A
:10FC7A006E2063757272656E7420636F6E66696753
:10FC8A0075726174696F6E2E0D0A00436F6E6E6530
:10FC9A006374696E67205065657220206F6E204319
:10FCAA0068616E6E656C2025642000524230203AED
:10FCBA0020556E6963617374202020524232203AC3
:10FCCA00204E657874204E6F6465000D0A2020204E
:10FCDA0020205246205472616E736365697665729C
:10FCEA003A204D5246383958410020436F6E6E65AE
:10FCFA0063746564205065657220206F6E204368C6
:10FD0A00616E6E656C202564000D0A436F6E6E6528
:10FD1A006374696E672050656572206F6E20436850
:10FD2A00616E6E656C20000D0A436F6E6E656374BA
:10FD3A0065642050656572206F6E204368616E6E3F
:10FD4A00656C200053696D706C65205354415220D4
:10FD5A00202020204D524638395841204E6F646584
:10FD6A00005043203A524230206F722052423220D1
:10FD7A0020746F2042726F6164636173740052422F
:10FD8A00303A2042726F6164636173742020524278
:10FD9A00323A20556E6963617374005242303A4EAA
:10FDAA006577204E6574776F726B205242323A46FD
:10FDBA007265657A65720042726F61646361737419
:10FDCA00205061636B6574207769746820525353BD
:10FDDA004920000D0A202020202020202020202039
:10FDEA00427574746F6E20313A20524230000D0A07
:10FDFA0020202020202020202020202020204C45A8
:10FE0A004420313A20524132000D0A20202020207D
:10FE1A00202020202020427574746F6E20323A20F0
:10FE2A00524232000D0A20202020202020202020AB
:10FE3A00202020204C454420323A2052413300559C
:10FE4A006E6963617374205061636B6574207769AE
:10FE5A007468205253534920005242303A253032B6
:10FE6A00642D2530327825303278253032782D6D60
:10FE7A0065000D0A53656C656374696F6E206F6661
:10FE8A00206368616E6E656C20000D0A4F75747090
:10FE9A00757420436F6E66696775726174696F6EF7
:10FEAA003A000D0A496E70757420436F6E66696771
:10FEBA0075726174696F6E3A000D0A2020204465DC
:10FECA006D6F20496E737472756374696F6E3A0050
:10FEDA005242303A253032642D253032782530327C
:10FEEA0078253032780020416464726573733A254C
:10FEFA0030327825303278253032780044617461A6
:10FF0A005F53656E64696E675F4661696C212100A3
:10FF1A000D0A556E6963617374204661696C656484
:10FF2A000D0A000D0A0D0A4D792041646472657349
:10FF3A00733A20307800454E445F4445564943455C
:10FF4A0053203A2530326400303132333435363773
:10FF5A00383941424344454600303132333435362C
:10FF6A00373839616263646566005242323A204327
:10FF7A0068616E6765206E6F646500446174612014
:10FF8A005061636B65742066726F6D005258204D24
:10FF9A00657373616765733A20253364005458208A
:10FFAA004D657373616765733A2025336400205584
:10FFBA006E6963617374204661696C656400202010
:10FFCA0020202020202020202020200020204368DC
:10FFDA00616E6E656C3A20005365637572656420C4
:0EFFEA00002066726F6D20000D0A0D0A0000E7
:08FFF800ACF6D8FFFFF9FFF1A0
:00000001FF
