:04000000DAEF01F042
:100008004482E1CF23F0E2CF24F0D9CF25F0DACF34
:1000180026F0F3CF27F0F4CF28F0F0B4F0AAADD152
:10002800600E3E1801E0A4D1280E34EC13F01F6EC8
:10003800D8901F303F6E3FC0E0F08B94000EB1ECBB
:1000480014F0336E8B84346A3450390D000EF32467
:10005800D96E020EF420DA6E0201DFA004D0342A31
:10006800010E3464F1D7020E331803E1010E306E2D
:1000780001D0306A370E336007D0335005E0010EE7
:10008800346412D0305010E11A0E34EC13F008D05A
:100098008B94000EB1EC14F08B841A0E34EC13F030
:1000A8002B6E2BB2F5D767D1316A33C029F02A6A93
:1000B8005BD12906D8A02A06305009E08B9431502C
:1000C8002C0FD96EDA6A000EB1EC14F017D08B94AD
:1000D8003450390D000E1F6E020E206E1F2A000EBE
:1000E8002022F3501F26F450202231501F24D96EAD
:1000F800000E2020DA6E000EB1EC14F0DF6E312A0B
:100108008B843350315C01E22FD1305024E02C50E5
:10011800030B020A08E142502D1801E02CD1010E10
:100128000001E76F28D1010E346401D0ADD73450F7
:10013800390D010EF324D96E020EF420DA6E2CC0AC
:10014800DFFF3450390D020EF324D96E020EF4206D
:10015800DA6E2DC0DFFF3450390D380EF324D96E16
:10016800020EF420DA6E33C0DFFF32683450390DE6
:10017800010EF324D96E020EF420DA6EDFAC33D010
:10018800356A28D03550D525D96E000ED621DA6EBD
:100198003450390D000E206E020E216E030E2026FB
:1001A800000E2122F3502026F4502122355020241D
:1001B800E16E000E2120E26EDE50E6180AE03450AF
:1001C800390D380EF324D96E020EF420DA6EDF6A88
:1001D8005BD7352A0001D431E832E8320F0B1F6EA5
:1001E8001F50355CCFE33450390D010EF324D96E1E
:1001F800020EF420DA6E0201DFAA34D0356A000E4E
:100208003524D96EDA6A010EDA2235502C0FE16EE8
:10021800E26ADFCFE7FF352A010E3564F0D7060E14
:100228000101006F3450390D020EF324D96E020E0D
:10023800F420DA6EDF50016FF0940B6A020EE4ECE2
:100248000BF0356A35502C0FD96EDA6A000E35245A
:10025800E16EE26A010EE222DFCFE7FF352A010EE6
:100268003564F0D7356A3550060D370EF324D96E4C
:10027800010EF420DA6EDF5026E03450390D020EFC
:10028800F324D96E020EF420DA6E3550060D380EBE
:10029800F324E16E010EF420E26EDE50E61813E15D
:1002A8008BEC11F03550060D390EF324D96E010E82
:1002B800F420DA6E01C0DEFF02C0DEFF03C0DEFFFD
:1002C80004C0DEFF12D032280CE13550060D370E7F
:1002D800F324D96E010EF420DA6EDF5002E135C046
:1002E80032F0352A040E3564BED7040E356443D087
:1002F800050E32602ED03250060D370EF324D96E1B
:10030800010EF420DA6E010EDF6E3450390D020E44
:10031800F324D96E020EF420DA6E3250060D380E30
:10032800F324E16E010EF420E26EDFCFE7FF8BECE1
:1003380011F03250060D390EF324D96E010EF42057
:10034800DA6E01C0DEFF02C0DEFF03C0DEFF04C0BC
:10035800DEFF3450390D000EF324D96E020EF4205E
:10036800DA6E0201DF8007D029502A1004E0A1D6F6
:10037800010E0001D96FF09400F09EB09DA006D048
:100388009E90432A435002E10001E92B96EC14F0B9
:1003980028C0F4FF27C0F3FF26C0DAFF25C0D9FF25
:1003A80024C0E2FF23C0E1FF449211000BEF11F0DB
:1003B800700E866F78D3250E8C1909E06CC0D9FFB2
:1003C8006DC0DAFF8CC0DFFF6C4B6D2B6CD38A6B72
:1003D8008B6B8D6B8E6B09D08D8705D08D8103D08B
:1003E8008E8701D08D856E4B6F2B6EC0F6FF6FC068
:1003F800F7FF0800F550200AF1E0030AF1E00E0AC1
:10040800EBE01D0AEFE08DB78D956EC0F6FF6FC06B
:10041800F7FF0800F55029EC14F02EE38A6B8B6B7C
:100428008AC060F08BC061F0636B0A0E626FB2EC39
:1004380013F060C08AF061C08BF0D00E786F7969D4
:100448006EC0F6FF6FC0F7FF0800F5507A6F7B6B40
:1004580078517A2779517B237A518A277B518B23CC
:100468006E4B6F2B6EC0F6FF6FC0F7FF0800F5509C
:1004780029EC14F014E3D4D76EC0F6FF6FC0F7FF71
:100488000800F5502A0A0BE18651D96EDA6ADECFE8
:100498008AF0DDCF8BF0020E86276E4B6F2B6EC075
:1004A800F6FF6FC0F7FF0800F5502E0A30E18E8D79
:1004B8006E4B6F2B6EC0F6FF6FC0F7FF0800F5504C
:1004C8002A0A0AE18651D96EDA6ADF50896F020E6C
:1004D80086276E4B6F2B8AD0896B0FD06EC0F6FFC4
:1004E8006FC0F7FF0800F5CF78F089510A0DF35077
:1004F8007825D00F896F6E4B6F2B6EC0F6FF6FC0DB
:10050800F7FF0800F55029EC14F070E3E7D7896B82
:100518006DD08D8D88D08D8B8D8F85D089510FE0D2
:1005280089C078F0796B78BF79078451785D8551F7
:10053800795905E28951846F856B84BF85078A5193
:10054800845D8B51855905E284518A5F85518B5BA7
:1005580002D08A6B8B6B8DB71DD008D06CC0D9FFC9
:100568006DC0DAFF200EDF6E6C4B6D2B8A07D8A0AA
:100578008B078A29F3E18B290DE0F0D78351D96ED7
:10058800DA6A6CC0E1FF6DC0E2FFDFCFE7FF832BC3
:100598006C4B6D2B8407D8A085078429EFE185294A
:1005A800EDE18DA780D208D06CC0D9FF6DC0DAFF0D
:1005B800200EDF6E6C4B6D2B8A07D8A08B078A291B
:1005C800F3E18B2901E16FD2EFD78651D96EDA6A50
:1005D800DF508C6F020E86278C0E836F000E856F9E
:1005E800010E846F9BD7C00E8D131DD06EC0F6FF11
:1005F8006FC0F7FF6E4B6F2B0800F5CF8CF08C5156
:1006080001E15DD2580A87E03B0ADFE0070A0BE008
:100618000D0A09E0060A01E17CD71A0AE4E00D0A8E
:1006280001E17AD7D9D78DC078F0C00E781712E1DA
:100638008651D96EDA6ADECF87F0DDCF88F0020EF8
:10064800862788AF10D0030E8D13876D881FD8B00A
:10065800882B09D08651D96EDA6ADECF87F0DDCFD4
:1006680088F0020E8627895147E18751881144E1B5
:10067800892B42D0010E8C6F050E8C1946E08C51E7
:10068800020D790EF324F66EFE0EF420F76E0900C3
:10069800F550875D0900F550885937E38C2BECD766
:1006A800010E8C6F040E8C1930E08C51020D830EF4
:1006B800F324F66EFE0EF420F76E0900F550875D00
:1006C8000900F550885921E38C2BECD7010E8C6F6B
:1006D800060E8C191AE08C51020D6D0EF324F66E7D
:1006E800FE0EF420F76E0900F550875D0900F550FD
:1006F80088590BE38C2BECD78D51C00BBBE0400A1B
:10070800E5E0C00ACDE0400AB5E08C51800A786F78
:100718008951800A785D03E289C08CF009D089513B
:10072800800A786F8C51800A785D02E28CC089F06B
:100738008A518B1108E08DC078F0030E781703E01A
:100748008A07D8A08B078EAD13D0800E89BF7F0E85
:10075800786F8A51895D8B51800A785907E28951EF
:100768008A5F000E89BFFF0E8B5B02D08A6B8B6B92
:10077800C40E786F080E796F8DC07AF08EC07BF04A
:1007880078517A1779517B17400E7A190AE1080EC9
:100798007B1907E18A518B1124E08A07D8A08B07BF
:1007A80020D0C00E786F080E796F8DC07AF08EC099
:1007B8007BF078517A1779517B17800E7A1911E1FD
:1007C800080E7B190EE18BBF0AD08B5103E1030E93
:1007D8008A5D05E3FE0E8A27FF0E8B2302D08A6B03
:1007E8008B6B800E8CBF7F0E786F8A518C5D8B511E
:1007F800800A785907E28C518A5F000E8CBFFF0E81
:100808008B5B02D08A6B8B6B8DA54FD08DC078F037
:10081800030E781709E06CC0D9FF6DC0DAFF2D0E02
:10082800DF6E6C4B6D2B31D08DA106D06CC0D9FF1B
:100838006DC0DAFF200EF4D7C00E786F080E796FFE
:100848008DC07AF08EC07BF078517A1779517B177A
:10085800800E7A191AE1080E7B1917E16CC0D9FFCE
:100868006DC0DAFF300EDF6E6C4B6D2B8DBB03D085
:100878007E6B780E02D07E6B580E7D6F6CC0D9FFF0
:100888006DC0DAFF7DC0DFFFCCD78A518B1101E143
:10089800F2D06CC0D9FF6DC0DAFF300EDF6E6C4B42
:1008A8006D2B8A07D8A08B07F0D78A518B1110E0DF
:1008B8008DB70ED06CC0D9FF6DC0DAFF200EDF6E89
:1008C8006C4B6D2B8A07D8A08B078A518B11F2E1EC
:1008D8008DC078F0030E781709E06CC0D9FF6DC0A1
:1008E800DAFF2D0EDF6E6C4B6D2B08D08DA106D074
:1008F8006CC0D9FF6DC0DAFF200EF4D7C00E786F38
:10090800080E796F8DC07AF08EC07BF078517A1717
:1009180079517B17400E7A190CE1080E7B1909E111
:100928006CC0D9FF6DC0DAFF300EDF6E6C4B6D2BDB
:10093800A2D0C00E786F080E796F8DC07AF08EC085
:100948007BF078517A1779517B17800E7A191BE161
:10095800080E7B1901E08FD06CC0D9FF6DC0DAFF9B
:10096800300EDF6E6C4B6D2B8DBB03D0806B780E19
:1009780002D0806B580E7F6F6CC0D9FF6DC0DAFF54
:100988007FC0DFFFD3D777D08951020D790EF324CA
:10099800F66EFE0EF420F76E0900F5CF62F00A003D
:1009A800F5CF63F087C060F088C061F0B2EC11F059
:1009B80060C067F061C068F06A6B0A0E696F7BEC13
:1009C80012F0675145D087C060F088C061F0895146
:1009D800020D830EF324F66EFE0EF420F76E090066
:1009E800F5CF62F00A00F5CF63F0B2EC11F0605178
:1009F8000F0B7C6F8DBB04D09A0E816FFF0E03D056
:100A0800890E816FFF0E826F7C518125786F000EF1
:100A18008221796F78C0F6FF79C0F7FF0800F5CF1B
:100A28008CF022D087C060F088C061F08951020D37
:100A38006D0EF324F66EFE0EF420F76E0900F5CF66
:100A480062F00A00F5CF63F0B2EC11F06051070BC9
:100A5800300F8C6F09D08D51C00B96E0400AE2E050
:100A6800C00AB1E0400A90E06CC0D9FF6DC0DAFF5F
:100A78008CC0DFFF5BD789078929EDE18DB78BBF74
:100A880012D08B5102E18A050EE36CC0D9FF6DC00C
:100A9800DAFF200EDF6E6C4B6D2B8A07D8A08B0710
:100AA8008A518B11F2E16EC0F6FF6FC0F7FF6E4BF3
:100AB8006F2B0800F5CF8CF08C5101E07CD46CC012
:100AC800D9FF6DC0DAFFDF6A000C0001DEA32DD06C
:100AD80064EC11F060C095F061C096F062C097F0C8
:100AE80063C098F0D051955D916FD1519659926F2E
:100AF800D2519759936FD3519859946F945107E1F4
:100B0800910E915DD00E9259030E93590EE3DE9328
:100B1800720E616F020E626FECC063F0EDC064F09C
:100B2800666B640E656F04EC0EF00001DEB7120010
:100B380095EC08F00009D8B41200BA6BC4A503D02C
:100B4800916B912B02D00001916BBA519119FC0B5A
:100B58009119BA6FC4A702D0BA8702D00001BA9718
:100B6800C451030BE80603E1916B912B02D00001FD
:100B7800916B913B9147BA519119DF0B9119BA6F5B
:100B8800C4AF02D0BA8D02D00001BA9DC4AF04D060
:100B9800C5C0BDF0C6C0BEF0C9C0C1F0C7C0BFF077
:100BA800C8C0C0F0CBC0C3F0CAC0C2F0BAABA7D1AE
:100BB80092D120EE01F0BF51D926C051DA22F75167
:100BC800DE1803E0FBEC13F09BD1030EFA19FAE0F0
:100BD80012EC0AF0996FFA0507E1990505E0020E93
:100BE800991902E0F30E996FE36B550EE325D96E60
:100BF800DA6A010EDA22910EDF6EE32B550EE32539
:100C0800D96EDA6A010EDA2299C0DFFFE32B550E9E
:100C1800E325D96EDA6A010EDA22DCC0DFFFE32BA6
:100C2800995102E099051AE1550EE325D96EDA6A61
:100C3800010EDA22DDC0DFFFE32B9A6B9A51F80F21
:100C4800D96EDA6A550EE325E16EE26A010EE222F8
:100C5800DFCFE7FFE32B9A2B9A51F0E0FBEC13F080
:100C6800BDC087F0BEC088F0010E896F000EBAB70C
:100C7800010E8A6F000EB5EC0DF09951A3E1DA511F
:100C88000A0D720EF324616F020EF420626FDA51BE
:100C98000A0DEC51F324636FED51F420646F666B19
:100CA8000A0E656F04EC0EF02BD1020EFA6501D026
:100CB80089D720EE01F0BF51D926C051DA22F75169
:100CC800DE1880E1E36B550EE325D96EDA6A010E72
:100CD800DA22970EDF6EE32B550EE325D96EDA6A1A
:100CE800010EDA22DDC0DFFFE32B9A6B9A51F80F71
:100CF800D96EDA6A550EE325E16EE26A010EE22248
:100D0800DFCFE7FFE32B9A2B9A51F0E0FBEC13F0CF
:100D1800BDC087F0BEC088F0010E896F000EBAB75B
:100D2800010E8A6F000EB5EC0DF0EAD0E36B550E9C
:100D3800E325D96EDA6A010EDA22920EDF6EE32B12
:100D48009A6B9A510A0D7A0EF324D96E020EF4208A
:100D5800DA6EDFAE39D0BDC060F0BEC061F0000110
:100D68009A510A0D720EF324626F020EF420636F1B
:100D78004BEC13F0000928E09A510A0D7A0EF3247F
:100D8800D96E020EF420DA6EDF6A9A510A0D720EDD
:100D9800F324616F020EF420626F9A510A0DEC5130
:100DA800F324636FED51F420646F666B0A0E656F70
:100DB80004EC0EF0550E0001E325D96EDA6A010E37
:100DC800DA22DF6AE32B05D000019A2B090E9A6517
:100DD800B8D7FBEC13F00A0E9A1909E1550EE32572
:100DE800D96EDA6A010EDA22F00EDF6EE32BBDC08F
:100DF80087F0BEC088F0010E896F000EBAB7010EE9
:100E08008A6F000EB5EC0DF07BD012EC0AF0DE8391
:100E180064EC11F060C0D0F061C0D1F062C0D2F0D3
:100E280063C0D3F0CFD620EE01F0BF51D926C05110
:100E3800DA22DF50EAE0010AE8E0C4D6DEBBDE9B36
:100E4800C1D620EE01F0BF51D926C051DA22DF50B9
:100E580001E0B8D69A6B9A510A0D7A0EF324D96E2E
:100E6800020EF420DA6EDFAE30D0BDC060F0BEC036
:100E780061F000019A510A0D720EF324626F020E9E
:100E8800F420636F4BEC13F000091FE09A510A0D30
:100E98007A0EF324D96E020EF420DA6EDF6A9A51C4
:100EA8000A0D720EF324616F020EF420626F9A51DC
:100EB8000A0DEC51F324636FED51F420646F666BF7
:100EC8000A0E656F04EC0EF07DD600019A2B090E10
:100ED8009A65C1D777D6BFC0D9FFC0C0DAFFDF5047
:100EE800810A01E166D6030A01E120D7050A01E17A
:100EF800DCD6160A98E0030AA4E0050A9FE0DE871C
:100F08000001C15102E0DEAB1200DE97FBEF13F0E7
:100F18002FEC10F006EC13F0000901E01200EFECE2
:100F28000FF0B56FF6D0E36BE86B140EE86501D0EF
:100F380022D0060E606FE5518BEC13F0150D2D0EC7
:100F4800AE6FFD0EAF6FF350AE27F450AF23E851EC
:100F5800AE27000EAF23AEC0F6FFAFC0F7FF550EA9
:100F6800E325D96EDA6A010EDA220800F5CFDFFF31
:100F7800E32BE82BDAD7E52B000E82EC14F0E2C065
:100F880091F0E42BE451B9EC14F0030E0001616F09
:100F9800E80E606FE6EC0CF0A9EF14F0010EF96FA3
:100FA800B86B010EB66FB1D038EC14F038EC14F011
:100FB800780E6C6F010E6D6F5D0E6E6FFF0E6F6FAA
:100FC800B8C070F0716BB8510A0D720EF324D96E67
:100FD800020EF420DA6EDF50726F736BB8510A0D8F
:100FE800730EF324D96E020EF420DA6EDF50746F9C
:100FF800756BB8510A0D740EF324D96E020EF420E5
:10100800DA6EDF50766F776BDCEC01F0880E6C6F70
:10101800010E6D6FCD0E6E6FFF0E6F6FDCEC01F081
:1010280061EC14F061EC14F0010E0001F96F6BD063
:10103800EFEC0FF0B76F06EC13F0B70547E1B66BAE
:10104800F96BE62BE36BE86B0A0EE86501D022D05A
:10105800060E606FE6518BEC13F00B0DAB0EAE6F06
:10106800FD0EAF6FF350AE27F450AF23E851AE2713
:10107800000EAF23AEC0F6FFAFC0F7FF550EE32555
:10108800D96EDA6A010EDA220800F5CFDFFFE32B0A
:10109800E82BDAD7E62B010E956FB851B7EC12F0B2
:1010A800000903E18CEC14F002D00001E42BE2C04B
:1010B80091F0E451B9EC14F0030E0001616FE80EF1
:1010C800606FE6EC0CF0A9EC14F01FD0020EB71913
:1010D8001AE1B851AE6FAF6BFE0EB06FB169F65141
:1010E800B26FB36BB051B227B151B323AE51B25DF9
:1010F800B351800AB46FAF51800AB45902E2B86B99
:1011080001D0B82BF96BF95193E1B60501E14CD741
:101118001200B551010A01E106D7030A01E13ED7E1
:101128001200776B64EC11F060C072F061C073F06C
:1011380062C074F063C075F07751060D370EF32462
:10114800D96E010EF420DA6EDF503FE07751060DBC
:10115800390EF324D96E010EF420DA6E7251DE5C7A
:101168007351DE587451DE587551DE582EE27751AE
:10117800060D390EF324D96E010EF420DA6EDECF97
:101188006AF0DECF6BF0DECF6CF0DECF6DF06A5127
:10119800725D6E6F6B5173596F6F6C517459706FCC
:1011A8006D517559716F715107E1910E6E5DD00ED9
:1011B8006F59030E705909E37751060D370EF32462
:1011C800D96E010EF420DA6EDF6A772B040E77658C
:1011D800A9D7E12901E0000C776B7751390D000E92
:1011E800F324D96E020EF420DA6EDFA055D0000188
:1011F8007751390D010EF324D96E020EF420DA6E00
:10120800DF50C46F7751390D380EF324D96E020EB2
:10121800F420DA6EDF50C96F020E766FC4AD05D0C8
:10122800D431E832E8320F0B7627C4AF19D07751A2
:10123800390D000E6A6F020E6B6F6A2B000E6B235E
:10124800F3506A27F4506B2376516A25C56F000E58
:101258006B21C66FD431E832E8320F0B762702D003
:10126800C56BC66B7651C95F7751390D000E6A6F31
:10127800020E6B6F6A2B000E6B23F3506A27F45033
:101288006B2376516A25C76F000E6B21C86FE0C0CB
:10129800CAF077C0E1F0010C0001772B010E7765E9
:1012A8009CD7000C726F6BEC10F0DE6B725129E169
:1012B800766B76510A0D7A0EF324D96E020EF4205D
:1012C800DA6EDF6A76510A0D720EF324D96E020EB9
:1012D800F420DA6EDF6A76510A0D730EF324D96EA4
:1012E800020EF420DA6EDF6A76510A0D740EF324CA
:1012F800D96E020EF420DA6EDF6A762B090E766557
:10130800D8D7E36B766B762B090E7665FCD77251CE
:1013180039E0F70E616F626BEEC063F0EFC064F006
:10132800666B010E656F39EC11F01F0E0001F76551
:1013380001D01F0CFA0E616F626BEAC063F0EBC05C
:1013480064F0666B010E656F39EC11F0720E0001E6
:10135800616F020E626FECC063F0EDC064F0666B03
:10136800640E656F39EC11F0F60E0001616F626B67
:10137800F0C063F0F1C064F0666B010E656F39EC84
:1013880011F027D0F70E616F626BEEC063F0EFC00B
:1013980064F0666B010E656F04EC0EF0FA0E000146
:1013A800616F626BEAC063F0EBC064F0666B010EBC
:1013B800656F04EC0EF0720E0001616F020E626F31
:1013C800ECC063F0EDC064F0666B640E656F04EC0E
:1013D8000EF0990E0001746F010E756F73837351CF
:1013E800870B4009736F72B102D0739502D0000168
:1013F8007385739173C06EF074C06FF075C070F030
:1014080052EC0EF00001F751EDEC12F00001DD6B2B
:10141800DD81FA39F00BDD13F08A120000016E6BE2
:101428006F69706B70510A0D7A0EF324D96E020E33
:10143800F420DA6EDFAE16D0BDC060F0BEC061F039
:10144800000170510A0D720EF324626F020EF4202F
:10145800636F4BEC13F000090AE070C06FF0010EE7
:101468006E6F09D000016F2902E170C06FF0702B18
:10147800090E7065D7D76F2901E1F10CFA5103E025
:1014880000016E5112006FC0DCF0706B7051BD2509
:10149800D96E000EBE21DA6E6F510A0D720E6A6F98
:1014A800020E6B6FF3506A27F4506B2370516A2554
:1014B800E16E000E6B21E26EDFCFE7FF702B070EA7
:1014C8007065E4D76F510A0D7A0EF324D96E020EB7
:1014D800F420DA6EDF8E000120EE02F0BF51D9262B
:1014E800C051DA22DF506A6F010E6A176F510A0D78
:1014F8007A0EF324D96E020EF420DA6EDF506A19E0
:10150800FE0B6A19DF6E706B7051BF256A6F000E93
:10151800C0216B6F030E6A25D96E000E6B21DA6E3F
:101528006F510A0D720E6C6F020E6D6F090E6C27EB
:10153800000E6D23F3506C27F4506D2370516C2509
:10154800E16E000E6D21E26EDFCFE7FF702B705168
:10155800DBE06FC0DAF0DE9976EC13F0F66FF60E8A
:10156800616F626BF0C063F0F1C064F0666B010EEE
:10157800656F04EC0EF084D77C6F030E0001786F62
:1015880088D0796BE76B776B6A5119E0280ED3EC3A
:1015980012F07A6FD8907A33410E7A6510D0772B93
:1015A80077056B6F040E6B6501D0000C010E606F40
:1015B800000E616B626B636BD0EC14F0E7D7F09AA6
:1015C800200EA1EC10F01A0E0001626FC90E616FB7
:1015D80061EC13F000017C519FEC13F000017D6B6E
:1015E8000BD0000E7D25D96EDA6A010EDA22DF50A3
:1015F8009FEC13F000017D2B7C517D5DF2E3800EA2
:10160800A1EC10F0F08A0001D95102E1F0A4FBD757
:10161800D96B200EA1EC10F0600EA1EC10F00101C6
:1016280000AB0ED001C142F064EC11F060C06FF065
:1016380061C070F062C071F063C072F0E75104E0FD
:10164800010E00017B6F2AD064EC11F060C073F0CA
:1016580061C074F062C075F063C076F06F51735D5D
:101668006B6F705174596C6F715175596D6F725100
:1016780076596E6F6E516D1105E1D50E6B5D300EAA
:101688006C59DCE3792B79056B6F040E6B6101D023
:1016980079D77807782901E074D77B6B7B511200E2
:1016A800FAC0A0F0030EA16FA66B64EC11F09B05C5
:1016B80001E1FF0C64EC11F060C0A2F061C0A3F07E
:1016C80062C0A4F063C0A5F0900EA25FD00EA35B29
:1016D800030EA45B000EA55BFA6BDE896BD064EC8D
:1016E80011F060C0A7F061C0A8F062C0A9F063C0A3
:1016F800AAF0A251A75D9C6FA351A8599D6FA45150
:10170800A9599E6FA551AA599F6F9F5107E1910E44
:101718009C5DD00E9D59030E9E5946E3A7C0A2F0CA
:10172800A8C0A3F0A9C0A4F0AAC0A5F0A607A6293E
:1017380041E1010EA66FA107A12902E1DE99FF0C84
:10174800E36B550EE325D96EDA6A010EDA22810EB3
:10175800DF6EE32B550EE325D96EDA6A010EDA2225
:10176800F7C0DFFFE32B550EE325D96EDA6A010EC9
:10177800DA22DDC0DFFFE32BAB6BAB51F80FD96E7C
:10178800DA6A550EE325E16EE26A010EE222DFCF46
:10179800E7FFE32BAB2BAB51F0E0876B886B010EB7
:1017A800896F8A6BB5EC0DF0C0EC14F0000902E00B
:1017B800C5EC14F0DEB993D7A0C0FAF0DA511200E4
:1017C800106E030E1B6E84D01C6A0001E76B1A6A48
:1017D8000B5019E0280E34EC13F01D6ED8901D3212
:1017E800410E1D6410D01A2A1A040C6E040E0C64E3
:1017F80001D0040C010E016E000E026A036A046A2D
:10180800D2EC14F0E7D7F09A200ED7EC10F01A0EAD
:10181800036EC90E026EC5EC13F01050EAEC13F01B
:101828001E6A0AD0000E1E24D96EDA6A010EDA2268
:10183800DF50EAEC13F01E2A10501E5CF3E3800E12
:10184800D7EC10F0F08A0001D95102E1F0A4FBD7DF
:10185800D96B200ED7EC10F0600ED7EC10F0010118
:1018680000AB0ED001C142F08BEC11F001C012F0B8
:1018780002C013F003C014F004C015F0E75103E0F0
:10188800010E116E010C8BEC11F001C016F002C0B4
:1018980017F003C018F004C019F01250165C0C6E53
:1018A800135017580D6E145018580E6E15501958BD
:1018B8000F6E0F500E1005E1D50E0C5C300E0D5852
:1018C800DDE31C2A1C040C6E040E0C6001D07DD7CD
:1018D8001B061B2801E078D7116A1200230E8365C6
:1018E80001D0000C7EB503D0846B842B02D000019C
:1018F800846B843B844784477E518419BF0B8419C9
:101908007E6F7E8F7E51030BE80601E17E8F7EC0DD
:1019180000F1DBC001F1DB2B020E856F7EAD1AD022
:10192800866B10D086517F25D96E000E8021DA6E25
:10193800000E8525E16EE26A010EE222DFCFE7FFA5
:10194800852B862BD431E832E8320F0B846F845113
:10195800865DE8E37EAF1AD0866B10D08651D52518
:10196800D96E000ED621DA6E000E8525E16EE26A88
:10197800010EE222DFCFE7FF852B862BD431E83238
:10198800E8320F0B846F8451865DE8E3866B10D0D4
:1019980086518125D96E000E8221DA6E000E8525CA
:1019A800E16EE26A010EE222DFCFE7FF852B862B8C
:1019B8008351865DEDE3000ED4B3010E6A6F855145
:1019C800C0EF0AF06051626F6151636F646B656BC1
:1019D800D00E6203F3CF66F0F4CF67F0686B696BE3
:1019E8006303F3506727F4506823000E6923070E3A
:1019F8006203F3506727F4506823000E6923D00E62
:101A08006403F3506827F4506923070E6303F35007
:101A18006827F4506923000E6203F3506827F450D6
:101A28006923D00E6503F3506927070E6403F3504A
:101A38006927000E6303F3506927000E6203F35011
:101A4800692766C06AF067C06BF068C06CF069C04F
:101A58006DF0560E6A27FF0E6B236C236D236DBF46
:101A6800FF0C6D516C116B110CE1C40E6A5D09E23B
:101A7800120000F0D90E00016A27FF0E6B236C23B9
:101A88006D236DBF12006D516C116B11F2E16A0587
:101A9800F0E212000150036E0250046E056A066AF5
:101AA800D00E0302F3CF07F0F4CF08F0096A0A6AF0
:101AB8000402F3500826F4500922000E0A22070EE9
:101AC8000302F3500826F4500922000E0A22D00E11
:101AD8000502F3500926F4500A22070E0402F350B7
:101AE8000926F4500A22000E0302F3500926F45086
:101AF8000A22D00E0602F3500A26070E0502F350FA
:101B08000A26000E0402F3500A26000E0302F350C0
:101B18000A2607C00BF008C00CF009C00DF00AC077
:101B28000EF0560E0B26FF0E0C220D220E220EBEB4
:101B3800FF0C0E500D100C100BE1C40E0B5C08E2EC
:101B4800120000F0D90E0B26FF0E0C220D220E22D9
:101B58000EBE12000E500D100C10F3E10B04F1E252
:101B680012008D6F00018E6B895103E08B6B8B2BFC
:101B780002D000018B6B8E518B19FC0B8B198E6F69
:101B88008D5103E18B6B8B2B02D000018B6B8B3B50
:101B98008B478E518B19DF0B8B198E6F8DB102D04D
:101BA8008E9502D000018E858AB102D08E9702D020
:101BB80000018E878D5103E18B6B8B2B02D00001C6
:101BC8008B6B8B3B8B478B478E518B19BF0B8B19BC
:101BD8008E6F8E8F87C08FF088C090F08EC07EF099
:101BE8008FC07FF090C080F0550E816F010E826F1C
:101BF800E3C083F072EC0CF08C6FE36B8C51120035
:101C0800000EF0BA010E686FF09A8C9A050EA0ECDF
:101C180014F0000EA0EC14F00001696F8C8ACCEC73
:101C280014F0000169B1F1D78C9A060EA0EC14F0FB
:101C38008C8ACCEC14F08C9A020EA0EC14F0000103
:101C48006451A0EC14F000016351A0EC14F0000101
:101C5800696B1AD061C0D9FF62C0DAFFDF50A0EC0F
:101C680014F00001614B622B6507D8A06607692B49
:101C780069516325676F3F0E671706E18C8A6951C2
:101C88006327000E6423C1D765516611E3E18C8A8E
:101C980068B102D0F09A01D0F08A12006EC0D4F078
:101CA8006FC0D5F070C0D6F0616B140E606FE6ECB3
:101CB8000CF08D828B84D6CFDBF0E169716B7151AA
:101CC800390D000EF324D96E020EF420DA6EDF6AA5
:101CD800712B010E7165F3D7716B7151020DED0E09
:101CE800F324F66EFD0EF420F76E0900F5CF61F0CF
:101CF8000A00F5CF62F061EC13F00001712B1F0EA2
:101D08007165EBD7200EA1EC10F00001626B460E56
:101D1800616F61EC13F0400EA1EC10F01C0E000195
:101D2800626F0F0E616F61EC13F0600EA1EC10F0A2
:101D3800F094F08A1200676F1F0E0001676501D0EA
:101D4800000C0C0E626F640E616F61EC13F02D0EC7
:101D580000016725F66EF76AFE0EF7220800F5CF38
:101D680066F0000E6611616F0E0E626F61EC13F083
:101D78004D0E00016725F66EF76AFE0EF722080081
:101D8800F5CF66F0000E6611616F100E626F61ECA0
:101D980013F0200EA1EC10F00001626B460E616F8B
:101DA80061EC13F0400EA1EC10F01C0E0001626F04
:101DB8000F0E616F61EC13F0200EA1EC10F0600EB5
:101DC800A1EC10F0010CAC6F990E0001666F010ECA
:101DD800676F2AEC0FF0AC510BE0010E56EC09F0DE
:101DE800240E8F6FFF0E906F916B926B1DEF12F0A8
:101DF80089948996000E56EC09F0190EEDEC12F054
:101E0800000903E1190ED1EC14F0000E9AEC12F05F
:101E1800000E0001946F190E5CEC12F09B6B54ECF1
:101E28000BF0E86FE82906E0010E946F190E5CECE0
:101E380012F009D00A0E6A6F000E6B6B6C6B6D6B3B
:101E48006E6B54EC14F08984A9EF14F06A6B6A5134
:101E5800665D686F000E6759696F070E6825616FC8
:101E6800000E6921626F6A51FA0F636F010E646F89
:101E7800D7EC11F000016A2B020E6A65E8D720EE54
:101E880004F06651D9266751DA22DF6820EE03F0A4
:101E98006651D9266751DA22FE0EDF6E6A6B6A51E7
:101EA800665D686F000E6759696F020E6825616F7D
:101EB800000E6921626F6A51FD0F636F010E646F36
:101EC800D7EC11F000016A2B020E6A65E8D7020C04
:101ED8003C503D5C04E34050415CD8B0120071B006
:101EE800FED73C503D5C15E23D50360FD96EDA6A9C
:101EF800DF50756E3D2A3C503D18D8A41200405062
:101F0800D8A412007184010E026E2C0E016E4EEFE1
:101F18000DF04050415CD8B01200780E4124D96EC3
:101F2800DA6A010EDA22DF5008E1780E4124D96E10
:101F3800DA6A010EDA22200EDF6E780E4124D96E9D
:101F4800DA6A010EDA22DF50756E412A40504118D4
:101F5800D9E012007B0ED36EC090F26A550EA76EC0
:101F6800AA0EA76E0E01FF91060EE96F130EF66F0B
:101F7800050ED76F550EA76EAA0EA76EFF810F012B
:101F880048693F0E496FF19E926893689468956816
:101F98009668896A8A6A8C6A8D6A95948C84949CFE
:101FA8008B9C9380938492949296958E9386958633
:101FB800938A949E9398C00EC76E210EC66E949411
:101FC80096928B848D82F18696908D80959A8C8AD4
:101FD800F28EFBEF11F081B00FD0DF513BE1010E23
:101FE800DF6F64EC11F060C0CCF061C0CDF062C06E
:101FF800CEF063C0CFF0010C81B40FD0DF512AE1DD
:10200800010EDF6F64EC11F060C0CCF061C0CDF060
:1020180062C0CEF063C0CFF0020C64EC11F060C077
:102028006EF061C06FF062C070F063C071F0CC51A7
:102038006E5D6A6FCD516F596B6FCE5170596C6F71
:10204800CF5171596D6F6D516C1103E1400E6B5D8D
:1020580001E3DF6B000C81A081B412000001AC6BBE
:1020680038EC14F0780E6C6F010E6D6FED0E6E6F1C
:10207800FF0E6F6F000E716F190E706FDCEC01F0C0
:10208800880E6C6F010E6D6F730E6E6FFF0E6F6FA3
:1020980099C170F0716B9AC172F0736B9BC174F047
:1020A800756BDCEC01F061EC14F00DD09B6B54EC1B
:1020B8000BF0EFEC0FF0AD6FAD0503E0020EAD19BC
:1020C80002E1010EAC6F0001AC51F0E01200010E0C
:1020D8000001656FD76BD86B616B020E606FF20EF3
:1020E800626F1DEC13F06517616B010E606FEE0EE9
:1020F800626F1DEC13F06517616B010E606FEA0EDD
:10210800626F1DEC13F06517616B640E606FEC0E67
:10211800626F1DEC13F06517616B040E606FF40EAF
:10212800626F1DEC13F06517616B010E606FF00EA6
:10213800626F1DEC13F0651712000001646F27D061
:10214800626B860E616F61EC13F0800E3E6E800C40
:10215800626B660E616F61EC13F0600E3E6E600C90
:10216800626B460E616F61EC13F0400E3E6E400CE0
:10217800626B260E616F61EC13F0200E3E6E200C30
:10218800626B060E616F61EC13F03E6A120000018B
:102198006451F6E0200AECE0600AE2E0200AD8E0A8
:1021A800E00ACEE01200056E27D0036A860E026EA2
:1021B800C5EC13F0800E3E6E800C036A660E026E4C
:1021C800C5EC13F0600E3E6E600C036A460E026E9C
:1021D800C5EC13F0400E3E6E400C036A260E026EEC
:1021E800C5EC13F0200E3E6E200C036A060E026E3C
:1021F800C5EC13F03E6A12000550F7E0200AEDE046
:10220800600AE3E0200AD9E0E00ACFE0120002EE1B
:1022180000F0D60EEE6AE806FDE101EE00F0A10E30
:10222800EE6AE806FDE100EEBAF03E0EEE6AE80658
:10223800FDE100EE36F00E0EEE6AE806FDE19C0EBA
:10224800F66E290EF76E000EF86E0900F5CFF8F05D
:102258000900F5CFF9F00900F5CFFAF0449044925F
:10226800000EF86E00010BEF14F0000EF0BA010E2C
:10227800676FF09A8C9A030EA0EC14F00001645179
:10228800A0EC14F000016351A0EC14F00ED0000E85
:10229800A0EC14F061C0D9FF62C0DAFFDF6E000164
:1022A800614B622B6507D8A066070001655166116E
:1022B800EEE18C8A67B102D0F09A01D0F08A120060
:1022C8009D900001686B696B656BCECF66F0CFCFD0
:1022D80067F0662908E1672906E1652B6505646FE3
:1022E800020E6465F2D79EA004D0682B432801E152
:1022F800692B43506827E95169279D8066C060F0C3
:1023080067C061F068C062F069C063F012009D9018
:10231800096A0A6A066ACECF07F0CFCF08F0072805
:1023280008E1082806E1062A0604056E020E05647F
:10233800F2D79EA004D0092A432801E10A2A435073
:1023480009260001E9510A269D8007C001F008C04E
:1023580002F009C003F00AC004F01200656B666B56
:10236800625163111BE0010E646F04D0D89062378C
:102378006337642B63AFFAD7D890653766376251F5
:10238800605D6351615905E36251605F6351615B50
:102398006581D89063336233642FEED765C060F0EF
:1023A80066C061F01200000EF2BE010E656FF29E6B
:1023B8008D90030EA0EC14F000016351A0EC14F012
:1023C8000CD0000EA0EC14F061C0D9FF62C0DAFF97
:1023D800DF6E0001614B622B640700016451F1E17B
:1023E8008D8065B102D0F29E01D0F28E1200530E9C
:1023F8009512A49E736AF00E746E280E726E716A3E
:10240800A38EF28EF28C010E0001616F2C0E606FAC
:10241800E6EC0CF07C0E366E810E376E386A606B17
:10242800030E6DEC14F00001616BC80E606FE6EFEF
:102438000CF038EC14F0780E6C6F010E6D6F8FC0D5
:102448006EF090C06FF091C070F0716BDCEC01F031
:1024580061EC14F000019251D8B41200936B616BD7
:10246800FA0E606FE6EC0CF0932B070E9365F7D726
:10247800070C906F38EC14F0780E6C6F010E6D6FCE
:10248800BC0E6E6FFF0E6F6F90C070F0716BDCEC5E
:1024980001F0880E6C6F010E6D6FAB0E6E6FFF0E44
:1024A8006F6F8FC070F0716BDCEC01F061EF14F0AE
:1024B800956F000194510BE18B0E8F6FFE0E906F9C
:1024C80095C091F0010E926F1DEC12F00AD0CB0E60
:1024D8008F6FFE0E906F95C091F0010E926F1DECFC
:1024E80012F0030E616FE80E606FE6EF0CF06951B1
:1024F8006A1117E0010E6B6F04D0D89069376A37FC
:102508006B2B6AAFFAD76951675D6A51685904E362
:102518006951675F6A51685BD8906A3369336B2F7A
:10252800F2D767C067F068C068F0120000016B6FEF
:10253800030E6B6501D0030C6BC0FAF0FAC06AF0A9
:102548006A3BF00E6A17DD510F0B6A11DD6FFA0E48
:10255800616F626BEAC063F0EBC064F0666B010EFA
:10256800656F04EF0EF0966F000196510A0D7A0E12
:10257800F324D96E020EF420DA6E0201DFAE000CED
:10258800000196510A0D720EF324916F020EF42089
:10259800926F010E936F95C094F078EF14F00001DC
:1025A800616F000EF0BA010E636FF09A8D92618D23
:1025B8006151A0EC14F0000EA0EC14F00001626F61
:1025C8008D8263B102D0F09A01D0F08A0001625185
:1025D80012006A6F0001656B6A519FEC0EF00009EA
:1025E80010E06AC0F7F0F70E0001616F626BEEC091
:1025F80063F0EFC064F0666B010E656F04EC0EF0DB
:10260800010C000CC0EC14F00009D8B41200E22B45
:10261800E2C091F0E451B9EC14F08976070E00019C
:10262800616FD00E606FE6EC0CF0A9EC14F0C5EF0A
:1026380014F06051D725636F6151D821646F630529
:10264800800E645901E3000C6251D96EDA6AD7C072
:10265800DEFFD8C0DDFF6051D7276151D823010CB8
:10266800026E000EF0BA010E046EF09A8D92028C82
:102678000250B1EC14F0000EB1EC14F0036E8D8230
:1026880004B002D0F09A01D0F08A03501200666BB1
:1026980066516225D96E000E6321DA6E6651602597
:1026A800E16E000E6121E26EDE50E61801E0000CDA
:1026B800662B070E6665ECD7010C000EF0BA010E0A
:1026C800636FF09A8D926251A0EC14F00001615191
:1026D800A0EC14F08D82000163B102D0F09A01D011
:1026E800F08A1200606B616B61510A0D7A0EF32457
:1026F800D96E020EF420DA6EDFAE02D00001602B34
:102708000001612B090E6165EFD760511200616FFE
:10271800080E0001626F636BD89061356335636F93
:10272800D89061376051635D02E36051635F622F47
:10273800F3D763511200616F000EF0BA010E000169
:10274800626FF09A8B946151A0EC14F08B840001B5
:1027580062B102D0F09A01D0F08A1200605162038F
:10276800F3CF64F0F4CF65F060516303F35065274D
:1027780061516203F350652764C060F065C061F081
:102788001200000EF0BA010E046EF09A8D920350FA
:10279800B1EC14F00250B1EC14F08D8204B002D008
:1027A800F09A01D0F08A1200410E8F6FFF0E906FE1
:1027B800916B926B1DEC12F0EFEC0FF0946F940597
:1027C80001E1000C020E9419F7E1010C026E000EF3
:1027D800F0BA010E036EF09A8B940250B1EC14F02B
:1027E8008B8403B002D0F09A01D0F08A1200020E56
:1027F8000001E161020CE151390D000EF324D96E9C
:10280800020EF420DA6E000EDF6AE1691200AEEC07
:102818000FF047EC14F01AEC14F0D8EC13F0B96F81
:10282800B951E7EC0EF0CAEC14F0FDD7EA0E8F6F41
:10283800FE0E906F916B010E926F1DEC12F0070E59
:10284800616FD00E606FE6EF0CF0626F0001616B94
:102858003A0E626105D02F0E626502D0010E616FDB
:1028680061C060F0603112000001606B780E602575
:10287800D96EDA6A010EDA22200EDF6E602B1F0E87
:102888006065F4D71F0C380ECD6E9A6ACF6ACE6A8F
:10289800CECF3AF0CFCF3BF09E909D80C8EF14F09A
:1028A8006F6F04D064EC11F064EF11F000016F5108
:1028B800F9E0010AD8A4030A12007C0E366E320E23
:1028C800376E386A200E396E0001606F040E6DEFA6
:1028D80014F0616F71B4FED73D6A416A61C03CF083
:1028E80060C040F07180120091C087F092C088F0FB
:1028F800000E896B94C08AF0B5EF0DF0916F00015E
:10290800876B886B896B91C08AF0010EB5EF0DF06B
:10291800DD0E00018F6FFF0E906F916B010E926FAD
:102928001DEF12F0A4AE1200A49E6CEC0FF0026A28
:10293800050E016E4EEF0DF00001606FC69E60C07F
:10294800C9FFC7A0FED7C9501200240E8F6FFF0E13
:10295800906F916B926B1DEF12F0016EC69E01C0D5
:10296800C9FFC7A0FED7C9501200926F91C08FF05F
:10297800000192513DEF12F069EC05F0DEB7010C51
:10298800000CDE97FBEF13F0CD8012008CEF07F000
:0E29980000F0120001010300120012001200F4
:10FD2C000020B2202020B22020B220B2202020209F
:10FD3C0020B220B20D0AB220B220B220B220202074
:10FD4C00B22020B22020B220200D0AB22020B220F6
:10FD5C0020B220B220B22020B22020B220B20D0A54
:10FD6C00B22020B22020B220B22020B220B220B289
:10FD7C002020B20D0AB22020B22020B220B22020C6
:10FD8C0020B220B2202020B20D0A202020202020DA
:10FD9C00202020202020202020202020200D0AB2EE
:10FDAC00B2B22020B2B2B2B20D0AB22020B220B24E
:10FDBC002020200D0AB22020B220B2B2B2B20D0A1D
:10FDCC00B22020B220B22020200D0AB2B2B22020E4
:10FDDC00B2B2B2B20D0A2020202020202020200D0B
:10FDEC000A26008402090409060C08C10A770C6370
:10FDFC000E19100012001400163818C81A0D1C0029
:10FE0C001E72203822382407260028002A692C81EB
:10FE1C002E7E309632F83488364038003AE83C0072
:10FE2C003E535353535353535353535353535353AB
:10FE3C00535353535354545454545454545454547B
:10FE4C00541D202225282B2E303336393C3F41447B
:10FE5C00474A4D4F520A0D101215181B1E2023260F
:10FE6C002901000800400000020010008001000A77
:10FE7C00006400E80310270100100000010010438B
:10FE8C006F6E6E656374696E6720506565722020B5
:10FE9C006F6E204368616E6E656C20256420005285
:10FEAC004230203A20556E696361737420202052D1
:10FEBC004232203A204E657874204E6F64650020E3
:10FECC00436F6E6E656374656420506565722020A7
:10FEDC006F6E204368616E6E656C202564005369FB
:10FEEC006D706C65205032502020202020204D5207
:10FEFC004638395841204E6F6465005043203A52C1
:10FF0C004230206F72205242322020746F20427295
:10FF1C006F616463617374005242303A2042726FB5
:10FF2C0061646361737420205242323A20556E69C9
:10FF3C0063617374005242303A4E6577204E65749B
:10FF4C00776F726B205242323A467265657A6572EF
:10FF5C00005242303A253032642D2530327825302B
:10FF6C0032782530327800416464726573733A20BC
:10FF7C0025303278253032782530327800303132E5
:10FF8C0033343536373839414243444546003031F5
:10FF9C003233343536373839616263646566005202
:10FFAC0058204D657373616765733A20253364007F
:10FFBC005458204D657373616765733A202533641B
:10FFCC00005242323A2043686E6765206E6F64655A
:10FFDC000020556E6963617374204661696C6564B9
:0CFFEC00002043683A2530326400000019
:08FFF800ACF6D8FFFFF9FFF1A0
:00000001FF
