:04000000C6EF00F057
:100008004382D9CF14F0DACF15F0F3CF16F0F4CF3E
:1000180017F0F0B6F0A0A2D0F090620EDCEC1CF065
:10002800196E19A00FD0339033BC339C0001D86BE4
:10003800D96B33A207D0480EDCEC1CF0186E18B050
:100048003384339219A683D01B681C6A1C50450D53
:10005800280EF324D96E020EF420DA6EDF5003E185
:100068001CC01BF004D01C2A010E1C64EFD7020E22
:100078001B6068D0040E026E730E06EC1DF01B5058
:10008800450D280EF324D96E020EF420DA6E030E05
:10009800036E026A04EC1AF0020FDF6E1B50450D66
:1000A800280EF324D96E020EF420DA6E440EDF60B7
:1000B8003FD0338A010E1C6E1AD01B50450D280EF6
:1000C8000F6E020E106EF3500F26F45010221C50C3
:1000D8000F24D96E000E1020DA6E000E1C24026E5A
:1000E800036A030E032204EC1AF0DF6E1C2A1C506C
:1000F8000F6E106A1B50450D280EF324D96E020EA0
:10010800F420DA6EDF50116E126A020E1126000E0C
:1001180012220F50115C1250800A136E1050800A80
:100128001358CBE2010E026E1B0E06EC1DF005D033
:10013800010E026E1B0E06EC1DF0026A730E06EC31
:100148001DF005D0010E026E1B0E06EC1DF019A85D
:1001580005D0800E026E590E06EC1DF09EB09DA0D3
:1001680005D09E90382A385001E1392AEBEC1DF071
:1001780017C0F4FF16C0F3FF15C0DAFF14C0D9FF8B
:10018800439211006EEF17F07CEC1AF01DC0B8F026
:100198001EC0B9F01FC0BAF020C0BBF07CEC1AF04A
:1001A8001DC0BDF01EC0BEF01FC0BFF020C0C0F013
:1001B800415028E0010114510001BD5DAD6F0101FE
:1001C80015510001BE59AE6F010116510001BF590A
:1001D800AF6F010117510001C059B06F810EAD5DBD
:1001E800D10EAE59F00EAF59080EB05932E35BECA0
:1001F80019F0BDC014F1BEC015F1BFC016F1C0C0E2
:1002080017F127D0010110510001BD5DAD6F01014B
:1002180011510001BE59AE6F010112510001BF59C1
:10022800AF6F010113510001C059B06FB05107E120
:10023800710EAD5D380EAE59390EAF590AE3B8EC00
:100248001BF0BDC010F1BEC011F1BFC012F1C0C09B
:1002580013F1010110510001B85DAD6F0101115199
:100268000001B959AE6F010112510001BA59AF6FBF
:10027800010113510001BB59B06FB05107E1710E74
:10028800AD5D380EAE59390EAF590CE341500AE056
:10029800CFEC0EF0B8C010F1B9C011F1BAC012F12C
:1002A800BBC013F1E2A336D07CEC1AF01DC0B1F04C
:1002B8001EC0B2F01FC0B3F020C0B4F00101045159
:1002C8000001B15DAD6F010105510001B259AE6F7A
:1002D800010106510001B359AF6F01010751000137
:1002E800B459B06FB05107E1910EAD5DD00EAE5963
:1002F800030EAF590FE3E293500E1E6E030E1F6EEE
:100308003EC020F03FC021F0010E236E180E226E71
:10031800B3EC15F00001E2B7120029EC08F000096F
:10032800D8B412000001B56BC76B25A403D0AD6B20
:10033800AD2B02D00001AD6BC751AD19FC0BAD1947
:10034800C76F25A602D0C78702D00001C7972550DE
:10035800030BE80603E1AD6BAD2B02D00001AD6BDA
:10036800AD3BAD47C751AD19DF0BAD19C76F25AE12
:1003780002D0C78D02D00001C79D25AE04D026C08B
:10038800CAF027C0CBF02EC0C8F02FC0C9F02AC0D1
:10039800CEF028C0CCF029C0CDF02CC0D0F02BC0B6
:1003A800CFF0C7ABB3D290D241500AE0C36B20EE76
:1003B80001F0CC51D926CD51DA22FC51DE1803E0E8
:1003C800C8EC1DF0A4D2030EFF19FAE0C82902E117
:1003D800C9290BE0EC51C81903E1ED51C91905E031
:1003E800020ECE6502D0F20E02D0D3EC11F0C36F2C
:1003F80020EE03F0CC51D926CD51DA22AA0EDE1810
:100408001EE1C16B130EC16501D019D0CAC01DF021
:10041800CBC01EF0C1510E0D540EF3241F6E030EF7
:10042800F420206EC6EC1CF0000907E0140EC1256C
:10043800D96EDA6A020EDA22DF68C12BE3D7FF052C
:1004480007E1C30505E0020EC31902E0F30EC36F0E
:10045800E56B180EE525D96EDA6A010EDA22910EDF
:10046800DF6EE52B180EE525D96EDA6A010EDA2261
:10047800C3C0DFFFE52B180EE525D96EDA6A010E39
:10048800DA22E0C0DFFFE52BC35102E0C3051BE120
:10049800180EE525D96EDA6A010EDA22E1C0DFFF0F
:1004A800E52BC46BC4510FE1C451FE0FD96EDA6A53
:1004B800180EE525E16EE26A010EE222DFCFE7FFC2
:1004C800E52BC42BEFD7C8EC1DF0C8C090F0C9C00D
:1004D80091F0CAC092F0CBC093F0010E0001946F66
:1004E800000EC7B7010E956F000E09EC15F0CFECA2
:1004F8000EF0C35101E00BD2DE510E0D500EF32465
:100508001E6E030EF4201F6EDE510E0D3E50F324B6
:10051800206E3F50F420216E236A0E0E226EB3EC3B
:1005280015F0F5D1020EFF6501D04AD720EE01F093
:10053800CC51D926CD51DA22FC51DE1801E040D742
:10054800E56B180EE525D96EDA6A010EDA22970EE8
:10055800DF6EE52B180EE525D96EDA6A010EDA2270
:10056800E1C0DFFFE52BC46BC4510FE1C451FE0F9E
:10057800D96EDA6A180EE525E16EE26A010EE2220A
:10058800DFCFE7FFE52BC42BEFD7C8EC1DF0C8C0C1
:1005980090F0C9C091F0CAC092F0CBC093F0010EA0
:1005A8000001946F000EC7B7010E956F000E09EC9D
:1005B80015F0ADD1E56B180EE525D96EDA6A010E96
:1005C800DA22920EDF6EE52BC46B130EC46501D0E0
:1005D80044D0C4510E0D5C0EF324D96E030EF420E2
:1005E800DA6EDFAE38D0CAC01DF0CBC01EF0C451E1
:1005F8000E0D540EF3241F6E030EF420206EC6EC6D
:100608001CF0000928E0C4510E0D5C0EF324D96ECD
:10061800030EF420DA6EDF6AC4510E0D500EF32477
:100628001E6E030EF4201F6EC4510E0D3E50F324AF
:10063800206E3F50F420216E236A0E0E226EB3EC1A
:1006480015F0180E0001E525D96EDA6A010EDA22D6
:10065800DF6AE52B02D0C42BB8D7C8EC1DF0140E06
:100668000001C41909E1180EE525D96EDA6A010EF0
:10067800DA22F00EDF6EE52BC8C090F0C9C091F009
:10068800CAC092F0CBC093F0010E946F000EC7B7AA
:10069800010E956F000E09EC15F039D1EC2919E11E
:1006A800ED2917E1C8C0ECF0C9C0EDF0B669B7692B
:1006B800EC0E216EB60E87EC19F0EC0E1E6E1F6A5A
:1006C800F4C020F0F5C021F0236A020E226EB3ECCC
:1006D80015F0D3EC11F020EE02F0CC51D926CD5113
:1006E800DA22DF50FD6FFD0E1E6E1F6AFAC020F081
:1006F800FBC021F0236A010E226EB3EC15F0000155
:10070800E2837CEC1AF01DC004F11EC005F11FC085
:1007180006F120C007F154D620EE01F0CC51D926BD
:10072800CD51DA22DF50BAE0010AB8E049D6E2BB7F
:10073800E29B46D620EE01F0CC51D926CD51DA22E3
:10074800DF5001E03DD6C46B130EC46501D038D626
:10075800C4510E0D5C0EF324D96E030EF420DA6E2C
:10076800DFAE2FD0CAC01DF0CBC01EF0C4510E0D95
:10077800540EF3241F6E030EF420206EC6EC1CF0FA
:1007880000091FE0C4510E0D5C0EF324D96E030E50
:10079800F420DA6EDF6AC4510E0D500EF3241E6E7B
:1007A800030EF4201F6EC4510E0D3E50F324206E2C
:1007B8003F50F420216E236A0E0E226EB3EC15F022
:1007C800FFD5C42BC1D7415001E0FAD5010EEB6F1C
:1007D800F7D5415001E0F4D520EE01F0CC51D926EF
:1007E800CD51DA22DF50AD6FAD05366ECCC060F06A
:1007F800CDC061F0CCEC13F0E3D5415001E1E0D578
:10080800CCC01DF0CDC01EF096EC16F00001BC6FF8
:10081800BC290DE0CCC0A6F0CDC0A7F0BCC0A8F0A4
:10082800CAC0A9F0CBC0AAF000EC16F0B56FB5515C
:1008380001E1C6D5CAC0A0F0CBC0A1F081EC1CF084
:10084800BFD5415001E1BCD5C26B130EC26501D0C2
:10085800B7D5CAC0D9FFCBC0DAFFC2510E0D540EAE
:10086800F324E16E030EF420E26EDE50E6182AE16E
:1008780020EE01F0CA51D926CB51DA22C2510E0D11
:10088800550EF324E16E030EF420E26EDE50E618F6
:1008980019E120EE02F0CA51D926CB51DA22C25111
:1008A8000E0D560EF324E16E030EF420E26EDE50B8
:1008B800E61808E1000EC225D96EDA6A020EDA22BD
:1008C800DF2A7ED5C22BC1D7CCC0D9FFCDC0DAFF75
:1008D800DF50770A01E17DD70D0AB3E0FB0A01E199
:1008E80063D5030A01E166D6050A01E11BD6160A9B
:1008F80001E112D7030A01E11DD7050A01E117D763
:100908005B0A01E17AD7160A01E15DD7E2870001A7
:10091800CE5104E0E2B902D0E2AB1200E297C8EF90
:100928001DF0680E7E6F7FD3250E841909E064C020
:10093800D9FF65C0DAFF84C0DFFF644B652B73D332
:10094800826B836B856B866B09D0858705D0858123
:1009580003D0868701D08585664B672B66C0F6FF76
:1009680067C0F7FF0800F550200AF1E0030AF1E03C
:100978000E0AEBE01D0AEFE085B7859566C0F6FF25
:1009880067C0F7FF0800F5509FEC1DF030E3000149
:10099800826B836B82C01DF083C01EF0206A0A0E32
:1009A8001F6E40EC1DF01DC082F01EC083F0D00EFB
:1009B8000001706F716966C0F6FF67C0F7FF080035
:1009C800F550726F736B70517227715173237251A6
:1009D800822773518323664B672B66C0F6FF67C077
:1009E800F7FF0800F5509FEC1DF015E3D3D766C05C
:1009F800F6FF67C0F7FF0800F5502A0A0CE100016E
:100A08007E51D96EDA6ADECF82F0DDCF83F0020E36
:100A18007E27664B672B66C0F6FF67C0F7FF0800A6
:100A2800F5502E0A32E10001868D664B672B66C0B1
:100A3800F6FF67C0F7FF0800F5502A0A0AE17E5161
:100A4800D96EDA6ADF50816F020E7E27664B672BFC
:100A58008CD0816B10D066C0F6FF67C0F7FF080026
:100A6800F5CF70F0000181510A0DF3507025D00FB9
:100A7800816F664B672B66C0F6FF67C0F7FF0800FB
:100A8800F5509FEC1DF071E3E6D70001816B6DD046
:100A9800858D89D0858B858F86D081510FE081C067
:100AA80070F0716B70BF71077C51705D7D51715929
:100AB80005E281517C6F7D6B7CBF7D0782517C5D37
:100AC80083517D5905E27C51825F7D51835B02D061
:100AD800826B836B85B71DD008D064C0D9FF65C011
:100AE800DAFF200EDF6E644B652B8207D8A08307E0
:100AF8008229F3E183290DE0F0D77B51D96EDA6AB8
:100B080064C0E1FF65C0E2FFDFCFE7FF7B2B644BEA
:100B1800652B7C07D8A07D077C29EFE17D29EDE1D5
:100B280085A781D208D064C0D9FF65C0DAFF200E3E
:100B3800DF6E644B652B8207D8A083078229F3E117
:100B4800832901E170D2EFD77E51D96EDA6ADF507E
:100B5800846F020E7E27840E7B6F000E7D6F010E60
:100B68007C6F9BD7C00E85131ED066C0F6FF67C08A
:100B7800F7FF0001664B672B0800F5CF84F084511E
:100B880001E15DD2580A86E03B0ADEE0070A0BE085
:100B98000D0A09E0060A01E17BD71A0AE3E00D0A0B
:100BA80001E179D7D8D785C070F0C00E701712E16F
:100BB8007E51D96EDA6ADECF7FF0DDCF80F0020E8B
:100BC8007E2780AF10D0030E85137F6D801FD8B0AD
:100BD800802B09D07E51D96EDA6ADECF7FF0DDCF67
:100BE80080F0020E7E27815147E17F51801144E158
:100BF800812B42D0010E846F050E841946E0845182
:100C0800020D310EF324F66EFE0EF420F76E090085
:100C1800F5507F5D0900F550805937E3842BECD7F8
:100C2800010E846F040E841930E08451020D3B0ECE
:100C3800F324F66EFE0EF420F76E0900F5507F5D82
:100C48000900F550805921E3842BECD7010E846FFD
:100C5800060E84191AE08451020D250EF324F66E4F
:100C6800FE0EF420F76E0900F5507F5D0900F5507F
:100C780080590BE3842BECD78551C00BBBE0400AAD
:100C8800E5E0C00ACDE0400AB5E08451800A706F03
:100C98008151800A705D03E281C084F009D08151DE
:100CA800800A706F8451800A705D02E284C081F00E
:100CB8008251831108E085C070F0030E701703E0BD
:100CC8008207D8A0830786AD13D0800E81BF7F0E20
:100CD800706F8251815D8351800A705907E281519A
:100CE800825F000E81BFFF0E835B02D0826B836B35
:100CF800C40E706F080E716F85C072F086C073F0F5
:100D08007051721771517317400E72190AE1080E6B
:100D1800731907E18251831124E08207D8A0830761
:100D280020D0C00E706F080E716F85C072F086C03B
:100D380073F07051721771517317800E721911E1A7
:100D4800080E73190EE183BF0AD0835103E1030E25
:100D5800825D05E3FE0E8227FF0E832302D0826B9D
:100D6800836B800E84BF7F0E706F8251845D8351C8
:100D7800800A705907E28451825F000E84BFFF0E1B
:100D8800835B02D0826B836B85A54FD085C070F0E2
:100D9800030E701709E064C0D9FF65C0DAFF2D0E95
:100DA800DF6E644B652B31D085A106D064C0D9FFB6
:100DB80065C0DAFF200EF4D7C00E706F080E716F91
:100DC80085C072F086C073F0705172177151731735
:100DD800800E72191AE1080E731917E164C0D9FF61
:100DE80065C0DAFF300EDF6E644B652B85BB03D020
:100DF800766B780E02D0766B580E756F64C0D9FF8B
:100E080065C0DAFF75C0DFFFCCD78251831101E1DD
:100E1800F2D064C0D9FF65C0DAFF300EDF6E644BD4
:100E2800652B8207D8A08307F0D78251831110E081
:100E380085B70ED064C0D9FF65C0DAFF200EDF6E1B
:100E4800644B652B8207D8A0830782518311F2E196
:100E580085C070F0030E701709E064C0D9FF65C043
:100E6800DAFF2D0EDF6E644B652B08D085A106D006
:100E780064C0D9FF65C0DAFF200EF4D7C00E706FCA
:100E8800080E716F85C072F086C073F070517217CA
:100E980071517317400E72190CE1080E731909E1AC
:100EA80064C0D9FF65C0DAFF300EDF6E644B652B76
:100EB800A2D0C00E706F080E716F85C072F086C028
:100EC80073F07051721771517317800E72191BE10C
:100ED800080E731901E08FD064C0D9FF65C0DAFF2E
:100EE800300EDF6E644B652B85BB03D0786B780EB4
:100EF80002D0786B580E776F64C0D9FF65C0DAFFEF
:100F080077C0DFFFD3D777D08151020D310EF3249C
:100F1800F66EFE0EF420F76E0900F5CF1FF00A00FA
:100F2800F5CF20F07FC01DF080C01EF0EFEC1AF066
:100F38001DC060F01EC061F0636B0A0E626FF6ECB4
:100F48001BF0605145D07FC01DF080C01EF081515C
:100F5800020D3B0EF324F66EFE0EF420F76E090028
:100F6800F5CF1FF00A00F5CF20F0EFEC1AF01D5076
:100F78000F0B746F85BB04D0920E796FFF0E03D0F0
:100F8800810E796FFF0E7A6F74517925706F000E9C
:100F98007A21716F70C0F6FF71C0F7FF0800F5CFB6
:100FA80084F022D07FC01DF080C01EF08151020D58
:100FB800250EF324F66EFE0EF420F76E0900F5CF29
:100FC8001FF00A00F5CF20F0EFEC1AF01D50070BC8
:100FD800300F846F09D08551C00B96E0400AE2E0DB
:100FE800C00AB1E0400A90E064C0D9FF65C0DAFFEA
:100FF80084C0DFFF5BD781078129EDE185B783BF17
:1010080012D0835102E182050EE364C0D9FF65C0A6
:10101800DAFF200EDF6E644B652B8207D8A08307AA
:1010280082518311F2E166C0F6FF67C0F7FF664B95
:10103800672B0800F5CF84F0845101E075D464C0B3
:10104800D9FF65C0DAFFDF6A000C81A2F08033A007
:101058000BD0D95103E1400ED85D04E3D86BD96BAE
:10106800339002D0D84BD92B4268236A2350450DC0
:10107800280EF324D96E020EF420DA6EDF5003E056
:1010880023C042F004D0232A010E2364EFD7020EB6
:101098004260000C010E246E4250450D290EF324C7
:1010A800D96E020EF420DA6E0201DFAC246A256ADA
:1010B8002D6A4250450D2A0EF324D96E020EF420F3
:1010C800DA6EDF50CC0B226EDBD14250450D2E0E6E
:1010D800F324D96E020EF420DA6EDE280BE14250BA
:1010E800450D2F0EF324D96E020EF420DA6EDE2899
:1010F80001E12584258E24502EE04250450D2C0E0A
:10110800F324D96E020EF420DA6EDF502E6E4250B0
:10111800450D2D0EF324D96E020EF420DA6EDF5041
:101128002F6E4250450D300EF324266E020EF42029
:10113800276E4250450D280EF324D96E020EF42076
:10114800DA6EDF50ED0F2A6E4250450D380EF3244B
:10115800286E020E34D14250450D300EF324D96E5C
:10116800020EF420DA6EDF502E6E4250450D310E1D
:10117800F324D96E020EF420DA6EDF502F6E42503F
:10118800450D320EF324266E020EF420276E4250CF
:10119800450D280EF324D96E020EF420DA6EDF50C6
:1011A800EB0F2A6E4250450D3A0EF324286E020EBC
:1011B80006D1258E24502EE04250450D2C0EF324E6
:1011C800D96E020EF420DA6EDF502E6E4250450DB5
:1011D8002D0EF324D96E020EF420DA6EDF502F6E36
:1011E8004250450D360EF324266E020EF420276E6B
:1011F8004250450D280EF324D96E020EF420DA6E03
:10120800DF50E70F2A6E4250450D3E0EF324286E3C
:10121800020ED5D04250450D360EF324D96E020E7B
:10122800F420DA6EDF502E6E4250450D370EF3244F
:10123800D96E020EF420DA6EDF502F6E4250450D43
:10124800380EF324266E020EF420276E4250450D08
:10125800280EF324D96E020EF420DA6EDF50E50F63
:101268002A6E4250450D400EF324286E020EA7D078
:101278002584258E010E2D6E4250450D2C0EF3242B
:10128800D96E020EF420DA6EDF502E6E4250450DF4
:101298002D0EF324D96E020EF420DA6EDF502F6E75
:1012A8004250450D2E0EF324266E020EF420276EB2
:1012B8004250450D280EF324D96E020EF420DA6E42
:1012C800DF50F50F2A6E4250450D300EF324286E7C
:1012D800020E75D04250450D2E0EF324D96E020E23
:1012E800F420DA6EDE280BE14250450D2F0EF32470
:1012F800D96E020EF420DA6EDE2801E12584258EEF
:10130800010E2D6E24502EE14250450D300EF3246F
:10131800D96E020EF420DA6EDF502E6E4250450D63
:10132800310EF324D96E020EF420DA6EDF502F6EE0
:101338004250450D320EF324266E020EF420276E1D
:101348004250450D280EF324D96E020EF420DA6EB1
:10135800DF50F10F2A6E4250450D340EF324286EEB
:10136800020E2DD04250450D2C0EF324D96E020EDC
:10137800F420DA6EDF502E6E4250450D2D0EF32408
:10138800D96E020EF420DA6EDF502F6E4250450DF2
:10139800300EF324266E020EF420276E4250450DBF
:1013A800280EF324D96E020EF420DA6EDF50F30F04
:1013B8002A6E4250450D320EF324286E020EF42098
:1013C800296E70D0258E010E2D6E24501BE04250E0
:1013D800450D2C0EF324D96E020EF420DA6EDF5080
:1013E8002E6E4250450D2D0EF324D96E020EF420B8
:1013F800DA6EDF502F6E4250450D350EF324266EFF
:10140800020E95D64250450D350EF324D96E020EC4
:10141800F420DA6EDF502E6E4250450D360EF3245E
:10142800D96E020EF420DA6EDF502F6E4250450D51
:10143800370EF324266E020EA8D64250450D2E0E06
:10144800F324D96E020EF420DA6EDE280BE1425046
:10145800450D2F0EF324D96E020EF420DA6EDE2825
:1014680001E125844250450D280EF324D96E020E61
:10147800F420DA6EDF50F60F25D7C8EC1DF0000C0B
:101488002250080ADAE0880A01E1F2D6080A01E1E6
:1014980021D7040A97E0440A01E117D6040A01E1BA
:1014A80088D6EBD74250450D290EF324D96E020E8B
:1014B800F420DA6EDFA60CD0E0D7FC0E25161DD07E
:1014C8002550FC0B0109256E18D0030E251215D0E6
:1014D8004250450D290EF324D96E020EF420DA6E1F
:1014E800DF50070B1D6E1E6A1E50C7E11D50EDE050
:1014F800010AE3E0020AE4E0C0D74250450D280E95
:10150800F324D96E020EF420DA6EDF501D6E4250BD
:10151800450D1E681F68280E206E020E216E1E5093
:1015280020261F502122F3502026F45021221D503E
:101538002024D96E000E2120DA6EDF502C6E425026
:10154800450D280EF324D96E020EF420DA6EDF5012
:101558001D6E4250450D280E1E6E020E1F6EF35072
:101568001E26F4501F221D501E24D96E000E1F2067
:10157800DA6EDF502B6E010C7CEC1AF01DC008F1FE
:101588001EC009F11FC00AF120C00BF1010EE96F5E
:1015980065D2CAEC1AF0000901E018D24CEC16F03A
:1015A8000101826F820504E0020E821901E00ED269
:1015B800415036E00001E56B376A140E376401D0FC
:1015C80024D0060E1D6EE7512DEC1DF0150DA70E4B
:1015D8000101796FFD0E7A6FF3507927F4507A2361
:1015E80037507927000E7A2379C1F6FF7AC1F7FFC1
:1015F800180E0001E525D96EDA6A010EDA22080014
:10160800F5CFDFFFE52B372AD8D7E72B000E83EC81
:101618001DF0E4C089F0E62BE6510EEC1EF0D6D1A1
:10162800846B010E0001E86F0101816FCBD1ADEC35
:101638001DF0010184510001FD193FE1400E646F66
:10164800010E656F160E666FFF0E676F01018451FC
:10165800040D030EF324D96E030EF420DA6EDF5066
:101668000001686F696B01018451040D000EF324B9
:10167800D96E030EF420DA6EDF5000016A6F6B6BCF
:1016880001018451040D010EF324D96E030EF420D8
:10169800DA6EDF5000016C6F6D6B01018451040D2F
:1016A800020EF324D96E030EF420DA6EDF50000127
:1016B8006E6F6F6B95EC04F03ED0400E646F010EB8
:1016C800656F2F0E666FFF0E676F01018451040D61
:1016D800030EF324D96E030EF420DA6EDF500001F6
:1016E800686F696B01018451040D000EF324D96EF3
:1016F800030EF420DA6EDF5000016A6F6B6B010194
:101708008451040D010EF324D96E030EF420DA6E11
:10171800DF5000016C6F6D6B01018451040D020EE6
:10172800F324D96E030EF420DA6EDF5000016E6FD9
:101738006F6B95EC04F0400E646F010E656F2F0E11
:10174800666FFF0E676F01018451040D030EF324C9
:10175800D96E030EF420DA6EDF500001686F696BF2
:1017680001018451040D000EF324D96E030EF420F8
:10177800DA6EDF5000016A6F6B6B01018451040D52
:10178800010EF324D96E030EF420DA6EDF50000147
:101798006C6F6D6B01018451040D020EF324D96E38
:1017A800030EF420DA6EDF5000016E6F6F6B95EC5C
:1017B80004F0500E646F010E656FA30E666FFF0E86
:1017C800676F95EC04F0D5EC1DF0010E0001E86F91
:1017D800F5D04CEC16F00101836FCAEC1AF0010148
:1017E800830501E0CED0816B0001E86B01018451D3
:1017F8000001FD1931E1E56B376A140E376401D039
:1018080024D0060E1D6EE7512DEC1DF0150DA70E08
:101818000101796FFD0E7A6FF3507927F4507A231E
:1018280037507927000E7A2379C1F6FF7AC1F7FF7E
:10183800180E0001E525D96EDA6A010EDA220800D1
:10184800F5CFDFFFE52B372AD8D7000EA46B4FEC76
:101858001CF00001E62B86D0E56B180EE525D96E45
:10186800DA6A010EDA22CC0EDF6EE52B0101845113
:10187800040D000EF324D96E030EF420DA6E180E50
:101888000001E525E16EE26A010EE222DFCFE7FF03
:10189800E52B01018451040D010EF324D96E030ECA
:1018A800F420DA6E180E0001E525E16EE26A010EF9
:1018B800E222DFCFE7FFE52B01018451040D020E80
:1018C800F324D96E030EF420DA6E180E0001E52514
:1018D800E16EE26A010EE222DFCFE7FFE52B040E9C
:1018E800376E180E376401D02DD0FC0E0101796FC8
:1018F8007A69060E1D6E0001E7512DEC1DF0150DDD
:10190800A70E01017B6FFD0E7C6FF3507B27F4500F
:101918007C2337507B27000E7C2379517B277A5113
:101928007C237BC1F6FF7CC1F7FF180E0001E5257B
:10193800D96EDA6A010EDA220800F5CFDFFFE52B4F
:10194800372ACFD7000EE0EC16F00101806F8051E6
:1019580080E15B0E0001876FFF0E886F896B8A6BD1
:1019680014EC1BF0E4C089F0E6510EEC1EF0050EF5
:101978001E6EDC0E1D6E3AEC14F0415063EC1DF047
:101988001DD0020E83191AE18451796F7A6B7B6935
:101998007C6936507D6F7E6B7B517D277C517E2321
:1019A80079517D5D7E51800A7F6F7A51800A7F5917
:1019B80002E2846B01D0842B0001E86B0001E8513E
:1019C80001E007D70101810501E131D60001EA51A3
:1019D80006E0415004E1C56B82EC12F0EA6B7CEC46
:1019E8001AF01DC00CF11EC00DF11FC00EF120C071
:1019F8000FF1010108510C5D796F09510D597A6F8A
:101A08000A510E597B6F0B510F597C6F7C5107E1BE
:101A1800710E795D380E7A59390E7B591FE34150A2
:101A28001DE0ADEC1DF0400E0001646F010E656F06
:101A38006F0E666FFF0E676F40C068F0696B95ECBC
:101A480004F0D5EC1DF0070E1E6ED00E1D6E3AEC9C
:101A580014F00001E96B010E63EC1DF00001E9517F
:101A680001E097D512008F6B75A502D0010E786F33
:101A780075B7796B7551030BE80602E1030E04D0C4
:101A88007551030B02E1010E8C6F3A507A190DE182
:101A98003B507B190AE13A2802E13B2806E0050E93
:101AA8008D6F8C8D010E8B6F03D0070E8D6F8B6B36
:101AB8007851020ED8B4080E8D277951020ED8B489
:101AC800080E8D2775BB75B501D08C8B7551030B2E
:101AD800030A07E18C6B070E8D6F8B6B010E796F14
:101AE800759B1F6A1E6A8DC020F02DEC1AF000014C
:101AF8008F2B8FC01EF01F6A8D517E25206E2DEC16
:101B08001AF000018F2B8FC01EF01F6A8CC020F0C6
:101B18002DEC1AF000018F2B7551030B030A12E10B
:101B28008FC01EF01F6A800E206E2DEC1AF0000187
:101B38008F2B8FC01EF01F6A32C020F02DEC1AF0D8
:101B4800322A77D078510CE079510AE08FC01EF024
:101B58001F6A880E206E2DEC1AF000018F2B20D002
:101B680078510AE0795108E18FC01EF01F6AC80E4B
:101B7800206E2DEC1AF0F1D778510AE1790508E1C9
:101B88008FC01EF01F6A8C0E206E2DEC1AF0E5D760
:101B98008FC01EF01F6ACC0E206E2DEC1AF0DDD718
:101BA8008FC01EF01F6A32C020F02DEC1AF0322AC6
:101BB80000018F2B8FC01EF01F6A7AC020F02DEC19
:101BC8001AF000018F2B8FC01EF01F6A7BC020F017
:101BD8002DEC1AF000018F2B75A50FD08FC01EF0C9
:101BE8001F6A20682DEC1AF000018F2B8FC01EF0A1
:101BF8001F6A20682DEC1AF01CD078511DE08FC0A8
:101C08001EF01F6A76C0D9FF77C0DAFFDF50206E5A
:101C18002DEC1AF000018F2B8FC01EF01F6A20EEEA
:101C280001F07651D9267751DA22DF50206E2DEC5B
:101C38001AF000018F2B14D08E6B8FC01EF01F6A14
:101C48008E517625D96E000E7721DA6EDF50206E20
:101C58002DEC1AF000018F2B8E2B070E8E65EDD719
:101C68008B5112E18FC01EF01F6A3AC020F02DEC94
:101C78001AF000018F2B8FC01EF01F6A3BC020F0A6
:101C88002DEC1AF000018F2B795113E08FC01EF054
:101C98001F6A3CC020F02DEC1AF000018F2B8FC07A
:101CA8001EF01F6A3DC020F02DEC1AF000018F2BAA
:101CB80014D08E6B8FC01EF01F6A8E51D625D96E38
:101CC800000ED721DA6EDF50206E2DEC1AF00001DD
:101CD8008F2B8E2B070E8E65EDD78E6B10D08FC095
:101CE8001EF01F6A8E517C25D96E000E7D21DA6E9A
:101CF800DF50206E2DEC1AF000018F2B8E2B7E51B9
:101D08008E5DEDE3338075BB75B504D0050E8E6F1F
:101D1800338203D0010E8E6F33928EC01EF0370EC1
:101D2800F2EC1CF07CEC1AF01DC083F01EC084F0AD
:101D38001FC085F020C086F081A2F08033B004D0A7
:101D480033A4010C3394000C7CEC1AF01DC087F00E
:101D58001EC088F01FC089F020C08AF08351875DBB
:101D68007F6F84518859806F85518959816F865159
:101D78008A59826F8251811105E1110E7F5D270E0C
:101D88008059DAE3DDEC10F03A0E216E3C0E87EC58
:101D980019F03390000C4050040D040EF326000E89
:101DA800F422F4BE05D0F45006E1280EF35C03E2F9
:101DB800010EA86F27D04050040D040EF3241D6EA9
:101DC800000EF4201E6E206A280E1F6E7AEC18F0A2
:101DD8001D50A86F4050040D040EF326000EF42287
:101DE800F350F4100FE04050040D040EF3241D6E60
:101DF800000EF4201E6E206A280E1F6E27EC19F0C4
:101E08001D50A827AA6BCDD0E56B180EE525D96E15
:101E1800DA6A010EDA22770EDF6EE52B180EE52559
:101E2800D96EDA6A010EDA2240C0DFFFE52BAA512B
:101E3800090D180EE525D96EDA6A010EDA22F3CFFC
:101E4800DFFFE52BAA29090D180EE525D96EDA6AF8
:101E5800010EDA22F3CFDFFFE52B040EA76FAA519C
:101E6800090DF3CFABF065D04050AB5D61E2AB51EB
:101E78000E0D5C0EF324D96E030EF420DA6EDFAE7D
:101E88003DD0AB510E0D540EF324D96E030EF42041
:101E9800DA6E180EE525E16EE26A010EE222DFCF66
:101EA800E7FFE52BAB510E0D550EF324D96E030E4B
:101EB800F420DA6E180EE525E16EE26A010EE222E0
:101EC800DFCFE7FFE52BAB510E0D560EF324D96E8D
:101ED800030EF420DA6E180EE525E16EE26A010EB3
:101EE800E222DFCFE7FFE52B180EE525D96EDA6A87
:101EF800010EDA22ABC0DFFFE52B18D0180EE5255E
:101F0800D96EDA6A010EDA22DF68E52B180EE525AC
:101F1800D96EDA6A010EDA22DF68E52B180EE5259C
:101F2800D96EDA6A010EDA22DF68DDD7040EA72738
:101F3800AB2BAA51A06FA16BA02B000EA123090EF9
:101F4800A003F3CFA2F0F4CFA3F0A103F350A3278B
:101F5800AB51A46FA56BA251A45DA551800AA66FD1
:101F6800A351800AA65980E3A7C0A9F0270EA96546
:101F780001D00BD0180EE525D96EDA6A010EDA22E7
:101F8800110EDF6EE52BA92BF1D7ECC090F0EDC058
:101F980091F0926B936B010E946F956B09EC15F0B1
:101FA800AA2BA851AA5D01E22FD712007B6F27EC5C
:101FB80017F0E26B7B5137E17F6B7F510E0D5C0EA2
:101FC800F324D96E030EF420DA6EDF6A7F510E0D0A
:101FD800540EF324D96E030EF420DA6EDF6A7F51B3
:101FE8000E0D550EF324D96E030EF420DA6EDF6A57
:101FF8007F510E0D560EF324D96E030EF420DA6EBF
:10200800DF6A000E7F25D96EDA6A020EDA22DF6AED
:10201800140E7F25D96EDA6A020EDA22DF6A7F2B68
:10202800130E7F65CAD7E56B7F6B7F2B130E7F6519
:10203800FCD77B515CE0FC0E1E6E1F6AF0C020F0DE
:10204800F1C021F0236A010E226E55EC1AF01F0E22
:102058000001FC6501D01F0CEC0E1E6E1F6AF4C057
:1020680020F0F5C021F0236A020E226E55EC1AF01A
:10207800FF0E1E6E1F6AEEC020F0EFC021F0236A2B
:10208800010E226E55EC1AF0500E1E6E030E1F6ED6
:102098003EC020F03FC021F0010E236E180E226EC4
:1020A80055EC1AF0410E1E6E1F6AF8C020F0F9C0F8
:1020B80021F0236A010E226E55EC1AF0FD0E1E6EF9
:1020C8001F6AFAC020F0FBC021F0236A010E226EBD
:1020D80055EC1AF0400E1E6E1F6AF2C020F0F3C0D5
:1020E80021F0236A010E226E55EC1AF036D0120E3A
:1020F800ED6F340EEC6FEC0E1E6E1F6AF4C020F00C
:10210800F5C021F0236A020E226EB3EC15F0FC0E26
:102118001E6E1F6AF0C020F0F1C021F0236A010E84
:10212800226EB3EC15F0FF0E1E6E1F6AEEC020F093
:10213800EFC021F0236A010E226EB3EC15F0500EA9
:102148001E6E030E1F6E3EC020F03FC021F0010E30
:10215800236E180E226EB3EC15F0610E00017D6F30
:10216800010E7E6F7C837C51870B40097C6F7BB1AD
:1021780002D07C9502D000017C857C917CC075F0F2
:102188007DC076F07EC077F015EC1CF079697A692D
:10219800EC0E216E790E87EC19F00001FC5169EC08
:1021A8001CF00001E16BE181FF39F00BE113F086CF
:1021B80012008C9E030E6A6F6B6B6C6B6D6B18D084
:1021C8004D0E626F010E636F646B656B6207000EE4
:1021D800635B645B655B6229F9E16329F7E1642964
:1021E800F5E16529F3E16A07000E6B5B6C5B6D5BDB
:1021F8006A516B116C116D11E3E18C8E0A0E6E6FD2
:102208006F6B706B716B18D04D0E666F010E676F38
:10221800686B696B6607000E675B685B695B6629BC
:10222800F9E16729F7E16829F5E16929F3E16E0722
:10223800000E6F5B705B715B6E516F1170117111E5
:10224800E3E1070E1E6E550EF2EC1CF0540EB0ECD6
:102258001CF00001746F74C061F0070E6117F6E19D
:10226800726B736B724B732BE80E725D030E7359AE
:10227800F9E3010E1E6E1B0EF2EC1CF01E68070E31
:10228800F2EC1CF01E68090EF2EC1CF01E68030E3E
:10229800F2EC1CF01E68050EF2EC1CF00001746BE9
:1022A8007451D625D96E000ED721DA6EDF501E6E16
:1022B8007451020DF3500B0FF2EC1CF00001742B5B
:1022C800070E7465EDD7020E1F6E1E6E800E206E0F
:1022D8002DEC1AF0020E1F6E030E1E6E206A2DECF6
:1022E8001AF0020E1F6E060E1E6E900E206E2DEC5A
:1022F8001AF0020E1F6E070E1E6E800E206E2DEC59
:102308001AF0020E1F6E080E1E6E100E206E2DECB7
:102318001AF0020E1F6E200E1E6E210E206E2DEC7E
:102328001AF0800E1E6E750EF2EC1CF0400E1E6E3A
:102338007D0EF2EC1CF0600E1E6E7F0EF2EC1CF0AF
:10234800980E1E6E310EF2EC1CF0950E1E6E5D0E90
:10235800F2EC1CF0020E1F6E0F0E1E6EDBEC19F075
:102368000001746F7451A00BA00AF4E1E60E1E6E12
:10237800650EF2EC1CF0020E1F6E1E6A030E206E34
:102388002DEC1AF0020E1F6E010E1E6E020E206E4C
:102398002DEC1AF0246A0001DF5198EF1BF00001C0
:1023A800666B6769686B68510E0D5C0EF324D96E15
:1023B800030EF420DA6EDFAE15D0CAC01DF0CBC014
:1023C8001EF068510E0D540EF3241F6E030EF420F8
:1023D800206EC6EC1CF0000909E068C067F0010E29
:1023E800666F08D0672902E168C067F0682B130E92
:1023F8006865D9D7672901E1F10CFF5103E00001B5
:102408006651120067C0E0F0686B6851CA25D96E42
:10241800000ECB21DA6E67510E0D500E626F030E5F
:10242800636F040E6227000E6323F3506227F45093
:10243800632368516225E16E000E6321E26EDFCFEF
:10244800E7FF682B070E6865E0D767510E0D5C0E35
:10245800F324D96E030EF420DA6EDF8E20EE02F03C
:10246800CC51D926CD51DA22DF50626F010E6217A6
:1024780067510E0D5C0EF324D96E030EF420DA6E4C
:10248800DF506219FE0B6219DF6E686B6851CC254C
:10249800626F000ECD21636F030E6225D96E000EA8
:1024A8006321DA6E67510E0D500E646F030E656F6F
:1024B8000D0E6427000E6523F3506427F45065233E
:1024C80068516425E16E000E6521E26EDFCFE7FFFB
:1024D800682B6851DBE067C0DEF0E299A3EC1AF0E4
:1024E800406E400E1E6E1F6AF2C020F0F3C021F04D
:1024F800236A010E226EB3EC15F081D7FFC06DF18F
:10250800030E01016E6F6F6B7CEC1AF01DC010F1A9
:102518001EC011F11FC012F120C013F1C50501E161
:10252800FF0C7CEC1AF01DC070F11EC071F11FC0C9
:1025380072F120C073F1900E0101705FD00E715BD3
:10254800030E725B000E735B0001FF6BE28976D0AD
:102558007CEC1AF01DC074F11EC075F11FC076F135
:1025680020C077F101017051745D696F715175591F
:102578006A6F725176596B6F735177596C6F6C51E2
:1025880007E1910E695DD00E6A59030E6B5950E34D
:1025980074C170F175C171F176C172F177C173F1CF
:1025A8006F076F294BE1010E6F6F6E076E2903E10C
:1025B8000001E299FF0C0001E56B180EE525D96EC4
:1025C800DA6A010EDA22810EDF6EE52B180EE52598
:1025D800D96EDA6A010EDA22FCC0DFFFE52B180E8D
:1025E800E525D96EDA6A010EDA22E1C0DFFFE52BB4
:1025F8000101786B7851FE0FD96EDA6A180E000166
:10260800E525E16EE26A010EE222DFCFE7FFE52B66
:102618000101782B7851EEE0ECC090F0EDC091F01C
:102628000001926B936B010E946F956B09EC15F09A
:1026380015EC1EF0000902E01BEC1EF00001E2B9E7
:1026480087D76DC1FFF0DE511200A46F0001A429E5
:1026580053E1A56BA5510E0D5C0EF324D96E030E44
:10266800F420DA6EDFAE24D0E56B180EE525D96EBE
:10267800DA6A010EDA22820EDF6EE52BECC090F0EA
:10268800EDC091F0A5510E0D540EF324926F030E78
:10269800F420936F010E946F000E956B09EC15F002
:1026A800A06BA16BA04BA12BA0290F0EA159FAE397
:1026B800A5510E0D5C0EF324D96E030EF420DA6ECC
:1026C800DF6AA5510E0D500EF3241E6E030EF42082
:1026D8001F6EA5510E0D3E50F324206E3F50F4207E
:1026E800216E236A0E0E226EB3EC15F00001A52BA5
:1026F800130EA565AFD7130CA4510E0D5C0EF32471
:10270800D96E030EF420DA6EDFAE1200E56B180EF8
:10271800E525D96EDA6A010EDA22820EDF6EE52B24
:10272800ECC090F0EDC091F0A4510E0D540EF324BE
:10273800926F030EF420936F010E946F000E956B49
:1027480009EC15F0A26BA36BA24BA32BA2290F0EC9
:10275800A359FAE3A4510E0D5C0EF324D96E030EAF
:10276800F420DA6EDF6AA4510E0D500EF3241E6EAB
:10277800030EF4201F6EA4510E0D3E50F324206E5C
:102788003F50F420216E236A0E0E226EB3EF15F02F
:10279800040E656F65C062F0030E621761E1655152
:1027A800626F636B030E6227000E632363BF05D05D
:1027B800635156E1280E625D53E265516025626FF0
:1027C800000E6121636F030E6225D96E000E63212E
:1027D800DA6EDF50646F6451040D030EF324D96E72
:1027E800030EF420DA6E64C0DFFF65516025D96EF0
:1027F800000E6121DA6E6451040D000EF324E16EBF
:10280800030EF420E26EDFCFE7FF65516025626FAB
:10281800000E6121636F6229D96E000E6321DA6EA2
:102828006451040D010EF324E16E030EF420E26EF0
:10283800DFCFE7FF65516025626F000E6121636F8E
:10284800020E6225D96E000E6321DA6E6451040D02
:10285800020EF324E16E030EF420E26EDFCFE7FFF1
:10286800652B270E656596D7B6EF18F01D50000149
:10287800606F1E50616F626B636BD00E6003F3CFA5
:1028880064F0F4CF65F0666B676B6103F3506527FE
:10289800F4506623000E6723070E6003F350652784
:1028A800F4506623000E6723D00E6203F3506627A8
:1028B800F4506723070E6103F3506627F45067232B
:1028C800000E6003F3506627F4506723D00E6303AD
:1028D800F3506727070E6203F3506727000E610362
:1028E800F3506727000E6003F350672764C01FF09A
:1028F80065C020F066C021F067C022F0560E1F2682
:10290800FF0E20222122222222BEFF0C225021105B
:1029180020100BE1C40E1F5C08E2120000F0D90E73
:102928001F26FF0E20222122222222BE1200225020
:1029380021102010F3E11F04F1E212000150036E90
:102948000250046E056A066AD00E0302F3CF07F040
:10295800F4CF08F0096A0A6A0402F3500826F45012
:102968000922000E0A22070E0302F3500826F4502B
:102978000922000E0A22D00E0502F3500926F4504F
:102988000A22070E0402F3500926F4500A22000E08
:102998000302F3500926F4500A22D00E0602F3501F
:1029A8000A26070E0502F3500A26000E0402F35009
:1029B8000A26000E0302F3500A2607C00BF008C0CF
:1029C8000CF009C00DF00AC00EF0560E0B26FF0ED3
:1029D8000C220D220E220EBEFF0C0E500D100C10F4
:1029E8000BE1C40E0B5C08E2120000F0D90E0B26B6
:1029F800FF0E0C220D220E220EBE12000E500D10DC
:102A08000C10F3E10B04F1E21200986F0001996BCE
:102A1800945103E0966B962B02D00001966B995166
:102A28009619FC0B9619996F985103E1966B962BA2
:102A380002D00001966B963B964799519619DF0B89
:102A48009619996F98B102D0999502D0000199858D
:102A580095B102D0999702D0000199879D6B985142
:102A6800010ED8B4000E9C6F985103E1966B962B1B
:102A780002D00001966B963B964796479951961956
:102A8800BF0B9619996F998F92C09AF093C09BF0DB
:102A980090C09EF091C09FF020EE99F000EE75F086
:102AA800060EDBCFEBFFE806FCE2180E7C6F010E8A
:102AB8007D6FE5C07EF037EC0DF00001976FE56B98
:102AC800975112000001C66F610E236E010E246E2D
:102AD800F5EC17F0C65104E0010EDAEC0FF03CD02B
:102AE80089948996000EDAEC0FF0190E69EC1CF047
:102AF800000903E1190E26EC1EF0000E32EC1CF062
:102B0800000E00018C6F190ED7EC1BF00001C56B8D
:102B180082EC12F0376E372807E0010E8C6F190E21
:102B2800D7EC1BF0416A0BD00A0E656F000E666B7E
:102B3800676B686B696BB2EC19F0010E416E410E60
:102B48001E6E1F6AF8C020F0F9C021F0236A010E3A
:102B5800226EB3EC15F08984415063EF1DF0000E2E
:102B6800F0B6010E0001606FF0968C9A050EFEEC2F
:102B78001DF0000EFEEC1DF00001616F8C8A23EC45
:102B88001EF0000161B1F1D78C9A060EFEEC1DF023
:102B98008C8A23EC1EF08C9A020EFEEC1DF021505C
:102BA800FEEC1DF02050FEEC1DF00001616B1AD008
:102BB8001EC0D9FF1FC0DAFFDF50FEEC1DF01E4A11
:102BC8001F2A2206D8A023060001612B6151202468
:102BD800246E3F0E241606E18C8A61512026000ED1
:102BE8002122C3D722502310E3E18C8A60B102D09E
:102BF800F09601D0F0861200E56BA9C0D9FFAAC0F3
:102C0800DAFF180EE525E16EE26A010EE222DFCF57
:102C1800E7FFE52B20EE01F0A951D926AA51DA22C7
:102C2800180EE525E16EE26A010EE222DFCFE7FF2A
:102C3800E52B20EE02F0A951D926AA51DA22180E66
:102C4800E525E16EE26A010EE222DFCFE7FFE52B20
:102C5800030EAC6FAC51A625D96E000EA721DA6E13
:102C6800180EE525E16EE26A010EE222DFCFE7FFEA
:102C7800E52BAC2B270EAC65EDD7A46BA8514FEC18
:102C88001CF0AB6FAB5102E1F5EC1DF0AB5112003B
:102C980081B010D00001E35144E1010EE36F7CECF8
:102CA8001AF01DC000F11EC001F11FC002F120C0C2
:102CB80003F1010C81B410D00001E35132E1010E9F
:102CC800E36F7CEC1AF01DC000F11EC001F11FC0BB
:102CD80002F120C003F1020C7CEC1AF01DC069F06F
:102CE8001EC06AF01FC06BF020C06CF001010051DB
:102CF8000001695D656F0101015100016A59666F44
:102D08000101025100016B59676F01010351000174
:102D18006C59686F6851671103E1400E665D01E305
:102D2800E36B000C216A40D021500E0D5C0EF32499
:102D3800D96E030EF420DA6EDFAE35D021500E0DB9
:102D4800540EF324D96E030EF420DA6E10EE01F05F
:102D58001D50E1261E50E222DE50E61824E12150E3
:102D68000E0D550EF324D96E030EF420DA6E10EE14
:102D780002F01D50E1261E50E222DE50E61813E153
:102D880021500E0D560EF324D96E030EF420DA6E80
:102D980010EE03F01D50E1261E50E222DE50E61828
:102DA80002E121501200212A4050215CBDE340502D
:102DB800211801E1FF0C000C01016D6F0001EB6BA4
:102DC800ECC090F0EDC091F0540E926F030E936F2B
:102DD800010E946F6DC195F0000E09EC15F07CECB6
:102DE8001AF01DC06EF11EC06FF11FC070F120C037
:102DF80071F124D07CEC1AF01DC072F11EC073F181
:102E08001FC074F120C075F115EC1EF001016E5160
:102E1800725D696F6F5173596A6F705174596B6F36
:102E2800715175596C6F6C516B1105E1510E695DEB
:102E3800C30E6A5903E30001EB0503E10001EB51FE
:102E4800D9E0EB511200010E226E0001DA6BDB6B48
:102E58001E6A020E1D6EF40E1F6E99EC1CF02216EF
:102E68001E6A010E1D6EF00E1F6E99EC1CF02216E4
:102E78001E6A010E1D6EEE0E1F6E99EC1CF02216D6
:102E8800010E1E6E180E1D6E3E0E1F6E99EC1CF084
:102E980022161E6A040E1D6EF60E1F6E99EC1CF0AB
:102EA80022161E6A010E1D6EF20E1F6E99EC1CF0A2
:102EB80022161E6A010E1D6EF80E1F6E99EC1CF08C
:102EC80022161E6A010E1D6EFA0E1F6E99EC1CF07A
:102ED8002216120003EE50F011EE18F0EE6AE550DB
:102EE800E150FCE1E250FAE103EE00F0500EEE6A28
:102EF800E806FDE102EE00F0B20EEE6AE806FDE13A
:102F080001EE00F0690EEE6AE806FDE100EEC7F09A
:102F1800370EEE6AE806FDE100EE25F01D0EEE6ABA
:102F2800E806FDE14A0EF66E3C0EF76E000EF86EEE
:102F38000900F5CFFEF00900F5CFFFF04E0EF66E52
:102F48003C0EF76E000EF86E0900F5CF42F0439084
:102F58004392000EF86E000153EF1DF07B0ED36E06
:102F6800C090F26A550EA76EAA0EA76E0E01FF91C9
:102F7800040EE76F130EF66F050ED76F550EA76E8A
:102F8800AA0EA76EFF810F0148693F0E496FF19E97
:102F980092689368946895689668896A8A6A8C6A60
:102FA8008D6A95948C84949C8B9C93809384929442
:102FB800929693968A86959E8C8E9382938A949EF7
:102FC8009398C00EC76E210EC66E95968C86F19AA0
:102FD80094948B84959A8C8AF28EF090F08636EFD2
:102FE8001BF00001626B6251235C606F000E245875
:102FF800616F070E60251E6E000E61211F6E625103
:10300800FA0F206E010E216E57EC1BF00001622BA7
:10301800020E6265E8D720EE04F02350D92624502A
:10302800DA22DF6820EE03F02350D9262450DA2272
:10303800FE0EDF6E626B6251235C606F000E2458D7
:10304800616F020E60251E6E000E61211F6E6251B7
:10305800FD0F206E010E216E57EC1BF00001622B54
:10306800020E6265E8D7020C3050315C04E334503C
:10307800355CD8B0120071B0FED73050315C15E223
:103088003150D10FD96EDA6ADF50756E312A30505F
:103098003118D8A412003450D8A412007184010E3B
:1030A800026E2C0E016EA2EF14F03450355CD8B0CD
:1030B8001200400E3524D96EDA6A010EDA22DF508A
:1030C80008E1400E3524D96EDA6A010EDA22200EA4
:1030D800DF6E400E3524D96EDA6A010EDA22DF502F
:1030E800756E352A34503518D9E01200226A20AEA0
:1030F80006D01F6C201ED8B0202A010E226E1EAEEC
:1031080006D01D6C1E1ED8B01E2A010E221A236A74
:10311800246A1F5020101BE0010E216E04D0D890A5
:103128001F362036212A20AEFAD7D89023362436E7
:103138001F501D5C20501E5805E31F501D5E205077
:103148001E5A2380D89020321F32212EEED72250CB
:1031580004E0236C241ED8B0242A23C01DF024C008
:103168001EF01200226A4150D8A41200236A1AD015
:103178002350040D000EF324D96E030EF420DA6EEA
:1031880001016151DE180DE12350040D010EF324F5
:10319800D96E030EF420DA6EDE50621902E1010ED8
:1031A800226E232A36501D6E1E6A1D2A000E1E220C
:1031B80023501F6E206A1D501F5C2050800A216E0C
:1031C8001E50800A2158D4E32250D8A41200010EC0
:1031D8000001EA6F010CADEC1DF0400E0001646FB8
:1031E800010E656FB40E666FFF0E676F95EC04F005
:1031F800500E646F010E656F450E666FFF0E676FA8
:1032080087C0D9FF88C0DAFFDF50686F696B20EE8E
:1032180001F08751D9268851DA22DF506A6F6B6B2B
:1032280020EE02F08751D9268851DA22DF506C6FE0
:103238006D6B95EC04F0D5EC1DF0040E1E6EB00E0F
:103248001D6E3AEF14F0226A1EAE06D01D6C1E1ECB
:10325800D8B01E2A010E226E20AE04D01F6C201E8C
:10326800D8B0202A1F50201017E0010E216E04D07C
:10327800D8901F362036212A20AEFAD71F501D5C61
:1032880020501E5804E31F501D5E20501E5AD8902F
:1032980020321F32212EF2D7225004E01D6C1E1E50
:1032A800D8B01E2A1DC01DF01EC01EF01200A76B4C
:1032B800A7510E0D5C0EF324D96E030EF420DA6EBE
:1032C800DFAE1BD0000EA725D96EDA6A020EDA220D
:1032D800DF500CE1140EA725D96EDA6A020EDA2245
:1032E800DE2804E0A75129EC13F007D0000EA7252B
:1032F800D96EDA6A020EDA22DF6A0001A72B130EF2
:10330800A765D6D7130C226E2250D96EDA6ADF5021
:103318003C6E2250D96EDA6AD92ADF503D6E2150B0
:10332800D96EDA6ADF503A6E2150D96EDA6AD92A34
:10333800DF503B6E3CC01EF0070EF2EC1CF03DC0A7
:103348001EF0090EF2EC1CF03AC01EF0030EF2EC6F
:103358001CF03BC01EF0050EF2EF1CF06A6F20D087
:10336800120EED6F340EEC6F6B696C69EC0E216E0A
:103378006B0E87EC19F07CEC1AF01DC010F11EC022
:1033880011F11FC012F120C013F17CEC1AF01DC01E
:1033980014F11EC015F11FC016F120C017F112005C
:1033A80000016A51DDE0010AD8A4030A1200000EE8
:1033B800F0B6010E236EF0968A961EC020F01FC04C
:1033C80021F0D89021322032D89021322032D89062
:1033D8002132203220507F0B8009FEEC1DF01E3870
:1033E800E846E00BFEEC1DF0000EFEEC1DF0226E30
:1033F8008A8623B002D0F09601D0F08622501200BF
:10340800000EF0B6010E076EF0968A9602C004F020
:1034180003C005F0D89005320432D8900532043242
:10342800D8900532043204507F0B800906EC1EF058
:103438000238E846E00B06EC1EF0000E06EC1EF023
:10344800066E8A8607B002D0F09601D0F086065044
:103458001200000EF0B6010E236EF0968A961EC07A
:1034680021F01FC022F0D89022322132D890223287
:103478002132D8902232213221507F0B8009FEEC74
:103488001DF01E38E846E00B1009FEEC1DF0205038
:10349800FEEC1DF08A8623B002D0F09601D0F086AB
:1034A8001200000EF0B6010E246EF0968C9A030EF0
:1034B800FEEC1DF02150FEEC1DF02050FEEC1DF03E
:1034C8000DD0000EFEEC1DF01EC0D9FF1FC0DAFFA4
:1034D800DF6E1E4A1F2A2206D8A023062250231078
:1034E800F0E18C8A24B002D0F09601D0F086120068
:1034F8009D900001636B646B606BCECF61F0CFCFA2
:1035080062F0612908E1622906E1602B6005216EFD
:10351800020E2164F2D79EA004D0632B382801E163
:10352800642B38506327395064279D8061C01DF093
:1035380062C01EF063C01FF064C020F012001D6A54
:103548001E6A1E500E0D540EF324D96E030EF4207D
:10355800DA6EDF5014E11E500E0D550EF324D96EAD
:10356800030EF420DA6EDF500AE11E500E0D560EDF
:10357800F324D96E030EF420DA6EDF5001E01D2A21
:103588001E2A130E1E64DDD71D50120015EC1EF006
:10359800C56FC5511EE0E42BE4C089F0E6510EEC7E
:1035A8001EF0070E1E6ED00E1D6E3AEC14F08976D2
:1035B80041500AE10001C751030B06E1CCC087F076
:1035C800CDC088F0EFEC18F01BEC1EF0415063EC16
:1035D8001DF0C5511200226A236A1F5020101BE0FB
:1035E800010E216E04D0D8901F362036212A20AE35
:1035F800FAD7D890223623361F501D5C20501E580B
:1036080005E31F501D5E20501E5A2280D89020329C
:103618001F32212EEED722C01DF023C01EF012004B
:10362800ADEC1DF0400E0001646F010E656F87C0A0
:1036380066F088C067F089C068F0696B95EC04F0A3
:10364800D5EC1DF000018A51D8B412008B6B1E6AAC
:10365800FA0E1D6E3AEC14F000018B2B070E8B65E9
:10366800F6D7070C530E9512A49E736AF00E746E6B
:10367800280E726E716AA38EF28EF28C010E1E6E87
:103688002C0E1D6E3AEC14F07C0E0001D16F810EE9
:10369800D26FD36B1D6A030EE0EC1DF01E6AC80ED4
:1036A8001D6E3AEF14F0000EF2BE010E226EF29E6D
:1036B8008B94030EFEEC1DF02050FEEC1DF00BD099
:1036C800000EFEEC1DF01EC0D9FF1FC0DAFFDF6E32
:1036D8001E4A1F2A21062150F3E18B8422B002D012
:1036E800F29E01D0F28E1200886FADEC1DF0400EF4
:1036F8000001646F010E656FD60E666FFF0E676F6F
:1037080088C068F0696B95EC04F0500E646F010E88
:10371800656FC50E666FFF0E676F87C068F0696BCF
:1037280095EC04F0D5EF1DF0606F0A0E000160659E
:10373800000C1A0E606501D0000C60C0DFF0020EAC
:103748001F6E1E6A6051100DF350500F0309206E52
:103758002DEC1AF0040E1E6E6D0EF2EC1CF01E6AB3
:103768006D0EF2EC1CF0010CE56B180EE525D96E18
:10377800DA6A010EDA227A0EDF6EE52BECC090F0E1
:10378800EDC091F0540E926F030E936F010E946F7B
:10379800000E956B09EC15F0A06FA051D8A412008B
:1037A800010EEA6F010C8D6F00018C510BE1430E85
:1037B800876FFE0E886F8DC089F0010E8A6F14EC3A
:1037C8001BF00AD0830E876FFE0E886F8DC089F0BC
:1037D800010E8A6F14EC1BF0030E1E6EE80E1D6EB0
:1037E8003AEF14F06251631117E0010E246E04D011
:1037F800D89062376337242A63AFFAD76251605D85
:103808006351615904E36251605F6351615BD89011
:1038180063336233242EF2D760C060F061C061F078
:10382800120075C0D5F076C0D6F077C0D7F0D6CFE5
:1038380032F00B0EDF6FDDEC10F0336A0001786BAD
:103848007851450D280EF324D96E020EF420DA6E55
:10385800DF6A782B010E7865F3D7010C0001636FDE
:10386800030E636501D0030C63C0FFF0FFC062F074
:10387800623BF00E6217E1510F0B6211E16FFF0E10
:103888001E6E1F6AEEC020F0EFC021F0236A010E01
:10389800226EB3EF15F0A56F0001A5510E0D5C0E59
:1038A800F324D96E030EF420DA6EDFAE000CA551B6
:1038B8000E0D540EF324A06F030EF420A16F010E19
:1038C800A26FA4C0A3F091EF1DF0626F246A0001FB
:1038D800625198EC1BF000090FE062C0FCF0FC0E8E
:1038E8001E6E1F6AF0C020F0F1C021F0236A010E9D
:1038F800226EB3EC15F0010C000CE56B180EE525F3
:10390800D96EDA6A010EDA22DA0EDF6EE52BECC028
:1039180090F0EDC091F0A0C092F0A1C093F0010E1C
:10392800946F000E956B09EF15F01D50DA25206E87
:103938001E50DB21216E2004800E215801E3000C6B
:103948001F50D96EDA6ADAC0DEFFDBC0DDFF1D501A
:10395800DA271E50DB23010C1E6E000EF0B6010E96
:10396800206EF0968A961E50FEEC1DF0000EFEECBE
:103978001DF01F6E8A8620B002D0F09601D0F08626
:103988001F501200236A23501F24D96E000E2020D6
:10399800DA6E23501D24E16E000E1E20E26EDE500A
:1039A800E61801E0000C232A070E2364ECD7010C6B
:1039B800026E000EF0B6010E046EF0968A96025062
:1039C80006EC1EF0000E06EC1EF0036E8A8604B0AC
:1039D80002D0F09601D0F086035012001F6E000E40
:1039E800F0B6010E206EF0968A961F50FEEC1DF080
:1039F8001E50FEEC1DF08A8620B002D0F09601D051
:103A0800F0861200036E000EF0B6010E046EF096FA
:103A18008A96035006EC1EF0025006EC1EF08A86C9
:103A280004B002D0F09601D0F0861200FA0E000120
:103A3800876FFE0E886F896B8A6B14EC1BF04CEC59
:103A480016F08C6F8C0501E1000C020E8C19F7E161
:103A5800010C1E6E080E1F6E206AD8901E3420348A
:103A6800206ED8901E361D50205C02E31D50205E4B
:103A78001F2EF3D7205012001D501F02F3CF21F044
:103A8800F4CF22F01D502002F35022261E501F02B0
:103A9800F350222621C01DF022C01EF01200B2EC05
:103AA80017F0BBEC1DF073EC1DF01AEC1DF00101D2
:103AB800856F855166EC15F021EC1EF0FDD70001ED
:103AC8008C6F8C5104E0C00E876FFE0E03D0630E1E
:103AD800876FFE0E886F896B8A6B14EF1BF0A20E3E
:103AE8000001876FFE0E886F896B010E8A6F14ECD8
:103AF8001BF0070E1E6ED00E1D6E3AEF14F0A06F6D
:103B0800ECC090F0EDC091F00001926B936B946B58
:103B1800A0C095F0010E09EF15F0ECC090F0EDC0D3
:103B280091F0A0C092F0A1C093F0000E946BA3C0D6
:103B380095F009EF15F01F6E1E6A3A0E1F6005D04A
:103B48002F0E1F6402D0010E1E6E1EC01DF01D3008
:103B580012001D6A400E1D24D96EDA6A010EDA229F
:103B6800200EDF6E1D2A1F0E1D64F4D71F0C380EA1
:103B7800CD6E9A6ACF6ACE6ACECFDCF0CFCFDDF0B9
:103B88009E909D801FEF1EF0020E4260020C425074
:103B9800450D280EF324D96E020EF420DA6EDF6A82
:103BA800000C7C0ED16F320ED26FD36B200ED46F07
:103BB8001D6E040EE0EF1DF01E6E71B4FED7316A63
:103BC800356A1EC030F01DC034F071801200A4AEFA
:103BD8001200A49E38EC18F0026A050E016EA2EFDE
:103BE80014F0E70E876FFF0E886F896B010E8A6FDE
:103BF80014EF1BF01D6EC69E1DC0C9FFC7A0FED7DF
:103C0800C9501200016EC69E01C0C9FFC7A0FED7E9
:103C1800C95012008A6F89C087F000018A5178EF75
:103C28001BF0C8EC00F00001E2B7010C000C000129
:103C3800E297C8EF1DF0CD801200C0EF0AF000F047
:073C4800120001031200FF4E
:10FDA6000020B2202020B22020B220B22020202025
:10FDB60020B220B20D0AB220B220B220B2202020FA
:10FDC600B22020B22020B220200D0AB22020B2207C
:10FDD60020B220B220B22020B22020B220B20D0ADA
:10FDE600B22020B22020B220B22020B220B220B20F
:10FDF6002020B20D0AB22020B22020B220B220204C
:10FE060020B220B2202020B20D0A2020202020205F
:10FE1600202020202020202020202020200D0A0124
:10FE2600000800400000020010008001000A006483
:10FE360000E80310270100100000010010436F6E58
:10FE46006E656374696E67205065657220206F6EFB
:10FE5600204368616E6E656C202564200052423036
:10FE6600203A20556E696361737420202052423215
:10FE7600203A204E657874204E6F64650020436FEB
:10FE86006E6E6563746564205065657220206F6EC2
:10FE9600204368616E6E656C2025640053696D7041
:10FEA6006C65205354415220202020204D5246326A
:10FEB600344A3430204E6F6465005043203A524233
:10FEC60030206F72205242322020746F2042726FAF
:10FED600616463617374005242303A2042726F610A
:10FEE600646361737420205242323A20556E69630E
:10FEF600617374005242303A4E6577204E657477CE
:10FF06006F726B205242323A467265657A657200AC
:10FF16005242303A253032642D253032782530323F
:10FF260078253032782D6D65005242303A253032D0
:10FF3600642D25303278253032782530327800200D
:10FF4600416464726573733A2530327825303278AD
:10FF56002530327800446174615F53656E64696E62
:10FF6600675F4661696C212100454E445F444556F2
:10FF760049434553203A2530326400303132333418
:10FF860035363738394142434445460030313233FD
:10FF960034353637383961626364656600524232F9
:10FFA6003A204368616E6765206E6F646500446140
:10FFB6007461205061636B65742066726F6D0052C8
:10FFC60058204D657373616765733A202533640065
:10FFD6005458204D657373616765733A2025336401
:10FFE6000020556E6963617374204661696C6564AF
:02FFF600000009
:08FFF800ACF6D8FFFFF9FFF1A0
:00000001FF
